{
	"contract/lottery.sol": {
		"Lottery": {
			"abi": [
				{
					"inputs": [
						{
							"internalType": "uint256",
							"name": "min_",
							"type": "uint256"
						},
						{
							"internalType": "uint256",
							"name": "max_",
							"type": "uint256"
						}
					],
					"stateMutability": "nonpayable",
					"type": "constructor"
				},
				{
					"anonymous": false,
					"inputs": [
						{
							"indexed": false,
							"internalType": "uint256",
							"name": "num",
							"type": "uint256"
						}
					],
					"name": "number",
					"type": "event"
				},
				{
					"anonymous": false,
					"inputs": [
						{
							"indexed": false,
							"internalType": "address",
							"name": "prtcpt",
							"type": "address"
						},
						{
							"indexed": false,
							"internalType": "string",
							"name": "alert",
							"type": "string"
						}
					],
					"name": "participantJoined",
					"type": "event"
				},
				{
					"inputs": [],
					"name": "destroy",
					"outputs": [],
					"stateMutability": "nonpayable",
					"type": "function"
				},
				{
					"inputs": [],
					"name": "findWinnerAndPay",
					"outputs": [
						{
							"internalType": "address",
							"name": "",
							"type": "address"
						}
					],
					"stateMutability": "nonpayable",
					"type": "function"
				},
				{
					"inputs": [
						{
							"internalType": "address",
							"name": "user",
							"type": "address"
						}
					],
					"name": "getParticipant",
					"outputs": [
						{
							"internalType": "address",
							"name": "",
							"type": "address"
						}
					],
					"stateMutability": "view",
					"type": "function"
				},
				{
					"inputs": [],
					"name": "host",
					"outputs": [
						{
							"internalType": "address payable",
							"name": "",
							"type": "address"
						}
					],
					"stateMutability": "view",
					"type": "function"
				},
				{
					"inputs": [],
					"name": "joinLottery",
					"outputs": [],
					"stateMutability": "payable",
					"type": "function"
				},
				{
					"inputs": [],
					"name": "max",
					"outputs": [
						{
							"internalType": "uint256",
							"name": "",
							"type": "uint256"
						}
					],
					"stateMutability": "view",
					"type": "function"
				},
				{
					"inputs": [],
					"name": "min",
					"outputs": [
						{
							"internalType": "uint256",
							"name": "",
							"type": "uint256"
						}
					],
					"stateMutability": "view",
					"type": "function"
				},
				{
					"inputs": [],
					"name": "monetaryPrize",
					"outputs": [
						{
							"internalType": "uint64",
							"name": "",
							"type": "uint64"
						}
					],
					"stateMutability": "view",
					"type": "function"
				},
				{
					"inputs": [],
					"name": "randomResult",
					"outputs": [
						{
							"internalType": "uint256",
							"name": "",
							"type": "uint256"
						}
					],
					"stateMutability": "view",
					"type": "function"
				},
				{
					"inputs": [],
					"name": "ticketCost",
					"outputs": [
						{
							"internalType": "uint64",
							"name": "",
							"type": "uint64"
						}
					],
					"stateMutability": "view",
					"type": "function"
				}
			],
			"devdoc": {
				"kind": "dev",
				"methods": {},
				"version": 1
			},
			"evm": {
				"assembly": "    /* \"contract/lottery.sol\":154:1989  contract Lottery {... */\n  mstore(0x40, 0x80)\n    /* \"contract/lottery.sol\":367:378  0.015 ether */\n  0x354a6ba7a18000\n    /* \"contract/lottery.sol\":340:378  uint64 public ticketCost = 0.015 ether */\n  0x01\n  exp(0x0100, 0x14)\n  dup2\n  sload\n  dup2\n  0xffffffffffffffff\n  mul\n  not\n  and\n  swap1\n  dup4\n  0xffffffffffffffff\n  and\n  mul\n  or\n  swap1\n  sstore\n  pop\n    /* \"contract/lottery.sol\":621:749  constructor(uint256 min_, uint256 max_) {... */\n  callvalue\n  dup1\n  iszero\n  tag_1\n  jumpi\n  revert(0x00, 0x00)\ntag_1:\n  pop\n  mload(0x40)\n  sub(codesize, bytecodeSize)\n  dup1\n  bytecodeSize\n  dup4\n  codecopy\n  dup2\n  dup2\n  add\n  0x40\n  mstore\n  dup2\n  add\n  swap1\n  tag_2\n  swap2\n  swap1\n  tag_3\n  jump\t// in\ntag_2:\n    /* \"contract/lottery.sol\":730:740  msg.sender */\n  caller\n    /* \"contract/lottery.sol\":715:719  host */\n  0x01\n  0x00\n    /* \"contract/lottery.sol\":715:741  host = payable(msg.sender) */\n  0x0100\n  exp\n  dup2\n  sload\n  dup2\n  0xffffffffffffffffffffffffffffffffffffffff\n  mul\n  not\n  and\n  swap1\n  dup4\n  0xffffffffffffffffffffffffffffffffffffffff\n  and\n  mul\n  or\n  swap1\n  sstore\n  pop\n    /* \"contract/lottery.sol\":621:749  constructor(uint256 min_, uint256 max_) {... */\n  pop\n  pop\n    /* \"contract/lottery.sol\":154:1989  contract Lottery {... */\n  jump(tag_6)\n    /* \"#utility.yul\":88:205   */\ntag_8:\n    /* \"#utility.yul\":197:198   */\n  0x00\n    /* \"#utility.yul\":194:195   */\n  0x00\n    /* \"#utility.yul\":187:199   */\n  revert\n    /* \"#utility.yul\":334:411   */\ntag_10:\n    /* \"#utility.yul\":371:378   */\n  0x00\n    /* \"#utility.yul\":400:405   */\n  dup2\n    /* \"#utility.yul\":389:405   */\n  swap1\n  pop\n    /* \"#utility.yul\":334:411   */\n  swap2\n  swap1\n  pop\n  jump\t// out\n    /* \"#utility.yul\":417:539   */\ntag_11:\n    /* \"#utility.yul\":490:514   */\n  tag_19\n    /* \"#utility.yul\":508:513   */\n  dup2\n    /* \"#utility.yul\":490:514   */\n  tag_10\n  jump\t// in\ntag_19:\n    /* \"#utility.yul\":483:488   */\n  dup2\n    /* \"#utility.yul\":480:515   */\n  eq\n    /* \"#utility.yul\":470:533   */\n  tag_20\n  jumpi\n    /* \"#utility.yul\":529:530   */\n  0x00\n    /* \"#utility.yul\":526:527   */\n  0x00\n    /* \"#utility.yul\":519:531   */\n  revert\n    /* \"#utility.yul\":470:533   */\ntag_20:\n    /* \"#utility.yul\":417:539   */\n  pop\n  jump\t// out\n    /* \"#utility.yul\":545:688   */\ntag_12:\n    /* \"#utility.yul\":602:607   */\n  0x00\n    /* \"#utility.yul\":633:639   */\n  dup2\n    /* \"#utility.yul\":627:640   */\n  mload\n    /* \"#utility.yul\":618:640   */\n  swap1\n  pop\n    /* \"#utility.yul\":649:682   */\n  tag_22\n    /* \"#utility.yul\":676:681   */\n  dup2\n    /* \"#utility.yul\":649:682   */\n  tag_11\n  jump\t// in\ntag_22:\n    /* \"#utility.yul\":545:688   */\n  swap3\n  swap2\n  pop\n  pop\n  jump\t// out\n    /* \"#utility.yul\":694:1201   */\ntag_3:\n    /* \"#utility.yul\":773:779   */\n  0x00\n    /* \"#utility.yul\":781:787   */\n  0x00\n    /* \"#utility.yul\":830:832   */\n  0x40\n    /* \"#utility.yul\":818:827   */\n  dup4\n    /* \"#utility.yul\":809:816   */\n  dup6\n    /* \"#utility.yul\":805:828   */\n  sub\n    /* \"#utility.yul\":801:833   */\n  slt\n    /* \"#utility.yul\":798:917   */\n  iszero\n  tag_24\n  jumpi\n    /* \"#utility.yul\":836:915   */\n  tag_25\n  tag_8\n  jump\t// in\ntag_25:\n    /* \"#utility.yul\":798:917   */\ntag_24:\n    /* \"#utility.yul\":956:957   */\n  0x00\n    /* \"#utility.yul\":981:1045   */\n  tag_26\n    /* \"#utility.yul\":1037:1044   */\n  dup6\n    /* \"#utility.yul\":1028:1034   */\n  dup3\n    /* \"#utility.yul\":1017:1026   */\n  dup7\n    /* \"#utility.yul\":1013:1035   */\n  add\n    /* \"#utility.yul\":981:1045   */\n  tag_12\n  jump\t// in\ntag_26:\n    /* \"#utility.yul\":971:1045   */\n  swap3\n  pop\n    /* \"#utility.yul\":927:1055   */\n  pop\n    /* \"#utility.yul\":1094:1096   */\n  0x20\n    /* \"#utility.yul\":1120:1184   */\n  tag_27\n    /* \"#utility.yul\":1176:1183   */\n  dup6\n    /* \"#utility.yul\":1167:1173   */\n  dup3\n    /* \"#utility.yul\":1156:1165   */\n  dup7\n    /* \"#utility.yul\":1152:1174   */\n  add\n    /* \"#utility.yul\":1120:1184   */\n  tag_12\n  jump\t// in\ntag_27:\n    /* \"#utility.yul\":1110:1184   */\n  swap2\n  pop\n    /* \"#utility.yul\":1065:1194   */\n  pop\n    /* \"#utility.yul\":694:1201   */\n  swap3\n  pop\n  swap3\n  swap1\n  pop\n  jump\t// out\n    /* \"contract/lottery.sol\":154:1989  contract Lottery {... */\ntag_6:\n  dataSize(sub_0)\n  dup1\n  dataOffset(sub_0)\n  0x00\n  codecopy\n  0x00\n  return\nstop\n\nsub_0: assembly {\n        /* \"contract/lottery.sol\":154:1989  contract Lottery {... */\n      mstore(0x40, 0x80)\n      jumpi(tag_1, lt(calldatasize, 0x04))\n      shr(0xe0, calldataload(0x00))\n      dup1\n      0x6c77f989\n      gt\n      tag_12\n      jumpi\n      dup1\n      0x6c77f989\n      eq\n      tag_7\n      jumpi\n      dup1\n      0x7143059f\n      eq\n      tag_8\n      jumpi\n      dup1\n      0x83197ef0\n      eq\n      tag_9\n      jumpi\n      dup1\n      0xf437bc59\n      eq\n      tag_10\n      jumpi\n      dup1\n      0xf8897945\n      eq\n      tag_11\n      jumpi\n      jump(tag_1)\n    tag_12:\n      dup1\n      0x0b28ec81\n      eq\n      tag_2\n      jumpi\n      dup1\n      0x1eecd934\n      eq\n      tag_3\n      jumpi\n      dup1\n      0x42619f66\n      eq\n      tag_4\n      jumpi\n      dup1\n      0x630d1833\n      eq\n      tag_5\n      jumpi\n      dup1\n      0x6ac5db19\n      eq\n      tag_6\n      jumpi\n    tag_1:\n      revert(0x00, 0x00)\n        /* \"contract/lottery.sol\":1893:1986  function findWinnerAndPay() public returns (address) {... */\n    tag_2:\n      callvalue\n      dup1\n      iszero\n      tag_13\n      jumpi\n      revert(0x00, 0x00)\n    tag_13:\n      pop\n      tag_14\n      tag_15\n      jump\t// in\n    tag_14:\n      mload(0x40)\n      tag_16\n      swap2\n      swap1\n      tag_17\n      jump\t// in\n    tag_16:\n      mload(0x40)\n      dup1\n      swap2\n      sub\n      swap1\n      return\n        /* \"contract/lottery.sol\":340:378  uint64 public ticketCost = 0.015 ether */\n    tag_3:\n      callvalue\n      dup1\n      iszero\n      tag_18\n      jumpi\n      revert(0x00, 0x00)\n    tag_18:\n      pop\n      tag_19\n      tag_20\n      jump\t// in\n    tag_19:\n      mload(0x40)\n      tag_21\n      swap2\n      swap1\n      tag_22\n      jump\t// in\n    tag_21:\n      mload(0x40)\n      dup1\n      swap2\n      sub\n      swap1\n      return\n        /* \"contract/lottery.sol\":535:562  uint256 public randomResult */\n    tag_4:\n      callvalue\n      dup1\n      iszero\n      tag_23\n      jumpi\n      revert(0x00, 0x00)\n    tag_23:\n      pop\n      tag_24\n      tag_25\n      jump\t// in\n    tag_24:\n      mload(0x40)\n      tag_26\n      swap2\n      swap1\n      tag_27\n      jump\t// in\n    tag_26:\n      mload(0x40)\n      dup1\n      swap2\n      sub\n      swap1\n      return\n        /* \"contract/lottery.sol\":286:332  uint64 public constant monetaryPrize = 5 ether */\n    tag_5:\n      callvalue\n      dup1\n      iszero\n      tag_28\n      jumpi\n      revert(0x00, 0x00)\n    tag_28:\n      pop\n      tag_29\n      tag_30\n      jump\t// in\n    tag_29:\n      mload(0x40)\n      tag_31\n      swap2\n      swap1\n      tag_22\n      jump\t// in\n    tag_31:\n      mload(0x40)\n      dup1\n      swap2\n      sub\n      swap1\n      return\n        /* \"contract/lottery.sol\":594:612  uint256 public max */\n    tag_6:\n      callvalue\n      dup1\n      iszero\n      tag_32\n      jumpi\n      revert(0x00, 0x00)\n    tag_32:\n      pop\n      tag_33\n      tag_34\n      jump\t// in\n    tag_33:\n      mload(0x40)\n      tag_35\n      swap2\n      swap1\n      tag_27\n      jump\t// in\n    tag_35:\n      mload(0x40)\n      dup1\n      swap2\n      sub\n      swap1\n      return\n        /* \"contract/lottery.sol\":1178:1334  function joinLottery() public payable {... */\n    tag_7:\n      tag_36\n      tag_37\n      jump\t// in\n    tag_36:\n      stop\n        /* \"contract/lottery.sol\":1414:1751  function getParticipant(address user) public view returns (address) { ... */\n    tag_8:\n      callvalue\n      dup1\n      iszero\n      tag_38\n      jumpi\n      revert(0x00, 0x00)\n    tag_38:\n      pop\n      tag_39\n      0x04\n      dup1\n      calldatasize\n      sub\n      dup2\n      add\n      swap1\n      tag_40\n      swap2\n      swap1\n      tag_41\n      jump\t// in\n    tag_40:\n      tag_42\n      jump\t// in\n    tag_39:\n      mload(0x40)\n      tag_43\n      swap2\n      swap1\n      tag_17\n      jump\t// in\n    tag_43:\n      mload(0x40)\n      dup1\n      swap2\n      sub\n      swap1\n      return\n        /* \"contract/lottery.sol\":757:920  function destroy() public {... */\n    tag_9:\n      callvalue\n      dup1\n      iszero\n      tag_44\n      jumpi\n      revert(0x00, 0x00)\n    tag_44:\n      pop\n      tag_45\n      tag_46\n      jump\t// in\n    tag_45:\n      stop\n        /* \"contract/lottery.sol\":252:279  address payable public host */\n    tag_10:\n      callvalue\n      dup1\n      iszero\n      tag_47\n      jumpi\n      revert(0x00, 0x00)\n    tag_47:\n      pop\n      tag_48\n      tag_49\n      jump\t// in\n    tag_48:\n      mload(0x40)\n      tag_50\n      swap2\n      swap1\n      tag_51\n      jump\t// in\n    tag_50:\n      mload(0x40)\n      dup1\n      swap2\n      sub\n      swap1\n      return\n        /* \"contract/lottery.sol\":569:587  uint256 public min */\n    tag_11:\n      callvalue\n      dup1\n      iszero\n      tag_52\n      jumpi\n      revert(0x00, 0x00)\n    tag_52:\n      pop\n      tag_53\n      tag_54\n      jump\t// in\n    tag_53:\n      mload(0x40)\n      tag_55\n      swap2\n      swap1\n      tag_27\n      jump\t// in\n    tag_55:\n      mload(0x40)\n      dup1\n      swap2\n      sub\n      swap1\n      return\n        /* \"contract/lottery.sol\":1893:1986  function findWinnerAndPay() public returns (address) {... */\n    tag_15:\n        /* \"contract/lottery.sol\":1937:1944  address */\n      0x00\n        /* \"contract/lottery.sol\":1974:1978  host */\n      0x01\n      0x00\n      swap1\n      sload\n      swap1\n      0x0100\n      exp\n      swap1\n      div\n      0xffffffffffffffffffffffffffffffffffffffff\n      and\n        /* \"contract/lottery.sol\":1967:1978  return host */\n      swap1\n      pop\n        /* \"contract/lottery.sol\":1893:1986  function findWinnerAndPay() public returns (address) {... */\n      swap1\n      jump\t// out\n        /* \"contract/lottery.sol\":340:378  uint64 public ticketCost = 0.015 ether */\n    tag_20:\n      0x01\n      0x14\n      swap1\n      sload\n      swap1\n      0x0100\n      exp\n      swap1\n      div\n      0xffffffffffffffff\n      and\n      dup2\n      jump\t// out\n        /* \"contract/lottery.sol\":535:562  uint256 public randomResult */\n    tag_25:\n      sload(0x04)\n      dup2\n      jump\t// out\n        /* \"contract/lottery.sol\":286:332  uint64 public constant monetaryPrize = 5 ether */\n    tag_30:\n        /* \"contract/lottery.sol\":325:332  5 ether */\n      0x4563918244f40000\n        /* \"contract/lottery.sol\":286:332  uint64 public constant monetaryPrize = 5 ether */\n      dup2\n      jump\t// out\n        /* \"contract/lottery.sol\":594:612  uint256 public max */\n    tag_34:\n      sload(0x06)\n      dup2\n      jump\t// out\n        /* \"contract/lottery.sol\":1178:1334  function joinLottery() public payable {... */\n    tag_37:\n        /* \"contract/lottery.sol\":1248:1258  ticketCost */\n      0x01\n      0x14\n      swap1\n      sload\n      swap1\n      0x0100\n      exp\n      swap1\n      div\n      0xffffffffffffffff\n      and\n        /* \"contract/lottery.sol\":1235:1258  msg.value == ticketCost */\n      0xffffffffffffffff\n      and\n        /* \"contract/lottery.sol\":1235:1244  msg.value */\n      callvalue\n        /* \"contract/lottery.sol\":1235:1258  msg.value == ticketCost */\n      eq\n        /* \"contract/lottery.sol\":1227:1276  require(msg.value == ticketCost, \"Wrong Amount.\") */\n      tag_58\n      jumpi\n      mload(0x40)\n      0x08c379a000000000000000000000000000000000000000000000000000000000\n      dup2\n      mstore\n      0x04\n      add\n      tag_59\n      swap1\n      tag_60\n      jump\t// in\n    tag_59:\n      mload(0x40)\n      dup1\n      swap2\n      sub\n      swap1\n      revert\n    tag_58:\n        /* \"contract/lottery.sol\":1287:1299  participants */\n      0x00\n        /* \"contract/lottery.sol\":1305:1315  msg.sender */\n      caller\n        /* \"contract/lottery.sol\":1287:1316  participants.push(msg.sender) */\n      swap1\n      dup1\n      0x01\n      dup2\n      sload\n      add\n      dup1\n      dup3\n      sstore\n      dup1\n      swap2\n      pop\n      pop\n      0x01\n      swap1\n      sub\n      swap1\n      0x00\n      mstore\n      keccak256(0x00, 0x20)\n      add\n      0x00\n      swap1\n      swap2\n      swap1\n      swap2\n      swap1\n      swap2\n      0x0100\n      exp\n      dup2\n      sload\n      dup2\n      0xffffffffffffffffffffffffffffffffffffffff\n      mul\n      not\n      and\n      swap1\n      dup4\n      0xffffffffffffffffffffffffffffffffffffffff\n      and\n      mul\n      or\n      swap1\n      sstore\n      pop\n        /* \"contract/lottery.sol\":1178:1334  function joinLottery() public payable {... */\n      jump\t// out\n        /* \"contract/lottery.sol\":1414:1751  function getParticipant(address user) public view returns (address) { ... */\n    tag_42:\n        /* \"contract/lottery.sol\":1473:1480  address */\n      0x00\n        /* \"contract/lottery.sol\":1494:1507  address found */\n      0x00\n        /* \"contract/lottery.sol\":1510:1514  host */\n      0x01\n      0x00\n      swap1\n      sload\n      swap1\n      0x0100\n      exp\n      swap1\n      div\n      0xffffffffffffffffffffffffffffffffffffffff\n      and\n        /* \"contract/lottery.sol\":1494:1514  address found = host */\n      swap1\n      pop\n        /* \"contract/lottery.sol\":1532:1540  uint64 i */\n      0x00\n        /* \"contract/lottery.sol\":1543:1544  0 */\n      0x00\n        /* \"contract/lottery.sol\":1532:1544  uint64 i = 0 */\n      swap1\n      pop\n        /* \"contract/lottery.sol\":1527:1720  for (uint64 i = 0; i < participants.length; i++) {... */\n    tag_63:\n        /* \"contract/lottery.sol\":1550:1562  participants */\n      0x00\n        /* \"contract/lottery.sol\":1550:1569  participants.length */\n      dup1\n      sload\n      swap1\n      pop\n        /* \"contract/lottery.sol\":1546:1547  i */\n      dup2\n        /* \"contract/lottery.sol\":1546:1569  i < participants.length */\n      0xffffffffffffffff\n      and\n      lt\n        /* \"contract/lottery.sol\":1527:1720  for (uint64 i = 0; i < participants.length; i++) {... */\n      iszero\n      tag_64\n      jumpi\n        /* \"contract/lottery.sol\":1603:1615  participants */\n      0x00\n        /* \"contract/lottery.sol\":1616:1617  i */\n      dup2\n        /* \"contract/lottery.sol\":1603:1618  participants[i] */\n      0xffffffffffffffff\n      and\n      dup2\n      sload\n      dup2\n      lt\n      tag_66\n      jumpi\n      tag_67\n      tag_68\n      jump\t// in\n    tag_67:\n    tag_66:\n      swap1\n      0x00\n      mstore\n      keccak256(0x00, 0x20)\n      add\n      0x00\n      swap1\n      sload\n      swap1\n      0x0100\n      exp\n      swap1\n      div\n      0xffffffffffffffffffffffffffffffffffffffff\n      and\n        /* \"contract/lottery.sol\":1595:1618  user == participants[i] */\n      0xffffffffffffffffffffffffffffffffffffffff\n      and\n        /* \"contract/lottery.sol\":1595:1599  user */\n      dup5\n        /* \"contract/lottery.sol\":1595:1618  user == participants[i] */\n      0xffffffffffffffffffffffffffffffffffffffff\n      and\n      sub\n        /* \"contract/lottery.sol\":1591:1709  if (user == participants[i]) {... */\n      tag_70\n      jumpi\n        /* \"contract/lottery.sol\":1647:1659  participants */\n      0x00\n        /* \"contract/lottery.sol\":1660:1661  i */\n      dup2\n        /* \"contract/lottery.sol\":1647:1662  participants[i] */\n      0xffffffffffffffff\n      and\n      dup2\n      sload\n      dup2\n      lt\n      tag_71\n      jumpi\n      tag_72\n      tag_68\n      jump\t// in\n    tag_72:\n    tag_71:\n      swap1\n      0x00\n      mstore\n      keccak256(0x00, 0x20)\n      add\n      0x00\n      swap1\n      sload\n      swap1\n      0x0100\n      exp\n      swap1\n      div\n      0xffffffffffffffffffffffffffffffffffffffff\n      and\n        /* \"contract/lottery.sol\":1639:1662  found = participants[i] */\n      swap2\n      pop\n        /* \"contract/lottery.sol\":1688:1693  found */\n      dup2\n        /* \"contract/lottery.sol\":1681:1693  return found */\n      swap3\n      pop\n      pop\n      pop\n      jump(tag_62)\n        /* \"contract/lottery.sol\":1591:1709  if (user == participants[i]) {... */\n    tag_70:\n        /* \"contract/lottery.sol\":1571:1574  i++ */\n      dup1\n      dup1\n      tag_74\n      swap1\n      tag_75\n      jump\t// in\n    tag_74:\n      swap2\n      pop\n      pop\n        /* \"contract/lottery.sol\":1527:1720  for (uint64 i = 0; i < participants.length; i++) {... */\n      jump(tag_63)\n    tag_64:\n      pop\n        /* \"contract/lottery.sol\":1739:1743  host */\n      0x01\n      0x00\n      swap1\n      sload\n      swap1\n      0x0100\n      exp\n      swap1\n      div\n      0xffffffffffffffffffffffffffffffffffffffff\n      and\n        /* \"contract/lottery.sol\":1732:1743  return host */\n      swap2\n      pop\n      pop\n        /* \"contract/lottery.sol\":1414:1751  function getParticipant(address user) public view returns (address) { ... */\n    tag_62:\n      swap2\n      swap1\n      pop\n      jump\t// out\n        /* \"contract/lottery.sol\":757:920  function destroy() public {... */\n    tag_46:\n        /* \"contract/lottery.sol\":816:820  host */\n      0x01\n      0x00\n      swap1\n      sload\n      swap1\n      0x0100\n      exp\n      swap1\n      div\n      0xffffffffffffffffffffffffffffffffffffffff\n      and\n        /* \"contract/lottery.sol\":802:820  msg.sender == host */\n      0xffffffffffffffffffffffffffffffffffffffff\n      and\n        /* \"contract/lottery.sol\":802:812  msg.sender */\n      caller\n        /* \"contract/lottery.sol\":802:820  msg.sender == host */\n      0xffffffffffffffffffffffffffffffffffffffff\n      and\n      eq\n        /* \"contract/lottery.sol\":794:883  require(msg.sender == host, \"Only the lottery host is allowed to destroy this contract.\") */\n      tag_77\n      jumpi\n      mload(0x40)\n      0x08c379a000000000000000000000000000000000000000000000000000000000\n      dup2\n      mstore\n      0x04\n      add\n      tag_78\n      swap1\n      tag_79\n      jump\t// in\n    tag_78:\n      mload(0x40)\n      dup1\n      swap2\n      sub\n      swap1\n      revert\n    tag_77:\n        /* \"contract/lottery.sol\":907:911  host */\n      0x01\n      0x00\n      swap1\n      sload\n      swap1\n      0x0100\n      exp\n      swap1\n      div\n      0xffffffffffffffffffffffffffffffffffffffff\n      and\n        /* \"contract/lottery.sol\":894:912  selfdestruct(host) */\n      0xffffffffffffffffffffffffffffffffffffffff\n      and\n      selfdestruct\n        /* \"contract/lottery.sol\":252:279  address payable public host */\n    tag_49:\n      0x01\n      0x00\n      swap1\n      sload\n      swap1\n      0x0100\n      exp\n      swap1\n      div\n      0xffffffffffffffffffffffffffffffffffffffff\n      and\n      dup2\n      jump\t// out\n        /* \"contract/lottery.sol\":569:587  uint256 public min */\n    tag_54:\n      sload(0x05)\n      dup2\n      jump\t// out\n        /* \"#utility.yul\":7:133   */\n    tag_80:\n        /* \"#utility.yul\":44:51   */\n      0x00\n        /* \"#utility.yul\":84:126   */\n      0xffffffffffffffffffffffffffffffffffffffff\n        /* \"#utility.yul\":77:82   */\n      dup3\n        /* \"#utility.yul\":73:127   */\n      and\n        /* \"#utility.yul\":62:127   */\n      swap1\n      pop\n        /* \"#utility.yul\":7:133   */\n      swap2\n      swap1\n      pop\n      jump\t// out\n        /* \"#utility.yul\":139:235   */\n    tag_81:\n        /* \"#utility.yul\":176:183   */\n      0x00\n        /* \"#utility.yul\":205:229   */\n      tag_103\n        /* \"#utility.yul\":223:228   */\n      dup3\n        /* \"#utility.yul\":205:229   */\n      tag_80\n      jump\t// in\n    tag_103:\n        /* \"#utility.yul\":194:229   */\n      swap1\n      pop\n        /* \"#utility.yul\":139:235   */\n      swap2\n      swap1\n      pop\n      jump\t// out\n        /* \"#utility.yul\":241:359   */\n    tag_82:\n        /* \"#utility.yul\":328:352   */\n      tag_105\n        /* \"#utility.yul\":346:351   */\n      dup2\n        /* \"#utility.yul\":328:352   */\n      tag_81\n      jump\t// in\n    tag_105:\n        /* \"#utility.yul\":323:326   */\n      dup3\n        /* \"#utility.yul\":316:353   */\n      mstore\n        /* \"#utility.yul\":241:359   */\n      pop\n      pop\n      jump\t// out\n        /* \"#utility.yul\":365:587   */\n    tag_17:\n        /* \"#utility.yul\":458:462   */\n      0x00\n        /* \"#utility.yul\":496:498   */\n      0x20\n        /* \"#utility.yul\":485:494   */\n      dup3\n        /* \"#utility.yul\":481:499   */\n      add\n        /* \"#utility.yul\":473:499   */\n      swap1\n      pop\n        /* \"#utility.yul\":509:580   */\n      tag_107\n        /* \"#utility.yul\":577:578   */\n      0x00\n        /* \"#utility.yul\":566:575   */\n      dup4\n        /* \"#utility.yul\":562:579   */\n      add\n        /* \"#utility.yul\":553:559   */\n      dup5\n        /* \"#utility.yul\":509:580   */\n      tag_82\n      jump\t// in\n    tag_107:\n        /* \"#utility.yul\":365:587   */\n      swap3\n      swap2\n      pop\n      pop\n      jump\t// out\n        /* \"#utility.yul\":593:694   */\n    tag_83:\n        /* \"#utility.yul\":629:636   */\n      0x00\n        /* \"#utility.yul\":669:687   */\n      0xffffffffffffffff\n        /* \"#utility.yul\":662:667   */\n      dup3\n        /* \"#utility.yul\":658:688   */\n      and\n        /* \"#utility.yul\":647:688   */\n      swap1\n      pop\n        /* \"#utility.yul\":593:694   */\n      swap2\n      swap1\n      pop\n      jump\t// out\n        /* \"#utility.yul\":700:815   */\n    tag_84:\n        /* \"#utility.yul\":785:808   */\n      tag_110\n        /* \"#utility.yul\":802:807   */\n      dup2\n        /* \"#utility.yul\":785:808   */\n      tag_83\n      jump\t// in\n    tag_110:\n        /* \"#utility.yul\":780:783   */\n      dup3\n        /* \"#utility.yul\":773:809   */\n      mstore\n        /* \"#utility.yul\":700:815   */\n      pop\n      pop\n      jump\t// out\n        /* \"#utility.yul\":821:1039   */\n    tag_22:\n        /* \"#utility.yul\":912:916   */\n      0x00\n        /* \"#utility.yul\":950:952   */\n      0x20\n        /* \"#utility.yul\":939:948   */\n      dup3\n        /* \"#utility.yul\":935:953   */\n      add\n        /* \"#utility.yul\":927:953   */\n      swap1\n      pop\n        /* \"#utility.yul\":963:1032   */\n      tag_112\n        /* \"#utility.yul\":1029:1030   */\n      0x00\n        /* \"#utility.yul\":1018:1027   */\n      dup4\n        /* \"#utility.yul\":1014:1031   */\n      add\n        /* \"#utility.yul\":1005:1011   */\n      dup5\n        /* \"#utility.yul\":963:1032   */\n      tag_84\n      jump\t// in\n    tag_112:\n        /* \"#utility.yul\":821:1039   */\n      swap3\n      swap2\n      pop\n      pop\n      jump\t// out\n        /* \"#utility.yul\":1045:1122   */\n    tag_85:\n        /* \"#utility.yul\":1082:1089   */\n      0x00\n        /* \"#utility.yul\":1111:1116   */\n      dup2\n        /* \"#utility.yul\":1100:1116   */\n      swap1\n      pop\n        /* \"#utility.yul\":1045:1122   */\n      swap2\n      swap1\n      pop\n      jump\t// out\n        /* \"#utility.yul\":1128:1246   */\n    tag_86:\n        /* \"#utility.yul\":1215:1239   */\n      tag_115\n        /* \"#utility.yul\":1233:1238   */\n      dup2\n        /* \"#utility.yul\":1215:1239   */\n      tag_85\n      jump\t// in\n    tag_115:\n        /* \"#utility.yul\":1210:1213   */\n      dup3\n        /* \"#utility.yul\":1203:1240   */\n      mstore\n        /* \"#utility.yul\":1128:1246   */\n      pop\n      pop\n      jump\t// out\n        /* \"#utility.yul\":1252:1474   */\n    tag_27:\n        /* \"#utility.yul\":1345:1349   */\n      0x00\n        /* \"#utility.yul\":1383:1385   */\n      0x20\n        /* \"#utility.yul\":1372:1381   */\n      dup3\n        /* \"#utility.yul\":1368:1386   */\n      add\n        /* \"#utility.yul\":1360:1386   */\n      swap1\n      pop\n        /* \"#utility.yul\":1396:1467   */\n      tag_117\n        /* \"#utility.yul\":1464:1465   */\n      0x00\n        /* \"#utility.yul\":1453:1462   */\n      dup4\n        /* \"#utility.yul\":1449:1466   */\n      add\n        /* \"#utility.yul\":1440:1446   */\n      dup5\n        /* \"#utility.yul\":1396:1467   */\n      tag_86\n      jump\t// in\n    tag_117:\n        /* \"#utility.yul\":1252:1474   */\n      swap3\n      swap2\n      pop\n      pop\n      jump\t// out\n        /* \"#utility.yul\":1561:1678   */\n    tag_88:\n        /* \"#utility.yul\":1670:1671   */\n      0x00\n        /* \"#utility.yul\":1667:1668   */\n      0x00\n        /* \"#utility.yul\":1660:1672   */\n      revert\n        /* \"#utility.yul\":1807:1929   */\n    tag_90:\n        /* \"#utility.yul\":1880:1904   */\n      tag_122\n        /* \"#utility.yul\":1898:1903   */\n      dup2\n        /* \"#utility.yul\":1880:1904   */\n      tag_81\n      jump\t// in\n    tag_122:\n        /* \"#utility.yul\":1873:1878   */\n      dup2\n        /* \"#utility.yul\":1870:1905   */\n      eq\n        /* \"#utility.yul\":1860:1923   */\n      tag_123\n      jumpi\n        /* \"#utility.yul\":1919:1920   */\n      0x00\n        /* \"#utility.yul\":1916:1917   */\n      0x00\n        /* \"#utility.yul\":1909:1921   */\n      revert\n        /* \"#utility.yul\":1860:1923   */\n    tag_123:\n        /* \"#utility.yul\":1807:1929   */\n      pop\n      jump\t// out\n        /* \"#utility.yul\":1935:2074   */\n    tag_91:\n        /* \"#utility.yul\":1981:1986   */\n      0x00\n        /* \"#utility.yul\":2019:2025   */\n      dup2\n        /* \"#utility.yul\":2006:2026   */\n      calldataload\n        /* \"#utility.yul\":1997:2026   */\n      swap1\n      pop\n        /* \"#utility.yul\":2035:2068   */\n      tag_125\n        /* \"#utility.yul\":2062:2067   */\n      dup2\n        /* \"#utility.yul\":2035:2068   */\n      tag_90\n      jump\t// in\n    tag_125:\n        /* \"#utility.yul\":1935:2074   */\n      swap3\n      swap2\n      pop\n      pop\n      jump\t// out\n        /* \"#utility.yul\":2080:2409   */\n    tag_41:\n        /* \"#utility.yul\":2139:2145   */\n      0x00\n        /* \"#utility.yul\":2188:2190   */\n      0x20\n        /* \"#utility.yul\":2176:2185   */\n      dup3\n        /* \"#utility.yul\":2167:2174   */\n      dup5\n        /* \"#utility.yul\":2163:2186   */\n      sub\n        /* \"#utility.yul\":2159:2191   */\n      slt\n        /* \"#utility.yul\":2156:2275   */\n      iszero\n      tag_127\n      jumpi\n        /* \"#utility.yul\":2194:2273   */\n      tag_128\n      tag_88\n      jump\t// in\n    tag_128:\n        /* \"#utility.yul\":2156:2275   */\n    tag_127:\n        /* \"#utility.yul\":2314:2315   */\n      0x00\n        /* \"#utility.yul\":2339:2392   */\n      tag_129\n        /* \"#utility.yul\":2384:2391   */\n      dup5\n        /* \"#utility.yul\":2375:2381   */\n      dup3\n        /* \"#utility.yul\":2364:2373   */\n      dup6\n        /* \"#utility.yul\":2360:2382   */\n      add\n        /* \"#utility.yul\":2339:2392   */\n      tag_91\n      jump\t// in\n    tag_129:\n        /* \"#utility.yul\":2329:2392   */\n      swap2\n      pop\n        /* \"#utility.yul\":2285:2402   */\n      pop\n        /* \"#utility.yul\":2080:2409   */\n      swap3\n      swap2\n      pop\n      pop\n      jump\t// out\n        /* \"#utility.yul\":2415:2519   */\n    tag_92:\n        /* \"#utility.yul\":2460:2467   */\n      0x00\n        /* \"#utility.yul\":2489:2513   */\n      tag_131\n        /* \"#utility.yul\":2507:2512   */\n      dup3\n        /* \"#utility.yul\":2489:2513   */\n      tag_80\n      jump\t// in\n    tag_131:\n        /* \"#utility.yul\":2478:2513   */\n      swap1\n      pop\n        /* \"#utility.yul\":2415:2519   */\n      swap2\n      swap1\n      pop\n      jump\t// out\n        /* \"#utility.yul\":2525:2667   */\n    tag_93:\n        /* \"#utility.yul\":2628:2660   */\n      tag_133\n        /* \"#utility.yul\":2654:2659   */\n      dup2\n        /* \"#utility.yul\":2628:2660   */\n      tag_92\n      jump\t// in\n    tag_133:\n        /* \"#utility.yul\":2623:2626   */\n      dup3\n        /* \"#utility.yul\":2616:2661   */\n      mstore\n        /* \"#utility.yul\":2525:2667   */\n      pop\n      pop\n      jump\t// out\n        /* \"#utility.yul\":2673:2927   */\n    tag_51:\n        /* \"#utility.yul\":2782:2786   */\n      0x00\n        /* \"#utility.yul\":2820:2822   */\n      0x20\n        /* \"#utility.yul\":2809:2818   */\n      dup3\n        /* \"#utility.yul\":2805:2823   */\n      add\n        /* \"#utility.yul\":2797:2823   */\n      swap1\n      pop\n        /* \"#utility.yul\":2833:2920   */\n      tag_135\n        /* \"#utility.yul\":2917:2918   */\n      0x00\n        /* \"#utility.yul\":2906:2915   */\n      dup4\n        /* \"#utility.yul\":2902:2919   */\n      add\n        /* \"#utility.yul\":2893:2899   */\n      dup5\n        /* \"#utility.yul\":2833:2920   */\n      tag_93\n      jump\t// in\n    tag_135:\n        /* \"#utility.yul\":2673:2927   */\n      swap3\n      swap2\n      pop\n      pop\n      jump\t// out\n        /* \"#utility.yul\":2933:3102   */\n    tag_94:\n        /* \"#utility.yul\":3017:3028   */\n      0x00\n        /* \"#utility.yul\":3051:3057   */\n      dup3\n        /* \"#utility.yul\":3046:3049   */\n      dup3\n        /* \"#utility.yul\":3039:3058   */\n      mstore\n        /* \"#utility.yul\":3091:3095   */\n      0x20\n        /* \"#utility.yul\":3086:3089   */\n      dup3\n        /* \"#utility.yul\":3082:3096   */\n      add\n        /* \"#utility.yul\":3067:3096   */\n      swap1\n      pop\n        /* \"#utility.yul\":2933:3102   */\n      swap3\n      swap2\n      pop\n      pop\n      jump\t// out\n        /* \"#utility.yul\":3108:3271   */\n    tag_95:\n        /* \"#utility.yul\":3248:3263   */\n      0x57726f6e6720416d6f756e742e00000000000000000000000000000000000000\n        /* \"#utility.yul\":3244:3245   */\n      0x00\n        /* \"#utility.yul\":3236:3242   */\n      dup3\n        /* \"#utility.yul\":3232:3246   */\n      add\n        /* \"#utility.yul\":3225:3264   */\n      mstore\n        /* \"#utility.yul\":3108:3271   */\n      pop\n      jump\t// out\n        /* \"#utility.yul\":3277:3643   */\n    tag_96:\n        /* \"#utility.yul\":3419:3422   */\n      0x00\n        /* \"#utility.yul\":3440:3507   */\n      tag_139\n        /* \"#utility.yul\":3504:3506   */\n      0x0d\n        /* \"#utility.yul\":3499:3502   */\n      dup4\n        /* \"#utility.yul\":3440:3507   */\n      tag_94\n      jump\t// in\n    tag_139:\n        /* \"#utility.yul\":3433:3507   */\n      swap2\n      pop\n        /* \"#utility.yul\":3516:3609   */\n      tag_140\n        /* \"#utility.yul\":3605:3608   */\n      dup3\n        /* \"#utility.yul\":3516:3609   */\n      tag_95\n      jump\t// in\n    tag_140:\n        /* \"#utility.yul\":3634:3636   */\n      0x20\n        /* \"#utility.yul\":3629:3632   */\n      dup3\n        /* \"#utility.yul\":3625:3637   */\n      add\n        /* \"#utility.yul\":3618:3637   */\n      swap1\n      pop\n        /* \"#utility.yul\":3277:3643   */\n      swap2\n      swap1\n      pop\n      jump\t// out\n        /* \"#utility.yul\":3649:4068   */\n    tag_60:\n        /* \"#utility.yul\":3815:3819   */\n      0x00\n        /* \"#utility.yul\":3853:3855   */\n      0x20\n        /* \"#utility.yul\":3842:3851   */\n      dup3\n        /* \"#utility.yul\":3838:3856   */\n      add\n        /* \"#utility.yul\":3830:3856   */\n      swap1\n      pop\n        /* \"#utility.yul\":3902:3911   */\n      dup2\n        /* \"#utility.yul\":3896:3900   */\n      dup2\n        /* \"#utility.yul\":3892:3912   */\n      sub\n        /* \"#utility.yul\":3888:3889   */\n      0x00\n        /* \"#utility.yul\":3877:3886   */\n      dup4\n        /* \"#utility.yul\":3873:3890   */\n      add\n        /* \"#utility.yul\":3866:3913   */\n      mstore\n        /* \"#utility.yul\":3930:4061   */\n      tag_142\n        /* \"#utility.yul\":4056:4060   */\n      dup2\n        /* \"#utility.yul\":3930:4061   */\n      tag_96\n      jump\t// in\n    tag_142:\n        /* \"#utility.yul\":3922:4061   */\n      swap1\n      pop\n        /* \"#utility.yul\":3649:4068   */\n      swap2\n      swap1\n      pop\n      jump\t// out\n        /* \"#utility.yul\":4074:4254   */\n    tag_68:\n        /* \"#utility.yul\":4122:4199   */\n      0x4e487b7100000000000000000000000000000000000000000000000000000000\n        /* \"#utility.yul\":4119:4120   */\n      0x00\n        /* \"#utility.yul\":4112:4200   */\n      mstore\n        /* \"#utility.yul\":4219:4223   */\n      0x32\n        /* \"#utility.yul\":4216:4217   */\n      0x04\n        /* \"#utility.yul\":4209:4224   */\n      mstore\n        /* \"#utility.yul\":4243:4247   */\n      0x24\n        /* \"#utility.yul\":4240:4241   */\n      0x00\n        /* \"#utility.yul\":4233:4248   */\n      revert\n        /* \"#utility.yul\":4260:4440   */\n    tag_97:\n        /* \"#utility.yul\":4308:4385   */\n      0x4e487b7100000000000000000000000000000000000000000000000000000000\n        /* \"#utility.yul\":4305:4306   */\n      0x00\n        /* \"#utility.yul\":4298:4386   */\n      mstore\n        /* \"#utility.yul\":4405:4409   */\n      0x11\n        /* \"#utility.yul\":4402:4403   */\n      0x04\n        /* \"#utility.yul\":4395:4410   */\n      mstore\n        /* \"#utility.yul\":4429:4433   */\n      0x24\n        /* \"#utility.yul\":4426:4427   */\n      0x00\n        /* \"#utility.yul\":4419:4434   */\n      revert\n        /* \"#utility.yul\":4446:4629   */\n    tag_75:\n        /* \"#utility.yul\":4484:4487   */\n      0x00\n        /* \"#utility.yul\":4507:4530   */\n      tag_146\n        /* \"#utility.yul\":4524:4529   */\n      dup3\n        /* \"#utility.yul\":4507:4530   */\n      tag_83\n      jump\t// in\n    tag_146:\n        /* \"#utility.yul\":4498:4530   */\n      swap2\n      pop\n        /* \"#utility.yul\":4552:4570   */\n      0xffffffffffffffff\n        /* \"#utility.yul\":4545:4550   */\n      dup3\n        /* \"#utility.yul\":4542:4571   */\n      sub\n        /* \"#utility.yul\":4539:4594   */\n      tag_147\n      jumpi\n        /* \"#utility.yul\":4574:4592   */\n      tag_148\n      tag_97\n      jump\t// in\n    tag_148:\n        /* \"#utility.yul\":4539:4594   */\n    tag_147:\n        /* \"#utility.yul\":4621:4622   */\n      0x01\n        /* \"#utility.yul\":4614:4619   */\n      dup3\n        /* \"#utility.yul\":4610:4623   */\n      add\n        /* \"#utility.yul\":4603:4623   */\n      swap1\n      pop\n        /* \"#utility.yul\":4446:4629   */\n      swap2\n      swap1\n      pop\n      jump\t// out\n        /* \"#utility.yul\":4635:4880   */\n    tag_98:\n        /* \"#utility.yul\":4775:4809   */\n      0x4f6e6c7920746865206c6f747465727920686f737420697320616c6c6f776564\n        /* \"#utility.yul\":4771:4772   */\n      0x00\n        /* \"#utility.yul\":4763:4769   */\n      dup3\n        /* \"#utility.yul\":4759:4773   */\n      add\n        /* \"#utility.yul\":4752:4810   */\n      mstore\n        /* \"#utility.yul\":4844:4872   */\n      0x20746f2064657374726f79207468697320636f6e74726163742e000000000000\n        /* \"#utility.yul\":4839:4841   */\n      0x20\n        /* \"#utility.yul\":4831:4837   */\n      dup3\n        /* \"#utility.yul\":4827:4842   */\n      add\n        /* \"#utility.yul\":4820:4873   */\n      mstore\n        /* \"#utility.yul\":4635:4880   */\n      pop\n      jump\t// out\n        /* \"#utility.yul\":4886:5252   */\n    tag_99:\n        /* \"#utility.yul\":5028:5031   */\n      0x00\n        /* \"#utility.yul\":5049:5116   */\n      tag_151\n        /* \"#utility.yul\":5113:5115   */\n      0x3a\n        /* \"#utility.yul\":5108:5111   */\n      dup4\n        /* \"#utility.yul\":5049:5116   */\n      tag_94\n      jump\t// in\n    tag_151:\n        /* \"#utility.yul\":5042:5116   */\n      swap2\n      pop\n        /* \"#utility.yul\":5125:5218   */\n      tag_152\n        /* \"#utility.yul\":5214:5217   */\n      dup3\n        /* \"#utility.yul\":5125:5218   */\n      tag_98\n      jump\t// in\n    tag_152:\n        /* \"#utility.yul\":5243:5245   */\n      0x40\n        /* \"#utility.yul\":5238:5241   */\n      dup3\n        /* \"#utility.yul\":5234:5246   */\n      add\n        /* \"#utility.yul\":5227:5246   */\n      swap1\n      pop\n        /* \"#utility.yul\":4886:5252   */\n      swap2\n      swap1\n      pop\n      jump\t// out\n        /* \"#utility.yul\":5258:5677   */\n    tag_79:\n        /* \"#utility.yul\":5424:5428   */\n      0x00\n        /* \"#utility.yul\":5462:5464   */\n      0x20\n        /* \"#utility.yul\":5451:5460   */\n      dup3\n        /* \"#utility.yul\":5447:5465   */\n      add\n        /* \"#utility.yul\":5439:5465   */\n      swap1\n      pop\n        /* \"#utility.yul\":5511:5520   */\n      dup2\n        /* \"#utility.yul\":5505:5509   */\n      dup2\n        /* \"#utility.yul\":5501:5521   */\n      sub\n        /* \"#utility.yul\":5497:5498   */\n      0x00\n        /* \"#utility.yul\":5486:5495   */\n      dup4\n        /* \"#utility.yul\":5482:5499   */\n      add\n        /* \"#utility.yul\":5475:5522   */\n      mstore\n        /* \"#utility.yul\":5539:5670   */\n      tag_154\n        /* \"#utility.yul\":5665:5669   */\n      dup2\n        /* \"#utility.yul\":5539:5670   */\n      tag_99\n      jump\t// in\n    tag_154:\n        /* \"#utility.yul\":5531:5670   */\n      swap1\n      pop\n        /* \"#utility.yul\":5258:5677   */\n      swap2\n      swap1\n      pop\n      jump\t// out\n\n    auxdata: 0xa2646970667358221220ef6f973a305842a0db4ba7d7eda96d609f0685537d425e73c28b811334efbb0b64736f6c634300081e0033\n}\n",
				"bytecode": {
					"linkReferences": {},
					"object": "608060405266354a6ba7a18000600160146101000a81548167ffffffffffffffff021916908367ffffffffffffffff16021790555034801561003f575f5ffd5b506040516109b43803806109b4833981810160405281019061006191906100df565b3360015f6101000a81548173ffffffffffffffffffffffffffffffffffffffff021916908373ffffffffffffffffffffffffffffffffffffffff160217905550505061011d565b5f5ffd5b5f819050919050565b6100be816100ac565b81146100c8575f5ffd5b50565b5f815190506100d9816100b5565b92915050565b5f5f604083850312156100f5576100f46100a8565b5b5f610102858286016100cb565b9250506020610113858286016100cb565b9150509250929050565b61088a8061012a5f395ff3fe608060405260043610610090575f3560e01c80636c77f989116100585780636c77f989146101665780637143059f1461017057806383197ef0146101ac578063f437bc59146101c2578063f8897945146101ec57610090565b80630b28ec81146100945780631eecd934146100be57806342619f66146100e8578063630d1833146101125780636ac5db191461013c575b5f5ffd5b34801561009f575f5ffd5b506100a8610216565b6040516100b591906105ae565b60405180910390f35b3480156100c9575f5ffd5b506100d261023e565b6040516100df91906105e9565b60405180910390f35b3480156100f3575f5ffd5b506100fc610258565b604051610109919061061a565b60405180910390f35b34801561011d575f5ffd5b5061012661025e565b60405161013391906105e9565b60405180910390f35b348015610147575f5ffd5b5061015061026a565b60405161015d919061061a565b60405180910390f35b61016e610270565b005b34801561017b575f5ffd5b5061019660048036038101906101919190610661565b610333565b6040516101a391906105ae565b60405180910390f35b3480156101b7575f5ffd5b506101c061047b565b005b3480156101cd575f5ffd5b506101d6610544565b6040516101e391906106ac565b60405180910390f35b3480156101f7575f5ffd5b50610200610569565b60405161020d919061061a565b60405180910390f35b5f60015f9054906101000a900473ffffffffffffffffffffffffffffffffffffffff16905090565b600160149054906101000a900467ffffffffffffffff1681565b60045481565b674563918244f4000081565b60065481565b600160149054906101000a900467ffffffffffffffff1667ffffffffffffffff1634146102d2576040517f08c379a00000000000000000000000000000000000000000000000000000000081526004016102c99061071f565b60405180910390fd5b5f33908060018154018082558091505060019003905f5260205f20015f9091909190916101000a81548173ffffffffffffffffffffffffffffffffffffffff021916908373ffffffffffffffffffffffffffffffffffffffff160217905550565b5f5f60015f9054906101000a900473ffffffffffffffffffffffffffffffffffffffff1690505f5f90505b5f805490508167ffffffffffffffff16101561044f575f8167ffffffffffffffff16815481106103915761039061073d565b5b905f5260205f20015f9054906101000a900473ffffffffffffffffffffffffffffffffffffffff1673ffffffffffffffffffffffffffffffffffffffff168473ffffffffffffffffffffffffffffffffffffffff160361043c575f8167ffffffffffffffff16815481106104085761040761073d565b5b905f5260205f20015f9054906101000a900473ffffffffffffffffffffffffffffffffffffffff1691508192505050610476565b808061044790610797565b91505061035e565b5060015f9054906101000a900473ffffffffffffffffffffffffffffffffffffffff169150505b919050565b60015f9054906101000a900473ffffffffffffffffffffffffffffffffffffffff1673ffffffffffffffffffffffffffffffffffffffff163373ffffffffffffffffffffffffffffffffffffffff161461050a576040517f08c379a000000000000000000000000000000000000000000000000000000000815260040161050190610836565b60405180910390fd5b60015f9054906101000a900473ffffffffffffffffffffffffffffffffffffffff1673ffffffffffffffffffffffffffffffffffffffff16ff5b60015f9054906101000a900473ffffffffffffffffffffffffffffffffffffffff1681565b60055481565b5f73ffffffffffffffffffffffffffffffffffffffff82169050919050565b5f6105988261056f565b9050919050565b6105a88161058e565b82525050565b5f6020820190506105c15f83018461059f565b92915050565b5f67ffffffffffffffff82169050919050565b6105e3816105c7565b82525050565b5f6020820190506105fc5f8301846105da565b92915050565b5f819050919050565b61061481610602565b82525050565b5f60208201905061062d5f83018461060b565b92915050565b5f5ffd5b6106408161058e565b811461064a575f5ffd5b50565b5f8135905061065b81610637565b92915050565b5f6020828403121561067657610675610633565b5b5f6106838482850161064d565b91505092915050565b5f6106968261056f565b9050919050565b6106a68161068c565b82525050565b5f6020820190506106bf5f83018461069d565b92915050565b5f82825260208201905092915050565b7f57726f6e6720416d6f756e742e000000000000000000000000000000000000005f82015250565b5f610709600d836106c5565b9150610714826106d5565b602082019050919050565b5f6020820190508181035f830152610736816106fd565b9050919050565b7f4e487b71000000000000000000000000000000000000000000000000000000005f52603260045260245ffd5b7f4e487b71000000000000000000000000000000000000000000000000000000005f52601160045260245ffd5b5f6107a1826105c7565b915067ffffffffffffffff82036107bb576107ba61076a565b5b600182019050919050565b7f4f6e6c7920746865206c6f747465727920686f737420697320616c6c6f7765645f8201527f20746f2064657374726f79207468697320636f6e74726163742e000000000000602082015250565b5f610820603a836106c5565b915061082b826107c6565b604082019050919050565b5f6020820190508181035f83015261084d81610814565b905091905056fea2646970667358221220ef6f973a305842a0db4ba7d7eda96d609f0685537d425e73c28b811334efbb0b64736f6c634300081e0033",
					"opcodes": "PUSH1 0x80 PUSH1 0x40 MSTORE PUSH7 0x354A6BA7A18000 PUSH1 0x1 PUSH1 0x14 PUSH2 0x100 EXP DUP2 SLOAD DUP2 PUSH8 0xFFFFFFFFFFFFFFFF MUL NOT AND SWAP1 DUP4 PUSH8 0xFFFFFFFFFFFFFFFF AND MUL OR SWAP1 SSTORE POP CALLVALUE DUP1 ISZERO PUSH2 0x3F JUMPI PUSH0 PUSH0 REVERT JUMPDEST POP PUSH1 0x40 MLOAD PUSH2 0x9B4 CODESIZE SUB DUP1 PUSH2 0x9B4 DUP4 CODECOPY DUP2 DUP2 ADD PUSH1 0x40 MSTORE DUP2 ADD SWAP1 PUSH2 0x61 SWAP2 SWAP1 PUSH2 0xDF JUMP JUMPDEST CALLER PUSH1 0x1 PUSH0 PUSH2 0x100 EXP DUP2 SLOAD DUP2 PUSH20 0xFFFFFFFFFFFFFFFFFFFFFFFFFFFFFFFFFFFFFFFF MUL NOT AND SWAP1 DUP4 PUSH20 0xFFFFFFFFFFFFFFFFFFFFFFFFFFFFFFFFFFFFFFFF AND MUL OR SWAP1 SSTORE POP POP POP PUSH2 0x11D JUMP JUMPDEST PUSH0 PUSH0 REVERT JUMPDEST PUSH0 DUP2 SWAP1 POP SWAP2 SWAP1 POP JUMP JUMPDEST PUSH2 0xBE DUP2 PUSH2 0xAC JUMP JUMPDEST DUP2 EQ PUSH2 0xC8 JUMPI PUSH0 PUSH0 REVERT JUMPDEST POP JUMP JUMPDEST PUSH0 DUP2 MLOAD SWAP1 POP PUSH2 0xD9 DUP2 PUSH2 0xB5 JUMP JUMPDEST SWAP3 SWAP2 POP POP JUMP JUMPDEST PUSH0 PUSH0 PUSH1 0x40 DUP4 DUP6 SUB SLT ISZERO PUSH2 0xF5 JUMPI PUSH2 0xF4 PUSH2 0xA8 JUMP JUMPDEST JUMPDEST PUSH0 PUSH2 0x102 DUP6 DUP3 DUP7 ADD PUSH2 0xCB JUMP JUMPDEST SWAP3 POP POP PUSH1 0x20 PUSH2 0x113 DUP6 DUP3 DUP7 ADD PUSH2 0xCB JUMP JUMPDEST SWAP2 POP POP SWAP3 POP SWAP3 SWAP1 POP JUMP JUMPDEST PUSH2 0x88A DUP1 PUSH2 0x12A PUSH0 CODECOPY PUSH0 RETURN INVALID PUSH1 0x80 PUSH1 0x40 MSTORE PUSH1 0x4 CALLDATASIZE LT PUSH2 0x90 JUMPI PUSH0 CALLDATALOAD PUSH1 0xE0 SHR DUP1 PUSH4 0x6C77F989 GT PUSH2 0x58 JUMPI DUP1 PUSH4 0x6C77F989 EQ PUSH2 0x166 JUMPI DUP1 PUSH4 0x7143059F EQ PUSH2 0x170 JUMPI DUP1 PUSH4 0x83197EF0 EQ PUSH2 0x1AC JUMPI DUP1 PUSH4 0xF437BC59 EQ PUSH2 0x1C2 JUMPI DUP1 PUSH4 0xF8897945 EQ PUSH2 0x1EC JUMPI PUSH2 0x90 JUMP JUMPDEST DUP1 PUSH4 0xB28EC81 EQ PUSH2 0x94 JUMPI DUP1 PUSH4 0x1EECD934 EQ PUSH2 0xBE JUMPI DUP1 PUSH4 0x42619F66 EQ PUSH2 0xE8 JUMPI DUP1 PUSH4 0x630D1833 EQ PUSH2 0x112 JUMPI DUP1 PUSH4 0x6AC5DB19 EQ PUSH2 0x13C JUMPI JUMPDEST PUSH0 PUSH0 REVERT JUMPDEST CALLVALUE DUP1 ISZERO PUSH2 0x9F JUMPI PUSH0 PUSH0 REVERT JUMPDEST POP PUSH2 0xA8 PUSH2 0x216 JUMP JUMPDEST PUSH1 0x40 MLOAD PUSH2 0xB5 SWAP2 SWAP1 PUSH2 0x5AE JUMP JUMPDEST PUSH1 0x40 MLOAD DUP1 SWAP2 SUB SWAP1 RETURN JUMPDEST CALLVALUE DUP1 ISZERO PUSH2 0xC9 JUMPI PUSH0 PUSH0 REVERT JUMPDEST POP PUSH2 0xD2 PUSH2 0x23E JUMP JUMPDEST PUSH1 0x40 MLOAD PUSH2 0xDF SWAP2 SWAP1 PUSH2 0x5E9 JUMP JUMPDEST PUSH1 0x40 MLOAD DUP1 SWAP2 SUB SWAP1 RETURN JUMPDEST CALLVALUE DUP1 ISZERO PUSH2 0xF3 JUMPI PUSH0 PUSH0 REVERT JUMPDEST POP PUSH2 0xFC PUSH2 0x258 JUMP JUMPDEST PUSH1 0x40 MLOAD PUSH2 0x109 SWAP2 SWAP1 PUSH2 0x61A JUMP JUMPDEST PUSH1 0x40 MLOAD DUP1 SWAP2 SUB SWAP1 RETURN JUMPDEST CALLVALUE DUP1 ISZERO PUSH2 0x11D JUMPI PUSH0 PUSH0 REVERT JUMPDEST POP PUSH2 0x126 PUSH2 0x25E JUMP JUMPDEST PUSH1 0x40 MLOAD PUSH2 0x133 SWAP2 SWAP1 PUSH2 0x5E9 JUMP JUMPDEST PUSH1 0x40 MLOAD DUP1 SWAP2 SUB SWAP1 RETURN JUMPDEST CALLVALUE DUP1 ISZERO PUSH2 0x147 JUMPI PUSH0 PUSH0 REVERT JUMPDEST POP PUSH2 0x150 PUSH2 0x26A JUMP JUMPDEST PUSH1 0x40 MLOAD PUSH2 0x15D SWAP2 SWAP1 PUSH2 0x61A JUMP JUMPDEST PUSH1 0x40 MLOAD DUP1 SWAP2 SUB SWAP1 RETURN JUMPDEST PUSH2 0x16E PUSH2 0x270 JUMP JUMPDEST STOP JUMPDEST CALLVALUE DUP1 ISZERO PUSH2 0x17B JUMPI PUSH0 PUSH0 REVERT JUMPDEST POP PUSH2 0x196 PUSH1 0x4 DUP1 CALLDATASIZE SUB DUP2 ADD SWAP1 PUSH2 0x191 SWAP2 SWAP1 PUSH2 0x661 JUMP JUMPDEST PUSH2 0x333 JUMP JUMPDEST PUSH1 0x40 MLOAD PUSH2 0x1A3 SWAP2 SWAP1 PUSH2 0x5AE JUMP JUMPDEST PUSH1 0x40 MLOAD DUP1 SWAP2 SUB SWAP1 RETURN JUMPDEST CALLVALUE DUP1 ISZERO PUSH2 0x1B7 JUMPI PUSH0 PUSH0 REVERT JUMPDEST POP PUSH2 0x1C0 PUSH2 0x47B JUMP JUMPDEST STOP JUMPDEST CALLVALUE DUP1 ISZERO PUSH2 0x1CD JUMPI PUSH0 PUSH0 REVERT JUMPDEST POP PUSH2 0x1D6 PUSH2 0x544 JUMP JUMPDEST PUSH1 0x40 MLOAD PUSH2 0x1E3 SWAP2 SWAP1 PUSH2 0x6AC JUMP JUMPDEST PUSH1 0x40 MLOAD DUP1 SWAP2 SUB SWAP1 RETURN JUMPDEST CALLVALUE DUP1 ISZERO PUSH2 0x1F7 JUMPI PUSH0 PUSH0 REVERT JUMPDEST POP PUSH2 0x200 PUSH2 0x569 JUMP JUMPDEST PUSH1 0x40 MLOAD PUSH2 0x20D SWAP2 SWAP1 PUSH2 0x61A JUMP JUMPDEST PUSH1 0x40 MLOAD DUP1 SWAP2 SUB SWAP1 RETURN JUMPDEST PUSH0 PUSH1 0x1 PUSH0 SWAP1 SLOAD SWAP1 PUSH2 0x100 EXP SWAP1 DIV PUSH20 0xFFFFFFFFFFFFFFFFFFFFFFFFFFFFFFFFFFFFFFFF AND SWAP1 POP SWAP1 JUMP JUMPDEST PUSH1 0x1 PUSH1 0x14 SWAP1 SLOAD SWAP1 PUSH2 0x100 EXP SWAP1 DIV PUSH8 0xFFFFFFFFFFFFFFFF AND DUP2 JUMP JUMPDEST PUSH1 0x4 SLOAD DUP2 JUMP JUMPDEST PUSH8 0x4563918244F40000 DUP2 JUMP JUMPDEST PUSH1 0x6 SLOAD DUP2 JUMP JUMPDEST PUSH1 0x1 PUSH1 0x14 SWAP1 SLOAD SWAP1 PUSH2 0x100 EXP SWAP1 DIV PUSH8 0xFFFFFFFFFFFFFFFF AND PUSH8 0xFFFFFFFFFFFFFFFF AND CALLVALUE EQ PUSH2 0x2D2 JUMPI PUSH1 0x40 MLOAD PUSH32 0x8C379A000000000000000000000000000000000000000000000000000000000 DUP2 MSTORE PUSH1 0x4 ADD PUSH2 0x2C9 SWAP1 PUSH2 0x71F JUMP JUMPDEST PUSH1 0x40 MLOAD DUP1 SWAP2 SUB SWAP1 REVERT JUMPDEST PUSH0 CALLER SWAP1 DUP1 PUSH1 0x1 DUP2 SLOAD ADD DUP1 DUP3 SSTORE DUP1 SWAP2 POP POP PUSH1 0x1 SWAP1 SUB SWAP1 PUSH0 MSTORE PUSH1 0x20 PUSH0 KECCAK256 ADD PUSH0 SWAP1 SWAP2 SWAP1 SWAP2 SWAP1 SWAP2 PUSH2 0x100 EXP DUP2 SLOAD DUP2 PUSH20 0xFFFFFFFFFFFFFFFFFFFFFFFFFFFFFFFFFFFFFFFF MUL NOT AND SWAP1 DUP4 PUSH20 0xFFFFFFFFFFFFFFFFFFFFFFFFFFFFFFFFFFFFFFFF AND MUL OR SWAP1 SSTORE POP JUMP JUMPDEST PUSH0 PUSH0 PUSH1 0x1 PUSH0 SWAP1 SLOAD SWAP1 PUSH2 0x100 EXP SWAP1 DIV PUSH20 0xFFFFFFFFFFFFFFFFFFFFFFFFFFFFFFFFFFFFFFFF AND SWAP1 POP PUSH0 PUSH0 SWAP1 POP JUMPDEST PUSH0 DUP1 SLOAD SWAP1 POP DUP2 PUSH8 0xFFFFFFFFFFFFFFFF AND LT ISZERO PUSH2 0x44F JUMPI PUSH0 DUP2 PUSH8 0xFFFFFFFFFFFFFFFF AND DUP2 SLOAD DUP2 LT PUSH2 0x391 JUMPI PUSH2 0x390 PUSH2 0x73D JUMP JUMPDEST JUMPDEST SWAP1 PUSH0 MSTORE PUSH1 0x20 PUSH0 KECCAK256 ADD PUSH0 SWAP1 SLOAD SWAP1 PUSH2 0x100 EXP SWAP1 DIV PUSH20 0xFFFFFFFFFFFFFFFFFFFFFFFFFFFFFFFFFFFFFFFF AND PUSH20 0xFFFFFFFFFFFFFFFFFFFFFFFFFFFFFFFFFFFFFFFF AND DUP5 PUSH20 0xFFFFFFFFFFFFFFFFFFFFFFFFFFFFFFFFFFFFFFFF AND SUB PUSH2 0x43C JUMPI PUSH0 DUP2 PUSH8 0xFFFFFFFFFFFFFFFF AND DUP2 SLOAD DUP2 LT PUSH2 0x408 JUMPI PUSH2 0x407 PUSH2 0x73D JUMP JUMPDEST JUMPDEST SWAP1 PUSH0 MSTORE PUSH1 0x20 PUSH0 KECCAK256 ADD PUSH0 SWAP1 SLOAD SWAP1 PUSH2 0x100 EXP SWAP1 DIV PUSH20 0xFFFFFFFFFFFFFFFFFFFFFFFFFFFFFFFFFFFFFFFF AND SWAP2 POP DUP2 SWAP3 POP POP POP PUSH2 0x476 JUMP JUMPDEST DUP1 DUP1 PUSH2 0x447 SWAP1 PUSH2 0x797 JUMP JUMPDEST SWAP2 POP POP PUSH2 0x35E JUMP JUMPDEST POP PUSH1 0x1 PUSH0 SWAP1 SLOAD SWAP1 PUSH2 0x100 EXP SWAP1 DIV PUSH20 0xFFFFFFFFFFFFFFFFFFFFFFFFFFFFFFFFFFFFFFFF AND SWAP2 POP POP JUMPDEST SWAP2 SWAP1 POP JUMP JUMPDEST PUSH1 0x1 PUSH0 SWAP1 SLOAD SWAP1 PUSH2 0x100 EXP SWAP1 DIV PUSH20 0xFFFFFFFFFFFFFFFFFFFFFFFFFFFFFFFFFFFFFFFF AND PUSH20 0xFFFFFFFFFFFFFFFFFFFFFFFFFFFFFFFFFFFFFFFF AND CALLER PUSH20 0xFFFFFFFFFFFFFFFFFFFFFFFFFFFFFFFFFFFFFFFF AND EQ PUSH2 0x50A JUMPI PUSH1 0x40 MLOAD PUSH32 0x8C379A000000000000000000000000000000000000000000000000000000000 DUP2 MSTORE PUSH1 0x4 ADD PUSH2 0x501 SWAP1 PUSH2 0x836 JUMP JUMPDEST PUSH1 0x40 MLOAD DUP1 SWAP2 SUB SWAP1 REVERT JUMPDEST PUSH1 0x1 PUSH0 SWAP1 SLOAD SWAP1 PUSH2 0x100 EXP SWAP1 DIV PUSH20 0xFFFFFFFFFFFFFFFFFFFFFFFFFFFFFFFFFFFFFFFF AND PUSH20 0xFFFFFFFFFFFFFFFFFFFFFFFFFFFFFFFFFFFFFFFF AND SELFDESTRUCT JUMPDEST PUSH1 0x1 PUSH0 SWAP1 SLOAD SWAP1 PUSH2 0x100 EXP SWAP1 DIV PUSH20 0xFFFFFFFFFFFFFFFFFFFFFFFFFFFFFFFFFFFFFFFF AND DUP2 JUMP JUMPDEST PUSH1 0x5 SLOAD DUP2 JUMP JUMPDEST PUSH0 PUSH20 0xFFFFFFFFFFFFFFFFFFFFFFFFFFFFFFFFFFFFFFFF DUP3 AND SWAP1 POP SWAP2 SWAP1 POP JUMP JUMPDEST PUSH0 PUSH2 0x598 DUP3 PUSH2 0x56F JUMP JUMPDEST SWAP1 POP SWAP2 SWAP1 POP JUMP JUMPDEST PUSH2 0x5A8 DUP2 PUSH2 0x58E JUMP JUMPDEST DUP3 MSTORE POP POP JUMP JUMPDEST PUSH0 PUSH1 0x20 DUP3 ADD SWAP1 POP PUSH2 0x5C1 PUSH0 DUP4 ADD DUP5 PUSH2 0x59F JUMP JUMPDEST SWAP3 SWAP2 POP POP JUMP JUMPDEST PUSH0 PUSH8 0xFFFFFFFFFFFFFFFF DUP3 AND SWAP1 POP SWAP2 SWAP1 POP JUMP JUMPDEST PUSH2 0x5E3 DUP2 PUSH2 0x5C7 JUMP JUMPDEST DUP3 MSTORE POP POP JUMP JUMPDEST PUSH0 PUSH1 0x20 DUP3 ADD SWAP1 POP PUSH2 0x5FC PUSH0 DUP4 ADD DUP5 PUSH2 0x5DA JUMP JUMPDEST SWAP3 SWAP2 POP POP JUMP JUMPDEST PUSH0 DUP2 SWAP1 POP SWAP2 SWAP1 POP JUMP JUMPDEST PUSH2 0x614 DUP2 PUSH2 0x602 JUMP JUMPDEST DUP3 MSTORE POP POP JUMP JUMPDEST PUSH0 PUSH1 0x20 DUP3 ADD SWAP1 POP PUSH2 0x62D PUSH0 DUP4 ADD DUP5 PUSH2 0x60B JUMP JUMPDEST SWAP3 SWAP2 POP POP JUMP JUMPDEST PUSH0 PUSH0 REVERT JUMPDEST PUSH2 0x640 DUP2 PUSH2 0x58E JUMP JUMPDEST DUP2 EQ PUSH2 0x64A JUMPI PUSH0 PUSH0 REVERT JUMPDEST POP JUMP JUMPDEST PUSH0 DUP2 CALLDATALOAD SWAP1 POP PUSH2 0x65B DUP2 PUSH2 0x637 JUMP JUMPDEST SWAP3 SWAP2 POP POP JUMP JUMPDEST PUSH0 PUSH1 0x20 DUP3 DUP5 SUB SLT ISZERO PUSH2 0x676 JUMPI PUSH2 0x675 PUSH2 0x633 JUMP JUMPDEST JUMPDEST PUSH0 PUSH2 0x683 DUP5 DUP3 DUP6 ADD PUSH2 0x64D JUMP JUMPDEST SWAP2 POP POP SWAP3 SWAP2 POP POP JUMP JUMPDEST PUSH0 PUSH2 0x696 DUP3 PUSH2 0x56F JUMP JUMPDEST SWAP1 POP SWAP2 SWAP1 POP JUMP JUMPDEST PUSH2 0x6A6 DUP2 PUSH2 0x68C JUMP JUMPDEST DUP3 MSTORE POP POP JUMP JUMPDEST PUSH0 PUSH1 0x20 DUP3 ADD SWAP1 POP PUSH2 0x6BF PUSH0 DUP4 ADD DUP5 PUSH2 0x69D JUMP JUMPDEST SWAP3 SWAP2 POP POP JUMP JUMPDEST PUSH0 DUP3 DUP3 MSTORE PUSH1 0x20 DUP3 ADD SWAP1 POP SWAP3 SWAP2 POP POP JUMP JUMPDEST PUSH32 0x57726F6E6720416D6F756E742E00000000000000000000000000000000000000 PUSH0 DUP3 ADD MSTORE POP JUMP JUMPDEST PUSH0 PUSH2 0x709 PUSH1 0xD DUP4 PUSH2 0x6C5 JUMP JUMPDEST SWAP2 POP PUSH2 0x714 DUP3 PUSH2 0x6D5 JUMP JUMPDEST PUSH1 0x20 DUP3 ADD SWAP1 POP SWAP2 SWAP1 POP JUMP JUMPDEST PUSH0 PUSH1 0x20 DUP3 ADD SWAP1 POP DUP2 DUP2 SUB PUSH0 DUP4 ADD MSTORE PUSH2 0x736 DUP2 PUSH2 0x6FD JUMP JUMPDEST SWAP1 POP SWAP2 SWAP1 POP JUMP JUMPDEST PUSH32 0x4E487B7100000000000000000000000000000000000000000000000000000000 PUSH0 MSTORE PUSH1 0x32 PUSH1 0x4 MSTORE PUSH1 0x24 PUSH0 REVERT JUMPDEST PUSH32 0x4E487B7100000000000000000000000000000000000000000000000000000000 PUSH0 MSTORE PUSH1 0x11 PUSH1 0x4 MSTORE PUSH1 0x24 PUSH0 REVERT JUMPDEST PUSH0 PUSH2 0x7A1 DUP3 PUSH2 0x5C7 JUMP JUMPDEST SWAP2 POP PUSH8 0xFFFFFFFFFFFFFFFF DUP3 SUB PUSH2 0x7BB JUMPI PUSH2 0x7BA PUSH2 0x76A JUMP JUMPDEST JUMPDEST PUSH1 0x1 DUP3 ADD SWAP1 POP SWAP2 SWAP1 POP JUMP JUMPDEST PUSH32 0x4F6E6C7920746865206C6F747465727920686F737420697320616C6C6F776564 PUSH0 DUP3 ADD MSTORE PUSH32 0x20746F2064657374726F79207468697320636F6E74726163742E000000000000 PUSH1 0x20 DUP3 ADD MSTORE POP JUMP JUMPDEST PUSH0 PUSH2 0x820 PUSH1 0x3A DUP4 PUSH2 0x6C5 JUMP JUMPDEST SWAP2 POP PUSH2 0x82B DUP3 PUSH2 0x7C6 JUMP JUMPDEST PUSH1 0x40 DUP3 ADD SWAP1 POP SWAP2 SWAP1 POP JUMP JUMPDEST PUSH0 PUSH1 0x20 DUP3 ADD SWAP1 POP DUP2 DUP2 SUB PUSH0 DUP4 ADD MSTORE PUSH2 0x84D DUP2 PUSH2 0x814 JUMP JUMPDEST SWAP1 POP SWAP2 SWAP1 POP JUMP INVALID LOG2 PUSH5 0x6970667358 0x22 SLT KECCAK256 0xEF PUSH16 0x973A305842A0DB4BA7D7EDA96D609F06 DUP6 MSTORE8 PUSH30 0x425E73C28B811334EFBB0B64736F6C634300081E00330000000000000000 "
				},
				"gasEstimates": {
					"creation": {
						"codeDepositCost": "437200",
						"executionCost": "infinite",
						"totalCost": "infinite"
					},
					"external": {
						"destroy()": "32091",
						"findWinnerAndPay()": "2516",
						"getParticipant(address)": "infinite",
						"host()": "2574",
						"joinLottery()": "50907",
						"max()": "2514",
						"min()": "2513",
						"monetaryPrize()": "398",
						"randomResult()": "2470",
						"ticketCost()": "2540"
					}
				},
				"methodIdentifiers": {
					"destroy()": "83197ef0",
					"findWinnerAndPay()": "0b28ec81",
					"getParticipant(address)": "7143059f",
					"host()": "f437bc59",
					"joinLottery()": "6c77f989",
					"max()": "6ac5db19",
					"min()": "f8897945",
					"monetaryPrize()": "630d1833",
					"randomResult()": "42619f66",
					"ticketCost()": "1eecd934"
				}
			},
			"storageLayout": {
				"storage": [
					{
						"astId": 273,
						"contract": "contract/lottery.sol:Lottery",
						"label": "participants",
						"offset": 0,
						"slot": "0",
						"type": "t_array(t_address)dyn_storage"
					},
					{
						"astId": 275,
						"contract": "contract/lottery.sol:Lottery",
						"label": "host",
						"offset": 0,
						"slot": "1",
						"type": "t_address_payable"
					},
					{
						"astId": 281,
						"contract": "contract/lottery.sol:Lottery",
						"label": "ticketCost",
						"offset": 20,
						"slot": "1",
						"type": "t_uint64"
					},
					{
						"astId": 293,
						"contract": "contract/lottery.sol:Lottery",
						"label": "keyHash",
						"offset": 0,
						"slot": "2",
						"type": "t_bytes32"
					},
					{
						"astId": 295,
						"contract": "contract/lottery.sol:Lottery",
						"label": "fee",
						"offset": 0,
						"slot": "3",
						"type": "t_uint256"
					},
					{
						"astId": 297,
						"contract": "contract/lottery.sol:Lottery",
						"label": "randomResult",
						"offset": 0,
						"slot": "4",
						"type": "t_uint256"
					},
					{
						"astId": 299,
						"contract": "contract/lottery.sol:Lottery",
						"label": "min",
						"offset": 0,
						"slot": "5",
						"type": "t_uint256"
					},
					{
						"astId": 301,
						"contract": "contract/lottery.sol:Lottery",
						"label": "max",
						"offset": 0,
						"slot": "6",
						"type": "t_uint256"
					}
				],
				"types": {
					"t_address": {
						"encoding": "inplace",
						"label": "address",
						"numberOfBytes": "20"
					},
					"t_address_payable": {
						"encoding": "inplace",
						"label": "address payable",
						"numberOfBytes": "20"
					},
					"t_array(t_address)dyn_storage": {
						"base": "t_address",
						"encoding": "dynamic_array",
						"label": "address[]",
						"numberOfBytes": "32"
					},
					"t_bytes32": {
						"encoding": "inplace",
						"label": "bytes32",
						"numberOfBytes": "32"
					},
					"t_uint256": {
						"encoding": "inplace",
						"label": "uint256",
						"numberOfBytes": "32"
					},
					"t_uint64": {
						"encoding": "inplace",
						"label": "uint64",
						"numberOfBytes": "8"
					}
				}
			},
			"userdoc": {
				"kind": "user",
				"methods": {},
				"notice": "Lottery with immutability.",
				"version": 1
			}
		}
	}
}