{
	"contract/Lottery.sol": {
		"Lottery": {
			"abi": [
				{
					"inputs": [
						{
							"internalType": "uint256",
							"name": "_drawInterval",
							"type": "uint256"
						},
						{
							"internalType": "uint16",
							"name": "_minParticipants",
							"type": "uint16"
						},
						{
							"internalType": "uint16",
							"name": "_minTicketsSold",
							"type": "uint16"
						},
						{
							"internalType": "uint16",
							"name": "_maxTicketsPerDraw",
							"type": "uint16"
						}
					],
					"stateMutability": "nonpayable",
					"type": "constructor"
				},
				{
					"anonymous": false,
					"inputs": [
						{
							"indexed": false,
							"internalType": "address",
							"name": "winner",
							"type": "address"
						},
						{
							"indexed": false,
							"internalType": "uint64",
							"name": "prize",
							"type": "uint64"
						}
					],
					"name": "LotteryWinner",
					"type": "event"
				},
				{
					"anonymous": false,
					"inputs": [
						{
							"indexed": false,
							"internalType": "address",
							"name": "participant",
							"type": "address"
						},
						{
							"indexed": false,
							"internalType": "string",
							"name": "alert",
							"type": "string"
						}
					],
					"name": "ParticipantJoined",
					"type": "event"
				},
				{
					"anonymous": false,
					"inputs": [
						{
							"indexed": false,
							"internalType": "address",
							"name": "winner",
							"type": "address"
						},
						{
							"indexed": false,
							"internalType": "uint256",
							"name": "amount",
							"type": "uint256"
						}
					],
					"name": "PrizeClaimed",
					"type": "event"
				},
				{
					"inputs": [
						{
							"internalType": "uint8[5]",
							"name": "ticketNumbers",
							"type": "uint8[5]"
						}
					],
					"name": "buyTicket",
					"outputs": [],
					"stateMutability": "payable",
					"type": "function"
				},
				{
					"inputs": [],
					"name": "claimPrize",
					"outputs": [],
					"stateMutability": "nonpayable",
					"type": "function"
				},
				{
					"inputs": [
						{
							"internalType": "address",
							"name": "",
							"type": "address"
						}
					],
					"name": "claimableWinnings",
					"outputs": [
						{
							"internalType": "uint256",
							"name": "",
							"type": "uint256"
						}
					],
					"stateMutability": "view",
					"type": "function"
				},
				{
					"inputs": [],
					"name": "drawBlockNumber",
					"outputs": [
						{
							"internalType": "uint256",
							"name": "",
							"type": "uint256"
						}
					],
					"stateMutability": "view",
					"type": "function"
				},
				{
					"inputs": [],
					"name": "drawInitiated",
					"outputs": [
						{
							"internalType": "bool",
							"name": "",
							"type": "bool"
						}
					],
					"stateMutability": "view",
					"type": "function"
				},
				{
					"inputs": [],
					"name": "drawInterval",
					"outputs": [
						{
							"internalType": "uint256",
							"name": "",
							"type": "uint256"
						}
					],
					"stateMutability": "view",
					"type": "function"
				},
				{
					"inputs": [],
					"name": "ended",
					"outputs": [
						{
							"internalType": "bool",
							"name": "",
							"type": "bool"
						}
					],
					"stateMutability": "view",
					"type": "function"
				},
				{
					"inputs": [],
					"name": "findWinner",
					"outputs": [],
					"stateMutability": "nonpayable",
					"type": "function"
				},
				{
					"inputs": [
						{
							"internalType": "address",
							"name": "user",
							"type": "address"
						}
					],
					"name": "getParticipantStatus",
					"outputs": [
						{
							"internalType": "bool",
							"name": "",
							"type": "bool"
						}
					],
					"stateMutability": "view",
					"type": "function"
				},
				{
					"inputs": [],
					"name": "host",
					"outputs": [
						{
							"internalType": "address payable",
							"name": "",
							"type": "address"
						}
					],
					"stateMutability": "view",
					"type": "function"
				},
				{
					"inputs": [],
					"name": "lastDrawTime",
					"outputs": [
						{
							"internalType": "uint256",
							"name": "",
							"type": "uint256"
						}
					],
					"stateMutability": "view",
					"type": "function"
				},
				{
					"inputs": [],
					"name": "maxTicketsPerDraw",
					"outputs": [
						{
							"internalType": "uint16",
							"name": "",
							"type": "uint16"
						}
					],
					"stateMutability": "view",
					"type": "function"
				},
				{
					"inputs": [],
					"name": "minParticipants",
					"outputs": [
						{
							"internalType": "uint16",
							"name": "",
							"type": "uint16"
						}
					],
					"stateMutability": "view",
					"type": "function"
				},
				{
					"inputs": [],
					"name": "minTicketsSold",
					"outputs": [
						{
							"internalType": "uint16",
							"name": "",
							"type": "uint16"
						}
					],
					"stateMutability": "view",
					"type": "function"
				},
				{
					"inputs": [
						{
							"internalType": "address",
							"name": "",
							"type": "address"
						}
					],
					"name": "participantsToTickets",
					"outputs": [
						{
							"internalType": "bool",
							"name": "hasJoined",
							"type": "bool"
						},
						{
							"internalType": "uint16",
							"name": "numberOfTickets",
							"type": "uint16"
						}
					],
					"stateMutability": "view",
					"type": "function"
				},
				{
					"inputs": [],
					"name": "prizePool",
					"outputs": [
						{
							"internalType": "uint256",
							"name": "",
							"type": "uint256"
						}
					],
					"stateMutability": "view",
					"type": "function"
				},
				{
					"inputs": [
						{
							"internalType": "uint256",
							"name": "_interval",
							"type": "uint256"
						}
					],
					"name": "setDrawInterval",
					"outputs": [],
					"stateMutability": "nonpayable",
					"type": "function"
				},
				{
					"inputs": [
						{
							"internalType": "uint16",
							"name": "_maxTickets",
							"type": "uint16"
						}
					],
					"name": "setMaxTicketsPerDraw",
					"outputs": [],
					"stateMutability": "nonpayable",
					"type": "function"
				},
				{
					"inputs": [
						{
							"internalType": "uint16",
							"name": "_minParticipants",
							"type": "uint16"
						}
					],
					"name": "setMinParticipants",
					"outputs": [],
					"stateMutability": "nonpayable",
					"type": "function"
				},
				{
					"inputs": [
						{
							"internalType": "uint16",
							"name": "_minTickets",
							"type": "uint16"
						}
					],
					"name": "setMinTicketsSold",
					"outputs": [],
					"stateMutability": "nonpayable",
					"type": "function"
				},
				{
					"inputs": [],
					"name": "startLottery",
					"outputs": [],
					"stateMutability": "nonpayable",
					"type": "function"
				},
				{
					"inputs": [],
					"name": "ticketCost",
					"outputs": [
						{
							"internalType": "uint256",
							"name": "",
							"type": "uint256"
						}
					],
					"stateMutability": "view",
					"type": "function"
				}
			],
			"devdoc": {
				"events": {
					"LotteryWinner(address,uint64)": {
						"params": {
							"prize": "The prize amount won",
							"winner": "The address of the winner"
						}
					},
					"ParticipantJoined(address,string)": {
						"params": {
							"alert": "Alert message",
							"participant": "The address of the participant"
						}
					},
					"PrizeClaimed(address,uint256)": {
						"params": {
							"amount": "The amount claimed",
							"winner": "The address of the winner"
						}
					}
				},
				"kind": "dev",
				"methods": {
					"buyTicket(uint8[5])": {
						"params": {
							"ticketNumbers": "Array of 5 unique numbers (1-99)"
						}
					},
					"claimPrize()": {
						"details": "Winners must call this to withdraw their winnings (pull payment pattern)"
					},
					"findWinner()": {
						"details": "Must be called after startLottery() and after the target block is reached"
					},
					"getParticipantStatus(address)": {
						"params": {
							"user": "The address to check for participation."
						},
						"returns": {
							"_0": "bool Returns true if the user has joined, false otherwise."
						}
					},
					"setDrawInterval(uint256)": {
						"params": {
							"_interval": "New interval in seconds (must be between 1-30 days)"
						}
					},
					"setMaxTicketsPerDraw(uint16)": {
						"params": {
							"_maxTickets": "New maximum (must be >= minTicketsSold)"
						}
					},
					"setMinParticipants(uint16)": {
						"params": {
							"_minParticipants": "New minimum (must be between 2-100)"
						}
					},
					"setMinTicketsSold(uint16)": {
						"params": {
							"_minTickets": "New minimum (must be >= minParticipants)"
						}
					},
					"startLottery()": {
						"details": "Can only be called when minimum requirements are met and trigger conditions satisfied"
					}
				},
				"stateVariables": {
					"claimableWinnings": {
						"params": {
							"user": "The address to check"
						},
						"return": "The amount of ETH claimable",
						"returns": {
							"_0": "The amount of ETH claimable"
						}
					},
					"drawBlockNumber": {
						"return": "The target block number",
						"returns": {
							"_0": "The target block number"
						}
					},
					"drawInitiated": {
						"return": "True if draw is in progress",
						"returns": {
							"_0": "True if draw is in progress"
						}
					},
					"drawInterval": {
						"return": "Time in seconds between draws",
						"returns": {
							"_0": "Time in seconds between draws"
						}
					},
					"host": {
						"return": "The host's address",
						"returns": {
							"_0": "The host's address"
						}
					},
					"lastDrawTime": {
						"return": "Unix timestamp",
						"returns": {
							"_0": "Unix timestamp"
						}
					},
					"maxTicketsPerDraw": {
						"return": "Maximum tickets before early trigger",
						"returns": {
							"_0": "Maximum tickets before early trigger"
						}
					},
					"minParticipants": {
						"return": "Minimum number of participants",
						"returns": {
							"_0": "Minimum number of participants"
						}
					},
					"minTicketsSold": {
						"return": "Minimum number of tickets",
						"returns": {
							"_0": "Minimum number of tickets"
						}
					},
					"prizePool": {
						"return": "The prize pool amount",
						"returns": {
							"_0": "The prize pool amount"
						}
					},
					"ticketCost": {
						"return": "The cost per ticket",
						"returns": {
							"_0": "The cost per ticket"
						}
					}
				},
				"version": 1
			},
			"evm": {
				"assembly": "    /* \"contract/Lottery.sol\":1263:12500  contract Lottery is ILottery {... */\n  mstore(0x40, 0x80)\n    /* \"contract/Lottery.sol\":1499:1500  0 */\n  0x00\n    /* \"contract/Lottery.sol\":1469:1500  uint16 private totalTickets = 0 */\n  0x01\n  exp(0x0100, 0x00)\n  dup2\n  sload\n  dup2\n  0xffff\n  mul\n  not\n  and\n  swap1\n  dup4\n  0xffff\n  and\n  mul\n  or\n  swap1\n  sstore\n  pop\n    /* \"contract/Lottery.sol\":1609:1610  0 */\n  0x00\n    /* \"contract/Lottery.sol\":1582:1610  uint256 public prizePool = 0 */\n  0x04\n  sstore\n    /* \"contract/Lottery.sol\":1643:1644  0 */\n  0x00\n    /* \"contract/Lottery.sol\":1617:1644  uint256 private hostCut = 0 */\n  0x05\n  sstore\n    /* \"contract/Lottery.sol\":1679:1690  0.015 ether */\n  0x354a6ba7a18000\n    /* \"contract/Lottery.sol\":1651:1690  uint256 public ticketCost = 0.015 ether */\n  0x06\n  sstore\n    /* \"contract/Lottery.sol\":1749:1752  100 */\n  0x64\n    /* \"contract/Lottery.sol\":1743:1745  20 */\n  0x14\n    /* \"contract/Lottery.sol\":1730:1740  ticketCost */\n  sload(0x06)\n    /* \"contract/Lottery.sol\":1730:1745  ticketCost * 20 */\n  tag_1\n  swap2\n  swap1\n  tag_2\n  jump\t// in\ntag_1:\n    /* \"contract/Lottery.sol\":1729:1752  (ticketCost * 20) / 100 */\n  tag_3\n  swap2\n  swap1\n  tag_4\n  jump\t// in\ntag_3:\n    /* \"contract/Lottery.sol\":1697:1752  uint256 private hostTicketFee = (ticketCost * 20) / 100 */\n  0x07\n  sstore\n    /* \"contract/Lottery.sol\":1977:1982  false */\n  0x00\n    /* \"contract/Lottery.sol\":1949:1982  bool public drawInitiated = false */\n  0x09\n  exp(0x0100, 0x00)\n  dup2\n  sload\n  dup2\n  0xff\n  mul\n  not\n  and\n  swap1\n  dup4\n  iszero\n  iszero\n  mul\n  or\n  swap1\n  sstore\n  pop\n    /* \"contract/Lottery.sol\":2055:2060  false */\n  0x00\n    /* \"contract/Lottery.sol\":2035:2060  bool public ended = false */\n  0x09\n  exp(0x0100, 0x01)\n  dup2\n  sload\n  dup2\n  0xff\n  mul\n  not\n  and\n  swap1\n  dup4\n  iszero\n  iszero\n  mul\n  or\n  swap1\n  sstore\n  pop\n    /* \"contract/Lottery.sol\":2123:2124  0 */\n  0x00\n    /* \"contract/Lottery.sol\":2093:2124  uint256 public lastDrawTime = 0 */\n  0x0a\n  sstore\n    /* \"contract/Lottery.sol\":2612:3759  constructor(... */\n  callvalue\n  dup1\n  iszero\n  tag_5\n  jumpi\n  revert(0x00, 0x00)\ntag_5:\n  pop\n  mload(0x40)\n  sub(codesize, bytecodeSize)\n  dup1\n  bytecodeSize\n  dup4\n  codecopy\n  dup2\n  dup2\n  add\n  0x40\n  mstore\n  dup2\n  add\n  swap1\n  tag_6\n  swap2\n  swap1\n  tag_7\n  jump\t// in\ntag_6:\n    /* \"contract/Lottery.sol\":2835:2845  msg.sender */\n  caller\n    /* \"contract/Lottery.sol\":2820:2824  host */\n  0x03\n  0x00\n    /* \"contract/Lottery.sol\":2820:2846  host = payable(msg.sender) */\n  0x0100\n  exp\n  dup2\n  sload\n  dup2\n  0xffffffffffffffffffffffffffffffffffffffff\n  mul\n  not\n  and\n  swap1\n  dup4\n  0xffffffffffffffffffffffffffffffffffffffff\n  and\n  mul\n  or\n  swap1\n  sstore\n  pop\n    /* \"contract/Lottery.sol\":2884:2890  1 days */\n  0x015180\n    /* \"contract/Lottery.sol\":2867:2880  _drawInterval */\n  dup5\n    /* \"contract/Lottery.sol\":2867:2890  _drawInterval >= 1 days */\n  lt\n  iszero\n    /* \"contract/Lottery.sol\":2859:2926  require(_drawInterval >= 1 days, \"Interval must be at least 1 day\") */\n  tag_10\n  jumpi\n  mload(0x40)\n  0x08c379a000000000000000000000000000000000000000000000000000000000\n  dup2\n  mstore\n  0x04\n  add\n  tag_11\n  swap1\n  tag_12\n  jump\t// in\ntag_11:\n  mload(0x40)\n  dup1\n  swap2\n  sub\n  swap1\n  revert\ntag_10:\n    /* \"contract/Lottery.sol\":2962:2969  30 days */\n  0x278d00\n    /* \"contract/Lottery.sol\":2945:2958  _drawInterval */\n  dup5\n    /* \"contract/Lottery.sol\":2945:2969  _drawInterval <= 30 days */\n  gt\n  iszero\n    /* \"contract/Lottery.sol\":2937:3004  require(_drawInterval <= 30 days, \"Interval cannot exceed 30 days\") */\n  tag_13\n  jumpi\n  mload(0x40)\n  0x08c379a000000000000000000000000000000000000000000000000000000000\n  dup2\n  mstore\n  0x04\n  add\n  tag_14\n  swap1\n  tag_15\n  jump\t// in\ntag_14:\n  mload(0x40)\n  dup1\n  swap2\n  sub\n  swap1\n  revert\ntag_13:\n    /* \"contract/Lottery.sol\":3030:3043  _drawInterval */\n  dup4\n    /* \"contract/Lottery.sol\":3015:3027  drawInterval */\n  0x0c\n    /* \"contract/Lottery.sol\":3015:3043  drawInterval = _drawInterval */\n  dup2\n  swap1\n  sstore\n  pop\n    /* \"contract/Lottery.sol\":3084:3085  2 */\n  0x02\n    /* \"contract/Lottery.sol\":3064:3080  _minParticipants */\n  dup4\n    /* \"contract/Lottery.sol\":3064:3085  _minParticipants >= 2 */\n  0xffff\n  and\n  lt\n  iszero\n    /* \"contract/Lottery.sol\":3056:3118  require(_minParticipants >= 2, \"Need at least 2 participants\") */\n  tag_16\n  jumpi\n  mload(0x40)\n  0x08c379a000000000000000000000000000000000000000000000000000000000\n  dup2\n  mstore\n  0x04\n  add\n  tag_17\n  swap1\n  tag_18\n  jump\t// in\ntag_17:\n  mload(0x40)\n  dup1\n  swap2\n  sub\n  swap1\n  revert\ntag_16:\n    /* \"contract/Lottery.sol\":3157:3160  100 */\n  0x64\n    /* \"contract/Lottery.sol\":3137:3153  _minParticipants */\n  dup4\n    /* \"contract/Lottery.sol\":3137:3160  _minParticipants <= 100 */\n  0xffff\n  and\n  gt\n  iszero\n    /* \"contract/Lottery.sol\":3129:3195  require(_minParticipants <= 100, \"Too high - would never trigger\") */\n  tag_19\n  jumpi\n  mload(0x40)\n  0x08c379a000000000000000000000000000000000000000000000000000000000\n  dup2\n  mstore\n  0x04\n  add\n  tag_20\n  swap1\n  tag_21\n  jump\t// in\ntag_20:\n  mload(0x40)\n  dup1\n  swap2\n  sub\n  swap1\n  revert\ntag_19:\n    /* \"contract/Lottery.sol\":3224:3240  _minParticipants */\n  dup3\n    /* \"contract/Lottery.sol\":3206:3221  minParticipants */\n  0x0d\n  0x00\n    /* \"contract/Lottery.sol\":3206:3240  minParticipants = _minParticipants */\n  0x0100\n  exp\n  dup2\n  sload\n  dup2\n  0xffff\n  mul\n  not\n  and\n  swap1\n  dup4\n  0xffff\n  and\n  mul\n  or\n  swap1\n  sstore\n  pop\n    /* \"contract/Lottery.sol\":3294:3310  _minParticipants */\n  dup3\n    /* \"contract/Lottery.sol\":3275:3310  _minTicketsSold >= _minParticipants */\n  0xffff\n  and\n    /* \"contract/Lottery.sol\":3275:3290  _minTicketsSold */\n  dup3\n    /* \"contract/Lottery.sol\":3275:3310  _minTicketsSold >= _minParticipants */\n  0xffff\n  and\n  lt\n  iszero\n    /* \"contract/Lottery.sol\":3253:3379  require(... */\n  tag_22\n  jumpi\n  mload(0x40)\n  0x08c379a000000000000000000000000000000000000000000000000000000000\n  dup2\n  mstore\n  0x04\n  add\n  tag_23\n  swap1\n  tag_24\n  jump\t// in\ntag_23:\n  mload(0x40)\n  dup1\n  swap2\n  sub\n  swap1\n  revert\ntag_22:\n    /* \"contract/Lottery.sol\":3417:3421  1000 */\n  0x03e8\n    /* \"contract/Lottery.sol\":3398:3413  _minTicketsSold */\n  dup3\n    /* \"contract/Lottery.sol\":3398:3421  _minTicketsSold <= 1000 */\n  0xffff\n  and\n  gt\n  iszero\n    /* \"contract/Lottery.sol\":3390:3456  require(_minTicketsSold <= 1000, \"Too high - would never trigger\") */\n  tag_25\n  jumpi\n  mload(0x40)\n  0x08c379a000000000000000000000000000000000000000000000000000000000\n  dup2\n  mstore\n  0x04\n  add\n  tag_26\n  swap1\n  tag_21\n  jump\t// in\ntag_26:\n  mload(0x40)\n  dup1\n  swap2\n  sub\n  swap1\n  revert\ntag_25:\n    /* \"contract/Lottery.sol\":3484:3499  _minTicketsSold */\n  dup2\n    /* \"contract/Lottery.sol\":3467:3481  minTicketsSold */\n  0x0d\n  0x02\n    /* \"contract/Lottery.sol\":3467:3499  minTicketsSold = _minTicketsSold */\n  0x0100\n  exp\n  dup2\n  sload\n  dup2\n  0xffff\n  mul\n  not\n  and\n  swap1\n  dup4\n  0xffff\n  and\n  mul\n  or\n  swap1\n  sstore\n  pop\n    /* \"contract/Lottery.sol\":3556:3571  _minTicketsSold */\n  dup2\n    /* \"contract/Lottery.sol\":3534:3571  _maxTicketsPerDraw >= _minTicketsSold */\n  0xffff\n  and\n    /* \"contract/Lottery.sol\":3534:3552  _maxTicketsPerDraw */\n  dup2\n    /* \"contract/Lottery.sol\":3534:3571  _maxTicketsPerDraw >= _minTicketsSold */\n  0xffff\n  and\n  lt\n  iszero\n    /* \"contract/Lottery.sol\":3512:3625  require(... */\n  tag_27\n  jumpi\n  mload(0x40)\n  0x08c379a000000000000000000000000000000000000000000000000000000000\n  dup2\n  mstore\n  0x04\n  add\n  tag_28\n  swap1\n  tag_29\n  jump\t// in\ntag_28:\n  mload(0x40)\n  dup1\n  swap2\n  sub\n  swap1\n  revert\ntag_27:\n    /* \"contract/Lottery.sol\":3666:3671  10000 */\n  0x2710\n    /* \"contract/Lottery.sol\":3644:3662  _maxTicketsPerDraw */\n  dup2\n    /* \"contract/Lottery.sol\":3644:3671  _maxTicketsPerDraw <= 10000 */\n  0xffff\n  and\n  gt\n  iszero\n    /* \"contract/Lottery.sol\":3636:3702  require(_maxTicketsPerDraw <= 10000, \"Too high - unrealistic cap\") */\n  tag_30\n  jumpi\n  mload(0x40)\n  0x08c379a000000000000000000000000000000000000000000000000000000000\n  dup2\n  mstore\n  0x04\n  add\n  tag_31\n  swap1\n  tag_32\n  jump\t// in\ntag_31:\n  mload(0x40)\n  dup1\n  swap2\n  sub\n  swap1\n  revert\ntag_30:\n    /* \"contract/Lottery.sol\":3733:3751  _maxTicketsPerDraw */\n  dup1\n    /* \"contract/Lottery.sol\":3713:3730  maxTicketsPerDraw */\n  0x0d\n  0x04\n    /* \"contract/Lottery.sol\":3713:3751  maxTicketsPerDraw = _maxTicketsPerDraw */\n  0x0100\n  exp\n  dup2\n  sload\n  dup2\n  0xffff\n  mul\n  not\n  and\n  swap1\n  dup4\n  0xffff\n  and\n  mul\n  or\n  swap1\n  sstore\n  pop\n    /* \"contract/Lottery.sol\":2612:3759  constructor(... */\n  pop\n  pop\n  pop\n  pop\n    /* \"contract/Lottery.sol\":1263:12500  contract Lottery is ILottery {... */\n  jump(tag_33)\n    /* \"#utility.yul\":7:84   */\ntag_34:\n    /* \"#utility.yul\":44:51   */\n  0x00\n    /* \"#utility.yul\":73:78   */\n  dup2\n    /* \"#utility.yul\":62:78   */\n  swap1\n  pop\n    /* \"#utility.yul\":7:84   */\n  swap2\n  swap1\n  pop\n  jump\t// out\n    /* \"#utility.yul\":90:270   */\ntag_35:\n    /* \"#utility.yul\":138:215   */\n  0x4e487b7100000000000000000000000000000000000000000000000000000000\n    /* \"#utility.yul\":135:136   */\n  0x00\n    /* \"#utility.yul\":128:216   */\n  mstore\n    /* \"#utility.yul\":235:239   */\n  0x11\n    /* \"#utility.yul\":232:233   */\n  0x04\n    /* \"#utility.yul\":225:240   */\n  mstore\n    /* \"#utility.yul\":259:263   */\n  0x24\n    /* \"#utility.yul\":256:257   */\n  0x00\n    /* \"#utility.yul\":249:264   */\n  revert\n    /* \"#utility.yul\":276:686   */\ntag_2:\n    /* \"#utility.yul\":316:323   */\n  0x00\n    /* \"#utility.yul\":339:359   */\n  tag_64\n    /* \"#utility.yul\":357:358   */\n  dup3\n    /* \"#utility.yul\":339:359   */\n  tag_34\n  jump\t// in\ntag_64:\n    /* \"#utility.yul\":334:359   */\n  swap2\n  pop\n    /* \"#utility.yul\":373:393   */\n  tag_65\n    /* \"#utility.yul\":391:392   */\n  dup4\n    /* \"#utility.yul\":373:393   */\n  tag_34\n  jump\t// in\ntag_65:\n    /* \"#utility.yul\":368:393   */\n  swap3\n  pop\n    /* \"#utility.yul\":428:429   */\n  dup3\n    /* \"#utility.yul\":425:426   */\n  dup3\n    /* \"#utility.yul\":421:430   */\n  mul\n    /* \"#utility.yul\":450:480   */\n  tag_66\n    /* \"#utility.yul\":468:479   */\n  dup2\n    /* \"#utility.yul\":450:480   */\n  tag_34\n  jump\t// in\ntag_66:\n    /* \"#utility.yul\":439:480   */\n  swap2\n  pop\n    /* \"#utility.yul\":629:630   */\n  dup3\n    /* \"#utility.yul\":620:627   */\n  dup3\n    /* \"#utility.yul\":616:631   */\n  div\n    /* \"#utility.yul\":613:614   */\n  dup5\n    /* \"#utility.yul\":610:632   */\n  eq\n    /* \"#utility.yul\":590:591   */\n  dup4\n    /* \"#utility.yul\":583:592   */\n  iszero\n    /* \"#utility.yul\":563:646   */\n  or\n    /* \"#utility.yul\":540:679   */\n  tag_67\n  jumpi\n    /* \"#utility.yul\":659:677   */\n  tag_68\n  tag_35\n  jump\t// in\ntag_68:\n    /* \"#utility.yul\":540:679   */\ntag_67:\n    /* \"#utility.yul\":324:686   */\n  pop\n    /* \"#utility.yul\":276:686   */\n  swap3\n  swap2\n  pop\n  pop\n  jump\t// out\n    /* \"#utility.yul\":692:872   */\ntag_36:\n    /* \"#utility.yul\":740:817   */\n  0x4e487b7100000000000000000000000000000000000000000000000000000000\n    /* \"#utility.yul\":737:738   */\n  0x00\n    /* \"#utility.yul\":730:818   */\n  mstore\n    /* \"#utility.yul\":837:841   */\n  0x12\n    /* \"#utility.yul\":834:835   */\n  0x04\n    /* \"#utility.yul\":827:842   */\n  mstore\n    /* \"#utility.yul\":861:865   */\n  0x24\n    /* \"#utility.yul\":858:859   */\n  0x00\n    /* \"#utility.yul\":851:866   */\n  revert\n    /* \"#utility.yul\":878:1063   */\ntag_4:\n    /* \"#utility.yul\":918:919   */\n  0x00\n    /* \"#utility.yul\":935:955   */\n  tag_71\n    /* \"#utility.yul\":953:954   */\n  dup3\n    /* \"#utility.yul\":935:955   */\n  tag_34\n  jump\t// in\ntag_71:\n    /* \"#utility.yul\":930:955   */\n  swap2\n  pop\n    /* \"#utility.yul\":969:989   */\n  tag_72\n    /* \"#utility.yul\":987:988   */\n  dup4\n    /* \"#utility.yul\":969:989   */\n  tag_34\n  jump\t// in\ntag_72:\n    /* \"#utility.yul\":964:989   */\n  swap3\n  pop\n    /* \"#utility.yul\":1008:1009   */\n  dup3\n    /* \"#utility.yul\":998:1033   */\n  tag_73\n  jumpi\n    /* \"#utility.yul\":1013:1031   */\n  tag_74\n  tag_36\n  jump\t// in\ntag_74:\n    /* \"#utility.yul\":998:1033   */\ntag_73:\n    /* \"#utility.yul\":1055:1056   */\n  dup3\n    /* \"#utility.yul\":1052:1053   */\n  dup3\n    /* \"#utility.yul\":1048:1057   */\n  div\n    /* \"#utility.yul\":1043:1057   */\n  swap1\n  pop\n    /* \"#utility.yul\":878:1063   */\n  swap3\n  swap2\n  pop\n  pop\n  jump\t// out\n    /* \"#utility.yul\":1150:1267   */\ntag_38:\n    /* \"#utility.yul\":1259:1260   */\n  0x00\n    /* \"#utility.yul\":1256:1257   */\n  0x00\n    /* \"#utility.yul\":1249:1261   */\n  revert\n    /* \"#utility.yul\":1396:1518   */\ntag_40:\n    /* \"#utility.yul\":1469:1493   */\n  tag_79\n    /* \"#utility.yul\":1487:1492   */\n  dup2\n    /* \"#utility.yul\":1469:1493   */\n  tag_34\n  jump\t// in\ntag_79:\n    /* \"#utility.yul\":1462:1467   */\n  dup2\n    /* \"#utility.yul\":1459:1494   */\n  eq\n    /* \"#utility.yul\":1449:1512   */\n  tag_80\n  jumpi\n    /* \"#utility.yul\":1508:1509   */\n  0x00\n    /* \"#utility.yul\":1505:1506   */\n  0x00\n    /* \"#utility.yul\":1498:1510   */\n  revert\n    /* \"#utility.yul\":1449:1512   */\ntag_80:\n    /* \"#utility.yul\":1396:1518   */\n  pop\n  jump\t// out\n    /* \"#utility.yul\":1524:1667   */\ntag_41:\n    /* \"#utility.yul\":1581:1586   */\n  0x00\n    /* \"#utility.yul\":1612:1618   */\n  dup2\n    /* \"#utility.yul\":1606:1619   */\n  mload\n    /* \"#utility.yul\":1597:1619   */\n  swap1\n  pop\n    /* \"#utility.yul\":1628:1661   */\n  tag_82\n    /* \"#utility.yul\":1655:1660   */\n  dup2\n    /* \"#utility.yul\":1628:1661   */\n  tag_40\n  jump\t// in\ntag_82:\n    /* \"#utility.yul\":1524:1667   */\n  swap3\n  swap2\n  pop\n  pop\n  jump\t// out\n    /* \"#utility.yul\":1673:1762   */\ntag_42:\n    /* \"#utility.yul\":1709:1716   */\n  0x00\n    /* \"#utility.yul\":1749:1755   */\n  0xffff\n    /* \"#utility.yul\":1742:1747   */\n  dup3\n    /* \"#utility.yul\":1738:1756   */\n  and\n    /* \"#utility.yul\":1727:1756   */\n  swap1\n  pop\n    /* \"#utility.yul\":1673:1762   */\n  swap2\n  swap1\n  pop\n  jump\t// out\n    /* \"#utility.yul\":1768:1888   */\ntag_43:\n    /* \"#utility.yul\":1840:1863   */\n  tag_85\n    /* \"#utility.yul\":1857:1862   */\n  dup2\n    /* \"#utility.yul\":1840:1863   */\n  tag_42\n  jump\t// in\ntag_85:\n    /* \"#utility.yul\":1833:1838   */\n  dup2\n    /* \"#utility.yul\":1830:1864   */\n  eq\n    /* \"#utility.yul\":1820:1882   */\n  tag_86\n  jumpi\n    /* \"#utility.yul\":1878:1879   */\n  0x00\n    /* \"#utility.yul\":1875:1876   */\n  0x00\n    /* \"#utility.yul\":1868:1880   */\n  revert\n    /* \"#utility.yul\":1820:1882   */\ntag_86:\n    /* \"#utility.yul\":1768:1888   */\n  pop\n  jump\t// out\n    /* \"#utility.yul\":1894:2035   */\ntag_44:\n    /* \"#utility.yul\":1950:1955   */\n  0x00\n    /* \"#utility.yul\":1981:1987   */\n  dup2\n    /* \"#utility.yul\":1975:1988   */\n  mload\n    /* \"#utility.yul\":1966:1988   */\n  swap1\n  pop\n    /* \"#utility.yul\":1997:2029   */\n  tag_88\n    /* \"#utility.yul\":2023:2028   */\n  dup2\n    /* \"#utility.yul\":1997:2029   */\n  tag_43\n  jump\t// in\ntag_88:\n    /* \"#utility.yul\":1894:2035   */\n  swap3\n  swap2\n  pop\n  pop\n  jump\t// out\n    /* \"#utility.yul\":2041:2855   */\ntag_7:\n    /* \"#utility.yul\":2135:2141   */\n  0x00\n    /* \"#utility.yul\":2143:2149   */\n  0x00\n    /* \"#utility.yul\":2151:2157   */\n  0x00\n    /* \"#utility.yul\":2159:2165   */\n  0x00\n    /* \"#utility.yul\":2208:2211   */\n  0x80\n    /* \"#utility.yul\":2196:2205   */\n  dup6\n    /* \"#utility.yul\":2187:2194   */\n  dup8\n    /* \"#utility.yul\":2183:2206   */\n  sub\n    /* \"#utility.yul\":2179:2212   */\n  slt\n    /* \"#utility.yul\":2176:2296   */\n  iszero\n  tag_90\n  jumpi\n    /* \"#utility.yul\":2215:2294   */\n  tag_91\n  tag_38\n  jump\t// in\ntag_91:\n    /* \"#utility.yul\":2176:2296   */\ntag_90:\n    /* \"#utility.yul\":2335:2336   */\n  0x00\n    /* \"#utility.yul\":2360:2424   */\n  tag_92\n    /* \"#utility.yul\":2416:2423   */\n  dup8\n    /* \"#utility.yul\":2407:2413   */\n  dup3\n    /* \"#utility.yul\":2396:2405   */\n  dup9\n    /* \"#utility.yul\":2392:2414   */\n  add\n    /* \"#utility.yul\":2360:2424   */\n  tag_41\n  jump\t// in\ntag_92:\n    /* \"#utility.yul\":2350:2424   */\n  swap5\n  pop\n    /* \"#utility.yul\":2306:2434   */\n  pop\n    /* \"#utility.yul\":2473:2475   */\n  0x20\n    /* \"#utility.yul\":2499:2562   */\n  tag_93\n    /* \"#utility.yul\":2554:2561   */\n  dup8\n    /* \"#utility.yul\":2545:2551   */\n  dup3\n    /* \"#utility.yul\":2534:2543   */\n  dup9\n    /* \"#utility.yul\":2530:2552   */\n  add\n    /* \"#utility.yul\":2499:2562   */\n  tag_44\n  jump\t// in\ntag_93:\n    /* \"#utility.yul\":2489:2562   */\n  swap4\n  pop\n    /* \"#utility.yul\":2444:2572   */\n  pop\n    /* \"#utility.yul\":2611:2613   */\n  0x40\n    /* \"#utility.yul\":2637:2700   */\n  tag_94\n    /* \"#utility.yul\":2692:2699   */\n  dup8\n    /* \"#utility.yul\":2683:2689   */\n  dup3\n    /* \"#utility.yul\":2672:2681   */\n  dup9\n    /* \"#utility.yul\":2668:2690   */\n  add\n    /* \"#utility.yul\":2637:2700   */\n  tag_44\n  jump\t// in\ntag_94:\n    /* \"#utility.yul\":2627:2700   */\n  swap3\n  pop\n    /* \"#utility.yul\":2582:2710   */\n  pop\n    /* \"#utility.yul\":2749:2751   */\n  0x60\n    /* \"#utility.yul\":2775:2838   */\n  tag_95\n    /* \"#utility.yul\":2830:2837   */\n  dup8\n    /* \"#utility.yul\":2821:2827   */\n  dup3\n    /* \"#utility.yul\":2810:2819   */\n  dup9\n    /* \"#utility.yul\":2806:2828   */\n  add\n    /* \"#utility.yul\":2775:2838   */\n  tag_44\n  jump\t// in\ntag_95:\n    /* \"#utility.yul\":2765:2838   */\n  swap2\n  pop\n    /* \"#utility.yul\":2720:2848   */\n  pop\n    /* \"#utility.yul\":2041:2855   */\n  swap3\n  swap6\n  swap2\n  swap5\n  pop\n  swap3\n  pop\n  jump\t// out\n    /* \"#utility.yul\":2861:3030   */\ntag_45:\n    /* \"#utility.yul\":2945:2956   */\n  0x00\n    /* \"#utility.yul\":2979:2985   */\n  dup3\n    /* \"#utility.yul\":2974:2977   */\n  dup3\n    /* \"#utility.yul\":2967:2986   */\n  mstore\n    /* \"#utility.yul\":3019:3023   */\n  0x20\n    /* \"#utility.yul\":3014:3017   */\n  dup3\n    /* \"#utility.yul\":3010:3024   */\n  add\n    /* \"#utility.yul\":2995:3024   */\n  swap1\n  pop\n    /* \"#utility.yul\":2861:3030   */\n  swap3\n  swap2\n  pop\n  pop\n  jump\t// out\n    /* \"#utility.yul\":3036:3217   */\ntag_46:\n    /* \"#utility.yul\":3176:3209   */\n  0x496e74657276616c206d757374206265206174206c6561737420312064617900\n    /* \"#utility.yul\":3172:3173   */\n  0x00\n    /* \"#utility.yul\":3164:3170   */\n  dup3\n    /* \"#utility.yul\":3160:3174   */\n  add\n    /* \"#utility.yul\":3153:3210   */\n  mstore\n    /* \"#utility.yul\":3036:3217   */\n  pop\n  jump\t// out\n    /* \"#utility.yul\":3223:3589   */\ntag_47:\n    /* \"#utility.yul\":3365:3368   */\n  0x00\n    /* \"#utility.yul\":3386:3453   */\n  tag_99\n    /* \"#utility.yul\":3450:3452   */\n  0x1f\n    /* \"#utility.yul\":3445:3448   */\n  dup4\n    /* \"#utility.yul\":3386:3453   */\n  tag_45\n  jump\t// in\ntag_99:\n    /* \"#utility.yul\":3379:3453   */\n  swap2\n  pop\n    /* \"#utility.yul\":3462:3555   */\n  tag_100\n    /* \"#utility.yul\":3551:3554   */\n  dup3\n    /* \"#utility.yul\":3462:3555   */\n  tag_46\n  jump\t// in\ntag_100:\n    /* \"#utility.yul\":3580:3582   */\n  0x20\n    /* \"#utility.yul\":3575:3578   */\n  dup3\n    /* \"#utility.yul\":3571:3583   */\n  add\n    /* \"#utility.yul\":3564:3583   */\n  swap1\n  pop\n    /* \"#utility.yul\":3223:3589   */\n  swap2\n  swap1\n  pop\n  jump\t// out\n    /* \"#utility.yul\":3595:4014   */\ntag_12:\n    /* \"#utility.yul\":3761:3765   */\n  0x00\n    /* \"#utility.yul\":3799:3801   */\n  0x20\n    /* \"#utility.yul\":3788:3797   */\n  dup3\n    /* \"#utility.yul\":3784:3802   */\n  add\n    /* \"#utility.yul\":3776:3802   */\n  swap1\n  pop\n    /* \"#utility.yul\":3848:3857   */\n  dup2\n    /* \"#utility.yul\":3842:3846   */\n  dup2\n    /* \"#utility.yul\":3838:3858   */\n  sub\n    /* \"#utility.yul\":3834:3835   */\n  0x00\n    /* \"#utility.yul\":3823:3832   */\n  dup4\n    /* \"#utility.yul\":3819:3836   */\n  add\n    /* \"#utility.yul\":3812:3859   */\n  mstore\n    /* \"#utility.yul\":3876:4007   */\n  tag_102\n    /* \"#utility.yul\":4002:4006   */\n  dup2\n    /* \"#utility.yul\":3876:4007   */\n  tag_47\n  jump\t// in\ntag_102:\n    /* \"#utility.yul\":3868:4007   */\n  swap1\n  pop\n    /* \"#utility.yul\":3595:4014   */\n  swap2\n  swap1\n  pop\n  jump\t// out\n    /* \"#utility.yul\":4020:4200   */\ntag_48:\n    /* \"#utility.yul\":4160:4192   */\n  0x496e74657276616c2063616e6e6f742065786365656420333020646179730000\n    /* \"#utility.yul\":4156:4157   */\n  0x00\n    /* \"#utility.yul\":4148:4154   */\n  dup3\n    /* \"#utility.yul\":4144:4158   */\n  add\n    /* \"#utility.yul\":4137:4193   */\n  mstore\n    /* \"#utility.yul\":4020:4200   */\n  pop\n  jump\t// out\n    /* \"#utility.yul\":4206:4572   */\ntag_49:\n    /* \"#utility.yul\":4348:4351   */\n  0x00\n    /* \"#utility.yul\":4369:4436   */\n  tag_105\n    /* \"#utility.yul\":4433:4435   */\n  0x1e\n    /* \"#utility.yul\":4428:4431   */\n  dup4\n    /* \"#utility.yul\":4369:4436   */\n  tag_45\n  jump\t// in\ntag_105:\n    /* \"#utility.yul\":4362:4436   */\n  swap2\n  pop\n    /* \"#utility.yul\":4445:4538   */\n  tag_106\n    /* \"#utility.yul\":4534:4537   */\n  dup3\n    /* \"#utility.yul\":4445:4538   */\n  tag_48\n  jump\t// in\ntag_106:\n    /* \"#utility.yul\":4563:4565   */\n  0x20\n    /* \"#utility.yul\":4558:4561   */\n  dup3\n    /* \"#utility.yul\":4554:4566   */\n  add\n    /* \"#utility.yul\":4547:4566   */\n  swap1\n  pop\n    /* \"#utility.yul\":4206:4572   */\n  swap2\n  swap1\n  pop\n  jump\t// out\n    /* \"#utility.yul\":4578:4997   */\ntag_15:\n    /* \"#utility.yul\":4744:4748   */\n  0x00\n    /* \"#utility.yul\":4782:4784   */\n  0x20\n    /* \"#utility.yul\":4771:4780   */\n  dup3\n    /* \"#utility.yul\":4767:4785   */\n  add\n    /* \"#utility.yul\":4759:4785   */\n  swap1\n  pop\n    /* \"#utility.yul\":4831:4840   */\n  dup2\n    /* \"#utility.yul\":4825:4829   */\n  dup2\n    /* \"#utility.yul\":4821:4841   */\n  sub\n    /* \"#utility.yul\":4817:4818   */\n  0x00\n    /* \"#utility.yul\":4806:4815   */\n  dup4\n    /* \"#utility.yul\":4802:4819   */\n  add\n    /* \"#utility.yul\":4795:4842   */\n  mstore\n    /* \"#utility.yul\":4859:4990   */\n  tag_108\n    /* \"#utility.yul\":4985:4989   */\n  dup2\n    /* \"#utility.yul\":4859:4990   */\n  tag_49\n  jump\t// in\ntag_108:\n    /* \"#utility.yul\":4851:4990   */\n  swap1\n  pop\n    /* \"#utility.yul\":4578:4997   */\n  swap2\n  swap1\n  pop\n  jump\t// out\n    /* \"#utility.yul\":5003:5181   */\ntag_50:\n    /* \"#utility.yul\":5143:5173   */\n  0x4e656564206174206c656173742032207061727469636970616e747300000000\n    /* \"#utility.yul\":5139:5140   */\n  0x00\n    /* \"#utility.yul\":5131:5137   */\n  dup3\n    /* \"#utility.yul\":5127:5141   */\n  add\n    /* \"#utility.yul\":5120:5174   */\n  mstore\n    /* \"#utility.yul\":5003:5181   */\n  pop\n  jump\t// out\n    /* \"#utility.yul\":5187:5553   */\ntag_51:\n    /* \"#utility.yul\":5329:5332   */\n  0x00\n    /* \"#utility.yul\":5350:5417   */\n  tag_111\n    /* \"#utility.yul\":5414:5416   */\n  0x1c\n    /* \"#utility.yul\":5409:5412   */\n  dup4\n    /* \"#utility.yul\":5350:5417   */\n  tag_45\n  jump\t// in\ntag_111:\n    /* \"#utility.yul\":5343:5417   */\n  swap2\n  pop\n    /* \"#utility.yul\":5426:5519   */\n  tag_112\n    /* \"#utility.yul\":5515:5518   */\n  dup3\n    /* \"#utility.yul\":5426:5519   */\n  tag_50\n  jump\t// in\ntag_112:\n    /* \"#utility.yul\":5544:5546   */\n  0x20\n    /* \"#utility.yul\":5539:5542   */\n  dup3\n    /* \"#utility.yul\":5535:5547   */\n  add\n    /* \"#utility.yul\":5528:5547   */\n  swap1\n  pop\n    /* \"#utility.yul\":5187:5553   */\n  swap2\n  swap1\n  pop\n  jump\t// out\n    /* \"#utility.yul\":5559:5978   */\ntag_18:\n    /* \"#utility.yul\":5725:5729   */\n  0x00\n    /* \"#utility.yul\":5763:5765   */\n  0x20\n    /* \"#utility.yul\":5752:5761   */\n  dup3\n    /* \"#utility.yul\":5748:5766   */\n  add\n    /* \"#utility.yul\":5740:5766   */\n  swap1\n  pop\n    /* \"#utility.yul\":5812:5821   */\n  dup2\n    /* \"#utility.yul\":5806:5810   */\n  dup2\n    /* \"#utility.yul\":5802:5822   */\n  sub\n    /* \"#utility.yul\":5798:5799   */\n  0x00\n    /* \"#utility.yul\":5787:5796   */\n  dup4\n    /* \"#utility.yul\":5783:5800   */\n  add\n    /* \"#utility.yul\":5776:5823   */\n  mstore\n    /* \"#utility.yul\":5840:5971   */\n  tag_114\n    /* \"#utility.yul\":5966:5970   */\n  dup2\n    /* \"#utility.yul\":5840:5971   */\n  tag_51\n  jump\t// in\ntag_114:\n    /* \"#utility.yul\":5832:5971   */\n  swap1\n  pop\n    /* \"#utility.yul\":5559:5978   */\n  swap2\n  swap1\n  pop\n  jump\t// out\n    /* \"#utility.yul\":5984:6164   */\ntag_52:\n    /* \"#utility.yul\":6124:6156   */\n  0x546f6f2068696768202d20776f756c64206e6576657220747269676765720000\n    /* \"#utility.yul\":6120:6121   */\n  0x00\n    /* \"#utility.yul\":6112:6118   */\n  dup3\n    /* \"#utility.yul\":6108:6122   */\n  add\n    /* \"#utility.yul\":6101:6157   */\n  mstore\n    /* \"#utility.yul\":5984:6164   */\n  pop\n  jump\t// out\n    /* \"#utility.yul\":6170:6536   */\ntag_53:\n    /* \"#utility.yul\":6312:6315   */\n  0x00\n    /* \"#utility.yul\":6333:6400   */\n  tag_117\n    /* \"#utility.yul\":6397:6399   */\n  0x1e\n    /* \"#utility.yul\":6392:6395   */\n  dup4\n    /* \"#utility.yul\":6333:6400   */\n  tag_45\n  jump\t// in\ntag_117:\n    /* \"#utility.yul\":6326:6400   */\n  swap2\n  pop\n    /* \"#utility.yul\":6409:6502   */\n  tag_118\n    /* \"#utility.yul\":6498:6501   */\n  dup3\n    /* \"#utility.yul\":6409:6502   */\n  tag_52\n  jump\t// in\ntag_118:\n    /* \"#utility.yul\":6527:6529   */\n  0x20\n    /* \"#utility.yul\":6522:6525   */\n  dup3\n    /* \"#utility.yul\":6518:6530   */\n  add\n    /* \"#utility.yul\":6511:6530   */\n  swap1\n  pop\n    /* \"#utility.yul\":6170:6536   */\n  swap2\n  swap1\n  pop\n  jump\t// out\n    /* \"#utility.yul\":6542:6961   */\ntag_21:\n    /* \"#utility.yul\":6708:6712   */\n  0x00\n    /* \"#utility.yul\":6746:6748   */\n  0x20\n    /* \"#utility.yul\":6735:6744   */\n  dup3\n    /* \"#utility.yul\":6731:6749   */\n  add\n    /* \"#utility.yul\":6723:6749   */\n  swap1\n  pop\n    /* \"#utility.yul\":6795:6804   */\n  dup2\n    /* \"#utility.yul\":6789:6793   */\n  dup2\n    /* \"#utility.yul\":6785:6805   */\n  sub\n    /* \"#utility.yul\":6781:6782   */\n  0x00\n    /* \"#utility.yul\":6770:6779   */\n  dup4\n    /* \"#utility.yul\":6766:6783   */\n  add\n    /* \"#utility.yul\":6759:6806   */\n  mstore\n    /* \"#utility.yul\":6823:6954   */\n  tag_120\n    /* \"#utility.yul\":6949:6953   */\n  dup2\n    /* \"#utility.yul\":6823:6954   */\n  tag_53\n  jump\t// in\ntag_120:\n    /* \"#utility.yul\":6815:6954   */\n  swap1\n  pop\n    /* \"#utility.yul\":6542:6961   */\n  swap2\n  swap1\n  pop\n  jump\t// out\n    /* \"#utility.yul\":6967:7195   */\ntag_54:\n    /* \"#utility.yul\":7107:7141   */\n  0x4d696e207469636b6574732073686f756c64206265203e3d206d696e20706172\n    /* \"#utility.yul\":7103:7104   */\n  0x00\n    /* \"#utility.yul\":7095:7101   */\n  dup3\n    /* \"#utility.yul\":7091:7105   */\n  add\n    /* \"#utility.yul\":7084:7142   */\n  mstore\n    /* \"#utility.yul\":7176:7187   */\n  0x7469636970616e74730000000000000000000000000000000000000000000000\n    /* \"#utility.yul\":7171:7173   */\n  0x20\n    /* \"#utility.yul\":7163:7169   */\n  dup3\n    /* \"#utility.yul\":7159:7174   */\n  add\n    /* \"#utility.yul\":7152:7188   */\n  mstore\n    /* \"#utility.yul\":6967:7195   */\n  pop\n  jump\t// out\n    /* \"#utility.yul\":7201:7567   */\ntag_55:\n    /* \"#utility.yul\":7343:7346   */\n  0x00\n    /* \"#utility.yul\":7364:7431   */\n  tag_123\n    /* \"#utility.yul\":7428:7430   */\n  0x29\n    /* \"#utility.yul\":7423:7426   */\n  dup4\n    /* \"#utility.yul\":7364:7431   */\n  tag_45\n  jump\t// in\ntag_123:\n    /* \"#utility.yul\":7357:7431   */\n  swap2\n  pop\n    /* \"#utility.yul\":7440:7533   */\n  tag_124\n    /* \"#utility.yul\":7529:7532   */\n  dup3\n    /* \"#utility.yul\":7440:7533   */\n  tag_54\n  jump\t// in\ntag_124:\n    /* \"#utility.yul\":7558:7560   */\n  0x40\n    /* \"#utility.yul\":7553:7556   */\n  dup3\n    /* \"#utility.yul\":7549:7561   */\n  add\n    /* \"#utility.yul\":7542:7561   */\n  swap1\n  pop\n    /* \"#utility.yul\":7201:7567   */\n  swap2\n  swap1\n  pop\n  jump\t// out\n    /* \"#utility.yul\":7573:7992   */\ntag_24:\n    /* \"#utility.yul\":7739:7743   */\n  0x00\n    /* \"#utility.yul\":7777:7779   */\n  0x20\n    /* \"#utility.yul\":7766:7775   */\n  dup3\n    /* \"#utility.yul\":7762:7780   */\n  add\n    /* \"#utility.yul\":7754:7780   */\n  swap1\n  pop\n    /* \"#utility.yul\":7826:7835   */\n  dup2\n    /* \"#utility.yul\":7820:7824   */\n  dup2\n    /* \"#utility.yul\":7816:7836   */\n  sub\n    /* \"#utility.yul\":7812:7813   */\n  0x00\n    /* \"#utility.yul\":7801:7810   */\n  dup4\n    /* \"#utility.yul\":7797:7814   */\n  add\n    /* \"#utility.yul\":7790:7837   */\n  mstore\n    /* \"#utility.yul\":7854:7985   */\n  tag_126\n    /* \"#utility.yul\":7980:7984   */\n  dup2\n    /* \"#utility.yul\":7854:7985   */\n  tag_55\n  jump\t// in\ntag_126:\n    /* \"#utility.yul\":7846:7985   */\n  swap1\n  pop\n    /* \"#utility.yul\":7573:7992   */\n  swap2\n  swap1\n  pop\n  jump\t// out\n    /* \"#utility.yul\":7998:8174   */\ntag_56:\n    /* \"#utility.yul\":8138:8166   */\n  0x4d6178206d757374206265203e3d206d696e207469636b657473000000000000\n    /* \"#utility.yul\":8134:8135   */\n  0x00\n    /* \"#utility.yul\":8126:8132   */\n  dup3\n    /* \"#utility.yul\":8122:8136   */\n  add\n    /* \"#utility.yul\":8115:8167   */\n  mstore\n    /* \"#utility.yul\":7998:8174   */\n  pop\n  jump\t// out\n    /* \"#utility.yul\":8180:8546   */\ntag_57:\n    /* \"#utility.yul\":8322:8325   */\n  0x00\n    /* \"#utility.yul\":8343:8410   */\n  tag_129\n    /* \"#utility.yul\":8407:8409   */\n  0x1a\n    /* \"#utility.yul\":8402:8405   */\n  dup4\n    /* \"#utility.yul\":8343:8410   */\n  tag_45\n  jump\t// in\ntag_129:\n    /* \"#utility.yul\":8336:8410   */\n  swap2\n  pop\n    /* \"#utility.yul\":8419:8512   */\n  tag_130\n    /* \"#utility.yul\":8508:8511   */\n  dup3\n    /* \"#utility.yul\":8419:8512   */\n  tag_56\n  jump\t// in\ntag_130:\n    /* \"#utility.yul\":8537:8539   */\n  0x20\n    /* \"#utility.yul\":8532:8535   */\n  dup3\n    /* \"#utility.yul\":8528:8540   */\n  add\n    /* \"#utility.yul\":8521:8540   */\n  swap1\n  pop\n    /* \"#utility.yul\":8180:8546   */\n  swap2\n  swap1\n  pop\n  jump\t// out\n    /* \"#utility.yul\":8552:8971   */\ntag_29:\n    /* \"#utility.yul\":8718:8722   */\n  0x00\n    /* \"#utility.yul\":8756:8758   */\n  0x20\n    /* \"#utility.yul\":8745:8754   */\n  dup3\n    /* \"#utility.yul\":8741:8759   */\n  add\n    /* \"#utility.yul\":8733:8759   */\n  swap1\n  pop\n    /* \"#utility.yul\":8805:8814   */\n  dup2\n    /* \"#utility.yul\":8799:8803   */\n  dup2\n    /* \"#utility.yul\":8795:8815   */\n  sub\n    /* \"#utility.yul\":8791:8792   */\n  0x00\n    /* \"#utility.yul\":8780:8789   */\n  dup4\n    /* \"#utility.yul\":8776:8793   */\n  add\n    /* \"#utility.yul\":8769:8816   */\n  mstore\n    /* \"#utility.yul\":8833:8964   */\n  tag_132\n    /* \"#utility.yul\":8959:8963   */\n  dup2\n    /* \"#utility.yul\":8833:8964   */\n  tag_57\n  jump\t// in\ntag_132:\n    /* \"#utility.yul\":8825:8964   */\n  swap1\n  pop\n    /* \"#utility.yul\":8552:8971   */\n  swap2\n  swap1\n  pop\n  jump\t// out\n    /* \"#utility.yul\":8977:9153   */\ntag_58:\n    /* \"#utility.yul\":9117:9145   */\n  0x546f6f2068696768202d20756e7265616c697374696320636170000000000000\n    /* \"#utility.yul\":9113:9114   */\n  0x00\n    /* \"#utility.yul\":9105:9111   */\n  dup3\n    /* \"#utility.yul\":9101:9115   */\n  add\n    /* \"#utility.yul\":9094:9146   */\n  mstore\n    /* \"#utility.yul\":8977:9153   */\n  pop\n  jump\t// out\n    /* \"#utility.yul\":9159:9525   */\ntag_59:\n    /* \"#utility.yul\":9301:9304   */\n  0x00\n    /* \"#utility.yul\":9322:9389   */\n  tag_135\n    /* \"#utility.yul\":9386:9388   */\n  0x1a\n    /* \"#utility.yul\":9381:9384   */\n  dup4\n    /* \"#utility.yul\":9322:9389   */\n  tag_45\n  jump\t// in\ntag_135:\n    /* \"#utility.yul\":9315:9389   */\n  swap2\n  pop\n    /* \"#utility.yul\":9398:9491   */\n  tag_136\n    /* \"#utility.yul\":9487:9490   */\n  dup3\n    /* \"#utility.yul\":9398:9491   */\n  tag_58\n  jump\t// in\ntag_136:\n    /* \"#utility.yul\":9516:9518   */\n  0x20\n    /* \"#utility.yul\":9511:9514   */\n  dup3\n    /* \"#utility.yul\":9507:9519   */\n  add\n    /* \"#utility.yul\":9500:9519   */\n  swap1\n  pop\n    /* \"#utility.yul\":9159:9525   */\n  swap2\n  swap1\n  pop\n  jump\t// out\n    /* \"#utility.yul\":9531:9950   */\ntag_32:\n    /* \"#utility.yul\":9697:9701   */\n  0x00\n    /* \"#utility.yul\":9735:9737   */\n  0x20\n    /* \"#utility.yul\":9724:9733   */\n  dup3\n    /* \"#utility.yul\":9720:9738   */\n  add\n    /* \"#utility.yul\":9712:9738   */\n  swap1\n  pop\n    /* \"#utility.yul\":9784:9793   */\n  dup2\n    /* \"#utility.yul\":9778:9782   */\n  dup2\n    /* \"#utility.yul\":9774:9794   */\n  sub\n    /* \"#utility.yul\":9770:9771   */\n  0x00\n    /* \"#utility.yul\":9759:9768   */\n  dup4\n    /* \"#utility.yul\":9755:9772   */\n  add\n    /* \"#utility.yul\":9748:9795   */\n  mstore\n    /* \"#utility.yul\":9812:9943   */\n  tag_138\n    /* \"#utility.yul\":9938:9942   */\n  dup2\n    /* \"#utility.yul\":9812:9943   */\n  tag_59\n  jump\t// in\ntag_138:\n    /* \"#utility.yul\":9804:9943   */\n  swap1\n  pop\n    /* \"#utility.yul\":9531:9950   */\n  swap2\n  swap1\n  pop\n  jump\t// out\n    /* \"contract/Lottery.sol\":1263:12500  contract Lottery is ILottery {... */\ntag_33:\n  dataSize(sub_0)\n  dup1\n  dataOffset(sub_0)\n  0x00\n  codecopy\n  0x00\n  return\nstop\n\nsub_0: assembly {\n        /* \"contract/Lottery.sol\":1263:12500  contract Lottery is ILottery {... */\n      mstore(0x40, 0x80)\n      jumpi(tag_1, lt(calldatasize, 0x04))\n      shr(0xe0, calldataload(0x00))\n      dup1\n      0x8e71decb\n      gt\n      tag_24\n      jumpi\n      dup1\n      0xc59bc765\n      gt\n      tag_25\n      jumpi\n      dup1\n      0xc59bc765\n      eq\n      tag_18\n      jumpi\n      dup1\n      0xcc957f28\n      eq\n      tag_19\n      jumpi\n      dup1\n      0xdabc4000\n      eq\n      tag_20\n      jumpi\n      dup1\n      0xec8f0b5b\n      eq\n      tag_21\n      jumpi\n      dup1\n      0xf437bc59\n      eq\n      tag_22\n      jumpi\n      dup1\n      0xf5a9d5bb\n      eq\n      tag_23\n      jumpi\n      jump(tag_1)\n    tag_25:\n      dup1\n      0x8e71decb\n      eq\n      tag_13\n      jumpi\n      dup1\n      0xa54cd4f7\n      eq\n      tag_14\n      jumpi\n      dup1\n      0xbc06c4cc\n      eq\n      tag_15\n      jumpi\n      dup1\n      0xbff45ed9\n      eq\n      tag_16\n      jumpi\n      dup1\n      0xc5150950\n      eq\n      tag_17\n      jumpi\n      jump(tag_1)\n    tag_24:\n      dup1\n      0x63ed426d\n      gt\n      tag_26\n      jumpi\n      dup1\n      0x63ed426d\n      eq\n      tag_7\n      jumpi\n      dup1\n      0x70740ac9\n      eq\n      tag_8\n      jumpi\n      dup1\n      0x719ce73e\n      eq\n      tag_9\n      jumpi\n      dup1\n      0x7535d791\n      eq\n      tag_10\n      jumpi\n      dup1\n      0x76dd463d\n      eq\n      tag_11\n      jumpi\n      dup1\n      0x87bc3996\n      eq\n      tag_12\n      jumpi\n      jump(tag_1)\n    tag_26:\n      dup1\n      0x12fa6feb\n      eq\n      tag_2\n      jumpi\n      dup1\n      0x160344e2\n      eq\n      tag_3\n      jumpi\n      dup1\n      0x1eecd934\n      eq\n      tag_4\n      jumpi\n      dup1\n      0x278a5ff2\n      eq\n      tag_5\n      jumpi\n      dup1\n      0x5cbbd635\n      eq\n      tag_6\n      jumpi\n    tag_1:\n      revert(0x00, 0x00)\n        /* \"contract/Lottery.sol\":2035:2060  bool public ended = false */\n    tag_2:\n      callvalue\n      dup1\n      iszero\n      tag_27\n      jumpi\n      revert(0x00, 0x00)\n    tag_27:\n      pop\n      tag_28\n      tag_29\n      jump\t// in\n    tag_28:\n      mload(0x40)\n      tag_30\n      swap2\n      swap1\n      tag_31\n      jump\t// in\n    tag_30:\n      mload(0x40)\n      dup1\n      swap2\n      sub\n      swap1\n      return\n        /* \"contract/Lottery.sol\":6406:7871  function startLottery() external {... */\n    tag_3:\n      callvalue\n      dup1\n      iszero\n      tag_32\n      jumpi\n      revert(0x00, 0x00)\n    tag_32:\n      pop\n      tag_33\n      tag_34\n      jump\t// in\n    tag_33:\n      stop\n        /* \"contract/Lottery.sol\":1651:1690  uint256 public ticketCost = 0.015 ether */\n    tag_4:\n      callvalue\n      dup1\n      iszero\n      tag_35\n      jumpi\n      revert(0x00, 0x00)\n    tag_35:\n      pop\n      tag_36\n      tag_37\n      jump\t// in\n    tag_36:\n      mload(0x40)\n      tag_38\n      swap2\n      swap1\n      tag_39\n      jump\t// in\n    tag_38:\n      mload(0x40)\n      dup1\n      swap2\n      sub\n      swap1\n      return\n        /* \"contract/Lottery.sol\":11606:11740  function getParticipantStatus(address user) public view returns (bool) {... */\n    tag_5:\n      callvalue\n      dup1\n      iszero\n      tag_40\n      jumpi\n      revert(0x00, 0x00)\n    tag_40:\n      pop\n      tag_41\n      0x04\n      dup1\n      calldatasize\n      sub\n      dup2\n      add\n      swap1\n      tag_42\n      swap2\n      swap1\n      tag_43\n      jump\t// in\n    tag_42:\n      tag_44\n      jump\t// in\n    tag_41:\n      mload(0x40)\n      tag_45\n      swap2\n      swap1\n      tag_31\n      jump\t// in\n    tag_45:\n      mload(0x40)\n      dup1\n      swap2\n      sub\n      swap1\n      return\n        /* \"contract/Lottery.sol\":2093:2124  uint256 public lastDrawTime = 0 */\n    tag_6:\n      callvalue\n      dup1\n      iszero\n      tag_46\n      jumpi\n      revert(0x00, 0x00)\n    tag_46:\n      pop\n      tag_47\n      tag_48\n      jump\t// in\n    tag_47:\n      mload(0x40)\n      tag_49\n      swap2\n      swap1\n      tag_39\n      jump\t// in\n    tag_49:\n      mload(0x40)\n      dup1\n      swap2\n      sub\n      swap1\n      return\n        /* \"contract/Lottery.sol\":4837:5104  function setMaxTicketsPerDraw(uint16 _maxTickets) external onlyHost {... */\n    tag_7:\n      callvalue\n      dup1\n      iszero\n      tag_50\n      jumpi\n      revert(0x00, 0x00)\n    tag_50:\n      pop\n      tag_51\n      0x04\n      dup1\n      calldatasize\n      sub\n      dup2\n      add\n      swap1\n      tag_52\n      swap2\n      swap1\n      tag_53\n      jump\t// in\n    tag_52:\n      tag_54\n      jump\t// in\n    tag_51:\n      stop\n        /* \"contract/Lottery.sol\":10667:11089  function claimPrize() external {... */\n    tag_8:\n      callvalue\n      dup1\n      iszero\n      tag_55\n      jumpi\n      revert(0x00, 0x00)\n    tag_55:\n      pop\n      tag_56\n      tag_57\n      jump\t// in\n    tag_56:\n      stop\n        /* \"contract/Lottery.sol\":1582:1610  uint256 public prizePool = 0 */\n    tag_9:\n      callvalue\n      dup1\n      iszero\n      tag_58\n      jumpi\n      revert(0x00, 0x00)\n    tag_58:\n      pop\n      tag_59\n      tag_60\n      jump\t// in\n    tag_59:\n      mload(0x40)\n      tag_61\n      swap2\n      swap1\n      tag_39\n      jump\t// in\n    tag_61:\n      mload(0x40)\n      dup1\n      swap2\n      sub\n      swap1\n      return\n        /* \"contract/Lottery.sol\":4512:4829  function setMinTicketsSold(uint16 _minTickets) external onlyHost {... */\n    tag_10:\n      callvalue\n      dup1\n      iszero\n      tag_62\n      jumpi\n      revert(0x00, 0x00)\n    tag_62:\n      pop\n      tag_63\n      0x04\n      dup1\n      calldatasize\n      sub\n      dup2\n      add\n      swap1\n      tag_64\n      swap2\n      swap1\n      tag_53\n      jump\t// in\n    tag_64:\n      tag_65\n      jump\t// in\n    tag_63:\n      stop\n        /* \"contract/Lottery.sol\":2180:2232  mapping(address => uint256) public claimableWinnings */\n    tag_11:\n      callvalue\n      dup1\n      iszero\n      tag_66\n      jumpi\n      revert(0x00, 0x00)\n    tag_66:\n      pop\n      tag_67\n      0x04\n      dup1\n      calldatasize\n      sub\n      dup2\n      add\n      swap1\n      tag_68\n      swap2\n      swap1\n      tag_43\n      jump\t// in\n    tag_68:\n      tag_69\n      jump\t// in\n    tag_67:\n      mload(0x40)\n      tag_70\n      swap2\n      swap1\n      tag_39\n      jump\t// in\n    tag_70:\n      mload(0x40)\n      dup1\n      swap2\n      sub\n      swap1\n      return\n        /* \"contract/Lottery.sol\":1949:1982  bool public drawInitiated = false */\n    tag_12:\n      callvalue\n      dup1\n      iszero\n      tag_71\n      jumpi\n      revert(0x00, 0x00)\n    tag_71:\n      pop\n      tag_72\n      tag_73\n      jump\t// in\n    tag_72:\n      mload(0x40)\n      tag_74\n      swap2\n      swap1\n      tag_31\n      jump\t// in\n    tag_74:\n      mload(0x40)\n      dup1\n      swap2\n      sub\n      swap1\n      return\n        /* \"contract/Lottery.sol\":8008:10589  function findWinner() external {... */\n    tag_13:\n      callvalue\n      dup1\n      iszero\n      tag_75\n      jumpi\n      revert(0x00, 0x00)\n    tag_75:\n      pop\n      tag_76\n      tag_77\n      jump\t// in\n    tag_76:\n      stop\n        /* \"contract/Lottery.sol\":2372:2401  uint16 public minParticipants */\n    tag_14:\n      callvalue\n      dup1\n      iszero\n      tag_78\n      jumpi\n      revert(0x00, 0x00)\n    tag_78:\n      pop\n      tag_79\n      tag_80\n      jump\t// in\n    tag_79:\n      mload(0x40)\n      tag_81\n      swap2\n      swap1\n      tag_82\n      jump\t// in\n    tag_81:\n      mload(0x40)\n      dup1\n      swap2\n      sub\n      swap1\n      return\n        /* \"contract/Lottery.sol\":2308:2335  uint256 public drawInterval */\n    tag_15:\n      callvalue\n      dup1\n      iszero\n      tag_83\n      jumpi\n      revert(0x00, 0x00)\n    tag_83:\n      pop\n      tag_84\n      tag_85\n      jump\t// in\n    tag_84:\n      mload(0x40)\n      tag_86\n      swap2\n      swap1\n      tag_39\n      jump\t// in\n    tag_86:\n      mload(0x40)\n      dup1\n      swap2\n      sub\n      swap1\n      return\n        /* \"contract/Lottery.sol\":1407:1462  mapping(address => Player) public participantsToTickets */\n    tag_16:\n      callvalue\n      dup1\n      iszero\n      tag_87\n      jumpi\n      revert(0x00, 0x00)\n    tag_87:\n      pop\n      tag_88\n      0x04\n      dup1\n      calldatasize\n      sub\n      dup2\n      add\n      swap1\n      tag_89\n      swap2\n      swap1\n      tag_43\n      jump\t// in\n    tag_89:\n      tag_90\n      jump\t// in\n    tag_88:\n      mload(0x40)\n      tag_91\n      swap3\n      swap2\n      swap1\n      tag_92\n      jump\t// in\n    tag_91:\n      mload(0x40)\n      dup1\n      swap2\n      sub\n      swap1\n      return\n        /* \"contract/Lottery.sol\":1872:1902  uint256 public drawBlockNumber */\n    tag_17:\n      callvalue\n      dup1\n      iszero\n      tag_93\n      jumpi\n      revert(0x00, 0x00)\n    tag_93:\n      pop\n      tag_94\n      tag_95\n      jump\t// in\n    tag_94:\n      mload(0x40)\n      tag_96\n      swap2\n      swap1\n      tag_39\n      jump\t// in\n    tag_96:\n      mload(0x40)\n      dup1\n      swap2\n      sub\n      swap1\n      return\n        /* \"contract/Lottery.sol\":2448:2476  uint16 public minTicketsSold */\n    tag_18:\n      callvalue\n      dup1\n      iszero\n      tag_97\n      jumpi\n      revert(0x00, 0x00)\n    tag_97:\n      pop\n      tag_98\n      tag_99\n      jump\t// in\n    tag_98:\n      mload(0x40)\n      tag_100\n      swap2\n      swap1\n      tag_82\n      jump\t// in\n    tag_100:\n      mload(0x40)\n      dup1\n      swap2\n      sub\n      swap1\n      return\n        /* \"contract/Lottery.sol\":5247:6367  function buyTicket(uint8[5] calldata ticketNumbers) external payable {... */\n    tag_19:\n      tag_101\n      0x04\n      dup1\n      calldatasize\n      sub\n      dup2\n      add\n      swap1\n      tag_102\n      swap2\n      swap1\n      tag_103\n      jump\t// in\n    tag_102:\n      tag_104\n      jump\t// in\n    tag_101:\n      stop\n        /* \"contract/Lottery.sol\":4230:4504  function setMinParticipants(uint16 _minParticipants) external onlyHost {... */\n    tag_20:\n      callvalue\n      dup1\n      iszero\n      tag_105\n      jumpi\n      revert(0x00, 0x00)\n    tag_105:\n      pop\n      tag_106\n      0x04\n      dup1\n      calldatasize\n      sub\n      dup2\n      add\n      swap1\n      tag_107\n      swap2\n      swap1\n      tag_53\n      jump\t// in\n    tag_107:\n      tag_108\n      jump\t// in\n    tag_106:\n      stop\n        /* \"contract/Lottery.sol\":2523:2554  uint16 public maxTicketsPerDraw */\n    tag_21:\n      callvalue\n      dup1\n      iszero\n      tag_109\n      jumpi\n      revert(0x00, 0x00)\n    tag_109:\n      pop\n      tag_110\n      tag_111\n      jump\t// in\n    tag_110:\n      mload(0x40)\n      tag_112\n      swap2\n      swap1\n      tag_82\n      jump\t// in\n    tag_112:\n      mload(0x40)\n      dup1\n      swap2\n      sub\n      swap1\n      return\n        /* \"contract/Lottery.sol\":1546:1573  address payable public host */\n    tag_22:\n      callvalue\n      dup1\n      iszero\n      tag_113\n      jumpi\n      revert(0x00, 0x00)\n    tag_113:\n      pop\n      tag_114\n      tag_115\n      jump\t// in\n    tag_114:\n      mload(0x40)\n      tag_116\n      swap2\n      swap1\n      tag_117\n      jump\t// in\n    tag_116:\n      mload(0x40)\n      dup1\n      swap2\n      sub\n      swap1\n      return\n        /* \"contract/Lottery.sol\":3969:4222  function setDrawInterval(uint256 _interval) external onlyHost {... */\n    tag_23:\n      callvalue\n      dup1\n      iszero\n      tag_118\n      jumpi\n      revert(0x00, 0x00)\n    tag_118:\n      pop\n      tag_119\n      0x04\n      dup1\n      calldatasize\n      sub\n      dup2\n      add\n      swap1\n      tag_120\n      swap2\n      swap1\n      tag_121\n      jump\t// in\n    tag_120:\n      tag_122\n      jump\t// in\n    tag_119:\n      stop\n        /* \"contract/Lottery.sol\":2035:2060  bool public ended = false */\n    tag_29:\n      0x09\n      0x01\n      swap1\n      sload\n      swap1\n      0x0100\n      exp\n      swap1\n      div\n      0xff\n      and\n      dup2\n      jump\t// out\n        /* \"contract/Lottery.sol\":6406:7871  function startLottery() external {... */\n    tag_34:\n        /* \"contract/Lottery.sol\":6532:6545  drawInitiated */\n      0x09\n      0x00\n      swap1\n      sload\n      swap1\n      0x0100\n      exp\n      swap1\n      div\n      0xff\n      and\n        /* \"contract/Lottery.sol\":6531:6545  !drawInitiated */\n      iszero\n        /* \"contract/Lottery.sol\":6523:6573  require(!drawInitiated, \"Draw already initiated.\") */\n      tag_124\n      jumpi\n      mload(0x40)\n      0x08c379a000000000000000000000000000000000000000000000000000000000\n      dup2\n      mstore\n      0x04\n      add\n      tag_125\n      swap1\n      tag_126\n      jump\t// in\n    tag_125:\n      mload(0x40)\n      dup1\n      swap2\n      sub\n      swap1\n      revert\n    tag_124:\n        /* \"contract/Lottery.sol\":6704:6719  minParticipants */\n      0x0d\n      0x00\n      swap1\n      sload\n      swap1\n      0x0100\n      exp\n      swap1\n      div\n      0xffff\n      and\n        /* \"contract/Lottery.sol\":6673:6719  participantAddresses.length >= minParticipants */\n      0xffff\n      and\n        /* \"contract/Lottery.sol\":6673:6693  participantAddresses */\n      0x02\n        /* \"contract/Lottery.sol\":6673:6700  participantAddresses.length */\n      dup1\n      sload\n      swap1\n      pop\n        /* \"contract/Lottery.sol\":6673:6719  participantAddresses.length >= minParticipants */\n      lt\n      iszero\n        /* \"contract/Lottery.sol\":6651:6785  require(... */\n      tag_127\n      jumpi\n      mload(0x40)\n      0x08c379a000000000000000000000000000000000000000000000000000000000\n      dup2\n      mstore\n      0x04\n      add\n      tag_128\n      swap1\n      tag_129\n      jump\t// in\n    tag_128:\n      mload(0x40)\n      dup1\n      swap2\n      sub\n      swap1\n      revert\n    tag_127:\n        /* \"contract/Lottery.sol\":6834:6848  minTicketsSold */\n      0x0d\n      0x02\n      swap1\n      sload\n      swap1\n      0x0100\n      exp\n      swap1\n      div\n      0xffff\n      and\n        /* \"contract/Lottery.sol\":6818:6848  totalTickets >= minTicketsSold */\n      0xffff\n      and\n        /* \"contract/Lottery.sol\":6818:6830  totalTickets */\n      0x01\n      0x00\n      swap1\n      sload\n      swap1\n      0x0100\n      exp\n      swap1\n      div\n      0xffff\n      and\n        /* \"contract/Lottery.sol\":6818:6848  totalTickets >= minTicketsSold */\n      0xffff\n      and\n      lt\n      iszero\n        /* \"contract/Lottery.sol\":6796:6914  require(... */\n      tag_130\n      jumpi\n      mload(0x40)\n      0x08c379a000000000000000000000000000000000000000000000000000000000\n      dup2\n      mstore\n      0x04\n      add\n      tag_131\n      swap1\n      tag_132\n      jump\t// in\n    tag_131:\n      mload(0x40)\n      dup1\n      swap2\n      sub\n      swap1\n      revert\n    tag_130:\n        /* \"contract/Lottery.sol\":7091:7112  bool timeConditionMet */\n      0x00\n        /* \"contract/Lottery.sol\":7132:7133  0 */\n      0x00\n        /* \"contract/Lottery.sol\":7116:7128  lastDrawTime */\n      sload(0x0a)\n        /* \"contract/Lottery.sol\":7116:7133  lastDrawTime == 0 */\n      eq\n        /* \"contract/Lottery.sol\":7115:7199  (lastDrawTime == 0) ||... */\n      dup1\n      tag_133\n      jumpi\n      pop\n        /* \"contract/Lottery.sol\":7186:7198  drawInterval */\n      sload(0x0c)\n        /* \"contract/Lottery.sol\":7171:7183  lastDrawTime */\n      sload(0x0a)\n        /* \"contract/Lottery.sol\":7171:7198  lastDrawTime + drawInterval */\n      tag_134\n      swap2\n      swap1\n      tag_135\n      jump\t// in\n    tag_134:\n        /* \"contract/Lottery.sol\":7152:7167  block.timestamp */\n      timestamp\n        /* \"contract/Lottery.sol\":7152:7198  block.timestamp >= lastDrawTime + drawInterval */\n      lt\n      iszero\n        /* \"contract/Lottery.sol\":7115:7199  (lastDrawTime == 0) ||... */\n    tag_133:\n        /* \"contract/Lottery.sol\":7091:7199  bool timeConditionMet = (lastDrawTime == 0) ||... */\n      swap1\n      pop\n        /* \"contract/Lottery.sol\":7210:7231  bool ticketCapReached */\n      0x00\n        /* \"contract/Lottery.sol\":7250:7267  maxTicketsPerDraw */\n      0x0d\n      0x04\n      swap1\n      sload\n      swap1\n      0x0100\n      exp\n      swap1\n      div\n      0xffff\n      and\n        /* \"contract/Lottery.sol\":7234:7267  totalTickets >= maxTicketsPerDraw */\n      0xffff\n      and\n        /* \"contract/Lottery.sol\":7234:7246  totalTickets */\n      0x01\n      0x00\n      swap1\n      sload\n      swap1\n      0x0100\n      exp\n      swap1\n      div\n      0xffff\n      and\n        /* \"contract/Lottery.sol\":7234:7267  totalTickets >= maxTicketsPerDraw */\n      0xffff\n      and\n      lt\n      iszero\n        /* \"contract/Lottery.sol\":7210:7267  bool ticketCapReached = totalTickets >= maxTicketsPerDraw */\n      swap1\n      pop\n        /* \"contract/Lottery.sol\":7302:7318  timeConditionMet */\n      dup2\n        /* \"contract/Lottery.sol\":7302:7338  timeConditionMet || ticketCapReached */\n      dup1\n      tag_136\n      jumpi\n      pop\n        /* \"contract/Lottery.sol\":7322:7338  ticketCapReached */\n      dup1\n        /* \"contract/Lottery.sol\":7302:7338  timeConditionMet || ticketCapReached */\n    tag_136:\n        /* \"contract/Lottery.sol\":7280:7428  require(... */\n      tag_137\n      jumpi\n      mload(0x40)\n      0x08c379a000000000000000000000000000000000000000000000000000000000\n      dup2\n      mstore\n      0x04\n      add\n      tag_138\n      swap1\n      tag_139\n      jump\t// in\n    tag_138:\n      mload(0x40)\n      dup1\n      swap2\n      sub\n      swap1\n      revert\n    tag_137:\n        /* \"contract/Lottery.sol\":7677:7678  5 */\n      0x05\n        /* \"contract/Lottery.sol\":7662:7674  block.number */\n      number\n        /* \"contract/Lottery.sol\":7662:7678  block.number + 5 */\n      tag_140\n      swap2\n      swap1\n      tag_135\n      jump\t// in\n    tag_140:\n        /* \"contract/Lottery.sol\":7644:7659  drawBlockNumber */\n      0x08\n        /* \"contract/Lottery.sol\":7644:7678  drawBlockNumber = block.number + 5 */\n      dup2\n      swap1\n      sstore\n      pop\n        /* \"contract/Lottery.sol\":7757:7761  true */\n      0x01\n        /* \"contract/Lottery.sol\":7741:7754  drawInitiated */\n      0x09\n      0x00\n        /* \"contract/Lottery.sol\":7741:7761  drawInitiated = true */\n      0x0100\n      exp\n      dup2\n      sload\n      dup2\n      0xff\n      mul\n      not\n      and\n      swap1\n      dup4\n      iszero\n      iszero\n      mul\n      or\n      swap1\n      sstore\n      pop\n        /* \"contract/Lottery.sol\":7848:7863  block.timestamp */\n      timestamp\n        /* \"contract/Lottery.sol\":7833:7845  lastDrawTime */\n      0x0a\n        /* \"contract/Lottery.sol\":7833:7863  lastDrawTime = block.timestamp */\n      dup2\n      swap1\n      sstore\n      pop\n        /* \"contract/Lottery.sol\":6439:7871  {... */\n      pop\n      pop\n        /* \"contract/Lottery.sol\":6406:7871  function startLottery() external {... */\n      jump\t// out\n        /* \"contract/Lottery.sol\":1651:1690  uint256 public ticketCost = 0.015 ether */\n    tag_37:\n      sload(0x06)\n      dup2\n      jump\t// out\n        /* \"contract/Lottery.sol\":11606:11740  function getParticipantStatus(address user) public view returns (bool) {... */\n    tag_44:\n        /* \"contract/Lottery.sol\":11671:11675  bool */\n      0x00\n        /* \"contract/Lottery.sol\":11695:11716  participantsToTickets */\n      0x00\n        /* \"contract/Lottery.sol\":11695:11722  participantsToTickets[user] */\n      0x00\n        /* \"contract/Lottery.sol\":11717:11721  user */\n      dup4\n        /* \"contract/Lottery.sol\":11695:11722  participantsToTickets[user] */\n      0xffffffffffffffffffffffffffffffffffffffff\n      and\n      0xffffffffffffffffffffffffffffffffffffffff\n      and\n      dup2\n      mstore\n      0x20\n      add\n      swap1\n      dup2\n      mstore\n      0x20\n      add\n      0x00\n      keccak256\n        /* \"contract/Lottery.sol\":11695:11732  participantsToTickets[user].hasJoined */\n      0x01\n      add\n      0x00\n      swap1\n      sload\n      swap1\n      0x0100\n      exp\n      swap1\n      div\n      0xff\n      and\n        /* \"contract/Lottery.sol\":11688:11732  return participantsToTickets[user].hasJoined */\n      swap1\n      pop\n        /* \"contract/Lottery.sol\":11606:11740  function getParticipantStatus(address user) public view returns (bool) {... */\n      swap2\n      swap1\n      pop\n      jump\t// out\n        /* \"contract/Lottery.sol\":2093:2124  uint256 public lastDrawTime = 0 */\n    tag_48:\n      sload(0x0a)\n      dup2\n      jump\t// out\n        /* \"contract/Lottery.sol\":4837:5104  function setMaxTicketsPerDraw(uint16 _maxTickets) external onlyHost {... */\n    tag_54:\n        /* \"contract/Lottery.sol\":3820:3824  host */\n      0x03\n      0x00\n      swap1\n      sload\n      swap1\n      0x0100\n      exp\n      swap1\n      div\n      0xffffffffffffffffffffffffffffffffffffffff\n      and\n        /* \"contract/Lottery.sol\":3806:3824  msg.sender == host */\n      0xffffffffffffffffffffffffffffffffffffffff\n      and\n        /* \"contract/Lottery.sol\":3806:3816  msg.sender */\n      caller\n        /* \"contract/Lottery.sol\":3806:3824  msg.sender == host */\n      0xffffffffffffffffffffffffffffffffffffffff\n      and\n      eq\n        /* \"contract/Lottery.sol\":3798:3850  require(msg.sender == host, \"You are not the host.\") */\n      tag_143\n      jumpi\n      mload(0x40)\n      0x08c379a000000000000000000000000000000000000000000000000000000000\n      dup2\n      mstore\n      0x04\n      add\n      tag_144\n      swap1\n      tag_145\n      jump\t// in\n    tag_144:\n      mload(0x40)\n      dup1\n      swap2\n      sub\n      swap1\n      revert\n    tag_143:\n        /* \"contract/Lottery.sol\":4939:4953  minTicketsSold */\n      0x0d\n      0x02\n      swap1\n      sload\n      swap1\n      0x0100\n      exp\n      swap1\n      div\n      0xffff\n      and\n        /* \"contract/Lottery.sol\":4924:4953  _maxTickets >= minTicketsSold */\n      0xffff\n      and\n        /* \"contract/Lottery.sol\":4924:4935  _maxTickets */\n      dup2\n        /* \"contract/Lottery.sol\":4924:4953  _maxTickets >= minTicketsSold */\n      0xffff\n      and\n      lt\n      iszero\n        /* \"contract/Lottery.sol\":4916:4984  require(_maxTickets >= minTicketsSold, \"Max must be >= min tickets\") */\n      tag_147\n      jumpi\n      mload(0x40)\n      0x08c379a000000000000000000000000000000000000000000000000000000000\n      dup2\n      mstore\n      0x04\n      add\n      tag_148\n      swap1\n      tag_149\n      jump\t// in\n    tag_148:\n      mload(0x40)\n      dup1\n      swap2\n      sub\n      swap1\n      revert\n    tag_147:\n        /* \"contract/Lottery.sol\":5018:5023  10000 */\n      0x2710\n        /* \"contract/Lottery.sol\":5003:5014  _maxTickets */\n      dup2\n        /* \"contract/Lottery.sol\":5003:5023  _maxTickets <= 10000 */\n      0xffff\n      and\n      gt\n      iszero\n        /* \"contract/Lottery.sol\":4995:5054  require(_maxTickets <= 10000, \"Too high - unrealistic cap\") */\n      tag_150\n      jumpi\n      mload(0x40)\n      0x08c379a000000000000000000000000000000000000000000000000000000000\n      dup2\n      mstore\n      0x04\n      add\n      tag_151\n      swap1\n      tag_152\n      jump\t// in\n    tag_151:\n      mload(0x40)\n      dup1\n      swap2\n      sub\n      swap1\n      revert\n    tag_150:\n        /* \"contract/Lottery.sol\":5085:5096  _maxTickets */\n      dup1\n        /* \"contract/Lottery.sol\":5065:5082  maxTicketsPerDraw */\n      0x0d\n      0x04\n        /* \"contract/Lottery.sol\":5065:5096  maxTicketsPerDraw = _maxTickets */\n      0x0100\n      exp\n      dup2\n      sload\n      dup2\n      0xffff\n      mul\n      not\n      and\n      swap1\n      dup4\n      0xffff\n      and\n      mul\n      or\n      swap1\n      sstore\n      pop\n        /* \"contract/Lottery.sol\":4837:5104  function setMaxTicketsPerDraw(uint16 _maxTickets) external onlyHost {... */\n      pop\n      jump\t// out\n        /* \"contract/Lottery.sol\":10667:11089  function claimPrize() external {... */\n    tag_57:\n        /* \"contract/Lottery.sol\":10709:10723  uint256 amount */\n      0x00\n        /* \"contract/Lottery.sol\":10726:10743  claimableWinnings */\n      0x0b\n        /* \"contract/Lottery.sol\":10726:10755  claimableWinnings[msg.sender] */\n      0x00\n        /* \"contract/Lottery.sol\":10744:10754  msg.sender */\n      caller\n        /* \"contract/Lottery.sol\":10726:10755  claimableWinnings[msg.sender] */\n      0xffffffffffffffffffffffffffffffffffffffff\n      and\n      0xffffffffffffffffffffffffffffffffffffffff\n      and\n      dup2\n      mstore\n      0x20\n      add\n      swap1\n      dup2\n      mstore\n      0x20\n      add\n      0x00\n      keccak256\n      sload\n        /* \"contract/Lottery.sol\":10709:10755  uint256 amount = claimableWinnings[msg.sender] */\n      swap1\n      pop\n        /* \"contract/Lottery.sol\":10783:10784  0 */\n      0x00\n        /* \"contract/Lottery.sol\":10774:10780  amount */\n      dup2\n        /* \"contract/Lottery.sol\":10774:10784  amount > 0 */\n      gt\n        /* \"contract/Lottery.sol\":10766:10809  require(amount > 0, \"No winnings to claim\") */\n      tag_154\n      jumpi\n      mload(0x40)\n      0x08c379a000000000000000000000000000000000000000000000000000000000\n      dup2\n      mstore\n      0x04\n      add\n      tag_155\n      swap1\n      tag_156\n      jump\t// in\n    tag_155:\n      mload(0x40)\n      dup1\n      swap2\n      sub\n      swap1\n      revert\n    tag_154:\n        /* \"contract/Lottery.sol\":10903:10904  0 */\n      0x00\n        /* \"contract/Lottery.sol\":10871:10888  claimableWinnings */\n      0x0b\n        /* \"contract/Lottery.sol\":10871:10900  claimableWinnings[msg.sender] */\n      0x00\n        /* \"contract/Lottery.sol\":10889:10899  msg.sender */\n      caller\n        /* \"contract/Lottery.sol\":10871:10900  claimableWinnings[msg.sender] */\n      0xffffffffffffffffffffffffffffffffffffffff\n      and\n      0xffffffffffffffffffffffffffffffffffffffff\n      and\n      dup2\n      mstore\n      0x20\n      add\n      swap1\n      dup2\n      mstore\n      0x20\n      add\n      0x00\n      keccak256\n        /* \"contract/Lottery.sol\":10871:10904  claimableWinnings[msg.sender] = 0 */\n      dup2\n      swap1\n      sstore\n      pop\n        /* \"contract/Lottery.sol\":10918:10930  bool success */\n      0x00\n        /* \"contract/Lottery.sol\":10944:10954  msg.sender */\n      caller\n        /* \"contract/Lottery.sol\":10936:10960  payable(msg.sender).call */\n      0xffffffffffffffffffffffffffffffffffffffff\n      and\n        /* \"contract/Lottery.sol\":10968:10974  amount */\n      dup3\n        /* \"contract/Lottery.sol\":10936:10979  payable(msg.sender).call{value: amount}(\"\") */\n      mload(0x40)\n      tag_157\n      swap1\n      tag_158\n      jump\t// in\n    tag_157:\n      0x00\n      mload(0x40)\n      dup1\n      dup4\n      sub\n      dup2\n      dup6\n      dup8\n      gas\n      call\n      swap3\n      pop\n      pop\n      pop\n      returndatasize\n      dup1\n      0x00\n      dup2\n      eq\n      tag_161\n      jumpi\n      mload(0x40)\n      swap2\n      pop\n      and(add(returndatasize, 0x3f), not(0x1f))\n      dup3\n      add\n      0x40\n      mstore\n      returndatasize\n      dup3\n      mstore\n      returndatasize\n      0x00\n      0x20\n      dup5\n      add\n      returndatacopy\n      jump(tag_160)\n    tag_161:\n      0x60\n      swap2\n      pop\n    tag_160:\n      pop\n        /* \"contract/Lottery.sol\":10917:10979  (bool success, ) = payable(msg.sender).call{value: amount}(\"\") */\n      pop\n      swap1\n      pop\n        /* \"contract/Lottery.sol\":10998:11005  success */\n      dup1\n        /* \"contract/Lottery.sol\":10990:11031  require(success, \"Prize transfer failed\") */\n      tag_162\n      jumpi\n      mload(0x40)\n      0x08c379a000000000000000000000000000000000000000000000000000000000\n      dup2\n      mstore\n      0x04\n      add\n      tag_163\n      swap1\n      tag_164\n      jump\t// in\n    tag_163:\n      mload(0x40)\n      dup1\n      swap2\n      sub\n      swap1\n      revert\n    tag_162:\n        /* \"contract/Lottery.sol\":11049:11081  PrizeClaimed(msg.sender, amount) */\n      0x95681e512bc0fe659e195e06c283eada494316f3d801213e48e7101af92bf770\n        /* \"contract/Lottery.sol\":11062:11072  msg.sender */\n      caller\n        /* \"contract/Lottery.sol\":11074:11080  amount */\n      dup4\n        /* \"contract/Lottery.sol\":11049:11081  PrizeClaimed(msg.sender, amount) */\n      mload(0x40)\n      tag_165\n      swap3\n      swap2\n      swap1\n      tag_166\n      jump\t// in\n    tag_165:\n      mload(0x40)\n      dup1\n      swap2\n      sub\n      swap1\n      log1\n        /* \"contract/Lottery.sol\":10698:11089  {... */\n      pop\n      pop\n        /* \"contract/Lottery.sol\":10667:11089  function claimPrize() external {... */\n      jump\t// out\n        /* \"contract/Lottery.sol\":1582:1610  uint256 public prizePool = 0 */\n    tag_60:\n      sload(0x04)\n      dup2\n      jump\t// out\n        /* \"contract/Lottery.sol\":4512:4829  function setMinTicketsSold(uint16 _minTickets) external onlyHost {... */\n    tag_65:\n        /* \"contract/Lottery.sol\":3820:3824  host */\n      0x03\n      0x00\n      swap1\n      sload\n      swap1\n      0x0100\n      exp\n      swap1\n      div\n      0xffffffffffffffffffffffffffffffffffffffff\n      and\n        /* \"contract/Lottery.sol\":3806:3824  msg.sender == host */\n      0xffffffffffffffffffffffffffffffffffffffff\n      and\n        /* \"contract/Lottery.sol\":3806:3816  msg.sender */\n      caller\n        /* \"contract/Lottery.sol\":3806:3824  msg.sender == host */\n      0xffffffffffffffffffffffffffffffffffffffff\n      and\n      eq\n        /* \"contract/Lottery.sol\":3798:3850  require(msg.sender == host, \"You are not the host.\") */\n      tag_168\n      jumpi\n      mload(0x40)\n      0x08c379a000000000000000000000000000000000000000000000000000000000\n      dup2\n      mstore\n      0x04\n      add\n      tag_169\n      swap1\n      tag_145\n      jump\t// in\n    tag_169:\n      mload(0x40)\n      dup1\n      swap2\n      sub\n      swap1\n      revert\n    tag_168:\n        /* \"contract/Lottery.sol\":4625:4640  minParticipants */\n      0x0d\n      0x00\n      swap1\n      sload\n      swap1\n      0x0100\n      exp\n      swap1\n      div\n      0xffff\n      and\n        /* \"contract/Lottery.sol\":4610:4640  _minTickets >= minParticipants */\n      0xffff\n      and\n        /* \"contract/Lottery.sol\":4610:4621  _minTickets */\n      dup2\n        /* \"contract/Lottery.sol\":4610:4640  _minTickets >= minParticipants */\n      0xffff\n      and\n      lt\n      iszero\n        /* \"contract/Lottery.sol\":4588:4709  require(... */\n      tag_171\n      jumpi\n      mload(0x40)\n      0x08c379a000000000000000000000000000000000000000000000000000000000\n      dup2\n      mstore\n      0x04\n      add\n      tag_172\n      swap1\n      tag_173\n      jump\t// in\n    tag_172:\n      mload(0x40)\n      dup1\n      swap2\n      sub\n      swap1\n      revert\n    tag_171:\n        /* \"contract/Lottery.sol\":4743:4747  1000 */\n      0x03e8\n        /* \"contract/Lottery.sol\":4728:4739  _minTickets */\n      dup2\n        /* \"contract/Lottery.sol\":4728:4747  _minTickets <= 1000 */\n      0xffff\n      and\n      gt\n      iszero\n        /* \"contract/Lottery.sol\":4720:4782  require(_minTickets <= 1000, \"Too high - would never trigger\") */\n      tag_174\n      jumpi\n      mload(0x40)\n      0x08c379a000000000000000000000000000000000000000000000000000000000\n      dup2\n      mstore\n      0x04\n      add\n      tag_175\n      swap1\n      tag_176\n      jump\t// in\n    tag_175:\n      mload(0x40)\n      dup1\n      swap2\n      sub\n      swap1\n      revert\n    tag_174:\n        /* \"contract/Lottery.sol\":4810:4821  _minTickets */\n      dup1\n        /* \"contract/Lottery.sol\":4793:4807  minTicketsSold */\n      0x0d\n      0x02\n        /* \"contract/Lottery.sol\":4793:4821  minTicketsSold = _minTickets */\n      0x0100\n      exp\n      dup2\n      sload\n      dup2\n      0xffff\n      mul\n      not\n      and\n      swap1\n      dup4\n      0xffff\n      and\n      mul\n      or\n      swap1\n      sstore\n      pop\n        /* \"contract/Lottery.sol\":4512:4829  function setMinTicketsSold(uint16 _minTickets) external onlyHost {... */\n      pop\n      jump\t// out\n        /* \"contract/Lottery.sol\":2180:2232  mapping(address => uint256) public claimableWinnings */\n    tag_69:\n      mstore(0x20, 0x0b)\n      dup1\n      0x00\n      mstore\n      keccak256(0x00, 0x40)\n      0x00\n      swap2\n      pop\n      swap1\n      pop\n      sload\n      dup2\n      jump\t// out\n        /* \"contract/Lottery.sol\":1949:1982  bool public drawInitiated = false */\n    tag_73:\n      0x09\n      0x00\n      swap1\n      sload\n      swap1\n      0x0100\n      exp\n      swap1\n      div\n      0xff\n      and\n      dup2\n      jump\t// out\n        /* \"contract/Lottery.sol\":8008:10589  function findWinner() external {... */\n    tag_77:\n        /* \"contract/Lottery.sol\":8109:8122  drawInitiated */\n      0x09\n      0x00\n      swap1\n      sload\n      swap1\n      0x0100\n      exp\n      swap1\n      div\n      0xff\n      and\n        /* \"contract/Lottery.sol\":8101:8146  require(drawInitiated, \"Draw not initiated.\") */\n      tag_178\n      jumpi\n      mload(0x40)\n      0x08c379a000000000000000000000000000000000000000000000000000000000\n      dup2\n      mstore\n      0x04\n      add\n      tag_179\n      swap1\n      tag_180\n      jump\t// in\n    tag_179:\n      mload(0x40)\n      dup1\n      swap2\n      sub\n      swap1\n      revert\n    tag_178:\n        /* \"contract/Lottery.sol\":8248:8263  drawBlockNumber */\n      sload(0x08)\n        /* \"contract/Lottery.sol\":8232:8244  block.number */\n      number\n        /* \"contract/Lottery.sol\":8232:8263  block.number >= drawBlockNumber */\n      lt\n      iszero\n        /* \"contract/Lottery.sol\":8210:8323  require(... */\n      tag_181\n      jumpi\n      mload(0x40)\n      0x08c379a000000000000000000000000000000000000000000000000000000000\n      dup2\n      mstore\n      0x04\n      add\n      tag_182\n      swap1\n      tag_183\n      jump\t// in\n    tag_182:\n      mload(0x40)\n      dup1\n      swap2\n      sub\n      swap1\n      revert\n    tag_181:\n        /* \"contract/Lottery.sol\":8373:8378  ended */\n      0x09\n      0x01\n      swap1\n      sload\n      swap1\n      0x0100\n      exp\n      swap1\n      div\n      0xff\n      and\n        /* \"contract/Lottery.sol\":8372:8378  !ended */\n      iszero\n        /* \"contract/Lottery.sol\":8364:8405  require(!ended, \"Lottery already ended.\") */\n      tag_184\n      jumpi\n      mload(0x40)\n      0x08c379a000000000000000000000000000000000000000000000000000000000\n      dup2\n      mstore\n      0x04\n      add\n      tag_185\n      swap1\n      tag_186\n      jump\t// in\n    tag_185:\n      mload(0x40)\n      dup1\n      swap2\n      sub\n      swap1\n      revert\n    tag_184:\n        /* \"contract/Lottery.sol\":8481:8504  bytes32 futureBlockHash */\n      0x00\n        /* \"contract/Lottery.sol\":8517:8532  drawBlockNumber */\n      sload(0x08)\n        /* \"contract/Lottery.sol\":8507:8533  blockhash(drawBlockNumber) */\n      blockhash\n        /* \"contract/Lottery.sol\":8481:8533  bytes32 futureBlockHash = blockhash(drawBlockNumber) */\n      swap1\n      pop\n        /* \"contract/Lottery.sol\":8679:8680  0 */\n      0x00\n        /* \"contract/Lottery.sol\":8671:8681  bytes32(0) */\n      0x00\n      shl\n        /* \"contract/Lottery.sol\":8652:8667  futureBlockHash */\n      dup2\n        /* \"contract/Lottery.sol\":8652:8681  futureBlockHash != bytes32(0) */\n      sub\n        /* \"contract/Lottery.sol\":8630:8743  require(... */\n      tag_187\n      jumpi\n      mload(0x40)\n      0x08c379a000000000000000000000000000000000000000000000000000000000\n      dup2\n      mstore\n      0x04\n      add\n      tag_188\n      swap1\n      tag_189\n      jump\t// in\n    tag_188:\n      mload(0x40)\n      dup1\n      swap2\n      sub\n      swap1\n      revert\n    tag_187:\n        /* \"contract/Lottery.sol\":8825:8843  uint256 randomSeed */\n      0x00\n        /* \"contract/Lottery.sol\":8895:8910  futureBlockHash */\n      dup2\n        /* \"contract/Lottery.sol\":8920:8924  this */\n      address\n        /* \"contract/Lottery.sol\":8878:8926  abi.encodePacked(futureBlockHash, address(this)) */\n      add(0x20, mload(0x40))\n      tag_190\n      swap3\n      swap2\n      swap1\n      tag_191\n      jump\t// in\n    tag_190:\n      mload(0x40)\n      0x20\n      dup2\n      dup4\n      sub\n      sub\n      dup2\n      mstore\n      swap1\n      0x40\n      mstore\n        /* \"contract/Lottery.sol\":8868:8927  keccak256(abi.encodePacked(futureBlockHash, address(this))) */\n      dup1\n      mload\n      swap1\n      0x20\n      add\n      keccak256\n        /* \"contract/Lottery.sol\":8846:8938  uint256(... */\n      0x00\n      shr\n        /* \"contract/Lottery.sol\":8825:8938  uint256 randomSeed = uint256(... */\n      swap1\n      pop\n        /* \"contract/Lottery.sol\":8951:8981  uint8[5] memory winningNumbers */\n      tag_192\n      tag_193\n      jump\t// in\n    tag_192:\n        /* \"contract/Lottery.sol\":8997:9006  uint256 i */\n      0x00\n        /* \"contract/Lottery.sol\":9009:9010  0 */\n      0x00\n        /* \"contract/Lottery.sol\":8997:9010  uint256 i = 0 */\n      swap1\n      pop\n        /* \"contract/Lottery.sol\":8992:9172  for (uint256 i = 0; i < 5; i++) {... */\n    tag_194:\n        /* \"contract/Lottery.sol\":9016:9017  5 */\n      0x05\n        /* \"contract/Lottery.sol\":9012:9013  i */\n      dup2\n        /* \"contract/Lottery.sol\":9012:9017  i < 5 */\n      lt\n        /* \"contract/Lottery.sol\":8992:9172  for (uint256 i = 0; i < 5; i++) {... */\n      iszero\n      tag_195\n      jumpi\n        /* \"contract/Lottery.sol\":9144:9145  1 */\n      0x01\n        /* \"contract/Lottery.sol\":9138:9140  99 */\n      0x63\n        /* \"contract/Lottery.sol\":9119:9129  randomSeed */\n      dup5\n        /* \"contract/Lottery.sol\":9131:9132  i */\n      dup4\n        /* \"contract/Lottery.sol\":9102:9133  abi.encodePacked(randomSeed, i) */\n      add(0x20, mload(0x40))\n      tag_197\n      swap3\n      swap2\n      swap1\n      tag_198\n      jump\t// in\n    tag_197:\n      mload(0x40)\n      0x20\n      dup2\n      dup4\n      sub\n      sub\n      dup2\n      mstore\n      swap1\n      0x40\n      mstore\n        /* \"contract/Lottery.sol\":9092:9134  keccak256(abi.encodePacked(randomSeed, i)) */\n      dup1\n      mload\n      swap1\n      0x20\n      add\n      keccak256\n        /* \"contract/Lottery.sol\":9084:9135  uint256(keccak256(abi.encodePacked(randomSeed, i))) */\n      0x00\n      shr\n        /* \"contract/Lottery.sol\":9084:9140  uint256(keccak256(abi.encodePacked(randomSeed, i))) % 99 */\n      tag_199\n      swap2\n      swap1\n      tag_200\n      jump\t// in\n    tag_199:\n        /* \"contract/Lottery.sol\":9083:9145  (uint256(keccak256(abi.encodePacked(randomSeed, i))) % 99) + 1 */\n      tag_201\n      swap2\n      swap1\n      tag_135\n      jump\t// in\n    tag_201:\n        /* \"contract/Lottery.sol\":9039:9053  winningNumbers */\n      dup3\n        /* \"contract/Lottery.sol\":9054:9055  i */\n      dup3\n        /* \"contract/Lottery.sol\":9039:9056  winningNumbers[i] */\n      0x05\n      dup2\n      lt\n      tag_202\n      jumpi\n      tag_203\n      tag_204\n      jump\t// in\n    tag_203:\n    tag_202:\n      0x20\n      mul\n      add\n        /* \"contract/Lottery.sol\":9039:9160  winningNumbers[i] = uint8(... */\n      swap1\n      0xff\n      and\n      swap1\n      dup2\n      0xff\n      and\n      dup2\n      mstore\n      pop\n      pop\n        /* \"contract/Lottery.sol\":9019:9022  i++ */\n      dup1\n      dup1\n      0x01\n      add\n      swap2\n      pop\n      pop\n        /* \"contract/Lottery.sol\":8992:9172  for (uint256 i = 0; i < 5; i++) {... */\n      jump(tag_194)\n    tag_195:\n      pop\n        /* \"contract/Lottery.sol\":9212:9230  uint256 numPlayers */\n      0x00\n        /* \"contract/Lottery.sol\":9233:9253  participantAddresses */\n      0x02\n        /* \"contract/Lottery.sol\":9233:9260  participantAddresses.length */\n      dup1\n      sload\n      swap1\n      pop\n        /* \"contract/Lottery.sol\":9212:9260  uint256 numPlayers = participantAddresses.length */\n      swap1\n      pop\n        /* \"contract/Lottery.sol\":9271:9294  Player[] memory players */\n      0x00\n        /* \"contract/Lottery.sol\":9310:9320  numPlayers */\n      dup2\n        /* \"contract/Lottery.sol\":9297:9321  new Player[](numPlayers) */\n      0xffffffffffffffff\n      dup2\n      gt\n      iszero\n      tag_205\n      jumpi\n      tag_206\n      tag_207\n      jump\t// in\n    tag_206:\n    tag_205:\n      mload(0x40)\n      swap1\n      dup1\n      dup3\n      mstore\n      dup1\n      0x20\n      mul\n      0x20\n      add\n      dup3\n      add\n      0x40\n      mstore\n      dup1\n      iszero\n      tag_208\n      jumpi\n      dup2\n      0x20\n      add\n    tag_209:\n      tag_210\n      tag_211\n      jump\t// in\n    tag_210:\n      dup2\n      mstore\n      0x20\n      add\n      swap1\n      0x01\n      swap1\n      sub\n      swap1\n      dup2\n      tag_209\n      jumpi\n      swap1\n      pop\n    tag_208:\n      pop\n        /* \"contract/Lottery.sol\":9271:9321  Player[] memory players = new Player[](numPlayers) */\n      swap1\n      pop\n        /* \"contract/Lottery.sol\":9337:9346  uint256 i */\n      0x00\n        /* \"contract/Lottery.sol\":9349:9350  0 */\n      0x00\n        /* \"contract/Lottery.sol\":9337:9350  uint256 i = 0 */\n      swap1\n      pop\n        /* \"contract/Lottery.sol\":9332:9459  for (uint256 i = 0; i < numPlayers; i++) {... */\n    tag_212:\n        /* \"contract/Lottery.sol\":9356:9366  numPlayers */\n      dup3\n        /* \"contract/Lottery.sol\":9352:9353  i */\n      dup2\n        /* \"contract/Lottery.sol\":9352:9366  i < numPlayers */\n      lt\n        /* \"contract/Lottery.sol\":9332:9459  for (uint256 i = 0; i < numPlayers; i++) {... */\n      iszero\n      tag_213\n      jumpi\n        /* \"contract/Lottery.sol\":9401:9422  participantsToTickets */\n      0x00\n        /* \"contract/Lottery.sol\":9401:9447  participantsToTickets[participantAddresses[i]] */\n      0x00\n        /* \"contract/Lottery.sol\":9423:9443  participantAddresses */\n      0x02\n        /* \"contract/Lottery.sol\":9444:9445  i */\n      dup4\n        /* \"contract/Lottery.sol\":9423:9446  participantAddresses[i] */\n      dup2\n      sload\n      dup2\n      lt\n      tag_215\n      jumpi\n      tag_216\n      tag_204\n      jump\t// in\n    tag_216:\n    tag_215:\n      swap1\n      0x00\n      mstore\n      keccak256(0x00, 0x20)\n      add\n      0x00\n      swap1\n      sload\n      swap1\n      0x0100\n      exp\n      swap1\n      div\n      0xffffffffffffffffffffffffffffffffffffffff\n      and\n        /* \"contract/Lottery.sol\":9401:9447  participantsToTickets[participantAddresses[i]] */\n      0xffffffffffffffffffffffffffffffffffffffff\n      and\n      0xffffffffffffffffffffffffffffffffffffffff\n      and\n      dup2\n      mstore\n      0x20\n      add\n      swap1\n      dup2\n      mstore\n      0x20\n      add\n      0x00\n      keccak256\n        /* \"contract/Lottery.sol\":9388:9447  players[i] = participantsToTickets[participantAddresses[i]] */\n      mload(0x40)\n      dup1\n      0x60\n      add\n      0x40\n      mstore\n      swap1\n      dup2\n      0x00\n      dup3\n      add\n      dup1\n      sload\n      dup1\n      0x20\n      mul\n      0x20\n      add\n      mload(0x40)\n      swap1\n      dup2\n      add\n      0x40\n      mstore\n      dup1\n      swap3\n      swap2\n      swap1\n      dup2\n      dup2\n      mstore\n      0x20\n      add\n      0x00\n      swap1\n    tag_218:\n      dup3\n      dup3\n      lt\n      iszero\n      tag_219\n      jumpi\n      dup4\n      dup3\n      swap1\n      0x00\n      mstore\n      keccak256(0x00, 0x20)\n      add\n      0x05\n      dup1\n      0x20\n      mul\n      mload(0x40)\n      swap1\n      dup2\n      add\n      0x40\n      mstore\n      dup1\n      swap3\n      swap2\n      swap1\n      dup3\n      0x05\n      dup1\n      iszero\n      tag_221\n      jumpi\n      0x20\n      mul\n      dup3\n      add\n      swap2\n      0x00\n      swap1\n    tag_222:\n      dup3\n      dup3\n      swap1\n      sload\n      swap1\n      0x0100\n      exp\n      swap1\n      div\n      0xff\n      and\n      0xff\n      and\n      dup2\n      mstore\n      0x20\n      add\n      swap1\n      0x01\n      add\n      swap1\n      0x20\n      dup3\n      0x00\n      add\n      div\n      swap3\n      dup4\n      add\n      swap3\n      0x01\n      sub\n      dup3\n      mul\n      swap2\n      pop\n      dup1\n      dup5\n      gt\n      tag_222\n      jumpi\n      swap1\n      pop\n    tag_221:\n      pop\n      pop\n      pop\n      pop\n      pop\n      dup2\n      mstore\n      0x20\n      add\n      swap1\n      0x01\n      add\n      swap1\n      jump(tag_218)\n    tag_219:\n      pop\n      pop\n      pop\n      pop\n      dup2\n      mstore\n      0x20\n      add\n      0x01\n      dup3\n      add\n      0x00\n      swap1\n      sload\n      swap1\n      0x0100\n      exp\n      swap1\n      div\n      0xff\n      and\n      iszero\n      iszero\n      iszero\n      iszero\n      dup2\n      mstore\n      0x20\n      add\n      0x01\n      dup3\n      add\n      0x01\n      swap1\n      sload\n      swap1\n      0x0100\n      exp\n      swap1\n      div\n      0xffff\n      and\n      0xffff\n      and\n      0xffff\n      and\n      dup2\n      mstore\n      pop\n      pop\n        /* \"contract/Lottery.sol\":9388:9395  players */\n      dup3\n        /* \"contract/Lottery.sol\":9396:9397  i */\n      dup3\n        /* \"contract/Lottery.sol\":9388:9398  players[i] */\n      dup2\n      mload\n      dup2\n      lt\n      tag_223\n      jumpi\n      tag_224\n      tag_204\n      jump\t// in\n    tag_224:\n    tag_223:\n      0x20\n      mul\n      0x20\n      add\n      add\n        /* \"contract/Lottery.sol\":9388:9447  players[i] = participantsToTickets[participantAddresses[i]] */\n      dup2\n      swap1\n      mstore\n      pop\n        /* \"contract/Lottery.sol\":9368:9371  i++ */\n      dup1\n      dup1\n      0x01\n      add\n      swap2\n      pop\n      pop\n        /* \"contract/Lottery.sol\":9332:9459  for (uint256 i = 0; i < numPlayers; i++) {... */\n      jump(tag_212)\n    tag_213:\n      pop\n        /* \"contract/Lottery.sol\":9521:9545  address[] memory winners */\n      0x00\n        /* \"contract/Lottery.sol\":9547:9570  uint256 amountPerWinner */\n      0x00\n        /* \"contract/Lottery.sol\":9574:9710  determinePrizes(... */\n      tag_225\n        /* \"contract/Lottery.sol\":9604:9613  prizePool */\n      sload(0x04)\n        /* \"contract/Lottery.sol\":9628:9642  winningNumbers */\n      dup7\n        /* \"contract/Lottery.sol\":9657:9677  participantAddresses */\n      0x02\n        /* \"contract/Lottery.sol\":9574:9710  determinePrizes(... */\n      dup1\n      sload\n      dup1\n      0x20\n      mul\n      0x20\n      add\n      mload(0x40)\n      swap1\n      dup2\n      add\n      0x40\n      mstore\n      dup1\n      swap3\n      swap2\n      swap1\n      dup2\n      dup2\n      mstore\n      0x20\n      add\n      dup3\n      dup1\n      sload\n      dup1\n      iszero\n      tag_226\n      jumpi\n      0x20\n      mul\n      dup3\n      add\n      swap2\n      swap1\n      0x00\n      mstore\n      keccak256(0x00, 0x20)\n      swap1\n    tag_227:\n      dup2\n      0x00\n      swap1\n      sload\n      swap1\n      0x0100\n      exp\n      swap1\n      div\n      0xffffffffffffffffffffffffffffffffffffffff\n      and\n      0xffffffffffffffffffffffffffffffffffffffff\n      and\n      dup2\n      mstore\n      0x20\n      add\n      swap1\n      0x01\n      add\n      swap1\n      dup1\n      dup4\n      gt\n      tag_227\n      jumpi\n    tag_226:\n      pop\n      pop\n      pop\n      pop\n      pop\n        /* \"contract/Lottery.sol\":9692:9699  players */\n      dup7\n        /* \"contract/Lottery.sol\":9574:9589  determinePrizes */\n      tag_228\n        /* \"contract/Lottery.sol\":9574:9710  determinePrizes(... */\n      jump\t// in\n    tag_225:\n        /* \"contract/Lottery.sol\":9520:9710  (address[] memory winners, uint256 amountPerWinner) = determinePrizes(... */\n      swap2\n      pop\n      swap2\n      pop\n        /* \"contract/Lottery.sol\":9796:9800  true */\n      0x01\n        /* \"contract/Lottery.sol\":9788:9793  ended */\n      0x09\n      0x01\n        /* \"contract/Lottery.sol\":9788:9800  ended = true */\n      0x0100\n      exp\n      dup2\n      sload\n      dup2\n      0xff\n      mul\n      not\n      and\n      swap1\n      dup4\n      iszero\n      iszero\n      mul\n      or\n      swap1\n      sstore\n      pop\n        /* \"contract/Lottery.sol\":9916:9917  0 */\n      0x00\n        /* \"contract/Lottery.sol\":9899:9906  winners */\n      dup3\n        /* \"contract/Lottery.sol\":9899:9913  winners.length */\n      mload\n        /* \"contract/Lottery.sol\":9899:9917  winners.length > 0 */\n      gt\n        /* \"contract/Lottery.sol\":9895:10147  if (winners.length > 0) {... */\n      iszero\n      tag_229\n      jumpi\n        /* \"contract/Lottery.sol\":9939:9948  uint256 i */\n      0x00\n        /* \"contract/Lottery.sol\":9951:9952  0 */\n      0x00\n        /* \"contract/Lottery.sol\":9939:9952  uint256 i = 0 */\n      swap1\n      pop\n        /* \"contract/Lottery.sol\":9934:10136  for (uint256 i = 0; i < winners.length; i++) {... */\n    tag_230:\n        /* \"contract/Lottery.sol\":9958:9965  winners */\n      dup3\n        /* \"contract/Lottery.sol\":9958:9972  winners.length */\n      mload\n        /* \"contract/Lottery.sol\":9954:9955  i */\n      dup2\n        /* \"contract/Lottery.sol\":9954:9972  i < winners.length */\n      lt\n        /* \"contract/Lottery.sol\":9934:10136  for (uint256 i = 0; i < winners.length; i++) {... */\n      iszero\n      tag_231\n      jumpi\n        /* \"contract/Lottery.sol\":10031:10046  amountPerWinner */\n      dup2\n        /* \"contract/Lottery.sol\":9998:10015  claimableWinnings */\n      0x0b\n        /* \"contract/Lottery.sol\":9998:10027  claimableWinnings[winners[i]] */\n      0x00\n        /* \"contract/Lottery.sol\":10016:10023  winners */\n      dup6\n        /* \"contract/Lottery.sol\":10024:10025  i */\n      dup5\n        /* \"contract/Lottery.sol\":10016:10026  winners[i] */\n      dup2\n      mload\n      dup2\n      lt\n      tag_233\n      jumpi\n      tag_234\n      tag_204\n      jump\t// in\n    tag_234:\n    tag_233:\n      0x20\n      mul\n      0x20\n      add\n      add\n      mload\n        /* \"contract/Lottery.sol\":9998:10027  claimableWinnings[winners[i]] */\n      0xffffffffffffffffffffffffffffffffffffffff\n      and\n      0xffffffffffffffffffffffffffffffffffffffff\n      and\n      dup2\n      mstore\n      0x20\n      add\n      swap1\n      dup2\n      mstore\n      0x20\n      add\n      0x00\n      keccak256\n      0x00\n        /* \"contract/Lottery.sol\":9998:10046  claimableWinnings[winners[i]] += amountPerWinner */\n      dup3\n      dup3\n      sload\n      tag_235\n      swap2\n      swap1\n      tag_135\n      jump\t// in\n    tag_235:\n      swap3\n      pop\n      pop\n      dup2\n      swap1\n      sstore\n      pop\n        /* \"contract/Lottery.sol\":10070:10120  LotteryWinner(winners[i], uint64(amountPerWinner)) */\n      0xfd0eb416c92ec1c8c027692d237438d75f420a7fd1694d965c9695cd767ef4b1\n        /* \"contract/Lottery.sol\":10084:10091  winners */\n      dup4\n        /* \"contract/Lottery.sol\":10092:10093  i */\n      dup3\n        /* \"contract/Lottery.sol\":10084:10094  winners[i] */\n      dup2\n      mload\n      dup2\n      lt\n      tag_236\n      jumpi\n      tag_237\n      tag_204\n      jump\t// in\n    tag_237:\n    tag_236:\n      0x20\n      mul\n      0x20\n      add\n      add\n      mload\n        /* \"contract/Lottery.sol\":10103:10118  amountPerWinner */\n      dup4\n        /* \"contract/Lottery.sol\":10070:10120  LotteryWinner(winners[i], uint64(amountPerWinner)) */\n      mload(0x40)\n      tag_238\n      swap3\n      swap2\n      swap1\n      tag_239\n      jump\t// in\n    tag_238:\n      mload(0x40)\n      dup1\n      swap2\n      sub\n      swap1\n      log1\n        /* \"contract/Lottery.sol\":9974:9977  i++ */\n      dup1\n      dup1\n      0x01\n      add\n      swap2\n      pop\n      pop\n        /* \"contract/Lottery.sol\":9934:10136  for (uint256 i = 0; i < winners.length; i++) {... */\n      jump(tag_230)\n    tag_231:\n      pop\n        /* \"contract/Lottery.sol\":9895:10147  if (winners.length > 0) {... */\n    tag_229:\n        /* \"contract/Lottery.sol\":10269:10270  0 */\n      0x00\n        /* \"contract/Lottery.sol\":10257:10266  prizePool */\n      0x04\n        /* \"contract/Lottery.sol\":10257:10270  prizePool = 0 */\n      dup2\n      swap1\n      sstore\n      pop\n        /* \"contract/Lottery.sol\":10296:10297  0 */\n      0x00\n        /* \"contract/Lottery.sol\":10281:10293  totalTickets */\n      0x01\n      0x00\n        /* \"contract/Lottery.sol\":10281:10297  totalTickets = 0 */\n      0x0100\n      exp\n      dup2\n      sload\n      dup2\n      0xffff\n      mul\n      not\n      and\n      swap1\n      dup4\n      0xffff\n      and\n      mul\n      or\n      swap1\n      sstore\n      pop\n        /* \"contract/Lottery.sol\":10324:10329  false */\n      0x00\n        /* \"contract/Lottery.sol\":10308:10321  drawInitiated */\n      0x09\n      0x00\n        /* \"contract/Lottery.sol\":10308:10329  drawInitiated = false */\n      0x0100\n      exp\n      dup2\n      sload\n      dup2\n      0xff\n      mul\n      not\n      and\n      swap1\n      dup4\n      iszero\n      iszero\n      mul\n      or\n      swap1\n      sstore\n      pop\n        /* \"contract/Lottery.sol\":10348:10353  false */\n      0x00\n        /* \"contract/Lottery.sol\":10340:10345  ended */\n      0x09\n      0x01\n        /* \"contract/Lottery.sol\":10340:10353  ended = false */\n      0x0100\n      exp\n      dup2\n      sload\n      dup2\n      0xff\n      mul\n      not\n      and\n      swap1\n      dup4\n      iszero\n      iszero\n      mul\n      or\n      swap1\n      sstore\n      pop\n        /* \"contract/Lottery.sol\":10411:10420  uint256 i */\n      0x00\n        /* \"contract/Lottery.sol\":10423:10424  0 */\n      0x00\n        /* \"contract/Lottery.sol\":10411:10424  uint256 i = 0 */\n      swap1\n      pop\n        /* \"contract/Lottery.sol\":10406:10544  for (uint256 i = 0; i < participantAddresses.length; i++) {... */\n    tag_240:\n        /* \"contract/Lottery.sol\":10430:10450  participantAddresses */\n      0x02\n        /* \"contract/Lottery.sol\":10430:10457  participantAddresses.length */\n      dup1\n      sload\n      swap1\n      pop\n        /* \"contract/Lottery.sol\":10426:10427  i */\n      dup2\n        /* \"contract/Lottery.sol\":10426:10457  i < participantAddresses.length */\n      lt\n        /* \"contract/Lottery.sol\":10406:10544  for (uint256 i = 0; i < participantAddresses.length; i++) {... */\n      iszero\n      tag_241\n      jumpi\n        /* \"contract/Lottery.sol\":10486:10507  participantsToTickets */\n      0x00\n        /* \"contract/Lottery.sol\":10486:10532  participantsToTickets[participantAddresses[i]] */\n      0x00\n        /* \"contract/Lottery.sol\":10508:10528  participantAddresses */\n      0x02\n        /* \"contract/Lottery.sol\":10529:10530  i */\n      dup4\n        /* \"contract/Lottery.sol\":10508:10531  participantAddresses[i] */\n      dup2\n      sload\n      dup2\n      lt\n      tag_243\n      jumpi\n      tag_244\n      tag_204\n      jump\t// in\n    tag_244:\n    tag_243:\n      swap1\n      0x00\n      mstore\n      keccak256(0x00, 0x20)\n      add\n      0x00\n      swap1\n      sload\n      swap1\n      0x0100\n      exp\n      swap1\n      div\n      0xffffffffffffffffffffffffffffffffffffffff\n      and\n        /* \"contract/Lottery.sol\":10486:10532  participantsToTickets[participantAddresses[i]] */\n      0xffffffffffffffffffffffffffffffffffffffff\n      and\n      0xffffffffffffffffffffffffffffffffffffffff\n      and\n      dup2\n      mstore\n      0x20\n      add\n      swap1\n      dup2\n      mstore\n      0x20\n      add\n      0x00\n      keccak256\n      0x00\n        /* \"contract/Lottery.sol\":10479:10532  delete participantsToTickets[participantAddresses[i]] */\n      0x00\n      dup3\n      add\n      0x00\n      tag_246\n      swap2\n      swap1\n      tag_247\n      jump\t// in\n    tag_246:\n      0x01\n      dup3\n      add\n      exp(0x0100, 0x00)\n      dup2\n      sload\n      swap1\n      0xff\n      mul\n      not\n      and\n      swap1\n      sstore\n      0x01\n      dup3\n      add\n      exp(0x0100, 0x01)\n      dup2\n      sload\n      swap1\n      0xffff\n      mul\n      not\n      and\n      swap1\n      sstore\n      pop\n      pop\n        /* \"contract/Lottery.sol\":10459:10462  i++ */\n      dup1\n      dup1\n      0x01\n      add\n      swap2\n      pop\n      pop\n        /* \"contract/Lottery.sol\":10406:10544  for (uint256 i = 0; i < participantAddresses.length; i++) {... */\n      jump(tag_240)\n    tag_241:\n      pop\n        /* \"contract/Lottery.sol\":10561:10581  participantAddresses */\n      0x02\n      0x00\n        /* \"contract/Lottery.sol\":10554:10581  delete participantAddresses */\n      tag_248\n      swap2\n      swap1\n      tag_249\n      jump\t// in\n    tag_248:\n        /* \"contract/Lottery.sol\":8039:10589  {... */\n      pop\n      pop\n      pop\n      pop\n      pop\n      pop\n      pop\n        /* \"contract/Lottery.sol\":8008:10589  function findWinner() external {... */\n      jump\t// out\n        /* \"contract/Lottery.sol\":2372:2401  uint16 public minParticipants */\n    tag_80:\n      0x0d\n      0x00\n      swap1\n      sload\n      swap1\n      0x0100\n      exp\n      swap1\n      div\n      0xffff\n      and\n      dup2\n      jump\t// out\n        /* \"contract/Lottery.sol\":2308:2335  uint256 public drawInterval */\n    tag_85:\n      sload(0x0c)\n      dup2\n      jump\t// out\n        /* \"contract/Lottery.sol\":1407:1462  mapping(address => Player) public participantsToTickets */\n    tag_90:\n      mstore(0x20, 0x00)\n      dup1\n      0x00\n      mstore\n      keccak256(0x00, 0x40)\n      0x00\n      swap2\n      pop\n      swap1\n      pop\n      dup1\n      0x01\n      add\n      0x00\n      swap1\n      sload\n      swap1\n      0x0100\n      exp\n      swap1\n      div\n      0xff\n      and\n      swap1\n      dup1\n      0x01\n      add\n      0x01\n      swap1\n      sload\n      swap1\n      0x0100\n      exp\n      swap1\n      div\n      0xffff\n      and\n      swap1\n      pop\n      dup3\n      jump\t// out\n        /* \"contract/Lottery.sol\":1872:1902  uint256 public drawBlockNumber */\n    tag_95:\n      sload(0x08)\n      dup2\n      jump\t// out\n        /* \"contract/Lottery.sol\":2448:2476  uint16 public minTicketsSold */\n    tag_99:\n      0x0d\n      0x02\n      swap1\n      sload\n      swap1\n      0x0100\n      exp\n      swap1\n      div\n      0xffff\n      and\n      dup2\n      jump\t// out\n        /* \"contract/Lottery.sol\":5247:6367  function buyTicket(uint8[5] calldata ticketNumbers) external payable {... */\n    tag_104:\n        /* \"contract/Lottery.sol\":5336:5349  drawInitiated */\n      0x09\n      0x00\n      swap1\n      sload\n      swap1\n      0x0100\n      exp\n      swap1\n      div\n      0xff\n      and\n        /* \"contract/Lottery.sol\":5335:5349  !drawInitiated */\n      iszero\n        /* \"contract/Lottery.sol\":5327:5391  require(!drawInitiated, \"Cannot buy tickets during active draw\") */\n      tag_251\n      jumpi\n      mload(0x40)\n      0x08c379a000000000000000000000000000000000000000000000000000000000\n      dup2\n      mstore\n      0x04\n      add\n      tag_252\n      swap1\n      tag_253\n      jump\t// in\n    tag_252:\n      mload(0x40)\n      dup1\n      swap2\n      sub\n      swap1\n      revert\n    tag_251:\n        /* \"contract/Lottery.sol\":5437:5447  ticketCost */\n      sload(0x06)\n        /* \"contract/Lottery.sol\":5424:5433  msg.value */\n      callvalue\n        /* \"contract/Lottery.sol\":5424:5447  msg.value >= ticketCost */\n      lt\n      iszero\n        /* \"contract/Lottery.sol\":5402:5573  require(... */\n      tag_254\n      jumpi\n      mload(0x40)\n      0x08c379a000000000000000000000000000000000000000000000000000000000\n      dup2\n      mstore\n      0x04\n      add\n      tag_255\n      swap1\n      tag_256\n      jump\t// in\n    tag_255:\n      mload(0x40)\n      dup1\n      swap2\n      sub\n      swap1\n      revert\n    tag_254:\n        /* \"contract/Lottery.sol\":5584:5620  validateTicketNumbers(ticketNumbers) */\n      tag_257\n        /* \"contract/Lottery.sol\":5606:5619  ticketNumbers */\n      dup2\n        /* \"contract/Lottery.sol\":5584:5605  validateTicketNumbers */\n      tag_258\n        /* \"contract/Lottery.sol\":5584:5620  validateTicketNumbers(ticketNumbers) */\n      jump\t// in\n    tag_257:\n        /* \"contract/Lottery.sol\":5665:5678  hostTicketFee */\n      sload(0x07)\n        /* \"contract/Lottery.sol\":5655:5662  hostCut */\n      0x05\n        /* \"contract/Lottery.sol\":5655:5678  hostCut = hostTicketFee */\n      dup2\n      swap1\n      sstore\n      pop\n        /* \"contract/Lottery.sol\":5714:5721  hostCut */\n      sload(0x05)\n        /* \"contract/Lottery.sol\":5702:5711  msg.value */\n      callvalue\n        /* \"contract/Lottery.sol\":5702:5721  msg.value - hostCut */\n      tag_259\n      swap2\n      swap1\n      tag_260\n      jump\t// in\n    tag_259:\n        /* \"contract/Lottery.sol\":5689:5698  prizePool */\n      0x04\n      0x00\n        /* \"contract/Lottery.sol\":5689:5721  prizePool += msg.value - hostCut */\n      dup3\n      dup3\n      sload\n      tag_261\n      swap2\n      swap1\n      tag_135\n      jump\t// in\n    tag_261:\n      swap3\n      pop\n      pop\n      dup2\n      swap1\n      sstore\n      pop\n        /* \"contract/Lottery.sol\":5842:5851  bool sent */\n      0x00\n        /* \"contract/Lottery.sol\":5857:5861  host */\n      0x03\n      0x00\n      swap1\n      sload\n      swap1\n      0x0100\n      exp\n      swap1\n      div\n      0xffffffffffffffffffffffffffffffffffffffff\n      and\n        /* \"contract/Lottery.sol\":5857:5866  host.call */\n      0xffffffffffffffffffffffffffffffffffffffff\n      and\n        /* \"contract/Lottery.sol\":5874:5881  hostCut */\n      sload(0x05)\n        /* \"contract/Lottery.sol\":5857:5886  host.call{value: hostCut}(\"\") */\n      mload(0x40)\n      tag_262\n      swap1\n      tag_158\n      jump\t// in\n    tag_262:\n      0x00\n      mload(0x40)\n      dup1\n      dup4\n      sub\n      dup2\n      dup6\n      dup8\n      gas\n      call\n      swap3\n      pop\n      pop\n      pop\n      returndatasize\n      dup1\n      0x00\n      dup2\n      eq\n      tag_265\n      jumpi\n      mload(0x40)\n      swap2\n      pop\n      and(add(returndatasize, 0x3f), not(0x1f))\n      dup3\n      add\n      0x40\n      mstore\n      returndatasize\n      dup3\n      mstore\n      returndatasize\n      0x00\n      0x20\n      dup5\n      add\n      returndatacopy\n      jump(tag_264)\n    tag_265:\n      0x60\n      swap2\n      pop\n    tag_264:\n      pop\n        /* \"contract/Lottery.sol\":5841:5886  (bool sent, ) = host.call{value: hostCut}(\"\") */\n      pop\n      swap1\n      pop\n        /* \"contract/Lottery.sol\":5905:5909  sent */\n      dup1\n        /* \"contract/Lottery.sol\":5897:5934  require(sent, \"Owner was not payed.\") */\n      tag_266\n      jumpi\n      mload(0x40)\n      0x08c379a000000000000000000000000000000000000000000000000000000000\n      dup2\n      mstore\n      0x04\n      add\n      tag_267\n      swap1\n      tag_268\n      jump\t// in\n    tag_267:\n      mload(0x40)\n      dup1\n      swap2\n      sub\n      swap1\n      revert\n    tag_266:\n        /* \"contract/Lottery.sol\":5947:5968  participantsToTickets */\n      0x00\n        /* \"contract/Lottery.sol\":5947:5980  participantsToTickets[msg.sender] */\n      0x00\n        /* \"contract/Lottery.sol\":5969:5979  msg.sender */\n      caller\n        /* \"contract/Lottery.sol\":5947:5980  participantsToTickets[msg.sender] */\n      0xffffffffffffffffffffffffffffffffffffffff\n      and\n      0xffffffffffffffffffffffffffffffffffffffff\n      and\n      dup2\n      mstore\n      0x20\n      add\n      swap1\n      dup2\n      mstore\n      0x20\n      add\n      0x00\n      keccak256\n        /* \"contract/Lottery.sol\":5947:5994  participantsToTickets[msg.sender].ticketNumbers */\n      0x00\n      add\n        /* \"contract/Lottery.sol\":6000:6013  ticketNumbers */\n      dup3\n        /* \"contract/Lottery.sol\":5947:6014  participantsToTickets[msg.sender].ticketNumbers.push(ticketNumbers) */\n      swap1\n      dup1\n      0x01\n      dup2\n      sload\n      add\n      dup1\n      dup3\n      sstore\n      dup1\n      swap2\n      pop\n      pop\n      0x01\n      swap1\n      sub\n      swap1\n      0x00\n      mstore\n      keccak256(0x00, 0x20)\n      add\n      0x00\n      swap1\n      swap2\n      swap1\n      swap2\n      swap1\n      swap2\n      pop\n      swap1\n      0x05\n      tag_270\n      swap3\n      swap2\n      swap1\n      tag_271\n      jump\t// in\n    tag_270:\n      pop\n        /* \"contract/Lottery.sol\":6078:6079  1 */\n      0x01\n        /* \"contract/Lottery.sol\":6025:6046  participantsToTickets */\n      0x00\n        /* \"contract/Lottery.sol\":6025:6058  participantsToTickets[msg.sender] */\n      0x00\n        /* \"contract/Lottery.sol\":6047:6057  msg.sender */\n      caller\n        /* \"contract/Lottery.sol\":6025:6058  participantsToTickets[msg.sender] */\n      0xffffffffffffffffffffffffffffffffffffffff\n      and\n      0xffffffffffffffffffffffffffffffffffffffff\n      and\n      dup2\n      mstore\n      0x20\n      add\n      swap1\n      dup2\n      mstore\n      0x20\n      add\n      0x00\n      keccak256\n        /* \"contract/Lottery.sol\":6025:6074  participantsToTickets[msg.sender].numberOfTickets */\n      0x01\n      add\n      0x01\n        /* \"contract/Lottery.sol\":6025:6079  participantsToTickets[msg.sender].numberOfTickets += 1 */\n      dup3\n      dup3\n      dup3\n      swap1\n      sload\n      swap1\n      0x0100\n      exp\n      swap1\n      div\n      0xffff\n      and\n      tag_272\n      swap2\n      swap1\n      tag_273\n      jump\t// in\n    tag_272:\n      swap3\n      pop\n      0x0100\n      exp\n      dup2\n      sload\n      dup2\n      0xffff\n      mul\n      not\n      and\n      swap1\n      dup4\n      0xffff\n      and\n      mul\n      or\n      swap1\n      sstore\n      pop\n        /* \"contract/Lottery.sol\":6097:6118  participantsToTickets */\n      0x00\n        /* \"contract/Lottery.sol\":6097:6130  participantsToTickets[msg.sender] */\n      0x00\n        /* \"contract/Lottery.sol\":6119:6129  msg.sender */\n      caller\n        /* \"contract/Lottery.sol\":6097:6130  participantsToTickets[msg.sender] */\n      0xffffffffffffffffffffffffffffffffffffffff\n      and\n      0xffffffffffffffffffffffffffffffffffffffff\n      and\n      dup2\n      mstore\n      0x20\n      add\n      swap1\n      dup2\n      mstore\n      0x20\n      add\n      0x00\n      keccak256\n        /* \"contract/Lottery.sol\":6097:6140  participantsToTickets[msg.sender].hasJoined */\n      0x01\n      add\n      0x00\n      swap1\n      sload\n      swap1\n      0x0100\n      exp\n      swap1\n      div\n      0xff\n      and\n        /* \"contract/Lottery.sol\":6092:6273  if (!participantsToTickets[msg.sender].hasJoined) {... */\n      tag_274\n      jumpi\n        /* \"contract/Lottery.sol\":6203:6207  true */\n      0x01\n        /* \"contract/Lottery.sol\":6157:6178  participantsToTickets */\n      0x00\n        /* \"contract/Lottery.sol\":6157:6190  participantsToTickets[msg.sender] */\n      0x00\n        /* \"contract/Lottery.sol\":6179:6189  msg.sender */\n      caller\n        /* \"contract/Lottery.sol\":6157:6190  participantsToTickets[msg.sender] */\n      0xffffffffffffffffffffffffffffffffffffffff\n      and\n      0xffffffffffffffffffffffffffffffffffffffff\n      and\n      dup2\n      mstore\n      0x20\n      add\n      swap1\n      dup2\n      mstore\n      0x20\n      add\n      0x00\n      keccak256\n        /* \"contract/Lottery.sol\":6157:6200  participantsToTickets[msg.sender].hasJoined */\n      0x01\n      add\n      0x00\n        /* \"contract/Lottery.sol\":6157:6207  participantsToTickets[msg.sender].hasJoined = true */\n      0x0100\n      exp\n      dup2\n      sload\n      dup2\n      0xff\n      mul\n      not\n      and\n      swap1\n      dup4\n      iszero\n      iszero\n      mul\n      or\n      swap1\n      sstore\n      pop\n        /* \"contract/Lottery.sol\":6224:6244  participantAddresses */\n      0x02\n        /* \"contract/Lottery.sol\":6250:6260  msg.sender */\n      caller\n        /* \"contract/Lottery.sol\":6224:6261  participantAddresses.push(msg.sender) */\n      swap1\n      dup1\n      0x01\n      dup2\n      sload\n      add\n      dup1\n      dup3\n      sstore\n      dup1\n      swap2\n      pop\n      pop\n      0x01\n      swap1\n      sub\n      swap1\n      0x00\n      mstore\n      keccak256(0x00, 0x20)\n      add\n      0x00\n      swap1\n      swap2\n      swap1\n      swap2\n      swap1\n      swap2\n      0x0100\n      exp\n      dup2\n      sload\n      dup2\n      0xffffffffffffffffffffffffffffffffffffffff\n      mul\n      not\n      and\n      swap1\n      dup4\n      0xffffffffffffffffffffffffffffffffffffffff\n      and\n      mul\n      or\n      swap1\n      sstore\n      pop\n        /* \"contract/Lottery.sol\":6092:6273  if (!participantsToTickets[msg.sender].hasJoined) {... */\n    tag_274:\n        /* \"contract/Lottery.sol\":6301:6302  1 */\n      0x01\n        /* \"contract/Lottery.sol\":6285:6297  totalTickets */\n      dup1\n      0x00\n        /* \"contract/Lottery.sol\":6285:6302  totalTickets += 1 */\n      dup3\n      dup3\n      dup3\n      swap1\n      sload\n      swap1\n      0x0100\n      exp\n      swap1\n      div\n      0xffff\n      and\n      tag_276\n      swap2\n      swap1\n      tag_273\n      jump\t// in\n    tag_276:\n      swap3\n      pop\n      0x0100\n      exp\n      dup2\n      sload\n      dup2\n      0xffff\n      mul\n      not\n      and\n      swap1\n      dup4\n      0xffff\n      and\n      mul\n      or\n      swap1\n      sstore\n      pop\n        /* \"contract/Lottery.sol\":6320:6359  ParticipantJoined(msg.sender, \"joined\") */\n      0xe5b1eced469f0f85354b67d6ef4b36910756d7f6d07ab540d7bf0e198e3aecd5\n        /* \"contract/Lottery.sol\":6338:6348  msg.sender */\n      caller\n        /* \"contract/Lottery.sol\":6320:6359  ParticipantJoined(msg.sender, \"joined\") */\n      mload(0x40)\n      tag_277\n      swap2\n      swap1\n      tag_278\n      jump\t// in\n    tag_277:\n      mload(0x40)\n      dup1\n      swap2\n      sub\n      swap1\n      log1\n        /* \"contract/Lottery.sol\":5316:6367  {... */\n      pop\n        /* \"contract/Lottery.sol\":5247:6367  function buyTicket(uint8[5] calldata ticketNumbers) external payable {... */\n      pop\n      jump\t// out\n        /* \"contract/Lottery.sol\":4230:4504  function setMinParticipants(uint16 _minParticipants) external onlyHost {... */\n    tag_108:\n        /* \"contract/Lottery.sol\":3820:3824  host */\n      0x03\n      0x00\n      swap1\n      sload\n      swap1\n      0x0100\n      exp\n      swap1\n      div\n      0xffffffffffffffffffffffffffffffffffffffff\n      and\n        /* \"contract/Lottery.sol\":3806:3824  msg.sender == host */\n      0xffffffffffffffffffffffffffffffffffffffff\n      and\n        /* \"contract/Lottery.sol\":3806:3816  msg.sender */\n      caller\n        /* \"contract/Lottery.sol\":3806:3824  msg.sender == host */\n      0xffffffffffffffffffffffffffffffffffffffff\n      and\n      eq\n        /* \"contract/Lottery.sol\":3798:3850  require(msg.sender == host, \"You are not the host.\") */\n      tag_280\n      jumpi\n      mload(0x40)\n      0x08c379a000000000000000000000000000000000000000000000000000000000\n      dup2\n      mstore\n      0x04\n      add\n      tag_281\n      swap1\n      tag_145\n      jump\t// in\n    tag_281:\n      mload(0x40)\n      dup1\n      swap2\n      sub\n      swap1\n      revert\n    tag_280:\n        /* \"contract/Lottery.sol\":4340:4341  2 */\n      0x02\n        /* \"contract/Lottery.sol\":4320:4336  _minParticipants */\n      dup2\n        /* \"contract/Lottery.sol\":4320:4341  _minParticipants >= 2 */\n      0xffff\n      and\n      lt\n      iszero\n        /* \"contract/Lottery.sol\":4312:4374  require(_minParticipants >= 2, \"Need at least 2 participants\") */\n      tag_283\n      jumpi\n      mload(0x40)\n      0x08c379a000000000000000000000000000000000000000000000000000000000\n      dup2\n      mstore\n      0x04\n      add\n      tag_284\n      swap1\n      tag_285\n      jump\t// in\n    tag_284:\n      mload(0x40)\n      dup1\n      swap2\n      sub\n      swap1\n      revert\n    tag_283:\n        /* \"contract/Lottery.sol\":4413:4416  100 */\n      0x64\n        /* \"contract/Lottery.sol\":4393:4409  _minParticipants */\n      dup2\n        /* \"contract/Lottery.sol\":4393:4416  _minParticipants <= 100 */\n      0xffff\n      and\n      gt\n      iszero\n        /* \"contract/Lottery.sol\":4385:4451  require(_minParticipants <= 100, \"Too high - would never trigger\") */\n      tag_286\n      jumpi\n      mload(0x40)\n      0x08c379a000000000000000000000000000000000000000000000000000000000\n      dup2\n      mstore\n      0x04\n      add\n      tag_287\n      swap1\n      tag_176\n      jump\t// in\n    tag_287:\n      mload(0x40)\n      dup1\n      swap2\n      sub\n      swap1\n      revert\n    tag_286:\n        /* \"contract/Lottery.sol\":4480:4496  _minParticipants */\n      dup1\n        /* \"contract/Lottery.sol\":4462:4477  minParticipants */\n      0x0d\n      0x00\n        /* \"contract/Lottery.sol\":4462:4496  minParticipants = _minParticipants */\n      0x0100\n      exp\n      dup2\n      sload\n      dup2\n      0xffff\n      mul\n      not\n      and\n      swap1\n      dup4\n      0xffff\n      and\n      mul\n      or\n      swap1\n      sstore\n      pop\n        /* \"contract/Lottery.sol\":4230:4504  function setMinParticipants(uint16 _minParticipants) external onlyHost {... */\n      pop\n      jump\t// out\n        /* \"contract/Lottery.sol\":2523:2554  uint16 public maxTicketsPerDraw */\n    tag_111:\n      0x0d\n      0x04\n      swap1\n      sload\n      swap1\n      0x0100\n      exp\n      swap1\n      div\n      0xffff\n      and\n      dup2\n      jump\t// out\n        /* \"contract/Lottery.sol\":1546:1573  address payable public host */\n    tag_115:\n      0x03\n      0x00\n      swap1\n      sload\n      swap1\n      0x0100\n      exp\n      swap1\n      div\n      0xffffffffffffffffffffffffffffffffffffffff\n      and\n      dup2\n      jump\t// out\n        /* \"contract/Lottery.sol\":3969:4222  function setDrawInterval(uint256 _interval) external onlyHost {... */\n    tag_122:\n        /* \"contract/Lottery.sol\":3820:3824  host */\n      0x03\n      0x00\n      swap1\n      sload\n      swap1\n      0x0100\n      exp\n      swap1\n      div\n      0xffffffffffffffffffffffffffffffffffffffff\n      and\n        /* \"contract/Lottery.sol\":3806:3824  msg.sender == host */\n      0xffffffffffffffffffffffffffffffffffffffff\n      and\n        /* \"contract/Lottery.sol\":3806:3816  msg.sender */\n      caller\n        /* \"contract/Lottery.sol\":3806:3824  msg.sender == host */\n      0xffffffffffffffffffffffffffffffffffffffff\n      and\n      eq\n        /* \"contract/Lottery.sol\":3798:3850  require(msg.sender == host, \"You are not the host.\") */\n      tag_289\n      jumpi\n      mload(0x40)\n      0x08c379a000000000000000000000000000000000000000000000000000000000\n      dup2\n      mstore\n      0x04\n      add\n      tag_290\n      swap1\n      tag_145\n      jump\t// in\n    tag_290:\n      mload(0x40)\n      dup1\n      swap2\n      sub\n      swap1\n      revert\n    tag_289:\n        /* \"contract/Lottery.sol\":4063:4069  1 days */\n      0x015180\n        /* \"contract/Lottery.sol\":4050:4059  _interval */\n      dup2\n        /* \"contract/Lottery.sol\":4050:4069  _interval >= 1 days */\n      lt\n      iszero\n        /* \"contract/Lottery.sol\":4042:4105  require(_interval >= 1 days, \"Interval must be at least 1 day\") */\n      tag_292\n      jumpi\n      mload(0x40)\n      0x08c379a000000000000000000000000000000000000000000000000000000000\n      dup2\n      mstore\n      0x04\n      add\n      tag_293\n      swap1\n      tag_294\n      jump\t// in\n    tag_293:\n      mload(0x40)\n      dup1\n      swap2\n      sub\n      swap1\n      revert\n    tag_292:\n        /* \"contract/Lottery.sol\":4137:4144  30 days */\n      0x278d00\n        /* \"contract/Lottery.sol\":4124:4133  _interval */\n      dup2\n        /* \"contract/Lottery.sol\":4124:4144  _interval <= 30 days */\n      gt\n      iszero\n        /* \"contract/Lottery.sol\":4116:4179  require(_interval <= 30 days, \"Interval cannot exceed 30 days\") */\n      tag_295\n      jumpi\n      mload(0x40)\n      0x08c379a000000000000000000000000000000000000000000000000000000000\n      dup2\n      mstore\n      0x04\n      add\n      tag_296\n      swap1\n      tag_297\n      jump\t// in\n    tag_296:\n      mload(0x40)\n      dup1\n      swap2\n      sub\n      swap1\n      revert\n    tag_295:\n        /* \"contract/Lottery.sol\":4205:4214  _interval */\n      dup1\n        /* \"contract/Lottery.sol\":4190:4202  drawInterval */\n      0x0c\n        /* \"contract/Lottery.sol\":4190:4214  drawInterval = _interval */\n      dup2\n      swap1\n      sstore\n      pop\n        /* \"contract/Lottery.sol\":3969:4222  function setDrawInterval(uint256 _interval) external onlyHost {... */\n      pop\n      jump\t// out\n        /* \"utils/Utils.sol\":89:1944  function determinePrizes(... */\n    tag_228:\n        /* \"utils/Utils.sol\":255:279  address[] memory winners */\n      0x60\n        /* \"utils/Utils.sol\":281:298  uint256 winAmount */\n      0x00\n        /* \"utils/Utils.sol\":334:341  players */\n      dup3\n        /* \"utils/Utils.sol\":334:348  players.length */\n      mload\n        /* \"utils/Utils.sol\":314:323  addresses */\n      dup5\n        /* \"utils/Utils.sol\":314:330  addresses.length */\n      mload\n        /* \"utils/Utils.sol\":314:348  addresses.length == players.length */\n      eq\n        /* \"utils/Utils.sol\":306:368  require(addresses.length == players.length, \"Length mismatch\") */\n      tag_299\n      jumpi\n      mload(0x40)\n      0x08c379a000000000000000000000000000000000000000000000000000000000\n      dup2\n      mstore\n      0x04\n      add\n      tag_300\n      swap1\n      tag_301\n      jump\t// in\n    tag_300:\n      mload(0x40)\n      dup1\n      swap2\n      sub\n      swap1\n      revert\n    tag_299:\n        /* \"utils/Utils.sol\":375:402  uint256 totalJackpotWinners */\n      0x00\n        /* \"utils/Utils.sol\":405:406  0 */\n      0x00\n        /* \"utils/Utils.sol\":375:406  uint256 totalJackpotWinners = 0 */\n      swap1\n      pop\n        /* \"utils/Utils.sol\":450:459  uint256 i */\n      0x00\n        /* \"utils/Utils.sol\":462:463  0 */\n      0x00\n        /* \"utils/Utils.sol\":450:463  uint256 i = 0 */\n      swap1\n      pop\n        /* \"utils/Utils.sol\":445:1063  for (uint256 i = 0; i < players.length; i++) {  // for each player... */\n    tag_302:\n        /* \"utils/Utils.sol\":469:476  players */\n      dup5\n        /* \"utils/Utils.sol\":469:483  players.length */\n      mload\n        /* \"utils/Utils.sol\":465:466  i */\n      dup2\n        /* \"utils/Utils.sol\":465:483  i < players.length */\n      lt\n        /* \"utils/Utils.sol\":445:1063  for (uint256 i = 0; i < players.length; i++) {  // for each player... */\n      iszero\n      tag_303\n      jumpi\n        /* \"utils/Utils.sol\":520:529  uint256 n */\n      0x00\n        /* \"utils/Utils.sol\":532:539  players */\n      dup6\n        /* \"utils/Utils.sol\":540:541  i */\n      dup3\n        /* \"utils/Utils.sol\":532:542  players[i] */\n      dup2\n      mload\n      dup2\n      lt\n      tag_305\n      jumpi\n      tag_306\n      tag_204\n      jump\t// in\n    tag_306:\n    tag_305:\n      0x20\n      mul\n      0x20\n      add\n      add\n      mload\n        /* \"utils/Utils.sol\":532:558  players[i].numberOfTickets */\n      0x40\n      add\n      mload\n        /* \"utils/Utils.sol\":520:558  uint256 n = players[i].numberOfTickets */\n      0xffff\n      and\n      swap1\n      pop\n        /* \"utils/Utils.sol\":574:583  uint256 j */\n      0x00\n        /* \"utils/Utils.sol\":586:587  0 */\n      0x00\n        /* \"utils/Utils.sol\":574:587  uint256 j = 0 */\n      swap1\n      pop\n        /* \"utils/Utils.sol\":569:1057  for (uint256 j = 0; j < n; j++) {  // for each ticket the current player has... */\n    tag_307:\n        /* \"utils/Utils.sol\":593:594  n */\n      dup2\n        /* \"utils/Utils.sol\":589:590  j */\n      dup2\n        /* \"utils/Utils.sol\":589:594  j < n */\n      lt\n        /* \"utils/Utils.sol\":569:1057  for (uint256 j = 0; j < n; j++) {  // for each ticket the current player has... */\n      iszero\n      tag_308\n      jumpi\n        /* \"utils/Utils.sol\":658:680  uint8[5] memory ticket */\n      0x00\n        /* \"utils/Utils.sol\":683:690  players */\n      dup8\n        /* \"utils/Utils.sol\":691:692  i */\n      dup5\n        /* \"utils/Utils.sol\":683:693  players[i] */\n      dup2\n      mload\n      dup2\n      lt\n      tag_310\n      jumpi\n      tag_311\n      tag_204\n      jump\t// in\n    tag_311:\n    tag_310:\n      0x20\n      mul\n      0x20\n      add\n      add\n      mload\n        /* \"utils/Utils.sol\":683:707  players[i].ticketNumbers */\n      0x00\n      add\n      mload\n        /* \"utils/Utils.sol\":708:709  j */\n      dup3\n        /* \"utils/Utils.sol\":683:710  players[i].ticketNumbers[j] */\n      dup2\n      mload\n      dup2\n      lt\n      tag_312\n      jumpi\n      tag_313\n      tag_204\n      jump\t// in\n    tag_313:\n    tag_312:\n      0x20\n      mul\n      0x20\n      add\n      add\n      mload\n        /* \"utils/Utils.sol\":658:710  uint8[5] memory ticket = players[i].ticketNumbers[j] */\n      swap1\n      pop\n        /* \"utils/Utils.sol\":725:745  bool isJackpotWinner */\n      0x00\n        /* \"utils/Utils.sol\":748:752  true */\n      0x01\n        /* \"utils/Utils.sol\":725:752  bool isJackpotWinner = true */\n      swap1\n      pop\n        /* \"utils/Utils.sol\":771:778  uint8 x */\n      0x00\n        /* \"utils/Utils.sol\":781:782  0 */\n      0x00\n        /* \"utils/Utils.sol\":771:782  uint8 x = 0 */\n      swap1\n      pop\n        /* \"utils/Utils.sol\":766:955  for (uint8 x = 0; x < 5; x++) {... */\n    tag_314:\n        /* \"utils/Utils.sol\":788:789  5 */\n      0x05\n        /* \"utils/Utils.sol\":784:785  x */\n      dup2\n        /* \"utils/Utils.sol\":784:789  x < 5 */\n      0xff\n      and\n      lt\n        /* \"utils/Utils.sol\":766:955  for (uint8 x = 0; x < 5; x++) {... */\n      iszero\n      tag_315\n      jumpi\n        /* \"utils/Utils.sol\":831:845  winningNumbers */\n      dup12\n        /* \"utils/Utils.sol\":846:847  x */\n      dup2\n        /* \"utils/Utils.sol\":831:848  winningNumbers[x] */\n      0xff\n      and\n      0x05\n      dup2\n      lt\n      tag_317\n      jumpi\n      tag_318\n      tag_204\n      jump\t// in\n    tag_318:\n    tag_317:\n      0x20\n      mul\n      add\n      mload\n        /* \"utils/Utils.sol\":818:848  ticket[x] != winningNumbers[x] */\n      0xff\n      and\n        /* \"utils/Utils.sol\":818:824  ticket */\n      dup4\n        /* \"utils/Utils.sol\":825:826  x */\n      dup3\n        /* \"utils/Utils.sol\":818:827  ticket[x] */\n      0xff\n      and\n      0x05\n      dup2\n      lt\n      tag_319\n      jumpi\n      tag_320\n      tag_204\n      jump\t// in\n    tag_320:\n    tag_319:\n      0x20\n      mul\n      add\n      mload\n        /* \"utils/Utils.sol\":818:848  ticket[x] != winningNumbers[x] */\n      0xff\n      and\n      eq\n        /* \"utils/Utils.sol\":814:941  if (ticket[x] != winningNumbers[x]) {... */\n      tag_321\n      jumpi\n        /* \"utils/Utils.sol\":890:895  false */\n      0x00\n        /* \"utils/Utils.sol\":872:895  isJackpotWinner = false */\n      swap2\n      pop\n        /* \"utils/Utils.sol\":917:922  break */\n      jump(tag_315)\n        /* \"utils/Utils.sol\":814:941  if (ticket[x] != winningNumbers[x]) {... */\n    tag_321:\n        /* \"utils/Utils.sol\":791:794  x++ */\n      dup1\n      dup1\n      0x01\n      add\n      swap2\n      pop\n      pop\n        /* \"utils/Utils.sol\":766:955  for (uint8 x = 0; x < 5; x++) {... */\n      jump(tag_314)\n    tag_315:\n      pop\n        /* \"utils/Utils.sol\":973:988  isJackpotWinner */\n      dup1\n        /* \"utils/Utils.sol\":969:1047  if (isJackpotWinner) {... */\n      iszero\n      tag_322\n      jumpi\n        /* \"utils/Utils.sol\":1031:1032  1 */\n      0x01\n        /* \"utils/Utils.sol\":1008:1032  totalJackpotWinners += 1 */\n      dup7\n      tag_323\n      swap2\n      swap1\n      tag_135\n      jump\t// in\n    tag_323:\n      swap6\n      pop\n        /* \"utils/Utils.sol\":969:1047  if (isJackpotWinner) {... */\n    tag_322:\n        /* \"utils/Utils.sol\":601:1057  {  // for each ticket the current player has... */\n      pop\n      pop\n        /* \"utils/Utils.sol\":596:599  j++ */\n      dup1\n      dup1\n      0x01\n      add\n      swap2\n      pop\n      pop\n        /* \"utils/Utils.sol\":569:1057  for (uint256 j = 0; j < n; j++) {  // for each ticket the current player has... */\n      jump(tag_307)\n    tag_308:\n      pop\n        /* \"utils/Utils.sol\":490:1063  {  // for each player... */\n      pop\n        /* \"utils/Utils.sol\":485:488  i++ */\n      dup1\n      dup1\n      0x01\n      add\n      swap2\n      pop\n      pop\n        /* \"utils/Utils.sol\":445:1063  for (uint256 i = 0; i < players.length; i++) {  // for each player... */\n      jump(tag_302)\n    tag_303:\n      pop\n        /* \"utils/Utils.sol\":1096:1097  0 */\n      0x00\n        /* \"utils/Utils.sol\":1073:1092  totalJackpotWinners */\n      dup2\n        /* \"utils/Utils.sol\":1073:1097  totalJackpotWinners == 0 */\n      sub\n        /* \"utils/Utils.sol\":1069:1144  if (totalJackpotWinners == 0) {... */\n      tag_324\n      jumpi\n        /* \"utils/Utils.sol\":1131:1132  0 */\n      0x00\n        /* \"utils/Utils.sol\":1117:1133  new address[](0) */\n      0xffffffffffffffff\n      dup2\n      gt\n      iszero\n      tag_325\n      jumpi\n      tag_326\n      tag_207\n      jump\t// in\n    tag_326:\n    tag_325:\n      mload(0x40)\n      swap1\n      dup1\n      dup3\n      mstore\n      dup1\n      0x20\n      mul\n      0x20\n      add\n      dup3\n      add\n      0x40\n      mstore\n      dup1\n      iszero\n      tag_327\n      jumpi\n      dup2\n      0x20\n      add\n      0x20\n      dup3\n      mul\n      dup1\n      calldatasize\n      dup4\n      calldatacopy\n      dup1\n      dup3\n      add\n      swap2\n      pop\n      pop\n      swap1\n      pop\n    tag_327:\n      pop\n        /* \"utils/Utils.sol\":1135:1136  0 */\n      0x00\n        /* \"utils/Utils.sol\":1109:1137  return (new address[](0), 0) */\n      swap3\n      pop\n      swap3\n      pop\n      pop\n      jump(tag_298)\n        /* \"utils/Utils.sol\":1069:1144  if (totalJackpotWinners == 0) {... */\n    tag_324:\n        /* \"utils/Utils.sol\":1220:1239  totalJackpotWinners */\n      dup1\n        /* \"utils/Utils.sol\":1206:1240  new address[](totalJackpotWinners) */\n      0xffffffffffffffff\n      dup2\n      gt\n      iszero\n      tag_328\n      jumpi\n      tag_329\n      tag_207\n      jump\t// in\n    tag_329:\n    tag_328:\n      mload(0x40)\n      swap1\n      dup1\n      dup3\n      mstore\n      dup1\n      0x20\n      mul\n      0x20\n      add\n      dup3\n      add\n      0x40\n      mstore\n      dup1\n      iszero\n      tag_330\n      jumpi\n      dup2\n      0x20\n      add\n      0x20\n      dup3\n      mul\n      dup1\n      calldatasize\n      dup4\n      calldatacopy\n      dup1\n      dup3\n      add\n      swap2\n      pop\n      pop\n      swap1\n      pop\n    tag_330:\n      pop\n        /* \"utils/Utils.sol\":1196:1240  winners = new address[](totalJackpotWinners) */\n      swap3\n      pop\n        /* \"utils/Utils.sol\":1246:1265  uint256 winnerIndex */\n      0x00\n        /* \"utils/Utils.sol\":1268:1269  0 */\n      0x00\n        /* \"utils/Utils.sol\":1246:1269  uint256 winnerIndex = 0 */\n      swap1\n      pop\n        /* \"utils/Utils.sol\":1275:1288  uint256 share */\n      0x00\n        /* \"utils/Utils.sol\":1308:1327  totalJackpotWinners */\n      dup3\n        /* \"utils/Utils.sol\":1291:1305  totalPrizePool */\n      dup10\n        /* \"utils/Utils.sol\":1291:1327  totalPrizePool / totalJackpotWinners */\n      tag_331\n      swap2\n      swap1\n      tag_332\n      jump\t// in\n    tag_331:\n        /* \"utils/Utils.sol\":1275:1327  uint256 share = totalPrizePool / totalJackpotWinners */\n      swap1\n      pop\n        /* \"utils/Utils.sol\":1363:1372  uint256 i */\n      0x00\n        /* \"utils/Utils.sol\":1375:1376  0 */\n      0x00\n        /* \"utils/Utils.sol\":1363:1376  uint256 i = 0 */\n      swap1\n      pop\n        /* \"utils/Utils.sol\":1358:1912  for (uint256 i = 0; i < players.length; i++) {... */\n    tag_333:\n        /* \"utils/Utils.sol\":1382:1389  players */\n      dup7\n        /* \"utils/Utils.sol\":1382:1396  players.length */\n      mload\n        /* \"utils/Utils.sol\":1378:1379  i */\n      dup2\n        /* \"utils/Utils.sol\":1378:1396  i < players.length */\n      lt\n        /* \"utils/Utils.sol\":1358:1912  for (uint256 i = 0; i < players.length; i++) {... */\n      iszero\n      tag_334\n      jumpi\n        /* \"utils/Utils.sol\":1413:1422  uint256 n */\n      0x00\n        /* \"utils/Utils.sol\":1425:1432  players */\n      dup8\n        /* \"utils/Utils.sol\":1433:1434  i */\n      dup3\n        /* \"utils/Utils.sol\":1425:1435  players[i] */\n      dup2\n      mload\n      dup2\n      lt\n      tag_336\n      jumpi\n      tag_337\n      tag_204\n      jump\t// in\n    tag_337:\n    tag_336:\n      0x20\n      mul\n      0x20\n      add\n      add\n      mload\n        /* \"utils/Utils.sol\":1425:1451  players[i].numberOfTickets */\n      0x40\n      add\n      mload\n        /* \"utils/Utils.sol\":1413:1451  uint256 n = players[i].numberOfTickets */\n      0xffff\n      and\n      swap1\n      pop\n        /* \"utils/Utils.sol\":1467:1476  uint256 j */\n      0x00\n        /* \"utils/Utils.sol\":1479:1480  0 */\n      0x00\n        /* \"utils/Utils.sol\":1467:1480  uint256 j = 0 */\n      swap1\n      pop\n        /* \"utils/Utils.sol\":1462:1906  for (uint256 j = 0; j < n; j++) {... */\n    tag_338:\n        /* \"utils/Utils.sol\":1486:1487  n */\n      dup2\n        /* \"utils/Utils.sol\":1482:1483  j */\n      dup2\n        /* \"utils/Utils.sol\":1482:1487  j < n */\n      lt\n        /* \"utils/Utils.sol\":1462:1906  for (uint256 j = 0; j < n; j++) {... */\n      iszero\n      tag_339\n      jumpi\n        /* \"utils/Utils.sol\":1508:1528  bool isJackpotWinner */\n      0x00\n        /* \"utils/Utils.sol\":1531:1535  true */\n      0x01\n        /* \"utils/Utils.sol\":1508:1535  bool isJackpotWinner = true */\n      swap1\n      pop\n        /* \"utils/Utils.sol\":1555:1564  uint256 x */\n      0x00\n        /* \"utils/Utils.sol\":1567:1568  0 */\n      0x00\n        /* \"utils/Utils.sol\":1555:1568  uint256 x = 0 */\n      swap1\n      pop\n        /* \"utils/Utils.sol\":1550:1762  for (uint256 x = 0; x < 5; x++) {... */\n    tag_341:\n        /* \"utils/Utils.sol\":1574:1575  5 */\n      0x05\n        /* \"utils/Utils.sol\":1570:1571  x */\n      dup2\n        /* \"utils/Utils.sol\":1570:1575  x < 5 */\n      lt\n        /* \"utils/Utils.sol\":1550:1762  for (uint256 x = 0; x < 5; x++) {... */\n      iszero\n      tag_342\n      jumpi\n        /* \"utils/Utils.sol\":1638:1652  winningNumbers */\n      dup13\n        /* \"utils/Utils.sol\":1653:1654  x */\n      dup2\n        /* \"utils/Utils.sol\":1638:1655  winningNumbers[x] */\n      0x05\n      dup2\n      lt\n      tag_344\n      jumpi\n      tag_345\n      tag_204\n      jump\t// in\n    tag_345:\n    tag_344:\n      0x20\n      mul\n      add\n      mload\n        /* \"utils/Utils.sol\":1604:1655  players[i].ticketNumbers[x][j] != winningNumbers[x] */\n      0xff\n      and\n        /* \"utils/Utils.sol\":1604:1611  players */\n      dup12\n        /* \"utils/Utils.sol\":1612:1613  i */\n      dup7\n        /* \"utils/Utils.sol\":1604:1614  players[i] */\n      dup2\n      mload\n      dup2\n      lt\n      tag_346\n      jumpi\n      tag_347\n      tag_204\n      jump\t// in\n    tag_347:\n    tag_346:\n      0x20\n      mul\n      0x20\n      add\n      add\n      mload\n        /* \"utils/Utils.sol\":1604:1628  players[i].ticketNumbers */\n      0x00\n      add\n      mload\n        /* \"utils/Utils.sol\":1629:1630  x */\n      dup3\n        /* \"utils/Utils.sol\":1604:1631  players[i].ticketNumbers[x] */\n      dup2\n      mload\n      dup2\n      lt\n      tag_348\n      jumpi\n      tag_349\n      tag_204\n      jump\t// in\n    tag_349:\n    tag_348:\n      0x20\n      mul\n      0x20\n      add\n      add\n      mload\n        /* \"utils/Utils.sol\":1632:1633  j */\n      dup5\n        /* \"utils/Utils.sol\":1604:1634  players[i].ticketNumbers[x][j] */\n      0x05\n      dup2\n      lt\n      tag_350\n      jumpi\n      tag_351\n      tag_204\n      jump\t// in\n    tag_351:\n    tag_350:\n      0x20\n      mul\n      add\n      mload\n        /* \"utils/Utils.sol\":1604:1655  players[i].ticketNumbers[x][j] != winningNumbers[x] */\n      0xff\n      and\n      eq\n        /* \"utils/Utils.sol\":1600:1748  if (players[i].ticketNumbers[x][j] != winningNumbers[x]) {... */\n      tag_352\n      jumpi\n        /* \"utils/Utils.sol\":1697:1702  false */\n      0x00\n        /* \"utils/Utils.sol\":1679:1702  isJackpotWinner = false */\n      swap2\n      pop\n        /* \"utils/Utils.sol\":1724:1729  break */\n      jump(tag_342)\n        /* \"utils/Utils.sol\":1600:1748  if (players[i].ticketNumbers[x][j] != winningNumbers[x]) {... */\n    tag_352:\n        /* \"utils/Utils.sol\":1577:1580  x++ */\n      dup1\n      dup1\n      0x01\n      add\n      swap2\n      pop\n      pop\n        /* \"utils/Utils.sol\":1550:1762  for (uint256 x = 0; x < 5; x++) {... */\n      jump(tag_341)\n    tag_342:\n      pop\n        /* \"utils/Utils.sol\":1780:1795  isJackpotWinner */\n      dup1\n        /* \"utils/Utils.sol\":1776:1896  if (isJackpotWinner) {... */\n      iszero\n      tag_353\n      jumpi\n        /* \"utils/Utils.sol\":1838:1847  addresses */\n      dup11\n        /* \"utils/Utils.sol\":1848:1849  i */\n      dup5\n        /* \"utils/Utils.sol\":1838:1850  addresses[i] */\n      dup2\n      mload\n      dup2\n      lt\n      tag_354\n      jumpi\n      tag_355\n      tag_204\n      jump\t// in\n    tag_355:\n    tag_354:\n      0x20\n      mul\n      0x20\n      add\n      add\n      mload\n        /* \"utils/Utils.sol\":1815:1822  winners */\n      dup10\n        /* \"utils/Utils.sol\":1823:1834  winnerIndex */\n      dup8\n        /* \"utils/Utils.sol\":1815:1835  winners[winnerIndex] */\n      dup2\n      mload\n      dup2\n      lt\n      tag_356\n      jumpi\n      tag_357\n      tag_204\n      jump\t// in\n    tag_357:\n    tag_356:\n      0x20\n      mul\n      0x20\n      add\n      add\n        /* \"utils/Utils.sol\":1815:1850  winners[winnerIndex] = addresses[i] */\n      swap1\n      0xffffffffffffffffffffffffffffffffffffffff\n      and\n      swap1\n      dup2\n      0xffffffffffffffffffffffffffffffffffffffff\n      and\n      dup2\n      mstore\n      pop\n      pop\n        /* \"utils/Utils.sol\":1868:1881  winnerIndex++ */\n      dup6\n      dup1\n      tag_358\n      swap1\n      tag_359\n      jump\t// in\n    tag_358:\n      swap7\n      pop\n      pop\n        /* \"utils/Utils.sol\":1776:1896  if (isJackpotWinner) {... */\n    tag_353:\n        /* \"utils/Utils.sol\":1494:1906  {... */\n      pop\n        /* \"utils/Utils.sol\":1489:1492  j++ */\n      dup1\n      dup1\n      0x01\n      add\n      swap2\n      pop\n      pop\n        /* \"utils/Utils.sol\":1462:1906  for (uint256 j = 0; j < n; j++) {... */\n      jump(tag_338)\n    tag_339:\n      pop\n        /* \"utils/Utils.sol\":1403:1912  {... */\n      pop\n        /* \"utils/Utils.sol\":1398:1401  i++ */\n      dup1\n      dup1\n      0x01\n      add\n      swap2\n      pop\n      pop\n        /* \"utils/Utils.sol\":1358:1912  for (uint256 i = 0; i < players.length; i++) {... */\n      jump(tag_333)\n    tag_334:\n      pop\n        /* \"utils/Utils.sol\":1926:1933  winners */\n      dup5\n        /* \"utils/Utils.sol\":1935:1940  share */\n      dup2\n        /* \"utils/Utils.sol\":1918:1941  return (winners, share) */\n      swap5\n      pop\n      swap5\n      pop\n      pop\n      pop\n      pop\n        /* \"utils/Utils.sol\":89:1944  function determinePrizes(... */\n    tag_298:\n      swap5\n      pop\n      swap5\n      swap3\n      pop\n      pop\n      pop\n      jump\t// out\n        /* \"contract/Lottery.sol\":11813:12319  function validateTicketNumbers(... */\n    tag_258:\n        /* \"contract/Lottery.sol\":11923:11932  uint256 i */\n      0x00\n        /* \"contract/Lottery.sol\":11935:11936  0 */\n      0x00\n        /* \"contract/Lottery.sol\":11923:11936  uint256 i = 0 */\n      swap1\n      pop\n        /* \"contract/Lottery.sol\":11918:12312  for (uint256 i = 0; i < 5; i++) {... */\n    tag_361:\n        /* \"contract/Lottery.sol\":11942:11943  5 */\n      0x05\n        /* \"contract/Lottery.sol\":11938:11939  i */\n      dup2\n        /* \"contract/Lottery.sol\":11938:11943  i < 5 */\n      lt\n        /* \"contract/Lottery.sol\":11918:12312  for (uint256 i = 0; i < 5; i++) {... */\n      iszero\n      tag_362\n      jumpi\n        /* \"contract/Lottery.sol\":12011:12012  1 */\n      0x01\n        /* \"contract/Lottery.sol\":11991:12004  ticketNumbers */\n      dup3\n        /* \"contract/Lottery.sol\":12005:12006  i */\n      dup3\n        /* \"contract/Lottery.sol\":11991:12007  ticketNumbers[i] */\n      0x05\n      dup2\n      lt\n      tag_364\n      jumpi\n      tag_365\n      tag_204\n      jump\t// in\n    tag_365:\n    tag_364:\n      0x20\n      mul\n      add\n      0x20\n      dup2\n      add\n      swap1\n      tag_366\n      swap2\n      swap1\n      tag_367\n      jump\t// in\n    tag_366:\n        /* \"contract/Lottery.sol\":11991:12012  ticketNumbers[i] >= 1 */\n      0xff\n      and\n      lt\n      iszero\n        /* \"contract/Lottery.sol\":11991:12038  ticketNumbers[i] >= 1 && ticketNumbers[i] <= 99 */\n      dup1\n      iszero\n      tag_368\n      jumpi\n      pop\n        /* \"contract/Lottery.sol\":12036:12038  99 */\n      0x63\n        /* \"contract/Lottery.sol\":12016:12029  ticketNumbers */\n      dup3\n        /* \"contract/Lottery.sol\":12030:12031  i */\n      dup3\n        /* \"contract/Lottery.sol\":12016:12032  ticketNumbers[i] */\n      0x05\n      dup2\n      lt\n      tag_369\n      jumpi\n      tag_370\n      tag_204\n      jump\t// in\n    tag_370:\n    tag_369:\n      0x20\n      mul\n      add\n      0x20\n      dup2\n      add\n      swap1\n      tag_371\n      swap2\n      swap1\n      tag_367\n      jump\t// in\n    tag_371:\n        /* \"contract/Lottery.sol\":12016:12038  ticketNumbers[i] <= 99 */\n      0xff\n      and\n      gt\n      iszero\n        /* \"contract/Lottery.sol\":11991:12038  ticketNumbers[i] >= 1 && ticketNumbers[i] <= 99 */\n    tag_368:\n        /* \"contract/Lottery.sol\":11965:12086  require(... */\n      tag_372\n      jumpi\n      mload(0x40)\n      0x08c379a000000000000000000000000000000000000000000000000000000000\n      dup2\n      mstore\n      0x04\n      add\n      tag_373\n      swap1\n      tag_374\n      jump\t// in\n    tag_373:\n      mload(0x40)\n      dup1\n      swap2\n      sub\n      swap1\n      revert\n    tag_372:\n        /* \"contract/Lottery.sol\":12106:12115  uint256 j */\n      0x00\n        /* \"contract/Lottery.sol\":12122:12123  1 */\n      0x01\n        /* \"contract/Lottery.sol\":12118:12119  i */\n      dup3\n        /* \"contract/Lottery.sol\":12118:12123  i + 1 */\n      tag_378\n      swap2\n      swap1\n      tag_135\n      jump\t// in\n    tag_378:\n        /* \"contract/Lottery.sol\":12106:12123  uint256 j = i + 1 */\n      swap1\n      pop\n        /* \"contract/Lottery.sol\":12101:12301  for (uint256 j = i + 1; j < 5; j++) {... */\n    tag_375:\n        /* \"contract/Lottery.sol\":12129:12130  5 */\n      0x05\n        /* \"contract/Lottery.sol\":12125:12126  j */\n      dup2\n        /* \"contract/Lottery.sol\":12125:12130  j < 5 */\n      lt\n        /* \"contract/Lottery.sol\":12101:12301  for (uint256 j = i + 1; j < 5; j++) {... */\n      iszero\n      tag_376\n      jumpi\n        /* \"contract/Lottery.sol\":12206:12219  ticketNumbers */\n      dup3\n        /* \"contract/Lottery.sol\":12220:12221  j */\n      dup2\n        /* \"contract/Lottery.sol\":12206:12222  ticketNumbers[j] */\n      0x05\n      dup2\n      lt\n      tag_379\n      jumpi\n      tag_380\n      tag_204\n      jump\t// in\n    tag_380:\n    tag_379:\n      0x20\n      mul\n      add\n      0x20\n      dup2\n      add\n      swap1\n      tag_381\n      swap2\n      swap1\n      tag_367\n      jump\t// in\n    tag_381:\n        /* \"contract/Lottery.sol\":12186:12222  ticketNumbers[i] != ticketNumbers[j] */\n      0xff\n      and\n        /* \"contract/Lottery.sol\":12186:12199  ticketNumbers */\n      dup4\n        /* \"contract/Lottery.sol\":12200:12201  i */\n      dup4\n        /* \"contract/Lottery.sol\":12186:12202  ticketNumbers[i] */\n      0x05\n      dup2\n      lt\n      tag_382\n      jumpi\n      tag_383\n      tag_204\n      jump\t// in\n    tag_383:\n    tag_382:\n      0x20\n      mul\n      add\n      0x20\n      dup2\n      add\n      swap1\n      tag_384\n      swap2\n      swap1\n      tag_367\n      jump\t// in\n    tag_384:\n        /* \"contract/Lottery.sol\":12186:12222  ticketNumbers[i] != ticketNumbers[j] */\n      0xff\n      and\n      sub\n        /* \"contract/Lottery.sol\":12156:12285  require(... */\n      tag_385\n      jumpi\n      mload(0x40)\n      0x08c379a000000000000000000000000000000000000000000000000000000000\n      dup2\n      mstore\n      0x04\n      add\n      tag_386\n      swap1\n      tag_387\n      jump\t// in\n    tag_386:\n      mload(0x40)\n      dup1\n      swap2\n      sub\n      swap1\n      revert\n    tag_385:\n        /* \"contract/Lottery.sol\":12132:12135  j++ */\n      dup1\n      dup1\n      0x01\n      add\n      swap2\n      pop\n      pop\n        /* \"contract/Lottery.sol\":12101:12301  for (uint256 j = i + 1; j < 5; j++) {... */\n      jump(tag_375)\n    tag_376:\n      pop\n        /* \"contract/Lottery.sol\":11945:11948  i++ */\n      dup1\n      dup1\n      0x01\n      add\n      swap2\n      pop\n      pop\n        /* \"contract/Lottery.sol\":11918:12312  for (uint256 i = 0; i < 5; i++) {... */\n      jump(tag_361)\n    tag_362:\n      pop\n        /* \"contract/Lottery.sol\":11813:12319  function validateTicketNumbers(... */\n      pop\n      jump\t// out\n    tag_193:\n      mload(0x40)\n      dup1\n      0xa0\n      add\n      0x40\n      mstore\n      dup1\n      0x05\n      swap1\n      0x20\n      dup3\n      mul\n      dup1\n      calldatasize\n      dup4\n      calldatacopy\n      dup1\n      dup3\n      add\n      swap2\n      pop\n      pop\n      swap1\n      pop\n      pop\n      swap1\n      jump\t// out\n    tag_211:\n      mload(0x40)\n      dup1\n      0x60\n      add\n      0x40\n      mstore\n      dup1\n      0x60\n      dup2\n      mstore\n      0x20\n      add\n      iszero(iszero(0x00))\n      dup2\n      mstore\n      0x20\n      add\n      and(0xffff, 0x00)\n      dup2\n      mstore\n      pop\n      swap1\n      jump\t// out\n    tag_247:\n      pop\n      dup1\n      sload\n      0x00\n      dup3\n      sstore\n      swap1\n      0x00\n      mstore\n      keccak256(0x00, 0x20)\n      swap1\n      dup2\n      add\n      swap1\n      tag_389\n      swap2\n      swap1\n      tag_390\n      jump\t// in\n    tag_389:\n      pop\n      jump\t// out\n    tag_249:\n      pop\n      dup1\n      sload\n      0x00\n      dup3\n      sstore\n      swap1\n      0x00\n      mstore\n      keccak256(0x00, 0x20)\n      swap1\n      dup2\n      add\n      swap1\n      tag_392\n      swap2\n      swap1\n      tag_393\n      jump\t// in\n    tag_392:\n      pop\n      jump\t// out\n    tag_271:\n      dup3\n      add(0x1f, 0x05)\n      0x20\n      swap1\n      div\n      dup2\n      add\n      swap3\n      dup3\n      iszero\n      tag_394\n      jumpi\n      swap2\n      0x20\n      mul\n      dup3\n      add\n      0x00\n    tag_395:\n      dup4\n      dup3\n      gt\n      iszero\n      tag_396\n      jumpi\n      dup4\n      calldataload\n      0xff\n      and\n      dup4\n      dup3\n      0x0100\n      exp\n      dup2\n      sload\n      dup2\n      0xff\n      mul\n      not\n      and\n      swap1\n      dup4\n      0xff\n      and\n      mul\n      or\n      swap1\n      sstore\n      pop\n      swap3\n      0x20\n      add\n      swap3\n      0x01\n      add\n      0x20\n      dup2\n      0x00\n      add\n      div\n      swap3\n      dup4\n      add\n      swap3\n      0x01\n      sub\n      mul\n      jump(tag_395)\n    tag_396:\n      dup1\n      iszero\n      tag_397\n      jumpi\n      dup3\n      dup2\n      0x0100\n      exp\n      dup2\n      sload\n      swap1\n      0xff\n      mul\n      not\n      and\n      swap1\n      sstore\n      0x01\n      add\n      0x20\n      dup2\n      0x00\n      add\n      div\n      swap3\n      dup4\n      add\n      swap3\n      0x01\n      sub\n      mul\n      jump(tag_396)\n    tag_397:\n      pop\n    tag_394:\n      pop\n      swap1\n      pop\n      tag_398\n      swap2\n      swap1\n      tag_393\n      jump\t// in\n    tag_398:\n      pop\n      swap1\n      jump\t// out\n    tag_390:\n    tag_399:\n      dup1\n      dup3\n      gt\n      iszero\n      tag_400\n      jumpi\n      0x00\n      dup2\n      dup2\n      tag_401\n      swap2\n      swap1\n      tag_402\n      jump\t// in\n    tag_401:\n      pop\n      0x01\n      add\n      jump(tag_399)\n    tag_400:\n      pop\n      swap1\n      jump\t// out\n    tag_393:\n    tag_403:\n      dup1\n      dup3\n      gt\n      iszero\n      tag_404\n      jumpi\n      0x00\n      dup2\n      0x00\n      swap1\n      sstore\n      pop\n      0x01\n      add\n      jump(tag_403)\n    tag_404:\n      pop\n      swap1\n      jump\t// out\n    tag_402:\n      pop\n      0x00\n      swap1\n      sstore\n      jump\t// out\n        /* \"#utility.yul\":7:97   */\n    tag_405:\n        /* \"#utility.yul\":41:48   */\n      0x00\n        /* \"#utility.yul\":84:89   */\n      dup2\n        /* \"#utility.yul\":77:90   */\n      iszero\n        /* \"#utility.yul\":70:91   */\n      iszero\n        /* \"#utility.yul\":59:91   */\n      swap1\n      pop\n        /* \"#utility.yul\":7:97   */\n      swap2\n      swap1\n      pop\n      jump\t// out\n        /* \"#utility.yul\":103:212   */\n    tag_406:\n        /* \"#utility.yul\":184:205   */\n      tag_500\n        /* \"#utility.yul\":199:204   */\n      dup2\n        /* \"#utility.yul\":184:205   */\n      tag_405\n      jump\t// in\n    tag_500:\n        /* \"#utility.yul\":179:182   */\n      dup3\n        /* \"#utility.yul\":172:206   */\n      mstore\n        /* \"#utility.yul\":103:212   */\n      pop\n      pop\n      jump\t// out\n        /* \"#utility.yul\":218:428   */\n    tag_31:\n        /* \"#utility.yul\":305:309   */\n      0x00\n        /* \"#utility.yul\":343:345   */\n      0x20\n        /* \"#utility.yul\":332:341   */\n      dup3\n        /* \"#utility.yul\":328:346   */\n      add\n        /* \"#utility.yul\":320:346   */\n      swap1\n      pop\n        /* \"#utility.yul\":356:421   */\n      tag_502\n        /* \"#utility.yul\":418:419   */\n      0x00\n        /* \"#utility.yul\":407:416   */\n      dup4\n        /* \"#utility.yul\":403:420   */\n      add\n        /* \"#utility.yul\":394:400   */\n      dup5\n        /* \"#utility.yul\":356:421   */\n      tag_406\n      jump\t// in\n    tag_502:\n        /* \"#utility.yul\":218:428   */\n      swap3\n      swap2\n      pop\n      pop\n      jump\t// out\n        /* \"#utility.yul\":434:511   */\n    tag_407:\n        /* \"#utility.yul\":471:478   */\n      0x00\n        /* \"#utility.yul\":500:505   */\n      dup2\n        /* \"#utility.yul\":489:505   */\n      swap1\n      pop\n        /* \"#utility.yul\":434:511   */\n      swap2\n      swap1\n      pop\n      jump\t// out\n        /* \"#utility.yul\":517:635   */\n    tag_408:\n        /* \"#utility.yul\":604:628   */\n      tag_505\n        /* \"#utility.yul\":622:627   */\n      dup2\n        /* \"#utility.yul\":604:628   */\n      tag_407\n      jump\t// in\n    tag_505:\n        /* \"#utility.yul\":599:602   */\n      dup3\n        /* \"#utility.yul\":592:629   */\n      mstore\n        /* \"#utility.yul\":517:635   */\n      pop\n      pop\n      jump\t// out\n        /* \"#utility.yul\":641:863   */\n    tag_39:\n        /* \"#utility.yul\":734:738   */\n      0x00\n        /* \"#utility.yul\":772:774   */\n      0x20\n        /* \"#utility.yul\":761:770   */\n      dup3\n        /* \"#utility.yul\":757:775   */\n      add\n        /* \"#utility.yul\":749:775   */\n      swap1\n      pop\n        /* \"#utility.yul\":785:856   */\n      tag_507\n        /* \"#utility.yul\":853:854   */\n      0x00\n        /* \"#utility.yul\":842:851   */\n      dup4\n        /* \"#utility.yul\":838:855   */\n      add\n        /* \"#utility.yul\":829:835   */\n      dup5\n        /* \"#utility.yul\":785:856   */\n      tag_408\n      jump\t// in\n    tag_507:\n        /* \"#utility.yul\":641:863   */\n      swap3\n      swap2\n      pop\n      pop\n      jump\t// out\n        /* \"#utility.yul\":950:1067   */\n    tag_410:\n        /* \"#utility.yul\":1059:1060   */\n      0x00\n        /* \"#utility.yul\":1056:1057   */\n      0x00\n        /* \"#utility.yul\":1049:1061   */\n      revert\n        /* \"#utility.yul\":1196:1322   */\n    tag_412:\n        /* \"#utility.yul\":1233:1240   */\n      0x00\n        /* \"#utility.yul\":1273:1315   */\n      0xffffffffffffffffffffffffffffffffffffffff\n        /* \"#utility.yul\":1266:1271   */\n      dup3\n        /* \"#utility.yul\":1262:1316   */\n      and\n        /* \"#utility.yul\":1251:1316   */\n      swap1\n      pop\n        /* \"#utility.yul\":1196:1322   */\n      swap2\n      swap1\n      pop\n      jump\t// out\n        /* \"#utility.yul\":1328:1424   */\n    tag_413:\n        /* \"#utility.yul\":1365:1372   */\n      0x00\n        /* \"#utility.yul\":1394:1418   */\n      tag_513\n        /* \"#utility.yul\":1412:1417   */\n      dup3\n        /* \"#utility.yul\":1394:1418   */\n      tag_412\n      jump\t// in\n    tag_513:\n        /* \"#utility.yul\":1383:1418   */\n      swap1\n      pop\n        /* \"#utility.yul\":1328:1424   */\n      swap2\n      swap1\n      pop\n      jump\t// out\n        /* \"#utility.yul\":1430:1552   */\n    tag_414:\n        /* \"#utility.yul\":1503:1527   */\n      tag_515\n        /* \"#utility.yul\":1521:1526   */\n      dup2\n        /* \"#utility.yul\":1503:1527   */\n      tag_413\n      jump\t// in\n    tag_515:\n        /* \"#utility.yul\":1496:1501   */\n      dup2\n        /* \"#utility.yul\":1493:1528   */\n      eq\n        /* \"#utility.yul\":1483:1546   */\n      tag_516\n      jumpi\n        /* \"#utility.yul\":1542:1543   */\n      0x00\n        /* \"#utility.yul\":1539:1540   */\n      0x00\n        /* \"#utility.yul\":1532:1544   */\n      revert\n        /* \"#utility.yul\":1483:1546   */\n    tag_516:\n        /* \"#utility.yul\":1430:1552   */\n      pop\n      jump\t// out\n        /* \"#utility.yul\":1558:1697   */\n    tag_415:\n        /* \"#utility.yul\":1604:1609   */\n      0x00\n        /* \"#utility.yul\":1642:1648   */\n      dup2\n        /* \"#utility.yul\":1629:1649   */\n      calldataload\n        /* \"#utility.yul\":1620:1649   */\n      swap1\n      pop\n        /* \"#utility.yul\":1658:1691   */\n      tag_518\n        /* \"#utility.yul\":1685:1690   */\n      dup2\n        /* \"#utility.yul\":1658:1691   */\n      tag_414\n      jump\t// in\n    tag_518:\n        /* \"#utility.yul\":1558:1697   */\n      swap3\n      swap2\n      pop\n      pop\n      jump\t// out\n        /* \"#utility.yul\":1703:2032   */\n    tag_43:\n        /* \"#utility.yul\":1762:1768   */\n      0x00\n        /* \"#utility.yul\":1811:1813   */\n      0x20\n        /* \"#utility.yul\":1799:1808   */\n      dup3\n        /* \"#utility.yul\":1790:1797   */\n      dup5\n        /* \"#utility.yul\":1786:1809   */\n      sub\n        /* \"#utility.yul\":1782:1814   */\n      slt\n        /* \"#utility.yul\":1779:1898   */\n      iszero\n      tag_520\n      jumpi\n        /* \"#utility.yul\":1817:1896   */\n      tag_521\n      tag_410\n      jump\t// in\n    tag_521:\n        /* \"#utility.yul\":1779:1898   */\n    tag_520:\n        /* \"#utility.yul\":1937:1938   */\n      0x00\n        /* \"#utility.yul\":1962:2015   */\n      tag_522\n        /* \"#utility.yul\":2007:2014   */\n      dup5\n        /* \"#utility.yul\":1998:2004   */\n      dup3\n        /* \"#utility.yul\":1987:1996   */\n      dup6\n        /* \"#utility.yul\":1983:2005   */\n      add\n        /* \"#utility.yul\":1962:2015   */\n      tag_415\n      jump\t// in\n    tag_522:\n        /* \"#utility.yul\":1952:2015   */\n      swap2\n      pop\n        /* \"#utility.yul\":1908:2025   */\n      pop\n        /* \"#utility.yul\":1703:2032   */\n      swap3\n      swap2\n      pop\n      pop\n      jump\t// out\n        /* \"#utility.yul\":2038:2127   */\n    tag_416:\n        /* \"#utility.yul\":2074:2081   */\n      0x00\n        /* \"#utility.yul\":2114:2120   */\n      0xffff\n        /* \"#utility.yul\":2107:2112   */\n      dup3\n        /* \"#utility.yul\":2103:2121   */\n      and\n        /* \"#utility.yul\":2092:2121   */\n      swap1\n      pop\n        /* \"#utility.yul\":2038:2127   */\n      swap2\n      swap1\n      pop\n      jump\t// out\n        /* \"#utility.yul\":2133:2253   */\n    tag_417:\n        /* \"#utility.yul\":2205:2228   */\n      tag_525\n        /* \"#utility.yul\":2222:2227   */\n      dup2\n        /* \"#utility.yul\":2205:2228   */\n      tag_416\n      jump\t// in\n    tag_525:\n        /* \"#utility.yul\":2198:2203   */\n      dup2\n        /* \"#utility.yul\":2195:2229   */\n      eq\n        /* \"#utility.yul\":2185:2247   */\n      tag_526\n      jumpi\n        /* \"#utility.yul\":2243:2244   */\n      0x00\n        /* \"#utility.yul\":2240:2241   */\n      0x00\n        /* \"#utility.yul\":2233:2245   */\n      revert\n        /* \"#utility.yul\":2185:2247   */\n    tag_526:\n        /* \"#utility.yul\":2133:2253   */\n      pop\n      jump\t// out\n        /* \"#utility.yul\":2259:2396   */\n    tag_418:\n        /* \"#utility.yul\":2304:2309   */\n      0x00\n        /* \"#utility.yul\":2342:2348   */\n      dup2\n        /* \"#utility.yul\":2329:2349   */\n      calldataload\n        /* \"#utility.yul\":2320:2349   */\n      swap1\n      pop\n        /* \"#utility.yul\":2358:2390   */\n      tag_528\n        /* \"#utility.yul\":2384:2389   */\n      dup2\n        /* \"#utility.yul\":2358:2390   */\n      tag_417\n      jump\t// in\n    tag_528:\n        /* \"#utility.yul\":2259:2396   */\n      swap3\n      swap2\n      pop\n      pop\n      jump\t// out\n        /* \"#utility.yul\":2402:2729   */\n    tag_53:\n        /* \"#utility.yul\":2460:2466   */\n      0x00\n        /* \"#utility.yul\":2509:2511   */\n      0x20\n        /* \"#utility.yul\":2497:2506   */\n      dup3\n        /* \"#utility.yul\":2488:2495   */\n      dup5\n        /* \"#utility.yul\":2484:2507   */\n      sub\n        /* \"#utility.yul\":2480:2512   */\n      slt\n        /* \"#utility.yul\":2477:2596   */\n      iszero\n      tag_530\n      jumpi\n        /* \"#utility.yul\":2515:2594   */\n      tag_531\n      tag_410\n      jump\t// in\n    tag_531:\n        /* \"#utility.yul\":2477:2596   */\n    tag_530:\n        /* \"#utility.yul\":2635:2636   */\n      0x00\n        /* \"#utility.yul\":2660:2712   */\n      tag_532\n        /* \"#utility.yul\":2704:2711   */\n      dup5\n        /* \"#utility.yul\":2695:2701   */\n      dup3\n        /* \"#utility.yul\":2684:2693   */\n      dup6\n        /* \"#utility.yul\":2680:2702   */\n      add\n        /* \"#utility.yul\":2660:2712   */\n      tag_418\n      jump\t// in\n    tag_532:\n        /* \"#utility.yul\":2650:2712   */\n      swap2\n      pop\n        /* \"#utility.yul\":2606:2722   */\n      pop\n        /* \"#utility.yul\":2402:2729   */\n      swap3\n      swap2\n      pop\n      pop\n      jump\t// out\n        /* \"#utility.yul\":2735:2850   */\n    tag_419:\n        /* \"#utility.yul\":2820:2843   */\n      tag_534\n        /* \"#utility.yul\":2837:2842   */\n      dup2\n        /* \"#utility.yul\":2820:2843   */\n      tag_416\n      jump\t// in\n    tag_534:\n        /* \"#utility.yul\":2815:2818   */\n      dup3\n        /* \"#utility.yul\":2808:2844   */\n      mstore\n        /* \"#utility.yul\":2735:2850   */\n      pop\n      pop\n      jump\t// out\n        /* \"#utility.yul\":2856:3074   */\n    tag_82:\n        /* \"#utility.yul\":2947:2951   */\n      0x00\n        /* \"#utility.yul\":2985:2987   */\n      0x20\n        /* \"#utility.yul\":2974:2983   */\n      dup3\n        /* \"#utility.yul\":2970:2988   */\n      add\n        /* \"#utility.yul\":2962:2988   */\n      swap1\n      pop\n        /* \"#utility.yul\":2998:3067   */\n      tag_536\n        /* \"#utility.yul\":3064:3065   */\n      0x00\n        /* \"#utility.yul\":3053:3062   */\n      dup4\n        /* \"#utility.yul\":3049:3066   */\n      add\n        /* \"#utility.yul\":3040:3046   */\n      dup5\n        /* \"#utility.yul\":2998:3067   */\n      tag_419\n      jump\t// in\n    tag_536:\n        /* \"#utility.yul\":2856:3074   */\n      swap3\n      swap2\n      pop\n      pop\n      jump\t// out\n        /* \"#utility.yul\":3080:3396   */\n    tag_92:\n        /* \"#utility.yul\":3193:3197   */\n      0x00\n        /* \"#utility.yul\":3231:3233   */\n      0x40\n        /* \"#utility.yul\":3220:3229   */\n      dup3\n        /* \"#utility.yul\":3216:3234   */\n      add\n        /* \"#utility.yul\":3208:3234   */\n      swap1\n      pop\n        /* \"#utility.yul\":3244:3309   */\n      tag_538\n        /* \"#utility.yul\":3306:3307   */\n      0x00\n        /* \"#utility.yul\":3295:3304   */\n      dup4\n        /* \"#utility.yul\":3291:3308   */\n      add\n        /* \"#utility.yul\":3282:3288   */\n      dup6\n        /* \"#utility.yul\":3244:3309   */\n      tag_406\n      jump\t// in\n    tag_538:\n        /* \"#utility.yul\":3319:3389   */\n      tag_539\n        /* \"#utility.yul\":3385:3387   */\n      0x20\n        /* \"#utility.yul\":3374:3383   */\n      dup4\n        /* \"#utility.yul\":3370:3388   */\n      add\n        /* \"#utility.yul\":3361:3367   */\n      dup5\n        /* \"#utility.yul\":3319:3389   */\n      tag_419\n      jump\t// in\n    tag_539:\n        /* \"#utility.yul\":3080:3396   */\n      swap4\n      swap3\n      pop\n      pop\n      pop\n      jump\t// out\n        /* \"#utility.yul\":3402:3519   */\n    tag_420:\n        /* \"#utility.yul\":3511:3512   */\n      0x00\n        /* \"#utility.yul\":3508:3509   */\n      0x00\n        /* \"#utility.yul\":3501:3513   */\n      revert\n        /* \"#utility.yul\":3541:3788   */\n    tag_421:\n        /* \"#utility.yul\":3610:3618   */\n      0x00\n        /* \"#utility.yul\":3641:3647   */\n      dup2\n        /* \"#utility.yul\":3629:3647   */\n      swap1\n      pop\n        /* \"#utility.yul\":3694:3697   */\n      dup3\n        /* \"#utility.yul\":3686:3690   */\n      0x20\n        /* \"#utility.yul\":3680:3684   */\n      0x05\n        /* \"#utility.yul\":3676:3691   */\n      mul\n        /* \"#utility.yul\":3666:3674   */\n      dup3\n        /* \"#utility.yul\":3662:3692   */\n      add\n        /* \"#utility.yul\":3659:3698   */\n      gt\n        /* \"#utility.yul\":3656:3782   */\n      iszero\n      tag_542\n      jumpi\n        /* \"#utility.yul\":3701:3780   */\n      tag_543\n      tag_420\n      jump\t// in\n    tag_543:\n        /* \"#utility.yul\":3656:3782   */\n    tag_542:\n        /* \"#utility.yul\":3541:3788   */\n      swap3\n      swap2\n      pop\n      pop\n      jump\t// out\n        /* \"#utility.yul\":3794:4170   */\n    tag_103:\n        /* \"#utility.yul\":3876:3882   */\n      0x00\n        /* \"#utility.yul\":3925:3928   */\n      0xa0\n        /* \"#utility.yul\":3913:3922   */\n      dup3\n        /* \"#utility.yul\":3904:3911   */\n      dup5\n        /* \"#utility.yul\":3900:3923   */\n      sub\n        /* \"#utility.yul\":3896:3929   */\n      slt\n        /* \"#utility.yul\":3893:4013   */\n      iszero\n      tag_545\n      jumpi\n        /* \"#utility.yul\":3932:4011   */\n      tag_546\n      tag_410\n      jump\t// in\n    tag_546:\n        /* \"#utility.yul\":3893:4013   */\n    tag_545:\n        /* \"#utility.yul\":4052:4053   */\n      0x00\n        /* \"#utility.yul\":4077:4153   */\n      tag_547\n        /* \"#utility.yul\":4145:4152   */\n      dup5\n        /* \"#utility.yul\":4136:4142   */\n      dup3\n        /* \"#utility.yul\":4125:4134   */\n      dup6\n        /* \"#utility.yul\":4121:4143   */\n      add\n        /* \"#utility.yul\":4077:4153   */\n      tag_421\n      jump\t// in\n    tag_547:\n        /* \"#utility.yul\":4067:4153   */\n      swap2\n      pop\n        /* \"#utility.yul\":4023:4163   */\n      pop\n        /* \"#utility.yul\":3794:4170   */\n      swap3\n      swap2\n      pop\n      pop\n      jump\t// out\n        /* \"#utility.yul\":4176:4280   */\n    tag_422:\n        /* \"#utility.yul\":4221:4228   */\n      0x00\n        /* \"#utility.yul\":4250:4274   */\n      tag_549\n        /* \"#utility.yul\":4268:4273   */\n      dup3\n        /* \"#utility.yul\":4250:4274   */\n      tag_412\n      jump\t// in\n    tag_549:\n        /* \"#utility.yul\":4239:4274   */\n      swap1\n      pop\n        /* \"#utility.yul\":4176:4280   */\n      swap2\n      swap1\n      pop\n      jump\t// out\n        /* \"#utility.yul\":4286:4428   */\n    tag_423:\n        /* \"#utility.yul\":4389:4421   */\n      tag_551\n        /* \"#utility.yul\":4415:4420   */\n      dup2\n        /* \"#utility.yul\":4389:4421   */\n      tag_422\n      jump\t// in\n    tag_551:\n        /* \"#utility.yul\":4384:4387   */\n      dup3\n        /* \"#utility.yul\":4377:4422   */\n      mstore\n        /* \"#utility.yul\":4286:4428   */\n      pop\n      pop\n      jump\t// out\n        /* \"#utility.yul\":4434:4688   */\n    tag_117:\n        /* \"#utility.yul\":4543:4547   */\n      0x00\n        /* \"#utility.yul\":4581:4583   */\n      0x20\n        /* \"#utility.yul\":4570:4579   */\n      dup3\n        /* \"#utility.yul\":4566:4584   */\n      add\n        /* \"#utility.yul\":4558:4584   */\n      swap1\n      pop\n        /* \"#utility.yul\":4594:4681   */\n      tag_553\n        /* \"#utility.yul\":4678:4679   */\n      0x00\n        /* \"#utility.yul\":4667:4676   */\n      dup4\n        /* \"#utility.yul\":4663:4680   */\n      add\n        /* \"#utility.yul\":4654:4660   */\n      dup5\n        /* \"#utility.yul\":4594:4681   */\n      tag_423\n      jump\t// in\n    tag_553:\n        /* \"#utility.yul\":4434:4688   */\n      swap3\n      swap2\n      pop\n      pop\n      jump\t// out\n        /* \"#utility.yul\":4694:4816   */\n    tag_424:\n        /* \"#utility.yul\":4767:4791   */\n      tag_555\n        /* \"#utility.yul\":4785:4790   */\n      dup2\n        /* \"#utility.yul\":4767:4791   */\n      tag_407\n      jump\t// in\n    tag_555:\n        /* \"#utility.yul\":4760:4765   */\n      dup2\n        /* \"#utility.yul\":4757:4792   */\n      eq\n        /* \"#utility.yul\":4747:4810   */\n      tag_556\n      jumpi\n        /* \"#utility.yul\":4806:4807   */\n      0x00\n        /* \"#utility.yul\":4803:4804   */\n      0x00\n        /* \"#utility.yul\":4796:4808   */\n      revert\n        /* \"#utility.yul\":4747:4810   */\n    tag_556:\n        /* \"#utility.yul\":4694:4816   */\n      pop\n      jump\t// out\n        /* \"#utility.yul\":4822:4961   */\n    tag_425:\n        /* \"#utility.yul\":4868:4873   */\n      0x00\n        /* \"#utility.yul\":4906:4912   */\n      dup2\n        /* \"#utility.yul\":4893:4913   */\n      calldataload\n        /* \"#utility.yul\":4884:4913   */\n      swap1\n      pop\n        /* \"#utility.yul\":4922:4955   */\n      tag_558\n        /* \"#utility.yul\":4949:4954   */\n      dup2\n        /* \"#utility.yul\":4922:4955   */\n      tag_424\n      jump\t// in\n    tag_558:\n        /* \"#utility.yul\":4822:4961   */\n      swap3\n      swap2\n      pop\n      pop\n      jump\t// out\n        /* \"#utility.yul\":4967:5296   */\n    tag_121:\n        /* \"#utility.yul\":5026:5032   */\n      0x00\n        /* \"#utility.yul\":5075:5077   */\n      0x20\n        /* \"#utility.yul\":5063:5072   */\n      dup3\n        /* \"#utility.yul\":5054:5061   */\n      dup5\n        /* \"#utility.yul\":5050:5073   */\n      sub\n        /* \"#utility.yul\":5046:5078   */\n      slt\n        /* \"#utility.yul\":5043:5162   */\n      iszero\n      tag_560\n      jumpi\n        /* \"#utility.yul\":5081:5160   */\n      tag_561\n      tag_410\n      jump\t// in\n    tag_561:\n        /* \"#utility.yul\":5043:5162   */\n    tag_560:\n        /* \"#utility.yul\":5201:5202   */\n      0x00\n        /* \"#utility.yul\":5226:5279   */\n      tag_562\n        /* \"#utility.yul\":5271:5278   */\n      dup5\n        /* \"#utility.yul\":5262:5268   */\n      dup3\n        /* \"#utility.yul\":5251:5260   */\n      dup6\n        /* \"#utility.yul\":5247:5269   */\n      add\n        /* \"#utility.yul\":5226:5279   */\n      tag_425\n      jump\t// in\n    tag_562:\n        /* \"#utility.yul\":5216:5279   */\n      swap2\n      pop\n        /* \"#utility.yul\":5172:5289   */\n      pop\n        /* \"#utility.yul\":4967:5296   */\n      swap3\n      swap2\n      pop\n      pop\n      jump\t// out\n        /* \"#utility.yul\":5302:5471   */\n    tag_426:\n        /* \"#utility.yul\":5386:5397   */\n      0x00\n        /* \"#utility.yul\":5420:5426   */\n      dup3\n        /* \"#utility.yul\":5415:5418   */\n      dup3\n        /* \"#utility.yul\":5408:5427   */\n      mstore\n        /* \"#utility.yul\":5460:5464   */\n      0x20\n        /* \"#utility.yul\":5455:5458   */\n      dup3\n        /* \"#utility.yul\":5451:5465   */\n      add\n        /* \"#utility.yul\":5436:5465   */\n      swap1\n      pop\n        /* \"#utility.yul\":5302:5471   */\n      swap3\n      swap2\n      pop\n      pop\n      jump\t// out\n        /* \"#utility.yul\":5477:5650   */\n    tag_427:\n        /* \"#utility.yul\":5617:5642   */\n      0x4472617720616c726561647920696e697469617465642e000000000000000000\n        /* \"#utility.yul\":5613:5614   */\n      0x00\n        /* \"#utility.yul\":5605:5611   */\n      dup3\n        /* \"#utility.yul\":5601:5615   */\n      add\n        /* \"#utility.yul\":5594:5643   */\n      mstore\n        /* \"#utility.yul\":5477:5650   */\n      pop\n      jump\t// out\n        /* \"#utility.yul\":5656:6022   */\n    tag_428:\n        /* \"#utility.yul\":5798:5801   */\n      0x00\n        /* \"#utility.yul\":5819:5886   */\n      tag_566\n        /* \"#utility.yul\":5883:5885   */\n      0x17\n        /* \"#utility.yul\":5878:5881   */\n      dup4\n        /* \"#utility.yul\":5819:5886   */\n      tag_426\n      jump\t// in\n    tag_566:\n        /* \"#utility.yul\":5812:5886   */\n      swap2\n      pop\n        /* \"#utility.yul\":5895:5988   */\n      tag_567\n        /* \"#utility.yul\":5984:5987   */\n      dup3\n        /* \"#utility.yul\":5895:5988   */\n      tag_427\n      jump\t// in\n    tag_567:\n        /* \"#utility.yul\":6013:6015   */\n      0x20\n        /* \"#utility.yul\":6008:6011   */\n      dup3\n        /* \"#utility.yul\":6004:6016   */\n      add\n        /* \"#utility.yul\":5997:6016   */\n      swap1\n      pop\n        /* \"#utility.yul\":5656:6022   */\n      swap2\n      swap1\n      pop\n      jump\t// out\n        /* \"#utility.yul\":6028:6447   */\n    tag_126:\n        /* \"#utility.yul\":6194:6198   */\n      0x00\n        /* \"#utility.yul\":6232:6234   */\n      0x20\n        /* \"#utility.yul\":6221:6230   */\n      dup3\n        /* \"#utility.yul\":6217:6235   */\n      add\n        /* \"#utility.yul\":6209:6235   */\n      swap1\n      pop\n        /* \"#utility.yul\":6281:6290   */\n      dup2\n        /* \"#utility.yul\":6275:6279   */\n      dup2\n        /* \"#utility.yul\":6271:6291   */\n      sub\n        /* \"#utility.yul\":6267:6268   */\n      0x00\n        /* \"#utility.yul\":6256:6265   */\n      dup4\n        /* \"#utility.yul\":6252:6269   */\n      add\n        /* \"#utility.yul\":6245:6292   */\n      mstore\n        /* \"#utility.yul\":6309:6440   */\n      tag_569\n        /* \"#utility.yul\":6435:6439   */\n      dup2\n        /* \"#utility.yul\":6309:6440   */\n      tag_428\n      jump\t// in\n    tag_569:\n        /* \"#utility.yul\":6301:6440   */\n      swap1\n      pop\n        /* \"#utility.yul\":6028:6447   */\n      swap2\n      swap1\n      pop\n      jump\t// out\n        /* \"#utility.yul\":6453:6678   */\n    tag_429:\n        /* \"#utility.yul\":6593:6627   */\n      0x4e6f7420656e6f756768207061727469636970616e747320746f207374617274\n        /* \"#utility.yul\":6589:6590   */\n      0x00\n        /* \"#utility.yul\":6581:6587   */\n      dup3\n        /* \"#utility.yul\":6577:6591   */\n      add\n        /* \"#utility.yul\":6570:6628   */\n      mstore\n        /* \"#utility.yul\":6662:6670   */\n      0x20647261772e0000000000000000000000000000000000000000000000000000\n        /* \"#utility.yul\":6657:6659   */\n      0x20\n        /* \"#utility.yul\":6649:6655   */\n      dup3\n        /* \"#utility.yul\":6645:6660   */\n      add\n        /* \"#utility.yul\":6638:6671   */\n      mstore\n        /* \"#utility.yul\":6453:6678   */\n      pop\n      jump\t// out\n        /* \"#utility.yul\":6684:7050   */\n    tag_430:\n        /* \"#utility.yul\":6826:6829   */\n      0x00\n        /* \"#utility.yul\":6847:6914   */\n      tag_572\n        /* \"#utility.yul\":6911:6913   */\n      0x26\n        /* \"#utility.yul\":6906:6909   */\n      dup4\n        /* \"#utility.yul\":6847:6914   */\n      tag_426\n      jump\t// in\n    tag_572:\n        /* \"#utility.yul\":6840:6914   */\n      swap2\n      pop\n        /* \"#utility.yul\":6923:7016   */\n      tag_573\n        /* \"#utility.yul\":7012:7015   */\n      dup3\n        /* \"#utility.yul\":6923:7016   */\n      tag_429\n      jump\t// in\n    tag_573:\n        /* \"#utility.yul\":7041:7043   */\n      0x40\n        /* \"#utility.yul\":7036:7039   */\n      dup3\n        /* \"#utility.yul\":7032:7044   */\n      add\n        /* \"#utility.yul\":7025:7044   */\n      swap1\n      pop\n        /* \"#utility.yul\":6684:7050   */\n      swap2\n      swap1\n      pop\n      jump\t// out\n        /* \"#utility.yul\":7056:7475   */\n    tag_129:\n        /* \"#utility.yul\":7222:7226   */\n      0x00\n        /* \"#utility.yul\":7260:7262   */\n      0x20\n        /* \"#utility.yul\":7249:7258   */\n      dup3\n        /* \"#utility.yul\":7245:7263   */\n      add\n        /* \"#utility.yul\":7237:7263   */\n      swap1\n      pop\n        /* \"#utility.yul\":7309:7318   */\n      dup2\n        /* \"#utility.yul\":7303:7307   */\n      dup2\n        /* \"#utility.yul\":7299:7319   */\n      sub\n        /* \"#utility.yul\":7295:7296   */\n      0x00\n        /* \"#utility.yul\":7284:7293   */\n      dup4\n        /* \"#utility.yul\":7280:7297   */\n      add\n        /* \"#utility.yul\":7273:7320   */\n      mstore\n        /* \"#utility.yul\":7337:7468   */\n      tag_575\n        /* \"#utility.yul\":7463:7467   */\n      dup2\n        /* \"#utility.yul\":7337:7468   */\n      tag_430\n      jump\t// in\n    tag_575:\n        /* \"#utility.yul\":7329:7468   */\n      swap1\n      pop\n        /* \"#utility.yul\":7056:7475   */\n      swap2\n      swap1\n      pop\n      jump\t// out\n        /* \"#utility.yul\":7481:7706   */\n    tag_431:\n        /* \"#utility.yul\":7621:7655   */\n      0x4e6f7420656e6f756768207469636b65747320736f6c6420746f207374617274\n        /* \"#utility.yul\":7617:7618   */\n      0x00\n        /* \"#utility.yul\":7609:7615   */\n      dup3\n        /* \"#utility.yul\":7605:7619   */\n      add\n        /* \"#utility.yul\":7598:7656   */\n      mstore\n        /* \"#utility.yul\":7690:7698   */\n      0x20647261772e0000000000000000000000000000000000000000000000000000\n        /* \"#utility.yul\":7685:7687   */\n      0x20\n        /* \"#utility.yul\":7677:7683   */\n      dup3\n        /* \"#utility.yul\":7673:7688   */\n      add\n        /* \"#utility.yul\":7666:7699   */\n      mstore\n        /* \"#utility.yul\":7481:7706   */\n      pop\n      jump\t// out\n        /* \"#utility.yul\":7712:8078   */\n    tag_432:\n        /* \"#utility.yul\":7854:7857   */\n      0x00\n        /* \"#utility.yul\":7875:7942   */\n      tag_578\n        /* \"#utility.yul\":7939:7941   */\n      0x26\n        /* \"#utility.yul\":7934:7937   */\n      dup4\n        /* \"#utility.yul\":7875:7942   */\n      tag_426\n      jump\t// in\n    tag_578:\n        /* \"#utility.yul\":7868:7942   */\n      swap2\n      pop\n        /* \"#utility.yul\":7951:8044   */\n      tag_579\n        /* \"#utility.yul\":8040:8043   */\n      dup3\n        /* \"#utility.yul\":7951:8044   */\n      tag_431\n      jump\t// in\n    tag_579:\n        /* \"#utility.yul\":8069:8071   */\n      0x40\n        /* \"#utility.yul\":8064:8067   */\n      dup3\n        /* \"#utility.yul\":8060:8072   */\n      add\n        /* \"#utility.yul\":8053:8072   */\n      swap1\n      pop\n        /* \"#utility.yul\":7712:8078   */\n      swap2\n      swap1\n      pop\n      jump\t// out\n        /* \"#utility.yul\":8084:8503   */\n    tag_132:\n        /* \"#utility.yul\":8250:8254   */\n      0x00\n        /* \"#utility.yul\":8288:8290   */\n      0x20\n        /* \"#utility.yul\":8277:8286   */\n      dup3\n        /* \"#utility.yul\":8273:8291   */\n      add\n        /* \"#utility.yul\":8265:8291   */\n      swap1\n      pop\n        /* \"#utility.yul\":8337:8346   */\n      dup2\n        /* \"#utility.yul\":8331:8335   */\n      dup2\n        /* \"#utility.yul\":8327:8347   */\n      sub\n        /* \"#utility.yul\":8323:8324   */\n      0x00\n        /* \"#utility.yul\":8312:8321   */\n      dup4\n        /* \"#utility.yul\":8308:8325   */\n      add\n        /* \"#utility.yul\":8301:8348   */\n      mstore\n        /* \"#utility.yul\":8365:8496   */\n      tag_581\n        /* \"#utility.yul\":8491:8495   */\n      dup2\n        /* \"#utility.yul\":8365:8496   */\n      tag_432\n      jump\t// in\n    tag_581:\n        /* \"#utility.yul\":8357:8496   */\n      swap1\n      pop\n        /* \"#utility.yul\":8084:8503   */\n      swap2\n      swap1\n      pop\n      jump\t// out\n        /* \"#utility.yul\":8509:8689   */\n    tag_433:\n        /* \"#utility.yul\":8557:8634   */\n      0x4e487b7100000000000000000000000000000000000000000000000000000000\n        /* \"#utility.yul\":8554:8555   */\n      0x00\n        /* \"#utility.yul\":8547:8635   */\n      mstore\n        /* \"#utility.yul\":8654:8658   */\n      0x11\n        /* \"#utility.yul\":8651:8652   */\n      0x04\n        /* \"#utility.yul\":8644:8659   */\n      mstore\n        /* \"#utility.yul\":8678:8682   */\n      0x24\n        /* \"#utility.yul\":8675:8676   */\n      0x00\n        /* \"#utility.yul\":8668:8683   */\n      revert\n        /* \"#utility.yul\":8695:8886   */\n    tag_135:\n        /* \"#utility.yul\":8735:8738   */\n      0x00\n        /* \"#utility.yul\":8754:8774   */\n      tag_584\n        /* \"#utility.yul\":8772:8773   */\n      dup3\n        /* \"#utility.yul\":8754:8774   */\n      tag_407\n      jump\t// in\n    tag_584:\n        /* \"#utility.yul\":8749:8774   */\n      swap2\n      pop\n        /* \"#utility.yul\":8788:8808   */\n      tag_585\n        /* \"#utility.yul\":8806:8807   */\n      dup4\n        /* \"#utility.yul\":8788:8808   */\n      tag_407\n      jump\t// in\n    tag_585:\n        /* \"#utility.yul\":8783:8808   */\n      swap3\n      pop\n        /* \"#utility.yul\":8831:8832   */\n      dup3\n        /* \"#utility.yul\":8828:8829   */\n      dup3\n        /* \"#utility.yul\":8824:8833   */\n      add\n        /* \"#utility.yul\":8817:8833   */\n      swap1\n      pop\n        /* \"#utility.yul\":8852:8855   */\n      dup1\n        /* \"#utility.yul\":8849:8850   */\n      dup3\n        /* \"#utility.yul\":8846:8856   */\n      gt\n        /* \"#utility.yul\":8843:8879   */\n      iszero\n      tag_586\n      jumpi\n        /* \"#utility.yul\":8859:8877   */\n      tag_587\n      tag_433\n      jump\t// in\n    tag_587:\n        /* \"#utility.yul\":8843:8879   */\n    tag_586:\n        /* \"#utility.yul\":8695:8886   */\n      swap3\n      swap2\n      pop\n      pop\n      jump\t// out\n        /* \"#utility.yul\":8892:9141   */\n    tag_434:\n        /* \"#utility.yul\":9032:9066   */\n      0x4472617720636f6e646974696f6e73206e6f74206d65742e205761697420666f\n        /* \"#utility.yul\":9028:9029   */\n      0x00\n        /* \"#utility.yul\":9020:9026   */\n      dup3\n        /* \"#utility.yul\":9016:9030   */\n      add\n        /* \"#utility.yul\":9009:9067   */\n      mstore\n        /* \"#utility.yul\":9101:9133   */\n      0x722074696d6520696e74657276616c206f72207469636b6574206361702e0000\n        /* \"#utility.yul\":9096:9098   */\n      0x20\n        /* \"#utility.yul\":9088:9094   */\n      dup3\n        /* \"#utility.yul\":9084:9099   */\n      add\n        /* \"#utility.yul\":9077:9134   */\n      mstore\n        /* \"#utility.yul\":8892:9141   */\n      pop\n      jump\t// out\n        /* \"#utility.yul\":9147:9513   */\n    tag_435:\n        /* \"#utility.yul\":9289:9292   */\n      0x00\n        /* \"#utility.yul\":9310:9377   */\n      tag_590\n        /* \"#utility.yul\":9374:9376   */\n      0x3e\n        /* \"#utility.yul\":9369:9372   */\n      dup4\n        /* \"#utility.yul\":9310:9377   */\n      tag_426\n      jump\t// in\n    tag_590:\n        /* \"#utility.yul\":9303:9377   */\n      swap2\n      pop\n        /* \"#utility.yul\":9386:9479   */\n      tag_591\n        /* \"#utility.yul\":9475:9478   */\n      dup3\n        /* \"#utility.yul\":9386:9479   */\n      tag_434\n      jump\t// in\n    tag_591:\n        /* \"#utility.yul\":9504:9506   */\n      0x40\n        /* \"#utility.yul\":9499:9502   */\n      dup3\n        /* \"#utility.yul\":9495:9507   */\n      add\n        /* \"#utility.yul\":9488:9507   */\n      swap1\n      pop\n        /* \"#utility.yul\":9147:9513   */\n      swap2\n      swap1\n      pop\n      jump\t// out\n        /* \"#utility.yul\":9519:9938   */\n    tag_139:\n        /* \"#utility.yul\":9685:9689   */\n      0x00\n        /* \"#utility.yul\":9723:9725   */\n      0x20\n        /* \"#utility.yul\":9712:9721   */\n      dup3\n        /* \"#utility.yul\":9708:9726   */\n      add\n        /* \"#utility.yul\":9700:9726   */\n      swap1\n      pop\n        /* \"#utility.yul\":9772:9781   */\n      dup2\n        /* \"#utility.yul\":9766:9770   */\n      dup2\n        /* \"#utility.yul\":9762:9782   */\n      sub\n        /* \"#utility.yul\":9758:9759   */\n      0x00\n        /* \"#utility.yul\":9747:9756   */\n      dup4\n        /* \"#utility.yul\":9743:9760   */\n      add\n        /* \"#utility.yul\":9736:9783   */\n      mstore\n        /* \"#utility.yul\":9800:9931   */\n      tag_593\n        /* \"#utility.yul\":9926:9930   */\n      dup2\n        /* \"#utility.yul\":9800:9931   */\n      tag_435\n      jump\t// in\n    tag_593:\n        /* \"#utility.yul\":9792:9931   */\n      swap1\n      pop\n        /* \"#utility.yul\":9519:9938   */\n      swap2\n      swap1\n      pop\n      jump\t// out\n        /* \"#utility.yul\":9944:10115   */\n    tag_436:\n        /* \"#utility.yul\":10084:10107   */\n      0x596f7520617265206e6f742074686520686f73742e0000000000000000000000\n        /* \"#utility.yul\":10080:10081   */\n      0x00\n        /* \"#utility.yul\":10072:10078   */\n      dup3\n        /* \"#utility.yul\":10068:10082   */\n      add\n        /* \"#utility.yul\":10061:10108   */\n      mstore\n        /* \"#utility.yul\":9944:10115   */\n      pop\n      jump\t// out\n        /* \"#utility.yul\":10121:10487   */\n    tag_437:\n        /* \"#utility.yul\":10263:10266   */\n      0x00\n        /* \"#utility.yul\":10284:10351   */\n      tag_596\n        /* \"#utility.yul\":10348:10350   */\n      0x15\n        /* \"#utility.yul\":10343:10346   */\n      dup4\n        /* \"#utility.yul\":10284:10351   */\n      tag_426\n      jump\t// in\n    tag_596:\n        /* \"#utility.yul\":10277:10351   */\n      swap2\n      pop\n        /* \"#utility.yul\":10360:10453   */\n      tag_597\n        /* \"#utility.yul\":10449:10452   */\n      dup3\n        /* \"#utility.yul\":10360:10453   */\n      tag_436\n      jump\t// in\n    tag_597:\n        /* \"#utility.yul\":10478:10480   */\n      0x20\n        /* \"#utility.yul\":10473:10476   */\n      dup3\n        /* \"#utility.yul\":10469:10481   */\n      add\n        /* \"#utility.yul\":10462:10481   */\n      swap1\n      pop\n        /* \"#utility.yul\":10121:10487   */\n      swap2\n      swap1\n      pop\n      jump\t// out\n        /* \"#utility.yul\":10493:10912   */\n    tag_145:\n        /* \"#utility.yul\":10659:10663   */\n      0x00\n        /* \"#utility.yul\":10697:10699   */\n      0x20\n        /* \"#utility.yul\":10686:10695   */\n      dup3\n        /* \"#utility.yul\":10682:10700   */\n      add\n        /* \"#utility.yul\":10674:10700   */\n      swap1\n      pop\n        /* \"#utility.yul\":10746:10755   */\n      dup2\n        /* \"#utility.yul\":10740:10744   */\n      dup2\n        /* \"#utility.yul\":10736:10756   */\n      sub\n        /* \"#utility.yul\":10732:10733   */\n      0x00\n        /* \"#utility.yul\":10721:10730   */\n      dup4\n        /* \"#utility.yul\":10717:10734   */\n      add\n        /* \"#utility.yul\":10710:10757   */\n      mstore\n        /* \"#utility.yul\":10774:10905   */\n      tag_599\n        /* \"#utility.yul\":10900:10904   */\n      dup2\n        /* \"#utility.yul\":10774:10905   */\n      tag_437\n      jump\t// in\n    tag_599:\n        /* \"#utility.yul\":10766:10905   */\n      swap1\n      pop\n        /* \"#utility.yul\":10493:10912   */\n      swap2\n      swap1\n      pop\n      jump\t// out\n        /* \"#utility.yul\":10918:11094   */\n    tag_438:\n        /* \"#utility.yul\":11058:11086   */\n      0x4d6178206d757374206265203e3d206d696e207469636b657473000000000000\n        /* \"#utility.yul\":11054:11055   */\n      0x00\n        /* \"#utility.yul\":11046:11052   */\n      dup3\n        /* \"#utility.yul\":11042:11056   */\n      add\n        /* \"#utility.yul\":11035:11087   */\n      mstore\n        /* \"#utility.yul\":10918:11094   */\n      pop\n      jump\t// out\n        /* \"#utility.yul\":11100:11466   */\n    tag_439:\n        /* \"#utility.yul\":11242:11245   */\n      0x00\n        /* \"#utility.yul\":11263:11330   */\n      tag_602\n        /* \"#utility.yul\":11327:11329   */\n      0x1a\n        /* \"#utility.yul\":11322:11325   */\n      dup4\n        /* \"#utility.yul\":11263:11330   */\n      tag_426\n      jump\t// in\n    tag_602:\n        /* \"#utility.yul\":11256:11330   */\n      swap2\n      pop\n        /* \"#utility.yul\":11339:11432   */\n      tag_603\n        /* \"#utility.yul\":11428:11431   */\n      dup3\n        /* \"#utility.yul\":11339:11432   */\n      tag_438\n      jump\t// in\n    tag_603:\n        /* \"#utility.yul\":11457:11459   */\n      0x20\n        /* \"#utility.yul\":11452:11455   */\n      dup3\n        /* \"#utility.yul\":11448:11460   */\n      add\n        /* \"#utility.yul\":11441:11460   */\n      swap1\n      pop\n        /* \"#utility.yul\":11100:11466   */\n      swap2\n      swap1\n      pop\n      jump\t// out\n        /* \"#utility.yul\":11472:11891   */\n    tag_149:\n        /* \"#utility.yul\":11638:11642   */\n      0x00\n        /* \"#utility.yul\":11676:11678   */\n      0x20\n        /* \"#utility.yul\":11665:11674   */\n      dup3\n        /* \"#utility.yul\":11661:11679   */\n      add\n        /* \"#utility.yul\":11653:11679   */\n      swap1\n      pop\n        /* \"#utility.yul\":11725:11734   */\n      dup2\n        /* \"#utility.yul\":11719:11723   */\n      dup2\n        /* \"#utility.yul\":11715:11735   */\n      sub\n        /* \"#utility.yul\":11711:11712   */\n      0x00\n        /* \"#utility.yul\":11700:11709   */\n      dup4\n        /* \"#utility.yul\":11696:11713   */\n      add\n        /* \"#utility.yul\":11689:11736   */\n      mstore\n        /* \"#utility.yul\":11753:11884   */\n      tag_605\n        /* \"#utility.yul\":11879:11883   */\n      dup2\n        /* \"#utility.yul\":11753:11884   */\n      tag_439\n      jump\t// in\n    tag_605:\n        /* \"#utility.yul\":11745:11884   */\n      swap1\n      pop\n        /* \"#utility.yul\":11472:11891   */\n      swap2\n      swap1\n      pop\n      jump\t// out\n        /* \"#utility.yul\":11897:12073   */\n    tag_440:\n        /* \"#utility.yul\":12037:12065   */\n      0x546f6f2068696768202d20756e7265616c697374696320636170000000000000\n        /* \"#utility.yul\":12033:12034   */\n      0x00\n        /* \"#utility.yul\":12025:12031   */\n      dup3\n        /* \"#utility.yul\":12021:12035   */\n      add\n        /* \"#utility.yul\":12014:12066   */\n      mstore\n        /* \"#utility.yul\":11897:12073   */\n      pop\n      jump\t// out\n        /* \"#utility.yul\":12079:12445   */\n    tag_441:\n        /* \"#utility.yul\":12221:12224   */\n      0x00\n        /* \"#utility.yul\":12242:12309   */\n      tag_608\n        /* \"#utility.yul\":12306:12308   */\n      0x1a\n        /* \"#utility.yul\":12301:12304   */\n      dup4\n        /* \"#utility.yul\":12242:12309   */\n      tag_426\n      jump\t// in\n    tag_608:\n        /* \"#utility.yul\":12235:12309   */\n      swap2\n      pop\n        /* \"#utility.yul\":12318:12411   */\n      tag_609\n        /* \"#utility.yul\":12407:12410   */\n      dup3\n        /* \"#utility.yul\":12318:12411   */\n      tag_440\n      jump\t// in\n    tag_609:\n        /* \"#utility.yul\":12436:12438   */\n      0x20\n        /* \"#utility.yul\":12431:12434   */\n      dup3\n        /* \"#utility.yul\":12427:12439   */\n      add\n        /* \"#utility.yul\":12420:12439   */\n      swap1\n      pop\n        /* \"#utility.yul\":12079:12445   */\n      swap2\n      swap1\n      pop\n      jump\t// out\n        /* \"#utility.yul\":12451:12870   */\n    tag_152:\n        /* \"#utility.yul\":12617:12621   */\n      0x00\n        /* \"#utility.yul\":12655:12657   */\n      0x20\n        /* \"#utility.yul\":12644:12653   */\n      dup3\n        /* \"#utility.yul\":12640:12658   */\n      add\n        /* \"#utility.yul\":12632:12658   */\n      swap1\n      pop\n        /* \"#utility.yul\":12704:12713   */\n      dup2\n        /* \"#utility.yul\":12698:12702   */\n      dup2\n        /* \"#utility.yul\":12694:12714   */\n      sub\n        /* \"#utility.yul\":12690:12691   */\n      0x00\n        /* \"#utility.yul\":12679:12688   */\n      dup4\n        /* \"#utility.yul\":12675:12692   */\n      add\n        /* \"#utility.yul\":12668:12715   */\n      mstore\n        /* \"#utility.yul\":12732:12863   */\n      tag_611\n        /* \"#utility.yul\":12858:12862   */\n      dup2\n        /* \"#utility.yul\":12732:12863   */\n      tag_441\n      jump\t// in\n    tag_611:\n        /* \"#utility.yul\":12724:12863   */\n      swap1\n      pop\n        /* \"#utility.yul\":12451:12870   */\n      swap2\n      swap1\n      pop\n      jump\t// out\n        /* \"#utility.yul\":12876:13046   */\n    tag_442:\n        /* \"#utility.yul\":13016:13038   */\n      0x4e6f2077696e6e696e677320746f20636c61696d000000000000000000000000\n        /* \"#utility.yul\":13012:13013   */\n      0x00\n        /* \"#utility.yul\":13004:13010   */\n      dup3\n        /* \"#utility.yul\":13000:13014   */\n      add\n        /* \"#utility.yul\":12993:13039   */\n      mstore\n        /* \"#utility.yul\":12876:13046   */\n      pop\n      jump\t// out\n        /* \"#utility.yul\":13052:13418   */\n    tag_443:\n        /* \"#utility.yul\":13194:13197   */\n      0x00\n        /* \"#utility.yul\":13215:13282   */\n      tag_614\n        /* \"#utility.yul\":13279:13281   */\n      0x14\n        /* \"#utility.yul\":13274:13277   */\n      dup4\n        /* \"#utility.yul\":13215:13282   */\n      tag_426\n      jump\t// in\n    tag_614:\n        /* \"#utility.yul\":13208:13282   */\n      swap2\n      pop\n        /* \"#utility.yul\":13291:13384   */\n      tag_615\n        /* \"#utility.yul\":13380:13383   */\n      dup3\n        /* \"#utility.yul\":13291:13384   */\n      tag_442\n      jump\t// in\n    tag_615:\n        /* \"#utility.yul\":13409:13411   */\n      0x20\n        /* \"#utility.yul\":13404:13407   */\n      dup3\n        /* \"#utility.yul\":13400:13412   */\n      add\n        /* \"#utility.yul\":13393:13412   */\n      swap1\n      pop\n        /* \"#utility.yul\":13052:13418   */\n      swap2\n      swap1\n      pop\n      jump\t// out\n        /* \"#utility.yul\":13424:13843   */\n    tag_156:\n        /* \"#utility.yul\":13590:13594   */\n      0x00\n        /* \"#utility.yul\":13628:13630   */\n      0x20\n        /* \"#utility.yul\":13617:13626   */\n      dup3\n        /* \"#utility.yul\":13613:13631   */\n      add\n        /* \"#utility.yul\":13605:13631   */\n      swap1\n      pop\n        /* \"#utility.yul\":13677:13686   */\n      dup2\n        /* \"#utility.yul\":13671:13675   */\n      dup2\n        /* \"#utility.yul\":13667:13687   */\n      sub\n        /* \"#utility.yul\":13663:13664   */\n      0x00\n        /* \"#utility.yul\":13652:13661   */\n      dup4\n        /* \"#utility.yul\":13648:13665   */\n      add\n        /* \"#utility.yul\":13641:13688   */\n      mstore\n        /* \"#utility.yul\":13705:13836   */\n      tag_617\n        /* \"#utility.yul\":13831:13835   */\n      dup2\n        /* \"#utility.yul\":13705:13836   */\n      tag_443\n      jump\t// in\n    tag_617:\n        /* \"#utility.yul\":13697:13836   */\n      swap1\n      pop\n        /* \"#utility.yul\":13424:13843   */\n      swap2\n      swap1\n      pop\n      jump\t// out\n        /* \"#utility.yul\":13849:13996   */\n    tag_444:\n        /* \"#utility.yul\":13950:13961   */\n      0x00\n        /* \"#utility.yul\":13987:13990   */\n      dup2\n        /* \"#utility.yul\":13972:13990   */\n      swap1\n      pop\n        /* \"#utility.yul\":13849:13996   */\n      swap3\n      swap2\n      pop\n      pop\n      jump\t// out\n        /* \"#utility.yul\":14002:14116   */\n    tag_445:\n      pop\n      jump\t// out\n        /* \"#utility.yul\":14122:14520   */\n    tag_446:\n        /* \"#utility.yul\":14281:14284   */\n      0x00\n        /* \"#utility.yul\":14302:14385   */\n      tag_621\n        /* \"#utility.yul\":14383:14384   */\n      0x00\n        /* \"#utility.yul\":14378:14381   */\n      dup4\n        /* \"#utility.yul\":14302:14385   */\n      tag_444\n      jump\t// in\n    tag_621:\n        /* \"#utility.yul\":14295:14385   */\n      swap2\n      pop\n        /* \"#utility.yul\":14394:14487   */\n      tag_622\n        /* \"#utility.yul\":14483:14486   */\n      dup3\n        /* \"#utility.yul\":14394:14487   */\n      tag_445\n      jump\t// in\n    tag_622:\n        /* \"#utility.yul\":14512:14513   */\n      0x00\n        /* \"#utility.yul\":14507:14510   */\n      dup3\n        /* \"#utility.yul\":14503:14514   */\n      add\n        /* \"#utility.yul\":14496:14514   */\n      swap1\n      pop\n        /* \"#utility.yul\":14122:14520   */\n      swap2\n      swap1\n      pop\n      jump\t// out\n        /* \"#utility.yul\":14526:14905   */\n    tag_158:\n        /* \"#utility.yul\":14710:14713   */\n      0x00\n        /* \"#utility.yul\":14732:14879   */\n      tag_624\n        /* \"#utility.yul\":14875:14878   */\n      dup3\n        /* \"#utility.yul\":14732:14879   */\n      tag_446\n      jump\t// in\n    tag_624:\n        /* \"#utility.yul\":14725:14879   */\n      swap2\n      pop\n        /* \"#utility.yul\":14896:14899   */\n      dup2\n        /* \"#utility.yul\":14889:14899   */\n      swap1\n      pop\n        /* \"#utility.yul\":14526:14905   */\n      swap2\n      swap1\n      pop\n      jump\t// out\n        /* \"#utility.yul\":14911:15082   */\n    tag_447:\n        /* \"#utility.yul\":15051:15074   */\n      0x5072697a65207472616e73666572206661696c65640000000000000000000000\n        /* \"#utility.yul\":15047:15048   */\n      0x00\n        /* \"#utility.yul\":15039:15045   */\n      dup3\n        /* \"#utility.yul\":15035:15049   */\n      add\n        /* \"#utility.yul\":15028:15075   */\n      mstore\n        /* \"#utility.yul\":14911:15082   */\n      pop\n      jump\t// out\n        /* \"#utility.yul\":15088:15454   */\n    tag_448:\n        /* \"#utility.yul\":15230:15233   */\n      0x00\n        /* \"#utility.yul\":15251:15318   */\n      tag_627\n        /* \"#utility.yul\":15315:15317   */\n      0x15\n        /* \"#utility.yul\":15310:15313   */\n      dup4\n        /* \"#utility.yul\":15251:15318   */\n      tag_426\n      jump\t// in\n    tag_627:\n        /* \"#utility.yul\":15244:15318   */\n      swap2\n      pop\n        /* \"#utility.yul\":15327:15420   */\n      tag_628\n        /* \"#utility.yul\":15416:15419   */\n      dup3\n        /* \"#utility.yul\":15327:15420   */\n      tag_447\n      jump\t// in\n    tag_628:\n        /* \"#utility.yul\":15445:15447   */\n      0x20\n        /* \"#utility.yul\":15440:15443   */\n      dup3\n        /* \"#utility.yul\":15436:15448   */\n      add\n        /* \"#utility.yul\":15429:15448   */\n      swap1\n      pop\n        /* \"#utility.yul\":15088:15454   */\n      swap2\n      swap1\n      pop\n      jump\t// out\n        /* \"#utility.yul\":15460:15879   */\n    tag_164:\n        /* \"#utility.yul\":15626:15630   */\n      0x00\n        /* \"#utility.yul\":15664:15666   */\n      0x20\n        /* \"#utility.yul\":15653:15662   */\n      dup3\n        /* \"#utility.yul\":15649:15667   */\n      add\n        /* \"#utility.yul\":15641:15667   */\n      swap1\n      pop\n        /* \"#utility.yul\":15713:15722   */\n      dup2\n        /* \"#utility.yul\":15707:15711   */\n      dup2\n        /* \"#utility.yul\":15703:15723   */\n      sub\n        /* \"#utility.yul\":15699:15700   */\n      0x00\n        /* \"#utility.yul\":15688:15697   */\n      dup4\n        /* \"#utility.yul\":15684:15701   */\n      add\n        /* \"#utility.yul\":15677:15724   */\n      mstore\n        /* \"#utility.yul\":15741:15872   */\n      tag_630\n        /* \"#utility.yul\":15867:15871   */\n      dup2\n        /* \"#utility.yul\":15741:15872   */\n      tag_448\n      jump\t// in\n    tag_630:\n        /* \"#utility.yul\":15733:15872   */\n      swap1\n      pop\n        /* \"#utility.yul\":15460:15879   */\n      swap2\n      swap1\n      pop\n      jump\t// out\n        /* \"#utility.yul\":15885:16003   */\n    tag_449:\n        /* \"#utility.yul\":15972:15996   */\n      tag_632\n        /* \"#utility.yul\":15990:15995   */\n      dup2\n        /* \"#utility.yul\":15972:15996   */\n      tag_413\n      jump\t// in\n    tag_632:\n        /* \"#utility.yul\":15967:15970   */\n      dup3\n        /* \"#utility.yul\":15960:15997   */\n      mstore\n        /* \"#utility.yul\":15885:16003   */\n      pop\n      pop\n      jump\t// out\n        /* \"#utility.yul\":16009:16341   */\n    tag_166:\n        /* \"#utility.yul\":16130:16134   */\n      0x00\n        /* \"#utility.yul\":16168:16170   */\n      0x40\n        /* \"#utility.yul\":16157:16166   */\n      dup3\n        /* \"#utility.yul\":16153:16171   */\n      add\n        /* \"#utility.yul\":16145:16171   */\n      swap1\n      pop\n        /* \"#utility.yul\":16181:16252   */\n      tag_634\n        /* \"#utility.yul\":16249:16250   */\n      0x00\n        /* \"#utility.yul\":16238:16247   */\n      dup4\n        /* \"#utility.yul\":16234:16251   */\n      add\n        /* \"#utility.yul\":16225:16231   */\n      dup6\n        /* \"#utility.yul\":16181:16252   */\n      tag_449\n      jump\t// in\n    tag_634:\n        /* \"#utility.yul\":16262:16334   */\n      tag_635\n        /* \"#utility.yul\":16330:16332   */\n      0x20\n        /* \"#utility.yul\":16319:16328   */\n      dup4\n        /* \"#utility.yul\":16315:16333   */\n      add\n        /* \"#utility.yul\":16306:16312   */\n      dup5\n        /* \"#utility.yul\":16262:16334   */\n      tag_408\n      jump\t// in\n    tag_635:\n        /* \"#utility.yul\":16009:16341   */\n      swap4\n      swap3\n      pop\n      pop\n      pop\n      jump\t// out\n        /* \"#utility.yul\":16347:16575   */\n    tag_450:\n        /* \"#utility.yul\":16487:16521   */\n      0x4d696e207469636b6574732073686f756c64206265203e3d206d696e20706172\n        /* \"#utility.yul\":16483:16484   */\n      0x00\n        /* \"#utility.yul\":16475:16481   */\n      dup3\n        /* \"#utility.yul\":16471:16485   */\n      add\n        /* \"#utility.yul\":16464:16522   */\n      mstore\n        /* \"#utility.yul\":16556:16567   */\n      0x7469636970616e74730000000000000000000000000000000000000000000000\n        /* \"#utility.yul\":16551:16553   */\n      0x20\n        /* \"#utility.yul\":16543:16549   */\n      dup3\n        /* \"#utility.yul\":16539:16554   */\n      add\n        /* \"#utility.yul\":16532:16568   */\n      mstore\n        /* \"#utility.yul\":16347:16575   */\n      pop\n      jump\t// out\n        /* \"#utility.yul\":16581:16947   */\n    tag_451:\n        /* \"#utility.yul\":16723:16726   */\n      0x00\n        /* \"#utility.yul\":16744:16811   */\n      tag_638\n        /* \"#utility.yul\":16808:16810   */\n      0x29\n        /* \"#utility.yul\":16803:16806   */\n      dup4\n        /* \"#utility.yul\":16744:16811   */\n      tag_426\n      jump\t// in\n    tag_638:\n        /* \"#utility.yul\":16737:16811   */\n      swap2\n      pop\n        /* \"#utility.yul\":16820:16913   */\n      tag_639\n        /* \"#utility.yul\":16909:16912   */\n      dup3\n        /* \"#utility.yul\":16820:16913   */\n      tag_450\n      jump\t// in\n    tag_639:\n        /* \"#utility.yul\":16938:16940   */\n      0x40\n        /* \"#utility.yul\":16933:16936   */\n      dup3\n        /* \"#utility.yul\":16929:16941   */\n      add\n        /* \"#utility.yul\":16922:16941   */\n      swap1\n      pop\n        /* \"#utility.yul\":16581:16947   */\n      swap2\n      swap1\n      pop\n      jump\t// out\n        /* \"#utility.yul\":16953:17372   */\n    tag_173:\n        /* \"#utility.yul\":17119:17123   */\n      0x00\n        /* \"#utility.yul\":17157:17159   */\n      0x20\n        /* \"#utility.yul\":17146:17155   */\n      dup3\n        /* \"#utility.yul\":17142:17160   */\n      add\n        /* \"#utility.yul\":17134:17160   */\n      swap1\n      pop\n        /* \"#utility.yul\":17206:17215   */\n      dup2\n        /* \"#utility.yul\":17200:17204   */\n      dup2\n        /* \"#utility.yul\":17196:17216   */\n      sub\n        /* \"#utility.yul\":17192:17193   */\n      0x00\n        /* \"#utility.yul\":17181:17190   */\n      dup4\n        /* \"#utility.yul\":17177:17194   */\n      add\n        /* \"#utility.yul\":17170:17217   */\n      mstore\n        /* \"#utility.yul\":17234:17365   */\n      tag_641\n        /* \"#utility.yul\":17360:17364   */\n      dup2\n        /* \"#utility.yul\":17234:17365   */\n      tag_451\n      jump\t// in\n    tag_641:\n        /* \"#utility.yul\":17226:17365   */\n      swap1\n      pop\n        /* \"#utility.yul\":16953:17372   */\n      swap2\n      swap1\n      pop\n      jump\t// out\n        /* \"#utility.yul\":17378:17558   */\n    tag_452:\n        /* \"#utility.yul\":17518:17550   */\n      0x546f6f2068696768202d20776f756c64206e6576657220747269676765720000\n        /* \"#utility.yul\":17514:17515   */\n      0x00\n        /* \"#utility.yul\":17506:17512   */\n      dup3\n        /* \"#utility.yul\":17502:17516   */\n      add\n        /* \"#utility.yul\":17495:17551   */\n      mstore\n        /* \"#utility.yul\":17378:17558   */\n      pop\n      jump\t// out\n        /* \"#utility.yul\":17564:17930   */\n    tag_453:\n        /* \"#utility.yul\":17706:17709   */\n      0x00\n        /* \"#utility.yul\":17727:17794   */\n      tag_644\n        /* \"#utility.yul\":17791:17793   */\n      0x1e\n        /* \"#utility.yul\":17786:17789   */\n      dup4\n        /* \"#utility.yul\":17727:17794   */\n      tag_426\n      jump\t// in\n    tag_644:\n        /* \"#utility.yul\":17720:17794   */\n      swap2\n      pop\n        /* \"#utility.yul\":17803:17896   */\n      tag_645\n        /* \"#utility.yul\":17892:17895   */\n      dup3\n        /* \"#utility.yul\":17803:17896   */\n      tag_452\n      jump\t// in\n    tag_645:\n        /* \"#utility.yul\":17921:17923   */\n      0x20\n        /* \"#utility.yul\":17916:17919   */\n      dup3\n        /* \"#utility.yul\":17912:17924   */\n      add\n        /* \"#utility.yul\":17905:17924   */\n      swap1\n      pop\n        /* \"#utility.yul\":17564:17930   */\n      swap2\n      swap1\n      pop\n      jump\t// out\n        /* \"#utility.yul\":17936:18355   */\n    tag_176:\n        /* \"#utility.yul\":18102:18106   */\n      0x00\n        /* \"#utility.yul\":18140:18142   */\n      0x20\n        /* \"#utility.yul\":18129:18138   */\n      dup3\n        /* \"#utility.yul\":18125:18143   */\n      add\n        /* \"#utility.yul\":18117:18143   */\n      swap1\n      pop\n        /* \"#utility.yul\":18189:18198   */\n      dup2\n        /* \"#utility.yul\":18183:18187   */\n      dup2\n        /* \"#utility.yul\":18179:18199   */\n      sub\n        /* \"#utility.yul\":18175:18176   */\n      0x00\n        /* \"#utility.yul\":18164:18173   */\n      dup4\n        /* \"#utility.yul\":18160:18177   */\n      add\n        /* \"#utility.yul\":18153:18200   */\n      mstore\n        /* \"#utility.yul\":18217:18348   */\n      tag_647\n        /* \"#utility.yul\":18343:18347   */\n      dup2\n        /* \"#utility.yul\":18217:18348   */\n      tag_453\n      jump\t// in\n    tag_647:\n        /* \"#utility.yul\":18209:18348   */\n      swap1\n      pop\n        /* \"#utility.yul\":17936:18355   */\n      swap2\n      swap1\n      pop\n      jump\t// out\n        /* \"#utility.yul\":18361:18530   */\n    tag_454:\n        /* \"#utility.yul\":18501:18522   */\n      0x44726177206e6f7420696e697469617465642e00000000000000000000000000\n        /* \"#utility.yul\":18497:18498   */\n      0x00\n        /* \"#utility.yul\":18489:18495   */\n      dup3\n        /* \"#utility.yul\":18485:18499   */\n      add\n        /* \"#utility.yul\":18478:18523   */\n      mstore\n        /* \"#utility.yul\":18361:18530   */\n      pop\n      jump\t// out\n        /* \"#utility.yul\":18536:18902   */\n    tag_455:\n        /* \"#utility.yul\":18678:18681   */\n      0x00\n        /* \"#utility.yul\":18699:18766   */\n      tag_650\n        /* \"#utility.yul\":18763:18765   */\n      0x13\n        /* \"#utility.yul\":18758:18761   */\n      dup4\n        /* \"#utility.yul\":18699:18766   */\n      tag_426\n      jump\t// in\n    tag_650:\n        /* \"#utility.yul\":18692:18766   */\n      swap2\n      pop\n        /* \"#utility.yul\":18775:18868   */\n      tag_651\n        /* \"#utility.yul\":18864:18867   */\n      dup3\n        /* \"#utility.yul\":18775:18868   */\n      tag_454\n      jump\t// in\n    tag_651:\n        /* \"#utility.yul\":18893:18895   */\n      0x20\n        /* \"#utility.yul\":18888:18891   */\n      dup3\n        /* \"#utility.yul\":18884:18896   */\n      add\n        /* \"#utility.yul\":18877:18896   */\n      swap1\n      pop\n        /* \"#utility.yul\":18536:18902   */\n      swap2\n      swap1\n      pop\n      jump\t// out\n        /* \"#utility.yul\":18908:19327   */\n    tag_180:\n        /* \"#utility.yul\":19074:19078   */\n      0x00\n        /* \"#utility.yul\":19112:19114   */\n      0x20\n        /* \"#utility.yul\":19101:19110   */\n      dup3\n        /* \"#utility.yul\":19097:19115   */\n      add\n        /* \"#utility.yul\":19089:19115   */\n      swap1\n      pop\n        /* \"#utility.yul\":19161:19170   */\n      dup2\n        /* \"#utility.yul\":19155:19159   */\n      dup2\n        /* \"#utility.yul\":19151:19171   */\n      sub\n        /* \"#utility.yul\":19147:19148   */\n      0x00\n        /* \"#utility.yul\":19136:19145   */\n      dup4\n        /* \"#utility.yul\":19132:19149   */\n      add\n        /* \"#utility.yul\":19125:19172   */\n      mstore\n        /* \"#utility.yul\":19189:19320   */\n      tag_653\n        /* \"#utility.yul\":19315:19319   */\n      dup2\n        /* \"#utility.yul\":19189:19320   */\n      tag_455\n      jump\t// in\n    tag_653:\n        /* \"#utility.yul\":19181:19320   */\n      swap1\n      pop\n        /* \"#utility.yul\":18908:19327   */\n      swap2\n      swap1\n      pop\n      jump\t// out\n        /* \"#utility.yul\":19333:19515   */\n    tag_456:\n        /* \"#utility.yul\":19473:19507   */\n      0x54617267657420626c6f636b206861736e27742061727269766564207965742e\n        /* \"#utility.yul\":19469:19470   */\n      0x00\n        /* \"#utility.yul\":19461:19467   */\n      dup3\n        /* \"#utility.yul\":19457:19471   */\n      add\n        /* \"#utility.yul\":19450:19508   */\n      mstore\n        /* \"#utility.yul\":19333:19515   */\n      pop\n      jump\t// out\n        /* \"#utility.yul\":19521:19887   */\n    tag_457:\n        /* \"#utility.yul\":19663:19666   */\n      0x00\n        /* \"#utility.yul\":19684:19751   */\n      tag_656\n        /* \"#utility.yul\":19748:19750   */\n      0x20\n        /* \"#utility.yul\":19743:19746   */\n      dup4\n        /* \"#utility.yul\":19684:19751   */\n      tag_426\n      jump\t// in\n    tag_656:\n        /* \"#utility.yul\":19677:19751   */\n      swap2\n      pop\n        /* \"#utility.yul\":19760:19853   */\n      tag_657\n        /* \"#utility.yul\":19849:19852   */\n      dup3\n        /* \"#utility.yul\":19760:19853   */\n      tag_456\n      jump\t// in\n    tag_657:\n        /* \"#utility.yul\":19878:19880   */\n      0x20\n        /* \"#utility.yul\":19873:19876   */\n      dup3\n        /* \"#utility.yul\":19869:19881   */\n      add\n        /* \"#utility.yul\":19862:19881   */\n      swap1\n      pop\n        /* \"#utility.yul\":19521:19887   */\n      swap2\n      swap1\n      pop\n      jump\t// out\n        /* \"#utility.yul\":19893:20312   */\n    tag_183:\n        /* \"#utility.yul\":20059:20063   */\n      0x00\n        /* \"#utility.yul\":20097:20099   */\n      0x20\n        /* \"#utility.yul\":20086:20095   */\n      dup3\n        /* \"#utility.yul\":20082:20100   */\n      add\n        /* \"#utility.yul\":20074:20100   */\n      swap1\n      pop\n        /* \"#utility.yul\":20146:20155   */\n      dup2\n        /* \"#utility.yul\":20140:20144   */\n      dup2\n        /* \"#utility.yul\":20136:20156   */\n      sub\n        /* \"#utility.yul\":20132:20133   */\n      0x00\n        /* \"#utility.yul\":20121:20130   */\n      dup4\n        /* \"#utility.yul\":20117:20134   */\n      add\n        /* \"#utility.yul\":20110:20157   */\n      mstore\n        /* \"#utility.yul\":20174:20305   */\n      tag_659\n        /* \"#utility.yul\":20300:20304   */\n      dup2\n        /* \"#utility.yul\":20174:20305   */\n      tag_457\n      jump\t// in\n    tag_659:\n        /* \"#utility.yul\":20166:20305   */\n      swap1\n      pop\n        /* \"#utility.yul\":19893:20312   */\n      swap2\n      swap1\n      pop\n      jump\t// out\n        /* \"#utility.yul\":20318:20490   */\n    tag_458:\n        /* \"#utility.yul\":20458:20482   */\n      0x4c6f747465727920616c726561647920656e6465642e00000000000000000000\n        /* \"#utility.yul\":20454:20455   */\n      0x00\n        /* \"#utility.yul\":20446:20452   */\n      dup3\n        /* \"#utility.yul\":20442:20456   */\n      add\n        /* \"#utility.yul\":20435:20483   */\n      mstore\n        /* \"#utility.yul\":20318:20490   */\n      pop\n      jump\t// out\n        /* \"#utility.yul\":20496:20862   */\n    tag_459:\n        /* \"#utility.yul\":20638:20641   */\n      0x00\n        /* \"#utility.yul\":20659:20726   */\n      tag_662\n        /* \"#utility.yul\":20723:20725   */\n      0x16\n        /* \"#utility.yul\":20718:20721   */\n      dup4\n        /* \"#utility.yul\":20659:20726   */\n      tag_426\n      jump\t// in\n    tag_662:\n        /* \"#utility.yul\":20652:20726   */\n      swap2\n      pop\n        /* \"#utility.yul\":20735:20828   */\n      tag_663\n        /* \"#utility.yul\":20824:20827   */\n      dup3\n        /* \"#utility.yul\":20735:20828   */\n      tag_458\n      jump\t// in\n    tag_663:\n        /* \"#utility.yul\":20853:20855   */\n      0x20\n        /* \"#utility.yul\":20848:20851   */\n      dup3\n        /* \"#utility.yul\":20844:20856   */\n      add\n        /* \"#utility.yul\":20837:20856   */\n      swap1\n      pop\n        /* \"#utility.yul\":20496:20862   */\n      swap2\n      swap1\n      pop\n      jump\t// out\n        /* \"#utility.yul\":20868:21287   */\n    tag_186:\n        /* \"#utility.yul\":21034:21038   */\n      0x00\n        /* \"#utility.yul\":21072:21074   */\n      0x20\n        /* \"#utility.yul\":21061:21070   */\n      dup3\n        /* \"#utility.yul\":21057:21075   */\n      add\n        /* \"#utility.yul\":21049:21075   */\n      swap1\n      pop\n        /* \"#utility.yul\":21121:21130   */\n      dup2\n        /* \"#utility.yul\":21115:21119   */\n      dup2\n        /* \"#utility.yul\":21111:21131   */\n      sub\n        /* \"#utility.yul\":21107:21108   */\n      0x00\n        /* \"#utility.yul\":21096:21105   */\n      dup4\n        /* \"#utility.yul\":21092:21109   */\n      add\n        /* \"#utility.yul\":21085:21132   */\n      mstore\n        /* \"#utility.yul\":21149:21280   */\n      tag_665\n        /* \"#utility.yul\":21275:21279   */\n      dup2\n        /* \"#utility.yul\":21149:21280   */\n      tag_459\n      jump\t// in\n    tag_665:\n        /* \"#utility.yul\":21141:21280   */\n      swap1\n      pop\n        /* \"#utility.yul\":20868:21287   */\n      swap2\n      swap1\n      pop\n      jump\t// out\n        /* \"#utility.yul\":21293:21514   */\n    tag_460:\n        /* \"#utility.yul\":21433:21467   */\n      0x426c6f636b206861736820756e617661696c61626c65206f7220746f6f206f6c\n        /* \"#utility.yul\":21429:21430   */\n      0x00\n        /* \"#utility.yul\":21421:21427   */\n      dup3\n        /* \"#utility.yul\":21417:21431   */\n      add\n        /* \"#utility.yul\":21410:21468   */\n      mstore\n        /* \"#utility.yul\":21502:21506   */\n      0x642e000000000000000000000000000000000000000000000000000000000000\n        /* \"#utility.yul\":21497:21499   */\n      0x20\n        /* \"#utility.yul\":21489:21495   */\n      dup3\n        /* \"#utility.yul\":21485:21500   */\n      add\n        /* \"#utility.yul\":21478:21507   */\n      mstore\n        /* \"#utility.yul\":21293:21514   */\n      pop\n      jump\t// out\n        /* \"#utility.yul\":21520:21886   */\n    tag_461:\n        /* \"#utility.yul\":21662:21665   */\n      0x00\n        /* \"#utility.yul\":21683:21750   */\n      tag_668\n        /* \"#utility.yul\":21747:21749   */\n      0x22\n        /* \"#utility.yul\":21742:21745   */\n      dup4\n        /* \"#utility.yul\":21683:21750   */\n      tag_426\n      jump\t// in\n    tag_668:\n        /* \"#utility.yul\":21676:21750   */\n      swap2\n      pop\n        /* \"#utility.yul\":21759:21852   */\n      tag_669\n        /* \"#utility.yul\":21848:21851   */\n      dup3\n        /* \"#utility.yul\":21759:21852   */\n      tag_460\n      jump\t// in\n    tag_669:\n        /* \"#utility.yul\":21877:21879   */\n      0x40\n        /* \"#utility.yul\":21872:21875   */\n      dup3\n        /* \"#utility.yul\":21868:21880   */\n      add\n        /* \"#utility.yul\":21861:21880   */\n      swap1\n      pop\n        /* \"#utility.yul\":21520:21886   */\n      swap2\n      swap1\n      pop\n      jump\t// out\n        /* \"#utility.yul\":21892:22311   */\n    tag_189:\n        /* \"#utility.yul\":22058:22062   */\n      0x00\n        /* \"#utility.yul\":22096:22098   */\n      0x20\n        /* \"#utility.yul\":22085:22094   */\n      dup3\n        /* \"#utility.yul\":22081:22099   */\n      add\n        /* \"#utility.yul\":22073:22099   */\n      swap1\n      pop\n        /* \"#utility.yul\":22145:22154   */\n      dup2\n        /* \"#utility.yul\":22139:22143   */\n      dup2\n        /* \"#utility.yul\":22135:22155   */\n      sub\n        /* \"#utility.yul\":22131:22132   */\n      0x00\n        /* \"#utility.yul\":22120:22129   */\n      dup4\n        /* \"#utility.yul\":22116:22133   */\n      add\n        /* \"#utility.yul\":22109:22156   */\n      mstore\n        /* \"#utility.yul\":22173:22304   */\n      tag_671\n        /* \"#utility.yul\":22299:22303   */\n      dup2\n        /* \"#utility.yul\":22173:22304   */\n      tag_461\n      jump\t// in\n    tag_671:\n        /* \"#utility.yul\":22165:22304   */\n      swap1\n      pop\n        /* \"#utility.yul\":21892:22311   */\n      swap2\n      swap1\n      pop\n      jump\t// out\n        /* \"#utility.yul\":22317:22394   */\n    tag_462:\n        /* \"#utility.yul\":22354:22361   */\n      0x00\n        /* \"#utility.yul\":22383:22388   */\n      dup2\n        /* \"#utility.yul\":22372:22388   */\n      swap1\n      pop\n        /* \"#utility.yul\":22317:22394   */\n      swap2\n      swap1\n      pop\n      jump\t// out\n        /* \"#utility.yul\":22400:22479   */\n    tag_463:\n        /* \"#utility.yul\":22439:22446   */\n      0x00\n        /* \"#utility.yul\":22468:22473   */\n      dup2\n        /* \"#utility.yul\":22457:22473   */\n      swap1\n      pop\n        /* \"#utility.yul\":22400:22479   */\n      swap2\n      swap1\n      pop\n      jump\t// out\n        /* \"#utility.yul\":22485:22642   */\n    tag_464:\n        /* \"#utility.yul\":22590:22635   */\n      tag_675\n        /* \"#utility.yul\":22610:22634   */\n      tag_676\n        /* \"#utility.yul\":22628:22633   */\n      dup3\n        /* \"#utility.yul\":22610:22634   */\n      tag_462\n      jump\t// in\n    tag_676:\n        /* \"#utility.yul\":22590:22635   */\n      tag_463\n      jump\t// in\n    tag_675:\n        /* \"#utility.yul\":22585:22588   */\n      dup3\n        /* \"#utility.yul\":22578:22636   */\n      mstore\n        /* \"#utility.yul\":22485:22642   */\n      pop\n      pop\n      jump\t// out\n        /* \"#utility.yul\":22648:22742   */\n    tag_465:\n        /* \"#utility.yul\":22681:22689   */\n      0x00\n        /* \"#utility.yul\":22729:22734   */\n      dup2\n        /* \"#utility.yul\":22725:22727   */\n      0x60\n        /* \"#utility.yul\":22721:22735   */\n      shl\n        /* \"#utility.yul\":22700:22735   */\n      swap1\n      pop\n        /* \"#utility.yul\":22648:22742   */\n      swap2\n      swap1\n      pop\n      jump\t// out\n        /* \"#utility.yul\":22748:22842   */\n    tag_466:\n        /* \"#utility.yul\":22787:22794   */\n      0x00\n        /* \"#utility.yul\":22816:22836   */\n      tag_679\n        /* \"#utility.yul\":22830:22835   */\n      dup3\n        /* \"#utility.yul\":22816:22836   */\n      tag_465\n      jump\t// in\n    tag_679:\n        /* \"#utility.yul\":22805:22836   */\n      swap1\n      pop\n        /* \"#utility.yul\":22748:22842   */\n      swap2\n      swap1\n      pop\n      jump\t// out\n        /* \"#utility.yul\":22848:22948   */\n    tag_467:\n        /* \"#utility.yul\":22887:22894   */\n      0x00\n        /* \"#utility.yul\":22916:22942   */\n      tag_681\n        /* \"#utility.yul\":22936:22941   */\n      dup3\n        /* \"#utility.yul\":22916:22942   */\n      tag_466\n      jump\t// in\n    tag_681:\n        /* \"#utility.yul\":22905:22942   */\n      swap1\n      pop\n        /* \"#utility.yul\":22848:22948   */\n      swap2\n      swap1\n      pop\n      jump\t// out\n        /* \"#utility.yul\":22954:23111   */\n    tag_468:\n        /* \"#utility.yul\":23059:23104   */\n      tag_683\n        /* \"#utility.yul\":23079:23103   */\n      tag_684\n        /* \"#utility.yul\":23097:23102   */\n      dup3\n        /* \"#utility.yul\":23079:23103   */\n      tag_413\n      jump\t// in\n    tag_684:\n        /* \"#utility.yul\":23059:23104   */\n      tag_467\n      jump\t// in\n    tag_683:\n        /* \"#utility.yul\":23054:23057   */\n      dup3\n        /* \"#utility.yul\":23047:23105   */\n      mstore\n        /* \"#utility.yul\":22954:23111   */\n      pop\n      pop\n      jump\t// out\n        /* \"#utility.yul\":23117:23514   */\n    tag_191:\n        /* \"#utility.yul\":23257:23260   */\n      0x00\n        /* \"#utility.yul\":23272:23347   */\n      tag_686\n        /* \"#utility.yul\":23343:23346   */\n      dup3\n        /* \"#utility.yul\":23334:23340   */\n      dup6\n        /* \"#utility.yul\":23272:23347   */\n      tag_464\n      jump\t// in\n    tag_686:\n        /* \"#utility.yul\":23372:23374   */\n      0x20\n        /* \"#utility.yul\":23367:23370   */\n      dup3\n        /* \"#utility.yul\":23363:23375   */\n      add\n        /* \"#utility.yul\":23356:23375   */\n      swap2\n      pop\n        /* \"#utility.yul\":23385:23460   */\n      tag_687\n        /* \"#utility.yul\":23456:23459   */\n      dup3\n        /* \"#utility.yul\":23447:23453   */\n      dup5\n        /* \"#utility.yul\":23385:23460   */\n      tag_468\n      jump\t// in\n    tag_687:\n        /* \"#utility.yul\":23485:23487   */\n      0x14\n        /* \"#utility.yul\":23480:23483   */\n      dup3\n        /* \"#utility.yul\":23476:23488   */\n      add\n        /* \"#utility.yul\":23469:23488   */\n      swap2\n      pop\n        /* \"#utility.yul\":23505:23508   */\n      dup2\n        /* \"#utility.yul\":23498:23508   */\n      swap1\n      pop\n        /* \"#utility.yul\":23117:23514   */\n      swap4\n      swap3\n      pop\n      pop\n      pop\n      jump\t// out\n        /* \"#utility.yul\":23520:23599   */\n    tag_469:\n        /* \"#utility.yul\":23559:23566   */\n      0x00\n        /* \"#utility.yul\":23588:23593   */\n      dup2\n        /* \"#utility.yul\":23577:23593   */\n      swap1\n      pop\n        /* \"#utility.yul\":23520:23599   */\n      swap2\n      swap1\n      pop\n      jump\t// out\n        /* \"#utility.yul\":23605:23762   */\n    tag_470:\n        /* \"#utility.yul\":23710:23755   */\n      tag_690\n        /* \"#utility.yul\":23730:23754   */\n      tag_691\n        /* \"#utility.yul\":23748:23753   */\n      dup3\n        /* \"#utility.yul\":23730:23754   */\n      tag_407\n      jump\t// in\n    tag_691:\n        /* \"#utility.yul\":23710:23755   */\n      tag_469\n      jump\t// in\n    tag_690:\n        /* \"#utility.yul\":23705:23708   */\n      dup3\n        /* \"#utility.yul\":23698:23756   */\n      mstore\n        /* \"#utility.yul\":23605:23762   */\n      pop\n      pop\n      jump\t// out\n        /* \"#utility.yul\":23768:24165   */\n    tag_198:\n        /* \"#utility.yul\":23908:23911   */\n      0x00\n        /* \"#utility.yul\":23923:23998   */\n      tag_693\n        /* \"#utility.yul\":23994:23997   */\n      dup3\n        /* \"#utility.yul\":23985:23991   */\n      dup6\n        /* \"#utility.yul\":23923:23998   */\n      tag_470\n      jump\t// in\n    tag_693:\n        /* \"#utility.yul\":24023:24025   */\n      0x20\n        /* \"#utility.yul\":24018:24021   */\n      dup3\n        /* \"#utility.yul\":24014:24026   */\n      add\n        /* \"#utility.yul\":24007:24026   */\n      swap2\n      pop\n        /* \"#utility.yul\":24036:24111   */\n      tag_694\n        /* \"#utility.yul\":24107:24110   */\n      dup3\n        /* \"#utility.yul\":24098:24104   */\n      dup5\n        /* \"#utility.yul\":24036:24111   */\n      tag_470\n      jump\t// in\n    tag_694:\n        /* \"#utility.yul\":24136:24138   */\n      0x20\n        /* \"#utility.yul\":24131:24134   */\n      dup3\n        /* \"#utility.yul\":24127:24139   */\n      add\n        /* \"#utility.yul\":24120:24139   */\n      swap2\n      pop\n        /* \"#utility.yul\":24156:24159   */\n      dup2\n        /* \"#utility.yul\":24149:24159   */\n      swap1\n      pop\n        /* \"#utility.yul\":23768:24165   */\n      swap4\n      swap3\n      pop\n      pop\n      pop\n      jump\t// out\n        /* \"#utility.yul\":24171:24351   */\n    tag_471:\n        /* \"#utility.yul\":24219:24296   */\n      0x4e487b7100000000000000000000000000000000000000000000000000000000\n        /* \"#utility.yul\":24216:24217   */\n      0x00\n        /* \"#utility.yul\":24209:24297   */\n      mstore\n        /* \"#utility.yul\":24316:24320   */\n      0x12\n        /* \"#utility.yul\":24313:24314   */\n      0x04\n        /* \"#utility.yul\":24306:24321   */\n      mstore\n        /* \"#utility.yul\":24340:24344   */\n      0x24\n        /* \"#utility.yul\":24337:24338   */\n      0x00\n        /* \"#utility.yul\":24330:24345   */\n      revert\n        /* \"#utility.yul\":24357:24533   */\n    tag_200:\n        /* \"#utility.yul\":24389:24390   */\n      0x00\n        /* \"#utility.yul\":24406:24426   */\n      tag_697\n        /* \"#utility.yul\":24424:24425   */\n      dup3\n        /* \"#utility.yul\":24406:24426   */\n      tag_407\n      jump\t// in\n    tag_697:\n        /* \"#utility.yul\":24401:24426   */\n      swap2\n      pop\n        /* \"#utility.yul\":24440:24460   */\n      tag_698\n        /* \"#utility.yul\":24458:24459   */\n      dup4\n        /* \"#utility.yul\":24440:24460   */\n      tag_407\n      jump\t// in\n    tag_698:\n        /* \"#utility.yul\":24435:24460   */\n      swap3\n      pop\n        /* \"#utility.yul\":24479:24480   */\n      dup3\n        /* \"#utility.yul\":24469:24504   */\n      tag_699\n      jumpi\n        /* \"#utility.yul\":24484:24502   */\n      tag_700\n      tag_471\n      jump\t// in\n    tag_700:\n        /* \"#utility.yul\":24469:24504   */\n    tag_699:\n        /* \"#utility.yul\":24525:24526   */\n      dup3\n        /* \"#utility.yul\":24522:24523   */\n      dup3\n        /* \"#utility.yul\":24518:24527   */\n      mod\n        /* \"#utility.yul\":24513:24527   */\n      swap1\n      pop\n        /* \"#utility.yul\":24357:24533   */\n      swap3\n      swap2\n      pop\n      pop\n      jump\t// out\n        /* \"#utility.yul\":24539:24719   */\n    tag_204:\n        /* \"#utility.yul\":24587:24664   */\n      0x4e487b7100000000000000000000000000000000000000000000000000000000\n        /* \"#utility.yul\":24584:24585   */\n      0x00\n        /* \"#utility.yul\":24577:24665   */\n      mstore\n        /* \"#utility.yul\":24684:24688   */\n      0x32\n        /* \"#utility.yul\":24681:24682   */\n      0x04\n        /* \"#utility.yul\":24674:24689   */\n      mstore\n        /* \"#utility.yul\":24708:24712   */\n      0x24\n        /* \"#utility.yul\":24705:24706   */\n      0x00\n        /* \"#utility.yul\":24698:24713   */\n      revert\n        /* \"#utility.yul\":24725:24905   */\n    tag_207:\n        /* \"#utility.yul\":24773:24850   */\n      0x4e487b7100000000000000000000000000000000000000000000000000000000\n        /* \"#utility.yul\":24770:24771   */\n      0x00\n        /* \"#utility.yul\":24763:24851   */\n      mstore\n        /* \"#utility.yul\":24870:24874   */\n      0x41\n        /* \"#utility.yul\":24867:24868   */\n      0x04\n        /* \"#utility.yul\":24860:24875   */\n      mstore\n        /* \"#utility.yul\":24894:24898   */\n      0x24\n        /* \"#utility.yul\":24891:24892   */\n      0x00\n        /* \"#utility.yul\":24884:24899   */\n      revert\n        /* \"#utility.yul\":24911:25012   */\n    tag_472:\n        /* \"#utility.yul\":24947:24954   */\n      0x00\n        /* \"#utility.yul\":24987:25005   */\n      0xffffffffffffffff\n        /* \"#utility.yul\":24980:24985   */\n      dup3\n        /* \"#utility.yul\":24976:25006   */\n      and\n        /* \"#utility.yul\":24965:25006   */\n      swap1\n      pop\n        /* \"#utility.yul\":24911:25012   */\n      swap2\n      swap1\n      pop\n      jump\t// out\n        /* \"#utility.yul\":25018:25133   */\n    tag_473:\n        /* \"#utility.yul\":25103:25126   */\n      tag_705\n        /* \"#utility.yul\":25120:25125   */\n      dup2\n        /* \"#utility.yul\":25103:25126   */\n      tag_472\n      jump\t// in\n    tag_705:\n        /* \"#utility.yul\":25098:25101   */\n      dup3\n        /* \"#utility.yul\":25091:25127   */\n      mstore\n        /* \"#utility.yul\":25018:25133   */\n      pop\n      pop\n      jump\t// out\n        /* \"#utility.yul\":25139:25467   */\n    tag_239:\n        /* \"#utility.yul\":25258:25262   */\n      0x00\n        /* \"#utility.yul\":25296:25298   */\n      0x40\n        /* \"#utility.yul\":25285:25294   */\n      dup3\n        /* \"#utility.yul\":25281:25299   */\n      add\n        /* \"#utility.yul\":25273:25299   */\n      swap1\n      pop\n        /* \"#utility.yul\":25309:25380   */\n      tag_707\n        /* \"#utility.yul\":25377:25378   */\n      0x00\n        /* \"#utility.yul\":25366:25375   */\n      dup4\n        /* \"#utility.yul\":25362:25379   */\n      add\n        /* \"#utility.yul\":25353:25359   */\n      dup6\n        /* \"#utility.yul\":25309:25380   */\n      tag_449\n      jump\t// in\n    tag_707:\n        /* \"#utility.yul\":25390:25460   */\n      tag_708\n        /* \"#utility.yul\":25456:25458   */\n      0x20\n        /* \"#utility.yul\":25445:25454   */\n      dup4\n        /* \"#utility.yul\":25441:25459   */\n      add\n        /* \"#utility.yul\":25432:25438   */\n      dup5\n        /* \"#utility.yul\":25390:25460   */\n      tag_473\n      jump\t// in\n    tag_708:\n        /* \"#utility.yul\":25139:25467   */\n      swap4\n      swap3\n      pop\n      pop\n      pop\n      jump\t// out\n        /* \"#utility.yul\":25473:25697   */\n    tag_474:\n        /* \"#utility.yul\":25613:25647   */\n      0x43616e6e6f7420627579207469636b65747320647572696e6720616374697665\n        /* \"#utility.yul\":25609:25610   */\n      0x00\n        /* \"#utility.yul\":25601:25607   */\n      dup3\n        /* \"#utility.yul\":25597:25611   */\n      add\n        /* \"#utility.yul\":25590:25648   */\n      mstore\n        /* \"#utility.yul\":25682:25689   */\n      0x2064726177000000000000000000000000000000000000000000000000000000\n        /* \"#utility.yul\":25677:25679   */\n      0x20\n        /* \"#utility.yul\":25669:25675   */\n      dup3\n        /* \"#utility.yul\":25665:25680   */\n      add\n        /* \"#utility.yul\":25658:25690   */\n      mstore\n        /* \"#utility.yul\":25473:25697   */\n      pop\n      jump\t// out\n        /* \"#utility.yul\":25703:26069   */\n    tag_475:\n        /* \"#utility.yul\":25845:25848   */\n      0x00\n        /* \"#utility.yul\":25866:25933   */\n      tag_711\n        /* \"#utility.yul\":25930:25932   */\n      0x25\n        /* \"#utility.yul\":25925:25928   */\n      dup4\n        /* \"#utility.yul\":25866:25933   */\n      tag_426\n      jump\t// in\n    tag_711:\n        /* \"#utility.yul\":25859:25933   */\n      swap2\n      pop\n        /* \"#utility.yul\":25942:26035   */\n      tag_712\n        /* \"#utility.yul\":26031:26034   */\n      dup3\n        /* \"#utility.yul\":25942:26035   */\n      tag_474\n      jump\t// in\n    tag_712:\n        /* \"#utility.yul\":26060:26062   */\n      0x40\n        /* \"#utility.yul\":26055:26058   */\n      dup3\n        /* \"#utility.yul\":26051:26063   */\n      add\n        /* \"#utility.yul\":26044:26063   */\n      swap1\n      pop\n        /* \"#utility.yul\":25703:26069   */\n      swap2\n      swap1\n      pop\n      jump\t// out\n        /* \"#utility.yul\":26075:26494   */\n    tag_253:\n        /* \"#utility.yul\":26241:26245   */\n      0x00\n        /* \"#utility.yul\":26279:26281   */\n      0x20\n        /* \"#utility.yul\":26268:26277   */\n      dup3\n        /* \"#utility.yul\":26264:26282   */\n      add\n        /* \"#utility.yul\":26256:26282   */\n      swap1\n      pop\n        /* \"#utility.yul\":26328:26337   */\n      dup2\n        /* \"#utility.yul\":26322:26326   */\n      dup2\n        /* \"#utility.yul\":26318:26338   */\n      sub\n        /* \"#utility.yul\":26314:26315   */\n      0x00\n        /* \"#utility.yul\":26303:26312   */\n      dup4\n        /* \"#utility.yul\":26299:26316   */\n      add\n        /* \"#utility.yul\":26292:26339   */\n      mstore\n        /* \"#utility.yul\":26356:26487   */\n      tag_714\n        /* \"#utility.yul\":26482:26486   */\n      dup2\n        /* \"#utility.yul\":26356:26487   */\n      tag_475\n      jump\t// in\n    tag_714:\n        /* \"#utility.yul\":26348:26487   */\n      swap1\n      pop\n        /* \"#utility.yul\":26075:26494   */\n      swap2\n      swap1\n      pop\n      jump\t// out\n        /* \"#utility.yul\":26500:26859   */\n    tag_476:\n        /* \"#utility.yul\":26640:26674   */\n      0x57726f6e6720616d6f756e74206f6620657468657220746f206a6f696e2e2050\n        /* \"#utility.yul\":26636:26637   */\n      0x00\n        /* \"#utility.yul\":26628:26634   */\n      dup3\n        /* \"#utility.yul\":26624:26638   */\n      add\n        /* \"#utility.yul\":26617:26675   */\n      mstore\n        /* \"#utility.yul\":26709:26743   */\n      0x6c6561736520706179206174206c6561737420302e3031352065746865722e20\n        /* \"#utility.yul\":26704:26706   */\n      0x20\n        /* \"#utility.yul\":26696:26702   */\n      dup3\n        /* \"#utility.yul\":26692:26707   */\n      add\n        /* \"#utility.yul\":26685:26744   */\n      mstore\n        /* \"#utility.yul\":26778:26812   */\n      0x416e79206d6f72652077696c6c20626520636f6e736964657265642061207469\n        /* \"#utility.yul\":26773:26775   */\n      0x40\n        /* \"#utility.yul\":26765:26771   */\n      dup3\n        /* \"#utility.yul\":26761:26776   */\n      add\n        /* \"#utility.yul\":26754:26813   */\n      mstore\n        /* \"#utility.yul\":26847:26851   */\n      0x702e000000000000000000000000000000000000000000000000000000000000\n        /* \"#utility.yul\":26842:26844   */\n      0x60\n        /* \"#utility.yul\":26834:26840   */\n      dup3\n        /* \"#utility.yul\":26830:26845   */\n      add\n        /* \"#utility.yul\":26823:26852   */\n      mstore\n        /* \"#utility.yul\":26500:26859   */\n      pop\n      jump\t// out\n        /* \"#utility.yul\":26865:27232   */\n    tag_477:\n        /* \"#utility.yul\":27007:27010   */\n      0x00\n        /* \"#utility.yul\":27028:27095   */\n      tag_717\n        /* \"#utility.yul\":27092:27094   */\n      0x62\n        /* \"#utility.yul\":27087:27090   */\n      dup4\n        /* \"#utility.yul\":27028:27095   */\n      tag_426\n      jump\t// in\n    tag_717:\n        /* \"#utility.yul\":27021:27095   */\n      swap2\n      pop\n        /* \"#utility.yul\":27104:27197   */\n      tag_718\n        /* \"#utility.yul\":27193:27196   */\n      dup3\n        /* \"#utility.yul\":27104:27197   */\n      tag_476\n      jump\t// in\n    tag_718:\n        /* \"#utility.yul\":27222:27225   */\n      0x80\n        /* \"#utility.yul\":27217:27220   */\n      dup3\n        /* \"#utility.yul\":27213:27226   */\n      add\n        /* \"#utility.yul\":27206:27226   */\n      swap1\n      pop\n        /* \"#utility.yul\":26865:27232   */\n      swap2\n      swap1\n      pop\n      jump\t// out\n        /* \"#utility.yul\":27238:27657   */\n    tag_256:\n        /* \"#utility.yul\":27404:27408   */\n      0x00\n        /* \"#utility.yul\":27442:27444   */\n      0x20\n        /* \"#utility.yul\":27431:27440   */\n      dup3\n        /* \"#utility.yul\":27427:27445   */\n      add\n        /* \"#utility.yul\":27419:27445   */\n      swap1\n      pop\n        /* \"#utility.yul\":27491:27500   */\n      dup2\n        /* \"#utility.yul\":27485:27489   */\n      dup2\n        /* \"#utility.yul\":27481:27501   */\n      sub\n        /* \"#utility.yul\":27477:27478   */\n      0x00\n        /* \"#utility.yul\":27466:27475   */\n      dup4\n        /* \"#utility.yul\":27462:27479   */\n      add\n        /* \"#utility.yul\":27455:27502   */\n      mstore\n        /* \"#utility.yul\":27519:27650   */\n      tag_720\n        /* \"#utility.yul\":27645:27649   */\n      dup2\n        /* \"#utility.yul\":27519:27650   */\n      tag_477\n      jump\t// in\n    tag_720:\n        /* \"#utility.yul\":27511:27650   */\n      swap1\n      pop\n        /* \"#utility.yul\":27238:27657   */\n      swap2\n      swap1\n      pop\n      jump\t// out\n        /* \"#utility.yul\":27663:27857   */\n    tag_260:\n        /* \"#utility.yul\":27703:27707   */\n      0x00\n        /* \"#utility.yul\":27723:27743   */\n      tag_722\n        /* \"#utility.yul\":27741:27742   */\n      dup3\n        /* \"#utility.yul\":27723:27743   */\n      tag_407\n      jump\t// in\n    tag_722:\n        /* \"#utility.yul\":27718:27743   */\n      swap2\n      pop\n        /* \"#utility.yul\":27757:27777   */\n      tag_723\n        /* \"#utility.yul\":27775:27776   */\n      dup4\n        /* \"#utility.yul\":27757:27777   */\n      tag_407\n      jump\t// in\n    tag_723:\n        /* \"#utility.yul\":27752:27777   */\n      swap3\n      pop\n        /* \"#utility.yul\":27801:27802   */\n      dup3\n        /* \"#utility.yul\":27798:27799   */\n      dup3\n        /* \"#utility.yul\":27794:27803   */\n      sub\n        /* \"#utility.yul\":27786:27803   */\n      swap1\n      pop\n        /* \"#utility.yul\":27825:27826   */\n      dup2\n        /* \"#utility.yul\":27819:27823   */\n      dup2\n        /* \"#utility.yul\":27816:27827   */\n      gt\n        /* \"#utility.yul\":27813:27850   */\n      iszero\n      tag_724\n      jumpi\n        /* \"#utility.yul\":27830:27848   */\n      tag_725\n      tag_433\n      jump\t// in\n    tag_725:\n        /* \"#utility.yul\":27813:27850   */\n    tag_724:\n        /* \"#utility.yul\":27663:27857   */\n      swap3\n      swap2\n      pop\n      pop\n      jump\t// out\n        /* \"#utility.yul\":27863:28033   */\n    tag_478:\n        /* \"#utility.yul\":28003:28025   */\n      0x4f776e657220776173206e6f742070617965642e000000000000000000000000\n        /* \"#utility.yul\":27999:28000   */\n      0x00\n        /* \"#utility.yul\":27991:27997   */\n      dup3\n        /* \"#utility.yul\":27987:28001   */\n      add\n        /* \"#utility.yul\":27980:28026   */\n      mstore\n        /* \"#utility.yul\":27863:28033   */\n      pop\n      jump\t// out\n        /* \"#utility.yul\":28039:28405   */\n    tag_479:\n        /* \"#utility.yul\":28181:28184   */\n      0x00\n        /* \"#utility.yul\":28202:28269   */\n      tag_728\n        /* \"#utility.yul\":28266:28268   */\n      0x14\n        /* \"#utility.yul\":28261:28264   */\n      dup4\n        /* \"#utility.yul\":28202:28269   */\n      tag_426\n      jump\t// in\n    tag_728:\n        /* \"#utility.yul\":28195:28269   */\n      swap2\n      pop\n        /* \"#utility.yul\":28278:28371   */\n      tag_729\n        /* \"#utility.yul\":28367:28370   */\n      dup3\n        /* \"#utility.yul\":28278:28371   */\n      tag_478\n      jump\t// in\n    tag_729:\n        /* \"#utility.yul\":28396:28398   */\n      0x20\n        /* \"#utility.yul\":28391:28394   */\n      dup3\n        /* \"#utility.yul\":28387:28399   */\n      add\n        /* \"#utility.yul\":28380:28399   */\n      swap1\n      pop\n        /* \"#utility.yul\":28039:28405   */\n      swap2\n      swap1\n      pop\n      jump\t// out\n        /* \"#utility.yul\":28411:28830   */\n    tag_268:\n        /* \"#utility.yul\":28577:28581   */\n      0x00\n        /* \"#utility.yul\":28615:28617   */\n      0x20\n        /* \"#utility.yul\":28604:28613   */\n      dup3\n        /* \"#utility.yul\":28600:28618   */\n      add\n        /* \"#utility.yul\":28592:28618   */\n      swap1\n      pop\n        /* \"#utility.yul\":28664:28673   */\n      dup2\n        /* \"#utility.yul\":28658:28662   */\n      dup2\n        /* \"#utility.yul\":28654:28674   */\n      sub\n        /* \"#utility.yul\":28650:28651   */\n      0x00\n        /* \"#utility.yul\":28639:28648   */\n      dup4\n        /* \"#utility.yul\":28635:28652   */\n      add\n        /* \"#utility.yul\":28628:28675   */\n      mstore\n        /* \"#utility.yul\":28692:28823   */\n      tag_731\n        /* \"#utility.yul\":28818:28822   */\n      dup2\n        /* \"#utility.yul\":28692:28823   */\n      tag_479\n      jump\t// in\n    tag_731:\n        /* \"#utility.yul\":28684:28823   */\n      swap1\n      pop\n        /* \"#utility.yul\":28411:28830   */\n      swap2\n      swap1\n      pop\n      jump\t// out\n        /* \"#utility.yul\":28836:29029   */\n    tag_273:\n        /* \"#utility.yul\":28875:28878   */\n      0x00\n        /* \"#utility.yul\":28894:28913   */\n      tag_733\n        /* \"#utility.yul\":28911:28912   */\n      dup3\n        /* \"#utility.yul\":28894:28913   */\n      tag_416\n      jump\t// in\n    tag_733:\n        /* \"#utility.yul\":28889:28913   */\n      swap2\n      pop\n        /* \"#utility.yul\":28927:28946   */\n      tag_734\n        /* \"#utility.yul\":28944:28945   */\n      dup4\n        /* \"#utility.yul\":28927:28946   */\n      tag_416\n      jump\t// in\n    tag_734:\n        /* \"#utility.yul\":28922:28946   */\n      swap3\n      pop\n        /* \"#utility.yul\":28969:28970   */\n      dup3\n        /* \"#utility.yul\":28966:28967   */\n      dup3\n        /* \"#utility.yul\":28962:28971   */\n      add\n        /* \"#utility.yul\":28955:28971   */\n      swap1\n      pop\n        /* \"#utility.yul\":28992:28998   */\n      0xffff\n        /* \"#utility.yul\":28987:28990   */\n      dup2\n        /* \"#utility.yul\":28984:28999   */\n      gt\n        /* \"#utility.yul\":28981:29022   */\n      iszero\n      tag_735\n      jumpi\n        /* \"#utility.yul\":29002:29020   */\n      tag_736\n      tag_433\n      jump\t// in\n    tag_736:\n        /* \"#utility.yul\":28981:29022   */\n    tag_735:\n        /* \"#utility.yul\":28836:29029   */\n      swap3\n      swap2\n      pop\n      pop\n      jump\t// out\n        /* \"#utility.yul\":29035:29191   */\n    tag_480:\n        /* \"#utility.yul\":29175:29183   */\n      0x6a6f696e65640000000000000000000000000000000000000000000000000000\n        /* \"#utility.yul\":29171:29172   */\n      0x00\n        /* \"#utility.yul\":29163:29169   */\n      dup3\n        /* \"#utility.yul\":29159:29173   */\n      add\n        /* \"#utility.yul\":29152:29184   */\n      mstore\n        /* \"#utility.yul\":29035:29191   */\n      pop\n      jump\t// out\n        /* \"#utility.yul\":29197:29562   */\n    tag_481:\n        /* \"#utility.yul\":29339:29342   */\n      0x00\n        /* \"#utility.yul\":29360:29426   */\n      tag_739\n        /* \"#utility.yul\":29424:29425   */\n      0x06\n        /* \"#utility.yul\":29419:29422   */\n      dup4\n        /* \"#utility.yul\":29360:29426   */\n      tag_426\n      jump\t// in\n    tag_739:\n        /* \"#utility.yul\":29353:29426   */\n      swap2\n      pop\n        /* \"#utility.yul\":29435:29528   */\n      tag_740\n        /* \"#utility.yul\":29524:29527   */\n      dup3\n        /* \"#utility.yul\":29435:29528   */\n      tag_480\n      jump\t// in\n    tag_740:\n        /* \"#utility.yul\":29553:29555   */\n      0x20\n        /* \"#utility.yul\":29548:29551   */\n      dup3\n        /* \"#utility.yul\":29544:29556   */\n      add\n        /* \"#utility.yul\":29537:29556   */\n      swap1\n      pop\n        /* \"#utility.yul\":29197:29562   */\n      swap2\n      swap1\n      pop\n      jump\t// out\n        /* \"#utility.yul\":29568:30097   */\n    tag_278:\n        /* \"#utility.yul\":29762:29766   */\n      0x00\n        /* \"#utility.yul\":29800:29802   */\n      0x40\n        /* \"#utility.yul\":29789:29798   */\n      dup3\n        /* \"#utility.yul\":29785:29803   */\n      add\n        /* \"#utility.yul\":29777:29803   */\n      swap1\n      pop\n        /* \"#utility.yul\":29813:29884   */\n      tag_742\n        /* \"#utility.yul\":29881:29882   */\n      0x00\n        /* \"#utility.yul\":29870:29879   */\n      dup4\n        /* \"#utility.yul\":29866:29883   */\n      add\n        /* \"#utility.yul\":29857:29863   */\n      dup5\n        /* \"#utility.yul\":29813:29884   */\n      tag_449\n      jump\t// in\n    tag_742:\n        /* \"#utility.yul\":29931:29940   */\n      dup2\n        /* \"#utility.yul\":29925:29929   */\n      dup2\n        /* \"#utility.yul\":29921:29941   */\n      sub\n        /* \"#utility.yul\":29916:29918   */\n      0x20\n        /* \"#utility.yul\":29905:29914   */\n      dup4\n        /* \"#utility.yul\":29901:29919   */\n      add\n        /* \"#utility.yul\":29894:29942   */\n      mstore\n        /* \"#utility.yul\":29959:30090   */\n      tag_743\n        /* \"#utility.yul\":30085:30089   */\n      dup2\n        /* \"#utility.yul\":29959:30090   */\n      tag_481\n      jump\t// in\n    tag_743:\n        /* \"#utility.yul\":29951:30090   */\n      swap1\n      pop\n        /* \"#utility.yul\":29568:30097   */\n      swap3\n      swap2\n      pop\n      pop\n      jump\t// out\n        /* \"#utility.yul\":30103:30281   */\n    tag_482:\n        /* \"#utility.yul\":30243:30273   */\n      0x4e656564206174206c656173742032207061727469636970616e747300000000\n        /* \"#utility.yul\":30239:30240   */\n      0x00\n        /* \"#utility.yul\":30231:30237   */\n      dup3\n        /* \"#utility.yul\":30227:30241   */\n      add\n        /* \"#utility.yul\":30220:30274   */\n      mstore\n        /* \"#utility.yul\":30103:30281   */\n      pop\n      jump\t// out\n        /* \"#utility.yul\":30287:30653   */\n    tag_483:\n        /* \"#utility.yul\":30429:30432   */\n      0x00\n        /* \"#utility.yul\":30450:30517   */\n      tag_746\n        /* \"#utility.yul\":30514:30516   */\n      0x1c\n        /* \"#utility.yul\":30509:30512   */\n      dup4\n        /* \"#utility.yul\":30450:30517   */\n      tag_426\n      jump\t// in\n    tag_746:\n        /* \"#utility.yul\":30443:30517   */\n      swap2\n      pop\n        /* \"#utility.yul\":30526:30619   */\n      tag_747\n        /* \"#utility.yul\":30615:30618   */\n      dup3\n        /* \"#utility.yul\":30526:30619   */\n      tag_482\n      jump\t// in\n    tag_747:\n        /* \"#utility.yul\":30644:30646   */\n      0x20\n        /* \"#utility.yul\":30639:30642   */\n      dup3\n        /* \"#utility.yul\":30635:30647   */\n      add\n        /* \"#utility.yul\":30628:30647   */\n      swap1\n      pop\n        /* \"#utility.yul\":30287:30653   */\n      swap2\n      swap1\n      pop\n      jump\t// out\n        /* \"#utility.yul\":30659:31078   */\n    tag_285:\n        /* \"#utility.yul\":30825:30829   */\n      0x00\n        /* \"#utility.yul\":30863:30865   */\n      0x20\n        /* \"#utility.yul\":30852:30861   */\n      dup3\n        /* \"#utility.yul\":30848:30866   */\n      add\n        /* \"#utility.yul\":30840:30866   */\n      swap1\n      pop\n        /* \"#utility.yul\":30912:30921   */\n      dup2\n        /* \"#utility.yul\":30906:30910   */\n      dup2\n        /* \"#utility.yul\":30902:30922   */\n      sub\n        /* \"#utility.yul\":30898:30899   */\n      0x00\n        /* \"#utility.yul\":30887:30896   */\n      dup4\n        /* \"#utility.yul\":30883:30900   */\n      add\n        /* \"#utility.yul\":30876:30923   */\n      mstore\n        /* \"#utility.yul\":30940:31071   */\n      tag_749\n        /* \"#utility.yul\":31066:31070   */\n      dup2\n        /* \"#utility.yul\":30940:31071   */\n      tag_483\n      jump\t// in\n    tag_749:\n        /* \"#utility.yul\":30932:31071   */\n      swap1\n      pop\n        /* \"#utility.yul\":30659:31078   */\n      swap2\n      swap1\n      pop\n      jump\t// out\n        /* \"#utility.yul\":31084:31265   */\n    tag_484:\n        /* \"#utility.yul\":31224:31257   */\n      0x496e74657276616c206d757374206265206174206c6561737420312064617900\n        /* \"#utility.yul\":31220:31221   */\n      0x00\n        /* \"#utility.yul\":31212:31218   */\n      dup3\n        /* \"#utility.yul\":31208:31222   */\n      add\n        /* \"#utility.yul\":31201:31258   */\n      mstore\n        /* \"#utility.yul\":31084:31265   */\n      pop\n      jump\t// out\n        /* \"#utility.yul\":31271:31637   */\n    tag_485:\n        /* \"#utility.yul\":31413:31416   */\n      0x00\n        /* \"#utility.yul\":31434:31501   */\n      tag_752\n        /* \"#utility.yul\":31498:31500   */\n      0x1f\n        /* \"#utility.yul\":31493:31496   */\n      dup4\n        /* \"#utility.yul\":31434:31501   */\n      tag_426\n      jump\t// in\n    tag_752:\n        /* \"#utility.yul\":31427:31501   */\n      swap2\n      pop\n        /* \"#utility.yul\":31510:31603   */\n      tag_753\n        /* \"#utility.yul\":31599:31602   */\n      dup3\n        /* \"#utility.yul\":31510:31603   */\n      tag_484\n      jump\t// in\n    tag_753:\n        /* \"#utility.yul\":31628:31630   */\n      0x20\n        /* \"#utility.yul\":31623:31626   */\n      dup3\n        /* \"#utility.yul\":31619:31631   */\n      add\n        /* \"#utility.yul\":31612:31631   */\n      swap1\n      pop\n        /* \"#utility.yul\":31271:31637   */\n      swap2\n      swap1\n      pop\n      jump\t// out\n        /* \"#utility.yul\":31643:32062   */\n    tag_294:\n        /* \"#utility.yul\":31809:31813   */\n      0x00\n        /* \"#utility.yul\":31847:31849   */\n      0x20\n        /* \"#utility.yul\":31836:31845   */\n      dup3\n        /* \"#utility.yul\":31832:31850   */\n      add\n        /* \"#utility.yul\":31824:31850   */\n      swap1\n      pop\n        /* \"#utility.yul\":31896:31905   */\n      dup2\n        /* \"#utility.yul\":31890:31894   */\n      dup2\n        /* \"#utility.yul\":31886:31906   */\n      sub\n        /* \"#utility.yul\":31882:31883   */\n      0x00\n        /* \"#utility.yul\":31871:31880   */\n      dup4\n        /* \"#utility.yul\":31867:31884   */\n      add\n        /* \"#utility.yul\":31860:31907   */\n      mstore\n        /* \"#utility.yul\":31924:32055   */\n      tag_755\n        /* \"#utility.yul\":32050:32054   */\n      dup2\n        /* \"#utility.yul\":31924:32055   */\n      tag_485\n      jump\t// in\n    tag_755:\n        /* \"#utility.yul\":31916:32055   */\n      swap1\n      pop\n        /* \"#utility.yul\":31643:32062   */\n      swap2\n      swap1\n      pop\n      jump\t// out\n        /* \"#utility.yul\":32068:32248   */\n    tag_486:\n        /* \"#utility.yul\":32208:32240   */\n      0x496e74657276616c2063616e6e6f742065786365656420333020646179730000\n        /* \"#utility.yul\":32204:32205   */\n      0x00\n        /* \"#utility.yul\":32196:32202   */\n      dup3\n        /* \"#utility.yul\":32192:32206   */\n      add\n        /* \"#utility.yul\":32185:32241   */\n      mstore\n        /* \"#utility.yul\":32068:32248   */\n      pop\n      jump\t// out\n        /* \"#utility.yul\":32254:32620   */\n    tag_487:\n        /* \"#utility.yul\":32396:32399   */\n      0x00\n        /* \"#utility.yul\":32417:32484   */\n      tag_758\n        /* \"#utility.yul\":32481:32483   */\n      0x1e\n        /* \"#utility.yul\":32476:32479   */\n      dup4\n        /* \"#utility.yul\":32417:32484   */\n      tag_426\n      jump\t// in\n    tag_758:\n        /* \"#utility.yul\":32410:32484   */\n      swap2\n      pop\n        /* \"#utility.yul\":32493:32586   */\n      tag_759\n        /* \"#utility.yul\":32582:32585   */\n      dup3\n        /* \"#utility.yul\":32493:32586   */\n      tag_486\n      jump\t// in\n    tag_759:\n        /* \"#utility.yul\":32611:32613   */\n      0x20\n        /* \"#utility.yul\":32606:32609   */\n      dup3\n        /* \"#utility.yul\":32602:32614   */\n      add\n        /* \"#utility.yul\":32595:32614   */\n      swap1\n      pop\n        /* \"#utility.yul\":32254:32620   */\n      swap2\n      swap1\n      pop\n      jump\t// out\n        /* \"#utility.yul\":32626:33045   */\n    tag_297:\n        /* \"#utility.yul\":32792:32796   */\n      0x00\n        /* \"#utility.yul\":32830:32832   */\n      0x20\n        /* \"#utility.yul\":32819:32828   */\n      dup3\n        /* \"#utility.yul\":32815:32833   */\n      add\n        /* \"#utility.yul\":32807:32833   */\n      swap1\n      pop\n        /* \"#utility.yul\":32879:32888   */\n      dup2\n        /* \"#utility.yul\":32873:32877   */\n      dup2\n        /* \"#utility.yul\":32869:32889   */\n      sub\n        /* \"#utility.yul\":32865:32866   */\n      0x00\n        /* \"#utility.yul\":32854:32863   */\n      dup4\n        /* \"#utility.yul\":32850:32867   */\n      add\n        /* \"#utility.yul\":32843:32890   */\n      mstore\n        /* \"#utility.yul\":32907:33038   */\n      tag_761\n        /* \"#utility.yul\":33033:33037   */\n      dup2\n        /* \"#utility.yul\":32907:33038   */\n      tag_487\n      jump\t// in\n    tag_761:\n        /* \"#utility.yul\":32899:33038   */\n      swap1\n      pop\n        /* \"#utility.yul\":32626:33045   */\n      swap2\n      swap1\n      pop\n      jump\t// out\n        /* \"#utility.yul\":33051:33216   */\n    tag_488:\n        /* \"#utility.yul\":33191:33208   */\n      0x4c656e677468206d69736d617463680000000000000000000000000000000000\n        /* \"#utility.yul\":33187:33188   */\n      0x00\n        /* \"#utility.yul\":33179:33185   */\n      dup3\n        /* \"#utility.yul\":33175:33189   */\n      add\n        /* \"#utility.yul\":33168:33209   */\n      mstore\n        /* \"#utility.yul\":33051:33216   */\n      pop\n      jump\t// out\n        /* \"#utility.yul\":33222:33588   */\n    tag_489:\n        /* \"#utility.yul\":33364:33367   */\n      0x00\n        /* \"#utility.yul\":33385:33452   */\n      tag_764\n        /* \"#utility.yul\":33449:33451   */\n      0x0f\n        /* \"#utility.yul\":33444:33447   */\n      dup4\n        /* \"#utility.yul\":33385:33452   */\n      tag_426\n      jump\t// in\n    tag_764:\n        /* \"#utility.yul\":33378:33452   */\n      swap2\n      pop\n        /* \"#utility.yul\":33461:33554   */\n      tag_765\n        /* \"#utility.yul\":33550:33553   */\n      dup3\n        /* \"#utility.yul\":33461:33554   */\n      tag_488\n      jump\t// in\n    tag_765:\n        /* \"#utility.yul\":33579:33581   */\n      0x20\n        /* \"#utility.yul\":33574:33577   */\n      dup3\n        /* \"#utility.yul\":33570:33582   */\n      add\n        /* \"#utility.yul\":33563:33582   */\n      swap1\n      pop\n        /* \"#utility.yul\":33222:33588   */\n      swap2\n      swap1\n      pop\n      jump\t// out\n        /* \"#utility.yul\":33594:34013   */\n    tag_301:\n        /* \"#utility.yul\":33760:33764   */\n      0x00\n        /* \"#utility.yul\":33798:33800   */\n      0x20\n        /* \"#utility.yul\":33787:33796   */\n      dup3\n        /* \"#utility.yul\":33783:33801   */\n      add\n        /* \"#utility.yul\":33775:33801   */\n      swap1\n      pop\n        /* \"#utility.yul\":33847:33856   */\n      dup2\n        /* \"#utility.yul\":33841:33845   */\n      dup2\n        /* \"#utility.yul\":33837:33857   */\n      sub\n        /* \"#utility.yul\":33833:33834   */\n      0x00\n        /* \"#utility.yul\":33822:33831   */\n      dup4\n        /* \"#utility.yul\":33818:33835   */\n      add\n        /* \"#utility.yul\":33811:33858   */\n      mstore\n        /* \"#utility.yul\":33875:34006   */\n      tag_767\n        /* \"#utility.yul\":34001:34005   */\n      dup2\n        /* \"#utility.yul\":33875:34006   */\n      tag_489\n      jump\t// in\n    tag_767:\n        /* \"#utility.yul\":33867:34006   */\n      swap1\n      pop\n        /* \"#utility.yul\":33594:34013   */\n      swap2\n      swap1\n      pop\n      jump\t// out\n        /* \"#utility.yul\":34019:34204   */\n    tag_332:\n        /* \"#utility.yul\":34059:34060   */\n      0x00\n        /* \"#utility.yul\":34076:34096   */\n      tag_769\n        /* \"#utility.yul\":34094:34095   */\n      dup3\n        /* \"#utility.yul\":34076:34096   */\n      tag_407\n      jump\t// in\n    tag_769:\n        /* \"#utility.yul\":34071:34096   */\n      swap2\n      pop\n        /* \"#utility.yul\":34110:34130   */\n      tag_770\n        /* \"#utility.yul\":34128:34129   */\n      dup4\n        /* \"#utility.yul\":34110:34130   */\n      tag_407\n      jump\t// in\n    tag_770:\n        /* \"#utility.yul\":34105:34130   */\n      swap3\n      pop\n        /* \"#utility.yul\":34149:34150   */\n      dup3\n        /* \"#utility.yul\":34139:34174   */\n      tag_771\n      jumpi\n        /* \"#utility.yul\":34154:34172   */\n      tag_772\n      tag_471\n      jump\t// in\n    tag_772:\n        /* \"#utility.yul\":34139:34174   */\n    tag_771:\n        /* \"#utility.yul\":34196:34197   */\n      dup3\n        /* \"#utility.yul\":34193:34194   */\n      dup3\n        /* \"#utility.yul\":34189:34198   */\n      div\n        /* \"#utility.yul\":34184:34198   */\n      swap1\n      pop\n        /* \"#utility.yul\":34019:34204   */\n      swap3\n      swap2\n      pop\n      pop\n      jump\t// out\n        /* \"#utility.yul\":34210:34443   */\n    tag_359:\n        /* \"#utility.yul\":34249:34252   */\n      0x00\n        /* \"#utility.yul\":34272:34296   */\n      tag_774\n        /* \"#utility.yul\":34290:34295   */\n      dup3\n        /* \"#utility.yul\":34272:34296   */\n      tag_407\n      jump\t// in\n    tag_774:\n        /* \"#utility.yul\":34263:34296   */\n      swap2\n      pop\n        /* \"#utility.yul\":34318:34384   */\n      0xffffffffffffffffffffffffffffffffffffffffffffffffffffffffffffffff\n        /* \"#utility.yul\":34311:34316   */\n      dup3\n        /* \"#utility.yul\":34308:34385   */\n      sub\n        /* \"#utility.yul\":34305:34408   */\n      tag_775\n      jumpi\n        /* \"#utility.yul\":34388:34406   */\n      tag_776\n      tag_433\n      jump\t// in\n    tag_776:\n        /* \"#utility.yul\":34305:34408   */\n    tag_775:\n        /* \"#utility.yul\":34435:34436   */\n      0x01\n        /* \"#utility.yul\":34428:34433   */\n      dup3\n        /* \"#utility.yul\":34424:34437   */\n      add\n        /* \"#utility.yul\":34417:34437   */\n      swap1\n      pop\n        /* \"#utility.yul\":34210:34443   */\n      swap2\n      swap1\n      pop\n      jump\t// out\n        /* \"#utility.yul\":34449:34535   */\n    tag_490:\n        /* \"#utility.yul\":34484:34491   */\n      0x00\n        /* \"#utility.yul\":34524:34528   */\n      0xff\n        /* \"#utility.yul\":34517:34522   */\n      dup3\n        /* \"#utility.yul\":34513:34529   */\n      and\n        /* \"#utility.yul\":34502:34529   */\n      swap1\n      pop\n        /* \"#utility.yul\":34449:34535   */\n      swap2\n      swap1\n      pop\n      jump\t// out\n        /* \"#utility.yul\":34541:34659   */\n    tag_491:\n        /* \"#utility.yul\":34612:34634   */\n      tag_779\n        /* \"#utility.yul\":34628:34633   */\n      dup2\n        /* \"#utility.yul\":34612:34634   */\n      tag_490\n      jump\t// in\n    tag_779:\n        /* \"#utility.yul\":34605:34610   */\n      dup2\n        /* \"#utility.yul\":34602:34635   */\n      eq\n        /* \"#utility.yul\":34592:34653   */\n      tag_780\n      jumpi\n        /* \"#utility.yul\":34649:34650   */\n      0x00\n        /* \"#utility.yul\":34646:34647   */\n      0x00\n        /* \"#utility.yul\":34639:34651   */\n      revert\n        /* \"#utility.yul\":34592:34653   */\n    tag_780:\n        /* \"#utility.yul\":34541:34659   */\n      pop\n      jump\t// out\n        /* \"#utility.yul\":34665:34800   */\n    tag_492:\n        /* \"#utility.yul\":34709:34714   */\n      0x00\n        /* \"#utility.yul\":34747:34753   */\n      dup2\n        /* \"#utility.yul\":34734:34754   */\n      calldataload\n        /* \"#utility.yul\":34725:34754   */\n      swap1\n      pop\n        /* \"#utility.yul\":34763:34794   */\n      tag_782\n        /* \"#utility.yul\":34788:34793   */\n      dup2\n        /* \"#utility.yul\":34763:34794   */\n      tag_491\n      jump\t// in\n    tag_782:\n        /* \"#utility.yul\":34665:34800   */\n      swap3\n      swap2\n      pop\n      pop\n      jump\t// out\n        /* \"#utility.yul\":34806:35131   */\n    tag_367:\n        /* \"#utility.yul\":34863:34869   */\n      0x00\n        /* \"#utility.yul\":34912:34914   */\n      0x20\n        /* \"#utility.yul\":34900:34909   */\n      dup3\n        /* \"#utility.yul\":34891:34898   */\n      dup5\n        /* \"#utility.yul\":34887:34910   */\n      sub\n        /* \"#utility.yul\":34883:34915   */\n      slt\n        /* \"#utility.yul\":34880:34999   */\n      iszero\n      tag_784\n      jumpi\n        /* \"#utility.yul\":34918:34997   */\n      tag_785\n      tag_410\n      jump\t// in\n    tag_785:\n        /* \"#utility.yul\":34880:34999   */\n    tag_784:\n        /* \"#utility.yul\":35038:35039   */\n      0x00\n        /* \"#utility.yul\":35063:35114   */\n      tag_786\n        /* \"#utility.yul\":35106:35113   */\n      dup5\n        /* \"#utility.yul\":35097:35103   */\n      dup3\n        /* \"#utility.yul\":35086:35095   */\n      dup6\n        /* \"#utility.yul\":35082:35104   */\n      add\n        /* \"#utility.yul\":35063:35114   */\n      tag_492\n      jump\t// in\n    tag_786:\n        /* \"#utility.yul\":35053:35114   */\n      swap2\n      pop\n        /* \"#utility.yul\":35009:35124   */\n      pop\n        /* \"#utility.yul\":34806:35131   */\n      swap3\n      swap2\n      pop\n      pop\n      jump\t// out\n        /* \"#utility.yul\":35137:35299   */\n    tag_493:\n        /* \"#utility.yul\":35277:35291   */\n      0x4f7574206f662072616e67650000000000000000000000000000000000000000\n        /* \"#utility.yul\":35273:35274   */\n      0x00\n        /* \"#utility.yul\":35265:35271   */\n      dup3\n        /* \"#utility.yul\":35261:35275   */\n      add\n        /* \"#utility.yul\":35254:35292   */\n      mstore\n        /* \"#utility.yul\":35137:35299   */\n      pop\n      jump\t// out\n        /* \"#utility.yul\":35305:35671   */\n    tag_494:\n        /* \"#utility.yul\":35447:35450   */\n      0x00\n        /* \"#utility.yul\":35468:35535   */\n      tag_789\n        /* \"#utility.yul\":35532:35534   */\n      0x0c\n        /* \"#utility.yul\":35527:35530   */\n      dup4\n        /* \"#utility.yul\":35468:35535   */\n      tag_426\n      jump\t// in\n    tag_789:\n        /* \"#utility.yul\":35461:35535   */\n      swap2\n      pop\n        /* \"#utility.yul\":35544:35637   */\n      tag_790\n        /* \"#utility.yul\":35633:35636   */\n      dup3\n        /* \"#utility.yul\":35544:35637   */\n      tag_493\n      jump\t// in\n    tag_790:\n        /* \"#utility.yul\":35662:35664   */\n      0x20\n        /* \"#utility.yul\":35657:35660   */\n      dup3\n        /* \"#utility.yul\":35653:35665   */\n      add\n        /* \"#utility.yul\":35646:35665   */\n      swap1\n      pop\n        /* \"#utility.yul\":35305:35671   */\n      swap2\n      swap1\n      pop\n      jump\t// out\n        /* \"#utility.yul\":35677:36096   */\n    tag_374:\n        /* \"#utility.yul\":35843:35847   */\n      0x00\n        /* \"#utility.yul\":35881:35883   */\n      0x20\n        /* \"#utility.yul\":35870:35879   */\n      dup3\n        /* \"#utility.yul\":35866:35884   */\n      add\n        /* \"#utility.yul\":35858:35884   */\n      swap1\n      pop\n        /* \"#utility.yul\":35930:35939   */\n      dup2\n        /* \"#utility.yul\":35924:35928   */\n      dup2\n        /* \"#utility.yul\":35920:35940   */\n      sub\n        /* \"#utility.yul\":35916:35917   */\n      0x00\n        /* \"#utility.yul\":35905:35914   */\n      dup4\n        /* \"#utility.yul\":35901:35918   */\n      add\n        /* \"#utility.yul\":35894:35941   */\n      mstore\n        /* \"#utility.yul\":35958:36089   */\n      tag_792\n        /* \"#utility.yul\":36084:36088   */\n      dup2\n        /* \"#utility.yul\":35958:36089   */\n      tag_494\n      jump\t// in\n    tag_792:\n        /* \"#utility.yul\":35950:36089   */\n      swap1\n      pop\n        /* \"#utility.yul\":35677:36096   */\n      swap2\n      swap1\n      pop\n      jump\t// out\n        /* \"#utility.yul\":36102:36271   */\n    tag_495:\n        /* \"#utility.yul\":36242:36263   */\n      0x4475706c696361746520696e207469636b657400000000000000000000000000\n        /* \"#utility.yul\":36238:36239   */\n      0x00\n        /* \"#utility.yul\":36230:36236   */\n      dup3\n        /* \"#utility.yul\":36226:36240   */\n      add\n        /* \"#utility.yul\":36219:36264   */\n      mstore\n        /* \"#utility.yul\":36102:36271   */\n      pop\n      jump\t// out\n        /* \"#utility.yul\":36277:36643   */\n    tag_496:\n        /* \"#utility.yul\":36419:36422   */\n      0x00\n        /* \"#utility.yul\":36440:36507   */\n      tag_795\n        /* \"#utility.yul\":36504:36506   */\n      0x13\n        /* \"#utility.yul\":36499:36502   */\n      dup4\n        /* \"#utility.yul\":36440:36507   */\n      tag_426\n      jump\t// in\n    tag_795:\n        /* \"#utility.yul\":36433:36507   */\n      swap2\n      pop\n        /* \"#utility.yul\":36516:36609   */\n      tag_796\n        /* \"#utility.yul\":36605:36608   */\n      dup3\n        /* \"#utility.yul\":36516:36609   */\n      tag_495\n      jump\t// in\n    tag_796:\n        /* \"#utility.yul\":36634:36636   */\n      0x20\n        /* \"#utility.yul\":36629:36632   */\n      dup3\n        /* \"#utility.yul\":36625:36637   */\n      add\n        /* \"#utility.yul\":36618:36637   */\n      swap1\n      pop\n        /* \"#utility.yul\":36277:36643   */\n      swap2\n      swap1\n      pop\n      jump\t// out\n        /* \"#utility.yul\":36649:37068   */\n    tag_387:\n        /* \"#utility.yul\":36815:36819   */\n      0x00\n        /* \"#utility.yul\":36853:36855   */\n      0x20\n        /* \"#utility.yul\":36842:36851   */\n      dup3\n        /* \"#utility.yul\":36838:36856   */\n      add\n        /* \"#utility.yul\":36830:36856   */\n      swap1\n      pop\n        /* \"#utility.yul\":36902:36911   */\n      dup2\n        /* \"#utility.yul\":36896:36900   */\n      dup2\n        /* \"#utility.yul\":36892:36912   */\n      sub\n        /* \"#utility.yul\":36888:36889   */\n      0x00\n        /* \"#utility.yul\":36877:36886   */\n      dup4\n        /* \"#utility.yul\":36873:36890   */\n      add\n        /* \"#utility.yul\":36866:36913   */\n      mstore\n        /* \"#utility.yul\":36930:37061   */\n      tag_798\n        /* \"#utility.yul\":37056:37060   */\n      dup2\n        /* \"#utility.yul\":36930:37061   */\n      tag_496\n      jump\t// in\n    tag_798:\n        /* \"#utility.yul\":36922:37061   */\n      swap1\n      pop\n        /* \"#utility.yul\":36649:37068   */\n      swap2\n      swap1\n      pop\n      jump\t// out\n\n    auxdata: 0xa2646970667358221220159ccfbd7671415f12ddd02dbfdaa2302aca50061257baa108472f2a1d74f3e764736f6c634300081f0033\n}\n",
				"bytecode": {
					"linkReferences": {},
					"object": "60806040525f60015f6101000a81548161ffff021916908361ffff1602179055505f6004555f60055566354a6ba7a180006006556064601460065461004491906103d5565b61004e9190610443565b6007555f60095f6101000a81548160ff0219169083151502179055505f600960016101000a81548160ff0219169083151502179055505f600a55348015610093575f5ffd5b50604051613a70380380613a7083398181016040528101906100b591906104d8565b3360035f6101000a81548173ffffffffffffffffffffffffffffffffffffffff021916908373ffffffffffffffffffffffffffffffffffffffff1602179055506201518084101561013b576040517f08c379a000000000000000000000000000000000000000000000000000000000815260040161013290610596565b60405180910390fd5b62278d00841115610181576040517f08c379a0000000000000000000000000000000000000000000000000000000008152600401610178906105fe565b60405180910390fd5b83600c8190555060028361ffff1610156101d0576040517f08c379a00000000000000000000000000000000000000000000000000000000081526004016101c790610666565b60405180910390fd5b60648361ffff161115610218576040517f08c379a000000000000000000000000000000000000000000000000000000000815260040161020f906106ce565b60405180910390fd5b82600d5f6101000a81548161ffff021916908361ffff1602179055508261ffff168261ffff16101561027f576040517f08c379a00000000000000000000000000000000000000000000000000000000081526004016102769061075c565b60405180910390fd5b6103e88261ffff1611156102c8576040517f08c379a00000000000000000000000000000000000000000000000000000000081526004016102bf906106ce565b60405180910390fd5b81600d60026101000a81548161ffff021916908361ffff1602179055508161ffff168161ffff161015610330576040517f08c379a0000000000000000000000000000000000000000000000000000000008152600401610327906107c4565b60405180910390fd5b6127108161ffff161115610379576040517f08c379a00000000000000000000000000000000000000000000000000000000081526004016103709061082c565b60405180910390fd5b80600d60046101000a81548161ffff021916908361ffff1602179055505050505061084a565b5f819050919050565b7f4e487b71000000000000000000000000000000000000000000000000000000005f52601160045260245ffd5b5f6103df8261039f565b91506103ea8361039f565b92508282026103f88161039f565b9150828204841483151761040f5761040e6103a8565b5b5092915050565b7f4e487b71000000000000000000000000000000000000000000000000000000005f52601260045260245ffd5b5f61044d8261039f565b91506104588361039f565b92508261046857610467610416565b5b828204905092915050565b5f5ffd5b6104808161039f565b811461048a575f5ffd5b50565b5f8151905061049b81610477565b92915050565b5f61ffff82169050919050565b6104b7816104a1565b81146104c1575f5ffd5b50565b5f815190506104d2816104ae565b92915050565b5f5f5f5f608085870312156104f0576104ef610473565b5b5f6104fd8782880161048d565b945050602061050e878288016104c4565b935050604061051f878288016104c4565b9250506060610530878288016104c4565b91505092959194509250565b5f82825260208201905092915050565b7f496e74657276616c206d757374206265206174206c65617374203120646179005f82015250565b5f610580601f8361053c565b915061058b8261054c565b602082019050919050565b5f6020820190508181035f8301526105ad81610574565b9050919050565b7f496e74657276616c2063616e6e6f7420657863656564203330206461797300005f82015250565b5f6105e8601e8361053c565b91506105f3826105b4565b602082019050919050565b5f6020820190508181035f830152610615816105dc565b9050919050565b7f4e656564206174206c656173742032207061727469636970616e7473000000005f82015250565b5f610650601c8361053c565b915061065b8261061c565b602082019050919050565b5f6020820190508181035f83015261067d81610644565b9050919050565b7f546f6f2068696768202d20776f756c64206e65766572207472696767657200005f82015250565b5f6106b8601e8361053c565b91506106c382610684565b602082019050919050565b5f6020820190508181035f8301526106e5816106ac565b9050919050565b7f4d696e207469636b6574732073686f756c64206265203e3d206d696e207061725f8201527f7469636970616e74730000000000000000000000000000000000000000000000602082015250565b5f61074660298361053c565b9150610751826106ec565b604082019050919050565b5f6020820190508181035f8301526107738161073a565b9050919050565b7f4d6178206d757374206265203e3d206d696e207469636b6574730000000000005f82015250565b5f6107ae601a8361053c565b91506107b98261077a565b602082019050919050565b5f6020820190508181035f8301526107db816107a2565b9050919050565b7f546f6f2068696768202d20756e7265616c6973746963206361700000000000005f82015250565b5f610816601a8361053c565b9150610821826107e2565b602082019050919050565b5f6020820190508181035f8301526108438161080a565b9050919050565b613219806108575f395ff3fe608060405260043610610134575f3560e01c80638e71decb116100aa578063c59bc7651161006e578063c59bc765146103cf578063cc957f28146103f9578063dabc400014610415578063ec8f0b5b1461043d578063f437bc5914610467578063f5a9d5bb1461049157610134565b80638e71decb146102fe578063a54cd4f714610314578063bc06c4cc1461033e578063bff45ed914610368578063c5150950146103a557610134565b806363ed426d116100fc57806363ed426d1461020857806370740ac914610230578063719ce73e146102465780637535d7911461027057806376dd463d1461029857806387bc3996146102d457610134565b806312fa6feb14610138578063160344e2146101625780631eecd93414610178578063278a5ff2146101a25780635cbbd635146101de575b5f5ffd5b348015610143575f5ffd5b5061014c6104b9565b6040516101599190611fea565b60405180910390f35b34801561016d575f5ffd5b506101766104cc565b005b348015610183575f5ffd5b5061018c6106b0565b604051610199919061201b565b60405180910390f35b3480156101ad575f5ffd5b506101c860048036038101906101c39190612092565b6106b6565b6040516101d59190611fea565b60405180910390f35b3480156101e9575f5ffd5b506101f261070a565b6040516101ff919061201b565b60405180910390f35b348015610213575f5ffd5b5061022e600480360381019061022991906120f4565b610710565b005b34801561023b575f5ffd5b50610244610863565b005b348015610251575f5ffd5b5061025a610a0d565b604051610267919061201b565b60405180910390f35b34801561027b575f5ffd5b50610296600480360381019061029191906120f4565b610a13565b005b3480156102a3575f5ffd5b506102be60048036038101906102b99190612092565b610b65565b6040516102cb919061201b565b60405180910390f35b3480156102df575f5ffd5b506102e8610b7a565b6040516102f59190611fea565b60405180910390f35b348015610309575f5ffd5b50610312610b8c565b005b34801561031f575f5ffd5b50610328611248565b604051610335919061212e565b60405180910390f35b348015610349575f5ffd5b5061035261125b565b60405161035f919061201b565b60405180910390f35b348015610373575f5ffd5b5061038e60048036038101906103899190612092565b611261565b60405161039c929190612147565b60405180910390f35b3480156103b0575f5ffd5b506103b961129b565b6040516103c6919061201b565b60405180910390f35b3480156103da575f5ffd5b506103e36112a1565b6040516103f0919061212e565b60405180910390f35b610413600480360381019061040e9190612193565b6112b5565b005b348015610420575f5ffd5b5061043b600480360381019061043691906120f4565b6116ad565b005b348015610448575f5ffd5b506104516117eb565b60405161045e919061212e565b60405180910390f35b348015610472575f5ffd5b5061047b6117ff565b60405161048891906121de565b60405180910390f35b34801561049c575f5ffd5b506104b760048036038101906104b29190612221565b611824565b005b600960019054906101000a900460ff1681565b60095f9054906101000a900460ff161561051b576040517f08c379a0000000000000000000000000000000000000000000000000000000008152600401610512906122a6565b60405180910390fd5b600d5f9054906101000a900461ffff1661ffff166002805490501015610576576040517f08c379a000000000000000000000000000000000000000000000000000000000815260040161056d90612334565b60405180910390fd5b600d60029054906101000a900461ffff1661ffff1660015f9054906101000a900461ffff1661ffff1610156105e0576040517f08c379a00000000000000000000000000000000000000000000000000000000081526004016105d7906123c2565b60405180910390fd5b5f5f600a5414806106005750600c54600a546105fc919061240d565b4210155b90505f600d60049054906101000a900461ffff1661ffff1660015f9054906101000a900461ffff1661ffff161015905081806106395750805b610678576040517f08c379a000000000000000000000000000000000000000000000000000000000815260040161066f906124b0565b60405180910390fd5b600543610685919061240d565b600881905550600160095f6101000a81548160ff02191690831515021790555042600a819055505050565b60065481565b5f5f5f8373ffffffffffffffffffffffffffffffffffffffff1673ffffffffffffffffffffffffffffffffffffffff1681526020019081526020015f206001015f9054906101000a900460ff169050919050565b600a5481565b60035f9054906101000a900473ffffffffffffffffffffffffffffffffffffffff1673ffffffffffffffffffffffffffffffffffffffff163373ffffffffffffffffffffffffffffffffffffffff161461079f576040517f08c379a000000000000000000000000000000000000000000000000000000000815260040161079690612518565b60405180910390fd5b600d60029054906101000a900461ffff1661ffff168161ffff1610156107fa576040517f08c379a00000000000000000000000000000000000000000000000000000000081526004016107f190612580565b60405180910390fd5b6127108161ffff161115610843576040517f08c379a000000000000000000000000000000000000000000000000000000000815260040161083a906125e8565b60405180910390fd5b80600d60046101000a81548161ffff021916908361ffff16021790555050565b5f600b5f3373ffffffffffffffffffffffffffffffffffffffff1673ffffffffffffffffffffffffffffffffffffffff1681526020019081526020015f205490505f81116108e6576040517f08c379a00000000000000000000000000000000000000000000000000000000081526004016108dd90612650565b60405180910390fd5b5f600b5f3373ffffffffffffffffffffffffffffffffffffffff1673ffffffffffffffffffffffffffffffffffffffff1681526020019081526020015f20819055505f3373ffffffffffffffffffffffffffffffffffffffff168260405161094d9061269b565b5f6040518083038185875af1925050503d805f8114610987576040519150601f19603f3d011682016040523d82523d5f602084013e61098c565b606091505b50509050806109d0576040517f08c379a00000000000000000000000000000000000000000000000000000000081526004016109c7906126f9565b60405180910390fd5b7f95681e512bc0fe659e195e06c283eada494316f3d801213e48e7101af92bf7703383604051610a01929190612726565b60405180910390a15050565b60045481565b60035f9054906101000a900473ffffffffffffffffffffffffffffffffffffffff1673ffffffffffffffffffffffffffffffffffffffff163373ffffffffffffffffffffffffffffffffffffffff1614610aa2576040517f08c379a0000000000000000000000000000000000000000000000000000000008152600401610a9990612518565b60405180910390fd5b600d5f9054906101000a900461ffff1661ffff168161ffff161015610afc576040517f08c379a0000000000000000000000000000000000000000000000000000000008152600401610af3906127bd565b60405180910390fd5b6103e88161ffff161115610b45576040517f08c379a0000000000000000000000000000000000000000000000000000000008152600401610b3c90612825565b60405180910390fd5b80600d60026101000a81548161ffff021916908361ffff16021790555050565b600b602052805f5260405f205f915090505481565b60095f9054906101000a900460ff1681565b60095f9054906101000a900460ff16610bda576040517f08c379a0000000000000000000000000000000000000000000000000000000008152600401610bd19061288d565b60405180910390fd5b600854431015610c1f576040517f08c379a0000000000000000000000000000000000000000000000000000000008152600401610c16906128f5565b60405180910390fd5b600960019054906101000a900460ff1615610c6f576040517f08c379a0000000000000000000000000000000000000000000000000000000008152600401610c669061295d565b60405180910390fd5b5f6008544090505f5f1b8103610cba576040517f08c379a0000000000000000000000000000000000000000000000000000000008152600401610cb1906129eb565b60405180910390fd5b5f8130604051602001610cce929190612a77565b604051602081830303815290604052805190602001205f1c9050610cf0611e6f565b5f5f90505b6005811015610d7257600160638483604051602001610d15929190612ac2565b604051602081830303815290604052805190602001205f1c610d379190612b1a565b610d41919061240d565b828260058110610d5457610d53612b4a565b5b602002019060ff16908160ff16815250508080600101915050610cf5565b505f60028054905090505f8167ffffffffffffffff811115610d9757610d96612b77565b5b604051908082528060200260200182016040528015610dd057816020015b610dbd611e91565b815260200190600190039081610db55790505b5090505f5f90505b82811015610f73575f5f60028381548110610df657610df5612b4a565b5b905f5260205f20015f9054906101000a900473ffffffffffffffffffffffffffffffffffffffff1673ffffffffffffffffffffffffffffffffffffffff1673ffffffffffffffffffffffffffffffffffffffff1681526020019081526020015f206040518060600160405290815f8201805480602002602001604051908101604052809291908181526020015f905b82821015610f06578382905f5260205f2001600580602002604051908101604052809291908260058015610ef2576020028201915f905b82829054906101000a900460ff1660ff16815260200190600101906020825f01049283019260010382029150808411610ebc5790505b505050505081526020019060010190610e85565b505050508152602001600182015f9054906101000a900460ff161515151581526020016001820160019054906101000a900461ffff1661ffff1661ffff1681525050828281518110610f5b57610f5a612b4a565b5b60200260200101819052508080600101915050610dd8565b505f5f611007600454866002805480602002602001604051908101604052809291908181526020018280548015610ffc57602002820191905f5260205f20905b815f9054906101000a900473ffffffffffffffffffffffffffffffffffffffff1673ffffffffffffffffffffffffffffffffffffffff1681526020019060010190808311610fb3575b505050505086611949565b915091506001600960016101000a81548160ff0219169083151502179055505f8251111561110c575f5f90505b825181101561110a5781600b5f85848151811061105457611053612b4a565b5b602002602001015173ffffffffffffffffffffffffffffffffffffffff1673ffffffffffffffffffffffffffffffffffffffff1681526020019081526020015f205f8282546110a3919061240d565b925050819055507ffd0eb416c92ec1c8c027692d237438d75f420a7fd1694d965c9695cd767ef4b18382815181106110de576110dd612b4a565b5b6020026020010151836040516110f5929190612bc6565b60405180910390a18080600101915050611034565b505b5f6004819055505f60015f6101000a81548161ffff021916908361ffff1602179055505f60095f6101000a81548160ff0219169083151502179055505f600960016101000a81548160ff0219169083151502179055505f5f90505b600280549050811015611231575f5f6002838154811061118a57611189612b4a565b5b905f5260205f20015f9054906101000a900473ffffffffffffffffffffffffffffffffffffffff1673ffffffffffffffffffffffffffffffffffffffff1673ffffffffffffffffffffffffffffffffffffffff1681526020019081526020015f205f5f82015f6111fa9190611eb6565b600182015f6101000a81549060ff02191690556001820160016101000a81549061ffff021916905550508080600101915050611167565b5060025f61123f9190611ed4565b50505050505050565b600d5f9054906101000a900461ffff1681565b600c5481565b5f602052805f5260405f205f91509050806001015f9054906101000a900460ff16908060010160019054906101000a900461ffff16905082565b60085481565b600d60029054906101000a900461ffff1681565b60095f9054906101000a900460ff1615611304576040517f08c379a00000000000000000000000000000000000000000000000000000000081526004016112fb90612c5d565b60405180910390fd5b600654341015611349576040517f08c379a000000000000000000000000000000000000000000000000000000000815260040161134090612d37565b60405180910390fd5b61135281611cf5565b600754600581905550600554346113699190612d55565b60045f828254611379919061240d565b925050819055505f60035f9054906101000a900473ffffffffffffffffffffffffffffffffffffffff1673ffffffffffffffffffffffffffffffffffffffff166005546040516113c89061269b565b5f6040518083038185875af1925050503d805f8114611402576040519150601f19603f3d011682016040523d82523d5f602084013e611407565b606091505b505090508061144b576040517f08c379a000000000000000000000000000000000000000000000000000000000815260040161144290612dd2565b60405180910390fd5b5f5f3373ffffffffffffffffffffffffffffffffffffffff1673ffffffffffffffffffffffffffffffffffffffff1681526020019081526020015f205f0182908060018154018082558091505060019003905f5260205f20015f909190919091509060056114ba929190611ef2565b5060015f5f3373ffffffffffffffffffffffffffffffffffffffff1673ffffffffffffffffffffffffffffffffffffffff1681526020019081526020015f2060010160018282829054906101000a900461ffff166115189190612df0565b92506101000a81548161ffff021916908361ffff1602179055505f5f3373ffffffffffffffffffffffffffffffffffffffff1673ffffffffffffffffffffffffffffffffffffffff1681526020019081526020015f206001015f9054906101000a900460ff1661163a5760015f5f3373ffffffffffffffffffffffffffffffffffffffff1673ffffffffffffffffffffffffffffffffffffffff1681526020019081526020015f206001015f6101000a81548160ff021916908315150217905550600233908060018154018082558091505060019003905f5260205f20015f9091909190916101000a81548173ffffffffffffffffffffffffffffffffffffffff021916908373ffffffffffffffffffffffffffffffffffffffff1602179055505b6001805f8282829054906101000a900461ffff166116589190612df0565b92506101000a81548161ffff021916908361ffff1602179055507fe5b1eced469f0f85354b67d6ef4b36910756d7f6d07ab540d7bf0e198e3aecd5336040516116a19190612e6f565b60405180910390a15050565b60035f9054906101000a900473ffffffffffffffffffffffffffffffffffffffff1673ffffffffffffffffffffffffffffffffffffffff163373ffffffffffffffffffffffffffffffffffffffff161461173c576040517f08c379a000000000000000000000000000000000000000000000000000000000815260040161173390612518565b60405180910390fd5b60028161ffff161015611784576040517f08c379a000000000000000000000000000000000000000000000000000000000815260040161177b90612ee5565b60405180910390fd5b60648161ffff1611156117cc576040517f08c379a00000000000000000000000000000000000000000000000000000000081526004016117c390612825565b60405180910390fd5b80600d5f6101000a81548161ffff021916908361ffff16021790555050565b600d60049054906101000a900461ffff1681565b60035f9054906101000a900473ffffffffffffffffffffffffffffffffffffffff1681565b60035f9054906101000a900473ffffffffffffffffffffffffffffffffffffffff1673ffffffffffffffffffffffffffffffffffffffff163373ffffffffffffffffffffffffffffffffffffffff16146118b3576040517f08c379a00000000000000000000000000000000000000000000000000000000081526004016118aa90612518565b60405180910390fd5b620151808110156118f9576040517f08c379a00000000000000000000000000000000000000000000000000000000081526004016118f090612f4d565b60405180910390fd5b62278d0081111561193f576040517f08c379a000000000000000000000000000000000000000000000000000000000815260040161193690612fb5565b60405180910390fd5b80600c8190555050565b60605f8251845114611990576040517f08c379a00000000000000000000000000000000000000000000000000000000081526004016119879061301d565b60405180910390fd5b5f5f90505f5f90505b8451811015611ab1575f8582815181106119b6576119b5612b4a565b5b60200260200101516040015161ffff1690505f5f90505b81811015611aa2575f8784815181106119e9576119e8612b4a565b5b60200260200101515f01518281518110611a0657611a05612b4a565b5b602002602001015190505f600190505f5f90505b60058160ff161015611a7c578b8160ff1660058110611a3c57611a3b612b4a565b5b602002015160ff16838260ff1660058110611a5a57611a59612b4a565b5b602002015160ff1614611a6f575f9150611a7c565b8080600101915050611a1a565b508015611a9357600186611a90919061240d565b95505b505080806001019150506119cd565b50508080600101915050611999565b505f8103611b0d575f67ffffffffffffffff811115611ad357611ad2612b77565b5b604051908082528060200260200182016040528015611b015781602001602082028036833780820191505090505b505f9250925050611cec565b8067ffffffffffffffff811115611b2757611b26612b77565b5b604051908082528060200260200182016040528015611b555781602001602082028036833780820191505090505b5092505f5f90505f8289611b69919061303b565b90505f5f90505b8651811015611ce1575f878281518110611b8d57611b8c612b4a565b5b60200260200101516040015161ffff1690505f5f90505b81811015611cd2575f600190505f5f90505b6005811015611c46578c8160058110611bd257611bd1612b4a565b5b602002015160ff168b8681518110611bed57611bec612b4a565b5b60200260200101515f01518281518110611c0a57611c09612b4a565b5b60200260200101518460058110611c2457611c23612b4a565b5b602002015160ff1614611c39575f9150611c46565b8080600101915050611bb6565b508015611cc4578a8481518110611c6057611c5f612b4a565b5b6020026020010151898781518110611c7b57611c7a612b4a565b5b602002602001019073ffffffffffffffffffffffffffffffffffffffff16908173ffffffffffffffffffffffffffffffffffffffff16815250508580611cc09061306b565b9650505b508080600101915050611ba4565b50508080600101915050611b70565b508481945094505050505b94509492505050565b5f5f90505b6005811015611e6b576001828260058110611d1857611d17612b4a565b5b602002016020810190611d2b91906130e8565b60ff1610158015611d6557506063828260058110611d4c57611d4b612b4a565b5b602002016020810190611d5f91906130e8565b60ff1611155b611da4576040517f08c379a0000000000000000000000000000000000000000000000000000000008152600401611d9b9061315d565b60405180910390fd5b5f600182611db2919061240d565b90505b6005811015611e5d57828160058110611dd157611dd0612b4a565b5b602002016020810190611de491906130e8565b60ff16838360058110611dfa57611df9612b4a565b5b602002016020810190611e0d91906130e8565b60ff1603611e50576040517f08c379a0000000000000000000000000000000000000000000000000000000008152600401611e47906131c5565b60405180910390fd5b8080600101915050611db5565b508080600101915050611cfa565b5050565b6040518060a00160405280600590602082028036833780820191505090505090565b6040518060600160405280606081526020015f151581526020015f61ffff1681525090565b5080545f8255905f5260205f2090810190611ed19190611f8c565b50565b5080545f8255905f5260205f2090810190611eef9190611faf565b50565b826005601f01602090048101928215611f7b579160200282015f5b83821115611f4d57833560ff1683826101000a81548160ff021916908360ff16021790555092602001926001016020815f01049283019260010302611f0d565b8015611f795782816101000a81549060ff02191690556001016020815f01049283019260010302611f4d565b505b509050611f889190611faf565b5090565b5b80821115611fab575f8181611fa29190611fca565b50600101611f8d565b5090565b5b80821115611fc6575f815f905550600101611fb0565b5090565b505f9055565b5f8115159050919050565b611fe481611fd0565b82525050565b5f602082019050611ffd5f830184611fdb565b92915050565b5f819050919050565b61201581612003565b82525050565b5f60208201905061202e5f83018461200c565b92915050565b5f5ffd5b5f73ffffffffffffffffffffffffffffffffffffffff82169050919050565b5f61206182612038565b9050919050565b61207181612057565b811461207b575f5ffd5b50565b5f8135905061208c81612068565b92915050565b5f602082840312156120a7576120a6612034565b5b5f6120b48482850161207e565b91505092915050565b5f61ffff82169050919050565b6120d3816120bd565b81146120dd575f5ffd5b50565b5f813590506120ee816120ca565b92915050565b5f6020828403121561210957612108612034565b5b5f612116848285016120e0565b91505092915050565b612128816120bd565b82525050565b5f6020820190506121415f83018461211f565b92915050565b5f60408201905061215a5f830185611fdb565b612167602083018461211f565b9392505050565b5f5ffd5b5f8190508260206005028201111561218d5761218c61216e565b5b92915050565b5f60a082840312156121a8576121a7612034565b5b5f6121b584828501612172565b91505092915050565b5f6121c882612038565b9050919050565b6121d8816121be565b82525050565b5f6020820190506121f15f8301846121cf565b92915050565b61220081612003565b811461220a575f5ffd5b50565b5f8135905061221b816121f7565b92915050565b5f6020828403121561223657612235612034565b5b5f6122438482850161220d565b91505092915050565b5f82825260208201905092915050565b7f4472617720616c726561647920696e697469617465642e0000000000000000005f82015250565b5f61229060178361224c565b915061229b8261225c565b602082019050919050565b5f6020820190508181035f8301526122bd81612284565b9050919050565b7f4e6f7420656e6f756768207061727469636970616e747320746f2073746172745f8201527f20647261772e0000000000000000000000000000000000000000000000000000602082015250565b5f61231e60268361224c565b9150612329826122c4565b604082019050919050565b5f6020820190508181035f83015261234b81612312565b9050919050565b7f4e6f7420656e6f756768207469636b65747320736f6c6420746f2073746172745f8201527f20647261772e0000000000000000000000000000000000000000000000000000602082015250565b5f6123ac60268361224c565b91506123b782612352565b604082019050919050565b5f6020820190508181035f8301526123d9816123a0565b9050919050565b7f4e487b71000000000000000000000000000000000000000000000000000000005f52601160045260245ffd5b5f61241782612003565b915061242283612003565b925082820190508082111561243a576124396123e0565b5b92915050565b7f4472617720636f6e646974696f6e73206e6f74206d65742e205761697420666f5f8201527f722074696d6520696e74657276616c206f72207469636b6574206361702e0000602082015250565b5f61249a603e8361224c565b91506124a582612440565b604082019050919050565b5f6020820190508181035f8301526124c78161248e565b9050919050565b7f596f7520617265206e6f742074686520686f73742e00000000000000000000005f82015250565b5f61250260158361224c565b915061250d826124ce565b602082019050919050565b5f6020820190508181035f83015261252f816124f6565b9050919050565b7f4d6178206d757374206265203e3d206d696e207469636b6574730000000000005f82015250565b5f61256a601a8361224c565b915061257582612536565b602082019050919050565b5f6020820190508181035f8301526125978161255e565b9050919050565b7f546f6f2068696768202d20756e7265616c6973746963206361700000000000005f82015250565b5f6125d2601a8361224c565b91506125dd8261259e565b602082019050919050565b5f6020820190508181035f8301526125ff816125c6565b9050919050565b7f4e6f2077696e6e696e677320746f20636c61696d0000000000000000000000005f82015250565b5f61263a60148361224c565b915061264582612606565b602082019050919050565b5f6020820190508181035f8301526126678161262e565b9050919050565b5f81905092915050565b50565b5f6126865f8361266e565b915061269182612678565b5f82019050919050565b5f6126a58261267b565b9150819050919050565b7f5072697a65207472616e73666572206661696c656400000000000000000000005f82015250565b5f6126e360158361224c565b91506126ee826126af565b602082019050919050565b5f6020820190508181035f830152612710816126d7565b9050919050565b61272081612057565b82525050565b5f6040820190506127395f830185612717565b612746602083018461200c565b9392505050565b7f4d696e207469636b6574732073686f756c64206265203e3d206d696e207061725f8201527f7469636970616e74730000000000000000000000000000000000000000000000602082015250565b5f6127a760298361224c565b91506127b28261274d565b604082019050919050565b5f6020820190508181035f8301526127d48161279b565b9050919050565b7f546f6f2068696768202d20776f756c64206e65766572207472696767657200005f82015250565b5f61280f601e8361224c565b915061281a826127db565b602082019050919050565b5f6020820190508181035f83015261283c81612803565b9050919050565b7f44726177206e6f7420696e697469617465642e000000000000000000000000005f82015250565b5f61287760138361224c565b915061288282612843565b602082019050919050565b5f6020820190508181035f8301526128a48161286b565b9050919050565b7f54617267657420626c6f636b206861736e27742061727269766564207965742e5f82015250565b5f6128df60208361224c565b91506128ea826128ab565b602082019050919050565b5f6020820190508181035f83015261290c816128d3565b9050919050565b7f4c6f747465727920616c726561647920656e6465642e000000000000000000005f82015250565b5f61294760168361224c565b915061295282612913565b602082019050919050565b5f6020820190508181035f8301526129748161293b565b9050919050565b7f426c6f636b206861736820756e617661696c61626c65206f7220746f6f206f6c5f8201527f642e000000000000000000000000000000000000000000000000000000000000602082015250565b5f6129d560228361224c565b91506129e08261297b565b604082019050919050565b5f6020820190508181035f830152612a02816129c9565b9050919050565b5f819050919050565b5f819050919050565b612a2c612a2782612a09565b612a12565b82525050565b5f8160601b9050919050565b5f612a4882612a32565b9050919050565b5f612a5982612a3e565b9050919050565b612a71612a6c82612057565b612a4f565b82525050565b5f612a828285612a1b565b602082019150612a928284612a60565b6014820191508190509392505050565b5f819050919050565b612abc612ab782612003565b612aa2565b82525050565b5f612acd8285612aab565b602082019150612add8284612aab565b6020820191508190509392505050565b7f4e487b71000000000000000000000000000000000000000000000000000000005f52601260045260245ffd5b5f612b2482612003565b9150612b2f83612003565b925082612b3f57612b3e612aed565b5b828206905092915050565b7f4e487b71000000000000000000000000000000000000000000000000000000005f52603260045260245ffd5b7f4e487b71000000000000000000000000000000000000000000000000000000005f52604160045260245ffd5b5f67ffffffffffffffff82169050919050565b612bc081612ba4565b82525050565b5f604082019050612bd95f830185612717565b612be66020830184612bb7565b9392505050565b7f43616e6e6f7420627579207469636b65747320647572696e67206163746976655f8201527f2064726177000000000000000000000000000000000000000000000000000000602082015250565b5f612c4760258361224c565b9150612c5282612bed565b604082019050919050565b5f6020820190508181035f830152612c7481612c3b565b9050919050565b7f57726f6e6720616d6f756e74206f6620657468657220746f206a6f696e2e20505f8201527f6c6561736520706179206174206c6561737420302e3031352065746865722e2060208201527f416e79206d6f72652077696c6c20626520636f6e73696465726564206120746960408201527f702e000000000000000000000000000000000000000000000000000000000000606082015250565b5f612d2160628361224c565b9150612d2c82612c7b565b608082019050919050565b5f6020820190508181035f830152612d4e81612d15565b9050919050565b5f612d5f82612003565b9150612d6a83612003565b9250828203905081811115612d8257612d816123e0565b5b92915050565b7f4f776e657220776173206e6f742070617965642e0000000000000000000000005f82015250565b5f612dbc60148361224c565b9150612dc782612d88565b602082019050919050565b5f6020820190508181035f830152612de981612db0565b9050919050565b5f612dfa826120bd565b9150612e05836120bd565b9250828201905061ffff811115612e1f57612e1e6123e0565b5b92915050565b7f6a6f696e656400000000000000000000000000000000000000000000000000005f82015250565b5f612e5960068361224c565b9150612e6482612e25565b602082019050919050565b5f604082019050612e825f830184612717565b8181036020830152612e9381612e4d565b905092915050565b7f4e656564206174206c656173742032207061727469636970616e7473000000005f82015250565b5f612ecf601c8361224c565b9150612eda82612e9b565b602082019050919050565b5f6020820190508181035f830152612efc81612ec3565b9050919050565b7f496e74657276616c206d757374206265206174206c65617374203120646179005f82015250565b5f612f37601f8361224c565b9150612f4282612f03565b602082019050919050565b5f6020820190508181035f830152612f6481612f2b565b9050919050565b7f496e74657276616c2063616e6e6f7420657863656564203330206461797300005f82015250565b5f612f9f601e8361224c565b9150612faa82612f6b565b602082019050919050565b5f6020820190508181035f830152612fcc81612f93565b9050919050565b7f4c656e677468206d69736d6174636800000000000000000000000000000000005f82015250565b5f613007600f8361224c565b915061301282612fd3565b602082019050919050565b5f6020820190508181035f83015261303481612ffb565b9050919050565b5f61304582612003565b915061305083612003565b9250826130605761305f612aed565b5b828204905092915050565b5f61307582612003565b91507fffffffffffffffffffffffffffffffffffffffffffffffffffffffffffffffff82036130a7576130a66123e0565b5b600182019050919050565b5f60ff82169050919050565b6130c7816130b2565b81146130d1575f5ffd5b50565b5f813590506130e2816130be565b92915050565b5f602082840312156130fd576130fc612034565b5b5f61310a848285016130d4565b91505092915050565b7f4f7574206f662072616e676500000000000000000000000000000000000000005f82015250565b5f613147600c8361224c565b915061315282613113565b602082019050919050565b5f6020820190508181035f8301526131748161313b565b9050919050565b7f4475706c696361746520696e207469636b6574000000000000000000000000005f82015250565b5f6131af60138361224c565b91506131ba8261317b565b602082019050919050565b5f6020820190508181035f8301526131dc816131a3565b905091905056fea2646970667358221220159ccfbd7671415f12ddd02dbfdaa2302aca50061257baa108472f2a1d74f3e764736f6c634300081f0033",
					"opcodes": "PUSH1 0x80 PUSH1 0x40 MSTORE PUSH0 PUSH1 0x1 PUSH0 PUSH2 0x100 EXP DUP2 SLOAD DUP2 PUSH2 0xFFFF MUL NOT AND SWAP1 DUP4 PUSH2 0xFFFF AND MUL OR SWAP1 SSTORE POP PUSH0 PUSH1 0x4 SSTORE PUSH0 PUSH1 0x5 SSTORE PUSH7 0x354A6BA7A18000 PUSH1 0x6 SSTORE PUSH1 0x64 PUSH1 0x14 PUSH1 0x6 SLOAD PUSH2 0x44 SWAP2 SWAP1 PUSH2 0x3D5 JUMP JUMPDEST PUSH2 0x4E SWAP2 SWAP1 PUSH2 0x443 JUMP JUMPDEST PUSH1 0x7 SSTORE PUSH0 PUSH1 0x9 PUSH0 PUSH2 0x100 EXP DUP2 SLOAD DUP2 PUSH1 0xFF MUL NOT AND SWAP1 DUP4 ISZERO ISZERO MUL OR SWAP1 SSTORE POP PUSH0 PUSH1 0x9 PUSH1 0x1 PUSH2 0x100 EXP DUP2 SLOAD DUP2 PUSH1 0xFF MUL NOT AND SWAP1 DUP4 ISZERO ISZERO MUL OR SWAP1 SSTORE POP PUSH0 PUSH1 0xA SSTORE CALLVALUE DUP1 ISZERO PUSH2 0x93 JUMPI PUSH0 PUSH0 REVERT JUMPDEST POP PUSH1 0x40 MLOAD PUSH2 0x3A70 CODESIZE SUB DUP1 PUSH2 0x3A70 DUP4 CODECOPY DUP2 DUP2 ADD PUSH1 0x40 MSTORE DUP2 ADD SWAP1 PUSH2 0xB5 SWAP2 SWAP1 PUSH2 0x4D8 JUMP JUMPDEST CALLER PUSH1 0x3 PUSH0 PUSH2 0x100 EXP DUP2 SLOAD DUP2 PUSH20 0xFFFFFFFFFFFFFFFFFFFFFFFFFFFFFFFFFFFFFFFF MUL NOT AND SWAP1 DUP4 PUSH20 0xFFFFFFFFFFFFFFFFFFFFFFFFFFFFFFFFFFFFFFFF AND MUL OR SWAP1 SSTORE POP PUSH3 0x15180 DUP5 LT ISZERO PUSH2 0x13B JUMPI PUSH1 0x40 MLOAD PUSH32 0x8C379A000000000000000000000000000000000000000000000000000000000 DUP2 MSTORE PUSH1 0x4 ADD PUSH2 0x132 SWAP1 PUSH2 0x596 JUMP JUMPDEST PUSH1 0x40 MLOAD DUP1 SWAP2 SUB SWAP1 REVERT JUMPDEST PUSH3 0x278D00 DUP5 GT ISZERO PUSH2 0x181 JUMPI PUSH1 0x40 MLOAD PUSH32 0x8C379A000000000000000000000000000000000000000000000000000000000 DUP2 MSTORE PUSH1 0x4 ADD PUSH2 0x178 SWAP1 PUSH2 0x5FE JUMP JUMPDEST PUSH1 0x40 MLOAD DUP1 SWAP2 SUB SWAP1 REVERT JUMPDEST DUP4 PUSH1 0xC DUP2 SWAP1 SSTORE POP PUSH1 0x2 DUP4 PUSH2 0xFFFF AND LT ISZERO PUSH2 0x1D0 JUMPI PUSH1 0x40 MLOAD PUSH32 0x8C379A000000000000000000000000000000000000000000000000000000000 DUP2 MSTORE PUSH1 0x4 ADD PUSH2 0x1C7 SWAP1 PUSH2 0x666 JUMP JUMPDEST PUSH1 0x40 MLOAD DUP1 SWAP2 SUB SWAP1 REVERT JUMPDEST PUSH1 0x64 DUP4 PUSH2 0xFFFF AND GT ISZERO PUSH2 0x218 JUMPI PUSH1 0x40 MLOAD PUSH32 0x8C379A000000000000000000000000000000000000000000000000000000000 DUP2 MSTORE PUSH1 0x4 ADD PUSH2 0x20F SWAP1 PUSH2 0x6CE JUMP JUMPDEST PUSH1 0x40 MLOAD DUP1 SWAP2 SUB SWAP1 REVERT JUMPDEST DUP3 PUSH1 0xD PUSH0 PUSH2 0x100 EXP DUP2 SLOAD DUP2 PUSH2 0xFFFF MUL NOT AND SWAP1 DUP4 PUSH2 0xFFFF AND MUL OR SWAP1 SSTORE POP DUP3 PUSH2 0xFFFF AND DUP3 PUSH2 0xFFFF AND LT ISZERO PUSH2 0x27F JUMPI PUSH1 0x40 MLOAD PUSH32 0x8C379A000000000000000000000000000000000000000000000000000000000 DUP2 MSTORE PUSH1 0x4 ADD PUSH2 0x276 SWAP1 PUSH2 0x75C JUMP JUMPDEST PUSH1 0x40 MLOAD DUP1 SWAP2 SUB SWAP1 REVERT JUMPDEST PUSH2 0x3E8 DUP3 PUSH2 0xFFFF AND GT ISZERO PUSH2 0x2C8 JUMPI PUSH1 0x40 MLOAD PUSH32 0x8C379A000000000000000000000000000000000000000000000000000000000 DUP2 MSTORE PUSH1 0x4 ADD PUSH2 0x2BF SWAP1 PUSH2 0x6CE JUMP JUMPDEST PUSH1 0x40 MLOAD DUP1 SWAP2 SUB SWAP1 REVERT JUMPDEST DUP2 PUSH1 0xD PUSH1 0x2 PUSH2 0x100 EXP DUP2 SLOAD DUP2 PUSH2 0xFFFF MUL NOT AND SWAP1 DUP4 PUSH2 0xFFFF AND MUL OR SWAP1 SSTORE POP DUP2 PUSH2 0xFFFF AND DUP2 PUSH2 0xFFFF AND LT ISZERO PUSH2 0x330 JUMPI PUSH1 0x40 MLOAD PUSH32 0x8C379A000000000000000000000000000000000000000000000000000000000 DUP2 MSTORE PUSH1 0x4 ADD PUSH2 0x327 SWAP1 PUSH2 0x7C4 JUMP JUMPDEST PUSH1 0x40 MLOAD DUP1 SWAP2 SUB SWAP1 REVERT JUMPDEST PUSH2 0x2710 DUP2 PUSH2 0xFFFF AND GT ISZERO PUSH2 0x379 JUMPI PUSH1 0x40 MLOAD PUSH32 0x8C379A000000000000000000000000000000000000000000000000000000000 DUP2 MSTORE PUSH1 0x4 ADD PUSH2 0x370 SWAP1 PUSH2 0x82C JUMP JUMPDEST PUSH1 0x40 MLOAD DUP1 SWAP2 SUB SWAP1 REVERT JUMPDEST DUP1 PUSH1 0xD PUSH1 0x4 PUSH2 0x100 EXP DUP2 SLOAD DUP2 PUSH2 0xFFFF MUL NOT AND SWAP1 DUP4 PUSH2 0xFFFF AND MUL OR SWAP1 SSTORE POP POP POP POP POP PUSH2 0x84A JUMP JUMPDEST PUSH0 DUP2 SWAP1 POP SWAP2 SWAP1 POP JUMP JUMPDEST PUSH32 0x4E487B7100000000000000000000000000000000000000000000000000000000 PUSH0 MSTORE PUSH1 0x11 PUSH1 0x4 MSTORE PUSH1 0x24 PUSH0 REVERT JUMPDEST PUSH0 PUSH2 0x3DF DUP3 PUSH2 0x39F JUMP JUMPDEST SWAP2 POP PUSH2 0x3EA DUP4 PUSH2 0x39F JUMP JUMPDEST SWAP3 POP DUP3 DUP3 MUL PUSH2 0x3F8 DUP2 PUSH2 0x39F JUMP JUMPDEST SWAP2 POP DUP3 DUP3 DIV DUP5 EQ DUP4 ISZERO OR PUSH2 0x40F JUMPI PUSH2 0x40E PUSH2 0x3A8 JUMP JUMPDEST JUMPDEST POP SWAP3 SWAP2 POP POP JUMP JUMPDEST PUSH32 0x4E487B7100000000000000000000000000000000000000000000000000000000 PUSH0 MSTORE PUSH1 0x12 PUSH1 0x4 MSTORE PUSH1 0x24 PUSH0 REVERT JUMPDEST PUSH0 PUSH2 0x44D DUP3 PUSH2 0x39F JUMP JUMPDEST SWAP2 POP PUSH2 0x458 DUP4 PUSH2 0x39F JUMP JUMPDEST SWAP3 POP DUP3 PUSH2 0x468 JUMPI PUSH2 0x467 PUSH2 0x416 JUMP JUMPDEST JUMPDEST DUP3 DUP3 DIV SWAP1 POP SWAP3 SWAP2 POP POP JUMP JUMPDEST PUSH0 PUSH0 REVERT JUMPDEST PUSH2 0x480 DUP2 PUSH2 0x39F JUMP JUMPDEST DUP2 EQ PUSH2 0x48A JUMPI PUSH0 PUSH0 REVERT JUMPDEST POP JUMP JUMPDEST PUSH0 DUP2 MLOAD SWAP1 POP PUSH2 0x49B DUP2 PUSH2 0x477 JUMP JUMPDEST SWAP3 SWAP2 POP POP JUMP JUMPDEST PUSH0 PUSH2 0xFFFF DUP3 AND SWAP1 POP SWAP2 SWAP1 POP JUMP JUMPDEST PUSH2 0x4B7 DUP2 PUSH2 0x4A1 JUMP JUMPDEST DUP2 EQ PUSH2 0x4C1 JUMPI PUSH0 PUSH0 REVERT JUMPDEST POP JUMP JUMPDEST PUSH0 DUP2 MLOAD SWAP1 POP PUSH2 0x4D2 DUP2 PUSH2 0x4AE JUMP JUMPDEST SWAP3 SWAP2 POP POP JUMP JUMPDEST PUSH0 PUSH0 PUSH0 PUSH0 PUSH1 0x80 DUP6 DUP8 SUB SLT ISZERO PUSH2 0x4F0 JUMPI PUSH2 0x4EF PUSH2 0x473 JUMP JUMPDEST JUMPDEST PUSH0 PUSH2 0x4FD DUP8 DUP3 DUP9 ADD PUSH2 0x48D JUMP JUMPDEST SWAP5 POP POP PUSH1 0x20 PUSH2 0x50E DUP8 DUP3 DUP9 ADD PUSH2 0x4C4 JUMP JUMPDEST SWAP4 POP POP PUSH1 0x40 PUSH2 0x51F DUP8 DUP3 DUP9 ADD PUSH2 0x4C4 JUMP JUMPDEST SWAP3 POP POP PUSH1 0x60 PUSH2 0x530 DUP8 DUP3 DUP9 ADD PUSH2 0x4C4 JUMP JUMPDEST SWAP2 POP POP SWAP3 SWAP6 SWAP2 SWAP5 POP SWAP3 POP JUMP JUMPDEST PUSH0 DUP3 DUP3 MSTORE PUSH1 0x20 DUP3 ADD SWAP1 POP SWAP3 SWAP2 POP POP JUMP JUMPDEST PUSH32 0x496E74657276616C206D757374206265206174206C6561737420312064617900 PUSH0 DUP3 ADD MSTORE POP JUMP JUMPDEST PUSH0 PUSH2 0x580 PUSH1 0x1F DUP4 PUSH2 0x53C JUMP JUMPDEST SWAP2 POP PUSH2 0x58B DUP3 PUSH2 0x54C JUMP JUMPDEST PUSH1 0x20 DUP3 ADD SWAP1 POP SWAP2 SWAP1 POP JUMP JUMPDEST PUSH0 PUSH1 0x20 DUP3 ADD SWAP1 POP DUP2 DUP2 SUB PUSH0 DUP4 ADD MSTORE PUSH2 0x5AD DUP2 PUSH2 0x574 JUMP JUMPDEST SWAP1 POP SWAP2 SWAP1 POP JUMP JUMPDEST PUSH32 0x496E74657276616C2063616E6E6F742065786365656420333020646179730000 PUSH0 DUP3 ADD MSTORE POP JUMP JUMPDEST PUSH0 PUSH2 0x5E8 PUSH1 0x1E DUP4 PUSH2 0x53C JUMP JUMPDEST SWAP2 POP PUSH2 0x5F3 DUP3 PUSH2 0x5B4 JUMP JUMPDEST PUSH1 0x20 DUP3 ADD SWAP1 POP SWAP2 SWAP1 POP JUMP JUMPDEST PUSH0 PUSH1 0x20 DUP3 ADD SWAP1 POP DUP2 DUP2 SUB PUSH0 DUP4 ADD MSTORE PUSH2 0x615 DUP2 PUSH2 0x5DC JUMP JUMPDEST SWAP1 POP SWAP2 SWAP1 POP JUMP JUMPDEST PUSH32 0x4E656564206174206C656173742032207061727469636970616E747300000000 PUSH0 DUP3 ADD MSTORE POP JUMP JUMPDEST PUSH0 PUSH2 0x650 PUSH1 0x1C DUP4 PUSH2 0x53C JUMP JUMPDEST SWAP2 POP PUSH2 0x65B DUP3 PUSH2 0x61C JUMP JUMPDEST PUSH1 0x20 DUP3 ADD SWAP1 POP SWAP2 SWAP1 POP JUMP JUMPDEST PUSH0 PUSH1 0x20 DUP3 ADD SWAP1 POP DUP2 DUP2 SUB PUSH0 DUP4 ADD MSTORE PUSH2 0x67D DUP2 PUSH2 0x644 JUMP JUMPDEST SWAP1 POP SWAP2 SWAP1 POP JUMP JUMPDEST PUSH32 0x546F6F2068696768202D20776F756C64206E6576657220747269676765720000 PUSH0 DUP3 ADD MSTORE POP JUMP JUMPDEST PUSH0 PUSH2 0x6B8 PUSH1 0x1E DUP4 PUSH2 0x53C JUMP JUMPDEST SWAP2 POP PUSH2 0x6C3 DUP3 PUSH2 0x684 JUMP JUMPDEST PUSH1 0x20 DUP3 ADD SWAP1 POP SWAP2 SWAP1 POP JUMP JUMPDEST PUSH0 PUSH1 0x20 DUP3 ADD SWAP1 POP DUP2 DUP2 SUB PUSH0 DUP4 ADD MSTORE PUSH2 0x6E5 DUP2 PUSH2 0x6AC JUMP JUMPDEST SWAP1 POP SWAP2 SWAP1 POP JUMP JUMPDEST PUSH32 0x4D696E207469636B6574732073686F756C64206265203E3D206D696E20706172 PUSH0 DUP3 ADD MSTORE PUSH32 0x7469636970616E74730000000000000000000000000000000000000000000000 PUSH1 0x20 DUP3 ADD MSTORE POP JUMP JUMPDEST PUSH0 PUSH2 0x746 PUSH1 0x29 DUP4 PUSH2 0x53C JUMP JUMPDEST SWAP2 POP PUSH2 0x751 DUP3 PUSH2 0x6EC JUMP JUMPDEST PUSH1 0x40 DUP3 ADD SWAP1 POP SWAP2 SWAP1 POP JUMP JUMPDEST PUSH0 PUSH1 0x20 DUP3 ADD SWAP1 POP DUP2 DUP2 SUB PUSH0 DUP4 ADD MSTORE PUSH2 0x773 DUP2 PUSH2 0x73A JUMP JUMPDEST SWAP1 POP SWAP2 SWAP1 POP JUMP JUMPDEST PUSH32 0x4D6178206D757374206265203E3D206D696E207469636B657473000000000000 PUSH0 DUP3 ADD MSTORE POP JUMP JUMPDEST PUSH0 PUSH2 0x7AE PUSH1 0x1A DUP4 PUSH2 0x53C JUMP JUMPDEST SWAP2 POP PUSH2 0x7B9 DUP3 PUSH2 0x77A JUMP JUMPDEST PUSH1 0x20 DUP3 ADD SWAP1 POP SWAP2 SWAP1 POP JUMP JUMPDEST PUSH0 PUSH1 0x20 DUP3 ADD SWAP1 POP DUP2 DUP2 SUB PUSH0 DUP4 ADD MSTORE PUSH2 0x7DB DUP2 PUSH2 0x7A2 JUMP JUMPDEST SWAP1 POP SWAP2 SWAP1 POP JUMP JUMPDEST PUSH32 0x546F6F2068696768202D20756E7265616C697374696320636170000000000000 PUSH0 DUP3 ADD MSTORE POP JUMP JUMPDEST PUSH0 PUSH2 0x816 PUSH1 0x1A DUP4 PUSH2 0x53C JUMP JUMPDEST SWAP2 POP PUSH2 0x821 DUP3 PUSH2 0x7E2 JUMP JUMPDEST PUSH1 0x20 DUP3 ADD SWAP1 POP SWAP2 SWAP1 POP JUMP JUMPDEST PUSH0 PUSH1 0x20 DUP3 ADD SWAP1 POP DUP2 DUP2 SUB PUSH0 DUP4 ADD MSTORE PUSH2 0x843 DUP2 PUSH2 0x80A JUMP JUMPDEST SWAP1 POP SWAP2 SWAP1 POP JUMP JUMPDEST PUSH2 0x3219 DUP1 PUSH2 0x857 PUSH0 CODECOPY PUSH0 RETURN INVALID PUSH1 0x80 PUSH1 0x40 MSTORE PUSH1 0x4 CALLDATASIZE LT PUSH2 0x134 JUMPI PUSH0 CALLDATALOAD PUSH1 0xE0 SHR DUP1 PUSH4 0x8E71DECB GT PUSH2 0xAA JUMPI DUP1 PUSH4 0xC59BC765 GT PUSH2 0x6E JUMPI DUP1 PUSH4 0xC59BC765 EQ PUSH2 0x3CF JUMPI DUP1 PUSH4 0xCC957F28 EQ PUSH2 0x3F9 JUMPI DUP1 PUSH4 0xDABC4000 EQ PUSH2 0x415 JUMPI DUP1 PUSH4 0xEC8F0B5B EQ PUSH2 0x43D JUMPI DUP1 PUSH4 0xF437BC59 EQ PUSH2 0x467 JUMPI DUP1 PUSH4 0xF5A9D5BB EQ PUSH2 0x491 JUMPI PUSH2 0x134 JUMP JUMPDEST DUP1 PUSH4 0x8E71DECB EQ PUSH2 0x2FE JUMPI DUP1 PUSH4 0xA54CD4F7 EQ PUSH2 0x314 JUMPI DUP1 PUSH4 0xBC06C4CC EQ PUSH2 0x33E JUMPI DUP1 PUSH4 0xBFF45ED9 EQ PUSH2 0x368 JUMPI DUP1 PUSH4 0xC5150950 EQ PUSH2 0x3A5 JUMPI PUSH2 0x134 JUMP JUMPDEST DUP1 PUSH4 0x63ED426D GT PUSH2 0xFC JUMPI DUP1 PUSH4 0x63ED426D EQ PUSH2 0x208 JUMPI DUP1 PUSH4 0x70740AC9 EQ PUSH2 0x230 JUMPI DUP1 PUSH4 0x719CE73E EQ PUSH2 0x246 JUMPI DUP1 PUSH4 0x7535D791 EQ PUSH2 0x270 JUMPI DUP1 PUSH4 0x76DD463D EQ PUSH2 0x298 JUMPI DUP1 PUSH4 0x87BC3996 EQ PUSH2 0x2D4 JUMPI PUSH2 0x134 JUMP JUMPDEST DUP1 PUSH4 0x12FA6FEB EQ PUSH2 0x138 JUMPI DUP1 PUSH4 0x160344E2 EQ PUSH2 0x162 JUMPI DUP1 PUSH4 0x1EECD934 EQ PUSH2 0x178 JUMPI DUP1 PUSH4 0x278A5FF2 EQ PUSH2 0x1A2 JUMPI DUP1 PUSH4 0x5CBBD635 EQ PUSH2 0x1DE JUMPI JUMPDEST PUSH0 PUSH0 REVERT JUMPDEST CALLVALUE DUP1 ISZERO PUSH2 0x143 JUMPI PUSH0 PUSH0 REVERT JUMPDEST POP PUSH2 0x14C PUSH2 0x4B9 JUMP JUMPDEST PUSH1 0x40 MLOAD PUSH2 0x159 SWAP2 SWAP1 PUSH2 0x1FEA JUMP JUMPDEST PUSH1 0x40 MLOAD DUP1 SWAP2 SUB SWAP1 RETURN JUMPDEST CALLVALUE DUP1 ISZERO PUSH2 0x16D JUMPI PUSH0 PUSH0 REVERT JUMPDEST POP PUSH2 0x176 PUSH2 0x4CC JUMP JUMPDEST STOP JUMPDEST CALLVALUE DUP1 ISZERO PUSH2 0x183 JUMPI PUSH0 PUSH0 REVERT JUMPDEST POP PUSH2 0x18C PUSH2 0x6B0 JUMP JUMPDEST PUSH1 0x40 MLOAD PUSH2 0x199 SWAP2 SWAP1 PUSH2 0x201B JUMP JUMPDEST PUSH1 0x40 MLOAD DUP1 SWAP2 SUB SWAP1 RETURN JUMPDEST CALLVALUE DUP1 ISZERO PUSH2 0x1AD JUMPI PUSH0 PUSH0 REVERT JUMPDEST POP PUSH2 0x1C8 PUSH1 0x4 DUP1 CALLDATASIZE SUB DUP2 ADD SWAP1 PUSH2 0x1C3 SWAP2 SWAP1 PUSH2 0x2092 JUMP JUMPDEST PUSH2 0x6B6 JUMP JUMPDEST PUSH1 0x40 MLOAD PUSH2 0x1D5 SWAP2 SWAP1 PUSH2 0x1FEA JUMP JUMPDEST PUSH1 0x40 MLOAD DUP1 SWAP2 SUB SWAP1 RETURN JUMPDEST CALLVALUE DUP1 ISZERO PUSH2 0x1E9 JUMPI PUSH0 PUSH0 REVERT JUMPDEST POP PUSH2 0x1F2 PUSH2 0x70A JUMP JUMPDEST PUSH1 0x40 MLOAD PUSH2 0x1FF SWAP2 SWAP1 PUSH2 0x201B JUMP JUMPDEST PUSH1 0x40 MLOAD DUP1 SWAP2 SUB SWAP1 RETURN JUMPDEST CALLVALUE DUP1 ISZERO PUSH2 0x213 JUMPI PUSH0 PUSH0 REVERT JUMPDEST POP PUSH2 0x22E PUSH1 0x4 DUP1 CALLDATASIZE SUB DUP2 ADD SWAP1 PUSH2 0x229 SWAP2 SWAP1 PUSH2 0x20F4 JUMP JUMPDEST PUSH2 0x710 JUMP JUMPDEST STOP JUMPDEST CALLVALUE DUP1 ISZERO PUSH2 0x23B JUMPI PUSH0 PUSH0 REVERT JUMPDEST POP PUSH2 0x244 PUSH2 0x863 JUMP JUMPDEST STOP JUMPDEST CALLVALUE DUP1 ISZERO PUSH2 0x251 JUMPI PUSH0 PUSH0 REVERT JUMPDEST POP PUSH2 0x25A PUSH2 0xA0D JUMP JUMPDEST PUSH1 0x40 MLOAD PUSH2 0x267 SWAP2 SWAP1 PUSH2 0x201B JUMP JUMPDEST PUSH1 0x40 MLOAD DUP1 SWAP2 SUB SWAP1 RETURN JUMPDEST CALLVALUE DUP1 ISZERO PUSH2 0x27B JUMPI PUSH0 PUSH0 REVERT JUMPDEST POP PUSH2 0x296 PUSH1 0x4 DUP1 CALLDATASIZE SUB DUP2 ADD SWAP1 PUSH2 0x291 SWAP2 SWAP1 PUSH2 0x20F4 JUMP JUMPDEST PUSH2 0xA13 JUMP JUMPDEST STOP JUMPDEST CALLVALUE DUP1 ISZERO PUSH2 0x2A3 JUMPI PUSH0 PUSH0 REVERT JUMPDEST POP PUSH2 0x2BE PUSH1 0x4 DUP1 CALLDATASIZE SUB DUP2 ADD SWAP1 PUSH2 0x2B9 SWAP2 SWAP1 PUSH2 0x2092 JUMP JUMPDEST PUSH2 0xB65 JUMP JUMPDEST PUSH1 0x40 MLOAD PUSH2 0x2CB SWAP2 SWAP1 PUSH2 0x201B JUMP JUMPDEST PUSH1 0x40 MLOAD DUP1 SWAP2 SUB SWAP1 RETURN JUMPDEST CALLVALUE DUP1 ISZERO PUSH2 0x2DF JUMPI PUSH0 PUSH0 REVERT JUMPDEST POP PUSH2 0x2E8 PUSH2 0xB7A JUMP JUMPDEST PUSH1 0x40 MLOAD PUSH2 0x2F5 SWAP2 SWAP1 PUSH2 0x1FEA JUMP JUMPDEST PUSH1 0x40 MLOAD DUP1 SWAP2 SUB SWAP1 RETURN JUMPDEST CALLVALUE DUP1 ISZERO PUSH2 0x309 JUMPI PUSH0 PUSH0 REVERT JUMPDEST POP PUSH2 0x312 PUSH2 0xB8C JUMP JUMPDEST STOP JUMPDEST CALLVALUE DUP1 ISZERO PUSH2 0x31F JUMPI PUSH0 PUSH0 REVERT JUMPDEST POP PUSH2 0x328 PUSH2 0x1248 JUMP JUMPDEST PUSH1 0x40 MLOAD PUSH2 0x335 SWAP2 SWAP1 PUSH2 0x212E JUMP JUMPDEST PUSH1 0x40 MLOAD DUP1 SWAP2 SUB SWAP1 RETURN JUMPDEST CALLVALUE DUP1 ISZERO PUSH2 0x349 JUMPI PUSH0 PUSH0 REVERT JUMPDEST POP PUSH2 0x352 PUSH2 0x125B JUMP JUMPDEST PUSH1 0x40 MLOAD PUSH2 0x35F SWAP2 SWAP1 PUSH2 0x201B JUMP JUMPDEST PUSH1 0x40 MLOAD DUP1 SWAP2 SUB SWAP1 RETURN JUMPDEST CALLVALUE DUP1 ISZERO PUSH2 0x373 JUMPI PUSH0 PUSH0 REVERT JUMPDEST POP PUSH2 0x38E PUSH1 0x4 DUP1 CALLDATASIZE SUB DUP2 ADD SWAP1 PUSH2 0x389 SWAP2 SWAP1 PUSH2 0x2092 JUMP JUMPDEST PUSH2 0x1261 JUMP JUMPDEST PUSH1 0x40 MLOAD PUSH2 0x39C SWAP3 SWAP2 SWAP1 PUSH2 0x2147 JUMP JUMPDEST PUSH1 0x40 MLOAD DUP1 SWAP2 SUB SWAP1 RETURN JUMPDEST CALLVALUE DUP1 ISZERO PUSH2 0x3B0 JUMPI PUSH0 PUSH0 REVERT JUMPDEST POP PUSH2 0x3B9 PUSH2 0x129B JUMP JUMPDEST PUSH1 0x40 MLOAD PUSH2 0x3C6 SWAP2 SWAP1 PUSH2 0x201B JUMP JUMPDEST PUSH1 0x40 MLOAD DUP1 SWAP2 SUB SWAP1 RETURN JUMPDEST CALLVALUE DUP1 ISZERO PUSH2 0x3DA JUMPI PUSH0 PUSH0 REVERT JUMPDEST POP PUSH2 0x3E3 PUSH2 0x12A1 JUMP JUMPDEST PUSH1 0x40 MLOAD PUSH2 0x3F0 SWAP2 SWAP1 PUSH2 0x212E JUMP JUMPDEST PUSH1 0x40 MLOAD DUP1 SWAP2 SUB SWAP1 RETURN JUMPDEST PUSH2 0x413 PUSH1 0x4 DUP1 CALLDATASIZE SUB DUP2 ADD SWAP1 PUSH2 0x40E SWAP2 SWAP1 PUSH2 0x2193 JUMP JUMPDEST PUSH2 0x12B5 JUMP JUMPDEST STOP JUMPDEST CALLVALUE DUP1 ISZERO PUSH2 0x420 JUMPI PUSH0 PUSH0 REVERT JUMPDEST POP PUSH2 0x43B PUSH1 0x4 DUP1 CALLDATASIZE SUB DUP2 ADD SWAP1 PUSH2 0x436 SWAP2 SWAP1 PUSH2 0x20F4 JUMP JUMPDEST PUSH2 0x16AD JUMP JUMPDEST STOP JUMPDEST CALLVALUE DUP1 ISZERO PUSH2 0x448 JUMPI PUSH0 PUSH0 REVERT JUMPDEST POP PUSH2 0x451 PUSH2 0x17EB JUMP JUMPDEST PUSH1 0x40 MLOAD PUSH2 0x45E SWAP2 SWAP1 PUSH2 0x212E JUMP JUMPDEST PUSH1 0x40 MLOAD DUP1 SWAP2 SUB SWAP1 RETURN JUMPDEST CALLVALUE DUP1 ISZERO PUSH2 0x472 JUMPI PUSH0 PUSH0 REVERT JUMPDEST POP PUSH2 0x47B PUSH2 0x17FF JUMP JUMPDEST PUSH1 0x40 MLOAD PUSH2 0x488 SWAP2 SWAP1 PUSH2 0x21DE JUMP JUMPDEST PUSH1 0x40 MLOAD DUP1 SWAP2 SUB SWAP1 RETURN JUMPDEST CALLVALUE DUP1 ISZERO PUSH2 0x49C JUMPI PUSH0 PUSH0 REVERT JUMPDEST POP PUSH2 0x4B7 PUSH1 0x4 DUP1 CALLDATASIZE SUB DUP2 ADD SWAP1 PUSH2 0x4B2 SWAP2 SWAP1 PUSH2 0x2221 JUMP JUMPDEST PUSH2 0x1824 JUMP JUMPDEST STOP JUMPDEST PUSH1 0x9 PUSH1 0x1 SWAP1 SLOAD SWAP1 PUSH2 0x100 EXP SWAP1 DIV PUSH1 0xFF AND DUP2 JUMP JUMPDEST PUSH1 0x9 PUSH0 SWAP1 SLOAD SWAP1 PUSH2 0x100 EXP SWAP1 DIV PUSH1 0xFF AND ISZERO PUSH2 0x51B JUMPI PUSH1 0x40 MLOAD PUSH32 0x8C379A000000000000000000000000000000000000000000000000000000000 DUP2 MSTORE PUSH1 0x4 ADD PUSH2 0x512 SWAP1 PUSH2 0x22A6 JUMP JUMPDEST PUSH1 0x40 MLOAD DUP1 SWAP2 SUB SWAP1 REVERT JUMPDEST PUSH1 0xD PUSH0 SWAP1 SLOAD SWAP1 PUSH2 0x100 EXP SWAP1 DIV PUSH2 0xFFFF AND PUSH2 0xFFFF AND PUSH1 0x2 DUP1 SLOAD SWAP1 POP LT ISZERO PUSH2 0x576 JUMPI PUSH1 0x40 MLOAD PUSH32 0x8C379A000000000000000000000000000000000000000000000000000000000 DUP2 MSTORE PUSH1 0x4 ADD PUSH2 0x56D SWAP1 PUSH2 0x2334 JUMP JUMPDEST PUSH1 0x40 MLOAD DUP1 SWAP2 SUB SWAP1 REVERT JUMPDEST PUSH1 0xD PUSH1 0x2 SWAP1 SLOAD SWAP1 PUSH2 0x100 EXP SWAP1 DIV PUSH2 0xFFFF AND PUSH2 0xFFFF AND PUSH1 0x1 PUSH0 SWAP1 SLOAD SWAP1 PUSH2 0x100 EXP SWAP1 DIV PUSH2 0xFFFF AND PUSH2 0xFFFF AND LT ISZERO PUSH2 0x5E0 JUMPI PUSH1 0x40 MLOAD PUSH32 0x8C379A000000000000000000000000000000000000000000000000000000000 DUP2 MSTORE PUSH1 0x4 ADD PUSH2 0x5D7 SWAP1 PUSH2 0x23C2 JUMP JUMPDEST PUSH1 0x40 MLOAD DUP1 SWAP2 SUB SWAP1 REVERT JUMPDEST PUSH0 PUSH0 PUSH1 0xA SLOAD EQ DUP1 PUSH2 0x600 JUMPI POP PUSH1 0xC SLOAD PUSH1 0xA SLOAD PUSH2 0x5FC SWAP2 SWAP1 PUSH2 0x240D JUMP JUMPDEST TIMESTAMP LT ISZERO JUMPDEST SWAP1 POP PUSH0 PUSH1 0xD PUSH1 0x4 SWAP1 SLOAD SWAP1 PUSH2 0x100 EXP SWAP1 DIV PUSH2 0xFFFF AND PUSH2 0xFFFF AND PUSH1 0x1 PUSH0 SWAP1 SLOAD SWAP1 PUSH2 0x100 EXP SWAP1 DIV PUSH2 0xFFFF AND PUSH2 0xFFFF AND LT ISZERO SWAP1 POP DUP2 DUP1 PUSH2 0x639 JUMPI POP DUP1 JUMPDEST PUSH2 0x678 JUMPI PUSH1 0x40 MLOAD PUSH32 0x8C379A000000000000000000000000000000000000000000000000000000000 DUP2 MSTORE PUSH1 0x4 ADD PUSH2 0x66F SWAP1 PUSH2 0x24B0 JUMP JUMPDEST PUSH1 0x40 MLOAD DUP1 SWAP2 SUB SWAP1 REVERT JUMPDEST PUSH1 0x5 NUMBER PUSH2 0x685 SWAP2 SWAP1 PUSH2 0x240D JUMP JUMPDEST PUSH1 0x8 DUP2 SWAP1 SSTORE POP PUSH1 0x1 PUSH1 0x9 PUSH0 PUSH2 0x100 EXP DUP2 SLOAD DUP2 PUSH1 0xFF MUL NOT AND SWAP1 DUP4 ISZERO ISZERO MUL OR SWAP1 SSTORE POP TIMESTAMP PUSH1 0xA DUP2 SWAP1 SSTORE POP POP POP JUMP JUMPDEST PUSH1 0x6 SLOAD DUP2 JUMP JUMPDEST PUSH0 PUSH0 PUSH0 DUP4 PUSH20 0xFFFFFFFFFFFFFFFFFFFFFFFFFFFFFFFFFFFFFFFF AND PUSH20 0xFFFFFFFFFFFFFFFFFFFFFFFFFFFFFFFFFFFFFFFF AND DUP2 MSTORE PUSH1 0x20 ADD SWAP1 DUP2 MSTORE PUSH1 0x20 ADD PUSH0 KECCAK256 PUSH1 0x1 ADD PUSH0 SWAP1 SLOAD SWAP1 PUSH2 0x100 EXP SWAP1 DIV PUSH1 0xFF AND SWAP1 POP SWAP2 SWAP1 POP JUMP JUMPDEST PUSH1 0xA SLOAD DUP2 JUMP JUMPDEST PUSH1 0x3 PUSH0 SWAP1 SLOAD SWAP1 PUSH2 0x100 EXP SWAP1 DIV PUSH20 0xFFFFFFFFFFFFFFFFFFFFFFFFFFFFFFFFFFFFFFFF AND PUSH20 0xFFFFFFFFFFFFFFFFFFFFFFFFFFFFFFFFFFFFFFFF AND CALLER PUSH20 0xFFFFFFFFFFFFFFFFFFFFFFFFFFFFFFFFFFFFFFFF AND EQ PUSH2 0x79F JUMPI PUSH1 0x40 MLOAD PUSH32 0x8C379A000000000000000000000000000000000000000000000000000000000 DUP2 MSTORE PUSH1 0x4 ADD PUSH2 0x796 SWAP1 PUSH2 0x2518 JUMP JUMPDEST PUSH1 0x40 MLOAD DUP1 SWAP2 SUB SWAP1 REVERT JUMPDEST PUSH1 0xD PUSH1 0x2 SWAP1 SLOAD SWAP1 PUSH2 0x100 EXP SWAP1 DIV PUSH2 0xFFFF AND PUSH2 0xFFFF AND DUP2 PUSH2 0xFFFF AND LT ISZERO PUSH2 0x7FA JUMPI PUSH1 0x40 MLOAD PUSH32 0x8C379A000000000000000000000000000000000000000000000000000000000 DUP2 MSTORE PUSH1 0x4 ADD PUSH2 0x7F1 SWAP1 PUSH2 0x2580 JUMP JUMPDEST PUSH1 0x40 MLOAD DUP1 SWAP2 SUB SWAP1 REVERT JUMPDEST PUSH2 0x2710 DUP2 PUSH2 0xFFFF AND GT ISZERO PUSH2 0x843 JUMPI PUSH1 0x40 MLOAD PUSH32 0x8C379A000000000000000000000000000000000000000000000000000000000 DUP2 MSTORE PUSH1 0x4 ADD PUSH2 0x83A SWAP1 PUSH2 0x25E8 JUMP JUMPDEST PUSH1 0x40 MLOAD DUP1 SWAP2 SUB SWAP1 REVERT JUMPDEST DUP1 PUSH1 0xD PUSH1 0x4 PUSH2 0x100 EXP DUP2 SLOAD DUP2 PUSH2 0xFFFF MUL NOT AND SWAP1 DUP4 PUSH2 0xFFFF AND MUL OR SWAP1 SSTORE POP POP JUMP JUMPDEST PUSH0 PUSH1 0xB PUSH0 CALLER PUSH20 0xFFFFFFFFFFFFFFFFFFFFFFFFFFFFFFFFFFFFFFFF AND PUSH20 0xFFFFFFFFFFFFFFFFFFFFFFFFFFFFFFFFFFFFFFFF AND DUP2 MSTORE PUSH1 0x20 ADD SWAP1 DUP2 MSTORE PUSH1 0x20 ADD PUSH0 KECCAK256 SLOAD SWAP1 POP PUSH0 DUP2 GT PUSH2 0x8E6 JUMPI PUSH1 0x40 MLOAD PUSH32 0x8C379A000000000000000000000000000000000000000000000000000000000 DUP2 MSTORE PUSH1 0x4 ADD PUSH2 0x8DD SWAP1 PUSH2 0x2650 JUMP JUMPDEST PUSH1 0x40 MLOAD DUP1 SWAP2 SUB SWAP1 REVERT JUMPDEST PUSH0 PUSH1 0xB PUSH0 CALLER PUSH20 0xFFFFFFFFFFFFFFFFFFFFFFFFFFFFFFFFFFFFFFFF AND PUSH20 0xFFFFFFFFFFFFFFFFFFFFFFFFFFFFFFFFFFFFFFFF AND DUP2 MSTORE PUSH1 0x20 ADD SWAP1 DUP2 MSTORE PUSH1 0x20 ADD PUSH0 KECCAK256 DUP2 SWAP1 SSTORE POP PUSH0 CALLER PUSH20 0xFFFFFFFFFFFFFFFFFFFFFFFFFFFFFFFFFFFFFFFF AND DUP3 PUSH1 0x40 MLOAD PUSH2 0x94D SWAP1 PUSH2 0x269B JUMP JUMPDEST PUSH0 PUSH1 0x40 MLOAD DUP1 DUP4 SUB DUP2 DUP6 DUP8 GAS CALL SWAP3 POP POP POP RETURNDATASIZE DUP1 PUSH0 DUP2 EQ PUSH2 0x987 JUMPI PUSH1 0x40 MLOAD SWAP2 POP PUSH1 0x1F NOT PUSH1 0x3F RETURNDATASIZE ADD AND DUP3 ADD PUSH1 0x40 MSTORE RETURNDATASIZE DUP3 MSTORE RETURNDATASIZE PUSH0 PUSH1 0x20 DUP5 ADD RETURNDATACOPY PUSH2 0x98C JUMP JUMPDEST PUSH1 0x60 SWAP2 POP JUMPDEST POP POP SWAP1 POP DUP1 PUSH2 0x9D0 JUMPI PUSH1 0x40 MLOAD PUSH32 0x8C379A000000000000000000000000000000000000000000000000000000000 DUP2 MSTORE PUSH1 0x4 ADD PUSH2 0x9C7 SWAP1 PUSH2 0x26F9 JUMP JUMPDEST PUSH1 0x40 MLOAD DUP1 SWAP2 SUB SWAP1 REVERT JUMPDEST PUSH32 0x95681E512BC0FE659E195E06C283EADA494316F3D801213E48E7101AF92BF770 CALLER DUP4 PUSH1 0x40 MLOAD PUSH2 0xA01 SWAP3 SWAP2 SWAP1 PUSH2 0x2726 JUMP JUMPDEST PUSH1 0x40 MLOAD DUP1 SWAP2 SUB SWAP1 LOG1 POP POP JUMP JUMPDEST PUSH1 0x4 SLOAD DUP2 JUMP JUMPDEST PUSH1 0x3 PUSH0 SWAP1 SLOAD SWAP1 PUSH2 0x100 EXP SWAP1 DIV PUSH20 0xFFFFFFFFFFFFFFFFFFFFFFFFFFFFFFFFFFFFFFFF AND PUSH20 0xFFFFFFFFFFFFFFFFFFFFFFFFFFFFFFFFFFFFFFFF AND CALLER PUSH20 0xFFFFFFFFFFFFFFFFFFFFFFFFFFFFFFFFFFFFFFFF AND EQ PUSH2 0xAA2 JUMPI PUSH1 0x40 MLOAD PUSH32 0x8C379A000000000000000000000000000000000000000000000000000000000 DUP2 MSTORE PUSH1 0x4 ADD PUSH2 0xA99 SWAP1 PUSH2 0x2518 JUMP JUMPDEST PUSH1 0x40 MLOAD DUP1 SWAP2 SUB SWAP1 REVERT JUMPDEST PUSH1 0xD PUSH0 SWAP1 SLOAD SWAP1 PUSH2 0x100 EXP SWAP1 DIV PUSH2 0xFFFF AND PUSH2 0xFFFF AND DUP2 PUSH2 0xFFFF AND LT ISZERO PUSH2 0xAFC JUMPI PUSH1 0x40 MLOAD PUSH32 0x8C379A000000000000000000000000000000000000000000000000000000000 DUP2 MSTORE PUSH1 0x4 ADD PUSH2 0xAF3 SWAP1 PUSH2 0x27BD JUMP JUMPDEST PUSH1 0x40 MLOAD DUP1 SWAP2 SUB SWAP1 REVERT JUMPDEST PUSH2 0x3E8 DUP2 PUSH2 0xFFFF AND GT ISZERO PUSH2 0xB45 JUMPI PUSH1 0x40 MLOAD PUSH32 0x8C379A000000000000000000000000000000000000000000000000000000000 DUP2 MSTORE PUSH1 0x4 ADD PUSH2 0xB3C SWAP1 PUSH2 0x2825 JUMP JUMPDEST PUSH1 0x40 MLOAD DUP1 SWAP2 SUB SWAP1 REVERT JUMPDEST DUP1 PUSH1 0xD PUSH1 0x2 PUSH2 0x100 EXP DUP2 SLOAD DUP2 PUSH2 0xFFFF MUL NOT AND SWAP1 DUP4 PUSH2 0xFFFF AND MUL OR SWAP1 SSTORE POP POP JUMP JUMPDEST PUSH1 0xB PUSH1 0x20 MSTORE DUP1 PUSH0 MSTORE PUSH1 0x40 PUSH0 KECCAK256 PUSH0 SWAP2 POP SWAP1 POP SLOAD DUP2 JUMP JUMPDEST PUSH1 0x9 PUSH0 SWAP1 SLOAD SWAP1 PUSH2 0x100 EXP SWAP1 DIV PUSH1 0xFF AND DUP2 JUMP JUMPDEST PUSH1 0x9 PUSH0 SWAP1 SLOAD SWAP1 PUSH2 0x100 EXP SWAP1 DIV PUSH1 0xFF AND PUSH2 0xBDA JUMPI PUSH1 0x40 MLOAD PUSH32 0x8C379A000000000000000000000000000000000000000000000000000000000 DUP2 MSTORE PUSH1 0x4 ADD PUSH2 0xBD1 SWAP1 PUSH2 0x288D JUMP JUMPDEST PUSH1 0x40 MLOAD DUP1 SWAP2 SUB SWAP1 REVERT JUMPDEST PUSH1 0x8 SLOAD NUMBER LT ISZERO PUSH2 0xC1F JUMPI PUSH1 0x40 MLOAD PUSH32 0x8C379A000000000000000000000000000000000000000000000000000000000 DUP2 MSTORE PUSH1 0x4 ADD PUSH2 0xC16 SWAP1 PUSH2 0x28F5 JUMP JUMPDEST PUSH1 0x40 MLOAD DUP1 SWAP2 SUB SWAP1 REVERT JUMPDEST PUSH1 0x9 PUSH1 0x1 SWAP1 SLOAD SWAP1 PUSH2 0x100 EXP SWAP1 DIV PUSH1 0xFF AND ISZERO PUSH2 0xC6F JUMPI PUSH1 0x40 MLOAD PUSH32 0x8C379A000000000000000000000000000000000000000000000000000000000 DUP2 MSTORE PUSH1 0x4 ADD PUSH2 0xC66 SWAP1 PUSH2 0x295D JUMP JUMPDEST PUSH1 0x40 MLOAD DUP1 SWAP2 SUB SWAP1 REVERT JUMPDEST PUSH0 PUSH1 0x8 SLOAD BLOCKHASH SWAP1 POP PUSH0 PUSH0 SHL DUP2 SUB PUSH2 0xCBA JUMPI PUSH1 0x40 MLOAD PUSH32 0x8C379A000000000000000000000000000000000000000000000000000000000 DUP2 MSTORE PUSH1 0x4 ADD PUSH2 0xCB1 SWAP1 PUSH2 0x29EB JUMP JUMPDEST PUSH1 0x40 MLOAD DUP1 SWAP2 SUB SWAP1 REVERT JUMPDEST PUSH0 DUP2 ADDRESS PUSH1 0x40 MLOAD PUSH1 0x20 ADD PUSH2 0xCCE SWAP3 SWAP2 SWAP1 PUSH2 0x2A77 JUMP JUMPDEST PUSH1 0x40 MLOAD PUSH1 0x20 DUP2 DUP4 SUB SUB DUP2 MSTORE SWAP1 PUSH1 0x40 MSTORE DUP1 MLOAD SWAP1 PUSH1 0x20 ADD KECCAK256 PUSH0 SHR SWAP1 POP PUSH2 0xCF0 PUSH2 0x1E6F JUMP JUMPDEST PUSH0 PUSH0 SWAP1 POP JUMPDEST PUSH1 0x5 DUP2 LT ISZERO PUSH2 0xD72 JUMPI PUSH1 0x1 PUSH1 0x63 DUP5 DUP4 PUSH1 0x40 MLOAD PUSH1 0x20 ADD PUSH2 0xD15 SWAP3 SWAP2 SWAP1 PUSH2 0x2AC2 JUMP JUMPDEST PUSH1 0x40 MLOAD PUSH1 0x20 DUP2 DUP4 SUB SUB DUP2 MSTORE SWAP1 PUSH1 0x40 MSTORE DUP1 MLOAD SWAP1 PUSH1 0x20 ADD KECCAK256 PUSH0 SHR PUSH2 0xD37 SWAP2 SWAP1 PUSH2 0x2B1A JUMP JUMPDEST PUSH2 0xD41 SWAP2 SWAP1 PUSH2 0x240D JUMP JUMPDEST DUP3 DUP3 PUSH1 0x5 DUP2 LT PUSH2 0xD54 JUMPI PUSH2 0xD53 PUSH2 0x2B4A JUMP JUMPDEST JUMPDEST PUSH1 0x20 MUL ADD SWAP1 PUSH1 0xFF AND SWAP1 DUP2 PUSH1 0xFF AND DUP2 MSTORE POP POP DUP1 DUP1 PUSH1 0x1 ADD SWAP2 POP POP PUSH2 0xCF5 JUMP JUMPDEST POP PUSH0 PUSH1 0x2 DUP1 SLOAD SWAP1 POP SWAP1 POP PUSH0 DUP2 PUSH8 0xFFFFFFFFFFFFFFFF DUP2 GT ISZERO PUSH2 0xD97 JUMPI PUSH2 0xD96 PUSH2 0x2B77 JUMP JUMPDEST JUMPDEST PUSH1 0x40 MLOAD SWAP1 DUP1 DUP3 MSTORE DUP1 PUSH1 0x20 MUL PUSH1 0x20 ADD DUP3 ADD PUSH1 0x40 MSTORE DUP1 ISZERO PUSH2 0xDD0 JUMPI DUP2 PUSH1 0x20 ADD JUMPDEST PUSH2 0xDBD PUSH2 0x1E91 JUMP JUMPDEST DUP2 MSTORE PUSH1 0x20 ADD SWAP1 PUSH1 0x1 SWAP1 SUB SWAP1 DUP2 PUSH2 0xDB5 JUMPI SWAP1 POP JUMPDEST POP SWAP1 POP PUSH0 PUSH0 SWAP1 POP JUMPDEST DUP3 DUP2 LT ISZERO PUSH2 0xF73 JUMPI PUSH0 PUSH0 PUSH1 0x2 DUP4 DUP2 SLOAD DUP2 LT PUSH2 0xDF6 JUMPI PUSH2 0xDF5 PUSH2 0x2B4A JUMP JUMPDEST JUMPDEST SWAP1 PUSH0 MSTORE PUSH1 0x20 PUSH0 KECCAK256 ADD PUSH0 SWAP1 SLOAD SWAP1 PUSH2 0x100 EXP SWAP1 DIV PUSH20 0xFFFFFFFFFFFFFFFFFFFFFFFFFFFFFFFFFFFFFFFF AND PUSH20 0xFFFFFFFFFFFFFFFFFFFFFFFFFFFFFFFFFFFFFFFF AND PUSH20 0xFFFFFFFFFFFFFFFFFFFFFFFFFFFFFFFFFFFFFFFF AND DUP2 MSTORE PUSH1 0x20 ADD SWAP1 DUP2 MSTORE PUSH1 0x20 ADD PUSH0 KECCAK256 PUSH1 0x40 MLOAD DUP1 PUSH1 0x60 ADD PUSH1 0x40 MSTORE SWAP1 DUP2 PUSH0 DUP3 ADD DUP1 SLOAD DUP1 PUSH1 0x20 MUL PUSH1 0x20 ADD PUSH1 0x40 MLOAD SWAP1 DUP2 ADD PUSH1 0x40 MSTORE DUP1 SWAP3 SWAP2 SWAP1 DUP2 DUP2 MSTORE PUSH1 0x20 ADD PUSH0 SWAP1 JUMPDEST DUP3 DUP3 LT ISZERO PUSH2 0xF06 JUMPI DUP4 DUP3 SWAP1 PUSH0 MSTORE PUSH1 0x20 PUSH0 KECCAK256 ADD PUSH1 0x5 DUP1 PUSH1 0x20 MUL PUSH1 0x40 MLOAD SWAP1 DUP2 ADD PUSH1 0x40 MSTORE DUP1 SWAP3 SWAP2 SWAP1 DUP3 PUSH1 0x5 DUP1 ISZERO PUSH2 0xEF2 JUMPI PUSH1 0x20 MUL DUP3 ADD SWAP2 PUSH0 SWAP1 JUMPDEST DUP3 DUP3 SWAP1 SLOAD SWAP1 PUSH2 0x100 EXP SWAP1 DIV PUSH1 0xFF AND PUSH1 0xFF AND DUP2 MSTORE PUSH1 0x20 ADD SWAP1 PUSH1 0x1 ADD SWAP1 PUSH1 0x20 DUP3 PUSH0 ADD DIV SWAP3 DUP4 ADD SWAP3 PUSH1 0x1 SUB DUP3 MUL SWAP2 POP DUP1 DUP5 GT PUSH2 0xEBC JUMPI SWAP1 POP JUMPDEST POP POP POP POP POP DUP2 MSTORE PUSH1 0x20 ADD SWAP1 PUSH1 0x1 ADD SWAP1 PUSH2 0xE85 JUMP JUMPDEST POP POP POP POP DUP2 MSTORE PUSH1 0x20 ADD PUSH1 0x1 DUP3 ADD PUSH0 SWAP1 SLOAD SWAP1 PUSH2 0x100 EXP SWAP1 DIV PUSH1 0xFF AND ISZERO ISZERO ISZERO ISZERO DUP2 MSTORE PUSH1 0x20 ADD PUSH1 0x1 DUP3 ADD PUSH1 0x1 SWAP1 SLOAD SWAP1 PUSH2 0x100 EXP SWAP1 DIV PUSH2 0xFFFF AND PUSH2 0xFFFF AND PUSH2 0xFFFF AND DUP2 MSTORE POP POP DUP3 DUP3 DUP2 MLOAD DUP2 LT PUSH2 0xF5B JUMPI PUSH2 0xF5A PUSH2 0x2B4A JUMP JUMPDEST JUMPDEST PUSH1 0x20 MUL PUSH1 0x20 ADD ADD DUP2 SWAP1 MSTORE POP DUP1 DUP1 PUSH1 0x1 ADD SWAP2 POP POP PUSH2 0xDD8 JUMP JUMPDEST POP PUSH0 PUSH0 PUSH2 0x1007 PUSH1 0x4 SLOAD DUP7 PUSH1 0x2 DUP1 SLOAD DUP1 PUSH1 0x20 MUL PUSH1 0x20 ADD PUSH1 0x40 MLOAD SWAP1 DUP2 ADD PUSH1 0x40 MSTORE DUP1 SWAP3 SWAP2 SWAP1 DUP2 DUP2 MSTORE PUSH1 0x20 ADD DUP3 DUP1 SLOAD DUP1 ISZERO PUSH2 0xFFC JUMPI PUSH1 0x20 MUL DUP3 ADD SWAP2 SWAP1 PUSH0 MSTORE PUSH1 0x20 PUSH0 KECCAK256 SWAP1 JUMPDEST DUP2 PUSH0 SWAP1 SLOAD SWAP1 PUSH2 0x100 EXP SWAP1 DIV PUSH20 0xFFFFFFFFFFFFFFFFFFFFFFFFFFFFFFFFFFFFFFFF AND PUSH20 0xFFFFFFFFFFFFFFFFFFFFFFFFFFFFFFFFFFFFFFFF AND DUP2 MSTORE PUSH1 0x20 ADD SWAP1 PUSH1 0x1 ADD SWAP1 DUP1 DUP4 GT PUSH2 0xFB3 JUMPI JUMPDEST POP POP POP POP POP DUP7 PUSH2 0x1949 JUMP JUMPDEST SWAP2 POP SWAP2 POP PUSH1 0x1 PUSH1 0x9 PUSH1 0x1 PUSH2 0x100 EXP DUP2 SLOAD DUP2 PUSH1 0xFF MUL NOT AND SWAP1 DUP4 ISZERO ISZERO MUL OR SWAP1 SSTORE POP PUSH0 DUP3 MLOAD GT ISZERO PUSH2 0x110C JUMPI PUSH0 PUSH0 SWAP1 POP JUMPDEST DUP3 MLOAD DUP2 LT ISZERO PUSH2 0x110A JUMPI DUP2 PUSH1 0xB PUSH0 DUP6 DUP5 DUP2 MLOAD DUP2 LT PUSH2 0x1054 JUMPI PUSH2 0x1053 PUSH2 0x2B4A JUMP JUMPDEST JUMPDEST PUSH1 0x20 MUL PUSH1 0x20 ADD ADD MLOAD PUSH20 0xFFFFFFFFFFFFFFFFFFFFFFFFFFFFFFFFFFFFFFFF AND PUSH20 0xFFFFFFFFFFFFFFFFFFFFFFFFFFFFFFFFFFFFFFFF AND DUP2 MSTORE PUSH1 0x20 ADD SWAP1 DUP2 MSTORE PUSH1 0x20 ADD PUSH0 KECCAK256 PUSH0 DUP3 DUP3 SLOAD PUSH2 0x10A3 SWAP2 SWAP1 PUSH2 0x240D JUMP JUMPDEST SWAP3 POP POP DUP2 SWAP1 SSTORE POP PUSH32 0xFD0EB416C92EC1C8C027692D237438D75F420A7FD1694D965C9695CD767EF4B1 DUP4 DUP3 DUP2 MLOAD DUP2 LT PUSH2 0x10DE JUMPI PUSH2 0x10DD PUSH2 0x2B4A JUMP JUMPDEST JUMPDEST PUSH1 0x20 MUL PUSH1 0x20 ADD ADD MLOAD DUP4 PUSH1 0x40 MLOAD PUSH2 0x10F5 SWAP3 SWAP2 SWAP1 PUSH2 0x2BC6 JUMP JUMPDEST PUSH1 0x40 MLOAD DUP1 SWAP2 SUB SWAP1 LOG1 DUP1 DUP1 PUSH1 0x1 ADD SWAP2 POP POP PUSH2 0x1034 JUMP JUMPDEST POP JUMPDEST PUSH0 PUSH1 0x4 DUP2 SWAP1 SSTORE POP PUSH0 PUSH1 0x1 PUSH0 PUSH2 0x100 EXP DUP2 SLOAD DUP2 PUSH2 0xFFFF MUL NOT AND SWAP1 DUP4 PUSH2 0xFFFF AND MUL OR SWAP1 SSTORE POP PUSH0 PUSH1 0x9 PUSH0 PUSH2 0x100 EXP DUP2 SLOAD DUP2 PUSH1 0xFF MUL NOT AND SWAP1 DUP4 ISZERO ISZERO MUL OR SWAP1 SSTORE POP PUSH0 PUSH1 0x9 PUSH1 0x1 PUSH2 0x100 EXP DUP2 SLOAD DUP2 PUSH1 0xFF MUL NOT AND SWAP1 DUP4 ISZERO ISZERO MUL OR SWAP1 SSTORE POP PUSH0 PUSH0 SWAP1 POP JUMPDEST PUSH1 0x2 DUP1 SLOAD SWAP1 POP DUP2 LT ISZERO PUSH2 0x1231 JUMPI PUSH0 PUSH0 PUSH1 0x2 DUP4 DUP2 SLOAD DUP2 LT PUSH2 0x118A JUMPI PUSH2 0x1189 PUSH2 0x2B4A JUMP JUMPDEST JUMPDEST SWAP1 PUSH0 MSTORE PUSH1 0x20 PUSH0 KECCAK256 ADD PUSH0 SWAP1 SLOAD SWAP1 PUSH2 0x100 EXP SWAP1 DIV PUSH20 0xFFFFFFFFFFFFFFFFFFFFFFFFFFFFFFFFFFFFFFFF AND PUSH20 0xFFFFFFFFFFFFFFFFFFFFFFFFFFFFFFFFFFFFFFFF AND PUSH20 0xFFFFFFFFFFFFFFFFFFFFFFFFFFFFFFFFFFFFFFFF AND DUP2 MSTORE PUSH1 0x20 ADD SWAP1 DUP2 MSTORE PUSH1 0x20 ADD PUSH0 KECCAK256 PUSH0 PUSH0 DUP3 ADD PUSH0 PUSH2 0x11FA SWAP2 SWAP1 PUSH2 0x1EB6 JUMP JUMPDEST PUSH1 0x1 DUP3 ADD PUSH0 PUSH2 0x100 EXP DUP2 SLOAD SWAP1 PUSH1 0xFF MUL NOT AND SWAP1 SSTORE PUSH1 0x1 DUP3 ADD PUSH1 0x1 PUSH2 0x100 EXP DUP2 SLOAD SWAP1 PUSH2 0xFFFF MUL NOT AND SWAP1 SSTORE POP POP DUP1 DUP1 PUSH1 0x1 ADD SWAP2 POP POP PUSH2 0x1167 JUMP JUMPDEST POP PUSH1 0x2 PUSH0 PUSH2 0x123F SWAP2 SWAP1 PUSH2 0x1ED4 JUMP JUMPDEST POP POP POP POP POP POP POP JUMP JUMPDEST PUSH1 0xD PUSH0 SWAP1 SLOAD SWAP1 PUSH2 0x100 EXP SWAP1 DIV PUSH2 0xFFFF AND DUP2 JUMP JUMPDEST PUSH1 0xC SLOAD DUP2 JUMP JUMPDEST PUSH0 PUSH1 0x20 MSTORE DUP1 PUSH0 MSTORE PUSH1 0x40 PUSH0 KECCAK256 PUSH0 SWAP2 POP SWAP1 POP DUP1 PUSH1 0x1 ADD PUSH0 SWAP1 SLOAD SWAP1 PUSH2 0x100 EXP SWAP1 DIV PUSH1 0xFF AND SWAP1 DUP1 PUSH1 0x1 ADD PUSH1 0x1 SWAP1 SLOAD SWAP1 PUSH2 0x100 EXP SWAP1 DIV PUSH2 0xFFFF AND SWAP1 POP DUP3 JUMP JUMPDEST PUSH1 0x8 SLOAD DUP2 JUMP JUMPDEST PUSH1 0xD PUSH1 0x2 SWAP1 SLOAD SWAP1 PUSH2 0x100 EXP SWAP1 DIV PUSH2 0xFFFF AND DUP2 JUMP JUMPDEST PUSH1 0x9 PUSH0 SWAP1 SLOAD SWAP1 PUSH2 0x100 EXP SWAP1 DIV PUSH1 0xFF AND ISZERO PUSH2 0x1304 JUMPI PUSH1 0x40 MLOAD PUSH32 0x8C379A000000000000000000000000000000000000000000000000000000000 DUP2 MSTORE PUSH1 0x4 ADD PUSH2 0x12FB SWAP1 PUSH2 0x2C5D JUMP JUMPDEST PUSH1 0x40 MLOAD DUP1 SWAP2 SUB SWAP1 REVERT JUMPDEST PUSH1 0x6 SLOAD CALLVALUE LT ISZERO PUSH2 0x1349 JUMPI PUSH1 0x40 MLOAD PUSH32 0x8C379A000000000000000000000000000000000000000000000000000000000 DUP2 MSTORE PUSH1 0x4 ADD PUSH2 0x1340 SWAP1 PUSH2 0x2D37 JUMP JUMPDEST PUSH1 0x40 MLOAD DUP1 SWAP2 SUB SWAP1 REVERT JUMPDEST PUSH2 0x1352 DUP2 PUSH2 0x1CF5 JUMP JUMPDEST PUSH1 0x7 SLOAD PUSH1 0x5 DUP2 SWAP1 SSTORE POP PUSH1 0x5 SLOAD CALLVALUE PUSH2 0x1369 SWAP2 SWAP1 PUSH2 0x2D55 JUMP JUMPDEST PUSH1 0x4 PUSH0 DUP3 DUP3 SLOAD PUSH2 0x1379 SWAP2 SWAP1 PUSH2 0x240D JUMP JUMPDEST SWAP3 POP POP DUP2 SWAP1 SSTORE POP PUSH0 PUSH1 0x3 PUSH0 SWAP1 SLOAD SWAP1 PUSH2 0x100 EXP SWAP1 DIV PUSH20 0xFFFFFFFFFFFFFFFFFFFFFFFFFFFFFFFFFFFFFFFF AND PUSH20 0xFFFFFFFFFFFFFFFFFFFFFFFFFFFFFFFFFFFFFFFF AND PUSH1 0x5 SLOAD PUSH1 0x40 MLOAD PUSH2 0x13C8 SWAP1 PUSH2 0x269B JUMP JUMPDEST PUSH0 PUSH1 0x40 MLOAD DUP1 DUP4 SUB DUP2 DUP6 DUP8 GAS CALL SWAP3 POP POP POP RETURNDATASIZE DUP1 PUSH0 DUP2 EQ PUSH2 0x1402 JUMPI PUSH1 0x40 MLOAD SWAP2 POP PUSH1 0x1F NOT PUSH1 0x3F RETURNDATASIZE ADD AND DUP3 ADD PUSH1 0x40 MSTORE RETURNDATASIZE DUP3 MSTORE RETURNDATASIZE PUSH0 PUSH1 0x20 DUP5 ADD RETURNDATACOPY PUSH2 0x1407 JUMP JUMPDEST PUSH1 0x60 SWAP2 POP JUMPDEST POP POP SWAP1 POP DUP1 PUSH2 0x144B JUMPI PUSH1 0x40 MLOAD PUSH32 0x8C379A000000000000000000000000000000000000000000000000000000000 DUP2 MSTORE PUSH1 0x4 ADD PUSH2 0x1442 SWAP1 PUSH2 0x2DD2 JUMP JUMPDEST PUSH1 0x40 MLOAD DUP1 SWAP2 SUB SWAP1 REVERT JUMPDEST PUSH0 PUSH0 CALLER PUSH20 0xFFFFFFFFFFFFFFFFFFFFFFFFFFFFFFFFFFFFFFFF AND PUSH20 0xFFFFFFFFFFFFFFFFFFFFFFFFFFFFFFFFFFFFFFFF AND DUP2 MSTORE PUSH1 0x20 ADD SWAP1 DUP2 MSTORE PUSH1 0x20 ADD PUSH0 KECCAK256 PUSH0 ADD DUP3 SWAP1 DUP1 PUSH1 0x1 DUP2 SLOAD ADD DUP1 DUP3 SSTORE DUP1 SWAP2 POP POP PUSH1 0x1 SWAP1 SUB SWAP1 PUSH0 MSTORE PUSH1 0x20 PUSH0 KECCAK256 ADD PUSH0 SWAP1 SWAP2 SWAP1 SWAP2 SWAP1 SWAP2 POP SWAP1 PUSH1 0x5 PUSH2 0x14BA SWAP3 SWAP2 SWAP1 PUSH2 0x1EF2 JUMP JUMPDEST POP PUSH1 0x1 PUSH0 PUSH0 CALLER PUSH20 0xFFFFFFFFFFFFFFFFFFFFFFFFFFFFFFFFFFFFFFFF AND PUSH20 0xFFFFFFFFFFFFFFFFFFFFFFFFFFFFFFFFFFFFFFFF AND DUP2 MSTORE PUSH1 0x20 ADD SWAP1 DUP2 MSTORE PUSH1 0x20 ADD PUSH0 KECCAK256 PUSH1 0x1 ADD PUSH1 0x1 DUP3 DUP3 DUP3 SWAP1 SLOAD SWAP1 PUSH2 0x100 EXP SWAP1 DIV PUSH2 0xFFFF AND PUSH2 0x1518 SWAP2 SWAP1 PUSH2 0x2DF0 JUMP JUMPDEST SWAP3 POP PUSH2 0x100 EXP DUP2 SLOAD DUP2 PUSH2 0xFFFF MUL NOT AND SWAP1 DUP4 PUSH2 0xFFFF AND MUL OR SWAP1 SSTORE POP PUSH0 PUSH0 CALLER PUSH20 0xFFFFFFFFFFFFFFFFFFFFFFFFFFFFFFFFFFFFFFFF AND PUSH20 0xFFFFFFFFFFFFFFFFFFFFFFFFFFFFFFFFFFFFFFFF AND DUP2 MSTORE PUSH1 0x20 ADD SWAP1 DUP2 MSTORE PUSH1 0x20 ADD PUSH0 KECCAK256 PUSH1 0x1 ADD PUSH0 SWAP1 SLOAD SWAP1 PUSH2 0x100 EXP SWAP1 DIV PUSH1 0xFF AND PUSH2 0x163A JUMPI PUSH1 0x1 PUSH0 PUSH0 CALLER PUSH20 0xFFFFFFFFFFFFFFFFFFFFFFFFFFFFFFFFFFFFFFFF AND PUSH20 0xFFFFFFFFFFFFFFFFFFFFFFFFFFFFFFFFFFFFFFFF AND DUP2 MSTORE PUSH1 0x20 ADD SWAP1 DUP2 MSTORE PUSH1 0x20 ADD PUSH0 KECCAK256 PUSH1 0x1 ADD PUSH0 PUSH2 0x100 EXP DUP2 SLOAD DUP2 PUSH1 0xFF MUL NOT AND SWAP1 DUP4 ISZERO ISZERO MUL OR SWAP1 SSTORE POP PUSH1 0x2 CALLER SWAP1 DUP1 PUSH1 0x1 DUP2 SLOAD ADD DUP1 DUP3 SSTORE DUP1 SWAP2 POP POP PUSH1 0x1 SWAP1 SUB SWAP1 PUSH0 MSTORE PUSH1 0x20 PUSH0 KECCAK256 ADD PUSH0 SWAP1 SWAP2 SWAP1 SWAP2 SWAP1 SWAP2 PUSH2 0x100 EXP DUP2 SLOAD DUP2 PUSH20 0xFFFFFFFFFFFFFFFFFFFFFFFFFFFFFFFFFFFFFFFF MUL NOT AND SWAP1 DUP4 PUSH20 0xFFFFFFFFFFFFFFFFFFFFFFFFFFFFFFFFFFFFFFFF AND MUL OR SWAP1 SSTORE POP JUMPDEST PUSH1 0x1 DUP1 PUSH0 DUP3 DUP3 DUP3 SWAP1 SLOAD SWAP1 PUSH2 0x100 EXP SWAP1 DIV PUSH2 0xFFFF AND PUSH2 0x1658 SWAP2 SWAP1 PUSH2 0x2DF0 JUMP JUMPDEST SWAP3 POP PUSH2 0x100 EXP DUP2 SLOAD DUP2 PUSH2 0xFFFF MUL NOT AND SWAP1 DUP4 PUSH2 0xFFFF AND MUL OR SWAP1 SSTORE POP PUSH32 0xE5B1ECED469F0F85354B67D6EF4B36910756D7F6D07AB540D7BF0E198E3AECD5 CALLER PUSH1 0x40 MLOAD PUSH2 0x16A1 SWAP2 SWAP1 PUSH2 0x2E6F JUMP JUMPDEST PUSH1 0x40 MLOAD DUP1 SWAP2 SUB SWAP1 LOG1 POP POP JUMP JUMPDEST PUSH1 0x3 PUSH0 SWAP1 SLOAD SWAP1 PUSH2 0x100 EXP SWAP1 DIV PUSH20 0xFFFFFFFFFFFFFFFFFFFFFFFFFFFFFFFFFFFFFFFF AND PUSH20 0xFFFFFFFFFFFFFFFFFFFFFFFFFFFFFFFFFFFFFFFF AND CALLER PUSH20 0xFFFFFFFFFFFFFFFFFFFFFFFFFFFFFFFFFFFFFFFF AND EQ PUSH2 0x173C JUMPI PUSH1 0x40 MLOAD PUSH32 0x8C379A000000000000000000000000000000000000000000000000000000000 DUP2 MSTORE PUSH1 0x4 ADD PUSH2 0x1733 SWAP1 PUSH2 0x2518 JUMP JUMPDEST PUSH1 0x40 MLOAD DUP1 SWAP2 SUB SWAP1 REVERT JUMPDEST PUSH1 0x2 DUP2 PUSH2 0xFFFF AND LT ISZERO PUSH2 0x1784 JUMPI PUSH1 0x40 MLOAD PUSH32 0x8C379A000000000000000000000000000000000000000000000000000000000 DUP2 MSTORE PUSH1 0x4 ADD PUSH2 0x177B SWAP1 PUSH2 0x2EE5 JUMP JUMPDEST PUSH1 0x40 MLOAD DUP1 SWAP2 SUB SWAP1 REVERT JUMPDEST PUSH1 0x64 DUP2 PUSH2 0xFFFF AND GT ISZERO PUSH2 0x17CC JUMPI PUSH1 0x40 MLOAD PUSH32 0x8C379A000000000000000000000000000000000000000000000000000000000 DUP2 MSTORE PUSH1 0x4 ADD PUSH2 0x17C3 SWAP1 PUSH2 0x2825 JUMP JUMPDEST PUSH1 0x40 MLOAD DUP1 SWAP2 SUB SWAP1 REVERT JUMPDEST DUP1 PUSH1 0xD PUSH0 PUSH2 0x100 EXP DUP2 SLOAD DUP2 PUSH2 0xFFFF MUL NOT AND SWAP1 DUP4 PUSH2 0xFFFF AND MUL OR SWAP1 SSTORE POP POP JUMP JUMPDEST PUSH1 0xD PUSH1 0x4 SWAP1 SLOAD SWAP1 PUSH2 0x100 EXP SWAP1 DIV PUSH2 0xFFFF AND DUP2 JUMP JUMPDEST PUSH1 0x3 PUSH0 SWAP1 SLOAD SWAP1 PUSH2 0x100 EXP SWAP1 DIV PUSH20 0xFFFFFFFFFFFFFFFFFFFFFFFFFFFFFFFFFFFFFFFF AND DUP2 JUMP JUMPDEST PUSH1 0x3 PUSH0 SWAP1 SLOAD SWAP1 PUSH2 0x100 EXP SWAP1 DIV PUSH20 0xFFFFFFFFFFFFFFFFFFFFFFFFFFFFFFFFFFFFFFFF AND PUSH20 0xFFFFFFFFFFFFFFFFFFFFFFFFFFFFFFFFFFFFFFFF AND CALLER PUSH20 0xFFFFFFFFFFFFFFFFFFFFFFFFFFFFFFFFFFFFFFFF AND EQ PUSH2 0x18B3 JUMPI PUSH1 0x40 MLOAD PUSH32 0x8C379A000000000000000000000000000000000000000000000000000000000 DUP2 MSTORE PUSH1 0x4 ADD PUSH2 0x18AA SWAP1 PUSH2 0x2518 JUMP JUMPDEST PUSH1 0x40 MLOAD DUP1 SWAP2 SUB SWAP1 REVERT JUMPDEST PUSH3 0x15180 DUP2 LT ISZERO PUSH2 0x18F9 JUMPI PUSH1 0x40 MLOAD PUSH32 0x8C379A000000000000000000000000000000000000000000000000000000000 DUP2 MSTORE PUSH1 0x4 ADD PUSH2 0x18F0 SWAP1 PUSH2 0x2F4D JUMP JUMPDEST PUSH1 0x40 MLOAD DUP1 SWAP2 SUB SWAP1 REVERT JUMPDEST PUSH3 0x278D00 DUP2 GT ISZERO PUSH2 0x193F JUMPI PUSH1 0x40 MLOAD PUSH32 0x8C379A000000000000000000000000000000000000000000000000000000000 DUP2 MSTORE PUSH1 0x4 ADD PUSH2 0x1936 SWAP1 PUSH2 0x2FB5 JUMP JUMPDEST PUSH1 0x40 MLOAD DUP1 SWAP2 SUB SWAP1 REVERT JUMPDEST DUP1 PUSH1 0xC DUP2 SWAP1 SSTORE POP POP JUMP JUMPDEST PUSH1 0x60 PUSH0 DUP3 MLOAD DUP5 MLOAD EQ PUSH2 0x1990 JUMPI PUSH1 0x40 MLOAD PUSH32 0x8C379A000000000000000000000000000000000000000000000000000000000 DUP2 MSTORE PUSH1 0x4 ADD PUSH2 0x1987 SWAP1 PUSH2 0x301D JUMP JUMPDEST PUSH1 0x40 MLOAD DUP1 SWAP2 SUB SWAP1 REVERT JUMPDEST PUSH0 PUSH0 SWAP1 POP PUSH0 PUSH0 SWAP1 POP JUMPDEST DUP5 MLOAD DUP2 LT ISZERO PUSH2 0x1AB1 JUMPI PUSH0 DUP6 DUP3 DUP2 MLOAD DUP2 LT PUSH2 0x19B6 JUMPI PUSH2 0x19B5 PUSH2 0x2B4A JUMP JUMPDEST JUMPDEST PUSH1 0x20 MUL PUSH1 0x20 ADD ADD MLOAD PUSH1 0x40 ADD MLOAD PUSH2 0xFFFF AND SWAP1 POP PUSH0 PUSH0 SWAP1 POP JUMPDEST DUP2 DUP2 LT ISZERO PUSH2 0x1AA2 JUMPI PUSH0 DUP8 DUP5 DUP2 MLOAD DUP2 LT PUSH2 0x19E9 JUMPI PUSH2 0x19E8 PUSH2 0x2B4A JUMP JUMPDEST JUMPDEST PUSH1 0x20 MUL PUSH1 0x20 ADD ADD MLOAD PUSH0 ADD MLOAD DUP3 DUP2 MLOAD DUP2 LT PUSH2 0x1A06 JUMPI PUSH2 0x1A05 PUSH2 0x2B4A JUMP JUMPDEST JUMPDEST PUSH1 0x20 MUL PUSH1 0x20 ADD ADD MLOAD SWAP1 POP PUSH0 PUSH1 0x1 SWAP1 POP PUSH0 PUSH0 SWAP1 POP JUMPDEST PUSH1 0x5 DUP2 PUSH1 0xFF AND LT ISZERO PUSH2 0x1A7C JUMPI DUP12 DUP2 PUSH1 0xFF AND PUSH1 0x5 DUP2 LT PUSH2 0x1A3C JUMPI PUSH2 0x1A3B PUSH2 0x2B4A JUMP JUMPDEST JUMPDEST PUSH1 0x20 MUL ADD MLOAD PUSH1 0xFF AND DUP4 DUP3 PUSH1 0xFF AND PUSH1 0x5 DUP2 LT PUSH2 0x1A5A JUMPI PUSH2 0x1A59 PUSH2 0x2B4A JUMP JUMPDEST JUMPDEST PUSH1 0x20 MUL ADD MLOAD PUSH1 0xFF AND EQ PUSH2 0x1A6F JUMPI PUSH0 SWAP2 POP PUSH2 0x1A7C JUMP JUMPDEST DUP1 DUP1 PUSH1 0x1 ADD SWAP2 POP POP PUSH2 0x1A1A JUMP JUMPDEST POP DUP1 ISZERO PUSH2 0x1A93 JUMPI PUSH1 0x1 DUP7 PUSH2 0x1A90 SWAP2 SWAP1 PUSH2 0x240D JUMP JUMPDEST SWAP6 POP JUMPDEST POP POP DUP1 DUP1 PUSH1 0x1 ADD SWAP2 POP POP PUSH2 0x19CD JUMP JUMPDEST POP POP DUP1 DUP1 PUSH1 0x1 ADD SWAP2 POP POP PUSH2 0x1999 JUMP JUMPDEST POP PUSH0 DUP2 SUB PUSH2 0x1B0D JUMPI PUSH0 PUSH8 0xFFFFFFFFFFFFFFFF DUP2 GT ISZERO PUSH2 0x1AD3 JUMPI PUSH2 0x1AD2 PUSH2 0x2B77 JUMP JUMPDEST JUMPDEST PUSH1 0x40 MLOAD SWAP1 DUP1 DUP3 MSTORE DUP1 PUSH1 0x20 MUL PUSH1 0x20 ADD DUP3 ADD PUSH1 0x40 MSTORE DUP1 ISZERO PUSH2 0x1B01 JUMPI DUP2 PUSH1 0x20 ADD PUSH1 0x20 DUP3 MUL DUP1 CALLDATASIZE DUP4 CALLDATACOPY DUP1 DUP3 ADD SWAP2 POP POP SWAP1 POP JUMPDEST POP PUSH0 SWAP3 POP SWAP3 POP POP PUSH2 0x1CEC JUMP JUMPDEST DUP1 PUSH8 0xFFFFFFFFFFFFFFFF DUP2 GT ISZERO PUSH2 0x1B27 JUMPI PUSH2 0x1B26 PUSH2 0x2B77 JUMP JUMPDEST JUMPDEST PUSH1 0x40 MLOAD SWAP1 DUP1 DUP3 MSTORE DUP1 PUSH1 0x20 MUL PUSH1 0x20 ADD DUP3 ADD PUSH1 0x40 MSTORE DUP1 ISZERO PUSH2 0x1B55 JUMPI DUP2 PUSH1 0x20 ADD PUSH1 0x20 DUP3 MUL DUP1 CALLDATASIZE DUP4 CALLDATACOPY DUP1 DUP3 ADD SWAP2 POP POP SWAP1 POP JUMPDEST POP SWAP3 POP PUSH0 PUSH0 SWAP1 POP PUSH0 DUP3 DUP10 PUSH2 0x1B69 SWAP2 SWAP1 PUSH2 0x303B JUMP JUMPDEST SWAP1 POP PUSH0 PUSH0 SWAP1 POP JUMPDEST DUP7 MLOAD DUP2 LT ISZERO PUSH2 0x1CE1 JUMPI PUSH0 DUP8 DUP3 DUP2 MLOAD DUP2 LT PUSH2 0x1B8D JUMPI PUSH2 0x1B8C PUSH2 0x2B4A JUMP JUMPDEST JUMPDEST PUSH1 0x20 MUL PUSH1 0x20 ADD ADD MLOAD PUSH1 0x40 ADD MLOAD PUSH2 0xFFFF AND SWAP1 POP PUSH0 PUSH0 SWAP1 POP JUMPDEST DUP2 DUP2 LT ISZERO PUSH2 0x1CD2 JUMPI PUSH0 PUSH1 0x1 SWAP1 POP PUSH0 PUSH0 SWAP1 POP JUMPDEST PUSH1 0x5 DUP2 LT ISZERO PUSH2 0x1C46 JUMPI DUP13 DUP2 PUSH1 0x5 DUP2 LT PUSH2 0x1BD2 JUMPI PUSH2 0x1BD1 PUSH2 0x2B4A JUMP JUMPDEST JUMPDEST PUSH1 0x20 MUL ADD MLOAD PUSH1 0xFF AND DUP12 DUP7 DUP2 MLOAD DUP2 LT PUSH2 0x1BED JUMPI PUSH2 0x1BEC PUSH2 0x2B4A JUMP JUMPDEST JUMPDEST PUSH1 0x20 MUL PUSH1 0x20 ADD ADD MLOAD PUSH0 ADD MLOAD DUP3 DUP2 MLOAD DUP2 LT PUSH2 0x1C0A JUMPI PUSH2 0x1C09 PUSH2 0x2B4A JUMP JUMPDEST JUMPDEST PUSH1 0x20 MUL PUSH1 0x20 ADD ADD MLOAD DUP5 PUSH1 0x5 DUP2 LT PUSH2 0x1C24 JUMPI PUSH2 0x1C23 PUSH2 0x2B4A JUMP JUMPDEST JUMPDEST PUSH1 0x20 MUL ADD MLOAD PUSH1 0xFF AND EQ PUSH2 0x1C39 JUMPI PUSH0 SWAP2 POP PUSH2 0x1C46 JUMP JUMPDEST DUP1 DUP1 PUSH1 0x1 ADD SWAP2 POP POP PUSH2 0x1BB6 JUMP JUMPDEST POP DUP1 ISZERO PUSH2 0x1CC4 JUMPI DUP11 DUP5 DUP2 MLOAD DUP2 LT PUSH2 0x1C60 JUMPI PUSH2 0x1C5F PUSH2 0x2B4A JUMP JUMPDEST JUMPDEST PUSH1 0x20 MUL PUSH1 0x20 ADD ADD MLOAD DUP10 DUP8 DUP2 MLOAD DUP2 LT PUSH2 0x1C7B JUMPI PUSH2 0x1C7A PUSH2 0x2B4A JUMP JUMPDEST JUMPDEST PUSH1 0x20 MUL PUSH1 0x20 ADD ADD SWAP1 PUSH20 0xFFFFFFFFFFFFFFFFFFFFFFFFFFFFFFFFFFFFFFFF AND SWAP1 DUP2 PUSH20 0xFFFFFFFFFFFFFFFFFFFFFFFFFFFFFFFFFFFFFFFF AND DUP2 MSTORE POP POP DUP6 DUP1 PUSH2 0x1CC0 SWAP1 PUSH2 0x306B JUMP JUMPDEST SWAP7 POP POP JUMPDEST POP DUP1 DUP1 PUSH1 0x1 ADD SWAP2 POP POP PUSH2 0x1BA4 JUMP JUMPDEST POP POP DUP1 DUP1 PUSH1 0x1 ADD SWAP2 POP POP PUSH2 0x1B70 JUMP JUMPDEST POP DUP5 DUP2 SWAP5 POP SWAP5 POP POP POP POP JUMPDEST SWAP5 POP SWAP5 SWAP3 POP POP POP JUMP JUMPDEST PUSH0 PUSH0 SWAP1 POP JUMPDEST PUSH1 0x5 DUP2 LT ISZERO PUSH2 0x1E6B JUMPI PUSH1 0x1 DUP3 DUP3 PUSH1 0x5 DUP2 LT PUSH2 0x1D18 JUMPI PUSH2 0x1D17 PUSH2 0x2B4A JUMP JUMPDEST JUMPDEST PUSH1 0x20 MUL ADD PUSH1 0x20 DUP2 ADD SWAP1 PUSH2 0x1D2B SWAP2 SWAP1 PUSH2 0x30E8 JUMP JUMPDEST PUSH1 0xFF AND LT ISZERO DUP1 ISZERO PUSH2 0x1D65 JUMPI POP PUSH1 0x63 DUP3 DUP3 PUSH1 0x5 DUP2 LT PUSH2 0x1D4C JUMPI PUSH2 0x1D4B PUSH2 0x2B4A JUMP JUMPDEST JUMPDEST PUSH1 0x20 MUL ADD PUSH1 0x20 DUP2 ADD SWAP1 PUSH2 0x1D5F SWAP2 SWAP1 PUSH2 0x30E8 JUMP JUMPDEST PUSH1 0xFF AND GT ISZERO JUMPDEST PUSH2 0x1DA4 JUMPI PUSH1 0x40 MLOAD PUSH32 0x8C379A000000000000000000000000000000000000000000000000000000000 DUP2 MSTORE PUSH1 0x4 ADD PUSH2 0x1D9B SWAP1 PUSH2 0x315D JUMP JUMPDEST PUSH1 0x40 MLOAD DUP1 SWAP2 SUB SWAP1 REVERT JUMPDEST PUSH0 PUSH1 0x1 DUP3 PUSH2 0x1DB2 SWAP2 SWAP1 PUSH2 0x240D JUMP JUMPDEST SWAP1 POP JUMPDEST PUSH1 0x5 DUP2 LT ISZERO PUSH2 0x1E5D JUMPI DUP3 DUP2 PUSH1 0x5 DUP2 LT PUSH2 0x1DD1 JUMPI PUSH2 0x1DD0 PUSH2 0x2B4A JUMP JUMPDEST JUMPDEST PUSH1 0x20 MUL ADD PUSH1 0x20 DUP2 ADD SWAP1 PUSH2 0x1DE4 SWAP2 SWAP1 PUSH2 0x30E8 JUMP JUMPDEST PUSH1 0xFF AND DUP4 DUP4 PUSH1 0x5 DUP2 LT PUSH2 0x1DFA JUMPI PUSH2 0x1DF9 PUSH2 0x2B4A JUMP JUMPDEST JUMPDEST PUSH1 0x20 MUL ADD PUSH1 0x20 DUP2 ADD SWAP1 PUSH2 0x1E0D SWAP2 SWAP1 PUSH2 0x30E8 JUMP JUMPDEST PUSH1 0xFF AND SUB PUSH2 0x1E50 JUMPI PUSH1 0x40 MLOAD PUSH32 0x8C379A000000000000000000000000000000000000000000000000000000000 DUP2 MSTORE PUSH1 0x4 ADD PUSH2 0x1E47 SWAP1 PUSH2 0x31C5 JUMP JUMPDEST PUSH1 0x40 MLOAD DUP1 SWAP2 SUB SWAP1 REVERT JUMPDEST DUP1 DUP1 PUSH1 0x1 ADD SWAP2 POP POP PUSH2 0x1DB5 JUMP JUMPDEST POP DUP1 DUP1 PUSH1 0x1 ADD SWAP2 POP POP PUSH2 0x1CFA JUMP JUMPDEST POP POP JUMP JUMPDEST PUSH1 0x40 MLOAD DUP1 PUSH1 0xA0 ADD PUSH1 0x40 MSTORE DUP1 PUSH1 0x5 SWAP1 PUSH1 0x20 DUP3 MUL DUP1 CALLDATASIZE DUP4 CALLDATACOPY DUP1 DUP3 ADD SWAP2 POP POP SWAP1 POP POP SWAP1 JUMP JUMPDEST PUSH1 0x40 MLOAD DUP1 PUSH1 0x60 ADD PUSH1 0x40 MSTORE DUP1 PUSH1 0x60 DUP2 MSTORE PUSH1 0x20 ADD PUSH0 ISZERO ISZERO DUP2 MSTORE PUSH1 0x20 ADD PUSH0 PUSH2 0xFFFF AND DUP2 MSTORE POP SWAP1 JUMP JUMPDEST POP DUP1 SLOAD PUSH0 DUP3 SSTORE SWAP1 PUSH0 MSTORE PUSH1 0x20 PUSH0 KECCAK256 SWAP1 DUP2 ADD SWAP1 PUSH2 0x1ED1 SWAP2 SWAP1 PUSH2 0x1F8C JUMP JUMPDEST POP JUMP JUMPDEST POP DUP1 SLOAD PUSH0 DUP3 SSTORE SWAP1 PUSH0 MSTORE PUSH1 0x20 PUSH0 KECCAK256 SWAP1 DUP2 ADD SWAP1 PUSH2 0x1EEF SWAP2 SWAP1 PUSH2 0x1FAF JUMP JUMPDEST POP JUMP JUMPDEST DUP3 PUSH1 0x5 PUSH1 0x1F ADD PUSH1 0x20 SWAP1 DIV DUP2 ADD SWAP3 DUP3 ISZERO PUSH2 0x1F7B JUMPI SWAP2 PUSH1 0x20 MUL DUP3 ADD PUSH0 JUMPDEST DUP4 DUP3 GT ISZERO PUSH2 0x1F4D JUMPI DUP4 CALLDATALOAD PUSH1 0xFF AND DUP4 DUP3 PUSH2 0x100 EXP DUP2 SLOAD DUP2 PUSH1 0xFF MUL NOT AND SWAP1 DUP4 PUSH1 0xFF AND MUL OR SWAP1 SSTORE POP SWAP3 PUSH1 0x20 ADD SWAP3 PUSH1 0x1 ADD PUSH1 0x20 DUP2 PUSH0 ADD DIV SWAP3 DUP4 ADD SWAP3 PUSH1 0x1 SUB MUL PUSH2 0x1F0D JUMP JUMPDEST DUP1 ISZERO PUSH2 0x1F79 JUMPI DUP3 DUP2 PUSH2 0x100 EXP DUP2 SLOAD SWAP1 PUSH1 0xFF MUL NOT AND SWAP1 SSTORE PUSH1 0x1 ADD PUSH1 0x20 DUP2 PUSH0 ADD DIV SWAP3 DUP4 ADD SWAP3 PUSH1 0x1 SUB MUL PUSH2 0x1F4D JUMP JUMPDEST POP JUMPDEST POP SWAP1 POP PUSH2 0x1F88 SWAP2 SWAP1 PUSH2 0x1FAF JUMP JUMPDEST POP SWAP1 JUMP JUMPDEST JUMPDEST DUP1 DUP3 GT ISZERO PUSH2 0x1FAB JUMPI PUSH0 DUP2 DUP2 PUSH2 0x1FA2 SWAP2 SWAP1 PUSH2 0x1FCA JUMP JUMPDEST POP PUSH1 0x1 ADD PUSH2 0x1F8D JUMP JUMPDEST POP SWAP1 JUMP JUMPDEST JUMPDEST DUP1 DUP3 GT ISZERO PUSH2 0x1FC6 JUMPI PUSH0 DUP2 PUSH0 SWAP1 SSTORE POP PUSH1 0x1 ADD PUSH2 0x1FB0 JUMP JUMPDEST POP SWAP1 JUMP JUMPDEST POP PUSH0 SWAP1 SSTORE JUMP JUMPDEST PUSH0 DUP2 ISZERO ISZERO SWAP1 POP SWAP2 SWAP1 POP JUMP JUMPDEST PUSH2 0x1FE4 DUP2 PUSH2 0x1FD0 JUMP JUMPDEST DUP3 MSTORE POP POP JUMP JUMPDEST PUSH0 PUSH1 0x20 DUP3 ADD SWAP1 POP PUSH2 0x1FFD PUSH0 DUP4 ADD DUP5 PUSH2 0x1FDB JUMP JUMPDEST SWAP3 SWAP2 POP POP JUMP JUMPDEST PUSH0 DUP2 SWAP1 POP SWAP2 SWAP1 POP JUMP JUMPDEST PUSH2 0x2015 DUP2 PUSH2 0x2003 JUMP JUMPDEST DUP3 MSTORE POP POP JUMP JUMPDEST PUSH0 PUSH1 0x20 DUP3 ADD SWAP1 POP PUSH2 0x202E PUSH0 DUP4 ADD DUP5 PUSH2 0x200C JUMP JUMPDEST SWAP3 SWAP2 POP POP JUMP JUMPDEST PUSH0 PUSH0 REVERT JUMPDEST PUSH0 PUSH20 0xFFFFFFFFFFFFFFFFFFFFFFFFFFFFFFFFFFFFFFFF DUP3 AND SWAP1 POP SWAP2 SWAP1 POP JUMP JUMPDEST PUSH0 PUSH2 0x2061 DUP3 PUSH2 0x2038 JUMP JUMPDEST SWAP1 POP SWAP2 SWAP1 POP JUMP JUMPDEST PUSH2 0x2071 DUP2 PUSH2 0x2057 JUMP JUMPDEST DUP2 EQ PUSH2 0x207B JUMPI PUSH0 PUSH0 REVERT JUMPDEST POP JUMP JUMPDEST PUSH0 DUP2 CALLDATALOAD SWAP1 POP PUSH2 0x208C DUP2 PUSH2 0x2068 JUMP JUMPDEST SWAP3 SWAP2 POP POP JUMP JUMPDEST PUSH0 PUSH1 0x20 DUP3 DUP5 SUB SLT ISZERO PUSH2 0x20A7 JUMPI PUSH2 0x20A6 PUSH2 0x2034 JUMP JUMPDEST JUMPDEST PUSH0 PUSH2 0x20B4 DUP5 DUP3 DUP6 ADD PUSH2 0x207E JUMP JUMPDEST SWAP2 POP POP SWAP3 SWAP2 POP POP JUMP JUMPDEST PUSH0 PUSH2 0xFFFF DUP3 AND SWAP1 POP SWAP2 SWAP1 POP JUMP JUMPDEST PUSH2 0x20D3 DUP2 PUSH2 0x20BD JUMP JUMPDEST DUP2 EQ PUSH2 0x20DD JUMPI PUSH0 PUSH0 REVERT JUMPDEST POP JUMP JUMPDEST PUSH0 DUP2 CALLDATALOAD SWAP1 POP PUSH2 0x20EE DUP2 PUSH2 0x20CA JUMP JUMPDEST SWAP3 SWAP2 POP POP JUMP JUMPDEST PUSH0 PUSH1 0x20 DUP3 DUP5 SUB SLT ISZERO PUSH2 0x2109 JUMPI PUSH2 0x2108 PUSH2 0x2034 JUMP JUMPDEST JUMPDEST PUSH0 PUSH2 0x2116 DUP5 DUP3 DUP6 ADD PUSH2 0x20E0 JUMP JUMPDEST SWAP2 POP POP SWAP3 SWAP2 POP POP JUMP JUMPDEST PUSH2 0x2128 DUP2 PUSH2 0x20BD JUMP JUMPDEST DUP3 MSTORE POP POP JUMP JUMPDEST PUSH0 PUSH1 0x20 DUP3 ADD SWAP1 POP PUSH2 0x2141 PUSH0 DUP4 ADD DUP5 PUSH2 0x211F JUMP JUMPDEST SWAP3 SWAP2 POP POP JUMP JUMPDEST PUSH0 PUSH1 0x40 DUP3 ADD SWAP1 POP PUSH2 0x215A PUSH0 DUP4 ADD DUP6 PUSH2 0x1FDB JUMP JUMPDEST PUSH2 0x2167 PUSH1 0x20 DUP4 ADD DUP5 PUSH2 0x211F JUMP JUMPDEST SWAP4 SWAP3 POP POP POP JUMP JUMPDEST PUSH0 PUSH0 REVERT JUMPDEST PUSH0 DUP2 SWAP1 POP DUP3 PUSH1 0x20 PUSH1 0x5 MUL DUP3 ADD GT ISZERO PUSH2 0x218D JUMPI PUSH2 0x218C PUSH2 0x216E JUMP JUMPDEST JUMPDEST SWAP3 SWAP2 POP POP JUMP JUMPDEST PUSH0 PUSH1 0xA0 DUP3 DUP5 SUB SLT ISZERO PUSH2 0x21A8 JUMPI PUSH2 0x21A7 PUSH2 0x2034 JUMP JUMPDEST JUMPDEST PUSH0 PUSH2 0x21B5 DUP5 DUP3 DUP6 ADD PUSH2 0x2172 JUMP JUMPDEST SWAP2 POP POP SWAP3 SWAP2 POP POP JUMP JUMPDEST PUSH0 PUSH2 0x21C8 DUP3 PUSH2 0x2038 JUMP JUMPDEST SWAP1 POP SWAP2 SWAP1 POP JUMP JUMPDEST PUSH2 0x21D8 DUP2 PUSH2 0x21BE JUMP JUMPDEST DUP3 MSTORE POP POP JUMP JUMPDEST PUSH0 PUSH1 0x20 DUP3 ADD SWAP1 POP PUSH2 0x21F1 PUSH0 DUP4 ADD DUP5 PUSH2 0x21CF JUMP JUMPDEST SWAP3 SWAP2 POP POP JUMP JUMPDEST PUSH2 0x2200 DUP2 PUSH2 0x2003 JUMP JUMPDEST DUP2 EQ PUSH2 0x220A JUMPI PUSH0 PUSH0 REVERT JUMPDEST POP JUMP JUMPDEST PUSH0 DUP2 CALLDATALOAD SWAP1 POP PUSH2 0x221B DUP2 PUSH2 0x21F7 JUMP JUMPDEST SWAP3 SWAP2 POP POP JUMP JUMPDEST PUSH0 PUSH1 0x20 DUP3 DUP5 SUB SLT ISZERO PUSH2 0x2236 JUMPI PUSH2 0x2235 PUSH2 0x2034 JUMP JUMPDEST JUMPDEST PUSH0 PUSH2 0x2243 DUP5 DUP3 DUP6 ADD PUSH2 0x220D JUMP JUMPDEST SWAP2 POP POP SWAP3 SWAP2 POP POP JUMP JUMPDEST PUSH0 DUP3 DUP3 MSTORE PUSH1 0x20 DUP3 ADD SWAP1 POP SWAP3 SWAP2 POP POP JUMP JUMPDEST PUSH32 0x4472617720616C726561647920696E697469617465642E000000000000000000 PUSH0 DUP3 ADD MSTORE POP JUMP JUMPDEST PUSH0 PUSH2 0x2290 PUSH1 0x17 DUP4 PUSH2 0x224C JUMP JUMPDEST SWAP2 POP PUSH2 0x229B DUP3 PUSH2 0x225C JUMP JUMPDEST PUSH1 0x20 DUP3 ADD SWAP1 POP SWAP2 SWAP1 POP JUMP JUMPDEST PUSH0 PUSH1 0x20 DUP3 ADD SWAP1 POP DUP2 DUP2 SUB PUSH0 DUP4 ADD MSTORE PUSH2 0x22BD DUP2 PUSH2 0x2284 JUMP JUMPDEST SWAP1 POP SWAP2 SWAP1 POP JUMP JUMPDEST PUSH32 0x4E6F7420656E6F756768207061727469636970616E747320746F207374617274 PUSH0 DUP3 ADD MSTORE PUSH32 0x20647261772E0000000000000000000000000000000000000000000000000000 PUSH1 0x20 DUP3 ADD MSTORE POP JUMP JUMPDEST PUSH0 PUSH2 0x231E PUSH1 0x26 DUP4 PUSH2 0x224C JUMP JUMPDEST SWAP2 POP PUSH2 0x2329 DUP3 PUSH2 0x22C4 JUMP JUMPDEST PUSH1 0x40 DUP3 ADD SWAP1 POP SWAP2 SWAP1 POP JUMP JUMPDEST PUSH0 PUSH1 0x20 DUP3 ADD SWAP1 POP DUP2 DUP2 SUB PUSH0 DUP4 ADD MSTORE PUSH2 0x234B DUP2 PUSH2 0x2312 JUMP JUMPDEST SWAP1 POP SWAP2 SWAP1 POP JUMP JUMPDEST PUSH32 0x4E6F7420656E6F756768207469636B65747320736F6C6420746F207374617274 PUSH0 DUP3 ADD MSTORE PUSH32 0x20647261772E0000000000000000000000000000000000000000000000000000 PUSH1 0x20 DUP3 ADD MSTORE POP JUMP JUMPDEST PUSH0 PUSH2 0x23AC PUSH1 0x26 DUP4 PUSH2 0x224C JUMP JUMPDEST SWAP2 POP PUSH2 0x23B7 DUP3 PUSH2 0x2352 JUMP JUMPDEST PUSH1 0x40 DUP3 ADD SWAP1 POP SWAP2 SWAP1 POP JUMP JUMPDEST PUSH0 PUSH1 0x20 DUP3 ADD SWAP1 POP DUP2 DUP2 SUB PUSH0 DUP4 ADD MSTORE PUSH2 0x23D9 DUP2 PUSH2 0x23A0 JUMP JUMPDEST SWAP1 POP SWAP2 SWAP1 POP JUMP JUMPDEST PUSH32 0x4E487B7100000000000000000000000000000000000000000000000000000000 PUSH0 MSTORE PUSH1 0x11 PUSH1 0x4 MSTORE PUSH1 0x24 PUSH0 REVERT JUMPDEST PUSH0 PUSH2 0x2417 DUP3 PUSH2 0x2003 JUMP JUMPDEST SWAP2 POP PUSH2 0x2422 DUP4 PUSH2 0x2003 JUMP JUMPDEST SWAP3 POP DUP3 DUP3 ADD SWAP1 POP DUP1 DUP3 GT ISZERO PUSH2 0x243A JUMPI PUSH2 0x2439 PUSH2 0x23E0 JUMP JUMPDEST JUMPDEST SWAP3 SWAP2 POP POP JUMP JUMPDEST PUSH32 0x4472617720636F6E646974696F6E73206E6F74206D65742E205761697420666F PUSH0 DUP3 ADD MSTORE PUSH32 0x722074696D6520696E74657276616C206F72207469636B6574206361702E0000 PUSH1 0x20 DUP3 ADD MSTORE POP JUMP JUMPDEST PUSH0 PUSH2 0x249A PUSH1 0x3E DUP4 PUSH2 0x224C JUMP JUMPDEST SWAP2 POP PUSH2 0x24A5 DUP3 PUSH2 0x2440 JUMP JUMPDEST PUSH1 0x40 DUP3 ADD SWAP1 POP SWAP2 SWAP1 POP JUMP JUMPDEST PUSH0 PUSH1 0x20 DUP3 ADD SWAP1 POP DUP2 DUP2 SUB PUSH0 DUP4 ADD MSTORE PUSH2 0x24C7 DUP2 PUSH2 0x248E JUMP JUMPDEST SWAP1 POP SWAP2 SWAP1 POP JUMP JUMPDEST PUSH32 0x596F7520617265206E6F742074686520686F73742E0000000000000000000000 PUSH0 DUP3 ADD MSTORE POP JUMP JUMPDEST PUSH0 PUSH2 0x2502 PUSH1 0x15 DUP4 PUSH2 0x224C JUMP JUMPDEST SWAP2 POP PUSH2 0x250D DUP3 PUSH2 0x24CE JUMP JUMPDEST PUSH1 0x20 DUP3 ADD SWAP1 POP SWAP2 SWAP1 POP JUMP JUMPDEST PUSH0 PUSH1 0x20 DUP3 ADD SWAP1 POP DUP2 DUP2 SUB PUSH0 DUP4 ADD MSTORE PUSH2 0x252F DUP2 PUSH2 0x24F6 JUMP JUMPDEST SWAP1 POP SWAP2 SWAP1 POP JUMP JUMPDEST PUSH32 0x4D6178206D757374206265203E3D206D696E207469636B657473000000000000 PUSH0 DUP3 ADD MSTORE POP JUMP JUMPDEST PUSH0 PUSH2 0x256A PUSH1 0x1A DUP4 PUSH2 0x224C JUMP JUMPDEST SWAP2 POP PUSH2 0x2575 DUP3 PUSH2 0x2536 JUMP JUMPDEST PUSH1 0x20 DUP3 ADD SWAP1 POP SWAP2 SWAP1 POP JUMP JUMPDEST PUSH0 PUSH1 0x20 DUP3 ADD SWAP1 POP DUP2 DUP2 SUB PUSH0 DUP4 ADD MSTORE PUSH2 0x2597 DUP2 PUSH2 0x255E JUMP JUMPDEST SWAP1 POP SWAP2 SWAP1 POP JUMP JUMPDEST PUSH32 0x546F6F2068696768202D20756E7265616C697374696320636170000000000000 PUSH0 DUP3 ADD MSTORE POP JUMP JUMPDEST PUSH0 PUSH2 0x25D2 PUSH1 0x1A DUP4 PUSH2 0x224C JUMP JUMPDEST SWAP2 POP PUSH2 0x25DD DUP3 PUSH2 0x259E JUMP JUMPDEST PUSH1 0x20 DUP3 ADD SWAP1 POP SWAP2 SWAP1 POP JUMP JUMPDEST PUSH0 PUSH1 0x20 DUP3 ADD SWAP1 POP DUP2 DUP2 SUB PUSH0 DUP4 ADD MSTORE PUSH2 0x25FF DUP2 PUSH2 0x25C6 JUMP JUMPDEST SWAP1 POP SWAP2 SWAP1 POP JUMP JUMPDEST PUSH32 0x4E6F2077696E6E696E677320746F20636C61696D000000000000000000000000 PUSH0 DUP3 ADD MSTORE POP JUMP JUMPDEST PUSH0 PUSH2 0x263A PUSH1 0x14 DUP4 PUSH2 0x224C JUMP JUMPDEST SWAP2 POP PUSH2 0x2645 DUP3 PUSH2 0x2606 JUMP JUMPDEST PUSH1 0x20 DUP3 ADD SWAP1 POP SWAP2 SWAP1 POP JUMP JUMPDEST PUSH0 PUSH1 0x20 DUP3 ADD SWAP1 POP DUP2 DUP2 SUB PUSH0 DUP4 ADD MSTORE PUSH2 0x2667 DUP2 PUSH2 0x262E JUMP JUMPDEST SWAP1 POP SWAP2 SWAP1 POP JUMP JUMPDEST PUSH0 DUP2 SWAP1 POP SWAP3 SWAP2 POP POP JUMP JUMPDEST POP JUMP JUMPDEST PUSH0 PUSH2 0x2686 PUSH0 DUP4 PUSH2 0x266E JUMP JUMPDEST SWAP2 POP PUSH2 0x2691 DUP3 PUSH2 0x2678 JUMP JUMPDEST PUSH0 DUP3 ADD SWAP1 POP SWAP2 SWAP1 POP JUMP JUMPDEST PUSH0 PUSH2 0x26A5 DUP3 PUSH2 0x267B JUMP JUMPDEST SWAP2 POP DUP2 SWAP1 POP SWAP2 SWAP1 POP JUMP JUMPDEST PUSH32 0x5072697A65207472616E73666572206661696C65640000000000000000000000 PUSH0 DUP3 ADD MSTORE POP JUMP JUMPDEST PUSH0 PUSH2 0x26E3 PUSH1 0x15 DUP4 PUSH2 0x224C JUMP JUMPDEST SWAP2 POP PUSH2 0x26EE DUP3 PUSH2 0x26AF JUMP JUMPDEST PUSH1 0x20 DUP3 ADD SWAP1 POP SWAP2 SWAP1 POP JUMP JUMPDEST PUSH0 PUSH1 0x20 DUP3 ADD SWAP1 POP DUP2 DUP2 SUB PUSH0 DUP4 ADD MSTORE PUSH2 0x2710 DUP2 PUSH2 0x26D7 JUMP JUMPDEST SWAP1 POP SWAP2 SWAP1 POP JUMP JUMPDEST PUSH2 0x2720 DUP2 PUSH2 0x2057 JUMP JUMPDEST DUP3 MSTORE POP POP JUMP JUMPDEST PUSH0 PUSH1 0x40 DUP3 ADD SWAP1 POP PUSH2 0x2739 PUSH0 DUP4 ADD DUP6 PUSH2 0x2717 JUMP JUMPDEST PUSH2 0x2746 PUSH1 0x20 DUP4 ADD DUP5 PUSH2 0x200C JUMP JUMPDEST SWAP4 SWAP3 POP POP POP JUMP JUMPDEST PUSH32 0x4D696E207469636B6574732073686F756C64206265203E3D206D696E20706172 PUSH0 DUP3 ADD MSTORE PUSH32 0x7469636970616E74730000000000000000000000000000000000000000000000 PUSH1 0x20 DUP3 ADD MSTORE POP JUMP JUMPDEST PUSH0 PUSH2 0x27A7 PUSH1 0x29 DUP4 PUSH2 0x224C JUMP JUMPDEST SWAP2 POP PUSH2 0x27B2 DUP3 PUSH2 0x274D JUMP JUMPDEST PUSH1 0x40 DUP3 ADD SWAP1 POP SWAP2 SWAP1 POP JUMP JUMPDEST PUSH0 PUSH1 0x20 DUP3 ADD SWAP1 POP DUP2 DUP2 SUB PUSH0 DUP4 ADD MSTORE PUSH2 0x27D4 DUP2 PUSH2 0x279B JUMP JUMPDEST SWAP1 POP SWAP2 SWAP1 POP JUMP JUMPDEST PUSH32 0x546F6F2068696768202D20776F756C64206E6576657220747269676765720000 PUSH0 DUP3 ADD MSTORE POP JUMP JUMPDEST PUSH0 PUSH2 0x280F PUSH1 0x1E DUP4 PUSH2 0x224C JUMP JUMPDEST SWAP2 POP PUSH2 0x281A DUP3 PUSH2 0x27DB JUMP JUMPDEST PUSH1 0x20 DUP3 ADD SWAP1 POP SWAP2 SWAP1 POP JUMP JUMPDEST PUSH0 PUSH1 0x20 DUP3 ADD SWAP1 POP DUP2 DUP2 SUB PUSH0 DUP4 ADD MSTORE PUSH2 0x283C DUP2 PUSH2 0x2803 JUMP JUMPDEST SWAP1 POP SWAP2 SWAP1 POP JUMP JUMPDEST PUSH32 0x44726177206E6F7420696E697469617465642E00000000000000000000000000 PUSH0 DUP3 ADD MSTORE POP JUMP JUMPDEST PUSH0 PUSH2 0x2877 PUSH1 0x13 DUP4 PUSH2 0x224C JUMP JUMPDEST SWAP2 POP PUSH2 0x2882 DUP3 PUSH2 0x2843 JUMP JUMPDEST PUSH1 0x20 DUP3 ADD SWAP1 POP SWAP2 SWAP1 POP JUMP JUMPDEST PUSH0 PUSH1 0x20 DUP3 ADD SWAP1 POP DUP2 DUP2 SUB PUSH0 DUP4 ADD MSTORE PUSH2 0x28A4 DUP2 PUSH2 0x286B JUMP JUMPDEST SWAP1 POP SWAP2 SWAP1 POP JUMP JUMPDEST PUSH32 0x54617267657420626C6F636B206861736E27742061727269766564207965742E PUSH0 DUP3 ADD MSTORE POP JUMP JUMPDEST PUSH0 PUSH2 0x28DF PUSH1 0x20 DUP4 PUSH2 0x224C JUMP JUMPDEST SWAP2 POP PUSH2 0x28EA DUP3 PUSH2 0x28AB JUMP JUMPDEST PUSH1 0x20 DUP3 ADD SWAP1 POP SWAP2 SWAP1 POP JUMP JUMPDEST PUSH0 PUSH1 0x20 DUP3 ADD SWAP1 POP DUP2 DUP2 SUB PUSH0 DUP4 ADD MSTORE PUSH2 0x290C DUP2 PUSH2 0x28D3 JUMP JUMPDEST SWAP1 POP SWAP2 SWAP1 POP JUMP JUMPDEST PUSH32 0x4C6F747465727920616C726561647920656E6465642E00000000000000000000 PUSH0 DUP3 ADD MSTORE POP JUMP JUMPDEST PUSH0 PUSH2 0x2947 PUSH1 0x16 DUP4 PUSH2 0x224C JUMP JUMPDEST SWAP2 POP PUSH2 0x2952 DUP3 PUSH2 0x2913 JUMP JUMPDEST PUSH1 0x20 DUP3 ADD SWAP1 POP SWAP2 SWAP1 POP JUMP JUMPDEST PUSH0 PUSH1 0x20 DUP3 ADD SWAP1 POP DUP2 DUP2 SUB PUSH0 DUP4 ADD MSTORE PUSH2 0x2974 DUP2 PUSH2 0x293B JUMP JUMPDEST SWAP1 POP SWAP2 SWAP1 POP JUMP JUMPDEST PUSH32 0x426C6F636B206861736820756E617661696C61626C65206F7220746F6F206F6C PUSH0 DUP3 ADD MSTORE PUSH32 0x642E000000000000000000000000000000000000000000000000000000000000 PUSH1 0x20 DUP3 ADD MSTORE POP JUMP JUMPDEST PUSH0 PUSH2 0x29D5 PUSH1 0x22 DUP4 PUSH2 0x224C JUMP JUMPDEST SWAP2 POP PUSH2 0x29E0 DUP3 PUSH2 0x297B JUMP JUMPDEST PUSH1 0x40 DUP3 ADD SWAP1 POP SWAP2 SWAP1 POP JUMP JUMPDEST PUSH0 PUSH1 0x20 DUP3 ADD SWAP1 POP DUP2 DUP2 SUB PUSH0 DUP4 ADD MSTORE PUSH2 0x2A02 DUP2 PUSH2 0x29C9 JUMP JUMPDEST SWAP1 POP SWAP2 SWAP1 POP JUMP JUMPDEST PUSH0 DUP2 SWAP1 POP SWAP2 SWAP1 POP JUMP JUMPDEST PUSH0 DUP2 SWAP1 POP SWAP2 SWAP1 POP JUMP JUMPDEST PUSH2 0x2A2C PUSH2 0x2A27 DUP3 PUSH2 0x2A09 JUMP JUMPDEST PUSH2 0x2A12 JUMP JUMPDEST DUP3 MSTORE POP POP JUMP JUMPDEST PUSH0 DUP2 PUSH1 0x60 SHL SWAP1 POP SWAP2 SWAP1 POP JUMP JUMPDEST PUSH0 PUSH2 0x2A48 DUP3 PUSH2 0x2A32 JUMP JUMPDEST SWAP1 POP SWAP2 SWAP1 POP JUMP JUMPDEST PUSH0 PUSH2 0x2A59 DUP3 PUSH2 0x2A3E JUMP JUMPDEST SWAP1 POP SWAP2 SWAP1 POP JUMP JUMPDEST PUSH2 0x2A71 PUSH2 0x2A6C DUP3 PUSH2 0x2057 JUMP JUMPDEST PUSH2 0x2A4F JUMP JUMPDEST DUP3 MSTORE POP POP JUMP JUMPDEST PUSH0 PUSH2 0x2A82 DUP3 DUP6 PUSH2 0x2A1B JUMP JUMPDEST PUSH1 0x20 DUP3 ADD SWAP2 POP PUSH2 0x2A92 DUP3 DUP5 PUSH2 0x2A60 JUMP JUMPDEST PUSH1 0x14 DUP3 ADD SWAP2 POP DUP2 SWAP1 POP SWAP4 SWAP3 POP POP POP JUMP JUMPDEST PUSH0 DUP2 SWAP1 POP SWAP2 SWAP1 POP JUMP JUMPDEST PUSH2 0x2ABC PUSH2 0x2AB7 DUP3 PUSH2 0x2003 JUMP JUMPDEST PUSH2 0x2AA2 JUMP JUMPDEST DUP3 MSTORE POP POP JUMP JUMPDEST PUSH0 PUSH2 0x2ACD DUP3 DUP6 PUSH2 0x2AAB JUMP JUMPDEST PUSH1 0x20 DUP3 ADD SWAP2 POP PUSH2 0x2ADD DUP3 DUP5 PUSH2 0x2AAB JUMP JUMPDEST PUSH1 0x20 DUP3 ADD SWAP2 POP DUP2 SWAP1 POP SWAP4 SWAP3 POP POP POP JUMP JUMPDEST PUSH32 0x4E487B7100000000000000000000000000000000000000000000000000000000 PUSH0 MSTORE PUSH1 0x12 PUSH1 0x4 MSTORE PUSH1 0x24 PUSH0 REVERT JUMPDEST PUSH0 PUSH2 0x2B24 DUP3 PUSH2 0x2003 JUMP JUMPDEST SWAP2 POP PUSH2 0x2B2F DUP4 PUSH2 0x2003 JUMP JUMPDEST SWAP3 POP DUP3 PUSH2 0x2B3F JUMPI PUSH2 0x2B3E PUSH2 0x2AED JUMP JUMPDEST JUMPDEST DUP3 DUP3 MOD SWAP1 POP SWAP3 SWAP2 POP POP JUMP JUMPDEST PUSH32 0x4E487B7100000000000000000000000000000000000000000000000000000000 PUSH0 MSTORE PUSH1 0x32 PUSH1 0x4 MSTORE PUSH1 0x24 PUSH0 REVERT JUMPDEST PUSH32 0x4E487B7100000000000000000000000000000000000000000000000000000000 PUSH0 MSTORE PUSH1 0x41 PUSH1 0x4 MSTORE PUSH1 0x24 PUSH0 REVERT JUMPDEST PUSH0 PUSH8 0xFFFFFFFFFFFFFFFF DUP3 AND SWAP1 POP SWAP2 SWAP1 POP JUMP JUMPDEST PUSH2 0x2BC0 DUP2 PUSH2 0x2BA4 JUMP JUMPDEST DUP3 MSTORE POP POP JUMP JUMPDEST PUSH0 PUSH1 0x40 DUP3 ADD SWAP1 POP PUSH2 0x2BD9 PUSH0 DUP4 ADD DUP6 PUSH2 0x2717 JUMP JUMPDEST PUSH2 0x2BE6 PUSH1 0x20 DUP4 ADD DUP5 PUSH2 0x2BB7 JUMP JUMPDEST SWAP4 SWAP3 POP POP POP JUMP JUMPDEST PUSH32 0x43616E6E6F7420627579207469636B65747320647572696E6720616374697665 PUSH0 DUP3 ADD MSTORE PUSH32 0x2064726177000000000000000000000000000000000000000000000000000000 PUSH1 0x20 DUP3 ADD MSTORE POP JUMP JUMPDEST PUSH0 PUSH2 0x2C47 PUSH1 0x25 DUP4 PUSH2 0x224C JUMP JUMPDEST SWAP2 POP PUSH2 0x2C52 DUP3 PUSH2 0x2BED JUMP JUMPDEST PUSH1 0x40 DUP3 ADD SWAP1 POP SWAP2 SWAP1 POP JUMP JUMPDEST PUSH0 PUSH1 0x20 DUP3 ADD SWAP1 POP DUP2 DUP2 SUB PUSH0 DUP4 ADD MSTORE PUSH2 0x2C74 DUP2 PUSH2 0x2C3B JUMP JUMPDEST SWAP1 POP SWAP2 SWAP1 POP JUMP JUMPDEST PUSH32 0x57726F6E6720616D6F756E74206F6620657468657220746F206A6F696E2E2050 PUSH0 DUP3 ADD MSTORE PUSH32 0x6C6561736520706179206174206C6561737420302E3031352065746865722E20 PUSH1 0x20 DUP3 ADD MSTORE PUSH32 0x416E79206D6F72652077696C6C20626520636F6E736964657265642061207469 PUSH1 0x40 DUP3 ADD MSTORE PUSH32 0x702E000000000000000000000000000000000000000000000000000000000000 PUSH1 0x60 DUP3 ADD MSTORE POP JUMP JUMPDEST PUSH0 PUSH2 0x2D21 PUSH1 0x62 DUP4 PUSH2 0x224C JUMP JUMPDEST SWAP2 POP PUSH2 0x2D2C DUP3 PUSH2 0x2C7B JUMP JUMPDEST PUSH1 0x80 DUP3 ADD SWAP1 POP SWAP2 SWAP1 POP JUMP JUMPDEST PUSH0 PUSH1 0x20 DUP3 ADD SWAP1 POP DUP2 DUP2 SUB PUSH0 DUP4 ADD MSTORE PUSH2 0x2D4E DUP2 PUSH2 0x2D15 JUMP JUMPDEST SWAP1 POP SWAP2 SWAP1 POP JUMP JUMPDEST PUSH0 PUSH2 0x2D5F DUP3 PUSH2 0x2003 JUMP JUMPDEST SWAP2 POP PUSH2 0x2D6A DUP4 PUSH2 0x2003 JUMP JUMPDEST SWAP3 POP DUP3 DUP3 SUB SWAP1 POP DUP2 DUP2 GT ISZERO PUSH2 0x2D82 JUMPI PUSH2 0x2D81 PUSH2 0x23E0 JUMP JUMPDEST JUMPDEST SWAP3 SWAP2 POP POP JUMP JUMPDEST PUSH32 0x4F776E657220776173206E6F742070617965642E000000000000000000000000 PUSH0 DUP3 ADD MSTORE POP JUMP JUMPDEST PUSH0 PUSH2 0x2DBC PUSH1 0x14 DUP4 PUSH2 0x224C JUMP JUMPDEST SWAP2 POP PUSH2 0x2DC7 DUP3 PUSH2 0x2D88 JUMP JUMPDEST PUSH1 0x20 DUP3 ADD SWAP1 POP SWAP2 SWAP1 POP JUMP JUMPDEST PUSH0 PUSH1 0x20 DUP3 ADD SWAP1 POP DUP2 DUP2 SUB PUSH0 DUP4 ADD MSTORE PUSH2 0x2DE9 DUP2 PUSH2 0x2DB0 JUMP JUMPDEST SWAP1 POP SWAP2 SWAP1 POP JUMP JUMPDEST PUSH0 PUSH2 0x2DFA DUP3 PUSH2 0x20BD JUMP JUMPDEST SWAP2 POP PUSH2 0x2E05 DUP4 PUSH2 0x20BD JUMP JUMPDEST SWAP3 POP DUP3 DUP3 ADD SWAP1 POP PUSH2 0xFFFF DUP2 GT ISZERO PUSH2 0x2E1F JUMPI PUSH2 0x2E1E PUSH2 0x23E0 JUMP JUMPDEST JUMPDEST SWAP3 SWAP2 POP POP JUMP JUMPDEST PUSH32 0x6A6F696E65640000000000000000000000000000000000000000000000000000 PUSH0 DUP3 ADD MSTORE POP JUMP JUMPDEST PUSH0 PUSH2 0x2E59 PUSH1 0x6 DUP4 PUSH2 0x224C JUMP JUMPDEST SWAP2 POP PUSH2 0x2E64 DUP3 PUSH2 0x2E25 JUMP JUMPDEST PUSH1 0x20 DUP3 ADD SWAP1 POP SWAP2 SWAP1 POP JUMP JUMPDEST PUSH0 PUSH1 0x40 DUP3 ADD SWAP1 POP PUSH2 0x2E82 PUSH0 DUP4 ADD DUP5 PUSH2 0x2717 JUMP JUMPDEST DUP2 DUP2 SUB PUSH1 0x20 DUP4 ADD MSTORE PUSH2 0x2E93 DUP2 PUSH2 0x2E4D JUMP JUMPDEST SWAP1 POP SWAP3 SWAP2 POP POP JUMP JUMPDEST PUSH32 0x4E656564206174206C656173742032207061727469636970616E747300000000 PUSH0 DUP3 ADD MSTORE POP JUMP JUMPDEST PUSH0 PUSH2 0x2ECF PUSH1 0x1C DUP4 PUSH2 0x224C JUMP JUMPDEST SWAP2 POP PUSH2 0x2EDA DUP3 PUSH2 0x2E9B JUMP JUMPDEST PUSH1 0x20 DUP3 ADD SWAP1 POP SWAP2 SWAP1 POP JUMP JUMPDEST PUSH0 PUSH1 0x20 DUP3 ADD SWAP1 POP DUP2 DUP2 SUB PUSH0 DUP4 ADD MSTORE PUSH2 0x2EFC DUP2 PUSH2 0x2EC3 JUMP JUMPDEST SWAP1 POP SWAP2 SWAP1 POP JUMP JUMPDEST PUSH32 0x496E74657276616C206D757374206265206174206C6561737420312064617900 PUSH0 DUP3 ADD MSTORE POP JUMP JUMPDEST PUSH0 PUSH2 0x2F37 PUSH1 0x1F DUP4 PUSH2 0x224C JUMP JUMPDEST SWAP2 POP PUSH2 0x2F42 DUP3 PUSH2 0x2F03 JUMP JUMPDEST PUSH1 0x20 DUP3 ADD SWAP1 POP SWAP2 SWAP1 POP JUMP JUMPDEST PUSH0 PUSH1 0x20 DUP3 ADD SWAP1 POP DUP2 DUP2 SUB PUSH0 DUP4 ADD MSTORE PUSH2 0x2F64 DUP2 PUSH2 0x2F2B JUMP JUMPDEST SWAP1 POP SWAP2 SWAP1 POP JUMP JUMPDEST PUSH32 0x496E74657276616C2063616E6E6F742065786365656420333020646179730000 PUSH0 DUP3 ADD MSTORE POP JUMP JUMPDEST PUSH0 PUSH2 0x2F9F PUSH1 0x1E DUP4 PUSH2 0x224C JUMP JUMPDEST SWAP2 POP PUSH2 0x2FAA DUP3 PUSH2 0x2F6B JUMP JUMPDEST PUSH1 0x20 DUP3 ADD SWAP1 POP SWAP2 SWAP1 POP JUMP JUMPDEST PUSH0 PUSH1 0x20 DUP3 ADD SWAP1 POP DUP2 DUP2 SUB PUSH0 DUP4 ADD MSTORE PUSH2 0x2FCC DUP2 PUSH2 0x2F93 JUMP JUMPDEST SWAP1 POP SWAP2 SWAP1 POP JUMP JUMPDEST PUSH32 0x4C656E677468206D69736D617463680000000000000000000000000000000000 PUSH0 DUP3 ADD MSTORE POP JUMP JUMPDEST PUSH0 PUSH2 0x3007 PUSH1 0xF DUP4 PUSH2 0x224C JUMP JUMPDEST SWAP2 POP PUSH2 0x3012 DUP3 PUSH2 0x2FD3 JUMP JUMPDEST PUSH1 0x20 DUP3 ADD SWAP1 POP SWAP2 SWAP1 POP JUMP JUMPDEST PUSH0 PUSH1 0x20 DUP3 ADD SWAP1 POP DUP2 DUP2 SUB PUSH0 DUP4 ADD MSTORE PUSH2 0x3034 DUP2 PUSH2 0x2FFB JUMP JUMPDEST SWAP1 POP SWAP2 SWAP1 POP JUMP JUMPDEST PUSH0 PUSH2 0x3045 DUP3 PUSH2 0x2003 JUMP JUMPDEST SWAP2 POP PUSH2 0x3050 DUP4 PUSH2 0x2003 JUMP JUMPDEST SWAP3 POP DUP3 PUSH2 0x3060 JUMPI PUSH2 0x305F PUSH2 0x2AED JUMP JUMPDEST JUMPDEST DUP3 DUP3 DIV SWAP1 POP SWAP3 SWAP2 POP POP JUMP JUMPDEST PUSH0 PUSH2 0x3075 DUP3 PUSH2 0x2003 JUMP JUMPDEST SWAP2 POP PUSH32 0xFFFFFFFFFFFFFFFFFFFFFFFFFFFFFFFFFFFFFFFFFFFFFFFFFFFFFFFFFFFFFFFF DUP3 SUB PUSH2 0x30A7 JUMPI PUSH2 0x30A6 PUSH2 0x23E0 JUMP JUMPDEST JUMPDEST PUSH1 0x1 DUP3 ADD SWAP1 POP SWAP2 SWAP1 POP JUMP JUMPDEST PUSH0 PUSH1 0xFF DUP3 AND SWAP1 POP SWAP2 SWAP1 POP JUMP JUMPDEST PUSH2 0x30C7 DUP2 PUSH2 0x30B2 JUMP JUMPDEST DUP2 EQ PUSH2 0x30D1 JUMPI PUSH0 PUSH0 REVERT JUMPDEST POP JUMP JUMPDEST PUSH0 DUP2 CALLDATALOAD SWAP1 POP PUSH2 0x30E2 DUP2 PUSH2 0x30BE JUMP JUMPDEST SWAP3 SWAP2 POP POP JUMP JUMPDEST PUSH0 PUSH1 0x20 DUP3 DUP5 SUB SLT ISZERO PUSH2 0x30FD JUMPI PUSH2 0x30FC PUSH2 0x2034 JUMP JUMPDEST JUMPDEST PUSH0 PUSH2 0x310A DUP5 DUP3 DUP6 ADD PUSH2 0x30D4 JUMP JUMPDEST SWAP2 POP POP SWAP3 SWAP2 POP POP JUMP JUMPDEST PUSH32 0x4F7574206F662072616E67650000000000000000000000000000000000000000 PUSH0 DUP3 ADD MSTORE POP JUMP JUMPDEST PUSH0 PUSH2 0x3147 PUSH1 0xC DUP4 PUSH2 0x224C JUMP JUMPDEST SWAP2 POP PUSH2 0x3152 DUP3 PUSH2 0x3113 JUMP JUMPDEST PUSH1 0x20 DUP3 ADD SWAP1 POP SWAP2 SWAP1 POP JUMP JUMPDEST PUSH0 PUSH1 0x20 DUP3 ADD SWAP1 POP DUP2 DUP2 SUB PUSH0 DUP4 ADD MSTORE PUSH2 0x3174 DUP2 PUSH2 0x313B JUMP JUMPDEST SWAP1 POP SWAP2 SWAP1 POP JUMP JUMPDEST PUSH32 0x4475706C696361746520696E207469636B657400000000000000000000000000 PUSH0 DUP3 ADD MSTORE POP JUMP JUMPDEST PUSH0 PUSH2 0x31AF PUSH1 0x13 DUP4 PUSH2 0x224C JUMP JUMPDEST SWAP2 POP PUSH2 0x31BA DUP3 PUSH2 0x317B JUMP JUMPDEST PUSH1 0x20 DUP3 ADD SWAP1 POP SWAP2 SWAP1 POP JUMP JUMPDEST PUSH0 PUSH1 0x20 DUP3 ADD SWAP1 POP DUP2 DUP2 SUB PUSH0 DUP4 ADD MSTORE PUSH2 0x31DC DUP2 PUSH2 0x31A3 JUMP JUMPDEST SWAP1 POP SWAP2 SWAP1 POP JUMP INVALID LOG2 PUSH5 0x6970667358 0x22 SLT KECCAK256 ISZERO SWAP13 0xCF 0xBD PUSH23 0x71415F12DDD02DBFDAA2302ACA50061257BAA108472F2A SAR PUSH21 0xF3E764736F6C634300081F00330000000000000000 "
				},
				"gasEstimates": {
					"creation": {
						"codeDepositCost": "2565000",
						"executionCost": "infinite",
						"totalCost": "infinite"
					},
					"external": {
						"buyTicket(uint8[5])": "infinite",
						"claimPrize()": "infinite",
						"claimableWinnings(address)": "2913",
						"drawBlockNumber()": "2536",
						"drawInitiated()": "2599",
						"drawInterval()": "2492",
						"ended()": "2541",
						"findWinner()": "infinite",
						"getParticipantStatus(address)": "2965",
						"host()": "2618",
						"lastDrawTime()": "2537",
						"maxTicketsPerDraw()": "2605",
						"minParticipants()": "2511",
						"minTicketsSold()": "2539",
						"participantsToTickets(address)": "5248",
						"prizePool()": "2492",
						"setDrawInterval(uint256)": "24868",
						"setMaxTicketsPerDraw(uint16)": "29172",
						"setMinParticipants(uint16)": "26972",
						"setMinTicketsSold(uint16)": "29187",
						"startLottery()": "infinite",
						"ticketCost()": "2493"
					},
					"internal": {
						"validateTicketNumbers(uint8[5] calldata)": "infinite"
					}
				},
				"methodIdentifiers": {
					"buyTicket(uint8[5])": "cc957f28",
					"claimPrize()": "70740ac9",
					"claimableWinnings(address)": "76dd463d",
					"drawBlockNumber()": "c5150950",
					"drawInitiated()": "87bc3996",
					"drawInterval()": "bc06c4cc",
					"ended()": "12fa6feb",
					"findWinner()": "8e71decb",
					"getParticipantStatus(address)": "278a5ff2",
					"host()": "f437bc59",
					"lastDrawTime()": "5cbbd635",
					"maxTicketsPerDraw()": "ec8f0b5b",
					"minParticipants()": "a54cd4f7",
					"minTicketsSold()": "c59bc765",
					"participantsToTickets(address)": "bff45ed9",
					"prizePool()": "719ce73e",
					"setDrawInterval(uint256)": "f5a9d5bb",
					"setMaxTicketsPerDraw(uint16)": "63ed426d",
					"setMinParticipants(uint16)": "dabc4000",
					"setMinTicketsSold(uint16)": "7535d791",
					"startLottery()": "160344e2",
					"ticketCost()": "1eecd934"
				}
			},
			"storageLayout": {
				"storage": [
					{
						"astId": 157,
						"contract": "contract/Lottery.sol:Lottery",
						"label": "participantsToTickets",
						"offset": 0,
						"slot": "0",
						"type": "t_mapping(t_address,t_struct(Player)973_storage)"
					},
					{
						"astId": 160,
						"contract": "contract/Lottery.sol:Lottery",
						"label": "totalTickets",
						"offset": 0,
						"slot": "1",
						"type": "t_uint16"
					},
					{
						"astId": 163,
						"contract": "contract/Lottery.sol:Lottery",
						"label": "participantAddresses",
						"offset": 0,
						"slot": "2",
						"type": "t_array(t_address)dyn_storage"
					},
					{
						"astId": 165,
						"contract": "contract/Lottery.sol:Lottery",
						"label": "host",
						"offset": 0,
						"slot": "3",
						"type": "t_address_payable"
					},
					{
						"astId": 168,
						"contract": "contract/Lottery.sol:Lottery",
						"label": "prizePool",
						"offset": 0,
						"slot": "4",
						"type": "t_uint256"
					},
					{
						"astId": 171,
						"contract": "contract/Lottery.sol:Lottery",
						"label": "hostCut",
						"offset": 0,
						"slot": "5",
						"type": "t_uint256"
					},
					{
						"astId": 174,
						"contract": "contract/Lottery.sol:Lottery",
						"label": "ticketCost",
						"offset": 0,
						"slot": "6",
						"type": "t_uint256"
					},
					{
						"astId": 182,
						"contract": "contract/Lottery.sol:Lottery",
						"label": "hostTicketFee",
						"offset": 0,
						"slot": "7",
						"type": "t_uint256"
					},
					{
						"astId": 184,
						"contract": "contract/Lottery.sol:Lottery",
						"label": "drawBlockNumber",
						"offset": 0,
						"slot": "8",
						"type": "t_uint256"
					},
					{
						"astId": 187,
						"contract": "contract/Lottery.sol:Lottery",
						"label": "drawInitiated",
						"offset": 0,
						"slot": "9",
						"type": "t_bool"
					},
					{
						"astId": 190,
						"contract": "contract/Lottery.sol:Lottery",
						"label": "ended",
						"offset": 1,
						"slot": "9",
						"type": "t_bool"
					},
					{
						"astId": 193,
						"contract": "contract/Lottery.sol:Lottery",
						"label": "lastDrawTime",
						"offset": 0,
						"slot": "10",
						"type": "t_uint256"
					},
					{
						"astId": 197,
						"contract": "contract/Lottery.sol:Lottery",
						"label": "claimableWinnings",
						"offset": 0,
						"slot": "11",
						"type": "t_mapping(t_address,t_uint256)"
					},
					{
						"astId": 199,
						"contract": "contract/Lottery.sol:Lottery",
						"label": "drawInterval",
						"offset": 0,
						"slot": "12",
						"type": "t_uint256"
					},
					{
						"astId": 201,
						"contract": "contract/Lottery.sol:Lottery",
						"label": "minParticipants",
						"offset": 0,
						"slot": "13",
						"type": "t_uint16"
					},
					{
						"astId": 203,
						"contract": "contract/Lottery.sol:Lottery",
						"label": "minTicketsSold",
						"offset": 2,
						"slot": "13",
						"type": "t_uint16"
					},
					{
						"astId": 205,
						"contract": "contract/Lottery.sol:Lottery",
						"label": "maxTicketsPerDraw",
						"offset": 4,
						"slot": "13",
						"type": "t_uint16"
					}
				],
				"types": {
					"t_address": {
						"encoding": "inplace",
						"label": "address",
						"numberOfBytes": "20"
					},
					"t_address_payable": {
						"encoding": "inplace",
						"label": "address payable",
						"numberOfBytes": "20"
					},
					"t_array(t_address)dyn_storage": {
						"base": "t_address",
						"encoding": "dynamic_array",
						"label": "address[]",
						"numberOfBytes": "32"
					},
					"t_array(t_array(t_uint8)5_storage)dyn_storage": {
						"base": "t_array(t_uint8)5_storage",
						"encoding": "dynamic_array",
						"label": "uint8[5][]",
						"numberOfBytes": "32"
					},
					"t_array(t_uint8)5_storage": {
						"base": "t_uint8",
						"encoding": "inplace",
						"label": "uint8[5]",
						"numberOfBytes": "32"
					},
					"t_bool": {
						"encoding": "inplace",
						"label": "bool",
						"numberOfBytes": "1"
					},
					"t_mapping(t_address,t_struct(Player)973_storage)": {
						"encoding": "mapping",
						"key": "t_address",
						"label": "mapping(address => struct Player)",
						"numberOfBytes": "32",
						"value": "t_struct(Player)973_storage"
					},
					"t_mapping(t_address,t_uint256)": {
						"encoding": "mapping",
						"key": "t_address",
						"label": "mapping(address => uint256)",
						"numberOfBytes": "32",
						"value": "t_uint256"
					},
					"t_struct(Player)973_storage": {
						"encoding": "inplace",
						"label": "struct Player",
						"members": [
							{
								"astId": 968,
								"contract": "contract/Lottery.sol:Lottery",
								"label": "ticketNumbers",
								"offset": 0,
								"slot": "0",
								"type": "t_array(t_array(t_uint8)5_storage)dyn_storage"
							},
							{
								"astId": 970,
								"contract": "contract/Lottery.sol:Lottery",
								"label": "hasJoined",
								"offset": 0,
								"slot": "1",
								"type": "t_bool"
							},
							{
								"astId": 972,
								"contract": "contract/Lottery.sol:Lottery",
								"label": "numberOfTickets",
								"offset": 1,
								"slot": "1",
								"type": "t_uint16"
							}
						],
						"numberOfBytes": "64"
					},
					"t_uint16": {
						"encoding": "inplace",
						"label": "uint16",
						"numberOfBytes": "2"
					},
					"t_uint256": {
						"encoding": "inplace",
						"label": "uint256",
						"numberOfBytes": "32"
					},
					"t_uint8": {
						"encoding": "inplace",
						"label": "uint8",
						"numberOfBytes": "1"
					}
				}
			},
			"userdoc": {
				"events": {
					"LotteryWinner(address,uint64)": {
						"notice": "Emitted when a winner is selected"
					},
					"ParticipantJoined(address,string)": {
						"notice": "Emitted when a participant joins the lottery"
					},
					"PrizeClaimed(address,uint256)": {
						"notice": "Emitted when a winner claims their prize"
					}
				},
				"kind": "user",
				"methods": {
					"buyTicket(uint8[5])": {
						"notice": "Buy a lottery ticket with chosen numbers"
					},
					"claimPrize()": {
						"notice": "Claim your prize winnings"
					},
					"claimableWinnings(address)": {
						"notice": "Get the claimable winnings for an address"
					},
					"drawBlockNumber()": {
						"notice": "Get the block number for randomness"
					},
					"drawInitiated()": {
						"notice": "Check if a draw has been initiated"
					},
					"drawInterval()": {
						"notice": "Get the draw interval"
					},
					"findWinner()": {
						"notice": "Finalize the lottery and select a winner"
					},
					"getParticipantStatus(address)": {
						"notice": "Checks if a user is signed up for the lottery. Refactored from the original loop approach, which iterated over the entire participant array and would become inefficient as the number of participants grew. Now uses the `hasJoined` mapping, which provides a direct lookup for constant-time access regardless of how many people are in the lottery."
					},
					"host()": {
						"notice": "Get the contract host address"
					},
					"lastDrawTime()": {
						"notice": "Get the timestamp of the last draw"
					},
					"maxTicketsPerDraw()": {
						"notice": "Get maximum tickets per draw"
					},
					"minParticipants()": {
						"notice": "Get minimum participants required"
					},
					"minTicketsSold()": {
						"notice": "Get minimum tickets required"
					},
					"prizePool()": {
						"notice": "Get the current prize pool"
					},
					"setDrawInterval(uint256)": {
						"notice": "Update the draw interval (time between draws)"
					},
					"setMaxTicketsPerDraw(uint16)": {
						"notice": "Update the maximum tickets per draw (triggers early draw)"
					},
					"setMinParticipants(uint16)": {
						"notice": "Update the minimum number of participants required"
					},
					"setMinTicketsSold(uint16)": {
						"notice": "Update the minimum number of tickets required"
					},
					"startLottery()": {
						"notice": "Start the lottery draw process"
					},
					"ticketCost()": {
						"notice": "Get the ticket cost"
					}
				},
				"notice": "Lottery with immutability.",
				"version": 1
			}
		}
	}
}