{
	"contract/Lottery.sol": {
		"Lottery": {
			"abi": [
				{
					"inputs": [
						{
							"internalType": "uint256",
							"name": "min_",
							"type": "uint256"
						},
						{
							"internalType": "uint256",
							"name": "max_",
							"type": "uint256"
						}
					],
					"stateMutability": "nonpayable",
					"type": "constructor"
				},
				{
					"anonymous": false,
					"inputs": [
						{
							"indexed": false,
							"internalType": "uint256",
							"name": "num",
							"type": "uint256"
						}
					],
					"name": "number",
					"type": "event"
				},
				{
					"anonymous": false,
					"inputs": [
						{
							"indexed": false,
							"internalType": "address",
							"name": "prtcpt",
							"type": "address"
						},
						{
							"indexed": false,
							"internalType": "string",
							"name": "alert",
							"type": "string"
						}
					],
					"name": "participantJoined",
					"type": "event"
				},
				{
					"inputs": [],
					"name": "host",
					"outputs": [
						{
							"internalType": "address payable",
							"name": "",
							"type": "address"
						}
					],
					"stateMutability": "view",
					"type": "function"
				},
				{
					"inputs": [],
					"name": "joinLottery",
					"outputs": [],
					"stateMutability": "payable",
					"type": "function"
				},
				{
					"inputs": [],
					"name": "max",
					"outputs": [
						{
							"internalType": "uint256",
							"name": "",
							"type": "uint256"
						}
					],
					"stateMutability": "view",
					"type": "function"
				},
				{
					"inputs": [],
					"name": "min",
					"outputs": [
						{
							"internalType": "uint256",
							"name": "",
							"type": "uint256"
						}
					],
					"stateMutability": "view",
					"type": "function"
				},
				{
					"inputs": [],
					"name": "monetaryPrize",
					"outputs": [
						{
							"internalType": "uint64",
							"name": "",
							"type": "uint64"
						}
					],
					"stateMutability": "view",
					"type": "function"
				},
				{
					"inputs": [],
					"name": "randomResult",
					"outputs": [
						{
							"internalType": "uint256",
							"name": "",
							"type": "uint256"
						}
					],
					"stateMutability": "view",
					"type": "function"
				},
				{
					"inputs": [],
					"name": "ticketCost",
					"outputs": [
						{
							"internalType": "uint64",
							"name": "",
							"type": "uint64"
						}
					],
					"stateMutability": "view",
					"type": "function"
				}
			],
			"devdoc": {
				"kind": "dev",
				"methods": {},
				"version": 1
			},
			"evm": {
				"assembly": "    /* \"contract/Lottery.sol\":154:1871  contract Lottery {... */\n  mstore(0x40, 0x80)\n    /* \"contract/Lottery.sol\":367:378  0.015 ether */\n  0x354a6ba7a18000\n    /* \"contract/Lottery.sol\":340:378  uint64 public ticketCost = 0.015 ether */\n  0x01\n  exp(0x0100, 0x14)\n  dup2\n  sload\n  dup2\n  0xffffffffffffffff\n  mul\n  not\n  and\n  swap1\n  dup4\n  0xffffffffffffffff\n  and\n  mul\n  or\n  swap1\n  sstore\n  pop\n    /* \"contract/Lottery.sol\":621:791  constructor(uint256 min_, uint256 max_) {... */\n  callvalue\n  dup1\n  iszero\n  tag_1\n  jumpi\n  revert(0x00, 0x00)\ntag_1:\n  pop\n  mload(0x40)\n  sub(codesize, bytecodeSize)\n  dup1\n  bytecodeSize\n  dup4\n  codecopy\n  dup2\n  dup2\n  add\n  0x40\n  mstore\n  dup2\n  add\n  swap1\n  tag_2\n  swap2\n  swap1\n  tag_3\n  jump\t// in\ntag_2:\n    /* \"contract/Lottery.sol\":730:740  msg.sender */\n  caller\n    /* \"contract/Lottery.sol\":715:719  host */\n  0x01\n  0x00\n    /* \"contract/Lottery.sol\":715:741  host = payable(msg.sender) */\n  0x0100\n  exp\n  dup2\n  sload\n  dup2\n  0xffffffffffffffffffffffffffffffffffffffff\n  mul\n  not\n  and\n  swap1\n  dup4\n  0xffffffffffffffffffffffffffffffffffffffff\n  and\n  mul\n  or\n  swap1\n  sstore\n  pop\n    /* \"contract/Lottery.sol\":758:762  min_ */\n  dup2\n    /* \"contract/Lottery.sol\":752:755  min */\n  0x05\n    /* \"contract/Lottery.sol\":752:762  min = min_ */\n  dup2\n  swap1\n  sstore\n  pop\n    /* \"contract/Lottery.sol\":779:783  max_ */\n  dup1\n    /* \"contract/Lottery.sol\":773:776  max */\n  0x06\n    /* \"contract/Lottery.sol\":773:783  max = max_ */\n  dup2\n  swap1\n  sstore\n  pop\n    /* \"contract/Lottery.sol\":621:791  constructor(uint256 min_, uint256 max_) {... */\n  pop\n  pop\n    /* \"contract/Lottery.sol\":154:1871  contract Lottery {... */\n  jump(tag_6)\n    /* \"#utility.yul\":88:205   */\ntag_8:\n    /* \"#utility.yul\":197:198   */\n  0x00\n    /* \"#utility.yul\":194:195   */\n  0x00\n    /* \"#utility.yul\":187:199   */\n  revert\n    /* \"#utility.yul\":334:411   */\ntag_10:\n    /* \"#utility.yul\":371:378   */\n  0x00\n    /* \"#utility.yul\":400:405   */\n  dup2\n    /* \"#utility.yul\":389:405   */\n  swap1\n  pop\n    /* \"#utility.yul\":334:411   */\n  swap2\n  swap1\n  pop\n  jump\t// out\n    /* \"#utility.yul\":417:539   */\ntag_11:\n    /* \"#utility.yul\":490:514   */\n  tag_19\n    /* \"#utility.yul\":508:513   */\n  dup2\n    /* \"#utility.yul\":490:514   */\n  tag_10\n  jump\t// in\ntag_19:\n    /* \"#utility.yul\":483:488   */\n  dup2\n    /* \"#utility.yul\":480:515   */\n  eq\n    /* \"#utility.yul\":470:533   */\n  tag_20\n  jumpi\n    /* \"#utility.yul\":529:530   */\n  0x00\n    /* \"#utility.yul\":526:527   */\n  0x00\n    /* \"#utility.yul\":519:531   */\n  revert\n    /* \"#utility.yul\":470:533   */\ntag_20:\n    /* \"#utility.yul\":417:539   */\n  pop\n  jump\t// out\n    /* \"#utility.yul\":545:688   */\ntag_12:\n    /* \"#utility.yul\":602:607   */\n  0x00\n    /* \"#utility.yul\":633:639   */\n  dup2\n    /* \"#utility.yul\":627:640   */\n  mload\n    /* \"#utility.yul\":618:640   */\n  swap1\n  pop\n    /* \"#utility.yul\":649:682   */\n  tag_22\n    /* \"#utility.yul\":676:681   */\n  dup2\n    /* \"#utility.yul\":649:682   */\n  tag_11\n  jump\t// in\ntag_22:\n    /* \"#utility.yul\":545:688   */\n  swap3\n  swap2\n  pop\n  pop\n  jump\t// out\n    /* \"#utility.yul\":694:1201   */\ntag_3:\n    /* \"#utility.yul\":773:779   */\n  0x00\n    /* \"#utility.yul\":781:787   */\n  0x00\n    /* \"#utility.yul\":830:832   */\n  0x40\n    /* \"#utility.yul\":818:827   */\n  dup4\n    /* \"#utility.yul\":809:816   */\n  dup6\n    /* \"#utility.yul\":805:828   */\n  sub\n    /* \"#utility.yul\":801:833   */\n  slt\n    /* \"#utility.yul\":798:917   */\n  iszero\n  tag_24\n  jumpi\n    /* \"#utility.yul\":836:915   */\n  tag_25\n  tag_8\n  jump\t// in\ntag_25:\n    /* \"#utility.yul\":798:917   */\ntag_24:\n    /* \"#utility.yul\":956:957   */\n  0x00\n    /* \"#utility.yul\":981:1045   */\n  tag_26\n    /* \"#utility.yul\":1037:1044   */\n  dup6\n    /* \"#utility.yul\":1028:1034   */\n  dup3\n    /* \"#utility.yul\":1017:1026   */\n  dup7\n    /* \"#utility.yul\":1013:1035   */\n  add\n    /* \"#utility.yul\":981:1045   */\n  tag_12\n  jump\t// in\ntag_26:\n    /* \"#utility.yul\":971:1045   */\n  swap3\n  pop\n    /* \"#utility.yul\":927:1055   */\n  pop\n    /* \"#utility.yul\":1094:1096   */\n  0x20\n    /* \"#utility.yul\":1120:1184   */\n  tag_27\n    /* \"#utility.yul\":1176:1183   */\n  dup6\n    /* \"#utility.yul\":1167:1173   */\n  dup3\n    /* \"#utility.yul\":1156:1165   */\n  dup7\n    /* \"#utility.yul\":1152:1174   */\n  add\n    /* \"#utility.yul\":1120:1184   */\n  tag_12\n  jump\t// in\ntag_27:\n    /* \"#utility.yul\":1110:1184   */\n  swap2\n  pop\n    /* \"#utility.yul\":1065:1194   */\n  pop\n    /* \"#utility.yul\":694:1201   */\n  swap3\n  pop\n  swap3\n  swap1\n  pop\n  jump\t// out\n    /* \"contract/Lottery.sol\":154:1871  contract Lottery {... */\ntag_6:\n  dataSize(sub_0)\n  dup1\n  dataOffset(sub_0)\n  0x00\n  codecopy\n  0x00\n  return\nstop\n\nsub_0: assembly {\n        /* \"contract/Lottery.sol\":154:1871  contract Lottery {... */\n      mstore(0x40, 0x80)\n      jumpi(tag_1, lt(calldatasize, 0x04))\n      shr(0xe0, calldataload(0x00))\n      dup1\n      0x6ac5db19\n      gt\n      tag_9\n      jumpi\n      dup1\n      0x6ac5db19\n      eq\n      tag_5\n      jumpi\n      dup1\n      0x6c77f989\n      eq\n      tag_6\n      jumpi\n      dup1\n      0xf437bc59\n      eq\n      tag_7\n      jumpi\n      dup1\n      0xf8897945\n      eq\n      tag_8\n      jumpi\n      jump(tag_1)\n    tag_9:\n      dup1\n      0x1eecd934\n      eq\n      tag_2\n      jumpi\n      dup1\n      0x42619f66\n      eq\n      tag_3\n      jumpi\n      dup1\n      0x630d1833\n      eq\n      tag_4\n      jumpi\n    tag_1:\n      revert(0x00, 0x00)\n        /* \"contract/Lottery.sol\":340:378  uint64 public ticketCost = 0.015 ether */\n    tag_2:\n      callvalue\n      dup1\n      iszero\n      tag_10\n      jumpi\n      revert(0x00, 0x00)\n    tag_10:\n      pop\n      tag_11\n      tag_12\n      jump\t// in\n    tag_11:\n      mload(0x40)\n      tag_13\n      swap2\n      swap1\n      tag_14\n      jump\t// in\n    tag_13:\n      mload(0x40)\n      dup1\n      swap2\n      sub\n      swap1\n      return\n        /* \"contract/Lottery.sol\":535:562  uint256 public randomResult */\n    tag_3:\n      callvalue\n      dup1\n      iszero\n      tag_15\n      jumpi\n      revert(0x00, 0x00)\n    tag_15:\n      pop\n      tag_16\n      tag_17\n      jump\t// in\n    tag_16:\n      mload(0x40)\n      tag_18\n      swap2\n      swap1\n      tag_19\n      jump\t// in\n    tag_18:\n      mload(0x40)\n      dup1\n      swap2\n      sub\n      swap1\n      return\n        /* \"contract/Lottery.sol\":286:332  uint64 public constant monetaryPrize = 5 ether */\n    tag_4:\n      callvalue\n      dup1\n      iszero\n      tag_20\n      jumpi\n      revert(0x00, 0x00)\n    tag_20:\n      pop\n      tag_21\n      tag_22\n      jump\t// in\n    tag_21:\n      mload(0x40)\n      tag_23\n      swap2\n      swap1\n      tag_14\n      jump\t// in\n    tag_23:\n      mload(0x40)\n      dup1\n      swap2\n      sub\n      swap1\n      return\n        /* \"contract/Lottery.sol\":594:612  uint256 public max */\n    tag_5:\n      callvalue\n      dup1\n      iszero\n      tag_24\n      jumpi\n      revert(0x00, 0x00)\n    tag_24:\n      pop\n      tag_25\n      tag_26\n      jump\t// in\n    tag_25:\n      mload(0x40)\n      tag_27\n      swap2\n      swap1\n      tag_19\n      jump\t// in\n    tag_27:\n      mload(0x40)\n      dup1\n      swap2\n      sub\n      swap1\n      return\n        /* \"contract/Lottery.sol\":1049:1197  function joinLottery() public payable {... */\n    tag_6:\n      tag_28\n      tag_29\n      jump\t// in\n    tag_28:\n      stop\n        /* \"contract/Lottery.sol\":252:279  address payable public host */\n    tag_7:\n      callvalue\n      dup1\n      iszero\n      tag_30\n      jumpi\n      revert(0x00, 0x00)\n    tag_30:\n      pop\n      tag_31\n      tag_32\n      jump\t// in\n    tag_31:\n      mload(0x40)\n      tag_33\n      swap2\n      swap1\n      tag_34\n      jump\t// in\n    tag_33:\n      mload(0x40)\n      dup1\n      swap2\n      sub\n      swap1\n      return\n        /* \"contract/Lottery.sol\":569:587  uint256 public min */\n    tag_8:\n      callvalue\n      dup1\n      iszero\n      tag_35\n      jumpi\n      revert(0x00, 0x00)\n    tag_35:\n      pop\n      tag_36\n      tag_37\n      jump\t// in\n    tag_36:\n      mload(0x40)\n      tag_38\n      swap2\n      swap1\n      tag_19\n      jump\t// in\n    tag_38:\n      mload(0x40)\n      dup1\n      swap2\n      sub\n      swap1\n      return\n        /* \"contract/Lottery.sol\":340:378  uint64 public ticketCost = 0.015 ether */\n    tag_12:\n      0x01\n      0x14\n      swap1\n      sload\n      swap1\n      0x0100\n      exp\n      swap1\n      div\n      0xffffffffffffffff\n      and\n      dup2\n      jump\t// out\n        /* \"contract/Lottery.sol\":535:562  uint256 public randomResult */\n    tag_17:\n      sload(0x04)\n      dup2\n      jump\t// out\n        /* \"contract/Lottery.sol\":286:332  uint64 public constant monetaryPrize = 5 ether */\n    tag_22:\n        /* \"contract/Lottery.sol\":325:332  5 ether */\n      0x4563918244f40000\n        /* \"contract/Lottery.sol\":286:332  uint64 public constant monetaryPrize = 5 ether */\n      dup2\n      jump\t// out\n        /* \"contract/Lottery.sol\":594:612  uint256 public max */\n    tag_26:\n      sload(0x06)\n      dup2\n      jump\t// out\n        /* \"contract/Lottery.sol\":1049:1197  function joinLottery() public payable {... */\n    tag_29:\n        /* \"contract/Lottery.sol\":1119:1129  ticketCost */\n      0x01\n      0x14\n      swap1\n      sload\n      swap1\n      0x0100\n      exp\n      swap1\n      div\n      0xffffffffffffffff\n      and\n        /* \"contract/Lottery.sol\":1106:1129  msg.value == ticketCost */\n      0xffffffffffffffff\n      and\n        /* \"contract/Lottery.sol\":1106:1115  msg.value */\n      callvalue\n        /* \"contract/Lottery.sol\":1106:1129  msg.value == ticketCost */\n      eq\n        /* \"contract/Lottery.sol\":1098:1147  require(msg.value == ticketCost, \"Wrong Amount.\") */\n      tag_40\n      jumpi\n      mload(0x40)\n      0x08c379a000000000000000000000000000000000000000000000000000000000\n      dup2\n      mstore\n      0x04\n      add\n      tag_41\n      swap1\n      tag_42\n      jump\t// in\n    tag_41:\n      mload(0x40)\n      dup1\n      swap2\n      sub\n      swap1\n      revert\n    tag_40:\n        /* \"contract/Lottery.sol\":1160:1172  participants */\n      0x00\n        /* \"contract/Lottery.sol\":1178:1188  msg.sender */\n      caller\n        /* \"contract/Lottery.sol\":1160:1189  participants.push(msg.sender) */\n      swap1\n      dup1\n      0x01\n      dup2\n      sload\n      add\n      dup1\n      dup3\n      sstore\n      dup1\n      swap2\n      pop\n      pop\n      0x01\n      swap1\n      sub\n      swap1\n      0x00\n      mstore\n      keccak256(0x00, 0x20)\n      add\n      0x00\n      swap1\n      swap2\n      swap1\n      swap2\n      swap1\n      swap2\n      0x0100\n      exp\n      dup2\n      sload\n      dup2\n      0xffffffffffffffffffffffffffffffffffffffff\n      mul\n      not\n      and\n      swap1\n      dup4\n      0xffffffffffffffffffffffffffffffffffffffff\n      and\n      mul\n      or\n      swap1\n      sstore\n      pop\n        /* \"contract/Lottery.sol\":1049:1197  function joinLottery() public payable {... */\n      jump\t// out\n        /* \"contract/Lottery.sol\":252:279  address payable public host */\n    tag_32:\n      0x01\n      0x00\n      swap1\n      sload\n      swap1\n      0x0100\n      exp\n      swap1\n      div\n      0xffffffffffffffffffffffffffffffffffffffff\n      and\n      dup2\n      jump\t// out\n        /* \"contract/Lottery.sol\":569:587  uint256 public min */\n    tag_37:\n      sload(0x05)\n      dup2\n      jump\t// out\n        /* \"#utility.yul\":7:108   */\n    tag_44:\n        /* \"#utility.yul\":43:50   */\n      0x00\n        /* \"#utility.yul\":83:101   */\n      0xffffffffffffffff\n        /* \"#utility.yul\":76:81   */\n      dup3\n        /* \"#utility.yul\":72:102   */\n      and\n        /* \"#utility.yul\":61:102   */\n      swap1\n      pop\n        /* \"#utility.yul\":7:108   */\n      swap2\n      swap1\n      pop\n      jump\t// out\n        /* \"#utility.yul\":114:229   */\n    tag_45:\n        /* \"#utility.yul\":199:222   */\n      tag_57\n        /* \"#utility.yul\":216:221   */\n      dup2\n        /* \"#utility.yul\":199:222   */\n      tag_44\n      jump\t// in\n    tag_57:\n        /* \"#utility.yul\":194:197   */\n      dup3\n        /* \"#utility.yul\":187:223   */\n      mstore\n        /* \"#utility.yul\":114:229   */\n      pop\n      pop\n      jump\t// out\n        /* \"#utility.yul\":235:453   */\n    tag_14:\n        /* \"#utility.yul\":326:330   */\n      0x00\n        /* \"#utility.yul\":364:366   */\n      0x20\n        /* \"#utility.yul\":353:362   */\n      dup3\n        /* \"#utility.yul\":349:367   */\n      add\n        /* \"#utility.yul\":341:367   */\n      swap1\n      pop\n        /* \"#utility.yul\":377:446   */\n      tag_59\n        /* \"#utility.yul\":443:444   */\n      0x00\n        /* \"#utility.yul\":432:441   */\n      dup4\n        /* \"#utility.yul\":428:445   */\n      add\n        /* \"#utility.yul\":419:425   */\n      dup5\n        /* \"#utility.yul\":377:446   */\n      tag_45\n      jump\t// in\n    tag_59:\n        /* \"#utility.yul\":235:453   */\n      swap3\n      swap2\n      pop\n      pop\n      jump\t// out\n        /* \"#utility.yul\":459:536   */\n    tag_46:\n        /* \"#utility.yul\":496:503   */\n      0x00\n        /* \"#utility.yul\":525:530   */\n      dup2\n        /* \"#utility.yul\":514:530   */\n      swap1\n      pop\n        /* \"#utility.yul\":459:536   */\n      swap2\n      swap1\n      pop\n      jump\t// out\n        /* \"#utility.yul\":542:660   */\n    tag_47:\n        /* \"#utility.yul\":629:653   */\n      tag_62\n        /* \"#utility.yul\":647:652   */\n      dup2\n        /* \"#utility.yul\":629:653   */\n      tag_46\n      jump\t// in\n    tag_62:\n        /* \"#utility.yul\":624:627   */\n      dup3\n        /* \"#utility.yul\":617:654   */\n      mstore\n        /* \"#utility.yul\":542:660   */\n      pop\n      pop\n      jump\t// out\n        /* \"#utility.yul\":666:888   */\n    tag_19:\n        /* \"#utility.yul\":759:763   */\n      0x00\n        /* \"#utility.yul\":797:799   */\n      0x20\n        /* \"#utility.yul\":786:795   */\n      dup3\n        /* \"#utility.yul\":782:800   */\n      add\n        /* \"#utility.yul\":774:800   */\n      swap1\n      pop\n        /* \"#utility.yul\":810:881   */\n      tag_64\n        /* \"#utility.yul\":878:879   */\n      0x00\n        /* \"#utility.yul\":867:876   */\n      dup4\n        /* \"#utility.yul\":863:880   */\n      add\n        /* \"#utility.yul\":854:860   */\n      dup5\n        /* \"#utility.yul\":810:881   */\n      tag_47\n      jump\t// in\n    tag_64:\n        /* \"#utility.yul\":666:888   */\n      swap3\n      swap2\n      pop\n      pop\n      jump\t// out\n        /* \"#utility.yul\":894:1020   */\n    tag_48:\n        /* \"#utility.yul\":931:938   */\n      0x00\n        /* \"#utility.yul\":971:1013   */\n      0xffffffffffffffffffffffffffffffffffffffff\n        /* \"#utility.yul\":964:969   */\n      dup3\n        /* \"#utility.yul\":960:1014   */\n      and\n        /* \"#utility.yul\":949:1014   */\n      swap1\n      pop\n        /* \"#utility.yul\":894:1020   */\n      swap2\n      swap1\n      pop\n      jump\t// out\n        /* \"#utility.yul\":1026:1130   */\n    tag_49:\n        /* \"#utility.yul\":1071:1078   */\n      0x00\n        /* \"#utility.yul\":1100:1124   */\n      tag_67\n        /* \"#utility.yul\":1118:1123   */\n      dup3\n        /* \"#utility.yul\":1100:1124   */\n      tag_48\n      jump\t// in\n    tag_67:\n        /* \"#utility.yul\":1089:1124   */\n      swap1\n      pop\n        /* \"#utility.yul\":1026:1130   */\n      swap2\n      swap1\n      pop\n      jump\t// out\n        /* \"#utility.yul\":1136:1278   */\n    tag_50:\n        /* \"#utility.yul\":1239:1271   */\n      tag_69\n        /* \"#utility.yul\":1265:1270   */\n      dup2\n        /* \"#utility.yul\":1239:1271   */\n      tag_49\n      jump\t// in\n    tag_69:\n        /* \"#utility.yul\":1234:1237   */\n      dup3\n        /* \"#utility.yul\":1227:1272   */\n      mstore\n        /* \"#utility.yul\":1136:1278   */\n      pop\n      pop\n      jump\t// out\n        /* \"#utility.yul\":1284:1538   */\n    tag_34:\n        /* \"#utility.yul\":1393:1397   */\n      0x00\n        /* \"#utility.yul\":1431:1433   */\n      0x20\n        /* \"#utility.yul\":1420:1429   */\n      dup3\n        /* \"#utility.yul\":1416:1434   */\n      add\n        /* \"#utility.yul\":1408:1434   */\n      swap1\n      pop\n        /* \"#utility.yul\":1444:1531   */\n      tag_71\n        /* \"#utility.yul\":1528:1529   */\n      0x00\n        /* \"#utility.yul\":1517:1526   */\n      dup4\n        /* \"#utility.yul\":1513:1530   */\n      add\n        /* \"#utility.yul\":1504:1510   */\n      dup5\n        /* \"#utility.yul\":1444:1531   */\n      tag_50\n      jump\t// in\n    tag_71:\n        /* \"#utility.yul\":1284:1538   */\n      swap3\n      swap2\n      pop\n      pop\n      jump\t// out\n        /* \"#utility.yul\":1544:1713   */\n    tag_51:\n        /* \"#utility.yul\":1628:1639   */\n      0x00\n        /* \"#utility.yul\":1662:1668   */\n      dup3\n        /* \"#utility.yul\":1657:1660   */\n      dup3\n        /* \"#utility.yul\":1650:1669   */\n      mstore\n        /* \"#utility.yul\":1702:1706   */\n      0x20\n        /* \"#utility.yul\":1697:1700   */\n      dup3\n        /* \"#utility.yul\":1693:1707   */\n      add\n        /* \"#utility.yul\":1678:1707   */\n      swap1\n      pop\n        /* \"#utility.yul\":1544:1713   */\n      swap3\n      swap2\n      pop\n      pop\n      jump\t// out\n        /* \"#utility.yul\":1719:1882   */\n    tag_52:\n        /* \"#utility.yul\":1859:1874   */\n      0x57726f6e6720416d6f756e742e00000000000000000000000000000000000000\n        /* \"#utility.yul\":1855:1856   */\n      0x00\n        /* \"#utility.yul\":1847:1853   */\n      dup3\n        /* \"#utility.yul\":1843:1857   */\n      add\n        /* \"#utility.yul\":1836:1875   */\n      mstore\n        /* \"#utility.yul\":1719:1882   */\n      pop\n      jump\t// out\n        /* \"#utility.yul\":1888:2254   */\n    tag_53:\n        /* \"#utility.yul\":2030:2033   */\n      0x00\n        /* \"#utility.yul\":2051:2118   */\n      tag_75\n        /* \"#utility.yul\":2115:2117   */\n      0x0d\n        /* \"#utility.yul\":2110:2113   */\n      dup4\n        /* \"#utility.yul\":2051:2118   */\n      tag_51\n      jump\t// in\n    tag_75:\n        /* \"#utility.yul\":2044:2118   */\n      swap2\n      pop\n        /* \"#utility.yul\":2127:2220   */\n      tag_76\n        /* \"#utility.yul\":2216:2219   */\n      dup3\n        /* \"#utility.yul\":2127:2220   */\n      tag_52\n      jump\t// in\n    tag_76:\n        /* \"#utility.yul\":2245:2247   */\n      0x20\n        /* \"#utility.yul\":2240:2243   */\n      dup3\n        /* \"#utility.yul\":2236:2248   */\n      add\n        /* \"#utility.yul\":2229:2248   */\n      swap1\n      pop\n        /* \"#utility.yul\":1888:2254   */\n      swap2\n      swap1\n      pop\n      jump\t// out\n        /* \"#utility.yul\":2260:2679   */\n    tag_42:\n        /* \"#utility.yul\":2426:2430   */\n      0x00\n        /* \"#utility.yul\":2464:2466   */\n      0x20\n        /* \"#utility.yul\":2453:2462   */\n      dup3\n        /* \"#utility.yul\":2449:2467   */\n      add\n        /* \"#utility.yul\":2441:2467   */\n      swap1\n      pop\n        /* \"#utility.yul\":2513:2522   */\n      dup2\n        /* \"#utility.yul\":2507:2511   */\n      dup2\n        /* \"#utility.yul\":2503:2523   */\n      sub\n        /* \"#utility.yul\":2499:2500   */\n      0x00\n        /* \"#utility.yul\":2488:2497   */\n      dup4\n        /* \"#utility.yul\":2484:2501   */\n      add\n        /* \"#utility.yul\":2477:2524   */\n      mstore\n        /* \"#utility.yul\":2541:2672   */\n      tag_78\n        /* \"#utility.yul\":2667:2671   */\n      dup2\n        /* \"#utility.yul\":2541:2672   */\n      tag_53\n      jump\t// in\n    tag_78:\n        /* \"#utility.yul\":2533:2672   */\n      swap1\n      pop\n        /* \"#utility.yul\":2260:2679   */\n      swap2\n      swap1\n      pop\n      jump\t// out\n\n    auxdata: 0xa2646970667358221220d173f0a01ca3d63e17f1e41bb9c0b4f53d4a7811c699803334508fc0793c731d64736f6c634300081e0033\n}\n",
				"bytecode": {
					"linkReferences": {},
					"object": "608060405266354a6ba7a18000600160146101000a81548167ffffffffffffffff021916908367ffffffffffffffff16021790555034801561003f575f5ffd5b50604051610543380380610543833981810160405281019061006191906100ed565b3360015f6101000a81548173ffffffffffffffffffffffffffffffffffffffff021916908373ffffffffffffffffffffffffffffffffffffffff1602179055508160058190555080600681905550505061012b565b5f5ffd5b5f819050919050565b6100cc816100ba565b81146100d6575f5ffd5b50565b5f815190506100e7816100c3565b92915050565b5f5f60408385031215610103576101026100b6565b5b5f610110858286016100d9565b9250506020610121858286016100d9565b9150509250929050565b61040b806101385f395ff3fe60806040526004361061006f575f3560e01c80636ac5db191161004d5780636ac5db19146100f15780636c77f9891461011b578063f437bc5914610125578063f88979451461014f5761006f565b80631eecd9341461007357806342619f661461009d578063630d1833146100c7575b5f5ffd5b34801561007e575f5ffd5b50610087610179565b60405161009491906102bb565b60405180910390f35b3480156100a8575f5ffd5b506100b1610193565b6040516100be91906102ec565b60405180910390f35b3480156100d2575f5ffd5b506100db610199565b6040516100e891906102bb565b60405180910390f35b3480156100fc575f5ffd5b506101056101a5565b60405161011291906102ec565b60405180910390f35b6101236101ab565b005b348015610130575f5ffd5b5061013961026e565b6040516101469190610344565b60405180910390f35b34801561015a575f5ffd5b50610163610293565b60405161017091906102ec565b60405180910390f35b600160149054906101000a900467ffffffffffffffff1681565b60045481565b674563918244f4000081565b60065481565b600160149054906101000a900467ffffffffffffffff1667ffffffffffffffff16341461020d576040517f08c379a0000000000000000000000000000000000000000000000000000000008152600401610204906103b7565b60405180910390fd5b5f33908060018154018082558091505060019003905f5260205f20015f9091909190916101000a81548173ffffffffffffffffffffffffffffffffffffffff021916908373ffffffffffffffffffffffffffffffffffffffff160217905550565b60015f9054906101000a900473ffffffffffffffffffffffffffffffffffffffff1681565b60055481565b5f67ffffffffffffffff82169050919050565b6102b581610299565b82525050565b5f6020820190506102ce5f8301846102ac565b92915050565b5f819050919050565b6102e6816102d4565b82525050565b5f6020820190506102ff5f8301846102dd565b92915050565b5f73ffffffffffffffffffffffffffffffffffffffff82169050919050565b5f61032e82610305565b9050919050565b61033e81610324565b82525050565b5f6020820190506103575f830184610335565b92915050565b5f82825260208201905092915050565b7f57726f6e6720416d6f756e742e000000000000000000000000000000000000005f82015250565b5f6103a1600d8361035d565b91506103ac8261036d565b602082019050919050565b5f6020820190508181035f8301526103ce81610395565b905091905056fea2646970667358221220d173f0a01ca3d63e17f1e41bb9c0b4f53d4a7811c699803334508fc0793c731d64736f6c634300081e0033",
					"opcodes": "PUSH1 0x80 PUSH1 0x40 MSTORE PUSH7 0x354A6BA7A18000 PUSH1 0x1 PUSH1 0x14 PUSH2 0x100 EXP DUP2 SLOAD DUP2 PUSH8 0xFFFFFFFFFFFFFFFF MUL NOT AND SWAP1 DUP4 PUSH8 0xFFFFFFFFFFFFFFFF AND MUL OR SWAP1 SSTORE POP CALLVALUE DUP1 ISZERO PUSH2 0x3F JUMPI PUSH0 PUSH0 REVERT JUMPDEST POP PUSH1 0x40 MLOAD PUSH2 0x543 CODESIZE SUB DUP1 PUSH2 0x543 DUP4 CODECOPY DUP2 DUP2 ADD PUSH1 0x40 MSTORE DUP2 ADD SWAP1 PUSH2 0x61 SWAP2 SWAP1 PUSH2 0xED JUMP JUMPDEST CALLER PUSH1 0x1 PUSH0 PUSH2 0x100 EXP DUP2 SLOAD DUP2 PUSH20 0xFFFFFFFFFFFFFFFFFFFFFFFFFFFFFFFFFFFFFFFF MUL NOT AND SWAP1 DUP4 PUSH20 0xFFFFFFFFFFFFFFFFFFFFFFFFFFFFFFFFFFFFFFFF AND MUL OR SWAP1 SSTORE POP DUP2 PUSH1 0x5 DUP2 SWAP1 SSTORE POP DUP1 PUSH1 0x6 DUP2 SWAP1 SSTORE POP POP POP PUSH2 0x12B JUMP JUMPDEST PUSH0 PUSH0 REVERT JUMPDEST PUSH0 DUP2 SWAP1 POP SWAP2 SWAP1 POP JUMP JUMPDEST PUSH2 0xCC DUP2 PUSH2 0xBA JUMP JUMPDEST DUP2 EQ PUSH2 0xD6 JUMPI PUSH0 PUSH0 REVERT JUMPDEST POP JUMP JUMPDEST PUSH0 DUP2 MLOAD SWAP1 POP PUSH2 0xE7 DUP2 PUSH2 0xC3 JUMP JUMPDEST SWAP3 SWAP2 POP POP JUMP JUMPDEST PUSH0 PUSH0 PUSH1 0x40 DUP4 DUP6 SUB SLT ISZERO PUSH2 0x103 JUMPI PUSH2 0x102 PUSH2 0xB6 JUMP JUMPDEST JUMPDEST PUSH0 PUSH2 0x110 DUP6 DUP3 DUP7 ADD PUSH2 0xD9 JUMP JUMPDEST SWAP3 POP POP PUSH1 0x20 PUSH2 0x121 DUP6 DUP3 DUP7 ADD PUSH2 0xD9 JUMP JUMPDEST SWAP2 POP POP SWAP3 POP SWAP3 SWAP1 POP JUMP JUMPDEST PUSH2 0x40B DUP1 PUSH2 0x138 PUSH0 CODECOPY PUSH0 RETURN INVALID PUSH1 0x80 PUSH1 0x40 MSTORE PUSH1 0x4 CALLDATASIZE LT PUSH2 0x6F JUMPI PUSH0 CALLDATALOAD PUSH1 0xE0 SHR DUP1 PUSH4 0x6AC5DB19 GT PUSH2 0x4D JUMPI DUP1 PUSH4 0x6AC5DB19 EQ PUSH2 0xF1 JUMPI DUP1 PUSH4 0x6C77F989 EQ PUSH2 0x11B JUMPI DUP1 PUSH4 0xF437BC59 EQ PUSH2 0x125 JUMPI DUP1 PUSH4 0xF8897945 EQ PUSH2 0x14F JUMPI PUSH2 0x6F JUMP JUMPDEST DUP1 PUSH4 0x1EECD934 EQ PUSH2 0x73 JUMPI DUP1 PUSH4 0x42619F66 EQ PUSH2 0x9D JUMPI DUP1 PUSH4 0x630D1833 EQ PUSH2 0xC7 JUMPI JUMPDEST PUSH0 PUSH0 REVERT JUMPDEST CALLVALUE DUP1 ISZERO PUSH2 0x7E JUMPI PUSH0 PUSH0 REVERT JUMPDEST POP PUSH2 0x87 PUSH2 0x179 JUMP JUMPDEST PUSH1 0x40 MLOAD PUSH2 0x94 SWAP2 SWAP1 PUSH2 0x2BB JUMP JUMPDEST PUSH1 0x40 MLOAD DUP1 SWAP2 SUB SWAP1 RETURN JUMPDEST CALLVALUE DUP1 ISZERO PUSH2 0xA8 JUMPI PUSH0 PUSH0 REVERT JUMPDEST POP PUSH2 0xB1 PUSH2 0x193 JUMP JUMPDEST PUSH1 0x40 MLOAD PUSH2 0xBE SWAP2 SWAP1 PUSH2 0x2EC JUMP JUMPDEST PUSH1 0x40 MLOAD DUP1 SWAP2 SUB SWAP1 RETURN JUMPDEST CALLVALUE DUP1 ISZERO PUSH2 0xD2 JUMPI PUSH0 PUSH0 REVERT JUMPDEST POP PUSH2 0xDB PUSH2 0x199 JUMP JUMPDEST PUSH1 0x40 MLOAD PUSH2 0xE8 SWAP2 SWAP1 PUSH2 0x2BB JUMP JUMPDEST PUSH1 0x40 MLOAD DUP1 SWAP2 SUB SWAP1 RETURN JUMPDEST CALLVALUE DUP1 ISZERO PUSH2 0xFC JUMPI PUSH0 PUSH0 REVERT JUMPDEST POP PUSH2 0x105 PUSH2 0x1A5 JUMP JUMPDEST PUSH1 0x40 MLOAD PUSH2 0x112 SWAP2 SWAP1 PUSH2 0x2EC JUMP JUMPDEST PUSH1 0x40 MLOAD DUP1 SWAP2 SUB SWAP1 RETURN JUMPDEST PUSH2 0x123 PUSH2 0x1AB JUMP JUMPDEST STOP JUMPDEST CALLVALUE DUP1 ISZERO PUSH2 0x130 JUMPI PUSH0 PUSH0 REVERT JUMPDEST POP PUSH2 0x139 PUSH2 0x26E JUMP JUMPDEST PUSH1 0x40 MLOAD PUSH2 0x146 SWAP2 SWAP1 PUSH2 0x344 JUMP JUMPDEST PUSH1 0x40 MLOAD DUP1 SWAP2 SUB SWAP1 RETURN JUMPDEST CALLVALUE DUP1 ISZERO PUSH2 0x15A JUMPI PUSH0 PUSH0 REVERT JUMPDEST POP PUSH2 0x163 PUSH2 0x293 JUMP JUMPDEST PUSH1 0x40 MLOAD PUSH2 0x170 SWAP2 SWAP1 PUSH2 0x2EC JUMP JUMPDEST PUSH1 0x40 MLOAD DUP1 SWAP2 SUB SWAP1 RETURN JUMPDEST PUSH1 0x1 PUSH1 0x14 SWAP1 SLOAD SWAP1 PUSH2 0x100 EXP SWAP1 DIV PUSH8 0xFFFFFFFFFFFFFFFF AND DUP2 JUMP JUMPDEST PUSH1 0x4 SLOAD DUP2 JUMP JUMPDEST PUSH8 0x4563918244F40000 DUP2 JUMP JUMPDEST PUSH1 0x6 SLOAD DUP2 JUMP JUMPDEST PUSH1 0x1 PUSH1 0x14 SWAP1 SLOAD SWAP1 PUSH2 0x100 EXP SWAP1 DIV PUSH8 0xFFFFFFFFFFFFFFFF AND PUSH8 0xFFFFFFFFFFFFFFFF AND CALLVALUE EQ PUSH2 0x20D JUMPI PUSH1 0x40 MLOAD PUSH32 0x8C379A000000000000000000000000000000000000000000000000000000000 DUP2 MSTORE PUSH1 0x4 ADD PUSH2 0x204 SWAP1 PUSH2 0x3B7 JUMP JUMPDEST PUSH1 0x40 MLOAD DUP1 SWAP2 SUB SWAP1 REVERT JUMPDEST PUSH0 CALLER SWAP1 DUP1 PUSH1 0x1 DUP2 SLOAD ADD DUP1 DUP3 SSTORE DUP1 SWAP2 POP POP PUSH1 0x1 SWAP1 SUB SWAP1 PUSH0 MSTORE PUSH1 0x20 PUSH0 KECCAK256 ADD PUSH0 SWAP1 SWAP2 SWAP1 SWAP2 SWAP1 SWAP2 PUSH2 0x100 EXP DUP2 SLOAD DUP2 PUSH20 0xFFFFFFFFFFFFFFFFFFFFFFFFFFFFFFFFFFFFFFFF MUL NOT AND SWAP1 DUP4 PUSH20 0xFFFFFFFFFFFFFFFFFFFFFFFFFFFFFFFFFFFFFFFF AND MUL OR SWAP1 SSTORE POP JUMP JUMPDEST PUSH1 0x1 PUSH0 SWAP1 SLOAD SWAP1 PUSH2 0x100 EXP SWAP1 DIV PUSH20 0xFFFFFFFFFFFFFFFFFFFFFFFFFFFFFFFFFFFFFFFF AND DUP2 JUMP JUMPDEST PUSH1 0x5 SLOAD DUP2 JUMP JUMPDEST PUSH0 PUSH8 0xFFFFFFFFFFFFFFFF DUP3 AND SWAP1 POP SWAP2 SWAP1 POP JUMP JUMPDEST PUSH2 0x2B5 DUP2 PUSH2 0x299 JUMP JUMPDEST DUP3 MSTORE POP POP JUMP JUMPDEST PUSH0 PUSH1 0x20 DUP3 ADD SWAP1 POP PUSH2 0x2CE PUSH0 DUP4 ADD DUP5 PUSH2 0x2AC JUMP JUMPDEST SWAP3 SWAP2 POP POP JUMP JUMPDEST PUSH0 DUP2 SWAP1 POP SWAP2 SWAP1 POP JUMP JUMPDEST PUSH2 0x2E6 DUP2 PUSH2 0x2D4 JUMP JUMPDEST DUP3 MSTORE POP POP JUMP JUMPDEST PUSH0 PUSH1 0x20 DUP3 ADD SWAP1 POP PUSH2 0x2FF PUSH0 DUP4 ADD DUP5 PUSH2 0x2DD JUMP JUMPDEST SWAP3 SWAP2 POP POP JUMP JUMPDEST PUSH0 PUSH20 0xFFFFFFFFFFFFFFFFFFFFFFFFFFFFFFFFFFFFFFFF DUP3 AND SWAP1 POP SWAP2 SWAP1 POP JUMP JUMPDEST PUSH0 PUSH2 0x32E DUP3 PUSH2 0x305 JUMP JUMPDEST SWAP1 POP SWAP2 SWAP1 POP JUMP JUMPDEST PUSH2 0x33E DUP2 PUSH2 0x324 JUMP JUMPDEST DUP3 MSTORE POP POP JUMP JUMPDEST PUSH0 PUSH1 0x20 DUP3 ADD SWAP1 POP PUSH2 0x357 PUSH0 DUP4 ADD DUP5 PUSH2 0x335 JUMP JUMPDEST SWAP3 SWAP2 POP POP JUMP JUMPDEST PUSH0 DUP3 DUP3 MSTORE PUSH1 0x20 DUP3 ADD SWAP1 POP SWAP3 SWAP2 POP POP JUMP JUMPDEST PUSH32 0x57726F6E6720416D6F756E742E00000000000000000000000000000000000000 PUSH0 DUP3 ADD MSTORE POP JUMP JUMPDEST PUSH0 PUSH2 0x3A1 PUSH1 0xD DUP4 PUSH2 0x35D JUMP JUMPDEST SWAP2 POP PUSH2 0x3AC DUP3 PUSH2 0x36D JUMP JUMPDEST PUSH1 0x20 DUP3 ADD SWAP1 POP SWAP2 SWAP1 POP JUMP JUMPDEST PUSH0 PUSH1 0x20 DUP3 ADD SWAP1 POP DUP2 DUP2 SUB PUSH0 DUP4 ADD MSTORE PUSH2 0x3CE DUP2 PUSH2 0x395 JUMP JUMPDEST SWAP1 POP SWAP2 SWAP1 POP JUMP INVALID LOG2 PUSH5 0x6970667358 0x22 SLT KECCAK256 DATALOADN 0x73F0 LOG0 SHR LOG3 0xD6 RETURNDATACOPY OR CALL RETF SHL 0xB9 0xC0 0xB4 CREATE2 RETURNDATASIZE BLOBBASEFEE PUSH25 0x11C699803334508FC0793C731D64736F6C634300081E003300 "
				},
				"gasEstimates": {
					"creation": {
						"codeDepositCost": "207000",
						"executionCost": "infinite",
						"totalCost": "infinite"
					},
					"external": {
						"host()": "2552",
						"joinLottery()": "50929",
						"max()": "2425",
						"min()": "2491",
						"monetaryPrize()": "376",
						"randomResult()": "2448",
						"ticketCost()": "2518"
					},
					"internal": {
						"findWinner()": "infinite",
						"getParticipant(address)": "infinite"
					}
				},
				"methodIdentifiers": {
					"host()": "f437bc59",
					"joinLottery()": "6c77f989",
					"max()": "6ac5db19",
					"min()": "f8897945",
					"monetaryPrize()": "630d1833",
					"randomResult()": "42619f66",
					"ticketCost()": "1eecd934"
				}
			},
			"storageLayout": {
				"storage": [
					{
						"astId": 273,
						"contract": "contract/Lottery.sol:Lottery",
						"label": "participants",
						"offset": 0,
						"slot": "0",
						"type": "t_array(t_address)dyn_storage"
					},
					{
						"astId": 275,
						"contract": "contract/Lottery.sol:Lottery",
						"label": "host",
						"offset": 0,
						"slot": "1",
						"type": "t_address_payable"
					},
					{
						"astId": 281,
						"contract": "contract/Lottery.sol:Lottery",
						"label": "ticketCost",
						"offset": 20,
						"slot": "1",
						"type": "t_uint64"
					},
					{
						"astId": 293,
						"contract": "contract/Lottery.sol:Lottery",
						"label": "keyHash",
						"offset": 0,
						"slot": "2",
						"type": "t_bytes32"
					},
					{
						"astId": 295,
						"contract": "contract/Lottery.sol:Lottery",
						"label": "fee",
						"offset": 0,
						"slot": "3",
						"type": "t_uint256"
					},
					{
						"astId": 297,
						"contract": "contract/Lottery.sol:Lottery",
						"label": "randomResult",
						"offset": 0,
						"slot": "4",
						"type": "t_uint256"
					},
					{
						"astId": 299,
						"contract": "contract/Lottery.sol:Lottery",
						"label": "min",
						"offset": 0,
						"slot": "5",
						"type": "t_uint256"
					},
					{
						"astId": 301,
						"contract": "contract/Lottery.sol:Lottery",
						"label": "max",
						"offset": 0,
						"slot": "6",
						"type": "t_uint256"
					}
				],
				"types": {
					"t_address": {
						"encoding": "inplace",
						"label": "address",
						"numberOfBytes": "20"
					},
					"t_address_payable": {
						"encoding": "inplace",
						"label": "address payable",
						"numberOfBytes": "20"
					},
					"t_array(t_address)dyn_storage": {
						"base": "t_address",
						"encoding": "dynamic_array",
						"label": "address[]",
						"numberOfBytes": "32"
					},
					"t_bytes32": {
						"encoding": "inplace",
						"label": "bytes32",
						"numberOfBytes": "32"
					},
					"t_uint256": {
						"encoding": "inplace",
						"label": "uint256",
						"numberOfBytes": "32"
					},
					"t_uint64": {
						"encoding": "inplace",
						"label": "uint64",
						"numberOfBytes": "8"
					}
				}
			},
			"userdoc": {
				"kind": "user",
				"methods": {},
				"notice": "Lottery with immutability.",
				"version": 1
			}
		}
	}
}