{
	"contract/Lottery.sol": {
		"Lottery": {
			"abi": [
				{
					"inputs": [
						{
							"internalType": "uint256",
							"name": "min_",
							"type": "uint256"
						},
						{
							"internalType": "uint256",
							"name": "max_",
							"type": "uint256"
						},
						{
							"internalType": "address",
							"name": "vrfWrapper",
							"type": "address"
						}
					],
					"stateMutability": "nonpayable",
					"type": "constructor"
				},
				{
					"inputs": [
						{
							"internalType": "address",
							"name": "have",
							"type": "address"
						},
						{
							"internalType": "address",
							"name": "want",
							"type": "address"
						}
					],
					"name": "OnlyVRFWrapperCanFulfill",
					"type": "error"
				},
				{
					"anonymous": false,
					"inputs": [
						{
							"indexed": false,
							"internalType": "address",
							"name": "winner",
							"type": "address"
						},
						{
							"indexed": false,
							"internalType": "uint64",
							"name": "prize",
							"type": "uint64"
						}
					],
					"name": "lotterWinner",
					"type": "event"
				},
				{
					"anonymous": false,
					"inputs": [
						{
							"indexed": false,
							"internalType": "address",
							"name": "prtcpt",
							"type": "address"
						},
						{
							"indexed": false,
							"internalType": "string",
							"name": "alert",
							"type": "string"
						}
					],
					"name": "participantJoined",
					"type": "event"
				},
				{
					"inputs": [],
					"name": "ended",
					"outputs": [
						{
							"internalType": "bool",
							"name": "",
							"type": "bool"
						}
					],
					"stateMutability": "view",
					"type": "function"
				},
				{
					"inputs": [],
					"name": "getBalance",
					"outputs": [
						{
							"internalType": "uint256",
							"name": "",
							"type": "uint256"
						}
					],
					"stateMutability": "view",
					"type": "function"
				},
				{
					"inputs": [],
					"name": "getLinkToken",
					"outputs": [
						{
							"internalType": "contract LinkTokenInterface",
							"name": "",
							"type": "address"
						}
					],
					"stateMutability": "view",
					"type": "function"
				},
				{
					"inputs": [
						{
							"internalType": "address",
							"name": "user",
							"type": "address"
						}
					],
					"name": "getParticipantStatus",
					"outputs": [
						{
							"internalType": "bool",
							"name": "",
							"type": "bool"
						}
					],
					"stateMutability": "view",
					"type": "function"
				},
				{
					"inputs": [
						{
							"internalType": "address",
							"name": "",
							"type": "address"
						}
					],
					"name": "hasJoined",
					"outputs": [
						{
							"internalType": "bool",
							"name": "",
							"type": "bool"
						}
					],
					"stateMutability": "view",
					"type": "function"
				},
				{
					"inputs": [],
					"name": "host",
					"outputs": [
						{
							"internalType": "address payable",
							"name": "",
							"type": "address"
						}
					],
					"stateMutability": "view",
					"type": "function"
				},
				{
					"inputs": [],
					"name": "i_vrfV2PlusWrapper",
					"outputs": [
						{
							"internalType": "contract IVRFV2PlusWrapper",
							"name": "",
							"type": "address"
						}
					],
					"stateMutability": "view",
					"type": "function"
				},
				{
					"inputs": [],
					"name": "joinLottery",
					"outputs": [],
					"stateMutability": "payable",
					"type": "function"
				},
				{
					"inputs": [],
					"name": "max",
					"outputs": [
						{
							"internalType": "uint256",
							"name": "",
							"type": "uint256"
						}
					],
					"stateMutability": "view",
					"type": "function"
				},
				{
					"inputs": [],
					"name": "min",
					"outputs": [
						{
							"internalType": "uint256",
							"name": "",
							"type": "uint256"
						}
					],
					"stateMutability": "view",
					"type": "function"
				},
				{
					"inputs": [],
					"name": "monetaryPrize",
					"outputs": [
						{
							"internalType": "uint64",
							"name": "",
							"type": "uint64"
						}
					],
					"stateMutability": "view",
					"type": "function"
				},
				{
					"inputs": [],
					"name": "randomResult",
					"outputs": [
						{
							"internalType": "uint256",
							"name": "",
							"type": "uint256"
						}
					],
					"stateMutability": "view",
					"type": "function"
				},
				{
					"inputs": [
						{
							"internalType": "uint256",
							"name": "_requestId",
							"type": "uint256"
						},
						{
							"internalType": "uint256[]",
							"name": "_randomWords",
							"type": "uint256[]"
						}
					],
					"name": "rawFulfillRandomWords",
					"outputs": [],
					"stateMutability": "nonpayable",
					"type": "function"
				},
				{
					"inputs": [],
					"name": "requestId",
					"outputs": [
						{
							"internalType": "uint256",
							"name": "",
							"type": "uint256"
						}
					],
					"stateMutability": "view",
					"type": "function"
				},
				{
					"inputs": [],
					"name": "start",
					"outputs": [],
					"stateMutability": "nonpayable",
					"type": "function"
				},
				{
					"inputs": [],
					"name": "ticketCost",
					"outputs": [
						{
							"internalType": "uint64",
							"name": "",
							"type": "uint64"
						}
					],
					"stateMutability": "view",
					"type": "function"
				}
			],
			"devdoc": {
				"kind": "dev",
				"methods": {
					"getParticipantStatus(address)": {
						"params": {
							"user": "The address to check for participation."
						},
						"returns": {
							"_0": "bool Returns true if the user has joined, false otherwise."
						}
					}
				},
				"version": 1
			},
			"evm": {
				"assembly": "    /* \"contract/Lottery.sol\":254:6489  contract Lottery is VRFV2PlusWrapperConsumerBase {... */\n  mstore(0x40, 0xc0)\n    /* \"contract/Lottery.sol\":542:549  5 ether */\n  0x4563918244f40000\n    /* \"contract/Lottery.sol\":556:592  uint256 amountToSend = monetaryPrize */\n  0xffffffffffffffff\n  and\n  0x03\n  sstore\n    /* \"contract/Lottery.sol\":626:637  0.015 ether */\n  0x354a6ba7a18000\n    /* \"contract/Lottery.sol\":599:637  uint64 public ticketCost = 0.015 ether */\n  0x04\n  exp(0x0100, 0x00)\n  dup2\n  sload\n  dup2\n  0xffffffffffffffff\n  mul\n  not\n  and\n  swap1\n  dup4\n  0xffffffffffffffff\n  and\n  mul\n  or\n  swap1\n  sstore\n  pop\n    /* \"contract/Lottery.sol\":1045:1050  false */\n  0x00\n    /* \"contract/Lottery.sol\":1025:1050  bool public ended = false */\n  0x0b\n  exp(0x0100, 0x00)\n  dup2\n  sload\n  dup2\n  0xff\n  mul\n  not\n  and\n  swap1\n  dup4\n  iszero\n  iszero\n  mul\n  or\n  swap1\n  sstore\n  pop\n    /* \"contract/Lottery.sol\":1059:1324  constructor(... */\n  callvalue\n  dup1\n  iszero\n  tag_1\n  jumpi\n  revert(0x00, 0x00)\ntag_1:\n  pop\n  mload(0x40)\n  sub(codesize, bytecodeSize)\n  dup1\n  bytecodeSize\n  dup4\n  codecopy\n  dup2\n  dup2\n  add\n  0x40\n  mstore\n  dup2\n  add\n  swap1\n  tag_2\n  swap2\n  swap1\n  tag_3\n  jump\t// in\ntag_2:\n    /* \"contract/Lottery.sol\":1182:1192  vrfWrapper */\n  dup1\n    /* \"@chainlink/contracts/src/v0.8/vrf/dev/VRFV2PlusWrapperConsumerBase.sol\":1936:1970  IVRFV2PlusWrapper vrfV2PlusWrapper */\n  0x00\n    /* \"@chainlink/contracts/src/v0.8/vrf/dev/VRFV2PlusWrapperConsumerBase.sol\":1991:2008  _vrfV2PlusWrapper */\n  dup2\n    /* \"@chainlink/contracts/src/v0.8/vrf/dev/VRFV2PlusWrapperConsumerBase.sol\":1936:2009  IVRFV2PlusWrapper vrfV2PlusWrapper = IVRFV2PlusWrapper(_vrfV2PlusWrapper) */\n  swap1\n  pop\n    /* \"@chainlink/contracts/src/v0.8/vrf/dev/VRFV2PlusWrapperConsumerBase.sol\":2049:2065  vrfV2PlusWrapper */\n  dup1\n    /* \"@chainlink/contracts/src/v0.8/vrf/dev/VRFV2PlusWrapperConsumerBase.sol\":2049:2070  vrfV2PlusWrapper.link */\n  0xffffffffffffffffffffffffffffffffffffffff\n  and\n  0x1c4695f4\n    /* \"@chainlink/contracts/src/v0.8/vrf/dev/VRFV2PlusWrapperConsumerBase.sol\":2049:2072  vrfV2PlusWrapper.link() */\n  mload(0x40)\n  dup2\n  0xffffffff\n  and\n  0xe0\n  shl\n  dup2\n  mstore\n  0x04\n  add\n  0x20\n  mload(0x40)\n  dup1\n  dup4\n  sub\n  dup2\n  dup7\n  gas\n  staticcall\n  iszero\n  dup1\n  iszero\n  tag_8\n  jumpi\n  returndatacopy(0x00, 0x00, returndatasize)\n  revert(0x00, returndatasize)\ntag_8:\n  pop\n  pop\n  pop\n  pop\n  mload(0x40)\n  returndatasize\n  not(0x1f)\n  0x1f\n  dup3\n  add\n  and\n  dup3\n  add\n  dup1\n  0x40\n  mstore\n  pop\n  dup2\n  add\n  swap1\n  tag_9\n  swap2\n  swap1\n  tag_10\n  jump\t// in\ntag_9:\n    /* \"@chainlink/contracts/src/v0.8/vrf/dev/VRFV2PlusWrapperConsumerBase.sol\":2016:2073  i_linkToken = LinkTokenInterface(vrfV2PlusWrapper.link()) */\n  0xffffffffffffffffffffffffffffffffffffffff\n  and\n  0x80\n  dup2\n  0xffffffffffffffffffffffffffffffffffffffff\n  and\n  dup2\n  mstore\n  pop\n  pop\n    /* \"@chainlink/contracts/src/v0.8/vrf/dev/VRFV2PlusWrapperConsumerBase.sol\":2100:2116  vrfV2PlusWrapper */\n  dup1\n    /* \"@chainlink/contracts/src/v0.8/vrf/dev/VRFV2PlusWrapperConsumerBase.sol\":2079:2116  i_vrfV2PlusWrapper = vrfV2PlusWrapper */\n  0xffffffffffffffffffffffffffffffffffffffff\n  and\n  0xa0\n  dup2\n  0xffffffffffffffffffffffffffffffffffffffff\n  and\n  dup2\n  mstore\n  pop\n  pop\n    /* \"@chainlink/contracts/src/v0.8/vrf/dev/VRFV2PlusWrapperConsumerBase.sol\":1930:2121  {... */\n  pop\n    /* \"@chainlink/contracts/src/v0.8/vrf/dev/VRFV2PlusWrapperConsumerBase.sol\":1883:2121  constructor(... */\n  pop\n    /* \"contract/Lottery.sol\":1263:1273  msg.sender */\n  caller\n    /* \"contract/Lottery.sol\":1248:1252  host */\n  0x02\n  0x00\n    /* \"contract/Lottery.sol\":1248:1274  host = payable(msg.sender) */\n  0x0100\n  exp\n  dup2\n  sload\n  dup2\n  0xffffffffffffffffffffffffffffffffffffffff\n  mul\n  not\n  and\n  swap1\n  dup4\n  0xffffffffffffffffffffffffffffffffffffffff\n  and\n  mul\n  or\n  swap1\n  sstore\n  pop\n    /* \"contract/Lottery.sol\":1291:1295  min_ */\n  dup3\n    /* \"contract/Lottery.sol\":1285:1288  min */\n  0x09\n    /* \"contract/Lottery.sol\":1285:1295  min = min_ */\n  dup2\n  swap1\n  sstore\n  pop\n    /* \"contract/Lottery.sol\":1312:1316  max_ */\n  dup2\n    /* \"contract/Lottery.sol\":1306:1309  max */\n  0x0a\n    /* \"contract/Lottery.sol\":1306:1316  max = max_ */\n  dup2\n  swap1\n  sstore\n  pop\n    /* \"contract/Lottery.sol\":1059:1324  constructor(... */\n  pop\n  pop\n  pop\n    /* \"contract/Lottery.sol\":254:6489  contract Lottery is VRFV2PlusWrapperConsumerBase {... */\n  jump(tag_12)\n    /* \"#utility.yul\":88:205   */\ntag_14:\n    /* \"#utility.yul\":197:198   */\n  0x00\n    /* \"#utility.yul\":194:195   */\n  0x00\n    /* \"#utility.yul\":187:199   */\n  revert\n    /* \"#utility.yul\":334:411   */\ntag_16:\n    /* \"#utility.yul\":371:378   */\n  0x00\n    /* \"#utility.yul\":400:405   */\n  dup2\n    /* \"#utility.yul\":389:405   */\n  swap1\n  pop\n    /* \"#utility.yul\":334:411   */\n  swap2\n  swap1\n  pop\n  jump\t// out\n    /* \"#utility.yul\":417:539   */\ntag_17:\n    /* \"#utility.yul\":490:514   */\n  tag_29\n    /* \"#utility.yul\":508:513   */\n  dup2\n    /* \"#utility.yul\":490:514   */\n  tag_16\n  jump\t// in\ntag_29:\n    /* \"#utility.yul\":483:488   */\n  dup2\n    /* \"#utility.yul\":480:515   */\n  eq\n    /* \"#utility.yul\":470:533   */\n  tag_30\n  jumpi\n    /* \"#utility.yul\":529:530   */\n  0x00\n    /* \"#utility.yul\":526:527   */\n  0x00\n    /* \"#utility.yul\":519:531   */\n  revert\n    /* \"#utility.yul\":470:533   */\ntag_30:\n    /* \"#utility.yul\":417:539   */\n  pop\n  jump\t// out\n    /* \"#utility.yul\":545:688   */\ntag_18:\n    /* \"#utility.yul\":602:607   */\n  0x00\n    /* \"#utility.yul\":633:639   */\n  dup2\n    /* \"#utility.yul\":627:640   */\n  mload\n    /* \"#utility.yul\":618:640   */\n  swap1\n  pop\n    /* \"#utility.yul\":649:682   */\n  tag_32\n    /* \"#utility.yul\":676:681   */\n  dup2\n    /* \"#utility.yul\":649:682   */\n  tag_17\n  jump\t// in\ntag_32:\n    /* \"#utility.yul\":545:688   */\n  swap3\n  swap2\n  pop\n  pop\n  jump\t// out\n    /* \"#utility.yul\":694:820   */\ntag_19:\n    /* \"#utility.yul\":731:738   */\n  0x00\n    /* \"#utility.yul\":771:813   */\n  0xffffffffffffffffffffffffffffffffffffffff\n    /* \"#utility.yul\":764:769   */\n  dup3\n    /* \"#utility.yul\":760:814   */\n  and\n    /* \"#utility.yul\":749:814   */\n  swap1\n  pop\n    /* \"#utility.yul\":694:820   */\n  swap2\n  swap1\n  pop\n  jump\t// out\n    /* \"#utility.yul\":826:922   */\ntag_20:\n    /* \"#utility.yul\":863:870   */\n  0x00\n    /* \"#utility.yul\":892:916   */\n  tag_35\n    /* \"#utility.yul\":910:915   */\n  dup3\n    /* \"#utility.yul\":892:916   */\n  tag_19\n  jump\t// in\ntag_35:\n    /* \"#utility.yul\":881:916   */\n  swap1\n  pop\n    /* \"#utility.yul\":826:922   */\n  swap2\n  swap1\n  pop\n  jump\t// out\n    /* \"#utility.yul\":928:1050   */\ntag_21:\n    /* \"#utility.yul\":1001:1025   */\n  tag_37\n    /* \"#utility.yul\":1019:1024   */\n  dup2\n    /* \"#utility.yul\":1001:1025   */\n  tag_20\n  jump\t// in\ntag_37:\n    /* \"#utility.yul\":994:999   */\n  dup2\n    /* \"#utility.yul\":991:1026   */\n  eq\n    /* \"#utility.yul\":981:1044   */\n  tag_38\n  jumpi\n    /* \"#utility.yul\":1040:1041   */\n  0x00\n    /* \"#utility.yul\":1037:1038   */\n  0x00\n    /* \"#utility.yul\":1030:1042   */\n  revert\n    /* \"#utility.yul\":981:1044   */\ntag_38:\n    /* \"#utility.yul\":928:1050   */\n  pop\n  jump\t// out\n    /* \"#utility.yul\":1056:1199   */\ntag_22:\n    /* \"#utility.yul\":1113:1118   */\n  0x00\n    /* \"#utility.yul\":1144:1150   */\n  dup2\n    /* \"#utility.yul\":1138:1151   */\n  mload\n    /* \"#utility.yul\":1129:1151   */\n  swap1\n  pop\n    /* \"#utility.yul\":1160:1193   */\n  tag_40\n    /* \"#utility.yul\":1187:1192   */\n  dup2\n    /* \"#utility.yul\":1160:1193   */\n  tag_21\n  jump\t// in\ntag_40:\n    /* \"#utility.yul\":1056:1199   */\n  swap3\n  swap2\n  pop\n  pop\n  jump\t// out\n    /* \"#utility.yul\":1205:1868   */\ntag_3:\n    /* \"#utility.yul\":1293:1299   */\n  0x00\n    /* \"#utility.yul\":1301:1307   */\n  0x00\n    /* \"#utility.yul\":1309:1315   */\n  0x00\n    /* \"#utility.yul\":1358:1360   */\n  0x60\n    /* \"#utility.yul\":1346:1355   */\n  dup5\n    /* \"#utility.yul\":1337:1344   */\n  dup7\n    /* \"#utility.yul\":1333:1356   */\n  sub\n    /* \"#utility.yul\":1329:1361   */\n  slt\n    /* \"#utility.yul\":1326:1445   */\n  iszero\n  tag_42\n  jumpi\n    /* \"#utility.yul\":1364:1443   */\n  tag_43\n  tag_14\n  jump\t// in\ntag_43:\n    /* \"#utility.yul\":1326:1445   */\ntag_42:\n    /* \"#utility.yul\":1484:1485   */\n  0x00\n    /* \"#utility.yul\":1509:1573   */\n  tag_44\n    /* \"#utility.yul\":1565:1572   */\n  dup7\n    /* \"#utility.yul\":1556:1562   */\n  dup3\n    /* \"#utility.yul\":1545:1554   */\n  dup8\n    /* \"#utility.yul\":1541:1563   */\n  add\n    /* \"#utility.yul\":1509:1573   */\n  tag_18\n  jump\t// in\ntag_44:\n    /* \"#utility.yul\":1499:1573   */\n  swap4\n  pop\n    /* \"#utility.yul\":1455:1583   */\n  pop\n    /* \"#utility.yul\":1622:1624   */\n  0x20\n    /* \"#utility.yul\":1648:1712   */\n  tag_45\n    /* \"#utility.yul\":1704:1711   */\n  dup7\n    /* \"#utility.yul\":1695:1701   */\n  dup3\n    /* \"#utility.yul\":1684:1693   */\n  dup8\n    /* \"#utility.yul\":1680:1702   */\n  add\n    /* \"#utility.yul\":1648:1712   */\n  tag_18\n  jump\t// in\ntag_45:\n    /* \"#utility.yul\":1638:1712   */\n  swap3\n  pop\n    /* \"#utility.yul\":1593:1722   */\n  pop\n    /* \"#utility.yul\":1761:1763   */\n  0x40\n    /* \"#utility.yul\":1787:1851   */\n  tag_46\n    /* \"#utility.yul\":1843:1850   */\n  dup7\n    /* \"#utility.yul\":1834:1840   */\n  dup3\n    /* \"#utility.yul\":1823:1832   */\n  dup8\n    /* \"#utility.yul\":1819:1841   */\n  add\n    /* \"#utility.yul\":1787:1851   */\n  tag_22\n  jump\t// in\ntag_46:\n    /* \"#utility.yul\":1777:1851   */\n  swap2\n  pop\n    /* \"#utility.yul\":1732:1861   */\n  pop\n    /* \"#utility.yul\":1205:1868   */\n  swap3\n  pop\n  swap3\n  pop\n  swap3\n  jump\t// out\n    /* \"#utility.yul\":1874:2225   */\ntag_10:\n    /* \"#utility.yul\":1944:1950   */\n  0x00\n    /* \"#utility.yul\":1993:1995   */\n  0x20\n    /* \"#utility.yul\":1981:1990   */\n  dup3\n    /* \"#utility.yul\":1972:1979   */\n  dup5\n    /* \"#utility.yul\":1968:1991   */\n  sub\n    /* \"#utility.yul\":1964:1996   */\n  slt\n    /* \"#utility.yul\":1961:2080   */\n  iszero\n  tag_48\n  jumpi\n    /* \"#utility.yul\":1999:2078   */\n  tag_49\n  tag_14\n  jump\t// in\ntag_49:\n    /* \"#utility.yul\":1961:2080   */\ntag_48:\n    /* \"#utility.yul\":2119:2120   */\n  0x00\n    /* \"#utility.yul\":2144:2208   */\n  tag_50\n    /* \"#utility.yul\":2200:2207   */\n  dup5\n    /* \"#utility.yul\":2191:2197   */\n  dup3\n    /* \"#utility.yul\":2180:2189   */\n  dup6\n    /* \"#utility.yul\":2176:2198   */\n  add\n    /* \"#utility.yul\":2144:2208   */\n  tag_22\n  jump\t// in\ntag_50:\n    /* \"#utility.yul\":2134:2208   */\n  swap2\n  pop\n    /* \"#utility.yul\":2090:2218   */\n  pop\n    /* \"#utility.yul\":1874:2225   */\n  swap3\n  swap2\n  pop\n  pop\n  jump\t// out\n    /* \"contract/Lottery.sol\":254:6489  contract Lottery is VRFV2PlusWrapperConsumerBase {... */\ntag_12:\n  mload(0x80)\n  mload(0xa0)\n  codecopy(0x00, dataOffset(sub_0), dataSize(sub_0))\n  0x00\n  assignImmutable(\"0x712adca22095011a9de0b4aa84648bf2bea2744bd9326ede31e43d2a71662846\")\n  0x00\n  assignImmutable(\"0xd905fec1a56b00009651ce5a01a34d2244da02f516f67ee88b03219738dbf226\")\n  return(0x00, dataSize(sub_0))\nstop\n\nsub_0: assembly {\n        /* \"contract/Lottery.sol\":254:6489  contract Lottery is VRFV2PlusWrapperConsumerBase {... */\n      mstore(0x40, 0x80)\n      jumpi(tag_1, lt(calldatasize, 0x04))\n      shr(0xe0, calldataload(0x00))\n      dup1\n      0x6ac5db19\n      gt\n      tag_18\n      jumpi\n      dup1\n      0xbe9a6555\n      gt\n      tag_19\n      jumpi\n      dup1\n      0xbe9a6555\n      eq\n      tag_14\n      jumpi\n      dup1\n      0xe76d5168\n      eq\n      tag_15\n      jumpi\n      dup1\n      0xf437bc59\n      eq\n      tag_16\n      jumpi\n      dup1\n      0xf8897945\n      eq\n      tag_17\n      jumpi\n      jump(tag_1)\n    tag_19:\n      dup1\n      0x6ac5db19\n      eq\n      tag_10\n      jumpi\n      dup1\n      0x6c77f989\n      eq\n      tag_11\n      jumpi\n      dup1\n      0x877f4e12\n      eq\n      tag_12\n      jumpi\n      dup1\n      0x9ed0868d\n      eq\n      tag_13\n      jumpi\n      jump(tag_1)\n    tag_18:\n      dup1\n      0x1fe543e3\n      gt\n      tag_20\n      jumpi\n      dup1\n      0x1fe543e3\n      eq\n      tag_6\n      jumpi\n      dup1\n      0x278a5ff2\n      eq\n      tag_7\n      jumpi\n      dup1\n      0x42619f66\n      eq\n      tag_8\n      jumpi\n      dup1\n      0x630d1833\n      eq\n      tag_9\n      jumpi\n      jump(tag_1)\n    tag_20:\n      dup1\n      0x6d6cae\n      eq\n      tag_2\n      jumpi\n      dup1\n      0x12065fe0\n      eq\n      tag_3\n      jumpi\n      dup1\n      0x12fa6feb\n      eq\n      tag_4\n      jumpi\n      dup1\n      0x1eecd934\n      eq\n      tag_5\n      jumpi\n    tag_1:\n      revert(0x00, 0x00)\n        /* \"contract/Lottery.sol\":944:968  uint256 public requestId */\n    tag_2:\n      callvalue\n      dup1\n      iszero\n      tag_21\n      jumpi\n      revert(0x00, 0x00)\n    tag_21:\n      pop\n      tag_22\n      tag_23\n      jump\t// in\n    tag_22:\n      mload(0x40)\n      tag_24\n      swap2\n      swap1\n      tag_25\n      jump\t// in\n    tag_24:\n      mload(0x40)\n      dup1\n      swap2\n      sub\n      swap1\n      return\n        /* \"@chainlink/contracts/src/v0.8/vrf/dev/VRFV2PlusWrapperConsumerBase.sol\":4804:4895  function getBalance() public view returns (uint256) {... */\n    tag_3:\n      callvalue\n      dup1\n      iszero\n      tag_26\n      jumpi\n      revert(0x00, 0x00)\n    tag_26:\n      pop\n      tag_27\n      tag_28\n      jump\t// in\n    tag_27:\n      mload(0x40)\n      tag_29\n      swap2\n      swap1\n      tag_25\n      jump\t// in\n    tag_29:\n      mload(0x40)\n      dup1\n      swap2\n      sub\n      swap1\n      return\n        /* \"contract/Lottery.sol\":1025:1050  bool public ended = false */\n    tag_4:\n      callvalue\n      dup1\n      iszero\n      tag_30\n      jumpi\n      revert(0x00, 0x00)\n    tag_30:\n      pop\n      tag_31\n      tag_32\n      jump\t// in\n    tag_31:\n      mload(0x40)\n      tag_33\n      swap2\n      swap1\n      tag_34\n      jump\t// in\n    tag_33:\n      mload(0x40)\n      dup1\n      swap2\n      sub\n      swap1\n      return\n        /* \"contract/Lottery.sol\":599:637  uint64 public ticketCost = 0.015 ether */\n    tag_5:\n      callvalue\n      dup1\n      iszero\n      tag_35\n      jumpi\n      revert(0x00, 0x00)\n    tag_35:\n      pop\n      tag_36\n      tag_37\n      jump\t// in\n    tag_36:\n      mload(0x40)\n      tag_38\n      swap2\n      swap1\n      tag_39\n      jump\t// in\n    tag_38:\n      mload(0x40)\n      dup1\n      swap2\n      sub\n      swap1\n      return\n        /* \"@chainlink/contracts/src/v0.8/vrf/dev/VRFV2PlusWrapperConsumerBase.sol\":4406:4723  function rawFulfillRandomWords(uint256 _requestId, uint256[] memory _randomWords) external {... */\n    tag_6:\n      callvalue\n      dup1\n      iszero\n      tag_40\n      jumpi\n      revert(0x00, 0x00)\n    tag_40:\n      pop\n      tag_41\n      0x04\n      dup1\n      calldatasize\n      sub\n      dup2\n      add\n      swap1\n      tag_42\n      swap2\n      swap1\n      tag_43\n      jump\t// in\n    tag_42:\n      tag_44\n      jump\t// in\n    tag_41:\n      stop\n        /* \"contract/Lottery.sol\":6196:6308  function getParticipantStatus(address user) public view returns (bool) {... */\n    tag_7:\n      callvalue\n      dup1\n      iszero\n      tag_45\n      jumpi\n      revert(0x00, 0x00)\n    tag_45:\n      pop\n      tag_46\n      0x04\n      dup1\n      calldatasize\n      sub\n      dup2\n      add\n      swap1\n      tag_47\n      swap2\n      swap1\n      tag_48\n      jump\t// in\n    tag_47:\n      tag_49\n      jump\t// in\n    tag_46:\n      mload(0x40)\n      tag_50\n      swap2\n      swap1\n      tag_34\n      jump\t// in\n    tag_50:\n      mload(0x40)\n      dup1\n      swap2\n      sub\n      swap1\n      return\n        /* \"contract/Lottery.sol\":910:937  uint256 public randomResult */\n    tag_8:\n      callvalue\n      dup1\n      iszero\n      tag_51\n      jumpi\n      revert(0x00, 0x00)\n    tag_51:\n      pop\n      tag_52\n      tag_53\n      jump\t// in\n    tag_52:\n      mload(0x40)\n      tag_54\n      swap2\n      swap1\n      tag_25\n      jump\t// in\n    tag_54:\n      mload(0x40)\n      dup1\n      swap2\n      sub\n      swap1\n      return\n        /* \"contract/Lottery.sol\":503:549  uint64 public constant monetaryPrize = 5 ether */\n    tag_9:\n      callvalue\n      dup1\n      iszero\n      tag_55\n      jumpi\n      revert(0x00, 0x00)\n    tag_55:\n      pop\n      tag_56\n      tag_57\n      jump\t// in\n    tag_56:\n      mload(0x40)\n      tag_58\n      swap2\n      swap1\n      tag_39\n      jump\t// in\n    tag_58:\n      mload(0x40)\n      dup1\n      swap2\n      sub\n      swap1\n      return\n        /* \"contract/Lottery.sol\":1000:1018  uint256 public max */\n    tag_10:\n      callvalue\n      dup1\n      iszero\n      tag_59\n      jumpi\n      revert(0x00, 0x00)\n    tag_59:\n      pop\n      tag_60\n      tag_61\n      jump\t// in\n    tag_60:\n      mload(0x40)\n      tag_62\n      swap2\n      swap1\n      tag_25\n      jump\t// in\n    tag_62:\n      mload(0x40)\n      dup1\n      swap2\n      sub\n      swap1\n      return\n        /* \"contract/Lottery.sol\":1580:2062  function joinLottery() external payable {... */\n    tag_11:\n      tag_63\n      tag_64\n      jump\t// in\n    tag_63:\n      stop\n        /* \"contract/Lottery.sol\":384:425  mapping(address => bool) public hasJoined */\n    tag_12:\n      callvalue\n      dup1\n      iszero\n      tag_65\n      jumpi\n      revert(0x00, 0x00)\n    tag_65:\n      pop\n      tag_66\n      0x04\n      dup1\n      calldatasize\n      sub\n      dup2\n      add\n      swap1\n      tag_67\n      swap2\n      swap1\n      tag_48\n      jump\t// in\n    tag_67:\n      tag_68\n      jump\t// in\n    tag_66:\n      mload(0x40)\n      tag_69\n      swap2\n      swap1\n      tag_34\n      jump\t// in\n    tag_69:\n      mload(0x40)\n      dup1\n      swap2\n      sub\n      swap1\n      return\n        /* \"@chainlink/contracts/src/v0.8/vrf/dev/VRFV2PlusWrapperConsumerBase.sol\":1739:1792  IVRFV2PlusWrapper public immutable i_vrfV2PlusWrapper */\n    tag_13:\n      callvalue\n      dup1\n      iszero\n      tag_70\n      jumpi\n      revert(0x00, 0x00)\n    tag_70:\n      pop\n      tag_71\n      tag_72\n      jump\t// in\n    tag_71:\n      mload(0x40)\n      tag_73\n      swap2\n      swap1\n      tag_74\n      jump\t// in\n    tag_73:\n      mload(0x40)\n      dup1\n      swap2\n      sub\n      swap1\n      return\n        /* \"contract/Lottery.sol\":2833:3684  function start() external onlyHost {... */\n    tag_14:\n      callvalue\n      dup1\n      iszero\n      tag_75\n      jumpi\n      revert(0x00, 0x00)\n    tag_75:\n      pop\n      tag_76\n      tag_77\n      jump\t// in\n    tag_76:\n      stop\n        /* \"@chainlink/contracts/src/v0.8/vrf/dev/VRFV2PlusWrapperConsumerBase.sol\":4958:5052  function getLinkToken() public view returns (LinkTokenInterface) {... */\n    tag_15:\n      callvalue\n      dup1\n      iszero\n      tag_78\n      jumpi\n      revert(0x00, 0x00)\n    tag_78:\n      pop\n      tag_79\n      tag_80\n      jump\t// in\n    tag_79:\n      mload(0x40)\n      tag_81\n      swap2\n      swap1\n      tag_82\n      jump\t// in\n    tag_81:\n      mload(0x40)\n      dup1\n      swap2\n      sub\n      swap1\n      return\n        /* \"contract/Lottery.sol\":469:496  address payable public host */\n    tag_16:\n      callvalue\n      dup1\n      iszero\n      tag_83\n      jumpi\n      revert(0x00, 0x00)\n    tag_83:\n      pop\n      tag_84\n      tag_85\n      jump\t// in\n    tag_84:\n      mload(0x40)\n      tag_86\n      swap2\n      swap1\n      tag_87\n      jump\t// in\n    tag_86:\n      mload(0x40)\n      dup1\n      swap2\n      sub\n      swap1\n      return\n        /* \"contract/Lottery.sol\":975:993  uint256 public min */\n    tag_17:\n      callvalue\n      dup1\n      iszero\n      tag_88\n      jumpi\n      revert(0x00, 0x00)\n    tag_88:\n      pop\n      tag_89\n      tag_90\n      jump\t// in\n    tag_89:\n      mload(0x40)\n      tag_91\n      swap2\n      swap1\n      tag_25\n      jump\t// in\n    tag_91:\n      mload(0x40)\n      dup1\n      swap2\n      sub\n      swap1\n      return\n        /* \"contract/Lottery.sol\":944:968  uint256 public requestId */\n    tag_23:\n      sload(0x08)\n      dup2\n      jump\t// out\n        /* \"@chainlink/contracts/src/v0.8/vrf/dev/VRFV2PlusWrapperConsumerBase.sol\":4804:4895  function getBalance() public view returns (uint256) {... */\n    tag_28:\n        /* \"@chainlink/contracts/src/v0.8/vrf/dev/VRFV2PlusWrapperConsumerBase.sol\":4847:4854  uint256 */\n      0x00\n        /* \"@chainlink/contracts/src/v0.8/vrf/dev/VRFV2PlusWrapperConsumerBase.sol\":4869:4890  address(this).balance */\n      selfbalance\n        /* \"@chainlink/contracts/src/v0.8/vrf/dev/VRFV2PlusWrapperConsumerBase.sol\":4862:4890  return address(this).balance */\n      swap1\n      pop\n        /* \"@chainlink/contracts/src/v0.8/vrf/dev/VRFV2PlusWrapperConsumerBase.sol\":4804:4895  function getBalance() public view returns (uint256) {... */\n      swap1\n      jump\t// out\n        /* \"contract/Lottery.sol\":1025:1050  bool public ended = false */\n    tag_32:\n      0x0b\n      0x00\n      swap1\n      sload\n      swap1\n      0x0100\n      exp\n      swap1\n      div\n      0xff\n      and\n      dup2\n      jump\t// out\n        /* \"contract/Lottery.sol\":599:637  uint64 public ticketCost = 0.015 ether */\n    tag_37:\n      0x04\n      0x00\n      swap1\n      sload\n      swap1\n      0x0100\n      exp\n      swap1\n      div\n      0xffffffffffffffff\n      and\n      dup2\n      jump\t// out\n        /* \"@chainlink/contracts/src/v0.8/vrf/dev/VRFV2PlusWrapperConsumerBase.sol\":4406:4723  function rawFulfillRandomWords(uint256 _requestId, uint256[] memory _randomWords) external {... */\n    tag_44:\n        /* \"@chainlink/contracts/src/v0.8/vrf/dev/VRFV2PlusWrapperConsumerBase.sol\":4503:4525  address vrfWrapperAddr */\n      0x00\n        /* \"@chainlink/contracts/src/v0.8/vrf/dev/VRFV2PlusWrapperConsumerBase.sol\":4536:4554  i_vrfV2PlusWrapper */\n      immutable(\"0x712adca22095011a9de0b4aa84648bf2bea2744bd9326ede31e43d2a71662846\")\n        /* \"@chainlink/contracts/src/v0.8/vrf/dev/VRFV2PlusWrapperConsumerBase.sol\":4503:4555  address vrfWrapperAddr = address(i_vrfV2PlusWrapper) */\n      swap1\n      pop\n        /* \"@chainlink/contracts/src/v0.8/vrf/dev/VRFV2PlusWrapperConsumerBase.sol\":4579:4593  vrfWrapperAddr */\n      dup1\n        /* \"@chainlink/contracts/src/v0.8/vrf/dev/VRFV2PlusWrapperConsumerBase.sol\":4565:4593  msg.sender != vrfWrapperAddr */\n      0xffffffffffffffffffffffffffffffffffffffff\n      and\n        /* \"@chainlink/contracts/src/v0.8/vrf/dev/VRFV2PlusWrapperConsumerBase.sol\":4565:4575  msg.sender */\n      caller\n        /* \"@chainlink/contracts/src/v0.8/vrf/dev/VRFV2PlusWrapperConsumerBase.sol\":4565:4593  msg.sender != vrfWrapperAddr */\n      0xffffffffffffffffffffffffffffffffffffffff\n      and\n      eq\n        /* \"@chainlink/contracts/src/v0.8/vrf/dev/VRFV2PlusWrapperConsumerBase.sol\":4561:4669  if (msg.sender != vrfWrapperAddr) {... */\n      tag_94\n      jumpi\n        /* \"@chainlink/contracts/src/v0.8/vrf/dev/VRFV2PlusWrapperConsumerBase.sol\":4635:4645  msg.sender */\n      caller\n        /* \"@chainlink/contracts/src/v0.8/vrf/dev/VRFV2PlusWrapperConsumerBase.sol\":4647:4661  vrfWrapperAddr */\n      dup2\n        /* \"@chainlink/contracts/src/v0.8/vrf/dev/VRFV2PlusWrapperConsumerBase.sol\":4610:4662  OnlyVRFWrapperCanFulfill(msg.sender, vrfWrapperAddr) */\n      mload(0x40)\n      0x8ba9316e00000000000000000000000000000000000000000000000000000000\n      dup2\n      mstore\n      0x04\n      add\n      tag_95\n      swap3\n      swap2\n      swap1\n      tag_96\n      jump\t// in\n    tag_95:\n      mload(0x40)\n      dup1\n      swap2\n      sub\n      swap1\n      revert\n        /* \"@chainlink/contracts/src/v0.8/vrf/dev/VRFV2PlusWrapperConsumerBase.sol\":4561:4669  if (msg.sender != vrfWrapperAddr) {... */\n    tag_94:\n        /* \"@chainlink/contracts/src/v0.8/vrf/dev/VRFV2PlusWrapperConsumerBase.sol\":4674:4718  fulfillRandomWords(_requestId, _randomWords) */\n      tag_97\n        /* \"@chainlink/contracts/src/v0.8/vrf/dev/VRFV2PlusWrapperConsumerBase.sol\":4693:4703  _requestId */\n      dup4\n        /* \"@chainlink/contracts/src/v0.8/vrf/dev/VRFV2PlusWrapperConsumerBase.sol\":4705:4717  _randomWords */\n      dup4\n        /* \"@chainlink/contracts/src/v0.8/vrf/dev/VRFV2PlusWrapperConsumerBase.sol\":4674:4692  fulfillRandomWords */\n      tag_98\n        /* \"@chainlink/contracts/src/v0.8/vrf/dev/VRFV2PlusWrapperConsumerBase.sol\":4674:4718  fulfillRandomWords(_requestId, _randomWords) */\n      jump\t// in\n    tag_97:\n        /* \"@chainlink/contracts/src/v0.8/vrf/dev/VRFV2PlusWrapperConsumerBase.sol\":4497:4723  {... */\n      pop\n        /* \"@chainlink/contracts/src/v0.8/vrf/dev/VRFV2PlusWrapperConsumerBase.sol\":4406:4723  function rawFulfillRandomWords(uint256 _requestId, uint256[] memory _randomWords) external {... */\n      pop\n      pop\n      jump\t// out\n        /* \"contract/Lottery.sol\":6196:6308  function getParticipantStatus(address user) public view returns (bool) {... */\n    tag_49:\n        /* \"contract/Lottery.sol\":6261:6265  bool */\n      0x00\n        /* \"contract/Lottery.sol\":6285:6294  hasJoined */\n      0x01\n        /* \"contract/Lottery.sol\":6285:6300  hasJoined[user] */\n      0x00\n        /* \"contract/Lottery.sol\":6295:6299  user */\n      dup4\n        /* \"contract/Lottery.sol\":6285:6300  hasJoined[user] */\n      0xffffffffffffffffffffffffffffffffffffffff\n      and\n      0xffffffffffffffffffffffffffffffffffffffff\n      and\n      dup2\n      mstore\n      0x20\n      add\n      swap1\n      dup2\n      mstore\n      0x20\n      add\n      0x00\n      keccak256\n      0x00\n      swap1\n      sload\n      swap1\n      0x0100\n      exp\n      swap1\n      div\n      0xff\n      and\n        /* \"contract/Lottery.sol\":6278:6300  return hasJoined[user] */\n      swap1\n      pop\n        /* \"contract/Lottery.sol\":6196:6308  function getParticipantStatus(address user) public view returns (bool) {... */\n      swap2\n      swap1\n      pop\n      jump\t// out\n        /* \"contract/Lottery.sol\":910:937  uint256 public randomResult */\n    tag_53:\n      sload(0x07)\n      dup2\n      jump\t// out\n        /* \"contract/Lottery.sol\":503:549  uint64 public constant monetaryPrize = 5 ether */\n    tag_57:\n        /* \"contract/Lottery.sol\":542:549  5 ether */\n      0x4563918244f40000\n        /* \"contract/Lottery.sol\":503:549  uint64 public constant monetaryPrize = 5 ether */\n      dup2\n      jump\t// out\n        /* \"contract/Lottery.sol\":1000:1018  uint256 public max */\n    tag_61:\n      sload(0x0a)\n      dup2\n      jump\t// out\n        /* \"contract/Lottery.sol\":1580:2062  function joinLottery() external payable {... */\n    tag_64:\n        /* \"contract/Lottery.sol\":1640:1645  ended */\n      0x0b\n      0x00\n      swap1\n      sload\n      swap1\n      0x0100\n      exp\n      swap1\n      div\n      0xff\n      and\n        /* \"contract/Lottery.sol\":1639:1645  !ended */\n      iszero\n        /* \"contract/Lottery.sol\":1631:1668  require(!ended, \"Lottery has ended.\") */\n      tag_101\n      jumpi\n      mload(0x40)\n      0x08c379a000000000000000000000000000000000000000000000000000000000\n      dup2\n      mstore\n      0x04\n      add\n      tag_102\n      swap1\n      tag_103\n      jump\t// in\n    tag_102:\n      mload(0x40)\n      dup1\n      swap2\n      sub\n      swap1\n      revert\n    tag_101:\n        /* \"contract/Lottery.sol\":1700:1710  ticketCost */\n      0x04\n      0x00\n      swap1\n      sload\n      swap1\n      0x0100\n      exp\n      swap1\n      div\n      0xffffffffffffffff\n      and\n        /* \"contract/Lottery.sol\":1687:1710  msg.value == ticketCost */\n      0xffffffffffffffff\n      and\n        /* \"contract/Lottery.sol\":1687:1696  msg.value */\n      callvalue\n        /* \"contract/Lottery.sol\":1687:1710  msg.value == ticketCost */\n      eq\n        /* \"contract/Lottery.sol\":1679:1728  require(msg.value == ticketCost, \"Wrong Amount.\") */\n      tag_104\n      jumpi\n      mload(0x40)\n      0x08c379a000000000000000000000000000000000000000000000000000000000\n      dup2\n      mstore\n      0x04\n      add\n      tag_105\n      swap1\n      tag_106\n      jump\t// in\n    tag_105:\n      mload(0x40)\n      dup1\n      swap2\n      sub\n      swap1\n      revert\n    tag_104:\n        /* \"contract/Lottery.sol\":1769:1772  max */\n      sload(0x0a)\n        /* \"contract/Lottery.sol\":1747:1759  participants */\n      0x00\n        /* \"contract/Lottery.sol\":1747:1766  participants.length */\n      dup1\n      sload\n      swap1\n      pop\n        /* \"contract/Lottery.sol\":1747:1772  participants.length < max */\n      lt\n        /* \"contract/Lottery.sol\":1739:1798  require(participants.length < max, \"This lottery is full.\") */\n      tag_107\n      jumpi\n      mload(0x40)\n      0x08c379a000000000000000000000000000000000000000000000000000000000\n      dup2\n      mstore\n      0x04\n      add\n      tag_108\n      swap1\n      tag_109\n      jump\t// in\n    tag_108:\n      mload(0x40)\n      dup1\n      swap2\n      sub\n      swap1\n      revert\n    tag_107:\n        /* \"contract/Lottery.sol\":1832:1841  hasJoined */\n      0x01\n        /* \"contract/Lottery.sol\":1832:1853  hasJoined[msg.sender] */\n      0x00\n        /* \"contract/Lottery.sol\":1842:1852  msg.sender */\n      caller\n        /* \"contract/Lottery.sol\":1832:1853  hasJoined[msg.sender] */\n      0xffffffffffffffffffffffffffffffffffffffff\n      and\n      0xffffffffffffffffffffffffffffffffffffffff\n      and\n      dup2\n      mstore\n      0x20\n      add\n      swap1\n      dup2\n      mstore\n      0x20\n      add\n      0x00\n      keccak256\n      0x00\n      swap1\n      sload\n      swap1\n      0x0100\n      exp\n      swap1\n      div\n      0xff\n      and\n        /* \"contract/Lottery.sol\":1831:1853  !hasJoined[msg.sender] */\n      iszero\n        /* \"contract/Lottery.sol\":1809:1918  require(... */\n      tag_110\n      jumpi\n      mload(0x40)\n      0x08c379a000000000000000000000000000000000000000000000000000000000\n      dup2\n      mstore\n      0x04\n      add\n      tag_111\n      swap1\n      tag_112\n      jump\t// in\n    tag_111:\n      mload(0x40)\n      dup1\n      swap2\n      sub\n      swap1\n      revert\n    tag_110:\n        /* \"contract/Lottery.sol\":1931:1943  participants */\n      0x00\n        /* \"contract/Lottery.sol\":1949:1959  msg.sender */\n      caller\n        /* \"contract/Lottery.sol\":1931:1960  participants.push(msg.sender) */\n      swap1\n      dup1\n      0x01\n      dup2\n      sload\n      add\n      dup1\n      dup3\n      sstore\n      dup1\n      swap2\n      pop\n      pop\n      0x01\n      swap1\n      sub\n      swap1\n      0x00\n      mstore\n      keccak256(0x00, 0x20)\n      add\n      0x00\n      swap1\n      swap2\n      swap1\n      swap2\n      swap1\n      swap2\n      0x0100\n      exp\n      dup2\n      sload\n      dup2\n      0xffffffffffffffffffffffffffffffffffffffff\n      mul\n      not\n      and\n      swap1\n      dup4\n      0xffffffffffffffffffffffffffffffffffffffff\n      and\n      mul\n      or\n      swap1\n      sstore\n      pop\n        /* \"contract/Lottery.sol\":1995:1999  true */\n      0x01\n        /* \"contract/Lottery.sol\":1971:1980  hasJoined */\n      dup1\n        /* \"contract/Lottery.sol\":1971:1992  hasJoined[msg.sender] */\n      0x00\n        /* \"contract/Lottery.sol\":1981:1991  msg.sender */\n      caller\n        /* \"contract/Lottery.sol\":1971:1992  hasJoined[msg.sender] */\n      0xffffffffffffffffffffffffffffffffffffffff\n      and\n      0xffffffffffffffffffffffffffffffffffffffff\n      and\n      dup2\n      mstore\n      0x20\n      add\n      swap1\n      dup2\n      mstore\n      0x20\n      add\n      0x00\n      keccak256\n      0x00\n        /* \"contract/Lottery.sol\":1971:1999  hasJoined[msg.sender] = true */\n      0x0100\n      exp\n      dup2\n      sload\n      dup2\n      0xff\n      mul\n      not\n      and\n      swap1\n      dup4\n      iszero\n      iszero\n      mul\n      or\n      swap1\n      sstore\n      pop\n        /* \"contract/Lottery.sol\":2015:2054  participantJoined(msg.sender, \"joined\") */\n      0x5d7fe1cbbc608689987406644ee6a48ea79e623710c4c184fc02aa6370ad5ed6\n        /* \"contract/Lottery.sol\":2033:2043  msg.sender */\n      caller\n        /* \"contract/Lottery.sol\":2015:2054  participantJoined(msg.sender, \"joined\") */\n      mload(0x40)\n      tag_114\n      swap2\n      swap1\n      tag_115\n      jump\t// in\n    tag_114:\n      mload(0x40)\n      dup1\n      swap2\n      sub\n      swap1\n      log1\n        /* \"contract/Lottery.sol\":1580:2062  function joinLottery() external payable {... */\n      jump\t// out\n        /* \"contract/Lottery.sol\":384:425  mapping(address => bool) public hasJoined */\n    tag_68:\n      mstore(0x20, 0x01)\n      dup1\n      0x00\n      mstore\n      keccak256(0x00, 0x40)\n      0x00\n      swap2\n      pop\n      sload\n      swap1\n      0x0100\n      exp\n      swap1\n      div\n      0xff\n      and\n      dup2\n      jump\t// out\n        /* \"@chainlink/contracts/src/v0.8/vrf/dev/VRFV2PlusWrapperConsumerBase.sol\":1739:1792  IVRFV2PlusWrapper public immutable i_vrfV2PlusWrapper */\n    tag_72:\n      immutable(\"0x712adca22095011a9de0b4aa84648bf2bea2744bd9326ede31e43d2a71662846\")\n      dup2\n      jump\t// out\n        /* \"contract/Lottery.sol\":2833:3684  function start() external onlyHost {... */\n    tag_77:\n        /* \"contract/Lottery.sol\":1385:1389  host */\n      0x02\n      0x00\n      swap1\n      sload\n      swap1\n      0x0100\n      exp\n      swap1\n      div\n      0xffffffffffffffffffffffffffffffffffffffff\n      and\n        /* \"contract/Lottery.sol\":1371:1389  msg.sender == host */\n      0xffffffffffffffffffffffffffffffffffffffff\n      and\n        /* \"contract/Lottery.sol\":1371:1381  msg.sender */\n      caller\n        /* \"contract/Lottery.sol\":1371:1389  msg.sender == host */\n      0xffffffffffffffffffffffffffffffffffffffff\n      and\n      eq\n        /* \"contract/Lottery.sol\":1363:1415  require(msg.sender == host, \"You are not the host.\") */\n      tag_117\n      jumpi\n      mload(0x40)\n      0x08c379a000000000000000000000000000000000000000000000000000000000\n      dup2\n      mstore\n      0x04\n      add\n      tag_118\n      swap1\n      tag_119\n      jump\t// in\n    tag_118:\n      mload(0x40)\n      dup1\n      swap2\n      sub\n      swap1\n      revert\n    tag_117:\n        /* \"contract/Lottery.sol\":2888:2893  ended */\n      0x0b\n      0x00\n      swap1\n      sload\n      swap1\n      0x0100\n      exp\n      swap1\n      div\n      0xff\n      and\n        /* \"contract/Lottery.sol\":2887:2893  !ended */\n      iszero\n        /* \"contract/Lottery.sol\":2879:2923  require(!ended, \"Lottery has already ended\") */\n      tag_121\n      jumpi\n      mload(0x40)\n      0x08c379a000000000000000000000000000000000000000000000000000000000\n      dup2\n      mstore\n      0x04\n      add\n      tag_122\n      swap1\n      tag_123\n      jump\t// in\n    tag_122:\n      mload(0x40)\n      dup1\n      swap2\n      sub\n      swap1\n      revert\n    tag_121:\n        /* \"contract/Lottery.sol\":2979:2982  min */\n      sload(0x09)\n        /* \"contract/Lottery.sol\":2956:2968  participants */\n      0x00\n        /* \"contract/Lottery.sol\":2956:2975  participants.length */\n      dup1\n      sload\n      swap1\n      pop\n        /* \"contract/Lottery.sol\":2956:2982  participants.length >= min */\n      lt\n      iszero\n        /* \"contract/Lottery.sol\":2934:3059  require(... */\n      tag_124\n      jumpi\n      mload(0x40)\n      0x08c379a000000000000000000000000000000000000000000000000000000000\n      dup2\n      mstore\n      0x04\n      add\n      tag_125\n      swap1\n      tag_126\n      jump\t// in\n    tag_125:\n      mload(0x40)\n      dup1\n      swap2\n      sub\n      swap1\n      revert\n    tag_124:\n        /* \"contract/Lottery.sol\":3100:3101  0 */\n      0x00\n        /* \"contract/Lottery.sol\":3078:3090  participants */\n      0x00\n        /* \"contract/Lottery.sol\":3078:3097  participants.length */\n      dup1\n      sload\n      swap1\n      pop\n        /* \"contract/Lottery.sol\":3078:3101  participants.length > 0 */\n      gt\n        /* \"contract/Lottery.sol\":3070:3121  require(participants.length > 0, \"No participants\") */\n      tag_127\n      jumpi\n      mload(0x40)\n      0x08c379a000000000000000000000000000000000000000000000000000000000\n      dup2\n      mstore\n      0x04\n      add\n      tag_128\n      swap1\n      tag_129\n      jump\t// in\n    tag_128:\n      mload(0x40)\n      dup1\n      swap2\n      sub\n      swap1\n      revert\n    tag_127:\n        /* \"contract/Lottery.sol\":542:549  5 ether */\n      0x4563918244f40000\n        /* \"contract/Lottery.sol\":3304:3342  address(this).balance >= monetaryPrize */\n      0xffffffffffffffff\n      and\n        /* \"contract/Lottery.sol\":3304:3325  address(this).balance */\n      selfbalance\n        /* \"contract/Lottery.sol\":3304:3342  address(this).balance >= monetaryPrize */\n      lt\n      iszero\n        /* \"contract/Lottery.sol\":3296:3387  require(address(this).balance >= monetaryPrize, \"Insufficient contract balance for prize.\") */\n      tag_130\n      jumpi\n      mload(0x40)\n      0x08c379a000000000000000000000000000000000000000000000000000000000\n      dup2\n      mstore\n      0x04\n      add\n      tag_131\n      swap1\n      tag_132\n      jump\t// in\n    tag_131:\n      mload(0x40)\n      dup1\n      swap2\n      sub\n      swap1\n      revert\n    tag_130:\n        /* \"contract/Lottery.sol\":3477:3499  bytes memory extraArgs */\n      0x00\n        /* \"contract/Lottery.sol\":3502:3607  VRFV2PlusClient._argsToBytes(... */\n      tag_133\n        /* \"contract/Lottery.sol\":3545:3596  VRFV2PlusClient.ExtraArgsV1({nativePayment: false}) */\n      mload(0x40)\n      dup1\n      0x20\n      add\n      0x40\n      mstore\n      dup1\n        /* \"contract/Lottery.sol\":3589:3594  false */\n      0x00\n        /* \"contract/Lottery.sol\":3545:3596  VRFV2PlusClient.ExtraArgsV1({nativePayment: false}) */\n      iszero\n      iszero\n      dup2\n      mstore\n      pop\n        /* \"contract/Lottery.sol\":3502:3530  VRFV2PlusClient._argsToBytes */\n      tag_134\n        /* \"contract/Lottery.sol\":3502:3607  VRFV2PlusClient._argsToBytes(... */\n      jump\t// in\n    tag_133:\n        /* \"contract/Lottery.sol\":3477:3607  bytes memory extraArgs = VRFV2PlusClient._argsToBytes(... */\n      swap1\n      pop\n        /* \"contract/Lottery.sol\":3634:3676  requestRandomness(100000, 3, 1, extraArgs) */\n      tag_135\n        /* \"contract/Lottery.sol\":3652:3658  100000 */\n      0x0186a0\n        /* \"contract/Lottery.sol\":3660:3661  3 */\n      0x03\n        /* \"contract/Lottery.sol\":3663:3664  1 */\n      0x01\n        /* \"contract/Lottery.sol\":3666:3675  extraArgs */\n      dup5\n        /* \"contract/Lottery.sol\":3634:3651  requestRandomness */\n      tag_136\n        /* \"contract/Lottery.sol\":3634:3676  requestRandomness(100000, 3, 1, extraArgs) */\n      jump\t// in\n    tag_135:\n        /* \"contract/Lottery.sol\":3618:3676  (requestId, ) = requestRandomness(100000, 3, 1, extraArgs) */\n      pop\n        /* \"contract/Lottery.sol\":3619:3628  requestId */\n      0x08\n      0x00\n        /* \"contract/Lottery.sol\":3618:3676  (requestId, ) = requestRandomness(100000, 3, 1, extraArgs) */\n      dup3\n      swap2\n      swap1\n      pop\n      sstore\n      pop\n        /* \"contract/Lottery.sol\":2868:3684  {... */\n      pop\n        /* \"contract/Lottery.sol\":2833:3684  function start() external onlyHost {... */\n      jump\t// out\n        /* \"@chainlink/contracts/src/v0.8/vrf/dev/VRFV2PlusWrapperConsumerBase.sol\":4958:5052  function getLinkToken() public view returns (LinkTokenInterface) {... */\n    tag_80:\n        /* \"@chainlink/contracts/src/v0.8/vrf/dev/VRFV2PlusWrapperConsumerBase.sol\":5003:5021  LinkTokenInterface */\n      0x00\n        /* \"@chainlink/contracts/src/v0.8/vrf/dev/VRFV2PlusWrapperConsumerBase.sol\":5036:5047  i_linkToken */\n      immutable(\"0xd905fec1a56b00009651ce5a01a34d2244da02f516f67ee88b03219738dbf226\")\n        /* \"@chainlink/contracts/src/v0.8/vrf/dev/VRFV2PlusWrapperConsumerBase.sol\":5029:5047  return i_linkToken */\n      swap1\n      pop\n        /* \"@chainlink/contracts/src/v0.8/vrf/dev/VRFV2PlusWrapperConsumerBase.sol\":4958:5052  function getLinkToken() public view returns (LinkTokenInterface) {... */\n      swap1\n      jump\t// out\n        /* \"contract/Lottery.sol\":469:496  address payable public host */\n    tag_85:\n      0x02\n      0x00\n      swap1\n      sload\n      swap1\n      0x0100\n      exp\n      swap1\n      div\n      0xffffffffffffffffffffffffffffffffffffffff\n      and\n      dup2\n      jump\t// out\n        /* \"contract/Lottery.sol\":975:993  uint256 public min */\n    tag_90:\n      sload(0x09)\n      dup2\n      jump\t// out\n        /* \"contract/Lottery.sol\":4581:5213  function fulfillRandomWords(... */\n    tag_98:\n        /* \"contract/Lottery.sol\":4745:4746  0 */\n      0x00\n        /* \"contract/Lottery.sol\":4723:4735  _randomWords */\n      dup2\n        /* \"contract/Lottery.sol\":4723:4742  _randomWords.length */\n      mload\n        /* \"contract/Lottery.sol\":4723:4746  _randomWords.length > 0 */\n      gt\n        /* \"contract/Lottery.sol\":4715:4776  require(_randomWords.length > 0, \"No random words received.\") */\n      tag_139\n      jumpi\n      mload(0x40)\n      0x08c379a000000000000000000000000000000000000000000000000000000000\n      dup2\n      mstore\n      0x04\n      add\n      tag_140\n      swap1\n      tag_141\n      jump\t// in\n    tag_140:\n      mload(0x40)\n      dup1\n      swap2\n      sub\n      swap1\n      revert\n    tag_139:\n        /* \"contract/Lottery.sol\":4817:4818  0 */\n      0x00\n        /* \"contract/Lottery.sol\":4795:4807  participants */\n      0x00\n        /* \"contract/Lottery.sol\":4795:4814  participants.length */\n      dup1\n      sload\n      swap1\n      pop\n        /* \"contract/Lottery.sol\":4795:4818  participants.length > 0 */\n      gt\n        /* \"contract/Lottery.sol\":4787:4839  require(participants.length > 0, \"No participants.\") */\n      tag_142\n      jumpi\n      mload(0x40)\n      0x08c379a000000000000000000000000000000000000000000000000000000000\n      dup2\n      mstore\n      0x04\n      add\n      tag_143\n      swap1\n      tag_144\n      jump\t// in\n    tag_143:\n      mload(0x40)\n      dup1\n      swap2\n      sub\n      swap1\n      revert\n    tag_142:\n        /* \"contract/Lottery.sol\":4867:4879  _randomWords */\n      dup1\n        /* \"contract/Lottery.sol\":4880:4881  0 */\n      0x00\n        /* \"contract/Lottery.sol\":4867:4882  _randomWords[0] */\n      dup2\n      mload\n      dup2\n      lt\n      tag_145\n      jumpi\n      tag_146\n      tag_147\n      jump\t// in\n    tag_146:\n    tag_145:\n      0x20\n      mul\n      0x20\n      add\n      add\n      mload\n        /* \"contract/Lottery.sol\":4852:4864  randomResult */\n      0x07\n        /* \"contract/Lottery.sol\":4852:4882  randomResult = _randomWords[0] */\n      dup2\n      swap1\n      sstore\n      pop\n        /* \"contract/Lottery.sol\":4893:4914  address winnerAddress */\n      0x00\n        /* \"contract/Lottery.sol\":4917:4929  findWinner() */\n      tag_148\n        /* \"contract/Lottery.sol\":4917:4927  findWinner */\n      tag_149\n        /* \"contract/Lottery.sol\":4917:4929  findWinner() */\n      jump\t// in\n    tag_148:\n        /* \"contract/Lottery.sol\":4893:4929  address winnerAddress = findWinner() */\n      swap1\n      pop\n        /* \"contract/Lottery.sol\":4947:4989  lotterWinner(winnerAddress, monetaryPrize) */\n      0x6f2ef2e5aa9339a9d2fc1e8c9b2924cd1e974fd3dbd59f2d86f241820b7dbd76\n        /* \"contract/Lottery.sol\":4960:4973  winnerAddress */\n      dup2\n        /* \"contract/Lottery.sol\":542:549  5 ether */\n      0x4563918244f40000\n        /* \"contract/Lottery.sol\":4947:4989  lotterWinner(winnerAddress, monetaryPrize) */\n      mload(0x40)\n      tag_150\n      swap3\n      swap2\n      swap1\n      tag_151\n      jump\t// in\n    tag_150:\n      mload(0x40)\n      dup1\n      swap2\n      sub\n      swap1\n      log1\n        /* \"contract/Lottery.sol\":5008:5012  true */\n      0x01\n        /* \"contract/Lottery.sol\":5000:5005  ended */\n      0x0b\n      0x00\n        /* \"contract/Lottery.sol\":5000:5012  ended = true */\n      0x0100\n      exp\n      dup2\n      sload\n      dup2\n      0xff\n      mul\n      not\n      and\n      swap1\n      dup4\n      iszero\n      iszero\n      mul\n      or\n      swap1\n      sstore\n      pop\n        /* \"contract/Lottery.sol\":5077:5089  amountToSend */\n      sload(0x03)\n        /* \"contract/Lottery.sol\":5064:5073  msg.value */\n      callvalue\n        /* \"contract/Lottery.sol\":5064:5089  msg.value >= amountToSend */\n      lt\n      iszero\n        /* \"contract/Lottery.sol\":5056:5122  require(msg.value >= amountToSend, \"Failed to send prize amount.\") */\n      tag_152\n      jumpi\n      mload(0x40)\n      0x08c379a000000000000000000000000000000000000000000000000000000000\n      dup2\n      mstore\n      0x04\n      add\n      tag_153\n      swap1\n      tag_154\n      jump\t// in\n    tag_153:\n      mload(0x40)\n      dup1\n      swap2\n      sub\n      swap1\n      revert\n    tag_152:\n        /* \"contract/Lottery.sol\":5141:5154  winnerAddress */\n      dup1\n        /* \"contract/Lottery.sol\":5133:5164  payable(winnerAddress).transfer */\n      0xffffffffffffffffffffffffffffffffffffffff\n      and\n        /* \"contract/Lottery.sol\":5133:5178  payable(winnerAddress).transfer(amountToSend) */\n      0x08fc\n        /* \"contract/Lottery.sol\":5165:5177  amountToSend */\n      sload(0x03)\n        /* \"contract/Lottery.sol\":5133:5178  payable(winnerAddress).transfer(amountToSend) */\n      swap1\n      dup2\n      iszero\n      mul\n      swap1\n      mload(0x40)\n      0x00\n      mload(0x40)\n      dup1\n      dup4\n      sub\n      dup2\n      dup6\n      dup9\n      dup9\n      call\n      swap4\n      pop\n      pop\n      pop\n      pop\n      iszero\n      dup1\n      iszero\n      tag_156\n      jumpi\n      returndatacopy(0x00, 0x00, returndatasize)\n      revert(0x00, returndatasize)\n    tag_156:\n      pop\n        /* \"contract/Lottery.sol\":5204:5205  0 */\n      0x00\n        /* \"contract/Lottery.sol\":5189:5201  amountToSend */\n      0x03\n        /* \"contract/Lottery.sol\":5189:5205  amountToSend = 0 */\n      dup2\n      swap1\n      sstore\n      pop\n        /* \"contract/Lottery.sol\":4704:5213  {... */\n      pop\n        /* \"contract/Lottery.sol\":4581:5213  function fulfillRandomWords(... */\n      pop\n      pop\n      jump\t// out\n        /* \"@chainlink/contracts/src/v0.8/vrf/dev/libraries/VRFV2PlusClient.sol\":476:647  function _argsToBytes(... */\n    tag_134:\n        /* \"@chainlink/contracts/src/v0.8/vrf/dev/libraries/VRFV2PlusClient.sol\":559:575  bytes memory bts */\n      0x60\n        /* \"@chainlink/contracts/src/v0.8/vrf/dev/libraries/VRFV2PlusClient.sol\":211:239  keccak256(\"VRF ExtraArgsV1\") */\n      0x92fd13387c7fe7befbc38d303d6468778fb9731bc4583f17d92989c6fcfdeaaa\n        /* \"@chainlink/contracts/src/v0.8/vrf/dev/libraries/VRFV2PlusClient.sol\":632:641  extraArgs */\n      dup3\n        /* \"@chainlink/contracts/src/v0.8/vrf/dev/libraries/VRFV2PlusClient.sol\":590:642  abi.encodeWithSelector(EXTRA_ARGS_V1_TAG, extraArgs) */\n      add(0x24, mload(0x40))\n      tag_158\n      swap2\n      swap1\n      tag_159\n      jump\t// in\n    tag_158:\n      mload(0x40)\n      0x20\n      dup2\n      dup4\n      sub\n      sub\n      dup2\n      mstore\n      swap1\n      0x40\n      mstore\n      swap1\n      not(0xffffffffffffffffffffffffffffffffffffffffffffffffffffffff)\n      and\n      0x20\n      dup3\n      add\n      dup1\n      mload\n      0xffffffffffffffffffffffffffffffffffffffffffffffffffffffff\n      dup4\n      dup2\n      dup4\n      and\n      or\n      dup4\n      mstore\n      pop\n      pop\n      pop\n      pop\n        /* \"@chainlink/contracts/src/v0.8/vrf/dev/libraries/VRFV2PlusClient.sol\":583:642  return abi.encodeWithSelector(EXTRA_ARGS_V1_TAG, extraArgs) */\n      swap1\n      pop\n        /* \"@chainlink/contracts/src/v0.8/vrf/dev/libraries/VRFV2PlusClient.sol\":476:647  function _argsToBytes(... */\n      swap2\n      swap1\n      pop\n      jump\t// out\n        /* \"@chainlink/contracts/src/v0.8/vrf/dev/VRFV2PlusWrapperConsumerBase.sol\":2852:3363  function requestRandomness(... */\n    tag_136:\n        /* \"@chainlink/contracts/src/v0.8/vrf/dev/VRFV2PlusWrapperConsumerBase.sol\":3015:3032  uint256 requestId */\n      0x00\n        /* \"@chainlink/contracts/src/v0.8/vrf/dev/VRFV2PlusWrapperConsumerBase.sol\":3034:3050  uint256 reqPrice */\n      0x00\n        /* \"@chainlink/contracts/src/v0.8/vrf/dev/VRFV2PlusWrapperConsumerBase.sol\":3069:3087  i_vrfV2PlusWrapper */\n      immutable(\"0x712adca22095011a9de0b4aa84648bf2bea2744bd9326ede31e43d2a71662846\")\n        /* \"@chainlink/contracts/src/v0.8/vrf/dev/VRFV2PlusWrapperConsumerBase.sol\":3069:3109  i_vrfV2PlusWrapper.calculateRequestPrice */\n      0xffffffffffffffffffffffffffffffffffffffff\n      and\n      0x27e5c50a\n        /* \"@chainlink/contracts/src/v0.8/vrf/dev/VRFV2PlusWrapperConsumerBase.sol\":3110:3127  _callbackGasLimit */\n      dup8\n        /* \"@chainlink/contracts/src/v0.8/vrf/dev/VRFV2PlusWrapperConsumerBase.sol\":3129:3138  _numWords */\n      dup7\n        /* \"@chainlink/contracts/src/v0.8/vrf/dev/VRFV2PlusWrapperConsumerBase.sol\":3069:3139  i_vrfV2PlusWrapper.calculateRequestPrice(_callbackGasLimit, _numWords) */\n      mload(0x40)\n      dup4\n      0xffffffff\n      and\n      0xe0\n      shl\n      dup2\n      mstore\n      0x04\n      add\n      tag_161\n      swap3\n      swap2\n      swap1\n      tag_162\n      jump\t// in\n    tag_161:\n      0x20\n      mload(0x40)\n      dup1\n      dup4\n      sub\n      dup2\n      dup7\n      gas\n      staticcall\n      iszero\n      dup1\n      iszero\n      tag_164\n      jumpi\n      returndatacopy(0x00, 0x00, returndatasize)\n      revert(0x00, returndatasize)\n    tag_164:\n      pop\n      pop\n      pop\n      pop\n      mload(0x40)\n      returndatasize\n      not(0x1f)\n      0x1f\n      dup3\n      add\n      and\n      dup3\n      add\n      dup1\n      0x40\n      mstore\n      pop\n      dup2\n      add\n      swap1\n      tag_165\n      swap2\n      swap1\n      tag_166\n      jump\t// in\n    tag_165:\n        /* \"@chainlink/contracts/src/v0.8/vrf/dev/VRFV2PlusWrapperConsumerBase.sol\":3058:3139  reqPrice = i_vrfV2PlusWrapper.calculateRequestPrice(_callbackGasLimit, _numWords) */\n      swap1\n      pop\n        /* \"@chainlink/contracts/src/v0.8/vrf/dev/VRFV2PlusWrapperConsumerBase.sol\":3145:3156  i_linkToken */\n      immutable(\"0xd905fec1a56b00009651ce5a01a34d2244da02f516f67ee88b03219738dbf226\")\n        /* \"@chainlink/contracts/src/v0.8/vrf/dev/VRFV2PlusWrapperConsumerBase.sol\":3145:3172  i_linkToken.transferAndCall */\n      0xffffffffffffffffffffffffffffffffffffffff\n      and\n      0x4000aea0\n        /* \"@chainlink/contracts/src/v0.8/vrf/dev/VRFV2PlusWrapperConsumerBase.sol\":3188:3206  i_vrfV2PlusWrapper */\n      immutable(\"0x712adca22095011a9de0b4aa84648bf2bea2744bd9326ede31e43d2a71662846\")\n        /* \"@chainlink/contracts/src/v0.8/vrf/dev/VRFV2PlusWrapperConsumerBase.sol\":3209:3217  reqPrice */\n      dup4\n        /* \"@chainlink/contracts/src/v0.8/vrf/dev/VRFV2PlusWrapperConsumerBase.sol\":3230:3247  _callbackGasLimit */\n      dup10\n        /* \"@chainlink/contracts/src/v0.8/vrf/dev/VRFV2PlusWrapperConsumerBase.sol\":3249:3270  _requestConfirmations */\n      dup10\n        /* \"@chainlink/contracts/src/v0.8/vrf/dev/VRFV2PlusWrapperConsumerBase.sol\":3272:3281  _numWords */\n      dup10\n        /* \"@chainlink/contracts/src/v0.8/vrf/dev/VRFV2PlusWrapperConsumerBase.sol\":3283:3292  extraArgs */\n      dup10\n        /* \"@chainlink/contracts/src/v0.8/vrf/dev/VRFV2PlusWrapperConsumerBase.sol\":3219:3293  abi.encode(_callbackGasLimit, _requestConfirmations, _numWords, extraArgs) */\n      add(0x20, mload(0x40))\n      tag_167\n      swap5\n      swap4\n      swap3\n      swap2\n      swap1\n      tag_168\n      jump\t// in\n    tag_167:\n      mload(0x40)\n      0x20\n      dup2\n      dup4\n      sub\n      sub\n      dup2\n      mstore\n      swap1\n      0x40\n      mstore\n        /* \"@chainlink/contracts/src/v0.8/vrf/dev/VRFV2PlusWrapperConsumerBase.sol\":3145:3299  i_linkToken.transferAndCall(... */\n      mload(0x40)\n      dup5\n      0xffffffff\n      and\n      0xe0\n      shl\n      dup2\n      mstore\n      0x04\n      add\n      tag_169\n      swap4\n      swap3\n      swap2\n      swap1\n      tag_170\n      jump\t// in\n    tag_169:\n      0x20\n      mload(0x40)\n      dup1\n      dup4\n      sub\n      dup2\n      0x00\n      dup8\n      gas\n      call\n      iszero\n      dup1\n      iszero\n      tag_172\n      jumpi\n      returndatacopy(0x00, 0x00, returndatasize)\n      revert(0x00, returndatasize)\n    tag_172:\n      pop\n      pop\n      pop\n      pop\n      mload(0x40)\n      returndatasize\n      not(0x1f)\n      0x1f\n      dup3\n      add\n      and\n      dup3\n      add\n      dup1\n      0x40\n      mstore\n      pop\n      dup2\n      add\n      swap1\n      tag_173\n      swap2\n      swap1\n      tag_174\n      jump\t// in\n    tag_173:\n      pop\n        /* \"@chainlink/contracts/src/v0.8/vrf/dev/VRFV2PlusWrapperConsumerBase.sol\":3313:3331  i_vrfV2PlusWrapper */\n      immutable(\"0x712adca22095011a9de0b4aa84648bf2bea2744bd9326ede31e43d2a71662846\")\n        /* \"@chainlink/contracts/src/v0.8/vrf/dev/VRFV2PlusWrapperConsumerBase.sol\":3313:3345  i_vrfV2PlusWrapper.lastRequestId */\n      0xffffffffffffffffffffffffffffffffffffffff\n      and\n      0xfc2a88c3\n        /* \"@chainlink/contracts/src/v0.8/vrf/dev/VRFV2PlusWrapperConsumerBase.sol\":3313:3347  i_vrfV2PlusWrapper.lastRequestId() */\n      mload(0x40)\n      dup2\n      0xffffffff\n      and\n      0xe0\n      shl\n      dup2\n      mstore\n      0x04\n      add\n      0x20\n      mload(0x40)\n      dup1\n      dup4\n      sub\n      dup2\n      dup7\n      gas\n      staticcall\n      iszero\n      dup1\n      iszero\n      tag_176\n      jumpi\n      returndatacopy(0x00, 0x00, returndatasize)\n      revert(0x00, returndatasize)\n    tag_176:\n      pop\n      pop\n      pop\n      pop\n      mload(0x40)\n      returndatasize\n      not(0x1f)\n      0x1f\n      dup3\n      add\n      and\n      dup3\n      add\n      dup1\n      0x40\n      mstore\n      pop\n      dup2\n      add\n      swap1\n      tag_177\n      swap2\n      swap1\n      tag_166\n      jump\t// in\n    tag_177:\n        /* \"@chainlink/contracts/src/v0.8/vrf/dev/VRFV2PlusWrapperConsumerBase.sol\":3305:3358  return (i_vrfV2PlusWrapper.lastRequestId(), reqPrice) */\n      swap2\n      pop\n        /* \"@chainlink/contracts/src/v0.8/vrf/dev/VRFV2PlusWrapperConsumerBase.sol\":2852:3363  function requestRandomness(... */\n      swap5\n      pop\n      swap5\n      swap3\n      pop\n      pop\n      pop\n      jump\t// out\n        /* \"contract/Lottery.sol\":3839:4412  function findWinner() private view returns (address) {... */\n    tag_149:\n        /* \"contract/Lottery.sol\":3883:3890  address */\n      0x00\n        /* \"contract/Lottery.sol\":4305:4324  uint256 winnerIndex */\n      0x00\n        /* \"contract/Lottery.sol\":4342:4354  participants */\n      0x00\n        /* \"contract/Lottery.sol\":4342:4361  participants.length */\n      dup1\n      sload\n      swap1\n      pop\n        /* \"contract/Lottery.sol\":4327:4339  randomResult */\n      sload(0x07)\n        /* \"contract/Lottery.sol\":4327:4361  randomResult % participants.length */\n      tag_179\n      swap2\n      swap1\n      tag_180\n      jump\t// in\n    tag_179:\n        /* \"contract/Lottery.sol\":4305:4361  uint256 winnerIndex = randomResult % participants.length */\n      swap1\n      pop\n        /* \"contract/Lottery.sol\":4379:4391  participants */\n      0x00\n        /* \"contract/Lottery.sol\":4392:4403  winnerIndex */\n      dup2\n        /* \"contract/Lottery.sol\":4379:4404  participants[winnerIndex] */\n      dup2\n      sload\n      dup2\n      lt\n      tag_181\n      jumpi\n      tag_182\n      tag_147\n      jump\t// in\n    tag_182:\n    tag_181:\n      swap1\n      0x00\n      mstore\n      keccak256(0x00, 0x20)\n      add\n      0x00\n      swap1\n      sload\n      swap1\n      0x0100\n      exp\n      swap1\n      div\n      0xffffffffffffffffffffffffffffffffffffffff\n      and\n        /* \"contract/Lottery.sol\":4372:4404  return participants[winnerIndex] */\n      swap2\n      pop\n      pop\n        /* \"contract/Lottery.sol\":3839:4412  function findWinner() private view returns (address) {... */\n      swap1\n      jump\t// out\n        /* \"#utility.yul\":7:84   */\n    tag_184:\n        /* \"#utility.yul\":44:51   */\n      0x00\n        /* \"#utility.yul\":73:78   */\n      dup2\n        /* \"#utility.yul\":62:78   */\n      swap1\n      pop\n        /* \"#utility.yul\":7:84   */\n      swap2\n      swap1\n      pop\n      jump\t// out\n        /* \"#utility.yul\":90:208   */\n    tag_185:\n        /* \"#utility.yul\":177:201   */\n      tag_262\n        /* \"#utility.yul\":195:200   */\n      dup2\n        /* \"#utility.yul\":177:201   */\n      tag_184\n      jump\t// in\n    tag_262:\n        /* \"#utility.yul\":172:175   */\n      dup3\n        /* \"#utility.yul\":165:202   */\n      mstore\n        /* \"#utility.yul\":90:208   */\n      pop\n      pop\n      jump\t// out\n        /* \"#utility.yul\":214:436   */\n    tag_25:\n        /* \"#utility.yul\":307:311   */\n      0x00\n        /* \"#utility.yul\":345:347   */\n      0x20\n        /* \"#utility.yul\":334:343   */\n      dup3\n        /* \"#utility.yul\":330:348   */\n      add\n        /* \"#utility.yul\":322:348   */\n      swap1\n      pop\n        /* \"#utility.yul\":358:429   */\n      tag_264\n        /* \"#utility.yul\":426:427   */\n      0x00\n        /* \"#utility.yul\":415:424   */\n      dup4\n        /* \"#utility.yul\":411:428   */\n      add\n        /* \"#utility.yul\":402:408   */\n      dup5\n        /* \"#utility.yul\":358:429   */\n      tag_185\n      jump\t// in\n    tag_264:\n        /* \"#utility.yul\":214:436   */\n      swap3\n      swap2\n      pop\n      pop\n      jump\t// out\n        /* \"#utility.yul\":442:532   */\n    tag_186:\n        /* \"#utility.yul\":476:483   */\n      0x00\n        /* \"#utility.yul\":519:524   */\n      dup2\n        /* \"#utility.yul\":512:525   */\n      iszero\n        /* \"#utility.yul\":505:526   */\n      iszero\n        /* \"#utility.yul\":494:526   */\n      swap1\n      pop\n        /* \"#utility.yul\":442:532   */\n      swap2\n      swap1\n      pop\n      jump\t// out\n        /* \"#utility.yul\":538:647   */\n    tag_187:\n        /* \"#utility.yul\":619:640   */\n      tag_267\n        /* \"#utility.yul\":634:639   */\n      dup2\n        /* \"#utility.yul\":619:640   */\n      tag_186\n      jump\t// in\n    tag_267:\n        /* \"#utility.yul\":614:617   */\n      dup3\n        /* \"#utility.yul\":607:641   */\n      mstore\n        /* \"#utility.yul\":538:647   */\n      pop\n      pop\n      jump\t// out\n        /* \"#utility.yul\":653:863   */\n    tag_34:\n        /* \"#utility.yul\":740:744   */\n      0x00\n        /* \"#utility.yul\":778:780   */\n      0x20\n        /* \"#utility.yul\":767:776   */\n      dup3\n        /* \"#utility.yul\":763:781   */\n      add\n        /* \"#utility.yul\":755:781   */\n      swap1\n      pop\n        /* \"#utility.yul\":791:856   */\n      tag_269\n        /* \"#utility.yul\":853:854   */\n      0x00\n        /* \"#utility.yul\":842:851   */\n      dup4\n        /* \"#utility.yul\":838:855   */\n      add\n        /* \"#utility.yul\":829:835   */\n      dup5\n        /* \"#utility.yul\":791:856   */\n      tag_187\n      jump\t// in\n    tag_269:\n        /* \"#utility.yul\":653:863   */\n      swap3\n      swap2\n      pop\n      pop\n      jump\t// out\n        /* \"#utility.yul\":869:970   */\n    tag_188:\n        /* \"#utility.yul\":905:912   */\n      0x00\n        /* \"#utility.yul\":945:963   */\n      0xffffffffffffffff\n        /* \"#utility.yul\":938:943   */\n      dup3\n        /* \"#utility.yul\":934:964   */\n      and\n        /* \"#utility.yul\":923:964   */\n      swap1\n      pop\n        /* \"#utility.yul\":869:970   */\n      swap2\n      swap1\n      pop\n      jump\t// out\n        /* \"#utility.yul\":976:1091   */\n    tag_189:\n        /* \"#utility.yul\":1061:1084   */\n      tag_272\n        /* \"#utility.yul\":1078:1083   */\n      dup2\n        /* \"#utility.yul\":1061:1084   */\n      tag_188\n      jump\t// in\n    tag_272:\n        /* \"#utility.yul\":1056:1059   */\n      dup3\n        /* \"#utility.yul\":1049:1085   */\n      mstore\n        /* \"#utility.yul\":976:1091   */\n      pop\n      pop\n      jump\t// out\n        /* \"#utility.yul\":1097:1315   */\n    tag_39:\n        /* \"#utility.yul\":1188:1192   */\n      0x00\n        /* \"#utility.yul\":1226:1228   */\n      0x20\n        /* \"#utility.yul\":1215:1224   */\n      dup3\n        /* \"#utility.yul\":1211:1229   */\n      add\n        /* \"#utility.yul\":1203:1229   */\n      swap1\n      pop\n        /* \"#utility.yul\":1239:1308   */\n      tag_274\n        /* \"#utility.yul\":1305:1306   */\n      0x00\n        /* \"#utility.yul\":1294:1303   */\n      dup4\n        /* \"#utility.yul\":1290:1307   */\n      add\n        /* \"#utility.yul\":1281:1287   */\n      dup5\n        /* \"#utility.yul\":1239:1308   */\n      tag_189\n      jump\t// in\n    tag_274:\n        /* \"#utility.yul\":1097:1315   */\n      swap3\n      swap2\n      pop\n      pop\n      jump\t// out\n        /* \"#utility.yul\":1321:1396   */\n    tag_190:\n        /* \"#utility.yul\":1354:1360   */\n      0x00\n        /* \"#utility.yul\":1387:1389   */\n      0x40\n        /* \"#utility.yul\":1381:1390   */\n      mload\n        /* \"#utility.yul\":1371:1390   */\n      swap1\n      pop\n        /* \"#utility.yul\":1321:1396   */\n      swap1\n      jump\t// out\n        /* \"#utility.yul\":1402:1519   */\n    tag_191:\n        /* \"#utility.yul\":1511:1512   */\n      0x00\n        /* \"#utility.yul\":1508:1509   */\n      0x00\n        /* \"#utility.yul\":1501:1513   */\n      revert\n        /* \"#utility.yul\":1525:1642   */\n    tag_192:\n        /* \"#utility.yul\":1634:1635   */\n      0x00\n        /* \"#utility.yul\":1631:1632   */\n      0x00\n        /* \"#utility.yul\":1624:1636   */\n      revert\n        /* \"#utility.yul\":1648:1770   */\n    tag_193:\n        /* \"#utility.yul\":1721:1745   */\n      tag_279\n        /* \"#utility.yul\":1739:1744   */\n      dup2\n        /* \"#utility.yul\":1721:1745   */\n      tag_184\n      jump\t// in\n    tag_279:\n        /* \"#utility.yul\":1714:1719   */\n      dup2\n        /* \"#utility.yul\":1711:1746   */\n      eq\n        /* \"#utility.yul\":1701:1764   */\n      tag_280\n      jumpi\n        /* \"#utility.yul\":1760:1761   */\n      0x00\n        /* \"#utility.yul\":1757:1758   */\n      0x00\n        /* \"#utility.yul\":1750:1762   */\n      revert\n        /* \"#utility.yul\":1701:1764   */\n    tag_280:\n        /* \"#utility.yul\":1648:1770   */\n      pop\n      jump\t// out\n        /* \"#utility.yul\":1776:1915   */\n    tag_194:\n        /* \"#utility.yul\":1822:1827   */\n      0x00\n        /* \"#utility.yul\":1860:1866   */\n      dup2\n        /* \"#utility.yul\":1847:1867   */\n      calldataload\n        /* \"#utility.yul\":1838:1867   */\n      swap1\n      pop\n        /* \"#utility.yul\":1876:1909   */\n      tag_282\n        /* \"#utility.yul\":1903:1908   */\n      dup2\n        /* \"#utility.yul\":1876:1909   */\n      tag_193\n      jump\t// in\n    tag_282:\n        /* \"#utility.yul\":1776:1915   */\n      swap3\n      swap2\n      pop\n      pop\n      jump\t// out\n        /* \"#utility.yul\":1921:2038   */\n    tag_195:\n        /* \"#utility.yul\":2030:2031   */\n      0x00\n        /* \"#utility.yul\":2027:2028   */\n      0x00\n        /* \"#utility.yul\":2020:2032   */\n      revert\n        /* \"#utility.yul\":2044:2146   */\n    tag_196:\n        /* \"#utility.yul\":2085:2091   */\n      0x00\n        /* \"#utility.yul\":2136:2138   */\n      0x1f\n        /* \"#utility.yul\":2132:2139   */\n      not\n        /* \"#utility.yul\":2127:2129   */\n      0x1f\n        /* \"#utility.yul\":2120:2125   */\n      dup4\n        /* \"#utility.yul\":2116:2130   */\n      add\n        /* \"#utility.yul\":2112:2140   */\n      and\n        /* \"#utility.yul\":2102:2140   */\n      swap1\n      pop\n        /* \"#utility.yul\":2044:2146   */\n      swap2\n      swap1\n      pop\n      jump\t// out\n        /* \"#utility.yul\":2152:2332   */\n    tag_197:\n        /* \"#utility.yul\":2200:2277   */\n      0x4e487b7100000000000000000000000000000000000000000000000000000000\n        /* \"#utility.yul\":2197:2198   */\n      0x00\n        /* \"#utility.yul\":2190:2278   */\n      mstore\n        /* \"#utility.yul\":2297:2301   */\n      0x41\n        /* \"#utility.yul\":2294:2295   */\n      0x04\n        /* \"#utility.yul\":2287:2302   */\n      mstore\n        /* \"#utility.yul\":2321:2325   */\n      0x24\n        /* \"#utility.yul\":2318:2319   */\n      0x00\n        /* \"#utility.yul\":2311:2326   */\n      revert\n        /* \"#utility.yul\":2338:2619   */\n    tag_198:\n        /* \"#utility.yul\":2421:2448   */\n      tag_287\n        /* \"#utility.yul\":2443:2447   */\n      dup3\n        /* \"#utility.yul\":2421:2448   */\n      tag_196\n      jump\t// in\n    tag_287:\n        /* \"#utility.yul\":2413:2419   */\n      dup2\n        /* \"#utility.yul\":2409:2449   */\n      add\n        /* \"#utility.yul\":2551:2557   */\n      dup2\n        /* \"#utility.yul\":2539:2549   */\n      dup2\n        /* \"#utility.yul\":2536:2558   */\n      lt\n        /* \"#utility.yul\":2515:2533   */\n      0xffffffffffffffff\n        /* \"#utility.yul\":2503:2513   */\n      dup3\n        /* \"#utility.yul\":2500:2534   */\n      gt\n        /* \"#utility.yul\":2497:2559   */\n      or\n        /* \"#utility.yul\":2494:2582   */\n      iszero\n      tag_288\n      jumpi\n        /* \"#utility.yul\":2562:2580   */\n      tag_289\n      tag_197\n      jump\t// in\n    tag_289:\n        /* \"#utility.yul\":2494:2582   */\n    tag_288:\n        /* \"#utility.yul\":2602:2612   */\n      dup1\n        /* \"#utility.yul\":2598:2600   */\n      0x40\n        /* \"#utility.yul\":2591:2613   */\n      mstore\n        /* \"#utility.yul\":2381:2619   */\n      pop\n        /* \"#utility.yul\":2338:2619   */\n      pop\n      pop\n      jump\t// out\n        /* \"#utility.yul\":2625:2754   */\n    tag_199:\n        /* \"#utility.yul\":2659:2665   */\n      0x00\n        /* \"#utility.yul\":2686:2706   */\n      tag_291\n      tag_190\n      jump\t// in\n    tag_291:\n        /* \"#utility.yul\":2676:2706   */\n      swap1\n      pop\n        /* \"#utility.yul\":2715:2748   */\n      tag_292\n        /* \"#utility.yul\":2743:2747   */\n      dup3\n        /* \"#utility.yul\":2735:2741   */\n      dup3\n        /* \"#utility.yul\":2715:2748   */\n      tag_198\n      jump\t// in\n    tag_292:\n        /* \"#utility.yul\":2625:2754   */\n      swap2\n      swap1\n      pop\n      jump\t// out\n        /* \"#utility.yul\":2760:3071   */\n    tag_200:\n        /* \"#utility.yul\":2837:2841   */\n      0x00\n        /* \"#utility.yul\":2927:2945   */\n      0xffffffffffffffff\n        /* \"#utility.yul\":2919:2925   */\n      dup3\n        /* \"#utility.yul\":2916:2946   */\n      gt\n        /* \"#utility.yul\":2913:2969   */\n      iszero\n      tag_294\n      jumpi\n        /* \"#utility.yul\":2949:2967   */\n      tag_295\n      tag_197\n      jump\t// in\n    tag_295:\n        /* \"#utility.yul\":2913:2969   */\n    tag_294:\n        /* \"#utility.yul\":2999:3003   */\n      0x20\n        /* \"#utility.yul\":2991:2997   */\n      dup3\n        /* \"#utility.yul\":2987:3004   */\n      mul\n        /* \"#utility.yul\":2979:3004   */\n      swap1\n      pop\n        /* \"#utility.yul\":3059:3063   */\n      0x20\n        /* \"#utility.yul\":3053:3057   */\n      dup2\n        /* \"#utility.yul\":3049:3064   */\n      add\n        /* \"#utility.yul\":3041:3064   */\n      swap1\n      pop\n        /* \"#utility.yul\":2760:3071   */\n      swap2\n      swap1\n      pop\n      jump\t// out\n        /* \"#utility.yul\":3077:3194   */\n    tag_201:\n        /* \"#utility.yul\":3186:3187   */\n      0x00\n        /* \"#utility.yul\":3183:3184   */\n      0x00\n        /* \"#utility.yul\":3176:3188   */\n      revert\n        /* \"#utility.yul\":3217:3927   */\n    tag_202:\n        /* \"#utility.yul\":3313:3318   */\n      0x00\n        /* \"#utility.yul\":3338:3419   */\n      tag_298\n        /* \"#utility.yul\":3354:3418   */\n      tag_299\n        /* \"#utility.yul\":3411:3417   */\n      dup5\n        /* \"#utility.yul\":3354:3418   */\n      tag_200\n      jump\t// in\n    tag_299:\n        /* \"#utility.yul\":3338:3419   */\n      tag_199\n      jump\t// in\n    tag_298:\n        /* \"#utility.yul\":3329:3419   */\n      swap1\n      pop\n        /* \"#utility.yul\":3439:3444   */\n      dup1\n        /* \"#utility.yul\":3468:3474   */\n      dup4\n        /* \"#utility.yul\":3461:3466   */\n      dup3\n        /* \"#utility.yul\":3454:3475   */\n      mstore\n        /* \"#utility.yul\":3502:3506   */\n      0x20\n        /* \"#utility.yul\":3495:3500   */\n      dup3\n        /* \"#utility.yul\":3491:3507   */\n      add\n        /* \"#utility.yul\":3484:3507   */\n      swap1\n      pop\n        /* \"#utility.yul\":3555:3559   */\n      0x20\n        /* \"#utility.yul\":3547:3553   */\n      dup5\n        /* \"#utility.yul\":3543:3560   */\n      mul\n        /* \"#utility.yul\":3535:3541   */\n      dup4\n        /* \"#utility.yul\":3531:3561   */\n      add\n        /* \"#utility.yul\":3584:3587   */\n      dup6\n        /* \"#utility.yul\":3576:3582   */\n      dup2\n        /* \"#utility.yul\":3573:3588   */\n      gt\n        /* \"#utility.yul\":3570:3692   */\n      iszero\n      tag_300\n      jumpi\n        /* \"#utility.yul\":3603:3682   */\n      tag_301\n      tag_201\n      jump\t// in\n    tag_301:\n        /* \"#utility.yul\":3570:3692   */\n    tag_300:\n        /* \"#utility.yul\":3718:3724   */\n      dup4\n        /* \"#utility.yul\":3701:3921   */\n    tag_302:\n        /* \"#utility.yul\":3735:3741   */\n      dup2\n        /* \"#utility.yul\":3730:3733   */\n      dup2\n        /* \"#utility.yul\":3727:3742   */\n      lt\n        /* \"#utility.yul\":3701:3921   */\n      iszero\n      tag_304\n      jumpi\n        /* \"#utility.yul\":3810:3813   */\n      dup1\n        /* \"#utility.yul\":3839:3876   */\n      tag_305\n        /* \"#utility.yul\":3872:3875   */\n      dup9\n        /* \"#utility.yul\":3860:3870   */\n      dup3\n        /* \"#utility.yul\":3839:3876   */\n      tag_194\n      jump\t// in\n    tag_305:\n        /* \"#utility.yul\":3834:3837   */\n      dup5\n        /* \"#utility.yul\":3827:3877   */\n      mstore\n        /* \"#utility.yul\":3906:3910   */\n      0x20\n        /* \"#utility.yul\":3901:3904   */\n      dup5\n        /* \"#utility.yul\":3897:3911   */\n      add\n        /* \"#utility.yul\":3890:3911   */\n      swap4\n      pop\n        /* \"#utility.yul\":3777:3921   */\n      pop\n        /* \"#utility.yul\":3761:3765   */\n      0x20\n        /* \"#utility.yul\":3756:3759   */\n      dup2\n        /* \"#utility.yul\":3752:3766   */\n      add\n        /* \"#utility.yul\":3745:3766   */\n      swap1\n      pop\n        /* \"#utility.yul\":3701:3921   */\n      jump(tag_302)\n    tag_304:\n        /* \"#utility.yul\":3705:3726   */\n      pop\n        /* \"#utility.yul\":3319:3927   */\n      pop\n      pop\n        /* \"#utility.yul\":3217:3927   */\n      swap4\n      swap3\n      pop\n      pop\n      pop\n      jump\t// out\n        /* \"#utility.yul\":3950:4320   */\n    tag_203:\n        /* \"#utility.yul\":4021:4026   */\n      0x00\n        /* \"#utility.yul\":4070:4073   */\n      dup3\n        /* \"#utility.yul\":4063:4067   */\n      0x1f\n        /* \"#utility.yul\":4055:4061   */\n      dup4\n        /* \"#utility.yul\":4051:4068   */\n      add\n        /* \"#utility.yul\":4047:4074   */\n      slt\n        /* \"#utility.yul\":4037:4159   */\n      tag_307\n      jumpi\n        /* \"#utility.yul\":4078:4157   */\n      tag_308\n      tag_195\n      jump\t// in\n    tag_308:\n        /* \"#utility.yul\":4037:4159   */\n    tag_307:\n        /* \"#utility.yul\":4195:4201   */\n      dup2\n        /* \"#utility.yul\":4182:4202   */\n      calldataload\n        /* \"#utility.yul\":4220:4314   */\n      tag_309\n        /* \"#utility.yul\":4310:4313   */\n      dup5\n        /* \"#utility.yul\":4302:4308   */\n      dup3\n        /* \"#utility.yul\":4295:4299   */\n      0x20\n        /* \"#utility.yul\":4287:4293   */\n      dup7\n        /* \"#utility.yul\":4283:4300   */\n      add\n        /* \"#utility.yul\":4220:4314   */\n      tag_202\n      jump\t// in\n    tag_309:\n        /* \"#utility.yul\":4211:4314   */\n      swap2\n      pop\n        /* \"#utility.yul\":4027:4320   */\n      pop\n        /* \"#utility.yul\":3950:4320   */\n      swap3\n      swap2\n      pop\n      pop\n      jump\t// out\n        /* \"#utility.yul\":4326:5010   */\n    tag_43:\n        /* \"#utility.yul\":4419:4425   */\n      0x00\n        /* \"#utility.yul\":4427:4433   */\n      0x00\n        /* \"#utility.yul\":4476:4478   */\n      0x40\n        /* \"#utility.yul\":4464:4473   */\n      dup4\n        /* \"#utility.yul\":4455:4462   */\n      dup6\n        /* \"#utility.yul\":4451:4474   */\n      sub\n        /* \"#utility.yul\":4447:4479   */\n      slt\n        /* \"#utility.yul\":4444:4563   */\n      iszero\n      tag_311\n      jumpi\n        /* \"#utility.yul\":4482:4561   */\n      tag_312\n      tag_191\n      jump\t// in\n    tag_312:\n        /* \"#utility.yul\":4444:4563   */\n    tag_311:\n        /* \"#utility.yul\":4602:4603   */\n      0x00\n        /* \"#utility.yul\":4627:4680   */\n      tag_313\n        /* \"#utility.yul\":4672:4679   */\n      dup6\n        /* \"#utility.yul\":4663:4669   */\n      dup3\n        /* \"#utility.yul\":4652:4661   */\n      dup7\n        /* \"#utility.yul\":4648:4670   */\n      add\n        /* \"#utility.yul\":4627:4680   */\n      tag_194\n      jump\t// in\n    tag_313:\n        /* \"#utility.yul\":4617:4680   */\n      swap3\n      pop\n        /* \"#utility.yul\":4573:4690   */\n      pop\n        /* \"#utility.yul\":4757:4759   */\n      0x20\n        /* \"#utility.yul\":4746:4755   */\n      dup4\n        /* \"#utility.yul\":4742:4760   */\n      add\n        /* \"#utility.yul\":4729:4761   */\n      calldataload\n        /* \"#utility.yul\":4788:4806   */\n      0xffffffffffffffff\n        /* \"#utility.yul\":4780:4786   */\n      dup2\n        /* \"#utility.yul\":4777:4807   */\n      gt\n        /* \"#utility.yul\":4774:4891   */\n      iszero\n      tag_314\n      jumpi\n        /* \"#utility.yul\":4810:4889   */\n      tag_315\n      tag_192\n      jump\t// in\n    tag_315:\n        /* \"#utility.yul\":4774:4891   */\n    tag_314:\n        /* \"#utility.yul\":4915:4993   */\n      tag_316\n        /* \"#utility.yul\":4985:4992   */\n      dup6\n        /* \"#utility.yul\":4976:4982   */\n      dup3\n        /* \"#utility.yul\":4965:4974   */\n      dup7\n        /* \"#utility.yul\":4961:4983   */\n      add\n        /* \"#utility.yul\":4915:4993   */\n      tag_203\n      jump\t// in\n    tag_316:\n        /* \"#utility.yul\":4905:4993   */\n      swap2\n      pop\n        /* \"#utility.yul\":4700:5003   */\n      pop\n        /* \"#utility.yul\":4326:5010   */\n      swap3\n      pop\n      swap3\n      swap1\n      pop\n      jump\t// out\n        /* \"#utility.yul\":5016:5142   */\n    tag_204:\n        /* \"#utility.yul\":5053:5060   */\n      0x00\n        /* \"#utility.yul\":5093:5135   */\n      0xffffffffffffffffffffffffffffffffffffffff\n        /* \"#utility.yul\":5086:5091   */\n      dup3\n        /* \"#utility.yul\":5082:5136   */\n      and\n        /* \"#utility.yul\":5071:5136   */\n      swap1\n      pop\n        /* \"#utility.yul\":5016:5142   */\n      swap2\n      swap1\n      pop\n      jump\t// out\n        /* \"#utility.yul\":5148:5244   */\n    tag_205:\n        /* \"#utility.yul\":5185:5192   */\n      0x00\n        /* \"#utility.yul\":5214:5238   */\n      tag_319\n        /* \"#utility.yul\":5232:5237   */\n      dup3\n        /* \"#utility.yul\":5214:5238   */\n      tag_204\n      jump\t// in\n    tag_319:\n        /* \"#utility.yul\":5203:5238   */\n      swap1\n      pop\n        /* \"#utility.yul\":5148:5244   */\n      swap2\n      swap1\n      pop\n      jump\t// out\n        /* \"#utility.yul\":5250:5372   */\n    tag_206:\n        /* \"#utility.yul\":5323:5347   */\n      tag_321\n        /* \"#utility.yul\":5341:5346   */\n      dup2\n        /* \"#utility.yul\":5323:5347   */\n      tag_205\n      jump\t// in\n    tag_321:\n        /* \"#utility.yul\":5316:5321   */\n      dup2\n        /* \"#utility.yul\":5313:5348   */\n      eq\n        /* \"#utility.yul\":5303:5366   */\n      tag_322\n      jumpi\n        /* \"#utility.yul\":5362:5363   */\n      0x00\n        /* \"#utility.yul\":5359:5360   */\n      0x00\n        /* \"#utility.yul\":5352:5364   */\n      revert\n        /* \"#utility.yul\":5303:5366   */\n    tag_322:\n        /* \"#utility.yul\":5250:5372   */\n      pop\n      jump\t// out\n        /* \"#utility.yul\":5378:5517   */\n    tag_207:\n        /* \"#utility.yul\":5424:5429   */\n      0x00\n        /* \"#utility.yul\":5462:5468   */\n      dup2\n        /* \"#utility.yul\":5449:5469   */\n      calldataload\n        /* \"#utility.yul\":5440:5469   */\n      swap1\n      pop\n        /* \"#utility.yul\":5478:5511   */\n      tag_324\n        /* \"#utility.yul\":5505:5510   */\n      dup2\n        /* \"#utility.yul\":5478:5511   */\n      tag_206\n      jump\t// in\n    tag_324:\n        /* \"#utility.yul\":5378:5517   */\n      swap3\n      swap2\n      pop\n      pop\n      jump\t// out\n        /* \"#utility.yul\":5523:5852   */\n    tag_48:\n        /* \"#utility.yul\":5582:5588   */\n      0x00\n        /* \"#utility.yul\":5631:5633   */\n      0x20\n        /* \"#utility.yul\":5619:5628   */\n      dup3\n        /* \"#utility.yul\":5610:5617   */\n      dup5\n        /* \"#utility.yul\":5606:5629   */\n      sub\n        /* \"#utility.yul\":5602:5634   */\n      slt\n        /* \"#utility.yul\":5599:5718   */\n      iszero\n      tag_326\n      jumpi\n        /* \"#utility.yul\":5637:5716   */\n      tag_327\n      tag_191\n      jump\t// in\n    tag_327:\n        /* \"#utility.yul\":5599:5718   */\n    tag_326:\n        /* \"#utility.yul\":5757:5758   */\n      0x00\n        /* \"#utility.yul\":5782:5835   */\n      tag_328\n        /* \"#utility.yul\":5827:5834   */\n      dup5\n        /* \"#utility.yul\":5818:5824   */\n      dup3\n        /* \"#utility.yul\":5807:5816   */\n      dup6\n        /* \"#utility.yul\":5803:5825   */\n      add\n        /* \"#utility.yul\":5782:5835   */\n      tag_207\n      jump\t// in\n    tag_328:\n        /* \"#utility.yul\":5772:5835   */\n      swap2\n      pop\n        /* \"#utility.yul\":5728:5845   */\n      pop\n        /* \"#utility.yul\":5523:5852   */\n      swap3\n      swap2\n      pop\n      pop\n      jump\t// out\n        /* \"#utility.yul\":5858:5918   */\n    tag_208:\n        /* \"#utility.yul\":5886:5889   */\n      0x00\n        /* \"#utility.yul\":5907:5912   */\n      dup2\n        /* \"#utility.yul\":5900:5912   */\n      swap1\n      pop\n        /* \"#utility.yul\":5858:5918   */\n      swap2\n      swap1\n      pop\n      jump\t// out\n        /* \"#utility.yul\":5924:6066   */\n    tag_209:\n        /* \"#utility.yul\":5974:5983   */\n      0x00\n        /* \"#utility.yul\":6007:6060   */\n      tag_331\n        /* \"#utility.yul\":6025:6059   */\n      tag_332\n        /* \"#utility.yul\":6034:6058   */\n      tag_333\n        /* \"#utility.yul\":6052:6057   */\n      dup5\n        /* \"#utility.yul\":6034:6058   */\n      tag_204\n      jump\t// in\n    tag_333:\n        /* \"#utility.yul\":6025:6059   */\n      tag_208\n      jump\t// in\n    tag_332:\n        /* \"#utility.yul\":6007:6060   */\n      tag_204\n      jump\t// in\n    tag_331:\n        /* \"#utility.yul\":5994:6060   */\n      swap1\n      pop\n        /* \"#utility.yul\":5924:6066   */\n      swap2\n      swap1\n      pop\n      jump\t// out\n        /* \"#utility.yul\":6072:6198   */\n    tag_210:\n        /* \"#utility.yul\":6122:6131   */\n      0x00\n        /* \"#utility.yul\":6155:6192   */\n      tag_335\n        /* \"#utility.yul\":6186:6191   */\n      dup3\n        /* \"#utility.yul\":6155:6192   */\n      tag_209\n      jump\t// in\n    tag_335:\n        /* \"#utility.yul\":6142:6192   */\n      swap1\n      pop\n        /* \"#utility.yul\":6072:6198   */\n      swap2\n      swap1\n      pop\n      jump\t// out\n        /* \"#utility.yul\":6204:6355   */\n    tag_211:\n        /* \"#utility.yul\":6279:6288   */\n      0x00\n        /* \"#utility.yul\":6312:6349   */\n      tag_337\n        /* \"#utility.yul\":6343:6348   */\n      dup3\n        /* \"#utility.yul\":6312:6349   */\n      tag_210\n      jump\t// in\n    tag_337:\n        /* \"#utility.yul\":6299:6349   */\n      swap1\n      pop\n        /* \"#utility.yul\":6204:6355   */\n      swap2\n      swap1\n      pop\n      jump\t// out\n        /* \"#utility.yul\":6361:6542   */\n    tag_212:\n        /* \"#utility.yul\":6473:6535   */\n      tag_339\n        /* \"#utility.yul\":6529:6534   */\n      dup2\n        /* \"#utility.yul\":6473:6535   */\n      tag_211\n      jump\t// in\n    tag_339:\n        /* \"#utility.yul\":6468:6471   */\n      dup3\n        /* \"#utility.yul\":6461:6536   */\n      mstore\n        /* \"#utility.yul\":6361:6542   */\n      pop\n      pop\n      jump\t// out\n        /* \"#utility.yul\":6548:6820   */\n    tag_74:\n        /* \"#utility.yul\":6666:6670   */\n      0x00\n        /* \"#utility.yul\":6704:6706   */\n      0x20\n        /* \"#utility.yul\":6693:6702   */\n      dup3\n        /* \"#utility.yul\":6689:6707   */\n      add\n        /* \"#utility.yul\":6681:6707   */\n      swap1\n      pop\n        /* \"#utility.yul\":6717:6813   */\n      tag_341\n        /* \"#utility.yul\":6810:6811   */\n      0x00\n        /* \"#utility.yul\":6799:6808   */\n      dup4\n        /* \"#utility.yul\":6795:6812   */\n      add\n        /* \"#utility.yul\":6786:6792   */\n      dup5\n        /* \"#utility.yul\":6717:6813   */\n      tag_212\n      jump\t// in\n    tag_341:\n        /* \"#utility.yul\":6548:6820   */\n      swap3\n      swap2\n      pop\n      pop\n      jump\t// out\n        /* \"#utility.yul\":6826:6977   */\n    tag_213:\n        /* \"#utility.yul\":6901:6910   */\n      0x00\n        /* \"#utility.yul\":6934:6971   */\n      tag_343\n        /* \"#utility.yul\":6965:6970   */\n      dup3\n        /* \"#utility.yul\":6934:6971   */\n      tag_210\n      jump\t// in\n    tag_343:\n        /* \"#utility.yul\":6921:6971   */\n      swap1\n      pop\n        /* \"#utility.yul\":6826:6977   */\n      swap2\n      swap1\n      pop\n      jump\t// out\n        /* \"#utility.yul\":6983:7164   */\n    tag_214:\n        /* \"#utility.yul\":7095:7157   */\n      tag_345\n        /* \"#utility.yul\":7151:7156   */\n      dup2\n        /* \"#utility.yul\":7095:7157   */\n      tag_213\n      jump\t// in\n    tag_345:\n        /* \"#utility.yul\":7090:7093   */\n      dup3\n        /* \"#utility.yul\":7083:7158   */\n      mstore\n        /* \"#utility.yul\":6983:7164   */\n      pop\n      pop\n      jump\t// out\n        /* \"#utility.yul\":7170:7442   */\n    tag_82:\n        /* \"#utility.yul\":7288:7292   */\n      0x00\n        /* \"#utility.yul\":7326:7328   */\n      0x20\n        /* \"#utility.yul\":7315:7324   */\n      dup3\n        /* \"#utility.yul\":7311:7329   */\n      add\n        /* \"#utility.yul\":7303:7329   */\n      swap1\n      pop\n        /* \"#utility.yul\":7339:7435   */\n      tag_347\n        /* \"#utility.yul\":7432:7433   */\n      0x00\n        /* \"#utility.yul\":7421:7430   */\n      dup4\n        /* \"#utility.yul\":7417:7434   */\n      add\n        /* \"#utility.yul\":7408:7414   */\n      dup5\n        /* \"#utility.yul\":7339:7435   */\n      tag_214\n      jump\t// in\n    tag_347:\n        /* \"#utility.yul\":7170:7442   */\n      swap3\n      swap2\n      pop\n      pop\n      jump\t// out\n        /* \"#utility.yul\":7448:7552   */\n    tag_215:\n        /* \"#utility.yul\":7493:7500   */\n      0x00\n        /* \"#utility.yul\":7522:7546   */\n      tag_349\n        /* \"#utility.yul\":7540:7545   */\n      dup3\n        /* \"#utility.yul\":7522:7546   */\n      tag_204\n      jump\t// in\n    tag_349:\n        /* \"#utility.yul\":7511:7546   */\n      swap1\n      pop\n        /* \"#utility.yul\":7448:7552   */\n      swap2\n      swap1\n      pop\n      jump\t// out\n        /* \"#utility.yul\":7558:7700   */\n    tag_216:\n        /* \"#utility.yul\":7661:7693   */\n      tag_351\n        /* \"#utility.yul\":7687:7692   */\n      dup2\n        /* \"#utility.yul\":7661:7693   */\n      tag_215\n      jump\t// in\n    tag_351:\n        /* \"#utility.yul\":7656:7659   */\n      dup3\n        /* \"#utility.yul\":7649:7694   */\n      mstore\n        /* \"#utility.yul\":7558:7700   */\n      pop\n      pop\n      jump\t// out\n        /* \"#utility.yul\":7706:7960   */\n    tag_87:\n        /* \"#utility.yul\":7815:7819   */\n      0x00\n        /* \"#utility.yul\":7853:7855   */\n      0x20\n        /* \"#utility.yul\":7842:7851   */\n      dup3\n        /* \"#utility.yul\":7838:7856   */\n      add\n        /* \"#utility.yul\":7830:7856   */\n      swap1\n      pop\n        /* \"#utility.yul\":7866:7953   */\n      tag_353\n        /* \"#utility.yul\":7950:7951   */\n      0x00\n        /* \"#utility.yul\":7939:7948   */\n      dup4\n        /* \"#utility.yul\":7935:7952   */\n      add\n        /* \"#utility.yul\":7926:7932   */\n      dup5\n        /* \"#utility.yul\":7866:7953   */\n      tag_216\n      jump\t// in\n    tag_353:\n        /* \"#utility.yul\":7706:7960   */\n      swap3\n      swap2\n      pop\n      pop\n      jump\t// out\n        /* \"#utility.yul\":7966:8084   */\n    tag_217:\n        /* \"#utility.yul\":8053:8077   */\n      tag_355\n        /* \"#utility.yul\":8071:8076   */\n      dup2\n        /* \"#utility.yul\":8053:8077   */\n      tag_205\n      jump\t// in\n    tag_355:\n        /* \"#utility.yul\":8048:8051   */\n      dup3\n        /* \"#utility.yul\":8041:8078   */\n      mstore\n        /* \"#utility.yul\":7966:8084   */\n      pop\n      pop\n      jump\t// out\n        /* \"#utility.yul\":8090:8422   */\n    tag_96:\n        /* \"#utility.yul\":8211:8215   */\n      0x00\n        /* \"#utility.yul\":8249:8251   */\n      0x40\n        /* \"#utility.yul\":8238:8247   */\n      dup3\n        /* \"#utility.yul\":8234:8252   */\n      add\n        /* \"#utility.yul\":8226:8252   */\n      swap1\n      pop\n        /* \"#utility.yul\":8262:8333   */\n      tag_357\n        /* \"#utility.yul\":8330:8331   */\n      0x00\n        /* \"#utility.yul\":8319:8328   */\n      dup4\n        /* \"#utility.yul\":8315:8332   */\n      add\n        /* \"#utility.yul\":8306:8312   */\n      dup6\n        /* \"#utility.yul\":8262:8333   */\n      tag_217\n      jump\t// in\n    tag_357:\n        /* \"#utility.yul\":8343:8415   */\n      tag_358\n        /* \"#utility.yul\":8411:8413   */\n      0x20\n        /* \"#utility.yul\":8400:8409   */\n      dup4\n        /* \"#utility.yul\":8396:8414   */\n      add\n        /* \"#utility.yul\":8387:8393   */\n      dup5\n        /* \"#utility.yul\":8343:8415   */\n      tag_217\n      jump\t// in\n    tag_358:\n        /* \"#utility.yul\":8090:8422   */\n      swap4\n      swap3\n      pop\n      pop\n      pop\n      jump\t// out\n        /* \"#utility.yul\":8428:8597   */\n    tag_218:\n        /* \"#utility.yul\":8512:8523   */\n      0x00\n        /* \"#utility.yul\":8546:8552   */\n      dup3\n        /* \"#utility.yul\":8541:8544   */\n      dup3\n        /* \"#utility.yul\":8534:8553   */\n      mstore\n        /* \"#utility.yul\":8586:8590   */\n      0x20\n        /* \"#utility.yul\":8581:8584   */\n      dup3\n        /* \"#utility.yul\":8577:8591   */\n      add\n        /* \"#utility.yul\":8562:8591   */\n      swap1\n      pop\n        /* \"#utility.yul\":8428:8597   */\n      swap3\n      swap2\n      pop\n      pop\n      jump\t// out\n        /* \"#utility.yul\":8603:8771   */\n    tag_219:\n        /* \"#utility.yul\":8743:8763   */\n      0x4c6f74746572792068617320656e6465642e0000000000000000000000000000\n        /* \"#utility.yul\":8739:8740   */\n      0x00\n        /* \"#utility.yul\":8731:8737   */\n      dup3\n        /* \"#utility.yul\":8727:8741   */\n      add\n        /* \"#utility.yul\":8720:8764   */\n      mstore\n        /* \"#utility.yul\":8603:8771   */\n      pop\n      jump\t// out\n        /* \"#utility.yul\":8777:9143   */\n    tag_220:\n        /* \"#utility.yul\":8919:8922   */\n      0x00\n        /* \"#utility.yul\":8940:9007   */\n      tag_362\n        /* \"#utility.yul\":9004:9006   */\n      0x12\n        /* \"#utility.yul\":8999:9002   */\n      dup4\n        /* \"#utility.yul\":8940:9007   */\n      tag_218\n      jump\t// in\n    tag_362:\n        /* \"#utility.yul\":8933:9007   */\n      swap2\n      pop\n        /* \"#utility.yul\":9016:9109   */\n      tag_363\n        /* \"#utility.yul\":9105:9108   */\n      dup3\n        /* \"#utility.yul\":9016:9109   */\n      tag_219\n      jump\t// in\n    tag_363:\n        /* \"#utility.yul\":9134:9136   */\n      0x20\n        /* \"#utility.yul\":9129:9132   */\n      dup3\n        /* \"#utility.yul\":9125:9137   */\n      add\n        /* \"#utility.yul\":9118:9137   */\n      swap1\n      pop\n        /* \"#utility.yul\":8777:9143   */\n      swap2\n      swap1\n      pop\n      jump\t// out\n        /* \"#utility.yul\":9149:9568   */\n    tag_103:\n        /* \"#utility.yul\":9315:9319   */\n      0x00\n        /* \"#utility.yul\":9353:9355   */\n      0x20\n        /* \"#utility.yul\":9342:9351   */\n      dup3\n        /* \"#utility.yul\":9338:9356   */\n      add\n        /* \"#utility.yul\":9330:9356   */\n      swap1\n      pop\n        /* \"#utility.yul\":9402:9411   */\n      dup2\n        /* \"#utility.yul\":9396:9400   */\n      dup2\n        /* \"#utility.yul\":9392:9412   */\n      sub\n        /* \"#utility.yul\":9388:9389   */\n      0x00\n        /* \"#utility.yul\":9377:9386   */\n      dup4\n        /* \"#utility.yul\":9373:9390   */\n      add\n        /* \"#utility.yul\":9366:9413   */\n      mstore\n        /* \"#utility.yul\":9430:9561   */\n      tag_365\n        /* \"#utility.yul\":9556:9560   */\n      dup2\n        /* \"#utility.yul\":9430:9561   */\n      tag_220\n      jump\t// in\n    tag_365:\n        /* \"#utility.yul\":9422:9561   */\n      swap1\n      pop\n        /* \"#utility.yul\":9149:9568   */\n      swap2\n      swap1\n      pop\n      jump\t// out\n        /* \"#utility.yul\":9574:9737   */\n    tag_221:\n        /* \"#utility.yul\":9714:9729   */\n      0x57726f6e6720416d6f756e742e00000000000000000000000000000000000000\n        /* \"#utility.yul\":9710:9711   */\n      0x00\n        /* \"#utility.yul\":9702:9708   */\n      dup3\n        /* \"#utility.yul\":9698:9712   */\n      add\n        /* \"#utility.yul\":9691:9730   */\n      mstore\n        /* \"#utility.yul\":9574:9737   */\n      pop\n      jump\t// out\n        /* \"#utility.yul\":9743:10109   */\n    tag_222:\n        /* \"#utility.yul\":9885:9888   */\n      0x00\n        /* \"#utility.yul\":9906:9973   */\n      tag_368\n        /* \"#utility.yul\":9970:9972   */\n      0x0d\n        /* \"#utility.yul\":9965:9968   */\n      dup4\n        /* \"#utility.yul\":9906:9973   */\n      tag_218\n      jump\t// in\n    tag_368:\n        /* \"#utility.yul\":9899:9973   */\n      swap2\n      pop\n        /* \"#utility.yul\":9982:10075   */\n      tag_369\n        /* \"#utility.yul\":10071:10074   */\n      dup3\n        /* \"#utility.yul\":9982:10075   */\n      tag_221\n      jump\t// in\n    tag_369:\n        /* \"#utility.yul\":10100:10102   */\n      0x20\n        /* \"#utility.yul\":10095:10098   */\n      dup3\n        /* \"#utility.yul\":10091:10103   */\n      add\n        /* \"#utility.yul\":10084:10103   */\n      swap1\n      pop\n        /* \"#utility.yul\":9743:10109   */\n      swap2\n      swap1\n      pop\n      jump\t// out\n        /* \"#utility.yul\":10115:10534   */\n    tag_106:\n        /* \"#utility.yul\":10281:10285   */\n      0x00\n        /* \"#utility.yul\":10319:10321   */\n      0x20\n        /* \"#utility.yul\":10308:10317   */\n      dup3\n        /* \"#utility.yul\":10304:10322   */\n      add\n        /* \"#utility.yul\":10296:10322   */\n      swap1\n      pop\n        /* \"#utility.yul\":10368:10377   */\n      dup2\n        /* \"#utility.yul\":10362:10366   */\n      dup2\n        /* \"#utility.yul\":10358:10378   */\n      sub\n        /* \"#utility.yul\":10354:10355   */\n      0x00\n        /* \"#utility.yul\":10343:10352   */\n      dup4\n        /* \"#utility.yul\":10339:10356   */\n      add\n        /* \"#utility.yul\":10332:10379   */\n      mstore\n        /* \"#utility.yul\":10396:10527   */\n      tag_371\n        /* \"#utility.yul\":10522:10526   */\n      dup2\n        /* \"#utility.yul\":10396:10527   */\n      tag_222\n      jump\t// in\n    tag_371:\n        /* \"#utility.yul\":10388:10527   */\n      swap1\n      pop\n        /* \"#utility.yul\":10115:10534   */\n      swap2\n      swap1\n      pop\n      jump\t// out\n        /* \"#utility.yul\":10540:10711   */\n    tag_223:\n        /* \"#utility.yul\":10680:10703   */\n      0x54686973206c6f74746572792069732066756c6c2e0000000000000000000000\n        /* \"#utility.yul\":10676:10677   */\n      0x00\n        /* \"#utility.yul\":10668:10674   */\n      dup3\n        /* \"#utility.yul\":10664:10678   */\n      add\n        /* \"#utility.yul\":10657:10704   */\n      mstore\n        /* \"#utility.yul\":10540:10711   */\n      pop\n      jump\t// out\n        /* \"#utility.yul\":10717:11083   */\n    tag_224:\n        /* \"#utility.yul\":10859:10862   */\n      0x00\n        /* \"#utility.yul\":10880:10947   */\n      tag_374\n        /* \"#utility.yul\":10944:10946   */\n      0x15\n        /* \"#utility.yul\":10939:10942   */\n      dup4\n        /* \"#utility.yul\":10880:10947   */\n      tag_218\n      jump\t// in\n    tag_374:\n        /* \"#utility.yul\":10873:10947   */\n      swap2\n      pop\n        /* \"#utility.yul\":10956:11049   */\n      tag_375\n        /* \"#utility.yul\":11045:11048   */\n      dup3\n        /* \"#utility.yul\":10956:11049   */\n      tag_223\n      jump\t// in\n    tag_375:\n        /* \"#utility.yul\":11074:11076   */\n      0x20\n        /* \"#utility.yul\":11069:11072   */\n      dup3\n        /* \"#utility.yul\":11065:11077   */\n      add\n        /* \"#utility.yul\":11058:11077   */\n      swap1\n      pop\n        /* \"#utility.yul\":10717:11083   */\n      swap2\n      swap1\n      pop\n      jump\t// out\n        /* \"#utility.yul\":11089:11508   */\n    tag_109:\n        /* \"#utility.yul\":11255:11259   */\n      0x00\n        /* \"#utility.yul\":11293:11295   */\n      0x20\n        /* \"#utility.yul\":11282:11291   */\n      dup3\n        /* \"#utility.yul\":11278:11296   */\n      add\n        /* \"#utility.yul\":11270:11296   */\n      swap1\n      pop\n        /* \"#utility.yul\":11342:11351   */\n      dup2\n        /* \"#utility.yul\":11336:11340   */\n      dup2\n        /* \"#utility.yul\":11332:11352   */\n      sub\n        /* \"#utility.yul\":11328:11329   */\n      0x00\n        /* \"#utility.yul\":11317:11326   */\n      dup4\n        /* \"#utility.yul\":11313:11330   */\n      add\n        /* \"#utility.yul\":11306:11353   */\n      mstore\n        /* \"#utility.yul\":11370:11501   */\n      tag_377\n        /* \"#utility.yul\":11496:11500   */\n      dup2\n        /* \"#utility.yul\":11370:11501   */\n      tag_224\n      jump\t// in\n    tag_377:\n        /* \"#utility.yul\":11362:11501   */\n      swap1\n      pop\n        /* \"#utility.yul\":11089:11508   */\n      swap2\n      swap1\n      pop\n      jump\t// out\n        /* \"#utility.yul\":11514:11738   */\n    tag_225:\n        /* \"#utility.yul\":11654:11688   */\n      0x596f75206861766520616c7265616479206a6f696e65642074686973206c6f74\n        /* \"#utility.yul\":11650:11651   */\n      0x00\n        /* \"#utility.yul\":11642:11648   */\n      dup3\n        /* \"#utility.yul\":11638:11652   */\n      add\n        /* \"#utility.yul\":11631:11689   */\n      mstore\n        /* \"#utility.yul\":11723:11730   */\n      0x746572792e000000000000000000000000000000000000000000000000000000\n        /* \"#utility.yul\":11718:11720   */\n      0x20\n        /* \"#utility.yul\":11710:11716   */\n      dup3\n        /* \"#utility.yul\":11706:11721   */\n      add\n        /* \"#utility.yul\":11699:11731   */\n      mstore\n        /* \"#utility.yul\":11514:11738   */\n      pop\n      jump\t// out\n        /* \"#utility.yul\":11744:12110   */\n    tag_226:\n        /* \"#utility.yul\":11886:11889   */\n      0x00\n        /* \"#utility.yul\":11907:11974   */\n      tag_380\n        /* \"#utility.yul\":11971:11973   */\n      0x25\n        /* \"#utility.yul\":11966:11969   */\n      dup4\n        /* \"#utility.yul\":11907:11974   */\n      tag_218\n      jump\t// in\n    tag_380:\n        /* \"#utility.yul\":11900:11974   */\n      swap2\n      pop\n        /* \"#utility.yul\":11983:12076   */\n      tag_381\n        /* \"#utility.yul\":12072:12075   */\n      dup3\n        /* \"#utility.yul\":11983:12076   */\n      tag_225\n      jump\t// in\n    tag_381:\n        /* \"#utility.yul\":12101:12103   */\n      0x40\n        /* \"#utility.yul\":12096:12099   */\n      dup3\n        /* \"#utility.yul\":12092:12104   */\n      add\n        /* \"#utility.yul\":12085:12104   */\n      swap1\n      pop\n        /* \"#utility.yul\":11744:12110   */\n      swap2\n      swap1\n      pop\n      jump\t// out\n        /* \"#utility.yul\":12116:12535   */\n    tag_112:\n        /* \"#utility.yul\":12282:12286   */\n      0x00\n        /* \"#utility.yul\":12320:12322   */\n      0x20\n        /* \"#utility.yul\":12309:12318   */\n      dup3\n        /* \"#utility.yul\":12305:12323   */\n      add\n        /* \"#utility.yul\":12297:12323   */\n      swap1\n      pop\n        /* \"#utility.yul\":12369:12378   */\n      dup2\n        /* \"#utility.yul\":12363:12367   */\n      dup2\n        /* \"#utility.yul\":12359:12379   */\n      sub\n        /* \"#utility.yul\":12355:12356   */\n      0x00\n        /* \"#utility.yul\":12344:12353   */\n      dup4\n        /* \"#utility.yul\":12340:12357   */\n      add\n        /* \"#utility.yul\":12333:12380   */\n      mstore\n        /* \"#utility.yul\":12397:12528   */\n      tag_383\n        /* \"#utility.yul\":12523:12527   */\n      dup2\n        /* \"#utility.yul\":12397:12528   */\n      tag_226\n      jump\t// in\n    tag_383:\n        /* \"#utility.yul\":12389:12528   */\n      swap1\n      pop\n        /* \"#utility.yul\":12116:12535   */\n      swap2\n      swap1\n      pop\n      jump\t// out\n        /* \"#utility.yul\":12541:12697   */\n    tag_227:\n        /* \"#utility.yul\":12681:12689   */\n      0x6a6f696e65640000000000000000000000000000000000000000000000000000\n        /* \"#utility.yul\":12677:12678   */\n      0x00\n        /* \"#utility.yul\":12669:12675   */\n      dup3\n        /* \"#utility.yul\":12665:12679   */\n      add\n        /* \"#utility.yul\":12658:12690   */\n      mstore\n        /* \"#utility.yul\":12541:12697   */\n      pop\n      jump\t// out\n        /* \"#utility.yul\":12703:13068   */\n    tag_228:\n        /* \"#utility.yul\":12845:12848   */\n      0x00\n        /* \"#utility.yul\":12866:12932   */\n      tag_386\n        /* \"#utility.yul\":12930:12931   */\n      0x06\n        /* \"#utility.yul\":12925:12928   */\n      dup4\n        /* \"#utility.yul\":12866:12932   */\n      tag_218\n      jump\t// in\n    tag_386:\n        /* \"#utility.yul\":12859:12932   */\n      swap2\n      pop\n        /* \"#utility.yul\":12941:13034   */\n      tag_387\n        /* \"#utility.yul\":13030:13033   */\n      dup3\n        /* \"#utility.yul\":12941:13034   */\n      tag_227\n      jump\t// in\n    tag_387:\n        /* \"#utility.yul\":13059:13061   */\n      0x20\n        /* \"#utility.yul\":13054:13057   */\n      dup3\n        /* \"#utility.yul\":13050:13062   */\n      add\n        /* \"#utility.yul\":13043:13062   */\n      swap1\n      pop\n        /* \"#utility.yul\":12703:13068   */\n      swap2\n      swap1\n      pop\n      jump\t// out\n        /* \"#utility.yul\":13074:13603   */\n    tag_115:\n        /* \"#utility.yul\":13268:13272   */\n      0x00\n        /* \"#utility.yul\":13306:13308   */\n      0x40\n        /* \"#utility.yul\":13295:13304   */\n      dup3\n        /* \"#utility.yul\":13291:13309   */\n      add\n        /* \"#utility.yul\":13283:13309   */\n      swap1\n      pop\n        /* \"#utility.yul\":13319:13390   */\n      tag_389\n        /* \"#utility.yul\":13387:13388   */\n      0x00\n        /* \"#utility.yul\":13376:13385   */\n      dup4\n        /* \"#utility.yul\":13372:13389   */\n      add\n        /* \"#utility.yul\":13363:13369   */\n      dup5\n        /* \"#utility.yul\":13319:13390   */\n      tag_217\n      jump\t// in\n    tag_389:\n        /* \"#utility.yul\":13437:13446   */\n      dup2\n        /* \"#utility.yul\":13431:13435   */\n      dup2\n        /* \"#utility.yul\":13427:13447   */\n      sub\n        /* \"#utility.yul\":13422:13424   */\n      0x20\n        /* \"#utility.yul\":13411:13420   */\n      dup4\n        /* \"#utility.yul\":13407:13425   */\n      add\n        /* \"#utility.yul\":13400:13448   */\n      mstore\n        /* \"#utility.yul\":13465:13596   */\n      tag_390\n        /* \"#utility.yul\":13591:13595   */\n      dup2\n        /* \"#utility.yul\":13465:13596   */\n      tag_228\n      jump\t// in\n    tag_390:\n        /* \"#utility.yul\":13457:13596   */\n      swap1\n      pop\n        /* \"#utility.yul\":13074:13603   */\n      swap3\n      swap2\n      pop\n      pop\n      jump\t// out\n        /* \"#utility.yul\":13609:13780   */\n    tag_229:\n        /* \"#utility.yul\":13749:13772   */\n      0x596f7520617265206e6f742074686520686f73742e0000000000000000000000\n        /* \"#utility.yul\":13745:13746   */\n      0x00\n        /* \"#utility.yul\":13737:13743   */\n      dup3\n        /* \"#utility.yul\":13733:13747   */\n      add\n        /* \"#utility.yul\":13726:13773   */\n      mstore\n        /* \"#utility.yul\":13609:13780   */\n      pop\n      jump\t// out\n        /* \"#utility.yul\":13786:14152   */\n    tag_230:\n        /* \"#utility.yul\":13928:13931   */\n      0x00\n        /* \"#utility.yul\":13949:14016   */\n      tag_393\n        /* \"#utility.yul\":14013:14015   */\n      0x15\n        /* \"#utility.yul\":14008:14011   */\n      dup4\n        /* \"#utility.yul\":13949:14016   */\n      tag_218\n      jump\t// in\n    tag_393:\n        /* \"#utility.yul\":13942:14016   */\n      swap2\n      pop\n        /* \"#utility.yul\":14025:14118   */\n      tag_394\n        /* \"#utility.yul\":14114:14117   */\n      dup3\n        /* \"#utility.yul\":14025:14118   */\n      tag_229\n      jump\t// in\n    tag_394:\n        /* \"#utility.yul\":14143:14145   */\n      0x20\n        /* \"#utility.yul\":14138:14141   */\n      dup3\n        /* \"#utility.yul\":14134:14146   */\n      add\n        /* \"#utility.yul\":14127:14146   */\n      swap1\n      pop\n        /* \"#utility.yul\":13786:14152   */\n      swap2\n      swap1\n      pop\n      jump\t// out\n        /* \"#utility.yul\":14158:14577   */\n    tag_119:\n        /* \"#utility.yul\":14324:14328   */\n      0x00\n        /* \"#utility.yul\":14362:14364   */\n      0x20\n        /* \"#utility.yul\":14351:14360   */\n      dup3\n        /* \"#utility.yul\":14347:14365   */\n      add\n        /* \"#utility.yul\":14339:14365   */\n      swap1\n      pop\n        /* \"#utility.yul\":14411:14420   */\n      dup2\n        /* \"#utility.yul\":14405:14409   */\n      dup2\n        /* \"#utility.yul\":14401:14421   */\n      sub\n        /* \"#utility.yul\":14397:14398   */\n      0x00\n        /* \"#utility.yul\":14386:14395   */\n      dup4\n        /* \"#utility.yul\":14382:14399   */\n      add\n        /* \"#utility.yul\":14375:14422   */\n      mstore\n        /* \"#utility.yul\":14439:14570   */\n      tag_396\n        /* \"#utility.yul\":14565:14569   */\n      dup2\n        /* \"#utility.yul\":14439:14570   */\n      tag_230\n      jump\t// in\n    tag_396:\n        /* \"#utility.yul\":14431:14570   */\n      swap1\n      pop\n        /* \"#utility.yul\":14158:14577   */\n      swap2\n      swap1\n      pop\n      jump\t// out\n        /* \"#utility.yul\":14583:14758   */\n    tag_231:\n        /* \"#utility.yul\":14723:14750   */\n      0x4c6f74746572792068617320616c726561647920656e64656400000000000000\n        /* \"#utility.yul\":14719:14720   */\n      0x00\n        /* \"#utility.yul\":14711:14717   */\n      dup3\n        /* \"#utility.yul\":14707:14721   */\n      add\n        /* \"#utility.yul\":14700:14751   */\n      mstore\n        /* \"#utility.yul\":14583:14758   */\n      pop\n      jump\t// out\n        /* \"#utility.yul\":14764:15130   */\n    tag_232:\n        /* \"#utility.yul\":14906:14909   */\n      0x00\n        /* \"#utility.yul\":14927:14994   */\n      tag_399\n        /* \"#utility.yul\":14991:14993   */\n      0x19\n        /* \"#utility.yul\":14986:14989   */\n      dup4\n        /* \"#utility.yul\":14927:14994   */\n      tag_218\n      jump\t// in\n    tag_399:\n        /* \"#utility.yul\":14920:14994   */\n      swap2\n      pop\n        /* \"#utility.yul\":15003:15096   */\n      tag_400\n        /* \"#utility.yul\":15092:15095   */\n      dup3\n        /* \"#utility.yul\":15003:15096   */\n      tag_231\n      jump\t// in\n    tag_400:\n        /* \"#utility.yul\":15121:15123   */\n      0x20\n        /* \"#utility.yul\":15116:15119   */\n      dup3\n        /* \"#utility.yul\":15112:15124   */\n      add\n        /* \"#utility.yul\":15105:15124   */\n      swap1\n      pop\n        /* \"#utility.yul\":14764:15130   */\n      swap2\n      swap1\n      pop\n      jump\t// out\n        /* \"#utility.yul\":15136:15555   */\n    tag_123:\n        /* \"#utility.yul\":15302:15306   */\n      0x00\n        /* \"#utility.yul\":15340:15342   */\n      0x20\n        /* \"#utility.yul\":15329:15338   */\n      dup3\n        /* \"#utility.yul\":15325:15343   */\n      add\n        /* \"#utility.yul\":15317:15343   */\n      swap1\n      pop\n        /* \"#utility.yul\":15389:15398   */\n      dup2\n        /* \"#utility.yul\":15383:15387   */\n      dup2\n        /* \"#utility.yul\":15379:15399   */\n      sub\n        /* \"#utility.yul\":15375:15376   */\n      0x00\n        /* \"#utility.yul\":15364:15373   */\n      dup4\n        /* \"#utility.yul\":15360:15377   */\n      add\n        /* \"#utility.yul\":15353:15400   */\n      mstore\n        /* \"#utility.yul\":15417:15548   */\n      tag_402\n        /* \"#utility.yul\":15543:15547   */\n      dup2\n        /* \"#utility.yul\":15417:15548   */\n      tag_232\n      jump\t// in\n    tag_402:\n        /* \"#utility.yul\":15409:15548   */\n      swap1\n      pop\n        /* \"#utility.yul\":15136:15555   */\n      swap2\n      swap1\n      pop\n      jump\t// out\n        /* \"#utility.yul\":15561:15797   */\n    tag_233:\n        /* \"#utility.yul\":15701:15735   */\n      0x546865726520617265206e6f7420656e6f7567682070656f706c6520746f2073\n        /* \"#utility.yul\":15697:15698   */\n      0x00\n        /* \"#utility.yul\":15689:15695   */\n      dup3\n        /* \"#utility.yul\":15685:15699   */\n      add\n        /* \"#utility.yul\":15678:15736   */\n      mstore\n        /* \"#utility.yul\":15770:15789   */\n      0x746172742074686973206c6f7474657279000000000000000000000000000000\n        /* \"#utility.yul\":15765:15767   */\n      0x20\n        /* \"#utility.yul\":15757:15763   */\n      dup3\n        /* \"#utility.yul\":15753:15768   */\n      add\n        /* \"#utility.yul\":15746:15790   */\n      mstore\n        /* \"#utility.yul\":15561:15797   */\n      pop\n      jump\t// out\n        /* \"#utility.yul\":15803:16169   */\n    tag_234:\n        /* \"#utility.yul\":15945:15948   */\n      0x00\n        /* \"#utility.yul\":15966:16033   */\n      tag_405\n        /* \"#utility.yul\":16030:16032   */\n      0x31\n        /* \"#utility.yul\":16025:16028   */\n      dup4\n        /* \"#utility.yul\":15966:16033   */\n      tag_218\n      jump\t// in\n    tag_405:\n        /* \"#utility.yul\":15959:16033   */\n      swap2\n      pop\n        /* \"#utility.yul\":16042:16135   */\n      tag_406\n        /* \"#utility.yul\":16131:16134   */\n      dup3\n        /* \"#utility.yul\":16042:16135   */\n      tag_233\n      jump\t// in\n    tag_406:\n        /* \"#utility.yul\":16160:16162   */\n      0x40\n        /* \"#utility.yul\":16155:16158   */\n      dup3\n        /* \"#utility.yul\":16151:16163   */\n      add\n        /* \"#utility.yul\":16144:16163   */\n      swap1\n      pop\n        /* \"#utility.yul\":15803:16169   */\n      swap2\n      swap1\n      pop\n      jump\t// out\n        /* \"#utility.yul\":16175:16594   */\n    tag_126:\n        /* \"#utility.yul\":16341:16345   */\n      0x00\n        /* \"#utility.yul\":16379:16381   */\n      0x20\n        /* \"#utility.yul\":16368:16377   */\n      dup3\n        /* \"#utility.yul\":16364:16382   */\n      add\n        /* \"#utility.yul\":16356:16382   */\n      swap1\n      pop\n        /* \"#utility.yul\":16428:16437   */\n      dup2\n        /* \"#utility.yul\":16422:16426   */\n      dup2\n        /* \"#utility.yul\":16418:16438   */\n      sub\n        /* \"#utility.yul\":16414:16415   */\n      0x00\n        /* \"#utility.yul\":16403:16412   */\n      dup4\n        /* \"#utility.yul\":16399:16416   */\n      add\n        /* \"#utility.yul\":16392:16439   */\n      mstore\n        /* \"#utility.yul\":16456:16587   */\n      tag_408\n        /* \"#utility.yul\":16582:16586   */\n      dup2\n        /* \"#utility.yul\":16456:16587   */\n      tag_234\n      jump\t// in\n    tag_408:\n        /* \"#utility.yul\":16448:16587   */\n      swap1\n      pop\n        /* \"#utility.yul\":16175:16594   */\n      swap2\n      swap1\n      pop\n      jump\t// out\n        /* \"#utility.yul\":16600:16765   */\n    tag_235:\n        /* \"#utility.yul\":16740:16757   */\n      0x4e6f207061727469636970616e74730000000000000000000000000000000000\n        /* \"#utility.yul\":16736:16737   */\n      0x00\n        /* \"#utility.yul\":16728:16734   */\n      dup3\n        /* \"#utility.yul\":16724:16738   */\n      add\n        /* \"#utility.yul\":16717:16758   */\n      mstore\n        /* \"#utility.yul\":16600:16765   */\n      pop\n      jump\t// out\n        /* \"#utility.yul\":16771:17137   */\n    tag_236:\n        /* \"#utility.yul\":16913:16916   */\n      0x00\n        /* \"#utility.yul\":16934:17001   */\n      tag_411\n        /* \"#utility.yul\":16998:17000   */\n      0x0f\n        /* \"#utility.yul\":16993:16996   */\n      dup4\n        /* \"#utility.yul\":16934:17001   */\n      tag_218\n      jump\t// in\n    tag_411:\n        /* \"#utility.yul\":16927:17001   */\n      swap2\n      pop\n        /* \"#utility.yul\":17010:17103   */\n      tag_412\n        /* \"#utility.yul\":17099:17102   */\n      dup3\n        /* \"#utility.yul\":17010:17103   */\n      tag_235\n      jump\t// in\n    tag_412:\n        /* \"#utility.yul\":17128:17130   */\n      0x20\n        /* \"#utility.yul\":17123:17126   */\n      dup3\n        /* \"#utility.yul\":17119:17131   */\n      add\n        /* \"#utility.yul\":17112:17131   */\n      swap1\n      pop\n        /* \"#utility.yul\":16771:17137   */\n      swap2\n      swap1\n      pop\n      jump\t// out\n        /* \"#utility.yul\":17143:17562   */\n    tag_129:\n        /* \"#utility.yul\":17309:17313   */\n      0x00\n        /* \"#utility.yul\":17347:17349   */\n      0x20\n        /* \"#utility.yul\":17336:17345   */\n      dup3\n        /* \"#utility.yul\":17332:17350   */\n      add\n        /* \"#utility.yul\":17324:17350   */\n      swap1\n      pop\n        /* \"#utility.yul\":17396:17405   */\n      dup2\n        /* \"#utility.yul\":17390:17394   */\n      dup2\n        /* \"#utility.yul\":17386:17406   */\n      sub\n        /* \"#utility.yul\":17382:17383   */\n      0x00\n        /* \"#utility.yul\":17371:17380   */\n      dup4\n        /* \"#utility.yul\":17367:17384   */\n      add\n        /* \"#utility.yul\":17360:17407   */\n      mstore\n        /* \"#utility.yul\":17424:17555   */\n      tag_414\n        /* \"#utility.yul\":17550:17554   */\n      dup2\n        /* \"#utility.yul\":17424:17555   */\n      tag_236\n      jump\t// in\n    tag_414:\n        /* \"#utility.yul\":17416:17555   */\n      swap1\n      pop\n        /* \"#utility.yul\":17143:17562   */\n      swap2\n      swap1\n      pop\n      jump\t// out\n        /* \"#utility.yul\":17568:17795   */\n    tag_237:\n        /* \"#utility.yul\":17708:17742   */\n      0x496e73756666696369656e7420636f6e74726163742062616c616e636520666f\n        /* \"#utility.yul\":17704:17705   */\n      0x00\n        /* \"#utility.yul\":17696:17702   */\n      dup3\n        /* \"#utility.yul\":17692:17706   */\n      add\n        /* \"#utility.yul\":17685:17743   */\n      mstore\n        /* \"#utility.yul\":17777:17787   */\n      0x72207072697a652e000000000000000000000000000000000000000000000000\n        /* \"#utility.yul\":17772:17774   */\n      0x20\n        /* \"#utility.yul\":17764:17770   */\n      dup3\n        /* \"#utility.yul\":17760:17775   */\n      add\n        /* \"#utility.yul\":17753:17788   */\n      mstore\n        /* \"#utility.yul\":17568:17795   */\n      pop\n      jump\t// out\n        /* \"#utility.yul\":17801:18167   */\n    tag_238:\n        /* \"#utility.yul\":17943:17946   */\n      0x00\n        /* \"#utility.yul\":17964:18031   */\n      tag_417\n        /* \"#utility.yul\":18028:18030   */\n      0x28\n        /* \"#utility.yul\":18023:18026   */\n      dup4\n        /* \"#utility.yul\":17964:18031   */\n      tag_218\n      jump\t// in\n    tag_417:\n        /* \"#utility.yul\":17957:18031   */\n      swap2\n      pop\n        /* \"#utility.yul\":18040:18133   */\n      tag_418\n        /* \"#utility.yul\":18129:18132   */\n      dup3\n        /* \"#utility.yul\":18040:18133   */\n      tag_237\n      jump\t// in\n    tag_418:\n        /* \"#utility.yul\":18158:18160   */\n      0x40\n        /* \"#utility.yul\":18153:18156   */\n      dup3\n        /* \"#utility.yul\":18149:18161   */\n      add\n        /* \"#utility.yul\":18142:18161   */\n      swap1\n      pop\n        /* \"#utility.yul\":17801:18167   */\n      swap2\n      swap1\n      pop\n      jump\t// out\n        /* \"#utility.yul\":18173:18592   */\n    tag_132:\n        /* \"#utility.yul\":18339:18343   */\n      0x00\n        /* \"#utility.yul\":18377:18379   */\n      0x20\n        /* \"#utility.yul\":18366:18375   */\n      dup3\n        /* \"#utility.yul\":18362:18380   */\n      add\n        /* \"#utility.yul\":18354:18380   */\n      swap1\n      pop\n        /* \"#utility.yul\":18426:18435   */\n      dup2\n        /* \"#utility.yul\":18420:18424   */\n      dup2\n        /* \"#utility.yul\":18416:18436   */\n      sub\n        /* \"#utility.yul\":18412:18413   */\n      0x00\n        /* \"#utility.yul\":18401:18410   */\n      dup4\n        /* \"#utility.yul\":18397:18414   */\n      add\n        /* \"#utility.yul\":18390:18437   */\n      mstore\n        /* \"#utility.yul\":18454:18585   */\n      tag_420\n        /* \"#utility.yul\":18580:18584   */\n      dup2\n        /* \"#utility.yul\":18454:18585   */\n      tag_238\n      jump\t// in\n    tag_420:\n        /* \"#utility.yul\":18446:18585   */\n      swap1\n      pop\n        /* \"#utility.yul\":18173:18592   */\n      swap2\n      swap1\n      pop\n      jump\t// out\n        /* \"#utility.yul\":18598:18773   */\n    tag_239:\n        /* \"#utility.yul\":18738:18765   */\n      0x4e6f2072616e646f6d20776f7264732072656365697665642e00000000000000\n        /* \"#utility.yul\":18734:18735   */\n      0x00\n        /* \"#utility.yul\":18726:18732   */\n      dup3\n        /* \"#utility.yul\":18722:18736   */\n      add\n        /* \"#utility.yul\":18715:18766   */\n      mstore\n        /* \"#utility.yul\":18598:18773   */\n      pop\n      jump\t// out\n        /* \"#utility.yul\":18779:19145   */\n    tag_240:\n        /* \"#utility.yul\":18921:18924   */\n      0x00\n        /* \"#utility.yul\":18942:19009   */\n      tag_423\n        /* \"#utility.yul\":19006:19008   */\n      0x19\n        /* \"#utility.yul\":19001:19004   */\n      dup4\n        /* \"#utility.yul\":18942:19009   */\n      tag_218\n      jump\t// in\n    tag_423:\n        /* \"#utility.yul\":18935:19009   */\n      swap2\n      pop\n        /* \"#utility.yul\":19018:19111   */\n      tag_424\n        /* \"#utility.yul\":19107:19110   */\n      dup3\n        /* \"#utility.yul\":19018:19111   */\n      tag_239\n      jump\t// in\n    tag_424:\n        /* \"#utility.yul\":19136:19138   */\n      0x20\n        /* \"#utility.yul\":19131:19134   */\n      dup3\n        /* \"#utility.yul\":19127:19139   */\n      add\n        /* \"#utility.yul\":19120:19139   */\n      swap1\n      pop\n        /* \"#utility.yul\":18779:19145   */\n      swap2\n      swap1\n      pop\n      jump\t// out\n        /* \"#utility.yul\":19151:19570   */\n    tag_141:\n        /* \"#utility.yul\":19317:19321   */\n      0x00\n        /* \"#utility.yul\":19355:19357   */\n      0x20\n        /* \"#utility.yul\":19344:19353   */\n      dup3\n        /* \"#utility.yul\":19340:19358   */\n      add\n        /* \"#utility.yul\":19332:19358   */\n      swap1\n      pop\n        /* \"#utility.yul\":19404:19413   */\n      dup2\n        /* \"#utility.yul\":19398:19402   */\n      dup2\n        /* \"#utility.yul\":19394:19414   */\n      sub\n        /* \"#utility.yul\":19390:19391   */\n      0x00\n        /* \"#utility.yul\":19379:19388   */\n      dup4\n        /* \"#utility.yul\":19375:19392   */\n      add\n        /* \"#utility.yul\":19368:19415   */\n      mstore\n        /* \"#utility.yul\":19432:19563   */\n      tag_426\n        /* \"#utility.yul\":19558:19562   */\n      dup2\n        /* \"#utility.yul\":19432:19563   */\n      tag_240\n      jump\t// in\n    tag_426:\n        /* \"#utility.yul\":19424:19563   */\n      swap1\n      pop\n        /* \"#utility.yul\":19151:19570   */\n      swap2\n      swap1\n      pop\n      jump\t// out\n        /* \"#utility.yul\":19576:19742   */\n    tag_241:\n        /* \"#utility.yul\":19716:19734   */\n      0x4e6f207061727469636970616e74732e00000000000000000000000000000000\n        /* \"#utility.yul\":19712:19713   */\n      0x00\n        /* \"#utility.yul\":19704:19710   */\n      dup3\n        /* \"#utility.yul\":19700:19714   */\n      add\n        /* \"#utility.yul\":19693:19735   */\n      mstore\n        /* \"#utility.yul\":19576:19742   */\n      pop\n      jump\t// out\n        /* \"#utility.yul\":19748:20114   */\n    tag_242:\n        /* \"#utility.yul\":19890:19893   */\n      0x00\n        /* \"#utility.yul\":19911:19978   */\n      tag_429\n        /* \"#utility.yul\":19975:19977   */\n      0x10\n        /* \"#utility.yul\":19970:19973   */\n      dup4\n        /* \"#utility.yul\":19911:19978   */\n      tag_218\n      jump\t// in\n    tag_429:\n        /* \"#utility.yul\":19904:19978   */\n      swap2\n      pop\n        /* \"#utility.yul\":19987:20080   */\n      tag_430\n        /* \"#utility.yul\":20076:20079   */\n      dup3\n        /* \"#utility.yul\":19987:20080   */\n      tag_241\n      jump\t// in\n    tag_430:\n        /* \"#utility.yul\":20105:20107   */\n      0x20\n        /* \"#utility.yul\":20100:20103   */\n      dup3\n        /* \"#utility.yul\":20096:20108   */\n      add\n        /* \"#utility.yul\":20089:20108   */\n      swap1\n      pop\n        /* \"#utility.yul\":19748:20114   */\n      swap2\n      swap1\n      pop\n      jump\t// out\n        /* \"#utility.yul\":20120:20539   */\n    tag_144:\n        /* \"#utility.yul\":20286:20290   */\n      0x00\n        /* \"#utility.yul\":20324:20326   */\n      0x20\n        /* \"#utility.yul\":20313:20322   */\n      dup3\n        /* \"#utility.yul\":20309:20327   */\n      add\n        /* \"#utility.yul\":20301:20327   */\n      swap1\n      pop\n        /* \"#utility.yul\":20373:20382   */\n      dup2\n        /* \"#utility.yul\":20367:20371   */\n      dup2\n        /* \"#utility.yul\":20363:20383   */\n      sub\n        /* \"#utility.yul\":20359:20360   */\n      0x00\n        /* \"#utility.yul\":20348:20357   */\n      dup4\n        /* \"#utility.yul\":20344:20361   */\n      add\n        /* \"#utility.yul\":20337:20384   */\n      mstore\n        /* \"#utility.yul\":20401:20532   */\n      tag_432\n        /* \"#utility.yul\":20527:20531   */\n      dup2\n        /* \"#utility.yul\":20401:20532   */\n      tag_242\n      jump\t// in\n    tag_432:\n        /* \"#utility.yul\":20393:20532   */\n      swap1\n      pop\n        /* \"#utility.yul\":20120:20539   */\n      swap2\n      swap1\n      pop\n      jump\t// out\n        /* \"#utility.yul\":20545:20725   */\n    tag_147:\n        /* \"#utility.yul\":20593:20670   */\n      0x4e487b7100000000000000000000000000000000000000000000000000000000\n        /* \"#utility.yul\":20590:20591   */\n      0x00\n        /* \"#utility.yul\":20583:20671   */\n      mstore\n        /* \"#utility.yul\":20690:20694   */\n      0x32\n        /* \"#utility.yul\":20687:20688   */\n      0x04\n        /* \"#utility.yul\":20680:20695   */\n      mstore\n        /* \"#utility.yul\":20714:20718   */\n      0x24\n        /* \"#utility.yul\":20711:20712   */\n      0x00\n        /* \"#utility.yul\":20704:20719   */\n      revert\n        /* \"#utility.yul\":20731:21059   */\n    tag_151:\n        /* \"#utility.yul\":20850:20854   */\n      0x00\n        /* \"#utility.yul\":20888:20890   */\n      0x40\n        /* \"#utility.yul\":20877:20886   */\n      dup3\n        /* \"#utility.yul\":20873:20891   */\n      add\n        /* \"#utility.yul\":20865:20891   */\n      swap1\n      pop\n        /* \"#utility.yul\":20901:20972   */\n      tag_435\n        /* \"#utility.yul\":20969:20970   */\n      0x00\n        /* \"#utility.yul\":20958:20967   */\n      dup4\n        /* \"#utility.yul\":20954:20971   */\n      add\n        /* \"#utility.yul\":20945:20951   */\n      dup6\n        /* \"#utility.yul\":20901:20972   */\n      tag_217\n      jump\t// in\n    tag_435:\n        /* \"#utility.yul\":20982:21052   */\n      tag_436\n        /* \"#utility.yul\":21048:21050   */\n      0x20\n        /* \"#utility.yul\":21037:21046   */\n      dup4\n        /* \"#utility.yul\":21033:21051   */\n      add\n        /* \"#utility.yul\":21024:21030   */\n      dup5\n        /* \"#utility.yul\":20982:21052   */\n      tag_189\n      jump\t// in\n    tag_436:\n        /* \"#utility.yul\":20731:21059   */\n      swap4\n      swap3\n      pop\n      pop\n      pop\n      jump\t// out\n        /* \"#utility.yul\":21065:21243   */\n    tag_243:\n        /* \"#utility.yul\":21205:21235   */\n      0x4661696c656420746f2073656e64207072697a6520616d6f756e742e00000000\n        /* \"#utility.yul\":21201:21202   */\n      0x00\n        /* \"#utility.yul\":21193:21199   */\n      dup3\n        /* \"#utility.yul\":21189:21203   */\n      add\n        /* \"#utility.yul\":21182:21236   */\n      mstore\n        /* \"#utility.yul\":21065:21243   */\n      pop\n      jump\t// out\n        /* \"#utility.yul\":21249:21615   */\n    tag_244:\n        /* \"#utility.yul\":21391:21394   */\n      0x00\n        /* \"#utility.yul\":21412:21479   */\n      tag_439\n        /* \"#utility.yul\":21476:21478   */\n      0x1c\n        /* \"#utility.yul\":21471:21474   */\n      dup4\n        /* \"#utility.yul\":21412:21479   */\n      tag_218\n      jump\t// in\n    tag_439:\n        /* \"#utility.yul\":21405:21479   */\n      swap2\n      pop\n        /* \"#utility.yul\":21488:21581   */\n      tag_440\n        /* \"#utility.yul\":21577:21580   */\n      dup3\n        /* \"#utility.yul\":21488:21581   */\n      tag_243\n      jump\t// in\n    tag_440:\n        /* \"#utility.yul\":21606:21608   */\n      0x20\n        /* \"#utility.yul\":21601:21604   */\n      dup3\n        /* \"#utility.yul\":21597:21609   */\n      add\n        /* \"#utility.yul\":21590:21609   */\n      swap1\n      pop\n        /* \"#utility.yul\":21249:21615   */\n      swap2\n      swap1\n      pop\n      jump\t// out\n        /* \"#utility.yul\":21621:22040   */\n    tag_154:\n        /* \"#utility.yul\":21787:21791   */\n      0x00\n        /* \"#utility.yul\":21825:21827   */\n      0x20\n        /* \"#utility.yul\":21814:21823   */\n      dup3\n        /* \"#utility.yul\":21810:21828   */\n      add\n        /* \"#utility.yul\":21802:21828   */\n      swap1\n      pop\n        /* \"#utility.yul\":21874:21883   */\n      dup2\n        /* \"#utility.yul\":21868:21872   */\n      dup2\n        /* \"#utility.yul\":21864:21884   */\n      sub\n        /* \"#utility.yul\":21860:21861   */\n      0x00\n        /* \"#utility.yul\":21849:21858   */\n      dup4\n        /* \"#utility.yul\":21845:21862   */\n      add\n        /* \"#utility.yul\":21838:21885   */\n      mstore\n        /* \"#utility.yul\":21902:22033   */\n      tag_442\n        /* \"#utility.yul\":22028:22032   */\n      dup2\n        /* \"#utility.yul\":21902:22033   */\n      tag_244\n      jump\t// in\n    tag_442:\n        /* \"#utility.yul\":21894:22033   */\n      swap1\n      pop\n        /* \"#utility.yul\":21621:22040   */\n      swap2\n      swap1\n      pop\n      jump\t// out\n        /* \"#utility.yul\":22046:22145   */\n    tag_245:\n        /* \"#utility.yul\":22117:22138   */\n      tag_444\n        /* \"#utility.yul\":22132:22137   */\n      dup2\n        /* \"#utility.yul\":22117:22138   */\n      tag_186\n      jump\t// in\n    tag_444:\n        /* \"#utility.yul\":22112:22115   */\n      dup3\n        /* \"#utility.yul\":22105:22139   */\n      mstore\n        /* \"#utility.yul\":22046:22145   */\n      pop\n      pop\n      jump\t// out\n        /* \"#utility.yul\":22231:22573   */\n    tag_246:\n        /* \"#utility.yul\":22384:22388   */\n      0x20\n        /* \"#utility.yul\":22379:22382   */\n      dup3\n        /* \"#utility.yul\":22375:22389   */\n      add\n        /* \"#utility.yul\":22480:22484   */\n      0x00\n        /* \"#utility.yul\":22473:22478   */\n      dup3\n        /* \"#utility.yul\":22469:22485   */\n      add\n        /* \"#utility.yul\":22463:22486   */\n      mload\n        /* \"#utility.yul\":22499:22556   */\n      tag_446\n        /* \"#utility.yul\":22550:22554   */\n      0x00\n        /* \"#utility.yul\":22545:22548   */\n      dup6\n        /* \"#utility.yul\":22541:22555   */\n      add\n        /* \"#utility.yul\":22527:22539   */\n      dup3\n        /* \"#utility.yul\":22499:22556   */\n      tag_245\n      jump\t// in\n    tag_446:\n        /* \"#utility.yul\":22399:22566   */\n      pop\n        /* \"#utility.yul\":22353:22573   */\n      pop\n        /* \"#utility.yul\":22231:22573   */\n      pop\n      pop\n      jump\t// out\n        /* \"#utility.yul\":22579:22913   */\n    tag_159:\n        /* \"#utility.yul\":22728:22732   */\n      0x00\n        /* \"#utility.yul\":22766:22768   */\n      0x20\n        /* \"#utility.yul\":22755:22764   */\n      dup3\n        /* \"#utility.yul\":22751:22769   */\n      add\n        /* \"#utility.yul\":22743:22769   */\n      swap1\n      pop\n        /* \"#utility.yul\":22779:22906   */\n      tag_448\n        /* \"#utility.yul\":22903:22904   */\n      0x00\n        /* \"#utility.yul\":22892:22901   */\n      dup4\n        /* \"#utility.yul\":22888:22905   */\n      add\n        /* \"#utility.yul\":22879:22885   */\n      dup5\n        /* \"#utility.yul\":22779:22906   */\n      tag_246\n      jump\t// in\n    tag_448:\n        /* \"#utility.yul\":22579:22913   */\n      swap3\n      swap2\n      pop\n      pop\n      jump\t// out\n        /* \"#utility.yul\":22919:23012   */\n    tag_247:\n        /* \"#utility.yul\":22955:22962   */\n      0x00\n        /* \"#utility.yul\":22995:23005   */\n      0xffffffff\n        /* \"#utility.yul\":22988:22993   */\n      dup3\n        /* \"#utility.yul\":22984:23006   */\n      and\n        /* \"#utility.yul\":22973:23006   */\n      swap1\n      pop\n        /* \"#utility.yul\":22919:23012   */\n      swap2\n      swap1\n      pop\n      jump\t// out\n        /* \"#utility.yul\":23018:23133   */\n    tag_248:\n        /* \"#utility.yul\":23103:23126   */\n      tag_451\n        /* \"#utility.yul\":23120:23125   */\n      dup2\n        /* \"#utility.yul\":23103:23126   */\n      tag_247\n      jump\t// in\n    tag_451:\n        /* \"#utility.yul\":23098:23101   */\n      dup3\n        /* \"#utility.yul\":23091:23127   */\n      mstore\n        /* \"#utility.yul\":23018:23133   */\n      pop\n      pop\n      jump\t// out\n        /* \"#utility.yul\":23139:23463   */\n    tag_162:\n        /* \"#utility.yul\":23256:23260   */\n      0x00\n        /* \"#utility.yul\":23294:23296   */\n      0x40\n        /* \"#utility.yul\":23283:23292   */\n      dup3\n        /* \"#utility.yul\":23279:23297   */\n      add\n        /* \"#utility.yul\":23271:23297   */\n      swap1\n      pop\n        /* \"#utility.yul\":23307:23376   */\n      tag_453\n        /* \"#utility.yul\":23373:23374   */\n      0x00\n        /* \"#utility.yul\":23362:23371   */\n      dup4\n        /* \"#utility.yul\":23358:23375   */\n      add\n        /* \"#utility.yul\":23349:23355   */\n      dup6\n        /* \"#utility.yul\":23307:23376   */\n      tag_248\n      jump\t// in\n    tag_453:\n        /* \"#utility.yul\":23386:23456   */\n      tag_454\n        /* \"#utility.yul\":23452:23454   */\n      0x20\n        /* \"#utility.yul\":23441:23450   */\n      dup4\n        /* \"#utility.yul\":23437:23455   */\n      add\n        /* \"#utility.yul\":23428:23434   */\n      dup5\n        /* \"#utility.yul\":23386:23456   */\n      tag_248\n      jump\t// in\n    tag_454:\n        /* \"#utility.yul\":23139:23463   */\n      swap4\n      swap3\n      pop\n      pop\n      pop\n      jump\t// out\n        /* \"#utility.yul\":23469:23612   */\n    tag_249:\n        /* \"#utility.yul\":23526:23531   */\n      0x00\n        /* \"#utility.yul\":23557:23563   */\n      dup2\n        /* \"#utility.yul\":23551:23564   */\n      mload\n        /* \"#utility.yul\":23542:23564   */\n      swap1\n      pop\n        /* \"#utility.yul\":23573:23606   */\n      tag_456\n        /* \"#utility.yul\":23600:23605   */\n      dup2\n        /* \"#utility.yul\":23573:23606   */\n      tag_193\n      jump\t// in\n    tag_456:\n        /* \"#utility.yul\":23469:23612   */\n      swap3\n      swap2\n      pop\n      pop\n      jump\t// out\n        /* \"#utility.yul\":23618:23969   */\n    tag_166:\n        /* \"#utility.yul\":23688:23694   */\n      0x00\n        /* \"#utility.yul\":23737:23739   */\n      0x20\n        /* \"#utility.yul\":23725:23734   */\n      dup3\n        /* \"#utility.yul\":23716:23723   */\n      dup5\n        /* \"#utility.yul\":23712:23735   */\n      sub\n        /* \"#utility.yul\":23708:23740   */\n      slt\n        /* \"#utility.yul\":23705:23824   */\n      iszero\n      tag_458\n      jumpi\n        /* \"#utility.yul\":23743:23822   */\n      tag_459\n      tag_191\n      jump\t// in\n    tag_459:\n        /* \"#utility.yul\":23705:23824   */\n    tag_458:\n        /* \"#utility.yul\":23863:23864   */\n      0x00\n        /* \"#utility.yul\":23888:23952   */\n      tag_460\n        /* \"#utility.yul\":23944:23951   */\n      dup5\n        /* \"#utility.yul\":23935:23941   */\n      dup3\n        /* \"#utility.yul\":23924:23933   */\n      dup6\n        /* \"#utility.yul\":23920:23942   */\n      add\n        /* \"#utility.yul\":23888:23952   */\n      tag_249\n      jump\t// in\n    tag_460:\n        /* \"#utility.yul\":23878:23952   */\n      swap2\n      pop\n        /* \"#utility.yul\":23834:23962   */\n      pop\n        /* \"#utility.yul\":23618:23969   */\n      swap3\n      swap2\n      pop\n      pop\n      jump\t// out\n        /* \"#utility.yul\":23975:24064   */\n    tag_250:\n        /* \"#utility.yul\":24011:24018   */\n      0x00\n        /* \"#utility.yul\":24051:24057   */\n      0xffff\n        /* \"#utility.yul\":24044:24049   */\n      dup3\n        /* \"#utility.yul\":24040:24058   */\n      and\n        /* \"#utility.yul\":24029:24058   */\n      swap1\n      pop\n        /* \"#utility.yul\":23975:24064   */\n      swap2\n      swap1\n      pop\n      jump\t// out\n        /* \"#utility.yul\":24070:24185   */\n    tag_251:\n        /* \"#utility.yul\":24155:24178   */\n      tag_463\n        /* \"#utility.yul\":24172:24177   */\n      dup2\n        /* \"#utility.yul\":24155:24178   */\n      tag_250\n      jump\t// in\n    tag_463:\n        /* \"#utility.yul\":24150:24153   */\n      dup3\n        /* \"#utility.yul\":24143:24179   */\n      mstore\n        /* \"#utility.yul\":24070:24185   */\n      pop\n      pop\n      jump\t// out\n        /* \"#utility.yul\":24191:24289   */\n    tag_252:\n        /* \"#utility.yul\":24242:24248   */\n      0x00\n        /* \"#utility.yul\":24276:24281   */\n      dup2\n        /* \"#utility.yul\":24270:24282   */\n      mload\n        /* \"#utility.yul\":24260:24282   */\n      swap1\n      pop\n        /* \"#utility.yul\":24191:24289   */\n      swap2\n      swap1\n      pop\n      jump\t// out\n        /* \"#utility.yul\":24295:24463   */\n    tag_253:\n        /* \"#utility.yul\":24378:24389   */\n      0x00\n        /* \"#utility.yul\":24412:24418   */\n      dup3\n        /* \"#utility.yul\":24407:24410   */\n      dup3\n        /* \"#utility.yul\":24400:24419   */\n      mstore\n        /* \"#utility.yul\":24452:24456   */\n      0x20\n        /* \"#utility.yul\":24447:24450   */\n      dup3\n        /* \"#utility.yul\":24443:24457   */\n      add\n        /* \"#utility.yul\":24428:24457   */\n      swap1\n      pop\n        /* \"#utility.yul\":24295:24463   */\n      swap3\n      swap2\n      pop\n      pop\n      jump\t// out\n        /* \"#utility.yul\":24469:24608   */\n    tag_254:\n        /* \"#utility.yul\":24558:24564   */\n      dup3\n        /* \"#utility.yul\":24553:24556   */\n      dup2\n        /* \"#utility.yul\":24548:24551   */\n      dup4\n        /* \"#utility.yul\":24542:24565   */\n      mcopy\n        /* \"#utility.yul\":24599:24600   */\n      0x00\n        /* \"#utility.yul\":24590:24596   */\n      dup4\n        /* \"#utility.yul\":24585:24588   */\n      dup4\n        /* \"#utility.yul\":24581:24597   */\n      add\n        /* \"#utility.yul\":24574:24601   */\n      mstore\n        /* \"#utility.yul\":24469:24608   */\n      pop\n      pop\n      pop\n      jump\t// out\n        /* \"#utility.yul\":24614:24987   */\n    tag_255:\n        /* \"#utility.yul\":24700:24703   */\n      0x00\n        /* \"#utility.yul\":24728:24766   */\n      tag_468\n        /* \"#utility.yul\":24760:24765   */\n      dup3\n        /* \"#utility.yul\":24728:24766   */\n      tag_252\n      jump\t// in\n    tag_468:\n        /* \"#utility.yul\":24782:24852   */\n      tag_469\n        /* \"#utility.yul\":24845:24851   */\n      dup2\n        /* \"#utility.yul\":24840:24843   */\n      dup6\n        /* \"#utility.yul\":24782:24852   */\n      tag_253\n      jump\t// in\n    tag_469:\n        /* \"#utility.yul\":24775:24852   */\n      swap4\n      pop\n        /* \"#utility.yul\":24861:24926   */\n      tag_470\n        /* \"#utility.yul\":24919:24925   */\n      dup2\n        /* \"#utility.yul\":24914:24917   */\n      dup6\n        /* \"#utility.yul\":24907:24911   */\n      0x20\n        /* \"#utility.yul\":24900:24905   */\n      dup7\n        /* \"#utility.yul\":24896:24912   */\n      add\n        /* \"#utility.yul\":24861:24926   */\n      tag_254\n      jump\t// in\n    tag_470:\n        /* \"#utility.yul\":24951:24980   */\n      tag_471\n        /* \"#utility.yul\":24973:24979   */\n      dup2\n        /* \"#utility.yul\":24951:24980   */\n      tag_196\n      jump\t// in\n    tag_471:\n        /* \"#utility.yul\":24946:24949   */\n      dup5\n        /* \"#utility.yul\":24942:24981   */\n      add\n        /* \"#utility.yul\":24935:24981   */\n      swap2\n      pop\n        /* \"#utility.yul\":24704:24987   */\n      pop\n        /* \"#utility.yul\":24614:24987   */\n      swap3\n      swap2\n      pop\n      pop\n      jump\t// out\n        /* \"#utility.yul\":24993:25621   */\n    tag_168:\n        /* \"#utility.yul\":25182:25186   */\n      0x00\n        /* \"#utility.yul\":25220:25223   */\n      0x80\n        /* \"#utility.yul\":25209:25218   */\n      dup3\n        /* \"#utility.yul\":25205:25224   */\n      add\n        /* \"#utility.yul\":25197:25224   */\n      swap1\n      pop\n        /* \"#utility.yul\":25234:25303   */\n      tag_473\n        /* \"#utility.yul\":25300:25301   */\n      0x00\n        /* \"#utility.yul\":25289:25298   */\n      dup4\n        /* \"#utility.yul\":25285:25302   */\n      add\n        /* \"#utility.yul\":25276:25282   */\n      dup8\n        /* \"#utility.yul\":25234:25303   */\n      tag_248\n      jump\t// in\n    tag_473:\n        /* \"#utility.yul\":25313:25383   */\n      tag_474\n        /* \"#utility.yul\":25379:25381   */\n      0x20\n        /* \"#utility.yul\":25368:25377   */\n      dup4\n        /* \"#utility.yul\":25364:25382   */\n      add\n        /* \"#utility.yul\":25355:25361   */\n      dup7\n        /* \"#utility.yul\":25313:25383   */\n      tag_251\n      jump\t// in\n    tag_474:\n        /* \"#utility.yul\":25393:25463   */\n      tag_475\n        /* \"#utility.yul\":25459:25461   */\n      0x40\n        /* \"#utility.yul\":25448:25457   */\n      dup4\n        /* \"#utility.yul\":25444:25462   */\n      add\n        /* \"#utility.yul\":25435:25441   */\n      dup6\n        /* \"#utility.yul\":25393:25463   */\n      tag_248\n      jump\t// in\n    tag_475:\n        /* \"#utility.yul\":25510:25519   */\n      dup2\n        /* \"#utility.yul\":25504:25508   */\n      dup2\n        /* \"#utility.yul\":25500:25520   */\n      sub\n        /* \"#utility.yul\":25495:25497   */\n      0x60\n        /* \"#utility.yul\":25484:25493   */\n      dup4\n        /* \"#utility.yul\":25480:25498   */\n      add\n        /* \"#utility.yul\":25473:25521   */\n      mstore\n        /* \"#utility.yul\":25538:25614   */\n      tag_476\n        /* \"#utility.yul\":25609:25613   */\n      dup2\n        /* \"#utility.yul\":25600:25606   */\n      dup5\n        /* \"#utility.yul\":25538:25614   */\n      tag_255\n      jump\t// in\n    tag_476:\n        /* \"#utility.yul\":25530:25614   */\n      swap1\n      pop\n        /* \"#utility.yul\":24993:25621   */\n      swap6\n      swap5\n      pop\n      pop\n      pop\n      pop\n      pop\n      jump\t// out\n        /* \"#utility.yul\":25627:26156   */\n    tag_170:\n        /* \"#utility.yul\":25794:25798   */\n      0x00\n        /* \"#utility.yul\":25832:25834   */\n      0x60\n        /* \"#utility.yul\":25821:25830   */\n      dup3\n        /* \"#utility.yul\":25817:25835   */\n      add\n        /* \"#utility.yul\":25809:25835   */\n      swap1\n      pop\n        /* \"#utility.yul\":25845:25916   */\n      tag_478\n        /* \"#utility.yul\":25913:25914   */\n      0x00\n        /* \"#utility.yul\":25902:25911   */\n      dup4\n        /* \"#utility.yul\":25898:25915   */\n      add\n        /* \"#utility.yul\":25889:25895   */\n      dup7\n        /* \"#utility.yul\":25845:25916   */\n      tag_217\n      jump\t// in\n    tag_478:\n        /* \"#utility.yul\":25926:25998   */\n      tag_479\n        /* \"#utility.yul\":25994:25996   */\n      0x20\n        /* \"#utility.yul\":25983:25992   */\n      dup4\n        /* \"#utility.yul\":25979:25997   */\n      add\n        /* \"#utility.yul\":25970:25976   */\n      dup6\n        /* \"#utility.yul\":25926:25998   */\n      tag_185\n      jump\t// in\n    tag_479:\n        /* \"#utility.yul\":26045:26054   */\n      dup2\n        /* \"#utility.yul\":26039:26043   */\n      dup2\n        /* \"#utility.yul\":26035:26055   */\n      sub\n        /* \"#utility.yul\":26030:26032   */\n      0x40\n        /* \"#utility.yul\":26019:26028   */\n      dup4\n        /* \"#utility.yul\":26015:26033   */\n      add\n        /* \"#utility.yul\":26008:26056   */\n      mstore\n        /* \"#utility.yul\":26073:26149   */\n      tag_480\n        /* \"#utility.yul\":26144:26148   */\n      dup2\n        /* \"#utility.yul\":26135:26141   */\n      dup5\n        /* \"#utility.yul\":26073:26149   */\n      tag_255\n      jump\t// in\n    tag_480:\n        /* \"#utility.yul\":26065:26149   */\n      swap1\n      pop\n        /* \"#utility.yul\":25627:26156   */\n      swap5\n      swap4\n      pop\n      pop\n      pop\n      pop\n      jump\t// out\n        /* \"#utility.yul\":26162:26278   */\n    tag_256:\n        /* \"#utility.yul\":26232:26253   */\n      tag_482\n        /* \"#utility.yul\":26247:26252   */\n      dup2\n        /* \"#utility.yul\":26232:26253   */\n      tag_186\n      jump\t// in\n    tag_482:\n        /* \"#utility.yul\":26225:26230   */\n      dup2\n        /* \"#utility.yul\":26222:26254   */\n      eq\n        /* \"#utility.yul\":26212:26272   */\n      tag_483\n      jumpi\n        /* \"#utility.yul\":26268:26269   */\n      0x00\n        /* \"#utility.yul\":26265:26266   */\n      0x00\n        /* \"#utility.yul\":26258:26270   */\n      revert\n        /* \"#utility.yul\":26212:26272   */\n    tag_483:\n        /* \"#utility.yul\":26162:26278   */\n      pop\n      jump\t// out\n        /* \"#utility.yul\":26284:26421   */\n    tag_257:\n        /* \"#utility.yul\":26338:26343   */\n      0x00\n        /* \"#utility.yul\":26369:26375   */\n      dup2\n        /* \"#utility.yul\":26363:26376   */\n      mload\n        /* \"#utility.yul\":26354:26376   */\n      swap1\n      pop\n        /* \"#utility.yul\":26385:26415   */\n      tag_485\n        /* \"#utility.yul\":26409:26414   */\n      dup2\n        /* \"#utility.yul\":26385:26415   */\n      tag_256\n      jump\t// in\n    tag_485:\n        /* \"#utility.yul\":26284:26421   */\n      swap3\n      swap2\n      pop\n      pop\n      jump\t// out\n        /* \"#utility.yul\":26427:26772   */\n    tag_174:\n        /* \"#utility.yul\":26494:26500   */\n      0x00\n        /* \"#utility.yul\":26543:26545   */\n      0x20\n        /* \"#utility.yul\":26531:26540   */\n      dup3\n        /* \"#utility.yul\":26522:26529   */\n      dup5\n        /* \"#utility.yul\":26518:26541   */\n      sub\n        /* \"#utility.yul\":26514:26546   */\n      slt\n        /* \"#utility.yul\":26511:26630   */\n      iszero\n      tag_487\n      jumpi\n        /* \"#utility.yul\":26549:26628   */\n      tag_488\n      tag_191\n      jump\t// in\n    tag_488:\n        /* \"#utility.yul\":26511:26630   */\n    tag_487:\n        /* \"#utility.yul\":26669:26670   */\n      0x00\n        /* \"#utility.yul\":26694:26755   */\n      tag_489\n        /* \"#utility.yul\":26747:26754   */\n      dup5\n        /* \"#utility.yul\":26738:26744   */\n      dup3\n        /* \"#utility.yul\":26727:26736   */\n      dup6\n        /* \"#utility.yul\":26723:26745   */\n      add\n        /* \"#utility.yul\":26694:26755   */\n      tag_257\n      jump\t// in\n    tag_489:\n        /* \"#utility.yul\":26684:26755   */\n      swap2\n      pop\n        /* \"#utility.yul\":26640:26765   */\n      pop\n        /* \"#utility.yul\":26427:26772   */\n      swap3\n      swap2\n      pop\n      pop\n      jump\t// out\n        /* \"#utility.yul\":26778:26958   */\n    tag_258:\n        /* \"#utility.yul\":26826:26903   */\n      0x4e487b7100000000000000000000000000000000000000000000000000000000\n        /* \"#utility.yul\":26823:26824   */\n      0x00\n        /* \"#utility.yul\":26816:26904   */\n      mstore\n        /* \"#utility.yul\":26923:26927   */\n      0x12\n        /* \"#utility.yul\":26920:26921   */\n      0x04\n        /* \"#utility.yul\":26913:26928   */\n      mstore\n        /* \"#utility.yul\":26947:26951   */\n      0x24\n        /* \"#utility.yul\":26944:26945   */\n      0x00\n        /* \"#utility.yul\":26937:26952   */\n      revert\n        /* \"#utility.yul\":26964:27140   */\n    tag_180:\n        /* \"#utility.yul\":26996:26997   */\n      0x00\n        /* \"#utility.yul\":27013:27033   */\n      tag_492\n        /* \"#utility.yul\":27031:27032   */\n      dup3\n        /* \"#utility.yul\":27013:27033   */\n      tag_184\n      jump\t// in\n    tag_492:\n        /* \"#utility.yul\":27008:27033   */\n      swap2\n      pop\n        /* \"#utility.yul\":27047:27067   */\n      tag_493\n        /* \"#utility.yul\":27065:27066   */\n      dup4\n        /* \"#utility.yul\":27047:27067   */\n      tag_184\n      jump\t// in\n    tag_493:\n        /* \"#utility.yul\":27042:27067   */\n      swap3\n      pop\n        /* \"#utility.yul\":27086:27087   */\n      dup3\n        /* \"#utility.yul\":27076:27111   */\n      tag_494\n      jumpi\n        /* \"#utility.yul\":27091:27109   */\n      tag_495\n      tag_258\n      jump\t// in\n    tag_495:\n        /* \"#utility.yul\":27076:27111   */\n    tag_494:\n        /* \"#utility.yul\":27132:27133   */\n      dup3\n        /* \"#utility.yul\":27129:27130   */\n      dup3\n        /* \"#utility.yul\":27125:27134   */\n      mod\n        /* \"#utility.yul\":27120:27134   */\n      swap1\n      pop\n        /* \"#utility.yul\":26964:27140   */\n      swap3\n      swap2\n      pop\n      pop\n      jump\t// out\n\n    auxdata: 0xa2646970667358221220816a442b195ac86f6614d43bb0dcd818340e92f5faf8ea48e5d605f668f6851364736f6c634300081e0033\n}\n",
				"bytecode": {
					"linkReferences": {},
					"object": "60c0604052674563918244f4000067ffffffffffffffff1660035566354a6ba7a1800060045f6101000a81548167ffffffffffffffff021916908367ffffffffffffffff1602179055505f600b5f6101000a81548160ff02191690831515021790555034801561006d575f5ffd5b50604051611e87380380611e87833981810160405281019061008f9190610251565b805f8190508073ffffffffffffffffffffffffffffffffffffffff16631c4695f46040518163ffffffff1660e01b8152600401602060405180830381865afa1580156100dd573d5f5f3e3d5ffd5b505050506040513d601f19601f8201168201806040525081019061010191906102a1565b73ffffffffffffffffffffffffffffffffffffffff1660808173ffffffffffffffffffffffffffffffffffffffff16815250508073ffffffffffffffffffffffffffffffffffffffff1660a08173ffffffffffffffffffffffffffffffffffffffff168152505050503360025f6101000a81548173ffffffffffffffffffffffffffffffffffffffff021916908373ffffffffffffffffffffffffffffffffffffffff1602179055508260098190555081600a819055505050506102cc565b5f5ffd5b5f819050919050565b6101d6816101c4565b81146101e0575f5ffd5b50565b5f815190506101f1816101cd565b92915050565b5f73ffffffffffffffffffffffffffffffffffffffff82169050919050565b5f610220826101f7565b9050919050565b61023081610216565b811461023a575f5ffd5b50565b5f8151905061024b81610227565b92915050565b5f5f5f60608486031215610268576102676101c0565b5b5f610275868287016101e3565b9350506020610286868287016101e3565b92505060406102978682870161023d565b9150509250925092565b5f602082840312156102b6576102b56101c0565b5b5f6102c38482850161023d565b91505092915050565b60805160a051611b776103105f395f81816103be0152818161075701528181610c0a01528181610ce20152610d8901525f81816109780152610ca60152611b775ff3fe6080604052600436106100f1575f3560e01c80636ac5db1911610089578063be9a655511610058578063be9a6555146102ef578063e76d516814610305578063f437bc591461032f578063f889794514610359576100f1565b80636ac5db19146102555780636c77f9891461027f578063877f4e12146102895780639ed0868d146102c5576100f1565b80631fe543e3116100c55780631fe543e31461019d578063278a5ff2146101c557806342619f6614610201578063630d18331461022b576100f1565b80626d6cae146100f557806312065fe01461011f57806312fa6feb146101495780631eecd93414610173575b5f5ffd5b348015610100575f5ffd5b50610109610383565b6040516101169190610e8e565b60405180910390f35b34801561012a575f5ffd5b50610133610389565b6040516101409190610e8e565b60405180910390f35b348015610154575f5ffd5b5061015d610390565b60405161016a9190610ec1565b60405180910390f35b34801561017e575f5ffd5b506101876103a2565b6040516101949190610efc565b60405180910390f35b3480156101a8575f5ffd5b506101c360048036038101906101be91906110a0565b6103bb565b005b3480156101d0575f5ffd5b506101eb60048036038101906101e69190611154565b610460565b6040516101f89190610ec1565b60405180910390f35b34801561020c575f5ffd5b506102156104b2565b6040516102229190610e8e565b60405180910390f35b348015610236575f5ffd5b5061023f6104b8565b60405161024c9190610efc565b60405180910390f35b348015610260575f5ffd5b506102696104c4565b6040516102769190610e8e565b60405180910390f35b6102876104ca565b005b348015610294575f5ffd5b506102af60048036038101906102aa9190611154565b610738565b6040516102bc9190610ec1565b60405180910390f35b3480156102d0575f5ffd5b506102d9610755565b6040516102e691906111da565b60405180910390f35b3480156102fa575f5ffd5b50610303610779565b005b348015610310575f5ffd5b50610319610975565b6040516103269190611213565b60405180910390f35b34801561033a575f5ffd5b5061034361099c565b604051610350919061124c565b60405180910390f35b348015610364575f5ffd5b5061036d6109c1565b60405161037a9190610e8e565b60405180910390f35b60085481565b5f47905090565b600b5f9054906101000a900460ff1681565b60045f9054906101000a900467ffffffffffffffff1681565b5f7f000000000000000000000000000000000000000000000000000000000000000090508073ffffffffffffffffffffffffffffffffffffffff163373ffffffffffffffffffffffffffffffffffffffff16146104515733816040517f8ba9316e000000000000000000000000000000000000000000000000000000008152600401610448929190611274565b60405180910390fd5b61045b83836109c7565b505050565b5f60015f8373ffffffffffffffffffffffffffffffffffffffff1673ffffffffffffffffffffffffffffffffffffffff1681526020019081526020015f205f9054906101000a900460ff169050919050565b60075481565b674563918244f4000081565b600a5481565b600b5f9054906101000a900460ff1615610519576040517f08c379a0000000000000000000000000000000000000000000000000000000008152600401610510906112f5565b60405180910390fd5b60045f9054906101000a900467ffffffffffffffff1667ffffffffffffffff16341461057a576040517f08c379a00000000000000000000000000000000000000000000000000000000081526004016105719061135d565b60405180910390fd5b600a545f80549050106105c2576040517f08c379a00000000000000000000000000000000000000000000000000000000081526004016105b9906113c5565b60405180910390fd5b60015f3373ffffffffffffffffffffffffffffffffffffffff1673ffffffffffffffffffffffffffffffffffffffff1681526020019081526020015f205f9054906101000a900460ff161561064c576040517f08c379a000000000000000000000000000000000000000000000000000000000815260040161064390611453565b60405180910390fd5b5f33908060018154018082558091505060019003905f5260205f20015f9091909190916101000a81548173ffffffffffffffffffffffffffffffffffffffff021916908373ffffffffffffffffffffffffffffffffffffffff1602179055506001805f3373ffffffffffffffffffffffffffffffffffffffff1673ffffffffffffffffffffffffffffffffffffffff1681526020019081526020015f205f6101000a81548160ff0219169083151502179055507f5d7fe1cbbc608689987406644ee6a48ea79e623710c4c184fc02aa6370ad5ed63360405161072e91906114bb565b60405180910390a1565b6001602052805f5260405f205f915054906101000a900460ff1681565b7f000000000000000000000000000000000000000000000000000000000000000081565b60025f9054906101000a900473ffffffffffffffffffffffffffffffffffffffff1673ffffffffffffffffffffffffffffffffffffffff163373ffffffffffffffffffffffffffffffffffffffff1614610808576040517f08c379a00000000000000000000000000000000000000000000000000000000081526004016107ff90611531565b60405180910390fd5b600b5f9054906101000a900460ff1615610857576040517f08c379a000000000000000000000000000000000000000000000000000000000815260040161084e90611599565b60405180910390fd5b6009545f8054905010156108a0576040517f08c379a000000000000000000000000000000000000000000000000000000000815260040161089790611627565b60405180910390fd5b5f5f80549050116108e6576040517f08c379a00000000000000000000000000000000000000000000000000000000081526004016108dd9061168f565b60405180910390fd5b674563918244f4000067ffffffffffffffff1647101561093b576040517f08c379a00000000000000000000000000000000000000000000000000000000081526004016109329061171d565b60405180910390fd5b5f61095560405180602001604052805f1515815250610b6e565b9050610968620186a06003600184610c06565b5060085f82919050555050565b5f7f0000000000000000000000000000000000000000000000000000000000000000905090565b60025f9054906101000a900473ffffffffffffffffffffffffffffffffffffffff1681565b60095481565b5f815111610a0a576040517f08c379a0000000000000000000000000000000000000000000000000000000008152600401610a0190611785565b60405180910390fd5b5f5f8054905011610a50576040517f08c379a0000000000000000000000000000000000000000000000000000000008152600401610a47906117ed565b60405180910390fd5b805f81518110610a6357610a6261180b565b5b60200260200101516007819055505f610a7a610e1f565b90507f6f2ef2e5aa9339a9d2fc1e8c9b2924cd1e974fd3dbd59f2d86f241820b7dbd7681674563918244f40000604051610ab5929190611838565b60405180910390a16001600b5f6101000a81548160ff021916908315150217905550600354341015610b1c576040517f08c379a0000000000000000000000000000000000000000000000000000000008152600401610b13906118a9565b60405180910390fd5b8073ffffffffffffffffffffffffffffffffffffffff166108fc60035490811502906040515f60405180830381858888f19350505050158015610b61573d5f5f3e3d5ffd5b505f600381905550505050565b60607f92fd13387c7fe7befbc38d303d6468778fb9731bc4583f17d92989c6fcfdeaaa82604051602401610ba291906118f0565b604051602081830303815290604052907bffffffffffffffffffffffffffffffffffffffffffffffffffffffff19166020820180517bffffffffffffffffffffffffffffffffffffffffffffffffffffffff83818316178352505050509050919050565b5f5f7f000000000000000000000000000000000000000000000000000000000000000073ffffffffffffffffffffffffffffffffffffffff166327e5c50a87866040518363ffffffff1660e01b8152600401610c63929190611927565b602060405180830381865afa158015610c7e573d5f5f3e3d5ffd5b505050506040513d601f19601f82011682018060405250810190610ca29190611962565b90507f000000000000000000000000000000000000000000000000000000000000000073ffffffffffffffffffffffffffffffffffffffff16634000aea07f00000000000000000000000000000000000000000000000000000000000000008389898989604051602001610d199493929190611a09565b6040516020818303038152906040526040518463ffffffff1660e01b8152600401610d4693929190611a53565b6020604051808303815f875af1158015610d62573d5f5f3e3d5ffd5b505050506040513d601f19601f82011682018060405250810190610d869190611ab9565b507f000000000000000000000000000000000000000000000000000000000000000073ffffffffffffffffffffffffffffffffffffffff1663fc2a88c36040518163ffffffff1660e01b8152600401602060405180830381865afa158015610df0573d5f5f3e3d5ffd5b505050506040513d601f19601f82011682018060405250810190610e149190611962565b915094509492505050565b5f5f5f80549050600754610e339190611b11565b90505f8181548110610e4857610e4761180b565b5b905f5260205f20015f9054906101000a900473ffffffffffffffffffffffffffffffffffffffff1691505090565b5f819050919050565b610e8881610e76565b82525050565b5f602082019050610ea15f830184610e7f565b92915050565b5f8115159050919050565b610ebb81610ea7565b82525050565b5f602082019050610ed45f830184610eb2565b92915050565b5f67ffffffffffffffff82169050919050565b610ef681610eda565b82525050565b5f602082019050610f0f5f830184610eed565b92915050565b5f604051905090565b5f5ffd5b5f5ffd5b610f2f81610e76565b8114610f39575f5ffd5b50565b5f81359050610f4a81610f26565b92915050565b5f5ffd5b5f601f19601f8301169050919050565b7f4e487b71000000000000000000000000000000000000000000000000000000005f52604160045260245ffd5b610f9a82610f54565b810181811067ffffffffffffffff82111715610fb957610fb8610f64565b5b80604052505050565b5f610fcb610f15565b9050610fd78282610f91565b919050565b5f67ffffffffffffffff821115610ff657610ff5610f64565b5b602082029050602081019050919050565b5f5ffd5b5f61101d61101884610fdc565b610fc2565b905080838252602082019050602084028301858111156110405761103f611007565b5b835b8181101561106957806110558882610f3c565b845260208401935050602081019050611042565b5050509392505050565b5f82601f83011261108757611086610f50565b5b813561109784826020860161100b565b91505092915050565b5f5f604083850312156110b6576110b5610f1e565b5b5f6110c385828601610f3c565b925050602083013567ffffffffffffffff8111156110e4576110e3610f22565b5b6110f085828601611073565b9150509250929050565b5f73ffffffffffffffffffffffffffffffffffffffff82169050919050565b5f611123826110fa565b9050919050565b61113381611119565b811461113d575f5ffd5b50565b5f8135905061114e8161112a565b92915050565b5f6020828403121561116957611168610f1e565b5b5f61117684828501611140565b91505092915050565b5f819050919050565b5f6111a261119d611198846110fa565b61117f565b6110fa565b9050919050565b5f6111b382611188565b9050919050565b5f6111c4826111a9565b9050919050565b6111d4816111ba565b82525050565b5f6020820190506111ed5f8301846111cb565b92915050565b5f6111fd826111a9565b9050919050565b61120d816111f3565b82525050565b5f6020820190506112265f830184611204565b92915050565b5f611236826110fa565b9050919050565b6112468161122c565b82525050565b5f60208201905061125f5f83018461123d565b92915050565b61126e81611119565b82525050565b5f6040820190506112875f830185611265565b6112946020830184611265565b9392505050565b5f82825260208201905092915050565b7f4c6f74746572792068617320656e6465642e00000000000000000000000000005f82015250565b5f6112df60128361129b565b91506112ea826112ab565b602082019050919050565b5f6020820190508181035f83015261130c816112d3565b9050919050565b7f57726f6e6720416d6f756e742e000000000000000000000000000000000000005f82015250565b5f611347600d8361129b565b915061135282611313565b602082019050919050565b5f6020820190508181035f8301526113748161133b565b9050919050565b7f54686973206c6f74746572792069732066756c6c2e00000000000000000000005f82015250565b5f6113af60158361129b565b91506113ba8261137b565b602082019050919050565b5f6020820190508181035f8301526113dc816113a3565b9050919050565b7f596f75206861766520616c7265616479206a6f696e65642074686973206c6f745f8201527f746572792e000000000000000000000000000000000000000000000000000000602082015250565b5f61143d60258361129b565b9150611448826113e3565b604082019050919050565b5f6020820190508181035f83015261146a81611431565b9050919050565b7f6a6f696e656400000000000000000000000000000000000000000000000000005f82015250565b5f6114a560068361129b565b91506114b082611471565b602082019050919050565b5f6040820190506114ce5f830184611265565b81810360208301526114df81611499565b905092915050565b7f596f7520617265206e6f742074686520686f73742e00000000000000000000005f82015250565b5f61151b60158361129b565b9150611526826114e7565b602082019050919050565b5f6020820190508181035f8301526115488161150f565b9050919050565b7f4c6f74746572792068617320616c726561647920656e646564000000000000005f82015250565b5f61158360198361129b565b915061158e8261154f565b602082019050919050565b5f6020820190508181035f8301526115b081611577565b9050919050565b7f546865726520617265206e6f7420656e6f7567682070656f706c6520746f20735f8201527f746172742074686973206c6f7474657279000000000000000000000000000000602082015250565b5f61161160318361129b565b915061161c826115b7565b604082019050919050565b5f6020820190508181035f83015261163e81611605565b9050919050565b7f4e6f207061727469636970616e747300000000000000000000000000000000005f82015250565b5f611679600f8361129b565b915061168482611645565b602082019050919050565b5f6020820190508181035f8301526116a68161166d565b9050919050565b7f496e73756666696369656e7420636f6e74726163742062616c616e636520666f5f8201527f72207072697a652e000000000000000000000000000000000000000000000000602082015250565b5f61170760288361129b565b9150611712826116ad565b604082019050919050565b5f6020820190508181035f830152611734816116fb565b9050919050565b7f4e6f2072616e646f6d20776f7264732072656365697665642e000000000000005f82015250565b5f61176f60198361129b565b915061177a8261173b565b602082019050919050565b5f6020820190508181035f83015261179c81611763565b9050919050565b7f4e6f207061727469636970616e74732e000000000000000000000000000000005f82015250565b5f6117d760108361129b565b91506117e2826117a3565b602082019050919050565b5f6020820190508181035f830152611804816117cb565b9050919050565b7f4e487b71000000000000000000000000000000000000000000000000000000005f52603260045260245ffd5b5f60408201905061184b5f830185611265565b6118586020830184610eed565b9392505050565b7f4661696c656420746f2073656e64207072697a6520616d6f756e742e000000005f82015250565b5f611893601c8361129b565b915061189e8261185f565b602082019050919050565b5f6020820190508181035f8301526118c081611887565b9050919050565b6118d081610ea7565b82525050565b602082015f8201516118ea5f8501826118c7565b50505050565b5f6020820190506119035f8301846118d6565b92915050565b5f63ffffffff82169050919050565b61192181611909565b82525050565b5f60408201905061193a5f830185611918565b6119476020830184611918565b9392505050565b5f8151905061195c81610f26565b92915050565b5f6020828403121561197757611976610f1e565b5b5f6119848482850161194e565b91505092915050565b5f61ffff82169050919050565b6119a38161198d565b82525050565b5f81519050919050565b5f82825260208201905092915050565b8281835e5f83830152505050565b5f6119db826119a9565b6119e581856119b3565b93506119f58185602086016119c3565b6119fe81610f54565b840191505092915050565b5f608082019050611a1c5f830187611918565b611a29602083018661199a565b611a366040830185611918565b8181036060830152611a4881846119d1565b905095945050505050565b5f606082019050611a665f830186611265565b611a736020830185610e7f565b8181036040830152611a8581846119d1565b9050949350505050565b611a9881610ea7565b8114611aa2575f5ffd5b50565b5f81519050611ab381611a8f565b92915050565b5f60208284031215611ace57611acd610f1e565b5b5f611adb84828501611aa5565b91505092915050565b7f4e487b71000000000000000000000000000000000000000000000000000000005f52601260045260245ffd5b5f611b1b82610e76565b9150611b2683610e76565b925082611b3657611b35611ae4565b5b82820690509291505056fea2646970667358221220816a442b195ac86f6614d43bb0dcd818340e92f5faf8ea48e5d605f668f6851364736f6c634300081e0033",
					"opcodes": "PUSH1 0xC0 PUSH1 0x40 MSTORE PUSH8 0x4563918244F40000 PUSH8 0xFFFFFFFFFFFFFFFF AND PUSH1 0x3 SSTORE PUSH7 0x354A6BA7A18000 PUSH1 0x4 PUSH0 PUSH2 0x100 EXP DUP2 SLOAD DUP2 PUSH8 0xFFFFFFFFFFFFFFFF MUL NOT AND SWAP1 DUP4 PUSH8 0xFFFFFFFFFFFFFFFF AND MUL OR SWAP1 SSTORE POP PUSH0 PUSH1 0xB PUSH0 PUSH2 0x100 EXP DUP2 SLOAD DUP2 PUSH1 0xFF MUL NOT AND SWAP1 DUP4 ISZERO ISZERO MUL OR SWAP1 SSTORE POP CALLVALUE DUP1 ISZERO PUSH2 0x6D JUMPI PUSH0 PUSH0 REVERT JUMPDEST POP PUSH1 0x40 MLOAD PUSH2 0x1E87 CODESIZE SUB DUP1 PUSH2 0x1E87 DUP4 CODECOPY DUP2 DUP2 ADD PUSH1 0x40 MSTORE DUP2 ADD SWAP1 PUSH2 0x8F SWAP2 SWAP1 PUSH2 0x251 JUMP JUMPDEST DUP1 PUSH0 DUP2 SWAP1 POP DUP1 PUSH20 0xFFFFFFFFFFFFFFFFFFFFFFFFFFFFFFFFFFFFFFFF AND PUSH4 0x1C4695F4 PUSH1 0x40 MLOAD DUP2 PUSH4 0xFFFFFFFF AND PUSH1 0xE0 SHL DUP2 MSTORE PUSH1 0x4 ADD PUSH1 0x20 PUSH1 0x40 MLOAD DUP1 DUP4 SUB DUP2 DUP7 GAS STATICCALL ISZERO DUP1 ISZERO PUSH2 0xDD JUMPI RETURNDATASIZE PUSH0 PUSH0 RETURNDATACOPY RETURNDATASIZE PUSH0 REVERT JUMPDEST POP POP POP POP PUSH1 0x40 MLOAD RETURNDATASIZE PUSH1 0x1F NOT PUSH1 0x1F DUP3 ADD AND DUP3 ADD DUP1 PUSH1 0x40 MSTORE POP DUP2 ADD SWAP1 PUSH2 0x101 SWAP2 SWAP1 PUSH2 0x2A1 JUMP JUMPDEST PUSH20 0xFFFFFFFFFFFFFFFFFFFFFFFFFFFFFFFFFFFFFFFF AND PUSH1 0x80 DUP2 PUSH20 0xFFFFFFFFFFFFFFFFFFFFFFFFFFFFFFFFFFFFFFFF AND DUP2 MSTORE POP POP DUP1 PUSH20 0xFFFFFFFFFFFFFFFFFFFFFFFFFFFFFFFFFFFFFFFF AND PUSH1 0xA0 DUP2 PUSH20 0xFFFFFFFFFFFFFFFFFFFFFFFFFFFFFFFFFFFFFFFF AND DUP2 MSTORE POP POP POP POP CALLER PUSH1 0x2 PUSH0 PUSH2 0x100 EXP DUP2 SLOAD DUP2 PUSH20 0xFFFFFFFFFFFFFFFFFFFFFFFFFFFFFFFFFFFFFFFF MUL NOT AND SWAP1 DUP4 PUSH20 0xFFFFFFFFFFFFFFFFFFFFFFFFFFFFFFFFFFFFFFFF AND MUL OR SWAP1 SSTORE POP DUP3 PUSH1 0x9 DUP2 SWAP1 SSTORE POP DUP2 PUSH1 0xA DUP2 SWAP1 SSTORE POP POP POP POP PUSH2 0x2CC JUMP JUMPDEST PUSH0 PUSH0 REVERT JUMPDEST PUSH0 DUP2 SWAP1 POP SWAP2 SWAP1 POP JUMP JUMPDEST PUSH2 0x1D6 DUP2 PUSH2 0x1C4 JUMP JUMPDEST DUP2 EQ PUSH2 0x1E0 JUMPI PUSH0 PUSH0 REVERT JUMPDEST POP JUMP JUMPDEST PUSH0 DUP2 MLOAD SWAP1 POP PUSH2 0x1F1 DUP2 PUSH2 0x1CD JUMP JUMPDEST SWAP3 SWAP2 POP POP JUMP JUMPDEST PUSH0 PUSH20 0xFFFFFFFFFFFFFFFFFFFFFFFFFFFFFFFFFFFFFFFF DUP3 AND SWAP1 POP SWAP2 SWAP1 POP JUMP JUMPDEST PUSH0 PUSH2 0x220 DUP3 PUSH2 0x1F7 JUMP JUMPDEST SWAP1 POP SWAP2 SWAP1 POP JUMP JUMPDEST PUSH2 0x230 DUP2 PUSH2 0x216 JUMP JUMPDEST DUP2 EQ PUSH2 0x23A JUMPI PUSH0 PUSH0 REVERT JUMPDEST POP JUMP JUMPDEST PUSH0 DUP2 MLOAD SWAP1 POP PUSH2 0x24B DUP2 PUSH2 0x227 JUMP JUMPDEST SWAP3 SWAP2 POP POP JUMP JUMPDEST PUSH0 PUSH0 PUSH0 PUSH1 0x60 DUP5 DUP7 SUB SLT ISZERO PUSH2 0x268 JUMPI PUSH2 0x267 PUSH2 0x1C0 JUMP JUMPDEST JUMPDEST PUSH0 PUSH2 0x275 DUP7 DUP3 DUP8 ADD PUSH2 0x1E3 JUMP JUMPDEST SWAP4 POP POP PUSH1 0x20 PUSH2 0x286 DUP7 DUP3 DUP8 ADD PUSH2 0x1E3 JUMP JUMPDEST SWAP3 POP POP PUSH1 0x40 PUSH2 0x297 DUP7 DUP3 DUP8 ADD PUSH2 0x23D JUMP JUMPDEST SWAP2 POP POP SWAP3 POP SWAP3 POP SWAP3 JUMP JUMPDEST PUSH0 PUSH1 0x20 DUP3 DUP5 SUB SLT ISZERO PUSH2 0x2B6 JUMPI PUSH2 0x2B5 PUSH2 0x1C0 JUMP JUMPDEST JUMPDEST PUSH0 PUSH2 0x2C3 DUP5 DUP3 DUP6 ADD PUSH2 0x23D JUMP JUMPDEST SWAP2 POP POP SWAP3 SWAP2 POP POP JUMP JUMPDEST PUSH1 0x80 MLOAD PUSH1 0xA0 MLOAD PUSH2 0x1B77 PUSH2 0x310 PUSH0 CODECOPY PUSH0 DUP2 DUP2 PUSH2 0x3BE ADD MSTORE DUP2 DUP2 PUSH2 0x757 ADD MSTORE DUP2 DUP2 PUSH2 0xC0A ADD MSTORE DUP2 DUP2 PUSH2 0xCE2 ADD MSTORE PUSH2 0xD89 ADD MSTORE PUSH0 DUP2 DUP2 PUSH2 0x978 ADD MSTORE PUSH2 0xCA6 ADD MSTORE PUSH2 0x1B77 PUSH0 RETURN INVALID PUSH1 0x80 PUSH1 0x40 MSTORE PUSH1 0x4 CALLDATASIZE LT PUSH2 0xF1 JUMPI PUSH0 CALLDATALOAD PUSH1 0xE0 SHR DUP1 PUSH4 0x6AC5DB19 GT PUSH2 0x89 JUMPI DUP1 PUSH4 0xBE9A6555 GT PUSH2 0x58 JUMPI DUP1 PUSH4 0xBE9A6555 EQ PUSH2 0x2EF JUMPI DUP1 PUSH4 0xE76D5168 EQ PUSH2 0x305 JUMPI DUP1 PUSH4 0xF437BC59 EQ PUSH2 0x32F JUMPI DUP1 PUSH4 0xF8897945 EQ PUSH2 0x359 JUMPI PUSH2 0xF1 JUMP JUMPDEST DUP1 PUSH4 0x6AC5DB19 EQ PUSH2 0x255 JUMPI DUP1 PUSH4 0x6C77F989 EQ PUSH2 0x27F JUMPI DUP1 PUSH4 0x877F4E12 EQ PUSH2 0x289 JUMPI DUP1 PUSH4 0x9ED0868D EQ PUSH2 0x2C5 JUMPI PUSH2 0xF1 JUMP JUMPDEST DUP1 PUSH4 0x1FE543E3 GT PUSH2 0xC5 JUMPI DUP1 PUSH4 0x1FE543E3 EQ PUSH2 0x19D JUMPI DUP1 PUSH4 0x278A5FF2 EQ PUSH2 0x1C5 JUMPI DUP1 PUSH4 0x42619F66 EQ PUSH2 0x201 JUMPI DUP1 PUSH4 0x630D1833 EQ PUSH2 0x22B JUMPI PUSH2 0xF1 JUMP JUMPDEST DUP1 PUSH3 0x6D6CAE EQ PUSH2 0xF5 JUMPI DUP1 PUSH4 0x12065FE0 EQ PUSH2 0x11F JUMPI DUP1 PUSH4 0x12FA6FEB EQ PUSH2 0x149 JUMPI DUP1 PUSH4 0x1EECD934 EQ PUSH2 0x173 JUMPI JUMPDEST PUSH0 PUSH0 REVERT JUMPDEST CALLVALUE DUP1 ISZERO PUSH2 0x100 JUMPI PUSH0 PUSH0 REVERT JUMPDEST POP PUSH2 0x109 PUSH2 0x383 JUMP JUMPDEST PUSH1 0x40 MLOAD PUSH2 0x116 SWAP2 SWAP1 PUSH2 0xE8E JUMP JUMPDEST PUSH1 0x40 MLOAD DUP1 SWAP2 SUB SWAP1 RETURN JUMPDEST CALLVALUE DUP1 ISZERO PUSH2 0x12A JUMPI PUSH0 PUSH0 REVERT JUMPDEST POP PUSH2 0x133 PUSH2 0x389 JUMP JUMPDEST PUSH1 0x40 MLOAD PUSH2 0x140 SWAP2 SWAP1 PUSH2 0xE8E JUMP JUMPDEST PUSH1 0x40 MLOAD DUP1 SWAP2 SUB SWAP1 RETURN JUMPDEST CALLVALUE DUP1 ISZERO PUSH2 0x154 JUMPI PUSH0 PUSH0 REVERT JUMPDEST POP PUSH2 0x15D PUSH2 0x390 JUMP JUMPDEST PUSH1 0x40 MLOAD PUSH2 0x16A SWAP2 SWAP1 PUSH2 0xEC1 JUMP JUMPDEST PUSH1 0x40 MLOAD DUP1 SWAP2 SUB SWAP1 RETURN JUMPDEST CALLVALUE DUP1 ISZERO PUSH2 0x17E JUMPI PUSH0 PUSH0 REVERT JUMPDEST POP PUSH2 0x187 PUSH2 0x3A2 JUMP JUMPDEST PUSH1 0x40 MLOAD PUSH2 0x194 SWAP2 SWAP1 PUSH2 0xEFC JUMP JUMPDEST PUSH1 0x40 MLOAD DUP1 SWAP2 SUB SWAP1 RETURN JUMPDEST CALLVALUE DUP1 ISZERO PUSH2 0x1A8 JUMPI PUSH0 PUSH0 REVERT JUMPDEST POP PUSH2 0x1C3 PUSH1 0x4 DUP1 CALLDATASIZE SUB DUP2 ADD SWAP1 PUSH2 0x1BE SWAP2 SWAP1 PUSH2 0x10A0 JUMP JUMPDEST PUSH2 0x3BB JUMP JUMPDEST STOP JUMPDEST CALLVALUE DUP1 ISZERO PUSH2 0x1D0 JUMPI PUSH0 PUSH0 REVERT JUMPDEST POP PUSH2 0x1EB PUSH1 0x4 DUP1 CALLDATASIZE SUB DUP2 ADD SWAP1 PUSH2 0x1E6 SWAP2 SWAP1 PUSH2 0x1154 JUMP JUMPDEST PUSH2 0x460 JUMP JUMPDEST PUSH1 0x40 MLOAD PUSH2 0x1F8 SWAP2 SWAP1 PUSH2 0xEC1 JUMP JUMPDEST PUSH1 0x40 MLOAD DUP1 SWAP2 SUB SWAP1 RETURN JUMPDEST CALLVALUE DUP1 ISZERO PUSH2 0x20C JUMPI PUSH0 PUSH0 REVERT JUMPDEST POP PUSH2 0x215 PUSH2 0x4B2 JUMP JUMPDEST PUSH1 0x40 MLOAD PUSH2 0x222 SWAP2 SWAP1 PUSH2 0xE8E JUMP JUMPDEST PUSH1 0x40 MLOAD DUP1 SWAP2 SUB SWAP1 RETURN JUMPDEST CALLVALUE DUP1 ISZERO PUSH2 0x236 JUMPI PUSH0 PUSH0 REVERT JUMPDEST POP PUSH2 0x23F PUSH2 0x4B8 JUMP JUMPDEST PUSH1 0x40 MLOAD PUSH2 0x24C SWAP2 SWAP1 PUSH2 0xEFC JUMP JUMPDEST PUSH1 0x40 MLOAD DUP1 SWAP2 SUB SWAP1 RETURN JUMPDEST CALLVALUE DUP1 ISZERO PUSH2 0x260 JUMPI PUSH0 PUSH0 REVERT JUMPDEST POP PUSH2 0x269 PUSH2 0x4C4 JUMP JUMPDEST PUSH1 0x40 MLOAD PUSH2 0x276 SWAP2 SWAP1 PUSH2 0xE8E JUMP JUMPDEST PUSH1 0x40 MLOAD DUP1 SWAP2 SUB SWAP1 RETURN JUMPDEST PUSH2 0x287 PUSH2 0x4CA JUMP JUMPDEST STOP JUMPDEST CALLVALUE DUP1 ISZERO PUSH2 0x294 JUMPI PUSH0 PUSH0 REVERT JUMPDEST POP PUSH2 0x2AF PUSH1 0x4 DUP1 CALLDATASIZE SUB DUP2 ADD SWAP1 PUSH2 0x2AA SWAP2 SWAP1 PUSH2 0x1154 JUMP JUMPDEST PUSH2 0x738 JUMP JUMPDEST PUSH1 0x40 MLOAD PUSH2 0x2BC SWAP2 SWAP1 PUSH2 0xEC1 JUMP JUMPDEST PUSH1 0x40 MLOAD DUP1 SWAP2 SUB SWAP1 RETURN JUMPDEST CALLVALUE DUP1 ISZERO PUSH2 0x2D0 JUMPI PUSH0 PUSH0 REVERT JUMPDEST POP PUSH2 0x2D9 PUSH2 0x755 JUMP JUMPDEST PUSH1 0x40 MLOAD PUSH2 0x2E6 SWAP2 SWAP1 PUSH2 0x11DA JUMP JUMPDEST PUSH1 0x40 MLOAD DUP1 SWAP2 SUB SWAP1 RETURN JUMPDEST CALLVALUE DUP1 ISZERO PUSH2 0x2FA JUMPI PUSH0 PUSH0 REVERT JUMPDEST POP PUSH2 0x303 PUSH2 0x779 JUMP JUMPDEST STOP JUMPDEST CALLVALUE DUP1 ISZERO PUSH2 0x310 JUMPI PUSH0 PUSH0 REVERT JUMPDEST POP PUSH2 0x319 PUSH2 0x975 JUMP JUMPDEST PUSH1 0x40 MLOAD PUSH2 0x326 SWAP2 SWAP1 PUSH2 0x1213 JUMP JUMPDEST PUSH1 0x40 MLOAD DUP1 SWAP2 SUB SWAP1 RETURN JUMPDEST CALLVALUE DUP1 ISZERO PUSH2 0x33A JUMPI PUSH0 PUSH0 REVERT JUMPDEST POP PUSH2 0x343 PUSH2 0x99C JUMP JUMPDEST PUSH1 0x40 MLOAD PUSH2 0x350 SWAP2 SWAP1 PUSH2 0x124C JUMP JUMPDEST PUSH1 0x40 MLOAD DUP1 SWAP2 SUB SWAP1 RETURN JUMPDEST CALLVALUE DUP1 ISZERO PUSH2 0x364 JUMPI PUSH0 PUSH0 REVERT JUMPDEST POP PUSH2 0x36D PUSH2 0x9C1 JUMP JUMPDEST PUSH1 0x40 MLOAD PUSH2 0x37A SWAP2 SWAP1 PUSH2 0xE8E JUMP JUMPDEST PUSH1 0x40 MLOAD DUP1 SWAP2 SUB SWAP1 RETURN JUMPDEST PUSH1 0x8 SLOAD DUP2 JUMP JUMPDEST PUSH0 SELFBALANCE SWAP1 POP SWAP1 JUMP JUMPDEST PUSH1 0xB PUSH0 SWAP1 SLOAD SWAP1 PUSH2 0x100 EXP SWAP1 DIV PUSH1 0xFF AND DUP2 JUMP JUMPDEST PUSH1 0x4 PUSH0 SWAP1 SLOAD SWAP1 PUSH2 0x100 EXP SWAP1 DIV PUSH8 0xFFFFFFFFFFFFFFFF AND DUP2 JUMP JUMPDEST PUSH0 PUSH32 0x0 SWAP1 POP DUP1 PUSH20 0xFFFFFFFFFFFFFFFFFFFFFFFFFFFFFFFFFFFFFFFF AND CALLER PUSH20 0xFFFFFFFFFFFFFFFFFFFFFFFFFFFFFFFFFFFFFFFF AND EQ PUSH2 0x451 JUMPI CALLER DUP2 PUSH1 0x40 MLOAD PUSH32 0x8BA9316E00000000000000000000000000000000000000000000000000000000 DUP2 MSTORE PUSH1 0x4 ADD PUSH2 0x448 SWAP3 SWAP2 SWAP1 PUSH2 0x1274 JUMP JUMPDEST PUSH1 0x40 MLOAD DUP1 SWAP2 SUB SWAP1 REVERT JUMPDEST PUSH2 0x45B DUP4 DUP4 PUSH2 0x9C7 JUMP JUMPDEST POP POP POP JUMP JUMPDEST PUSH0 PUSH1 0x1 PUSH0 DUP4 PUSH20 0xFFFFFFFFFFFFFFFFFFFFFFFFFFFFFFFFFFFFFFFF AND PUSH20 0xFFFFFFFFFFFFFFFFFFFFFFFFFFFFFFFFFFFFFFFF AND DUP2 MSTORE PUSH1 0x20 ADD SWAP1 DUP2 MSTORE PUSH1 0x20 ADD PUSH0 KECCAK256 PUSH0 SWAP1 SLOAD SWAP1 PUSH2 0x100 EXP SWAP1 DIV PUSH1 0xFF AND SWAP1 POP SWAP2 SWAP1 POP JUMP JUMPDEST PUSH1 0x7 SLOAD DUP2 JUMP JUMPDEST PUSH8 0x4563918244F40000 DUP2 JUMP JUMPDEST PUSH1 0xA SLOAD DUP2 JUMP JUMPDEST PUSH1 0xB PUSH0 SWAP1 SLOAD SWAP1 PUSH2 0x100 EXP SWAP1 DIV PUSH1 0xFF AND ISZERO PUSH2 0x519 JUMPI PUSH1 0x40 MLOAD PUSH32 0x8C379A000000000000000000000000000000000000000000000000000000000 DUP2 MSTORE PUSH1 0x4 ADD PUSH2 0x510 SWAP1 PUSH2 0x12F5 JUMP JUMPDEST PUSH1 0x40 MLOAD DUP1 SWAP2 SUB SWAP1 REVERT JUMPDEST PUSH1 0x4 PUSH0 SWAP1 SLOAD SWAP1 PUSH2 0x100 EXP SWAP1 DIV PUSH8 0xFFFFFFFFFFFFFFFF AND PUSH8 0xFFFFFFFFFFFFFFFF AND CALLVALUE EQ PUSH2 0x57A JUMPI PUSH1 0x40 MLOAD PUSH32 0x8C379A000000000000000000000000000000000000000000000000000000000 DUP2 MSTORE PUSH1 0x4 ADD PUSH2 0x571 SWAP1 PUSH2 0x135D JUMP JUMPDEST PUSH1 0x40 MLOAD DUP1 SWAP2 SUB SWAP1 REVERT JUMPDEST PUSH1 0xA SLOAD PUSH0 DUP1 SLOAD SWAP1 POP LT PUSH2 0x5C2 JUMPI PUSH1 0x40 MLOAD PUSH32 0x8C379A000000000000000000000000000000000000000000000000000000000 DUP2 MSTORE PUSH1 0x4 ADD PUSH2 0x5B9 SWAP1 PUSH2 0x13C5 JUMP JUMPDEST PUSH1 0x40 MLOAD DUP1 SWAP2 SUB SWAP1 REVERT JUMPDEST PUSH1 0x1 PUSH0 CALLER PUSH20 0xFFFFFFFFFFFFFFFFFFFFFFFFFFFFFFFFFFFFFFFF AND PUSH20 0xFFFFFFFFFFFFFFFFFFFFFFFFFFFFFFFFFFFFFFFF AND DUP2 MSTORE PUSH1 0x20 ADD SWAP1 DUP2 MSTORE PUSH1 0x20 ADD PUSH0 KECCAK256 PUSH0 SWAP1 SLOAD SWAP1 PUSH2 0x100 EXP SWAP1 DIV PUSH1 0xFF AND ISZERO PUSH2 0x64C JUMPI PUSH1 0x40 MLOAD PUSH32 0x8C379A000000000000000000000000000000000000000000000000000000000 DUP2 MSTORE PUSH1 0x4 ADD PUSH2 0x643 SWAP1 PUSH2 0x1453 JUMP JUMPDEST PUSH1 0x40 MLOAD DUP1 SWAP2 SUB SWAP1 REVERT JUMPDEST PUSH0 CALLER SWAP1 DUP1 PUSH1 0x1 DUP2 SLOAD ADD DUP1 DUP3 SSTORE DUP1 SWAP2 POP POP PUSH1 0x1 SWAP1 SUB SWAP1 PUSH0 MSTORE PUSH1 0x20 PUSH0 KECCAK256 ADD PUSH0 SWAP1 SWAP2 SWAP1 SWAP2 SWAP1 SWAP2 PUSH2 0x100 EXP DUP2 SLOAD DUP2 PUSH20 0xFFFFFFFFFFFFFFFFFFFFFFFFFFFFFFFFFFFFFFFF MUL NOT AND SWAP1 DUP4 PUSH20 0xFFFFFFFFFFFFFFFFFFFFFFFFFFFFFFFFFFFFFFFF AND MUL OR SWAP1 SSTORE POP PUSH1 0x1 DUP1 PUSH0 CALLER PUSH20 0xFFFFFFFFFFFFFFFFFFFFFFFFFFFFFFFFFFFFFFFF AND PUSH20 0xFFFFFFFFFFFFFFFFFFFFFFFFFFFFFFFFFFFFFFFF AND DUP2 MSTORE PUSH1 0x20 ADD SWAP1 DUP2 MSTORE PUSH1 0x20 ADD PUSH0 KECCAK256 PUSH0 PUSH2 0x100 EXP DUP2 SLOAD DUP2 PUSH1 0xFF MUL NOT AND SWAP1 DUP4 ISZERO ISZERO MUL OR SWAP1 SSTORE POP PUSH32 0x5D7FE1CBBC608689987406644EE6A48EA79E623710C4C184FC02AA6370AD5ED6 CALLER PUSH1 0x40 MLOAD PUSH2 0x72E SWAP2 SWAP1 PUSH2 0x14BB JUMP JUMPDEST PUSH1 0x40 MLOAD DUP1 SWAP2 SUB SWAP1 LOG1 JUMP JUMPDEST PUSH1 0x1 PUSH1 0x20 MSTORE DUP1 PUSH0 MSTORE PUSH1 0x40 PUSH0 KECCAK256 PUSH0 SWAP2 POP SLOAD SWAP1 PUSH2 0x100 EXP SWAP1 DIV PUSH1 0xFF AND DUP2 JUMP JUMPDEST PUSH32 0x0 DUP2 JUMP JUMPDEST PUSH1 0x2 PUSH0 SWAP1 SLOAD SWAP1 PUSH2 0x100 EXP SWAP1 DIV PUSH20 0xFFFFFFFFFFFFFFFFFFFFFFFFFFFFFFFFFFFFFFFF AND PUSH20 0xFFFFFFFFFFFFFFFFFFFFFFFFFFFFFFFFFFFFFFFF AND CALLER PUSH20 0xFFFFFFFFFFFFFFFFFFFFFFFFFFFFFFFFFFFFFFFF AND EQ PUSH2 0x808 JUMPI PUSH1 0x40 MLOAD PUSH32 0x8C379A000000000000000000000000000000000000000000000000000000000 DUP2 MSTORE PUSH1 0x4 ADD PUSH2 0x7FF SWAP1 PUSH2 0x1531 JUMP JUMPDEST PUSH1 0x40 MLOAD DUP1 SWAP2 SUB SWAP1 REVERT JUMPDEST PUSH1 0xB PUSH0 SWAP1 SLOAD SWAP1 PUSH2 0x100 EXP SWAP1 DIV PUSH1 0xFF AND ISZERO PUSH2 0x857 JUMPI PUSH1 0x40 MLOAD PUSH32 0x8C379A000000000000000000000000000000000000000000000000000000000 DUP2 MSTORE PUSH1 0x4 ADD PUSH2 0x84E SWAP1 PUSH2 0x1599 JUMP JUMPDEST PUSH1 0x40 MLOAD DUP1 SWAP2 SUB SWAP1 REVERT JUMPDEST PUSH1 0x9 SLOAD PUSH0 DUP1 SLOAD SWAP1 POP LT ISZERO PUSH2 0x8A0 JUMPI PUSH1 0x40 MLOAD PUSH32 0x8C379A000000000000000000000000000000000000000000000000000000000 DUP2 MSTORE PUSH1 0x4 ADD PUSH2 0x897 SWAP1 PUSH2 0x1627 JUMP JUMPDEST PUSH1 0x40 MLOAD DUP1 SWAP2 SUB SWAP1 REVERT JUMPDEST PUSH0 PUSH0 DUP1 SLOAD SWAP1 POP GT PUSH2 0x8E6 JUMPI PUSH1 0x40 MLOAD PUSH32 0x8C379A000000000000000000000000000000000000000000000000000000000 DUP2 MSTORE PUSH1 0x4 ADD PUSH2 0x8DD SWAP1 PUSH2 0x168F JUMP JUMPDEST PUSH1 0x40 MLOAD DUP1 SWAP2 SUB SWAP1 REVERT JUMPDEST PUSH8 0x4563918244F40000 PUSH8 0xFFFFFFFFFFFFFFFF AND SELFBALANCE LT ISZERO PUSH2 0x93B JUMPI PUSH1 0x40 MLOAD PUSH32 0x8C379A000000000000000000000000000000000000000000000000000000000 DUP2 MSTORE PUSH1 0x4 ADD PUSH2 0x932 SWAP1 PUSH2 0x171D JUMP JUMPDEST PUSH1 0x40 MLOAD DUP1 SWAP2 SUB SWAP1 REVERT JUMPDEST PUSH0 PUSH2 0x955 PUSH1 0x40 MLOAD DUP1 PUSH1 0x20 ADD PUSH1 0x40 MSTORE DUP1 PUSH0 ISZERO ISZERO DUP2 MSTORE POP PUSH2 0xB6E JUMP JUMPDEST SWAP1 POP PUSH2 0x968 PUSH3 0x186A0 PUSH1 0x3 PUSH1 0x1 DUP5 PUSH2 0xC06 JUMP JUMPDEST POP PUSH1 0x8 PUSH0 DUP3 SWAP2 SWAP1 POP SSTORE POP POP JUMP JUMPDEST PUSH0 PUSH32 0x0 SWAP1 POP SWAP1 JUMP JUMPDEST PUSH1 0x2 PUSH0 SWAP1 SLOAD SWAP1 PUSH2 0x100 EXP SWAP1 DIV PUSH20 0xFFFFFFFFFFFFFFFFFFFFFFFFFFFFFFFFFFFFFFFF AND DUP2 JUMP JUMPDEST PUSH1 0x9 SLOAD DUP2 JUMP JUMPDEST PUSH0 DUP2 MLOAD GT PUSH2 0xA0A JUMPI PUSH1 0x40 MLOAD PUSH32 0x8C379A000000000000000000000000000000000000000000000000000000000 DUP2 MSTORE PUSH1 0x4 ADD PUSH2 0xA01 SWAP1 PUSH2 0x1785 JUMP JUMPDEST PUSH1 0x40 MLOAD DUP1 SWAP2 SUB SWAP1 REVERT JUMPDEST PUSH0 PUSH0 DUP1 SLOAD SWAP1 POP GT PUSH2 0xA50 JUMPI PUSH1 0x40 MLOAD PUSH32 0x8C379A000000000000000000000000000000000000000000000000000000000 DUP2 MSTORE PUSH1 0x4 ADD PUSH2 0xA47 SWAP1 PUSH2 0x17ED JUMP JUMPDEST PUSH1 0x40 MLOAD DUP1 SWAP2 SUB SWAP1 REVERT JUMPDEST DUP1 PUSH0 DUP2 MLOAD DUP2 LT PUSH2 0xA63 JUMPI PUSH2 0xA62 PUSH2 0x180B JUMP JUMPDEST JUMPDEST PUSH1 0x20 MUL PUSH1 0x20 ADD ADD MLOAD PUSH1 0x7 DUP2 SWAP1 SSTORE POP PUSH0 PUSH2 0xA7A PUSH2 0xE1F JUMP JUMPDEST SWAP1 POP PUSH32 0x6F2EF2E5AA9339A9D2FC1E8C9B2924CD1E974FD3DBD59F2D86F241820B7DBD76 DUP2 PUSH8 0x4563918244F40000 PUSH1 0x40 MLOAD PUSH2 0xAB5 SWAP3 SWAP2 SWAP1 PUSH2 0x1838 JUMP JUMPDEST PUSH1 0x40 MLOAD DUP1 SWAP2 SUB SWAP1 LOG1 PUSH1 0x1 PUSH1 0xB PUSH0 PUSH2 0x100 EXP DUP2 SLOAD DUP2 PUSH1 0xFF MUL NOT AND SWAP1 DUP4 ISZERO ISZERO MUL OR SWAP1 SSTORE POP PUSH1 0x3 SLOAD CALLVALUE LT ISZERO PUSH2 0xB1C JUMPI PUSH1 0x40 MLOAD PUSH32 0x8C379A000000000000000000000000000000000000000000000000000000000 DUP2 MSTORE PUSH1 0x4 ADD PUSH2 0xB13 SWAP1 PUSH2 0x18A9 JUMP JUMPDEST PUSH1 0x40 MLOAD DUP1 SWAP2 SUB SWAP1 REVERT JUMPDEST DUP1 PUSH20 0xFFFFFFFFFFFFFFFFFFFFFFFFFFFFFFFFFFFFFFFF AND PUSH2 0x8FC PUSH1 0x3 SLOAD SWAP1 DUP2 ISZERO MUL SWAP1 PUSH1 0x40 MLOAD PUSH0 PUSH1 0x40 MLOAD DUP1 DUP4 SUB DUP2 DUP6 DUP9 DUP9 CALL SWAP4 POP POP POP POP ISZERO DUP1 ISZERO PUSH2 0xB61 JUMPI RETURNDATASIZE PUSH0 PUSH0 RETURNDATACOPY RETURNDATASIZE PUSH0 REVERT JUMPDEST POP PUSH0 PUSH1 0x3 DUP2 SWAP1 SSTORE POP POP POP POP JUMP JUMPDEST PUSH1 0x60 PUSH32 0x92FD13387C7FE7BEFBC38D303D6468778FB9731BC4583F17D92989C6FCFDEAAA DUP3 PUSH1 0x40 MLOAD PUSH1 0x24 ADD PUSH2 0xBA2 SWAP2 SWAP1 PUSH2 0x18F0 JUMP JUMPDEST PUSH1 0x40 MLOAD PUSH1 0x20 DUP2 DUP4 SUB SUB DUP2 MSTORE SWAP1 PUSH1 0x40 MSTORE SWAP1 PUSH28 0xFFFFFFFFFFFFFFFFFFFFFFFFFFFFFFFFFFFFFFFFFFFFFFFFFFFFFFFF NOT AND PUSH1 0x20 DUP3 ADD DUP1 MLOAD PUSH28 0xFFFFFFFFFFFFFFFFFFFFFFFFFFFFFFFFFFFFFFFFFFFFFFFFFFFFFFFF DUP4 DUP2 DUP4 AND OR DUP4 MSTORE POP POP POP POP SWAP1 POP SWAP2 SWAP1 POP JUMP JUMPDEST PUSH0 PUSH0 PUSH32 0x0 PUSH20 0xFFFFFFFFFFFFFFFFFFFFFFFFFFFFFFFFFFFFFFFF AND PUSH4 0x27E5C50A DUP8 DUP7 PUSH1 0x40 MLOAD DUP4 PUSH4 0xFFFFFFFF AND PUSH1 0xE0 SHL DUP2 MSTORE PUSH1 0x4 ADD PUSH2 0xC63 SWAP3 SWAP2 SWAP1 PUSH2 0x1927 JUMP JUMPDEST PUSH1 0x20 PUSH1 0x40 MLOAD DUP1 DUP4 SUB DUP2 DUP7 GAS STATICCALL ISZERO DUP1 ISZERO PUSH2 0xC7E JUMPI RETURNDATASIZE PUSH0 PUSH0 RETURNDATACOPY RETURNDATASIZE PUSH0 REVERT JUMPDEST POP POP POP POP PUSH1 0x40 MLOAD RETURNDATASIZE PUSH1 0x1F NOT PUSH1 0x1F DUP3 ADD AND DUP3 ADD DUP1 PUSH1 0x40 MSTORE POP DUP2 ADD SWAP1 PUSH2 0xCA2 SWAP2 SWAP1 PUSH2 0x1962 JUMP JUMPDEST SWAP1 POP PUSH32 0x0 PUSH20 0xFFFFFFFFFFFFFFFFFFFFFFFFFFFFFFFFFFFFFFFF AND PUSH4 0x4000AEA0 PUSH32 0x0 DUP4 DUP10 DUP10 DUP10 DUP10 PUSH1 0x40 MLOAD PUSH1 0x20 ADD PUSH2 0xD19 SWAP5 SWAP4 SWAP3 SWAP2 SWAP1 PUSH2 0x1A09 JUMP JUMPDEST PUSH1 0x40 MLOAD PUSH1 0x20 DUP2 DUP4 SUB SUB DUP2 MSTORE SWAP1 PUSH1 0x40 MSTORE PUSH1 0x40 MLOAD DUP5 PUSH4 0xFFFFFFFF AND PUSH1 0xE0 SHL DUP2 MSTORE PUSH1 0x4 ADD PUSH2 0xD46 SWAP4 SWAP3 SWAP2 SWAP1 PUSH2 0x1A53 JUMP JUMPDEST PUSH1 0x20 PUSH1 0x40 MLOAD DUP1 DUP4 SUB DUP2 PUSH0 DUP8 GAS CALL ISZERO DUP1 ISZERO PUSH2 0xD62 JUMPI RETURNDATASIZE PUSH0 PUSH0 RETURNDATACOPY RETURNDATASIZE PUSH0 REVERT JUMPDEST POP POP POP POP PUSH1 0x40 MLOAD RETURNDATASIZE PUSH1 0x1F NOT PUSH1 0x1F DUP3 ADD AND DUP3 ADD DUP1 PUSH1 0x40 MSTORE POP DUP2 ADD SWAP1 PUSH2 0xD86 SWAP2 SWAP1 PUSH2 0x1AB9 JUMP JUMPDEST POP PUSH32 0x0 PUSH20 0xFFFFFFFFFFFFFFFFFFFFFFFFFFFFFFFFFFFFFFFF AND PUSH4 0xFC2A88C3 PUSH1 0x40 MLOAD DUP2 PUSH4 0xFFFFFFFF AND PUSH1 0xE0 SHL DUP2 MSTORE PUSH1 0x4 ADD PUSH1 0x20 PUSH1 0x40 MLOAD DUP1 DUP4 SUB DUP2 DUP7 GAS STATICCALL ISZERO DUP1 ISZERO PUSH2 0xDF0 JUMPI RETURNDATASIZE PUSH0 PUSH0 RETURNDATACOPY RETURNDATASIZE PUSH0 REVERT JUMPDEST POP POP POP POP PUSH1 0x40 MLOAD RETURNDATASIZE PUSH1 0x1F NOT PUSH1 0x1F DUP3 ADD AND DUP3 ADD DUP1 PUSH1 0x40 MSTORE POP DUP2 ADD SWAP1 PUSH2 0xE14 SWAP2 SWAP1 PUSH2 0x1962 JUMP JUMPDEST SWAP2 POP SWAP5 POP SWAP5 SWAP3 POP POP POP JUMP JUMPDEST PUSH0 PUSH0 PUSH0 DUP1 SLOAD SWAP1 POP PUSH1 0x7 SLOAD PUSH2 0xE33 SWAP2 SWAP1 PUSH2 0x1B11 JUMP JUMPDEST SWAP1 POP PUSH0 DUP2 DUP2 SLOAD DUP2 LT PUSH2 0xE48 JUMPI PUSH2 0xE47 PUSH2 0x180B JUMP JUMPDEST JUMPDEST SWAP1 PUSH0 MSTORE PUSH1 0x20 PUSH0 KECCAK256 ADD PUSH0 SWAP1 SLOAD SWAP1 PUSH2 0x100 EXP SWAP1 DIV PUSH20 0xFFFFFFFFFFFFFFFFFFFFFFFFFFFFFFFFFFFFFFFF AND SWAP2 POP POP SWAP1 JUMP JUMPDEST PUSH0 DUP2 SWAP1 POP SWAP2 SWAP1 POP JUMP JUMPDEST PUSH2 0xE88 DUP2 PUSH2 0xE76 JUMP JUMPDEST DUP3 MSTORE POP POP JUMP JUMPDEST PUSH0 PUSH1 0x20 DUP3 ADD SWAP1 POP PUSH2 0xEA1 PUSH0 DUP4 ADD DUP5 PUSH2 0xE7F JUMP JUMPDEST SWAP3 SWAP2 POP POP JUMP JUMPDEST PUSH0 DUP2 ISZERO ISZERO SWAP1 POP SWAP2 SWAP1 POP JUMP JUMPDEST PUSH2 0xEBB DUP2 PUSH2 0xEA7 JUMP JUMPDEST DUP3 MSTORE POP POP JUMP JUMPDEST PUSH0 PUSH1 0x20 DUP3 ADD SWAP1 POP PUSH2 0xED4 PUSH0 DUP4 ADD DUP5 PUSH2 0xEB2 JUMP JUMPDEST SWAP3 SWAP2 POP POP JUMP JUMPDEST PUSH0 PUSH8 0xFFFFFFFFFFFFFFFF DUP3 AND SWAP1 POP SWAP2 SWAP1 POP JUMP JUMPDEST PUSH2 0xEF6 DUP2 PUSH2 0xEDA JUMP JUMPDEST DUP3 MSTORE POP POP JUMP JUMPDEST PUSH0 PUSH1 0x20 DUP3 ADD SWAP1 POP PUSH2 0xF0F PUSH0 DUP4 ADD DUP5 PUSH2 0xEED JUMP JUMPDEST SWAP3 SWAP2 POP POP JUMP JUMPDEST PUSH0 PUSH1 0x40 MLOAD SWAP1 POP SWAP1 JUMP JUMPDEST PUSH0 PUSH0 REVERT JUMPDEST PUSH0 PUSH0 REVERT JUMPDEST PUSH2 0xF2F DUP2 PUSH2 0xE76 JUMP JUMPDEST DUP2 EQ PUSH2 0xF39 JUMPI PUSH0 PUSH0 REVERT JUMPDEST POP JUMP JUMPDEST PUSH0 DUP2 CALLDATALOAD SWAP1 POP PUSH2 0xF4A DUP2 PUSH2 0xF26 JUMP JUMPDEST SWAP3 SWAP2 POP POP JUMP JUMPDEST PUSH0 PUSH0 REVERT JUMPDEST PUSH0 PUSH1 0x1F NOT PUSH1 0x1F DUP4 ADD AND SWAP1 POP SWAP2 SWAP1 POP JUMP JUMPDEST PUSH32 0x4E487B7100000000000000000000000000000000000000000000000000000000 PUSH0 MSTORE PUSH1 0x41 PUSH1 0x4 MSTORE PUSH1 0x24 PUSH0 REVERT JUMPDEST PUSH2 0xF9A DUP3 PUSH2 0xF54 JUMP JUMPDEST DUP2 ADD DUP2 DUP2 LT PUSH8 0xFFFFFFFFFFFFFFFF DUP3 GT OR ISZERO PUSH2 0xFB9 JUMPI PUSH2 0xFB8 PUSH2 0xF64 JUMP JUMPDEST JUMPDEST DUP1 PUSH1 0x40 MSTORE POP POP POP JUMP JUMPDEST PUSH0 PUSH2 0xFCB PUSH2 0xF15 JUMP JUMPDEST SWAP1 POP PUSH2 0xFD7 DUP3 DUP3 PUSH2 0xF91 JUMP JUMPDEST SWAP2 SWAP1 POP JUMP JUMPDEST PUSH0 PUSH8 0xFFFFFFFFFFFFFFFF DUP3 GT ISZERO PUSH2 0xFF6 JUMPI PUSH2 0xFF5 PUSH2 0xF64 JUMP JUMPDEST JUMPDEST PUSH1 0x20 DUP3 MUL SWAP1 POP PUSH1 0x20 DUP2 ADD SWAP1 POP SWAP2 SWAP1 POP JUMP JUMPDEST PUSH0 PUSH0 REVERT JUMPDEST PUSH0 PUSH2 0x101D PUSH2 0x1018 DUP5 PUSH2 0xFDC JUMP JUMPDEST PUSH2 0xFC2 JUMP JUMPDEST SWAP1 POP DUP1 DUP4 DUP3 MSTORE PUSH1 0x20 DUP3 ADD SWAP1 POP PUSH1 0x20 DUP5 MUL DUP4 ADD DUP6 DUP2 GT ISZERO PUSH2 0x1040 JUMPI PUSH2 0x103F PUSH2 0x1007 JUMP JUMPDEST JUMPDEST DUP4 JUMPDEST DUP2 DUP2 LT ISZERO PUSH2 0x1069 JUMPI DUP1 PUSH2 0x1055 DUP9 DUP3 PUSH2 0xF3C JUMP JUMPDEST DUP5 MSTORE PUSH1 0x20 DUP5 ADD SWAP4 POP POP PUSH1 0x20 DUP2 ADD SWAP1 POP PUSH2 0x1042 JUMP JUMPDEST POP POP POP SWAP4 SWAP3 POP POP POP JUMP JUMPDEST PUSH0 DUP3 PUSH1 0x1F DUP4 ADD SLT PUSH2 0x1087 JUMPI PUSH2 0x1086 PUSH2 0xF50 JUMP JUMPDEST JUMPDEST DUP2 CALLDATALOAD PUSH2 0x1097 DUP5 DUP3 PUSH1 0x20 DUP7 ADD PUSH2 0x100B JUMP JUMPDEST SWAP2 POP POP SWAP3 SWAP2 POP POP JUMP JUMPDEST PUSH0 PUSH0 PUSH1 0x40 DUP4 DUP6 SUB SLT ISZERO PUSH2 0x10B6 JUMPI PUSH2 0x10B5 PUSH2 0xF1E JUMP JUMPDEST JUMPDEST PUSH0 PUSH2 0x10C3 DUP6 DUP3 DUP7 ADD PUSH2 0xF3C JUMP JUMPDEST SWAP3 POP POP PUSH1 0x20 DUP4 ADD CALLDATALOAD PUSH8 0xFFFFFFFFFFFFFFFF DUP2 GT ISZERO PUSH2 0x10E4 JUMPI PUSH2 0x10E3 PUSH2 0xF22 JUMP JUMPDEST JUMPDEST PUSH2 0x10F0 DUP6 DUP3 DUP7 ADD PUSH2 0x1073 JUMP JUMPDEST SWAP2 POP POP SWAP3 POP SWAP3 SWAP1 POP JUMP JUMPDEST PUSH0 PUSH20 0xFFFFFFFFFFFFFFFFFFFFFFFFFFFFFFFFFFFFFFFF DUP3 AND SWAP1 POP SWAP2 SWAP1 POP JUMP JUMPDEST PUSH0 PUSH2 0x1123 DUP3 PUSH2 0x10FA JUMP JUMPDEST SWAP1 POP SWAP2 SWAP1 POP JUMP JUMPDEST PUSH2 0x1133 DUP2 PUSH2 0x1119 JUMP JUMPDEST DUP2 EQ PUSH2 0x113D JUMPI PUSH0 PUSH0 REVERT JUMPDEST POP JUMP JUMPDEST PUSH0 DUP2 CALLDATALOAD SWAP1 POP PUSH2 0x114E DUP2 PUSH2 0x112A JUMP JUMPDEST SWAP3 SWAP2 POP POP JUMP JUMPDEST PUSH0 PUSH1 0x20 DUP3 DUP5 SUB SLT ISZERO PUSH2 0x1169 JUMPI PUSH2 0x1168 PUSH2 0xF1E JUMP JUMPDEST JUMPDEST PUSH0 PUSH2 0x1176 DUP5 DUP3 DUP6 ADD PUSH2 0x1140 JUMP JUMPDEST SWAP2 POP POP SWAP3 SWAP2 POP POP JUMP JUMPDEST PUSH0 DUP2 SWAP1 POP SWAP2 SWAP1 POP JUMP JUMPDEST PUSH0 PUSH2 0x11A2 PUSH2 0x119D PUSH2 0x1198 DUP5 PUSH2 0x10FA JUMP JUMPDEST PUSH2 0x117F JUMP JUMPDEST PUSH2 0x10FA JUMP JUMPDEST SWAP1 POP SWAP2 SWAP1 POP JUMP JUMPDEST PUSH0 PUSH2 0x11B3 DUP3 PUSH2 0x1188 JUMP JUMPDEST SWAP1 POP SWAP2 SWAP1 POP JUMP JUMPDEST PUSH0 PUSH2 0x11C4 DUP3 PUSH2 0x11A9 JUMP JUMPDEST SWAP1 POP SWAP2 SWAP1 POP JUMP JUMPDEST PUSH2 0x11D4 DUP2 PUSH2 0x11BA JUMP JUMPDEST DUP3 MSTORE POP POP JUMP JUMPDEST PUSH0 PUSH1 0x20 DUP3 ADD SWAP1 POP PUSH2 0x11ED PUSH0 DUP4 ADD DUP5 PUSH2 0x11CB JUMP JUMPDEST SWAP3 SWAP2 POP POP JUMP JUMPDEST PUSH0 PUSH2 0x11FD DUP3 PUSH2 0x11A9 JUMP JUMPDEST SWAP1 POP SWAP2 SWAP1 POP JUMP JUMPDEST PUSH2 0x120D DUP2 PUSH2 0x11F3 JUMP JUMPDEST DUP3 MSTORE POP POP JUMP JUMPDEST PUSH0 PUSH1 0x20 DUP3 ADD SWAP1 POP PUSH2 0x1226 PUSH0 DUP4 ADD DUP5 PUSH2 0x1204 JUMP JUMPDEST SWAP3 SWAP2 POP POP JUMP JUMPDEST PUSH0 PUSH2 0x1236 DUP3 PUSH2 0x10FA JUMP JUMPDEST SWAP1 POP SWAP2 SWAP1 POP JUMP JUMPDEST PUSH2 0x1246 DUP2 PUSH2 0x122C JUMP JUMPDEST DUP3 MSTORE POP POP JUMP JUMPDEST PUSH0 PUSH1 0x20 DUP3 ADD SWAP1 POP PUSH2 0x125F PUSH0 DUP4 ADD DUP5 PUSH2 0x123D JUMP JUMPDEST SWAP3 SWAP2 POP POP JUMP JUMPDEST PUSH2 0x126E DUP2 PUSH2 0x1119 JUMP JUMPDEST DUP3 MSTORE POP POP JUMP JUMPDEST PUSH0 PUSH1 0x40 DUP3 ADD SWAP1 POP PUSH2 0x1287 PUSH0 DUP4 ADD DUP6 PUSH2 0x1265 JUMP JUMPDEST PUSH2 0x1294 PUSH1 0x20 DUP4 ADD DUP5 PUSH2 0x1265 JUMP JUMPDEST SWAP4 SWAP3 POP POP POP JUMP JUMPDEST PUSH0 DUP3 DUP3 MSTORE PUSH1 0x20 DUP3 ADD SWAP1 POP SWAP3 SWAP2 POP POP JUMP JUMPDEST PUSH32 0x4C6F74746572792068617320656E6465642E0000000000000000000000000000 PUSH0 DUP3 ADD MSTORE POP JUMP JUMPDEST PUSH0 PUSH2 0x12DF PUSH1 0x12 DUP4 PUSH2 0x129B JUMP JUMPDEST SWAP2 POP PUSH2 0x12EA DUP3 PUSH2 0x12AB JUMP JUMPDEST PUSH1 0x20 DUP3 ADD SWAP1 POP SWAP2 SWAP1 POP JUMP JUMPDEST PUSH0 PUSH1 0x20 DUP3 ADD SWAP1 POP DUP2 DUP2 SUB PUSH0 DUP4 ADD MSTORE PUSH2 0x130C DUP2 PUSH2 0x12D3 JUMP JUMPDEST SWAP1 POP SWAP2 SWAP1 POP JUMP JUMPDEST PUSH32 0x57726F6E6720416D6F756E742E00000000000000000000000000000000000000 PUSH0 DUP3 ADD MSTORE POP JUMP JUMPDEST PUSH0 PUSH2 0x1347 PUSH1 0xD DUP4 PUSH2 0x129B JUMP JUMPDEST SWAP2 POP PUSH2 0x1352 DUP3 PUSH2 0x1313 JUMP JUMPDEST PUSH1 0x20 DUP3 ADD SWAP1 POP SWAP2 SWAP1 POP JUMP JUMPDEST PUSH0 PUSH1 0x20 DUP3 ADD SWAP1 POP DUP2 DUP2 SUB PUSH0 DUP4 ADD MSTORE PUSH2 0x1374 DUP2 PUSH2 0x133B JUMP JUMPDEST SWAP1 POP SWAP2 SWAP1 POP JUMP JUMPDEST PUSH32 0x54686973206C6F74746572792069732066756C6C2E0000000000000000000000 PUSH0 DUP3 ADD MSTORE POP JUMP JUMPDEST PUSH0 PUSH2 0x13AF PUSH1 0x15 DUP4 PUSH2 0x129B JUMP JUMPDEST SWAP2 POP PUSH2 0x13BA DUP3 PUSH2 0x137B JUMP JUMPDEST PUSH1 0x20 DUP3 ADD SWAP1 POP SWAP2 SWAP1 POP JUMP JUMPDEST PUSH0 PUSH1 0x20 DUP3 ADD SWAP1 POP DUP2 DUP2 SUB PUSH0 DUP4 ADD MSTORE PUSH2 0x13DC DUP2 PUSH2 0x13A3 JUMP JUMPDEST SWAP1 POP SWAP2 SWAP1 POP JUMP JUMPDEST PUSH32 0x596F75206861766520616C7265616479206A6F696E65642074686973206C6F74 PUSH0 DUP3 ADD MSTORE PUSH32 0x746572792E000000000000000000000000000000000000000000000000000000 PUSH1 0x20 DUP3 ADD MSTORE POP JUMP JUMPDEST PUSH0 PUSH2 0x143D PUSH1 0x25 DUP4 PUSH2 0x129B JUMP JUMPDEST SWAP2 POP PUSH2 0x1448 DUP3 PUSH2 0x13E3 JUMP JUMPDEST PUSH1 0x40 DUP3 ADD SWAP1 POP SWAP2 SWAP1 POP JUMP JUMPDEST PUSH0 PUSH1 0x20 DUP3 ADD SWAP1 POP DUP2 DUP2 SUB PUSH0 DUP4 ADD MSTORE PUSH2 0x146A DUP2 PUSH2 0x1431 JUMP JUMPDEST SWAP1 POP SWAP2 SWAP1 POP JUMP JUMPDEST PUSH32 0x6A6F696E65640000000000000000000000000000000000000000000000000000 PUSH0 DUP3 ADD MSTORE POP JUMP JUMPDEST PUSH0 PUSH2 0x14A5 PUSH1 0x6 DUP4 PUSH2 0x129B JUMP JUMPDEST SWAP2 POP PUSH2 0x14B0 DUP3 PUSH2 0x1471 JUMP JUMPDEST PUSH1 0x20 DUP3 ADD SWAP1 POP SWAP2 SWAP1 POP JUMP JUMPDEST PUSH0 PUSH1 0x40 DUP3 ADD SWAP1 POP PUSH2 0x14CE PUSH0 DUP4 ADD DUP5 PUSH2 0x1265 JUMP JUMPDEST DUP2 DUP2 SUB PUSH1 0x20 DUP4 ADD MSTORE PUSH2 0x14DF DUP2 PUSH2 0x1499 JUMP JUMPDEST SWAP1 POP SWAP3 SWAP2 POP POP JUMP JUMPDEST PUSH32 0x596F7520617265206E6F742074686520686F73742E0000000000000000000000 PUSH0 DUP3 ADD MSTORE POP JUMP JUMPDEST PUSH0 PUSH2 0x151B PUSH1 0x15 DUP4 PUSH2 0x129B JUMP JUMPDEST SWAP2 POP PUSH2 0x1526 DUP3 PUSH2 0x14E7 JUMP JUMPDEST PUSH1 0x20 DUP3 ADD SWAP1 POP SWAP2 SWAP1 POP JUMP JUMPDEST PUSH0 PUSH1 0x20 DUP3 ADD SWAP1 POP DUP2 DUP2 SUB PUSH0 DUP4 ADD MSTORE PUSH2 0x1548 DUP2 PUSH2 0x150F JUMP JUMPDEST SWAP1 POP SWAP2 SWAP1 POP JUMP JUMPDEST PUSH32 0x4C6F74746572792068617320616C726561647920656E64656400000000000000 PUSH0 DUP3 ADD MSTORE POP JUMP JUMPDEST PUSH0 PUSH2 0x1583 PUSH1 0x19 DUP4 PUSH2 0x129B JUMP JUMPDEST SWAP2 POP PUSH2 0x158E DUP3 PUSH2 0x154F JUMP JUMPDEST PUSH1 0x20 DUP3 ADD SWAP1 POP SWAP2 SWAP1 POP JUMP JUMPDEST PUSH0 PUSH1 0x20 DUP3 ADD SWAP1 POP DUP2 DUP2 SUB PUSH0 DUP4 ADD MSTORE PUSH2 0x15B0 DUP2 PUSH2 0x1577 JUMP JUMPDEST SWAP1 POP SWAP2 SWAP1 POP JUMP JUMPDEST PUSH32 0x546865726520617265206E6F7420656E6F7567682070656F706C6520746F2073 PUSH0 DUP3 ADD MSTORE PUSH32 0x746172742074686973206C6F7474657279000000000000000000000000000000 PUSH1 0x20 DUP3 ADD MSTORE POP JUMP JUMPDEST PUSH0 PUSH2 0x1611 PUSH1 0x31 DUP4 PUSH2 0x129B JUMP JUMPDEST SWAP2 POP PUSH2 0x161C DUP3 PUSH2 0x15B7 JUMP JUMPDEST PUSH1 0x40 DUP3 ADD SWAP1 POP SWAP2 SWAP1 POP JUMP JUMPDEST PUSH0 PUSH1 0x20 DUP3 ADD SWAP1 POP DUP2 DUP2 SUB PUSH0 DUP4 ADD MSTORE PUSH2 0x163E DUP2 PUSH2 0x1605 JUMP JUMPDEST SWAP1 POP SWAP2 SWAP1 POP JUMP JUMPDEST PUSH32 0x4E6F207061727469636970616E74730000000000000000000000000000000000 PUSH0 DUP3 ADD MSTORE POP JUMP JUMPDEST PUSH0 PUSH2 0x1679 PUSH1 0xF DUP4 PUSH2 0x129B JUMP JUMPDEST SWAP2 POP PUSH2 0x1684 DUP3 PUSH2 0x1645 JUMP JUMPDEST PUSH1 0x20 DUP3 ADD SWAP1 POP SWAP2 SWAP1 POP JUMP JUMPDEST PUSH0 PUSH1 0x20 DUP3 ADD SWAP1 POP DUP2 DUP2 SUB PUSH0 DUP4 ADD MSTORE PUSH2 0x16A6 DUP2 PUSH2 0x166D JUMP JUMPDEST SWAP1 POP SWAP2 SWAP1 POP JUMP JUMPDEST PUSH32 0x496E73756666696369656E7420636F6E74726163742062616C616E636520666F PUSH0 DUP3 ADD MSTORE PUSH32 0x72207072697A652E000000000000000000000000000000000000000000000000 PUSH1 0x20 DUP3 ADD MSTORE POP JUMP JUMPDEST PUSH0 PUSH2 0x1707 PUSH1 0x28 DUP4 PUSH2 0x129B JUMP JUMPDEST SWAP2 POP PUSH2 0x1712 DUP3 PUSH2 0x16AD JUMP JUMPDEST PUSH1 0x40 DUP3 ADD SWAP1 POP SWAP2 SWAP1 POP JUMP JUMPDEST PUSH0 PUSH1 0x20 DUP3 ADD SWAP1 POP DUP2 DUP2 SUB PUSH0 DUP4 ADD MSTORE PUSH2 0x1734 DUP2 PUSH2 0x16FB JUMP JUMPDEST SWAP1 POP SWAP2 SWAP1 POP JUMP JUMPDEST PUSH32 0x4E6F2072616E646F6D20776F7264732072656365697665642E00000000000000 PUSH0 DUP3 ADD MSTORE POP JUMP JUMPDEST PUSH0 PUSH2 0x176F PUSH1 0x19 DUP4 PUSH2 0x129B JUMP JUMPDEST SWAP2 POP PUSH2 0x177A DUP3 PUSH2 0x173B JUMP JUMPDEST PUSH1 0x20 DUP3 ADD SWAP1 POP SWAP2 SWAP1 POP JUMP JUMPDEST PUSH0 PUSH1 0x20 DUP3 ADD SWAP1 POP DUP2 DUP2 SUB PUSH0 DUP4 ADD MSTORE PUSH2 0x179C DUP2 PUSH2 0x1763 JUMP JUMPDEST SWAP1 POP SWAP2 SWAP1 POP JUMP JUMPDEST PUSH32 0x4E6F207061727469636970616E74732E00000000000000000000000000000000 PUSH0 DUP3 ADD MSTORE POP JUMP JUMPDEST PUSH0 PUSH2 0x17D7 PUSH1 0x10 DUP4 PUSH2 0x129B JUMP JUMPDEST SWAP2 POP PUSH2 0x17E2 DUP3 PUSH2 0x17A3 JUMP JUMPDEST PUSH1 0x20 DUP3 ADD SWAP1 POP SWAP2 SWAP1 POP JUMP JUMPDEST PUSH0 PUSH1 0x20 DUP3 ADD SWAP1 POP DUP2 DUP2 SUB PUSH0 DUP4 ADD MSTORE PUSH2 0x1804 DUP2 PUSH2 0x17CB JUMP JUMPDEST SWAP1 POP SWAP2 SWAP1 POP JUMP JUMPDEST PUSH32 0x4E487B7100000000000000000000000000000000000000000000000000000000 PUSH0 MSTORE PUSH1 0x32 PUSH1 0x4 MSTORE PUSH1 0x24 PUSH0 REVERT JUMPDEST PUSH0 PUSH1 0x40 DUP3 ADD SWAP1 POP PUSH2 0x184B PUSH0 DUP4 ADD DUP6 PUSH2 0x1265 JUMP JUMPDEST PUSH2 0x1858 PUSH1 0x20 DUP4 ADD DUP5 PUSH2 0xEED JUMP JUMPDEST SWAP4 SWAP3 POP POP POP JUMP JUMPDEST PUSH32 0x4661696C656420746F2073656E64207072697A6520616D6F756E742E00000000 PUSH0 DUP3 ADD MSTORE POP JUMP JUMPDEST PUSH0 PUSH2 0x1893 PUSH1 0x1C DUP4 PUSH2 0x129B JUMP JUMPDEST SWAP2 POP PUSH2 0x189E DUP3 PUSH2 0x185F JUMP JUMPDEST PUSH1 0x20 DUP3 ADD SWAP1 POP SWAP2 SWAP1 POP JUMP JUMPDEST PUSH0 PUSH1 0x20 DUP3 ADD SWAP1 POP DUP2 DUP2 SUB PUSH0 DUP4 ADD MSTORE PUSH2 0x18C0 DUP2 PUSH2 0x1887 JUMP JUMPDEST SWAP1 POP SWAP2 SWAP1 POP JUMP JUMPDEST PUSH2 0x18D0 DUP2 PUSH2 0xEA7 JUMP JUMPDEST DUP3 MSTORE POP POP JUMP JUMPDEST PUSH1 0x20 DUP3 ADD PUSH0 DUP3 ADD MLOAD PUSH2 0x18EA PUSH0 DUP6 ADD DUP3 PUSH2 0x18C7 JUMP JUMPDEST POP POP POP POP JUMP JUMPDEST PUSH0 PUSH1 0x20 DUP3 ADD SWAP1 POP PUSH2 0x1903 PUSH0 DUP4 ADD DUP5 PUSH2 0x18D6 JUMP JUMPDEST SWAP3 SWAP2 POP POP JUMP JUMPDEST PUSH0 PUSH4 0xFFFFFFFF DUP3 AND SWAP1 POP SWAP2 SWAP1 POP JUMP JUMPDEST PUSH2 0x1921 DUP2 PUSH2 0x1909 JUMP JUMPDEST DUP3 MSTORE POP POP JUMP JUMPDEST PUSH0 PUSH1 0x40 DUP3 ADD SWAP1 POP PUSH2 0x193A PUSH0 DUP4 ADD DUP6 PUSH2 0x1918 JUMP JUMPDEST PUSH2 0x1947 PUSH1 0x20 DUP4 ADD DUP5 PUSH2 0x1918 JUMP JUMPDEST SWAP4 SWAP3 POP POP POP JUMP JUMPDEST PUSH0 DUP2 MLOAD SWAP1 POP PUSH2 0x195C DUP2 PUSH2 0xF26 JUMP JUMPDEST SWAP3 SWAP2 POP POP JUMP JUMPDEST PUSH0 PUSH1 0x20 DUP3 DUP5 SUB SLT ISZERO PUSH2 0x1977 JUMPI PUSH2 0x1976 PUSH2 0xF1E JUMP JUMPDEST JUMPDEST PUSH0 PUSH2 0x1984 DUP5 DUP3 DUP6 ADD PUSH2 0x194E JUMP JUMPDEST SWAP2 POP POP SWAP3 SWAP2 POP POP JUMP JUMPDEST PUSH0 PUSH2 0xFFFF DUP3 AND SWAP1 POP SWAP2 SWAP1 POP JUMP JUMPDEST PUSH2 0x19A3 DUP2 PUSH2 0x198D JUMP JUMPDEST DUP3 MSTORE POP POP JUMP JUMPDEST PUSH0 DUP2 MLOAD SWAP1 POP SWAP2 SWAP1 POP JUMP JUMPDEST PUSH0 DUP3 DUP3 MSTORE PUSH1 0x20 DUP3 ADD SWAP1 POP SWAP3 SWAP2 POP POP JUMP JUMPDEST DUP3 DUP2 DUP4 MCOPY PUSH0 DUP4 DUP4 ADD MSTORE POP POP POP JUMP JUMPDEST PUSH0 PUSH2 0x19DB DUP3 PUSH2 0x19A9 JUMP JUMPDEST PUSH2 0x19E5 DUP2 DUP6 PUSH2 0x19B3 JUMP JUMPDEST SWAP4 POP PUSH2 0x19F5 DUP2 DUP6 PUSH1 0x20 DUP7 ADD PUSH2 0x19C3 JUMP JUMPDEST PUSH2 0x19FE DUP2 PUSH2 0xF54 JUMP JUMPDEST DUP5 ADD SWAP2 POP POP SWAP3 SWAP2 POP POP JUMP JUMPDEST PUSH0 PUSH1 0x80 DUP3 ADD SWAP1 POP PUSH2 0x1A1C PUSH0 DUP4 ADD DUP8 PUSH2 0x1918 JUMP JUMPDEST PUSH2 0x1A29 PUSH1 0x20 DUP4 ADD DUP7 PUSH2 0x199A JUMP JUMPDEST PUSH2 0x1A36 PUSH1 0x40 DUP4 ADD DUP6 PUSH2 0x1918 JUMP JUMPDEST DUP2 DUP2 SUB PUSH1 0x60 DUP4 ADD MSTORE PUSH2 0x1A48 DUP2 DUP5 PUSH2 0x19D1 JUMP JUMPDEST SWAP1 POP SWAP6 SWAP5 POP POP POP POP POP JUMP JUMPDEST PUSH0 PUSH1 0x60 DUP3 ADD SWAP1 POP PUSH2 0x1A66 PUSH0 DUP4 ADD DUP7 PUSH2 0x1265 JUMP JUMPDEST PUSH2 0x1A73 PUSH1 0x20 DUP4 ADD DUP6 PUSH2 0xE7F JUMP JUMPDEST DUP2 DUP2 SUB PUSH1 0x40 DUP4 ADD MSTORE PUSH2 0x1A85 DUP2 DUP5 PUSH2 0x19D1 JUMP JUMPDEST SWAP1 POP SWAP5 SWAP4 POP POP POP POP JUMP JUMPDEST PUSH2 0x1A98 DUP2 PUSH2 0xEA7 JUMP JUMPDEST DUP2 EQ PUSH2 0x1AA2 JUMPI PUSH0 PUSH0 REVERT JUMPDEST POP JUMP JUMPDEST PUSH0 DUP2 MLOAD SWAP1 POP PUSH2 0x1AB3 DUP2 PUSH2 0x1A8F JUMP JUMPDEST SWAP3 SWAP2 POP POP JUMP JUMPDEST PUSH0 PUSH1 0x20 DUP3 DUP5 SUB SLT ISZERO PUSH2 0x1ACE JUMPI PUSH2 0x1ACD PUSH2 0xF1E JUMP JUMPDEST JUMPDEST PUSH0 PUSH2 0x1ADB DUP5 DUP3 DUP6 ADD PUSH2 0x1AA5 JUMP JUMPDEST SWAP2 POP POP SWAP3 SWAP2 POP POP JUMP JUMPDEST PUSH32 0x4E487B7100000000000000000000000000000000000000000000000000000000 PUSH0 MSTORE PUSH1 0x12 PUSH1 0x4 MSTORE PUSH1 0x24 PUSH0 REVERT JUMPDEST PUSH0 PUSH2 0x1B1B DUP3 PUSH2 0xE76 JUMP JUMPDEST SWAP2 POP PUSH2 0x1B26 DUP4 PUSH2 0xE76 JUMP JUMPDEST SWAP3 POP DUP3 PUSH2 0x1B36 JUMPI PUSH2 0x1B35 PUSH2 0x1AE4 JUMP JUMPDEST JUMPDEST DUP3 DUP3 MOD SWAP1 POP SWAP3 SWAP2 POP POP JUMP INVALID LOG2 PUSH5 0x6970667358 0x22 SLT KECCAK256 DUP2 PUSH11 0x442B195AC86F6614D43BB0 0xDC 0xD8 XOR CALLVALUE 0xE SWAP3 CREATE2 STATICCALL EXTCALL 0xEA BASEFEE JUMPF 0xD605 0xF6 PUSH9 0xF6851364736F6C6343 STOP ADDMOD 0x1E STOP CALLER "
				},
				"gasEstimates": {
					"creation": {
						"codeDepositCost": "1406200",
						"executionCost": "infinite",
						"totalCost": "infinite"
					},
					"external": {
						"ended()": "2534",
						"getBalance()": "380",
						"getLinkToken()": "infinite",
						"getParticipantStatus(address)": "2915",
						"hasJoined(address)": "2900",
						"host()": "2574",
						"i_vrfV2PlusWrapper()": "infinite",
						"joinLottery()": "86083",
						"max()": "2448",
						"min()": "2513",
						"monetaryPrize()": "420",
						"randomResult()": "2492",
						"rawFulfillRandomWords(uint256,uint256[])": "infinite",
						"requestId()": "2449",
						"start()": "infinite",
						"ticketCost()": "2556"
					},
					"internal": {
						"findWinner()": "infinite",
						"fulfillRandomWords(uint256,uint256[] memory)": "infinite"
					}
				},
				"methodIdentifiers": {
					"ended()": "12fa6feb",
					"getBalance()": "12065fe0",
					"getLinkToken()": "e76d5168",
					"getParticipantStatus(address)": "278a5ff2",
					"hasJoined(address)": "877f4e12",
					"host()": "f437bc59",
					"i_vrfV2PlusWrapper()": "9ed0868d",
					"joinLottery()": "6c77f989",
					"max()": "6ac5db19",
					"min()": "f8897945",
					"monetaryPrize()": "630d1833",
					"randomResult()": "42619f66",
					"rawFulfillRandomWords(uint256,uint256[])": "1fe543e3",
					"requestId()": "006d6cae",
					"start()": "be9a6555",
					"ticketCost()": "1eecd934"
				}
			},
			"storageLayout": {
				"storage": [
					{
						"astId": 419,
						"contract": "contract/Lottery.sol:Lottery",
						"label": "participants",
						"offset": 0,
						"slot": "0",
						"type": "t_array(t_address)dyn_storage"
					},
					{
						"astId": 423,
						"contract": "contract/Lottery.sol:Lottery",
						"label": "hasJoined",
						"offset": 0,
						"slot": "1",
						"type": "t_mapping(t_address,t_bool)"
					},
					{
						"astId": 425,
						"contract": "contract/Lottery.sol:Lottery",
						"label": "host",
						"offset": 0,
						"slot": "2",
						"type": "t_address_payable"
					},
					{
						"astId": 431,
						"contract": "contract/Lottery.sol:Lottery",
						"label": "amountToSend",
						"offset": 0,
						"slot": "3",
						"type": "t_uint256"
					},
					{
						"astId": 434,
						"contract": "contract/Lottery.sol:Lottery",
						"label": "ticketCost",
						"offset": 0,
						"slot": "4",
						"type": "t_uint64"
					},
					{
						"astId": 448,
						"contract": "contract/Lottery.sol:Lottery",
						"label": "keyHash",
						"offset": 0,
						"slot": "5",
						"type": "t_bytes32"
					},
					{
						"astId": 450,
						"contract": "contract/Lottery.sol:Lottery",
						"label": "fee",
						"offset": 0,
						"slot": "6",
						"type": "t_uint256"
					},
					{
						"astId": 452,
						"contract": "contract/Lottery.sol:Lottery",
						"label": "randomResult",
						"offset": 0,
						"slot": "7",
						"type": "t_uint256"
					},
					{
						"astId": 454,
						"contract": "contract/Lottery.sol:Lottery",
						"label": "requestId",
						"offset": 0,
						"slot": "8",
						"type": "t_uint256"
					},
					{
						"astId": 456,
						"contract": "contract/Lottery.sol:Lottery",
						"label": "min",
						"offset": 0,
						"slot": "9",
						"type": "t_uint256"
					},
					{
						"astId": 458,
						"contract": "contract/Lottery.sol:Lottery",
						"label": "max",
						"offset": 0,
						"slot": "10",
						"type": "t_uint256"
					},
					{
						"astId": 461,
						"contract": "contract/Lottery.sol:Lottery",
						"label": "ended",
						"offset": 0,
						"slot": "11",
						"type": "t_bool"
					}
				],
				"types": {
					"t_address": {
						"encoding": "inplace",
						"label": "address",
						"numberOfBytes": "20"
					},
					"t_address_payable": {
						"encoding": "inplace",
						"label": "address payable",
						"numberOfBytes": "20"
					},
					"t_array(t_address)dyn_storage": {
						"base": "t_address",
						"encoding": "dynamic_array",
						"label": "address[]",
						"numberOfBytes": "32"
					},
					"t_bool": {
						"encoding": "inplace",
						"label": "bool",
						"numberOfBytes": "1"
					},
					"t_bytes32": {
						"encoding": "inplace",
						"label": "bytes32",
						"numberOfBytes": "32"
					},
					"t_mapping(t_address,t_bool)": {
						"encoding": "mapping",
						"key": "t_address",
						"label": "mapping(address => bool)",
						"numberOfBytes": "32",
						"value": "t_bool"
					},
					"t_uint256": {
						"encoding": "inplace",
						"label": "uint256",
						"numberOfBytes": "32"
					},
					"t_uint64": {
						"encoding": "inplace",
						"label": "uint64",
						"numberOfBytes": "8"
					}
				}
			},
			"userdoc": {
				"kind": "user",
				"methods": {
					"getBalance()": {
						"notice": "getBalance returns the native balance of the consumer contract"
					},
					"getLinkToken()": {
						"notice": "getLinkToken returns the link token contract"
					},
					"getParticipantStatus(address)": {
						"notice": "Checks if a user is signed up for the lottery. Refactored from the original loop approach, which iterated over the entire participant array and would become inefficient as the number of participants grew. Now uses the `hasJoined` mapping, which provides a direct lookup for constant-time access regardless of how many people are in the lottery."
					}
				},
				"notice": "Lottery with immutability.",
				"version": 1
			}
		}
	}
}