{
	"contract/Lottery.sol": {
		"Lottery": {
			"abi": [
				{
					"inputs": [
						{
							"internalType": "uint256",
							"name": "min_",
							"type": "uint256"
						},
						{
							"internalType": "uint256",
							"name": "max_",
							"type": "uint256"
						},
						{
							"internalType": "address",
							"name": "vrfWrapper",
							"type": "address"
						}
					],
					"stateMutability": "nonpayable",
					"type": "constructor"
				},
				{
					"inputs": [
						{
							"internalType": "address",
							"name": "have",
							"type": "address"
						},
						{
							"internalType": "address",
							"name": "want",
							"type": "address"
						}
					],
					"name": "OnlyVRFWrapperCanFulfill",
					"type": "error"
				},
				{
					"anonymous": false,
					"inputs": [
						{
							"indexed": false,
							"internalType": "address",
							"name": "winner",
							"type": "address"
						},
						{
							"indexed": false,
							"internalType": "uint64",
							"name": "prize",
							"type": "uint64"
						}
					],
					"name": "lotterWinner",
					"type": "event"
				},
				{
					"anonymous": false,
					"inputs": [
						{
							"indexed": false,
							"internalType": "address",
							"name": "prtcpt",
							"type": "address"
						},
						{
							"indexed": false,
							"internalType": "string",
							"name": "alert",
							"type": "string"
						}
					],
					"name": "participantJoined",
					"type": "event"
				},
				{
					"inputs": [],
					"name": "ended",
					"outputs": [
						{
							"internalType": "bool",
							"name": "",
							"type": "bool"
						}
					],
					"stateMutability": "view",
					"type": "function"
				},
				{
					"inputs": [],
					"name": "getBalance",
					"outputs": [
						{
							"internalType": "uint256",
							"name": "",
							"type": "uint256"
						}
					],
					"stateMutability": "view",
					"type": "function"
				},
				{
					"inputs": [],
					"name": "getLinkToken",
					"outputs": [
						{
							"internalType": "contract LinkTokenInterface",
							"name": "",
							"type": "address"
						}
					],
					"stateMutability": "view",
					"type": "function"
				},
				{
					"inputs": [
						{
							"internalType": "address",
							"name": "",
							"type": "address"
						}
					],
					"name": "hasJoined",
					"outputs": [
						{
							"internalType": "bool",
							"name": "",
							"type": "bool"
						}
					],
					"stateMutability": "view",
					"type": "function"
				},
				{
					"inputs": [],
					"name": "host",
					"outputs": [
						{
							"internalType": "address payable",
							"name": "",
							"type": "address"
						}
					],
					"stateMutability": "view",
					"type": "function"
				},
				{
					"inputs": [],
					"name": "i_vrfV2PlusWrapper",
					"outputs": [
						{
							"internalType": "contract IVRFV2PlusWrapper",
							"name": "",
							"type": "address"
						}
					],
					"stateMutability": "view",
					"type": "function"
				},
				{
					"inputs": [],
					"name": "joinLottery",
					"outputs": [],
					"stateMutability": "payable",
					"type": "function"
				},
				{
					"inputs": [],
					"name": "max",
					"outputs": [
						{
							"internalType": "uint256",
							"name": "",
							"type": "uint256"
						}
					],
					"stateMutability": "view",
					"type": "function"
				},
				{
					"inputs": [],
					"name": "min",
					"outputs": [
						{
							"internalType": "uint256",
							"name": "",
							"type": "uint256"
						}
					],
					"stateMutability": "view",
					"type": "function"
				},
				{
					"inputs": [],
					"name": "monetaryPrize",
					"outputs": [
						{
							"internalType": "uint64",
							"name": "",
							"type": "uint64"
						}
					],
					"stateMutability": "view",
					"type": "function"
				},
				{
					"inputs": [],
					"name": "randomResult",
					"outputs": [
						{
							"internalType": "uint256",
							"name": "",
							"type": "uint256"
						}
					],
					"stateMutability": "view",
					"type": "function"
				},
				{
					"inputs": [
						{
							"internalType": "uint256",
							"name": "_requestId",
							"type": "uint256"
						},
						{
							"internalType": "uint256[]",
							"name": "_randomWords",
							"type": "uint256[]"
						}
					],
					"name": "rawFulfillRandomWords",
					"outputs": [],
					"stateMutability": "nonpayable",
					"type": "function"
				},
				{
					"inputs": [],
					"name": "requestId",
					"outputs": [
						{
							"internalType": "uint256",
							"name": "",
							"type": "uint256"
						}
					],
					"stateMutability": "view",
					"type": "function"
				},
				{
					"inputs": [],
					"name": "start",
					"outputs": [],
					"stateMutability": "nonpayable",
					"type": "function"
				},
				{
					"inputs": [],
					"name": "ticketCost",
					"outputs": [
						{
							"internalType": "uint64",
							"name": "",
							"type": "uint64"
						}
					],
					"stateMutability": "view",
					"type": "function"
				}
			],
			"devdoc": {
				"kind": "dev",
				"methods": {},
				"version": 1
			},
			"evm": {
				"assembly": "    /* \"contract/Lottery.sol\":254:4783  contract Lottery is VRFV2PlusWrapperConsumerBase {... */\n  mstore(0x40, 0xc0)\n    /* \"contract/Lottery.sol\":542:549  5 ether */\n  0x4563918244f40000\n    /* \"contract/Lottery.sol\":556:592  uint256 amountToSend = monetaryPrize */\n  0xffffffffffffffff\n  and\n  0x03\n  sstore\n    /* \"contract/Lottery.sol\":626:637  0.015 ether */\n  0x354a6ba7a18000\n    /* \"contract/Lottery.sol\":599:637  uint64 public ticketCost = 0.015 ether */\n  0x04\n  exp(0x0100, 0x00)\n  dup2\n  sload\n  dup2\n  0xffffffffffffffff\n  mul\n  not\n  and\n  swap1\n  dup4\n  0xffffffffffffffff\n  and\n  mul\n  or\n  swap1\n  sstore\n  pop\n    /* \"contract/Lottery.sol\":1045:1050  false */\n  0x00\n    /* \"contract/Lottery.sol\":1025:1050  bool public ended = false */\n  0x0b\n  exp(0x0100, 0x00)\n  dup2\n  sload\n  dup2\n  0xff\n  mul\n  not\n  and\n  swap1\n  dup4\n  iszero\n  iszero\n  mul\n  or\n  swap1\n  sstore\n  pop\n    /* \"contract/Lottery.sol\":1059:1324  constructor(... */\n  callvalue\n  dup1\n  iszero\n  tag_1\n  jumpi\n  revert(0x00, 0x00)\ntag_1:\n  pop\n  mload(0x40)\n  sub(codesize, bytecodeSize)\n  dup1\n  bytecodeSize\n  dup4\n  codecopy\n  dup2\n  dup2\n  add\n  0x40\n  mstore\n  dup2\n  add\n  swap1\n  tag_2\n  swap2\n  swap1\n  tag_3\n  jump\t// in\ntag_2:\n    /* \"contract/Lottery.sol\":1182:1192  vrfWrapper */\n  dup1\n    /* \"@chainlink/contracts/src/v0.8/vrf/dev/VRFV2PlusWrapperConsumerBase.sol\":1936:1970  IVRFV2PlusWrapper vrfV2PlusWrapper */\n  0x00\n    /* \"@chainlink/contracts/src/v0.8/vrf/dev/VRFV2PlusWrapperConsumerBase.sol\":1991:2008  _vrfV2PlusWrapper */\n  dup2\n    /* \"@chainlink/contracts/src/v0.8/vrf/dev/VRFV2PlusWrapperConsumerBase.sol\":1936:2009  IVRFV2PlusWrapper vrfV2PlusWrapper = IVRFV2PlusWrapper(_vrfV2PlusWrapper) */\n  swap1\n  pop\n    /* \"@chainlink/contracts/src/v0.8/vrf/dev/VRFV2PlusWrapperConsumerBase.sol\":2049:2065  vrfV2PlusWrapper */\n  dup1\n    /* \"@chainlink/contracts/src/v0.8/vrf/dev/VRFV2PlusWrapperConsumerBase.sol\":2049:2070  vrfV2PlusWrapper.link */\n  0xffffffffffffffffffffffffffffffffffffffff\n  and\n  0x1c4695f4\n    /* \"@chainlink/contracts/src/v0.8/vrf/dev/VRFV2PlusWrapperConsumerBase.sol\":2049:2072  vrfV2PlusWrapper.link() */\n  mload(0x40)\n  dup2\n  0xffffffff\n  and\n  0xe0\n  shl\n  dup2\n  mstore\n  0x04\n  add\n  0x20\n  mload(0x40)\n  dup1\n  dup4\n  sub\n  dup2\n  dup7\n  gas\n  staticcall\n  iszero\n  dup1\n  iszero\n  tag_8\n  jumpi\n  returndatacopy(0x00, 0x00, returndatasize)\n  revert(0x00, returndatasize)\ntag_8:\n  pop\n  pop\n  pop\n  pop\n  mload(0x40)\n  returndatasize\n  not(0x1f)\n  0x1f\n  dup3\n  add\n  and\n  dup3\n  add\n  dup1\n  0x40\n  mstore\n  pop\n  dup2\n  add\n  swap1\n  tag_9\n  swap2\n  swap1\n  tag_10\n  jump\t// in\ntag_9:\n    /* \"@chainlink/contracts/src/v0.8/vrf/dev/VRFV2PlusWrapperConsumerBase.sol\":2016:2073  i_linkToken = LinkTokenInterface(vrfV2PlusWrapper.link()) */\n  0xffffffffffffffffffffffffffffffffffffffff\n  and\n  0x80\n  dup2\n  0xffffffffffffffffffffffffffffffffffffffff\n  and\n  dup2\n  mstore\n  pop\n  pop\n    /* \"@chainlink/contracts/src/v0.8/vrf/dev/VRFV2PlusWrapperConsumerBase.sol\":2100:2116  vrfV2PlusWrapper */\n  dup1\n    /* \"@chainlink/contracts/src/v0.8/vrf/dev/VRFV2PlusWrapperConsumerBase.sol\":2079:2116  i_vrfV2PlusWrapper = vrfV2PlusWrapper */\n  0xffffffffffffffffffffffffffffffffffffffff\n  and\n  0xa0\n  dup2\n  0xffffffffffffffffffffffffffffffffffffffff\n  and\n  dup2\n  mstore\n  pop\n  pop\n    /* \"@chainlink/contracts/src/v0.8/vrf/dev/VRFV2PlusWrapperConsumerBase.sol\":1930:2121  {... */\n  pop\n    /* \"@chainlink/contracts/src/v0.8/vrf/dev/VRFV2PlusWrapperConsumerBase.sol\":1883:2121  constructor(... */\n  pop\n    /* \"contract/Lottery.sol\":1263:1273  msg.sender */\n  caller\n    /* \"contract/Lottery.sol\":1248:1252  host */\n  0x02\n  0x00\n    /* \"contract/Lottery.sol\":1248:1274  host = payable(msg.sender) */\n  0x0100\n  exp\n  dup2\n  sload\n  dup2\n  0xffffffffffffffffffffffffffffffffffffffff\n  mul\n  not\n  and\n  swap1\n  dup4\n  0xffffffffffffffffffffffffffffffffffffffff\n  and\n  mul\n  or\n  swap1\n  sstore\n  pop\n    /* \"contract/Lottery.sol\":1291:1295  min_ */\n  dup3\n    /* \"contract/Lottery.sol\":1285:1288  min */\n  0x09\n    /* \"contract/Lottery.sol\":1285:1295  min = min_ */\n  dup2\n  swap1\n  sstore\n  pop\n    /* \"contract/Lottery.sol\":1312:1316  max_ */\n  dup2\n    /* \"contract/Lottery.sol\":1306:1309  max */\n  0x0a\n    /* \"contract/Lottery.sol\":1306:1316  max = max_ */\n  dup2\n  swap1\n  sstore\n  pop\n    /* \"contract/Lottery.sol\":1059:1324  constructor(... */\n  pop\n  pop\n  pop\n    /* \"contract/Lottery.sol\":254:4783  contract Lottery is VRFV2PlusWrapperConsumerBase {... */\n  jump(tag_12)\n    /* \"#utility.yul\":88:205   */\ntag_14:\n    /* \"#utility.yul\":197:198   */\n  0x00\n    /* \"#utility.yul\":194:195   */\n  0x00\n    /* \"#utility.yul\":187:199   */\n  revert\n    /* \"#utility.yul\":334:411   */\ntag_16:\n    /* \"#utility.yul\":371:378   */\n  0x00\n    /* \"#utility.yul\":400:405   */\n  dup2\n    /* \"#utility.yul\":389:405   */\n  swap1\n  pop\n    /* \"#utility.yul\":334:411   */\n  swap2\n  swap1\n  pop\n  jump\t// out\n    /* \"#utility.yul\":417:539   */\ntag_17:\n    /* \"#utility.yul\":490:514   */\n  tag_29\n    /* \"#utility.yul\":508:513   */\n  dup2\n    /* \"#utility.yul\":490:514   */\n  tag_16\n  jump\t// in\ntag_29:\n    /* \"#utility.yul\":483:488   */\n  dup2\n    /* \"#utility.yul\":480:515   */\n  eq\n    /* \"#utility.yul\":470:533   */\n  tag_30\n  jumpi\n    /* \"#utility.yul\":529:530   */\n  0x00\n    /* \"#utility.yul\":526:527   */\n  0x00\n    /* \"#utility.yul\":519:531   */\n  revert\n    /* \"#utility.yul\":470:533   */\ntag_30:\n    /* \"#utility.yul\":417:539   */\n  pop\n  jump\t// out\n    /* \"#utility.yul\":545:688   */\ntag_18:\n    /* \"#utility.yul\":602:607   */\n  0x00\n    /* \"#utility.yul\":633:639   */\n  dup2\n    /* \"#utility.yul\":627:640   */\n  mload\n    /* \"#utility.yul\":618:640   */\n  swap1\n  pop\n    /* \"#utility.yul\":649:682   */\n  tag_32\n    /* \"#utility.yul\":676:681   */\n  dup2\n    /* \"#utility.yul\":649:682   */\n  tag_17\n  jump\t// in\ntag_32:\n    /* \"#utility.yul\":545:688   */\n  swap3\n  swap2\n  pop\n  pop\n  jump\t// out\n    /* \"#utility.yul\":694:820   */\ntag_19:\n    /* \"#utility.yul\":731:738   */\n  0x00\n    /* \"#utility.yul\":771:813   */\n  0xffffffffffffffffffffffffffffffffffffffff\n    /* \"#utility.yul\":764:769   */\n  dup3\n    /* \"#utility.yul\":760:814   */\n  and\n    /* \"#utility.yul\":749:814   */\n  swap1\n  pop\n    /* \"#utility.yul\":694:820   */\n  swap2\n  swap1\n  pop\n  jump\t// out\n    /* \"#utility.yul\":826:922   */\ntag_20:\n    /* \"#utility.yul\":863:870   */\n  0x00\n    /* \"#utility.yul\":892:916   */\n  tag_35\n    /* \"#utility.yul\":910:915   */\n  dup3\n    /* \"#utility.yul\":892:916   */\n  tag_19\n  jump\t// in\ntag_35:\n    /* \"#utility.yul\":881:916   */\n  swap1\n  pop\n    /* \"#utility.yul\":826:922   */\n  swap2\n  swap1\n  pop\n  jump\t// out\n    /* \"#utility.yul\":928:1050   */\ntag_21:\n    /* \"#utility.yul\":1001:1025   */\n  tag_37\n    /* \"#utility.yul\":1019:1024   */\n  dup2\n    /* \"#utility.yul\":1001:1025   */\n  tag_20\n  jump\t// in\ntag_37:\n    /* \"#utility.yul\":994:999   */\n  dup2\n    /* \"#utility.yul\":991:1026   */\n  eq\n    /* \"#utility.yul\":981:1044   */\n  tag_38\n  jumpi\n    /* \"#utility.yul\":1040:1041   */\n  0x00\n    /* \"#utility.yul\":1037:1038   */\n  0x00\n    /* \"#utility.yul\":1030:1042   */\n  revert\n    /* \"#utility.yul\":981:1044   */\ntag_38:\n    /* \"#utility.yul\":928:1050   */\n  pop\n  jump\t// out\n    /* \"#utility.yul\":1056:1199   */\ntag_22:\n    /* \"#utility.yul\":1113:1118   */\n  0x00\n    /* \"#utility.yul\":1144:1150   */\n  dup2\n    /* \"#utility.yul\":1138:1151   */\n  mload\n    /* \"#utility.yul\":1129:1151   */\n  swap1\n  pop\n    /* \"#utility.yul\":1160:1193   */\n  tag_40\n    /* \"#utility.yul\":1187:1192   */\n  dup2\n    /* \"#utility.yul\":1160:1193   */\n  tag_21\n  jump\t// in\ntag_40:\n    /* \"#utility.yul\":1056:1199   */\n  swap3\n  swap2\n  pop\n  pop\n  jump\t// out\n    /* \"#utility.yul\":1205:1868   */\ntag_3:\n    /* \"#utility.yul\":1293:1299   */\n  0x00\n    /* \"#utility.yul\":1301:1307   */\n  0x00\n    /* \"#utility.yul\":1309:1315   */\n  0x00\n    /* \"#utility.yul\":1358:1360   */\n  0x60\n    /* \"#utility.yul\":1346:1355   */\n  dup5\n    /* \"#utility.yul\":1337:1344   */\n  dup7\n    /* \"#utility.yul\":1333:1356   */\n  sub\n    /* \"#utility.yul\":1329:1361   */\n  slt\n    /* \"#utility.yul\":1326:1445   */\n  iszero\n  tag_42\n  jumpi\n    /* \"#utility.yul\":1364:1443   */\n  tag_43\n  tag_14\n  jump\t// in\ntag_43:\n    /* \"#utility.yul\":1326:1445   */\ntag_42:\n    /* \"#utility.yul\":1484:1485   */\n  0x00\n    /* \"#utility.yul\":1509:1573   */\n  tag_44\n    /* \"#utility.yul\":1565:1572   */\n  dup7\n    /* \"#utility.yul\":1556:1562   */\n  dup3\n    /* \"#utility.yul\":1545:1554   */\n  dup8\n    /* \"#utility.yul\":1541:1563   */\n  add\n    /* \"#utility.yul\":1509:1573   */\n  tag_18\n  jump\t// in\ntag_44:\n    /* \"#utility.yul\":1499:1573   */\n  swap4\n  pop\n    /* \"#utility.yul\":1455:1583   */\n  pop\n    /* \"#utility.yul\":1622:1624   */\n  0x20\n    /* \"#utility.yul\":1648:1712   */\n  tag_45\n    /* \"#utility.yul\":1704:1711   */\n  dup7\n    /* \"#utility.yul\":1695:1701   */\n  dup3\n    /* \"#utility.yul\":1684:1693   */\n  dup8\n    /* \"#utility.yul\":1680:1702   */\n  add\n    /* \"#utility.yul\":1648:1712   */\n  tag_18\n  jump\t// in\ntag_45:\n    /* \"#utility.yul\":1638:1712   */\n  swap3\n  pop\n    /* \"#utility.yul\":1593:1722   */\n  pop\n    /* \"#utility.yul\":1761:1763   */\n  0x40\n    /* \"#utility.yul\":1787:1851   */\n  tag_46\n    /* \"#utility.yul\":1843:1850   */\n  dup7\n    /* \"#utility.yul\":1834:1840   */\n  dup3\n    /* \"#utility.yul\":1823:1832   */\n  dup8\n    /* \"#utility.yul\":1819:1841   */\n  add\n    /* \"#utility.yul\":1787:1851   */\n  tag_22\n  jump\t// in\ntag_46:\n    /* \"#utility.yul\":1777:1851   */\n  swap2\n  pop\n    /* \"#utility.yul\":1732:1861   */\n  pop\n    /* \"#utility.yul\":1205:1868   */\n  swap3\n  pop\n  swap3\n  pop\n  swap3\n  jump\t// out\n    /* \"#utility.yul\":1874:2225   */\ntag_10:\n    /* \"#utility.yul\":1944:1950   */\n  0x00\n    /* \"#utility.yul\":1993:1995   */\n  0x20\n    /* \"#utility.yul\":1981:1990   */\n  dup3\n    /* \"#utility.yul\":1972:1979   */\n  dup5\n    /* \"#utility.yul\":1968:1991   */\n  sub\n    /* \"#utility.yul\":1964:1996   */\n  slt\n    /* \"#utility.yul\":1961:2080   */\n  iszero\n  tag_48\n  jumpi\n    /* \"#utility.yul\":1999:2078   */\n  tag_49\n  tag_14\n  jump\t// in\ntag_49:\n    /* \"#utility.yul\":1961:2080   */\ntag_48:\n    /* \"#utility.yul\":2119:2120   */\n  0x00\n    /* \"#utility.yul\":2144:2208   */\n  tag_50\n    /* \"#utility.yul\":2200:2207   */\n  dup5\n    /* \"#utility.yul\":2191:2197   */\n  dup3\n    /* \"#utility.yul\":2180:2189   */\n  dup6\n    /* \"#utility.yul\":2176:2198   */\n  add\n    /* \"#utility.yul\":2144:2208   */\n  tag_22\n  jump\t// in\ntag_50:\n    /* \"#utility.yul\":2134:2208   */\n  swap2\n  pop\n    /* \"#utility.yul\":2090:2218   */\n  pop\n    /* \"#utility.yul\":1874:2225   */\n  swap3\n  swap2\n  pop\n  pop\n  jump\t// out\n    /* \"contract/Lottery.sol\":254:4783  contract Lottery is VRFV2PlusWrapperConsumerBase {... */\ntag_12:\n  mload(0x80)\n  mload(0xa0)\n  codecopy(0x00, dataOffset(sub_0), dataSize(sub_0))\n  0x00\n  assignImmutable(\"0x712adca22095011a9de0b4aa84648bf2bea2744bd9326ede31e43d2a71662846\")\n  0x00\n  assignImmutable(\"0xd905fec1a56b00009651ce5a01a34d2244da02f516f67ee88b03219738dbf226\")\n  return(0x00, dataSize(sub_0))\nstop\n\nsub_0: assembly {\n        /* \"contract/Lottery.sol\":254:4783  contract Lottery is VRFV2PlusWrapperConsumerBase {... */\n      mstore(0x40, 0x80)\n      jumpi(tag_1, lt(calldatasize, 0x04))\n      shr(0xe0, calldataload(0x00))\n      dup1\n      0x6ac5db19\n      gt\n      tag_17\n      jumpi\n      dup1\n      0xbe9a6555\n      gt\n      tag_18\n      jumpi\n      dup1\n      0xbe9a6555\n      eq\n      tag_13\n      jumpi\n      dup1\n      0xe76d5168\n      eq\n      tag_14\n      jumpi\n      dup1\n      0xf437bc59\n      eq\n      tag_15\n      jumpi\n      dup1\n      0xf8897945\n      eq\n      tag_16\n      jumpi\n      jump(tag_1)\n    tag_18:\n      dup1\n      0x6ac5db19\n      eq\n      tag_9\n      jumpi\n      dup1\n      0x6c77f989\n      eq\n      tag_10\n      jumpi\n      dup1\n      0x877f4e12\n      eq\n      tag_11\n      jumpi\n      dup1\n      0x9ed0868d\n      eq\n      tag_12\n      jumpi\n      jump(tag_1)\n    tag_17:\n      dup1\n      0x1eecd934\n      gt\n      tag_19\n      jumpi\n      dup1\n      0x1eecd934\n      eq\n      tag_5\n      jumpi\n      dup1\n      0x1fe543e3\n      eq\n      tag_6\n      jumpi\n      dup1\n      0x42619f66\n      eq\n      tag_7\n      jumpi\n      dup1\n      0x630d1833\n      eq\n      tag_8\n      jumpi\n      jump(tag_1)\n    tag_19:\n      dup1\n      0x6d6cae\n      eq\n      tag_2\n      jumpi\n      dup1\n      0x12065fe0\n      eq\n      tag_3\n      jumpi\n      dup1\n      0x12fa6feb\n      eq\n      tag_4\n      jumpi\n    tag_1:\n      revert(0x00, 0x00)\n        /* \"contract/Lottery.sol\":944:968  uint256 public requestId */\n    tag_2:\n      callvalue\n      dup1\n      iszero\n      tag_20\n      jumpi\n      revert(0x00, 0x00)\n    tag_20:\n      pop\n      tag_21\n      tag_22\n      jump\t// in\n    tag_21:\n      mload(0x40)\n      tag_23\n      swap2\n      swap1\n      tag_24\n      jump\t// in\n    tag_23:\n      mload(0x40)\n      dup1\n      swap2\n      sub\n      swap1\n      return\n        /* \"@chainlink/contracts/src/v0.8/vrf/dev/VRFV2PlusWrapperConsumerBase.sol\":4804:4895  function getBalance() public view returns (uint256) {... */\n    tag_3:\n      callvalue\n      dup1\n      iszero\n      tag_25\n      jumpi\n      revert(0x00, 0x00)\n    tag_25:\n      pop\n      tag_26\n      tag_27\n      jump\t// in\n    tag_26:\n      mload(0x40)\n      tag_28\n      swap2\n      swap1\n      tag_24\n      jump\t// in\n    tag_28:\n      mload(0x40)\n      dup1\n      swap2\n      sub\n      swap1\n      return\n        /* \"contract/Lottery.sol\":1025:1050  bool public ended = false */\n    tag_4:\n      callvalue\n      dup1\n      iszero\n      tag_29\n      jumpi\n      revert(0x00, 0x00)\n    tag_29:\n      pop\n      tag_30\n      tag_31\n      jump\t// in\n    tag_30:\n      mload(0x40)\n      tag_32\n      swap2\n      swap1\n      tag_33\n      jump\t// in\n    tag_32:\n      mload(0x40)\n      dup1\n      swap2\n      sub\n      swap1\n      return\n        /* \"contract/Lottery.sol\":599:637  uint64 public ticketCost = 0.015 ether */\n    tag_5:\n      callvalue\n      dup1\n      iszero\n      tag_34\n      jumpi\n      revert(0x00, 0x00)\n    tag_34:\n      pop\n      tag_35\n      tag_36\n      jump\t// in\n    tag_35:\n      mload(0x40)\n      tag_37\n      swap2\n      swap1\n      tag_38\n      jump\t// in\n    tag_37:\n      mload(0x40)\n      dup1\n      swap2\n      sub\n      swap1\n      return\n        /* \"@chainlink/contracts/src/v0.8/vrf/dev/VRFV2PlusWrapperConsumerBase.sol\":4406:4723  function rawFulfillRandomWords(uint256 _requestId, uint256[] memory _randomWords) external {... */\n    tag_6:\n      callvalue\n      dup1\n      iszero\n      tag_39\n      jumpi\n      revert(0x00, 0x00)\n    tag_39:\n      pop\n      tag_40\n      0x04\n      dup1\n      calldatasize\n      sub\n      dup2\n      add\n      swap1\n      tag_41\n      swap2\n      swap1\n      tag_42\n      jump\t// in\n    tag_41:\n      tag_43\n      jump\t// in\n    tag_40:\n      stop\n        /* \"contract/Lottery.sol\":910:937  uint256 public randomResult */\n    tag_7:\n      callvalue\n      dup1\n      iszero\n      tag_44\n      jumpi\n      revert(0x00, 0x00)\n    tag_44:\n      pop\n      tag_45\n      tag_46\n      jump\t// in\n    tag_45:\n      mload(0x40)\n      tag_47\n      swap2\n      swap1\n      tag_24\n      jump\t// in\n    tag_47:\n      mload(0x40)\n      dup1\n      swap2\n      sub\n      swap1\n      return\n        /* \"contract/Lottery.sol\":503:549  uint64 public constant monetaryPrize = 5 ether */\n    tag_8:\n      callvalue\n      dup1\n      iszero\n      tag_48\n      jumpi\n      revert(0x00, 0x00)\n    tag_48:\n      pop\n      tag_49\n      tag_50\n      jump\t// in\n    tag_49:\n      mload(0x40)\n      tag_51\n      swap2\n      swap1\n      tag_38\n      jump\t// in\n    tag_51:\n      mload(0x40)\n      dup1\n      swap2\n      sub\n      swap1\n      return\n        /* \"contract/Lottery.sol\":1000:1018  uint256 public max */\n    tag_9:\n      callvalue\n      dup1\n      iszero\n      tag_52\n      jumpi\n      revert(0x00, 0x00)\n    tag_52:\n      pop\n      tag_53\n      tag_54\n      jump\t// in\n    tag_53:\n      mload(0x40)\n      tag_55\n      swap2\n      swap1\n      tag_24\n      jump\t// in\n    tag_55:\n      mload(0x40)\n      dup1\n      swap2\n      sub\n      swap1\n      return\n        /* \"contract/Lottery.sol\":1580:2062  function joinLottery() external payable {... */\n    tag_10:\n      tag_56\n      tag_57\n      jump\t// in\n    tag_56:\n      stop\n        /* \"contract/Lottery.sol\":384:425  mapping(address => bool) public hasJoined */\n    tag_11:\n      callvalue\n      dup1\n      iszero\n      tag_58\n      jumpi\n      revert(0x00, 0x00)\n    tag_58:\n      pop\n      tag_59\n      0x04\n      dup1\n      calldatasize\n      sub\n      dup2\n      add\n      swap1\n      tag_60\n      swap2\n      swap1\n      tag_61\n      jump\t// in\n    tag_60:\n      tag_62\n      jump\t// in\n    tag_59:\n      mload(0x40)\n      tag_63\n      swap2\n      swap1\n      tag_33\n      jump\t// in\n    tag_63:\n      mload(0x40)\n      dup1\n      swap2\n      sub\n      swap1\n      return\n        /* \"@chainlink/contracts/src/v0.8/vrf/dev/VRFV2PlusWrapperConsumerBase.sol\":1739:1792  IVRFV2PlusWrapper public immutable i_vrfV2PlusWrapper */\n    tag_12:\n      callvalue\n      dup1\n      iszero\n      tag_64\n      jumpi\n      revert(0x00, 0x00)\n    tag_64:\n      pop\n      tag_65\n      tag_66\n      jump\t// in\n    tag_65:\n      mload(0x40)\n      tag_67\n      swap2\n      swap1\n      tag_68\n      jump\t// in\n    tag_67:\n      mload(0x40)\n      dup1\n      swap2\n      sub\n      swap1\n      return\n        /* \"contract/Lottery.sol\":2222:2803  function start() external onlyHost {... */\n    tag_13:\n      callvalue\n      dup1\n      iszero\n      tag_69\n      jumpi\n      revert(0x00, 0x00)\n    tag_69:\n      pop\n      tag_70\n      tag_71\n      jump\t// in\n    tag_70:\n      stop\n        /* \"@chainlink/contracts/src/v0.8/vrf/dev/VRFV2PlusWrapperConsumerBase.sol\":4958:5052  function getLinkToken() public view returns (LinkTokenInterface) {... */\n    tag_14:\n      callvalue\n      dup1\n      iszero\n      tag_72\n      jumpi\n      revert(0x00, 0x00)\n    tag_72:\n      pop\n      tag_73\n      tag_74\n      jump\t// in\n    tag_73:\n      mload(0x40)\n      tag_75\n      swap2\n      swap1\n      tag_76\n      jump\t// in\n    tag_75:\n      mload(0x40)\n      dup1\n      swap2\n      sub\n      swap1\n      return\n        /* \"contract/Lottery.sol\":469:496  address payable public host */\n    tag_15:\n      callvalue\n      dup1\n      iszero\n      tag_77\n      jumpi\n      revert(0x00, 0x00)\n    tag_77:\n      pop\n      tag_78\n      tag_79\n      jump\t// in\n    tag_78:\n      mload(0x40)\n      tag_80\n      swap2\n      swap1\n      tag_81\n      jump\t// in\n    tag_80:\n      mload(0x40)\n      dup1\n      swap2\n      sub\n      swap1\n      return\n        /* \"contract/Lottery.sol\":975:993  uint256 public min */\n    tag_16:\n      callvalue\n      dup1\n      iszero\n      tag_82\n      jumpi\n      revert(0x00, 0x00)\n    tag_82:\n      pop\n      tag_83\n      tag_84\n      jump\t// in\n    tag_83:\n      mload(0x40)\n      tag_85\n      swap2\n      swap1\n      tag_24\n      jump\t// in\n    tag_85:\n      mload(0x40)\n      dup1\n      swap2\n      sub\n      swap1\n      return\n        /* \"contract/Lottery.sol\":944:968  uint256 public requestId */\n    tag_22:\n      sload(0x08)\n      dup2\n      jump\t// out\n        /* \"@chainlink/contracts/src/v0.8/vrf/dev/VRFV2PlusWrapperConsumerBase.sol\":4804:4895  function getBalance() public view returns (uint256) {... */\n    tag_27:\n        /* \"@chainlink/contracts/src/v0.8/vrf/dev/VRFV2PlusWrapperConsumerBase.sol\":4847:4854  uint256 */\n      0x00\n        /* \"@chainlink/contracts/src/v0.8/vrf/dev/VRFV2PlusWrapperConsumerBase.sol\":4869:4890  address(this).balance */\n      selfbalance\n        /* \"@chainlink/contracts/src/v0.8/vrf/dev/VRFV2PlusWrapperConsumerBase.sol\":4862:4890  return address(this).balance */\n      swap1\n      pop\n        /* \"@chainlink/contracts/src/v0.8/vrf/dev/VRFV2PlusWrapperConsumerBase.sol\":4804:4895  function getBalance() public view returns (uint256) {... */\n      swap1\n      jump\t// out\n        /* \"contract/Lottery.sol\":1025:1050  bool public ended = false */\n    tag_31:\n      0x0b\n      0x00\n      swap1\n      sload\n      swap1\n      0x0100\n      exp\n      swap1\n      div\n      0xff\n      and\n      dup2\n      jump\t// out\n        /* \"contract/Lottery.sol\":599:637  uint64 public ticketCost = 0.015 ether */\n    tag_36:\n      0x04\n      0x00\n      swap1\n      sload\n      swap1\n      0x0100\n      exp\n      swap1\n      div\n      0xffffffffffffffff\n      and\n      dup2\n      jump\t// out\n        /* \"@chainlink/contracts/src/v0.8/vrf/dev/VRFV2PlusWrapperConsumerBase.sol\":4406:4723  function rawFulfillRandomWords(uint256 _requestId, uint256[] memory _randomWords) external {... */\n    tag_43:\n        /* \"@chainlink/contracts/src/v0.8/vrf/dev/VRFV2PlusWrapperConsumerBase.sol\":4503:4525  address vrfWrapperAddr */\n      0x00\n        /* \"@chainlink/contracts/src/v0.8/vrf/dev/VRFV2PlusWrapperConsumerBase.sol\":4536:4554  i_vrfV2PlusWrapper */\n      immutable(\"0x712adca22095011a9de0b4aa84648bf2bea2744bd9326ede31e43d2a71662846\")\n        /* \"@chainlink/contracts/src/v0.8/vrf/dev/VRFV2PlusWrapperConsumerBase.sol\":4503:4555  address vrfWrapperAddr = address(i_vrfV2PlusWrapper) */\n      swap1\n      pop\n        /* \"@chainlink/contracts/src/v0.8/vrf/dev/VRFV2PlusWrapperConsumerBase.sol\":4579:4593  vrfWrapperAddr */\n      dup1\n        /* \"@chainlink/contracts/src/v0.8/vrf/dev/VRFV2PlusWrapperConsumerBase.sol\":4565:4593  msg.sender != vrfWrapperAddr */\n      0xffffffffffffffffffffffffffffffffffffffff\n      and\n        /* \"@chainlink/contracts/src/v0.8/vrf/dev/VRFV2PlusWrapperConsumerBase.sol\":4565:4575  msg.sender */\n      caller\n        /* \"@chainlink/contracts/src/v0.8/vrf/dev/VRFV2PlusWrapperConsumerBase.sol\":4565:4593  msg.sender != vrfWrapperAddr */\n      0xffffffffffffffffffffffffffffffffffffffff\n      and\n      eq\n        /* \"@chainlink/contracts/src/v0.8/vrf/dev/VRFV2PlusWrapperConsumerBase.sol\":4561:4669  if (msg.sender != vrfWrapperAddr) {... */\n      tag_88\n      jumpi\n        /* \"@chainlink/contracts/src/v0.8/vrf/dev/VRFV2PlusWrapperConsumerBase.sol\":4635:4645  msg.sender */\n      caller\n        /* \"@chainlink/contracts/src/v0.8/vrf/dev/VRFV2PlusWrapperConsumerBase.sol\":4647:4661  vrfWrapperAddr */\n      dup2\n        /* \"@chainlink/contracts/src/v0.8/vrf/dev/VRFV2PlusWrapperConsumerBase.sol\":4610:4662  OnlyVRFWrapperCanFulfill(msg.sender, vrfWrapperAddr) */\n      mload(0x40)\n      0x8ba9316e00000000000000000000000000000000000000000000000000000000\n      dup2\n      mstore\n      0x04\n      add\n      tag_89\n      swap3\n      swap2\n      swap1\n      tag_90\n      jump\t// in\n    tag_89:\n      mload(0x40)\n      dup1\n      swap2\n      sub\n      swap1\n      revert\n        /* \"@chainlink/contracts/src/v0.8/vrf/dev/VRFV2PlusWrapperConsumerBase.sol\":4561:4669  if (msg.sender != vrfWrapperAddr) {... */\n    tag_88:\n        /* \"@chainlink/contracts/src/v0.8/vrf/dev/VRFV2PlusWrapperConsumerBase.sol\":4674:4718  fulfillRandomWords(_requestId, _randomWords) */\n      tag_91\n        /* \"@chainlink/contracts/src/v0.8/vrf/dev/VRFV2PlusWrapperConsumerBase.sol\":4693:4703  _requestId */\n      dup4\n        /* \"@chainlink/contracts/src/v0.8/vrf/dev/VRFV2PlusWrapperConsumerBase.sol\":4705:4717  _randomWords */\n      dup4\n        /* \"@chainlink/contracts/src/v0.8/vrf/dev/VRFV2PlusWrapperConsumerBase.sol\":4674:4692  fulfillRandomWords */\n      tag_92\n        /* \"@chainlink/contracts/src/v0.8/vrf/dev/VRFV2PlusWrapperConsumerBase.sol\":4674:4718  fulfillRandomWords(_requestId, _randomWords) */\n      jump\t// in\n    tag_91:\n        /* \"@chainlink/contracts/src/v0.8/vrf/dev/VRFV2PlusWrapperConsumerBase.sol\":4497:4723  {... */\n      pop\n        /* \"@chainlink/contracts/src/v0.8/vrf/dev/VRFV2PlusWrapperConsumerBase.sol\":4406:4723  function rawFulfillRandomWords(uint256 _requestId, uint256[] memory _randomWords) external {... */\n      pop\n      pop\n      jump\t// out\n        /* \"contract/Lottery.sol\":910:937  uint256 public randomResult */\n    tag_46:\n      sload(0x07)\n      dup2\n      jump\t// out\n        /* \"contract/Lottery.sol\":503:549  uint64 public constant monetaryPrize = 5 ether */\n    tag_50:\n        /* \"contract/Lottery.sol\":542:549  5 ether */\n      0x4563918244f40000\n        /* \"contract/Lottery.sol\":503:549  uint64 public constant monetaryPrize = 5 ether */\n      dup2\n      jump\t// out\n        /* \"contract/Lottery.sol\":1000:1018  uint256 public max */\n    tag_54:\n      sload(0x0a)\n      dup2\n      jump\t// out\n        /* \"contract/Lottery.sol\":1580:2062  function joinLottery() external payable {... */\n    tag_57:\n        /* \"contract/Lottery.sol\":1640:1645  ended */\n      0x0b\n      0x00\n      swap1\n      sload\n      swap1\n      0x0100\n      exp\n      swap1\n      div\n      0xff\n      and\n        /* \"contract/Lottery.sol\":1639:1645  !ended */\n      iszero\n        /* \"contract/Lottery.sol\":1631:1668  require(!ended, \"Lottery has ended.\") */\n      tag_94\n      jumpi\n      mload(0x40)\n      0x08c379a000000000000000000000000000000000000000000000000000000000\n      dup2\n      mstore\n      0x04\n      add\n      tag_95\n      swap1\n      tag_96\n      jump\t// in\n    tag_95:\n      mload(0x40)\n      dup1\n      swap2\n      sub\n      swap1\n      revert\n    tag_94:\n        /* \"contract/Lottery.sol\":1700:1710  ticketCost */\n      0x04\n      0x00\n      swap1\n      sload\n      swap1\n      0x0100\n      exp\n      swap1\n      div\n      0xffffffffffffffff\n      and\n        /* \"contract/Lottery.sol\":1687:1710  msg.value == ticketCost */\n      0xffffffffffffffff\n      and\n        /* \"contract/Lottery.sol\":1687:1696  msg.value */\n      callvalue\n        /* \"contract/Lottery.sol\":1687:1710  msg.value == ticketCost */\n      eq\n        /* \"contract/Lottery.sol\":1679:1728  require(msg.value == ticketCost, \"Wrong Amount.\") */\n      tag_97\n      jumpi\n      mload(0x40)\n      0x08c379a000000000000000000000000000000000000000000000000000000000\n      dup2\n      mstore\n      0x04\n      add\n      tag_98\n      swap1\n      tag_99\n      jump\t// in\n    tag_98:\n      mload(0x40)\n      dup1\n      swap2\n      sub\n      swap1\n      revert\n    tag_97:\n        /* \"contract/Lottery.sol\":1769:1772  max */\n      sload(0x0a)\n        /* \"contract/Lottery.sol\":1747:1759  participants */\n      0x00\n        /* \"contract/Lottery.sol\":1747:1766  participants.length */\n      dup1\n      sload\n      swap1\n      pop\n        /* \"contract/Lottery.sol\":1747:1772  participants.length < max */\n      lt\n        /* \"contract/Lottery.sol\":1739:1798  require(participants.length < max, \"This lottery is full.\") */\n      tag_100\n      jumpi\n      mload(0x40)\n      0x08c379a000000000000000000000000000000000000000000000000000000000\n      dup2\n      mstore\n      0x04\n      add\n      tag_101\n      swap1\n      tag_102\n      jump\t// in\n    tag_101:\n      mload(0x40)\n      dup1\n      swap2\n      sub\n      swap1\n      revert\n    tag_100:\n        /* \"contract/Lottery.sol\":1832:1841  hasJoined */\n      0x01\n        /* \"contract/Lottery.sol\":1832:1853  hasJoined[msg.sender] */\n      0x00\n        /* \"contract/Lottery.sol\":1842:1852  msg.sender */\n      caller\n        /* \"contract/Lottery.sol\":1832:1853  hasJoined[msg.sender] */\n      0xffffffffffffffffffffffffffffffffffffffff\n      and\n      0xffffffffffffffffffffffffffffffffffffffff\n      and\n      dup2\n      mstore\n      0x20\n      add\n      swap1\n      dup2\n      mstore\n      0x20\n      add\n      0x00\n      keccak256\n      0x00\n      swap1\n      sload\n      swap1\n      0x0100\n      exp\n      swap1\n      div\n      0xff\n      and\n        /* \"contract/Lottery.sol\":1831:1853  !hasJoined[msg.sender] */\n      iszero\n        /* \"contract/Lottery.sol\":1809:1918  require(... */\n      tag_103\n      jumpi\n      mload(0x40)\n      0x08c379a000000000000000000000000000000000000000000000000000000000\n      dup2\n      mstore\n      0x04\n      add\n      tag_104\n      swap1\n      tag_105\n      jump\t// in\n    tag_104:\n      mload(0x40)\n      dup1\n      swap2\n      sub\n      swap1\n      revert\n    tag_103:\n        /* \"contract/Lottery.sol\":1931:1943  participants */\n      0x00\n        /* \"contract/Lottery.sol\":1949:1959  msg.sender */\n      caller\n        /* \"contract/Lottery.sol\":1931:1960  participants.push(msg.sender) */\n      swap1\n      dup1\n      0x01\n      dup2\n      sload\n      add\n      dup1\n      dup3\n      sstore\n      dup1\n      swap2\n      pop\n      pop\n      0x01\n      swap1\n      sub\n      swap1\n      0x00\n      mstore\n      keccak256(0x00, 0x20)\n      add\n      0x00\n      swap1\n      swap2\n      swap1\n      swap2\n      swap1\n      swap2\n      0x0100\n      exp\n      dup2\n      sload\n      dup2\n      0xffffffffffffffffffffffffffffffffffffffff\n      mul\n      not\n      and\n      swap1\n      dup4\n      0xffffffffffffffffffffffffffffffffffffffff\n      and\n      mul\n      or\n      swap1\n      sstore\n      pop\n        /* \"contract/Lottery.sol\":1995:1999  true */\n      0x01\n        /* \"contract/Lottery.sol\":1971:1980  hasJoined */\n      dup1\n        /* \"contract/Lottery.sol\":1971:1992  hasJoined[msg.sender] */\n      0x00\n        /* \"contract/Lottery.sol\":1981:1991  msg.sender */\n      caller\n        /* \"contract/Lottery.sol\":1971:1992  hasJoined[msg.sender] */\n      0xffffffffffffffffffffffffffffffffffffffff\n      and\n      0xffffffffffffffffffffffffffffffffffffffff\n      and\n      dup2\n      mstore\n      0x20\n      add\n      swap1\n      dup2\n      mstore\n      0x20\n      add\n      0x00\n      keccak256\n      0x00\n        /* \"contract/Lottery.sol\":1971:1999  hasJoined[msg.sender] = true */\n      0x0100\n      exp\n      dup2\n      sload\n      dup2\n      0xff\n      mul\n      not\n      and\n      swap1\n      dup4\n      iszero\n      iszero\n      mul\n      or\n      swap1\n      sstore\n      pop\n        /* \"contract/Lottery.sol\":2015:2054  participantJoined(msg.sender, \"joined\") */\n      0x5d7fe1cbbc608689987406644ee6a48ea79e623710c4c184fc02aa6370ad5ed6\n        /* \"contract/Lottery.sol\":2033:2043  msg.sender */\n      caller\n        /* \"contract/Lottery.sol\":2015:2054  participantJoined(msg.sender, \"joined\") */\n      mload(0x40)\n      tag_107\n      swap2\n      swap1\n      tag_108\n      jump\t// in\n    tag_107:\n      mload(0x40)\n      dup1\n      swap2\n      sub\n      swap1\n      log1\n        /* \"contract/Lottery.sol\":1580:2062  function joinLottery() external payable {... */\n      jump\t// out\n        /* \"contract/Lottery.sol\":384:425  mapping(address => bool) public hasJoined */\n    tag_62:\n      mstore(0x20, 0x01)\n      dup1\n      0x00\n      mstore\n      keccak256(0x00, 0x40)\n      0x00\n      swap2\n      pop\n      sload\n      swap1\n      0x0100\n      exp\n      swap1\n      div\n      0xff\n      and\n      dup2\n      jump\t// out\n        /* \"@chainlink/contracts/src/v0.8/vrf/dev/VRFV2PlusWrapperConsumerBase.sol\":1739:1792  IVRFV2PlusWrapper public immutable i_vrfV2PlusWrapper */\n    tag_66:\n      immutable(\"0x712adca22095011a9de0b4aa84648bf2bea2744bd9326ede31e43d2a71662846\")\n      dup2\n      jump\t// out\n        /* \"contract/Lottery.sol\":2222:2803  function start() external onlyHost {... */\n    tag_71:\n        /* \"contract/Lottery.sol\":1385:1389  host */\n      0x02\n      0x00\n      swap1\n      sload\n      swap1\n      0x0100\n      exp\n      swap1\n      div\n      0xffffffffffffffffffffffffffffffffffffffff\n      and\n        /* \"contract/Lottery.sol\":1371:1389  msg.sender == host */\n      0xffffffffffffffffffffffffffffffffffffffff\n      and\n        /* \"contract/Lottery.sol\":1371:1381  msg.sender */\n      caller\n        /* \"contract/Lottery.sol\":1371:1389  msg.sender == host */\n      0xffffffffffffffffffffffffffffffffffffffff\n      and\n      eq\n        /* \"contract/Lottery.sol\":1363:1415  require(msg.sender == host, \"You are not the host.\") */\n      tag_110\n      jumpi\n      mload(0x40)\n      0x08c379a000000000000000000000000000000000000000000000000000000000\n      dup2\n      mstore\n      0x04\n      add\n      tag_111\n      swap1\n      tag_112\n      jump\t// in\n    tag_111:\n      mload(0x40)\n      dup1\n      swap2\n      sub\n      swap1\n      revert\n    tag_110:\n        /* \"contract/Lottery.sol\":2277:2282  ended */\n      0x0b\n      0x00\n      swap1\n      sload\n      swap1\n      0x0100\n      exp\n      swap1\n      div\n      0xff\n      and\n        /* \"contract/Lottery.sol\":2276:2282  !ended */\n      iszero\n        /* \"contract/Lottery.sol\":2268:2312  require(!ended, \"Lottery has already ended\") */\n      tag_114\n      jumpi\n      mload(0x40)\n      0x08c379a000000000000000000000000000000000000000000000000000000000\n      dup2\n      mstore\n      0x04\n      add\n      tag_115\n      swap1\n      tag_116\n      jump\t// in\n    tag_115:\n      mload(0x40)\n      dup1\n      swap2\n      sub\n      swap1\n      revert\n    tag_114:\n        /* \"contract/Lottery.sol\":2368:2371  min */\n      sload(0x09)\n        /* \"contract/Lottery.sol\":2345:2357  participants */\n      0x00\n        /* \"contract/Lottery.sol\":2345:2364  participants.length */\n      dup1\n      sload\n      swap1\n      pop\n        /* \"contract/Lottery.sol\":2345:2371  participants.length >= min */\n      lt\n      iszero\n        /* \"contract/Lottery.sol\":2323:2448  require(... */\n      tag_117\n      jumpi\n      mload(0x40)\n      0x08c379a000000000000000000000000000000000000000000000000000000000\n      dup2\n      mstore\n      0x04\n      add\n      tag_118\n      swap1\n      tag_119\n      jump\t// in\n    tag_118:\n      mload(0x40)\n      dup1\n      swap2\n      sub\n      swap1\n      revert\n    tag_117:\n        /* \"contract/Lottery.sol\":2489:2490  0 */\n      0x00\n        /* \"contract/Lottery.sol\":2467:2479  participants */\n      0x00\n        /* \"contract/Lottery.sol\":2467:2486  participants.length */\n      dup1\n      sload\n      swap1\n      pop\n        /* \"contract/Lottery.sol\":2467:2490  participants.length > 0 */\n      gt\n        /* \"contract/Lottery.sol\":2459:2510  require(participants.length > 0, \"No participants\") */\n      tag_120\n      jumpi\n      mload(0x40)\n      0x08c379a000000000000000000000000000000000000000000000000000000000\n      dup2\n      mstore\n      0x04\n      add\n      tag_121\n      swap1\n      tag_122\n      jump\t// in\n    tag_121:\n      mload(0x40)\n      dup1\n      swap2\n      sub\n      swap1\n      revert\n    tag_120:\n        /* \"contract/Lottery.sol\":2596:2618  bytes memory extraArgs */\n      0x00\n        /* \"contract/Lottery.sol\":2621:2726  VRFV2PlusClient._argsToBytes(... */\n      tag_123\n        /* \"contract/Lottery.sol\":2664:2715  VRFV2PlusClient.ExtraArgsV1({nativePayment: false}) */\n      mload(0x40)\n      dup1\n      0x20\n      add\n      0x40\n      mstore\n      dup1\n        /* \"contract/Lottery.sol\":2708:2713  false */\n      0x00\n        /* \"contract/Lottery.sol\":2664:2715  VRFV2PlusClient.ExtraArgsV1({nativePayment: false}) */\n      iszero\n      iszero\n      dup2\n      mstore\n      pop\n        /* \"contract/Lottery.sol\":2621:2649  VRFV2PlusClient._argsToBytes */\n      tag_124\n        /* \"contract/Lottery.sol\":2621:2726  VRFV2PlusClient._argsToBytes(... */\n      jump\t// in\n    tag_123:\n        /* \"contract/Lottery.sol\":2596:2726  bytes memory extraArgs = VRFV2PlusClient._argsToBytes(... */\n      swap1\n      pop\n        /* \"contract/Lottery.sol\":2753:2795  requestRandomness(100000, 3, 1, extraArgs) */\n      tag_125\n        /* \"contract/Lottery.sol\":2771:2777  100000 */\n      0x0186a0\n        /* \"contract/Lottery.sol\":2779:2780  3 */\n      0x03\n        /* \"contract/Lottery.sol\":2782:2783  1 */\n      0x01\n        /* \"contract/Lottery.sol\":2785:2794  extraArgs */\n      dup5\n        /* \"contract/Lottery.sol\":2753:2770  requestRandomness */\n      tag_126\n        /* \"contract/Lottery.sol\":2753:2795  requestRandomness(100000, 3, 1, extraArgs) */\n      jump\t// in\n    tag_125:\n        /* \"contract/Lottery.sol\":2737:2795  (requestId, ) = requestRandomness(100000, 3, 1, extraArgs) */\n      pop\n        /* \"contract/Lottery.sol\":2738:2747  requestId */\n      0x08\n      0x00\n        /* \"contract/Lottery.sol\":2737:2795  (requestId, ) = requestRandomness(100000, 3, 1, extraArgs) */\n      dup3\n      swap2\n      swap1\n      pop\n      sstore\n      pop\n        /* \"contract/Lottery.sol\":2257:2803  {... */\n      pop\n        /* \"contract/Lottery.sol\":2222:2803  function start() external onlyHost {... */\n      jump\t// out\n        /* \"@chainlink/contracts/src/v0.8/vrf/dev/VRFV2PlusWrapperConsumerBase.sol\":4958:5052  function getLinkToken() public view returns (LinkTokenInterface) {... */\n    tag_74:\n        /* \"@chainlink/contracts/src/v0.8/vrf/dev/VRFV2PlusWrapperConsumerBase.sol\":5003:5021  LinkTokenInterface */\n      0x00\n        /* \"@chainlink/contracts/src/v0.8/vrf/dev/VRFV2PlusWrapperConsumerBase.sol\":5036:5047  i_linkToken */\n      immutable(\"0xd905fec1a56b00009651ce5a01a34d2244da02f516f67ee88b03219738dbf226\")\n        /* \"@chainlink/contracts/src/v0.8/vrf/dev/VRFV2PlusWrapperConsumerBase.sol\":5029:5047  return i_linkToken */\n      swap1\n      pop\n        /* \"@chainlink/contracts/src/v0.8/vrf/dev/VRFV2PlusWrapperConsumerBase.sol\":4958:5052  function getLinkToken() public view returns (LinkTokenInterface) {... */\n      swap1\n      jump\t// out\n        /* \"contract/Lottery.sol\":469:496  address payable public host */\n    tag_79:\n      0x02\n      0x00\n      swap1\n      sload\n      swap1\n      0x0100\n      exp\n      swap1\n      div\n      0xffffffffffffffffffffffffffffffffffffffff\n      and\n      dup2\n      jump\t// out\n        /* \"contract/Lottery.sol\":975:993  uint256 public min */\n    tag_84:\n      sload(0x09)\n      dup2\n      jump\t// out\n        /* \"contract/Lottery.sol\":3700:4332  function fulfillRandomWords(... */\n    tag_92:\n        /* \"contract/Lottery.sol\":3864:3865  0 */\n      0x00\n        /* \"contract/Lottery.sol\":3842:3854  _randomWords */\n      dup2\n        /* \"contract/Lottery.sol\":3842:3861  _randomWords.length */\n      mload\n        /* \"contract/Lottery.sol\":3842:3865  _randomWords.length > 0 */\n      gt\n        /* \"contract/Lottery.sol\":3834:3895  require(_randomWords.length > 0, \"No random words received.\") */\n      tag_129\n      jumpi\n      mload(0x40)\n      0x08c379a000000000000000000000000000000000000000000000000000000000\n      dup2\n      mstore\n      0x04\n      add\n      tag_130\n      swap1\n      tag_131\n      jump\t// in\n    tag_130:\n      mload(0x40)\n      dup1\n      swap2\n      sub\n      swap1\n      revert\n    tag_129:\n        /* \"contract/Lottery.sol\":3936:3937  0 */\n      0x00\n        /* \"contract/Lottery.sol\":3914:3926  participants */\n      0x00\n        /* \"contract/Lottery.sol\":3914:3933  participants.length */\n      dup1\n      sload\n      swap1\n      pop\n        /* \"contract/Lottery.sol\":3914:3937  participants.length > 0 */\n      gt\n        /* \"contract/Lottery.sol\":3906:3958  require(participants.length > 0, \"No participants.\") */\n      tag_132\n      jumpi\n      mload(0x40)\n      0x08c379a000000000000000000000000000000000000000000000000000000000\n      dup2\n      mstore\n      0x04\n      add\n      tag_133\n      swap1\n      tag_134\n      jump\t// in\n    tag_133:\n      mload(0x40)\n      dup1\n      swap2\n      sub\n      swap1\n      revert\n    tag_132:\n        /* \"contract/Lottery.sol\":3986:3998  _randomWords */\n      dup1\n        /* \"contract/Lottery.sol\":3999:4000  0 */\n      0x00\n        /* \"contract/Lottery.sol\":3986:4001  _randomWords[0] */\n      dup2\n      mload\n      dup2\n      lt\n      tag_135\n      jumpi\n      tag_136\n      tag_137\n      jump\t// in\n    tag_136:\n    tag_135:\n      0x20\n      mul\n      0x20\n      add\n      add\n      mload\n        /* \"contract/Lottery.sol\":3971:3983  randomResult */\n      0x07\n        /* \"contract/Lottery.sol\":3971:4001  randomResult = _randomWords[0] */\n      dup2\n      swap1\n      sstore\n      pop\n        /* \"contract/Lottery.sol\":4012:4033  address winnerAddress */\n      0x00\n        /* \"contract/Lottery.sol\":4036:4048  findWinner() */\n      tag_138\n        /* \"contract/Lottery.sol\":4036:4046  findWinner */\n      tag_139\n        /* \"contract/Lottery.sol\":4036:4048  findWinner() */\n      jump\t// in\n    tag_138:\n        /* \"contract/Lottery.sol\":4012:4048  address winnerAddress = findWinner() */\n      swap1\n      pop\n        /* \"contract/Lottery.sol\":4066:4108  lotterWinner(winnerAddress, monetaryPrize) */\n      0x6f2ef2e5aa9339a9d2fc1e8c9b2924cd1e974fd3dbd59f2d86f241820b7dbd76\n        /* \"contract/Lottery.sol\":4079:4092  winnerAddress */\n      dup2\n        /* \"contract/Lottery.sol\":542:549  5 ether */\n      0x4563918244f40000\n        /* \"contract/Lottery.sol\":4066:4108  lotterWinner(winnerAddress, monetaryPrize) */\n      mload(0x40)\n      tag_140\n      swap3\n      swap2\n      swap1\n      tag_141\n      jump\t// in\n    tag_140:\n      mload(0x40)\n      dup1\n      swap2\n      sub\n      swap1\n      log1\n        /* \"contract/Lottery.sol\":4127:4131  true */\n      0x01\n        /* \"contract/Lottery.sol\":4119:4124  ended */\n      0x0b\n      0x00\n        /* \"contract/Lottery.sol\":4119:4131  ended = true */\n      0x0100\n      exp\n      dup2\n      sload\n      dup2\n      0xff\n      mul\n      not\n      and\n      swap1\n      dup4\n      iszero\n      iszero\n      mul\n      or\n      swap1\n      sstore\n      pop\n        /* \"contract/Lottery.sol\":4196:4208  amountToSend */\n      sload(0x03)\n        /* \"contract/Lottery.sol\":4183:4192  msg.value */\n      callvalue\n        /* \"contract/Lottery.sol\":4183:4208  msg.value >= amountToSend */\n      lt\n      iszero\n        /* \"contract/Lottery.sol\":4175:4241  require(msg.value >= amountToSend, \"Failed to send prize amount.\") */\n      tag_142\n      jumpi\n      mload(0x40)\n      0x08c379a000000000000000000000000000000000000000000000000000000000\n      dup2\n      mstore\n      0x04\n      add\n      tag_143\n      swap1\n      tag_144\n      jump\t// in\n    tag_143:\n      mload(0x40)\n      dup1\n      swap2\n      sub\n      swap1\n      revert\n    tag_142:\n        /* \"contract/Lottery.sol\":4260:4273  winnerAddress */\n      dup1\n        /* \"contract/Lottery.sol\":4252:4283  payable(winnerAddress).transfer */\n      0xffffffffffffffffffffffffffffffffffffffff\n      and\n        /* \"contract/Lottery.sol\":4252:4297  payable(winnerAddress).transfer(amountToSend) */\n      0x08fc\n        /* \"contract/Lottery.sol\":4284:4296  amountToSend */\n      sload(0x03)\n        /* \"contract/Lottery.sol\":4252:4297  payable(winnerAddress).transfer(amountToSend) */\n      swap1\n      dup2\n      iszero\n      mul\n      swap1\n      mload(0x40)\n      0x00\n      mload(0x40)\n      dup1\n      dup4\n      sub\n      dup2\n      dup6\n      dup9\n      dup9\n      call\n      swap4\n      pop\n      pop\n      pop\n      pop\n      iszero\n      dup1\n      iszero\n      tag_146\n      jumpi\n      returndatacopy(0x00, 0x00, returndatasize)\n      revert(0x00, returndatasize)\n    tag_146:\n      pop\n        /* \"contract/Lottery.sol\":4323:4324  0 */\n      0x00\n        /* \"contract/Lottery.sol\":4308:4320  amountToSend */\n      0x03\n        /* \"contract/Lottery.sol\":4308:4324  amountToSend = 0 */\n      dup2\n      swap1\n      sstore\n      pop\n        /* \"contract/Lottery.sol\":3823:4332  {... */\n      pop\n        /* \"contract/Lottery.sol\":3700:4332  function fulfillRandomWords(... */\n      pop\n      pop\n      jump\t// out\n        /* \"@chainlink/contracts/src/v0.8/vrf/dev/libraries/VRFV2PlusClient.sol\":476:647  function _argsToBytes(... */\n    tag_124:\n        /* \"@chainlink/contracts/src/v0.8/vrf/dev/libraries/VRFV2PlusClient.sol\":559:575  bytes memory bts */\n      0x60\n        /* \"@chainlink/contracts/src/v0.8/vrf/dev/libraries/VRFV2PlusClient.sol\":211:239  keccak256(\"VRF ExtraArgsV1\") */\n      0x92fd13387c7fe7befbc38d303d6468778fb9731bc4583f17d92989c6fcfdeaaa\n        /* \"@chainlink/contracts/src/v0.8/vrf/dev/libraries/VRFV2PlusClient.sol\":632:641  extraArgs */\n      dup3\n        /* \"@chainlink/contracts/src/v0.8/vrf/dev/libraries/VRFV2PlusClient.sol\":590:642  abi.encodeWithSelector(EXTRA_ARGS_V1_TAG, extraArgs) */\n      add(0x24, mload(0x40))\n      tag_148\n      swap2\n      swap1\n      tag_149\n      jump\t// in\n    tag_148:\n      mload(0x40)\n      0x20\n      dup2\n      dup4\n      sub\n      sub\n      dup2\n      mstore\n      swap1\n      0x40\n      mstore\n      swap1\n      not(0xffffffffffffffffffffffffffffffffffffffffffffffffffffffff)\n      and\n      0x20\n      dup3\n      add\n      dup1\n      mload\n      0xffffffffffffffffffffffffffffffffffffffffffffffffffffffff\n      dup4\n      dup2\n      dup4\n      and\n      or\n      dup4\n      mstore\n      pop\n      pop\n      pop\n      pop\n        /* \"@chainlink/contracts/src/v0.8/vrf/dev/libraries/VRFV2PlusClient.sol\":583:642  return abi.encodeWithSelector(EXTRA_ARGS_V1_TAG, extraArgs) */\n      swap1\n      pop\n        /* \"@chainlink/contracts/src/v0.8/vrf/dev/libraries/VRFV2PlusClient.sol\":476:647  function _argsToBytes(... */\n      swap2\n      swap1\n      pop\n      jump\t// out\n        /* \"@chainlink/contracts/src/v0.8/vrf/dev/VRFV2PlusWrapperConsumerBase.sol\":2852:3363  function requestRandomness(... */\n    tag_126:\n        /* \"@chainlink/contracts/src/v0.8/vrf/dev/VRFV2PlusWrapperConsumerBase.sol\":3015:3032  uint256 requestId */\n      0x00\n        /* \"@chainlink/contracts/src/v0.8/vrf/dev/VRFV2PlusWrapperConsumerBase.sol\":3034:3050  uint256 reqPrice */\n      0x00\n        /* \"@chainlink/contracts/src/v0.8/vrf/dev/VRFV2PlusWrapperConsumerBase.sol\":3069:3087  i_vrfV2PlusWrapper */\n      immutable(\"0x712adca22095011a9de0b4aa84648bf2bea2744bd9326ede31e43d2a71662846\")\n        /* \"@chainlink/contracts/src/v0.8/vrf/dev/VRFV2PlusWrapperConsumerBase.sol\":3069:3109  i_vrfV2PlusWrapper.calculateRequestPrice */\n      0xffffffffffffffffffffffffffffffffffffffff\n      and\n      0x27e5c50a\n        /* \"@chainlink/contracts/src/v0.8/vrf/dev/VRFV2PlusWrapperConsumerBase.sol\":3110:3127  _callbackGasLimit */\n      dup8\n        /* \"@chainlink/contracts/src/v0.8/vrf/dev/VRFV2PlusWrapperConsumerBase.sol\":3129:3138  _numWords */\n      dup7\n        /* \"@chainlink/contracts/src/v0.8/vrf/dev/VRFV2PlusWrapperConsumerBase.sol\":3069:3139  i_vrfV2PlusWrapper.calculateRequestPrice(_callbackGasLimit, _numWords) */\n      mload(0x40)\n      dup4\n      0xffffffff\n      and\n      0xe0\n      shl\n      dup2\n      mstore\n      0x04\n      add\n      tag_151\n      swap3\n      swap2\n      swap1\n      tag_152\n      jump\t// in\n    tag_151:\n      0x20\n      mload(0x40)\n      dup1\n      dup4\n      sub\n      dup2\n      dup7\n      gas\n      staticcall\n      iszero\n      dup1\n      iszero\n      tag_154\n      jumpi\n      returndatacopy(0x00, 0x00, returndatasize)\n      revert(0x00, returndatasize)\n    tag_154:\n      pop\n      pop\n      pop\n      pop\n      mload(0x40)\n      returndatasize\n      not(0x1f)\n      0x1f\n      dup3\n      add\n      and\n      dup3\n      add\n      dup1\n      0x40\n      mstore\n      pop\n      dup2\n      add\n      swap1\n      tag_155\n      swap2\n      swap1\n      tag_156\n      jump\t// in\n    tag_155:\n        /* \"@chainlink/contracts/src/v0.8/vrf/dev/VRFV2PlusWrapperConsumerBase.sol\":3058:3139  reqPrice = i_vrfV2PlusWrapper.calculateRequestPrice(_callbackGasLimit, _numWords) */\n      swap1\n      pop\n        /* \"@chainlink/contracts/src/v0.8/vrf/dev/VRFV2PlusWrapperConsumerBase.sol\":3145:3156  i_linkToken */\n      immutable(\"0xd905fec1a56b00009651ce5a01a34d2244da02f516f67ee88b03219738dbf226\")\n        /* \"@chainlink/contracts/src/v0.8/vrf/dev/VRFV2PlusWrapperConsumerBase.sol\":3145:3172  i_linkToken.transferAndCall */\n      0xffffffffffffffffffffffffffffffffffffffff\n      and\n      0x4000aea0\n        /* \"@chainlink/contracts/src/v0.8/vrf/dev/VRFV2PlusWrapperConsumerBase.sol\":3188:3206  i_vrfV2PlusWrapper */\n      immutable(\"0x712adca22095011a9de0b4aa84648bf2bea2744bd9326ede31e43d2a71662846\")\n        /* \"@chainlink/contracts/src/v0.8/vrf/dev/VRFV2PlusWrapperConsumerBase.sol\":3209:3217  reqPrice */\n      dup4\n        /* \"@chainlink/contracts/src/v0.8/vrf/dev/VRFV2PlusWrapperConsumerBase.sol\":3230:3247  _callbackGasLimit */\n      dup10\n        /* \"@chainlink/contracts/src/v0.8/vrf/dev/VRFV2PlusWrapperConsumerBase.sol\":3249:3270  _requestConfirmations */\n      dup10\n        /* \"@chainlink/contracts/src/v0.8/vrf/dev/VRFV2PlusWrapperConsumerBase.sol\":3272:3281  _numWords */\n      dup10\n        /* \"@chainlink/contracts/src/v0.8/vrf/dev/VRFV2PlusWrapperConsumerBase.sol\":3283:3292  extraArgs */\n      dup10\n        /* \"@chainlink/contracts/src/v0.8/vrf/dev/VRFV2PlusWrapperConsumerBase.sol\":3219:3293  abi.encode(_callbackGasLimit, _requestConfirmations, _numWords, extraArgs) */\n      add(0x20, mload(0x40))\n      tag_157\n      swap5\n      swap4\n      swap3\n      swap2\n      swap1\n      tag_158\n      jump\t// in\n    tag_157:\n      mload(0x40)\n      0x20\n      dup2\n      dup4\n      sub\n      sub\n      dup2\n      mstore\n      swap1\n      0x40\n      mstore\n        /* \"@chainlink/contracts/src/v0.8/vrf/dev/VRFV2PlusWrapperConsumerBase.sol\":3145:3299  i_linkToken.transferAndCall(... */\n      mload(0x40)\n      dup5\n      0xffffffff\n      and\n      0xe0\n      shl\n      dup2\n      mstore\n      0x04\n      add\n      tag_159\n      swap4\n      swap3\n      swap2\n      swap1\n      tag_160\n      jump\t// in\n    tag_159:\n      0x20\n      mload(0x40)\n      dup1\n      dup4\n      sub\n      dup2\n      0x00\n      dup8\n      gas\n      call\n      iszero\n      dup1\n      iszero\n      tag_162\n      jumpi\n      returndatacopy(0x00, 0x00, returndatasize)\n      revert(0x00, returndatasize)\n    tag_162:\n      pop\n      pop\n      pop\n      pop\n      mload(0x40)\n      returndatasize\n      not(0x1f)\n      0x1f\n      dup3\n      add\n      and\n      dup3\n      add\n      dup1\n      0x40\n      mstore\n      pop\n      dup2\n      add\n      swap1\n      tag_163\n      swap2\n      swap1\n      tag_164\n      jump\t// in\n    tag_163:\n      pop\n        /* \"@chainlink/contracts/src/v0.8/vrf/dev/VRFV2PlusWrapperConsumerBase.sol\":3313:3331  i_vrfV2PlusWrapper */\n      immutable(\"0x712adca22095011a9de0b4aa84648bf2bea2744bd9326ede31e43d2a71662846\")\n        /* \"@chainlink/contracts/src/v0.8/vrf/dev/VRFV2PlusWrapperConsumerBase.sol\":3313:3345  i_vrfV2PlusWrapper.lastRequestId */\n      0xffffffffffffffffffffffffffffffffffffffff\n      and\n      0xfc2a88c3\n        /* \"@chainlink/contracts/src/v0.8/vrf/dev/VRFV2PlusWrapperConsumerBase.sol\":3313:3347  i_vrfV2PlusWrapper.lastRequestId() */\n      mload(0x40)\n      dup2\n      0xffffffff\n      and\n      0xe0\n      shl\n      dup2\n      mstore\n      0x04\n      add\n      0x20\n      mload(0x40)\n      dup1\n      dup4\n      sub\n      dup2\n      dup7\n      gas\n      staticcall\n      iszero\n      dup1\n      iszero\n      tag_166\n      jumpi\n      returndatacopy(0x00, 0x00, returndatasize)\n      revert(0x00, returndatasize)\n    tag_166:\n      pop\n      pop\n      pop\n      pop\n      mload(0x40)\n      returndatasize\n      not(0x1f)\n      0x1f\n      dup3\n      add\n      and\n      dup3\n      add\n      dup1\n      0x40\n      mstore\n      pop\n      dup2\n      add\n      swap1\n      tag_167\n      swap2\n      swap1\n      tag_156\n      jump\t// in\n    tag_167:\n        /* \"@chainlink/contracts/src/v0.8/vrf/dev/VRFV2PlusWrapperConsumerBase.sol\":3305:3358  return (i_vrfV2PlusWrapper.lastRequestId(), reqPrice) */\n      swap2\n      pop\n        /* \"@chainlink/contracts/src/v0.8/vrf/dev/VRFV2PlusWrapperConsumerBase.sol\":2852:3363  function requestRandomness(... */\n      swap5\n      pop\n      swap5\n      swap3\n      pop\n      pop\n      pop\n      jump\t// out\n        /* \"contract/Lottery.sol\":2958:3531  function findWinner() private view returns (address) {... */\n    tag_139:\n        /* \"contract/Lottery.sol\":3002:3009  address */\n      0x00\n        /* \"contract/Lottery.sol\":3424:3443  uint256 winnerIndex */\n      0x00\n        /* \"contract/Lottery.sol\":3461:3473  participants */\n      0x00\n        /* \"contract/Lottery.sol\":3461:3480  participants.length */\n      dup1\n      sload\n      swap1\n      pop\n        /* \"contract/Lottery.sol\":3446:3458  randomResult */\n      sload(0x07)\n        /* \"contract/Lottery.sol\":3446:3480  randomResult % participants.length */\n      tag_169\n      swap2\n      swap1\n      tag_170\n      jump\t// in\n    tag_169:\n        /* \"contract/Lottery.sol\":3424:3480  uint256 winnerIndex = randomResult % participants.length */\n      swap1\n      pop\n        /* \"contract/Lottery.sol\":3498:3510  participants */\n      0x00\n        /* \"contract/Lottery.sol\":3511:3522  winnerIndex */\n      dup2\n        /* \"contract/Lottery.sol\":3498:3523  participants[winnerIndex] */\n      dup2\n      sload\n      dup2\n      lt\n      tag_171\n      jumpi\n      tag_172\n      tag_137\n      jump\t// in\n    tag_172:\n    tag_171:\n      swap1\n      0x00\n      mstore\n      keccak256(0x00, 0x20)\n      add\n      0x00\n      swap1\n      sload\n      swap1\n      0x0100\n      exp\n      swap1\n      div\n      0xffffffffffffffffffffffffffffffffffffffff\n      and\n        /* \"contract/Lottery.sol\":3491:3523  return participants[winnerIndex] */\n      swap2\n      pop\n      pop\n        /* \"contract/Lottery.sol\":2958:3531  function findWinner() private view returns (address) {... */\n      swap1\n      jump\t// out\n        /* \"#utility.yul\":7:84   */\n    tag_174:\n        /* \"#utility.yul\":44:51   */\n      0x00\n        /* \"#utility.yul\":73:78   */\n      dup2\n        /* \"#utility.yul\":62:78   */\n      swap1\n      pop\n        /* \"#utility.yul\":7:84   */\n      swap2\n      swap1\n      pop\n      jump\t// out\n        /* \"#utility.yul\":90:208   */\n    tag_175:\n        /* \"#utility.yul\":177:201   */\n      tag_250\n        /* \"#utility.yul\":195:200   */\n      dup2\n        /* \"#utility.yul\":177:201   */\n      tag_174\n      jump\t// in\n    tag_250:\n        /* \"#utility.yul\":172:175   */\n      dup3\n        /* \"#utility.yul\":165:202   */\n      mstore\n        /* \"#utility.yul\":90:208   */\n      pop\n      pop\n      jump\t// out\n        /* \"#utility.yul\":214:436   */\n    tag_24:\n        /* \"#utility.yul\":307:311   */\n      0x00\n        /* \"#utility.yul\":345:347   */\n      0x20\n        /* \"#utility.yul\":334:343   */\n      dup3\n        /* \"#utility.yul\":330:348   */\n      add\n        /* \"#utility.yul\":322:348   */\n      swap1\n      pop\n        /* \"#utility.yul\":358:429   */\n      tag_252\n        /* \"#utility.yul\":426:427   */\n      0x00\n        /* \"#utility.yul\":415:424   */\n      dup4\n        /* \"#utility.yul\":411:428   */\n      add\n        /* \"#utility.yul\":402:408   */\n      dup5\n        /* \"#utility.yul\":358:429   */\n      tag_175\n      jump\t// in\n    tag_252:\n        /* \"#utility.yul\":214:436   */\n      swap3\n      swap2\n      pop\n      pop\n      jump\t// out\n        /* \"#utility.yul\":442:532   */\n    tag_176:\n        /* \"#utility.yul\":476:483   */\n      0x00\n        /* \"#utility.yul\":519:524   */\n      dup2\n        /* \"#utility.yul\":512:525   */\n      iszero\n        /* \"#utility.yul\":505:526   */\n      iszero\n        /* \"#utility.yul\":494:526   */\n      swap1\n      pop\n        /* \"#utility.yul\":442:532   */\n      swap2\n      swap1\n      pop\n      jump\t// out\n        /* \"#utility.yul\":538:647   */\n    tag_177:\n        /* \"#utility.yul\":619:640   */\n      tag_255\n        /* \"#utility.yul\":634:639   */\n      dup2\n        /* \"#utility.yul\":619:640   */\n      tag_176\n      jump\t// in\n    tag_255:\n        /* \"#utility.yul\":614:617   */\n      dup3\n        /* \"#utility.yul\":607:641   */\n      mstore\n        /* \"#utility.yul\":538:647   */\n      pop\n      pop\n      jump\t// out\n        /* \"#utility.yul\":653:863   */\n    tag_33:\n        /* \"#utility.yul\":740:744   */\n      0x00\n        /* \"#utility.yul\":778:780   */\n      0x20\n        /* \"#utility.yul\":767:776   */\n      dup3\n        /* \"#utility.yul\":763:781   */\n      add\n        /* \"#utility.yul\":755:781   */\n      swap1\n      pop\n        /* \"#utility.yul\":791:856   */\n      tag_257\n        /* \"#utility.yul\":853:854   */\n      0x00\n        /* \"#utility.yul\":842:851   */\n      dup4\n        /* \"#utility.yul\":838:855   */\n      add\n        /* \"#utility.yul\":829:835   */\n      dup5\n        /* \"#utility.yul\":791:856   */\n      tag_177\n      jump\t// in\n    tag_257:\n        /* \"#utility.yul\":653:863   */\n      swap3\n      swap2\n      pop\n      pop\n      jump\t// out\n        /* \"#utility.yul\":869:970   */\n    tag_178:\n        /* \"#utility.yul\":905:912   */\n      0x00\n        /* \"#utility.yul\":945:963   */\n      0xffffffffffffffff\n        /* \"#utility.yul\":938:943   */\n      dup3\n        /* \"#utility.yul\":934:964   */\n      and\n        /* \"#utility.yul\":923:964   */\n      swap1\n      pop\n        /* \"#utility.yul\":869:970   */\n      swap2\n      swap1\n      pop\n      jump\t// out\n        /* \"#utility.yul\":976:1091   */\n    tag_179:\n        /* \"#utility.yul\":1061:1084   */\n      tag_260\n        /* \"#utility.yul\":1078:1083   */\n      dup2\n        /* \"#utility.yul\":1061:1084   */\n      tag_178\n      jump\t// in\n    tag_260:\n        /* \"#utility.yul\":1056:1059   */\n      dup3\n        /* \"#utility.yul\":1049:1085   */\n      mstore\n        /* \"#utility.yul\":976:1091   */\n      pop\n      pop\n      jump\t// out\n        /* \"#utility.yul\":1097:1315   */\n    tag_38:\n        /* \"#utility.yul\":1188:1192   */\n      0x00\n        /* \"#utility.yul\":1226:1228   */\n      0x20\n        /* \"#utility.yul\":1215:1224   */\n      dup3\n        /* \"#utility.yul\":1211:1229   */\n      add\n        /* \"#utility.yul\":1203:1229   */\n      swap1\n      pop\n        /* \"#utility.yul\":1239:1308   */\n      tag_262\n        /* \"#utility.yul\":1305:1306   */\n      0x00\n        /* \"#utility.yul\":1294:1303   */\n      dup4\n        /* \"#utility.yul\":1290:1307   */\n      add\n        /* \"#utility.yul\":1281:1287   */\n      dup5\n        /* \"#utility.yul\":1239:1308   */\n      tag_179\n      jump\t// in\n    tag_262:\n        /* \"#utility.yul\":1097:1315   */\n      swap3\n      swap2\n      pop\n      pop\n      jump\t// out\n        /* \"#utility.yul\":1321:1396   */\n    tag_180:\n        /* \"#utility.yul\":1354:1360   */\n      0x00\n        /* \"#utility.yul\":1387:1389   */\n      0x40\n        /* \"#utility.yul\":1381:1390   */\n      mload\n        /* \"#utility.yul\":1371:1390   */\n      swap1\n      pop\n        /* \"#utility.yul\":1321:1396   */\n      swap1\n      jump\t// out\n        /* \"#utility.yul\":1402:1519   */\n    tag_181:\n        /* \"#utility.yul\":1511:1512   */\n      0x00\n        /* \"#utility.yul\":1508:1509   */\n      0x00\n        /* \"#utility.yul\":1501:1513   */\n      revert\n        /* \"#utility.yul\":1525:1642   */\n    tag_182:\n        /* \"#utility.yul\":1634:1635   */\n      0x00\n        /* \"#utility.yul\":1631:1632   */\n      0x00\n        /* \"#utility.yul\":1624:1636   */\n      revert\n        /* \"#utility.yul\":1648:1770   */\n    tag_183:\n        /* \"#utility.yul\":1721:1745   */\n      tag_267\n        /* \"#utility.yul\":1739:1744   */\n      dup2\n        /* \"#utility.yul\":1721:1745   */\n      tag_174\n      jump\t// in\n    tag_267:\n        /* \"#utility.yul\":1714:1719   */\n      dup2\n        /* \"#utility.yul\":1711:1746   */\n      eq\n        /* \"#utility.yul\":1701:1764   */\n      tag_268\n      jumpi\n        /* \"#utility.yul\":1760:1761   */\n      0x00\n        /* \"#utility.yul\":1757:1758   */\n      0x00\n        /* \"#utility.yul\":1750:1762   */\n      revert\n        /* \"#utility.yul\":1701:1764   */\n    tag_268:\n        /* \"#utility.yul\":1648:1770   */\n      pop\n      jump\t// out\n        /* \"#utility.yul\":1776:1915   */\n    tag_184:\n        /* \"#utility.yul\":1822:1827   */\n      0x00\n        /* \"#utility.yul\":1860:1866   */\n      dup2\n        /* \"#utility.yul\":1847:1867   */\n      calldataload\n        /* \"#utility.yul\":1838:1867   */\n      swap1\n      pop\n        /* \"#utility.yul\":1876:1909   */\n      tag_270\n        /* \"#utility.yul\":1903:1908   */\n      dup2\n        /* \"#utility.yul\":1876:1909   */\n      tag_183\n      jump\t// in\n    tag_270:\n        /* \"#utility.yul\":1776:1915   */\n      swap3\n      swap2\n      pop\n      pop\n      jump\t// out\n        /* \"#utility.yul\":1921:2038   */\n    tag_185:\n        /* \"#utility.yul\":2030:2031   */\n      0x00\n        /* \"#utility.yul\":2027:2028   */\n      0x00\n        /* \"#utility.yul\":2020:2032   */\n      revert\n        /* \"#utility.yul\":2044:2146   */\n    tag_186:\n        /* \"#utility.yul\":2085:2091   */\n      0x00\n        /* \"#utility.yul\":2136:2138   */\n      0x1f\n        /* \"#utility.yul\":2132:2139   */\n      not\n        /* \"#utility.yul\":2127:2129   */\n      0x1f\n        /* \"#utility.yul\":2120:2125   */\n      dup4\n        /* \"#utility.yul\":2116:2130   */\n      add\n        /* \"#utility.yul\":2112:2140   */\n      and\n        /* \"#utility.yul\":2102:2140   */\n      swap1\n      pop\n        /* \"#utility.yul\":2044:2146   */\n      swap2\n      swap1\n      pop\n      jump\t// out\n        /* \"#utility.yul\":2152:2332   */\n    tag_187:\n        /* \"#utility.yul\":2200:2277   */\n      0x4e487b7100000000000000000000000000000000000000000000000000000000\n        /* \"#utility.yul\":2197:2198   */\n      0x00\n        /* \"#utility.yul\":2190:2278   */\n      mstore\n        /* \"#utility.yul\":2297:2301   */\n      0x41\n        /* \"#utility.yul\":2294:2295   */\n      0x04\n        /* \"#utility.yul\":2287:2302   */\n      mstore\n        /* \"#utility.yul\":2321:2325   */\n      0x24\n        /* \"#utility.yul\":2318:2319   */\n      0x00\n        /* \"#utility.yul\":2311:2326   */\n      revert\n        /* \"#utility.yul\":2338:2619   */\n    tag_188:\n        /* \"#utility.yul\":2421:2448   */\n      tag_275\n        /* \"#utility.yul\":2443:2447   */\n      dup3\n        /* \"#utility.yul\":2421:2448   */\n      tag_186\n      jump\t// in\n    tag_275:\n        /* \"#utility.yul\":2413:2419   */\n      dup2\n        /* \"#utility.yul\":2409:2449   */\n      add\n        /* \"#utility.yul\":2551:2557   */\n      dup2\n        /* \"#utility.yul\":2539:2549   */\n      dup2\n        /* \"#utility.yul\":2536:2558   */\n      lt\n        /* \"#utility.yul\":2515:2533   */\n      0xffffffffffffffff\n        /* \"#utility.yul\":2503:2513   */\n      dup3\n        /* \"#utility.yul\":2500:2534   */\n      gt\n        /* \"#utility.yul\":2497:2559   */\n      or\n        /* \"#utility.yul\":2494:2582   */\n      iszero\n      tag_276\n      jumpi\n        /* \"#utility.yul\":2562:2580   */\n      tag_277\n      tag_187\n      jump\t// in\n    tag_277:\n        /* \"#utility.yul\":2494:2582   */\n    tag_276:\n        /* \"#utility.yul\":2602:2612   */\n      dup1\n        /* \"#utility.yul\":2598:2600   */\n      0x40\n        /* \"#utility.yul\":2591:2613   */\n      mstore\n        /* \"#utility.yul\":2381:2619   */\n      pop\n        /* \"#utility.yul\":2338:2619   */\n      pop\n      pop\n      jump\t// out\n        /* \"#utility.yul\":2625:2754   */\n    tag_189:\n        /* \"#utility.yul\":2659:2665   */\n      0x00\n        /* \"#utility.yul\":2686:2706   */\n      tag_279\n      tag_180\n      jump\t// in\n    tag_279:\n        /* \"#utility.yul\":2676:2706   */\n      swap1\n      pop\n        /* \"#utility.yul\":2715:2748   */\n      tag_280\n        /* \"#utility.yul\":2743:2747   */\n      dup3\n        /* \"#utility.yul\":2735:2741   */\n      dup3\n        /* \"#utility.yul\":2715:2748   */\n      tag_188\n      jump\t// in\n    tag_280:\n        /* \"#utility.yul\":2625:2754   */\n      swap2\n      swap1\n      pop\n      jump\t// out\n        /* \"#utility.yul\":2760:3071   */\n    tag_190:\n        /* \"#utility.yul\":2837:2841   */\n      0x00\n        /* \"#utility.yul\":2927:2945   */\n      0xffffffffffffffff\n        /* \"#utility.yul\":2919:2925   */\n      dup3\n        /* \"#utility.yul\":2916:2946   */\n      gt\n        /* \"#utility.yul\":2913:2969   */\n      iszero\n      tag_282\n      jumpi\n        /* \"#utility.yul\":2949:2967   */\n      tag_283\n      tag_187\n      jump\t// in\n    tag_283:\n        /* \"#utility.yul\":2913:2969   */\n    tag_282:\n        /* \"#utility.yul\":2999:3003   */\n      0x20\n        /* \"#utility.yul\":2991:2997   */\n      dup3\n        /* \"#utility.yul\":2987:3004   */\n      mul\n        /* \"#utility.yul\":2979:3004   */\n      swap1\n      pop\n        /* \"#utility.yul\":3059:3063   */\n      0x20\n        /* \"#utility.yul\":3053:3057   */\n      dup2\n        /* \"#utility.yul\":3049:3064   */\n      add\n        /* \"#utility.yul\":3041:3064   */\n      swap1\n      pop\n        /* \"#utility.yul\":2760:3071   */\n      swap2\n      swap1\n      pop\n      jump\t// out\n        /* \"#utility.yul\":3077:3194   */\n    tag_191:\n        /* \"#utility.yul\":3186:3187   */\n      0x00\n        /* \"#utility.yul\":3183:3184   */\n      0x00\n        /* \"#utility.yul\":3176:3188   */\n      revert\n        /* \"#utility.yul\":3217:3927   */\n    tag_192:\n        /* \"#utility.yul\":3313:3318   */\n      0x00\n        /* \"#utility.yul\":3338:3419   */\n      tag_286\n        /* \"#utility.yul\":3354:3418   */\n      tag_287\n        /* \"#utility.yul\":3411:3417   */\n      dup5\n        /* \"#utility.yul\":3354:3418   */\n      tag_190\n      jump\t// in\n    tag_287:\n        /* \"#utility.yul\":3338:3419   */\n      tag_189\n      jump\t// in\n    tag_286:\n        /* \"#utility.yul\":3329:3419   */\n      swap1\n      pop\n        /* \"#utility.yul\":3439:3444   */\n      dup1\n        /* \"#utility.yul\":3468:3474   */\n      dup4\n        /* \"#utility.yul\":3461:3466   */\n      dup3\n        /* \"#utility.yul\":3454:3475   */\n      mstore\n        /* \"#utility.yul\":3502:3506   */\n      0x20\n        /* \"#utility.yul\":3495:3500   */\n      dup3\n        /* \"#utility.yul\":3491:3507   */\n      add\n        /* \"#utility.yul\":3484:3507   */\n      swap1\n      pop\n        /* \"#utility.yul\":3555:3559   */\n      0x20\n        /* \"#utility.yul\":3547:3553   */\n      dup5\n        /* \"#utility.yul\":3543:3560   */\n      mul\n        /* \"#utility.yul\":3535:3541   */\n      dup4\n        /* \"#utility.yul\":3531:3561   */\n      add\n        /* \"#utility.yul\":3584:3587   */\n      dup6\n        /* \"#utility.yul\":3576:3582   */\n      dup2\n        /* \"#utility.yul\":3573:3588   */\n      gt\n        /* \"#utility.yul\":3570:3692   */\n      iszero\n      tag_288\n      jumpi\n        /* \"#utility.yul\":3603:3682   */\n      tag_289\n      tag_191\n      jump\t// in\n    tag_289:\n        /* \"#utility.yul\":3570:3692   */\n    tag_288:\n        /* \"#utility.yul\":3718:3724   */\n      dup4\n        /* \"#utility.yul\":3701:3921   */\n    tag_290:\n        /* \"#utility.yul\":3735:3741   */\n      dup2\n        /* \"#utility.yul\":3730:3733   */\n      dup2\n        /* \"#utility.yul\":3727:3742   */\n      lt\n        /* \"#utility.yul\":3701:3921   */\n      iszero\n      tag_292\n      jumpi\n        /* \"#utility.yul\":3810:3813   */\n      dup1\n        /* \"#utility.yul\":3839:3876   */\n      tag_293\n        /* \"#utility.yul\":3872:3875   */\n      dup9\n        /* \"#utility.yul\":3860:3870   */\n      dup3\n        /* \"#utility.yul\":3839:3876   */\n      tag_184\n      jump\t// in\n    tag_293:\n        /* \"#utility.yul\":3834:3837   */\n      dup5\n        /* \"#utility.yul\":3827:3877   */\n      mstore\n        /* \"#utility.yul\":3906:3910   */\n      0x20\n        /* \"#utility.yul\":3901:3904   */\n      dup5\n        /* \"#utility.yul\":3897:3911   */\n      add\n        /* \"#utility.yul\":3890:3911   */\n      swap4\n      pop\n        /* \"#utility.yul\":3777:3921   */\n      pop\n        /* \"#utility.yul\":3761:3765   */\n      0x20\n        /* \"#utility.yul\":3756:3759   */\n      dup2\n        /* \"#utility.yul\":3752:3766   */\n      add\n        /* \"#utility.yul\":3745:3766   */\n      swap1\n      pop\n        /* \"#utility.yul\":3701:3921   */\n      jump(tag_290)\n    tag_292:\n        /* \"#utility.yul\":3705:3726   */\n      pop\n        /* \"#utility.yul\":3319:3927   */\n      pop\n      pop\n        /* \"#utility.yul\":3217:3927   */\n      swap4\n      swap3\n      pop\n      pop\n      pop\n      jump\t// out\n        /* \"#utility.yul\":3950:4320   */\n    tag_193:\n        /* \"#utility.yul\":4021:4026   */\n      0x00\n        /* \"#utility.yul\":4070:4073   */\n      dup3\n        /* \"#utility.yul\":4063:4067   */\n      0x1f\n        /* \"#utility.yul\":4055:4061   */\n      dup4\n        /* \"#utility.yul\":4051:4068   */\n      add\n        /* \"#utility.yul\":4047:4074   */\n      slt\n        /* \"#utility.yul\":4037:4159   */\n      tag_295\n      jumpi\n        /* \"#utility.yul\":4078:4157   */\n      tag_296\n      tag_185\n      jump\t// in\n    tag_296:\n        /* \"#utility.yul\":4037:4159   */\n    tag_295:\n        /* \"#utility.yul\":4195:4201   */\n      dup2\n        /* \"#utility.yul\":4182:4202   */\n      calldataload\n        /* \"#utility.yul\":4220:4314   */\n      tag_297\n        /* \"#utility.yul\":4310:4313   */\n      dup5\n        /* \"#utility.yul\":4302:4308   */\n      dup3\n        /* \"#utility.yul\":4295:4299   */\n      0x20\n        /* \"#utility.yul\":4287:4293   */\n      dup7\n        /* \"#utility.yul\":4283:4300   */\n      add\n        /* \"#utility.yul\":4220:4314   */\n      tag_192\n      jump\t// in\n    tag_297:\n        /* \"#utility.yul\":4211:4314   */\n      swap2\n      pop\n        /* \"#utility.yul\":4027:4320   */\n      pop\n        /* \"#utility.yul\":3950:4320   */\n      swap3\n      swap2\n      pop\n      pop\n      jump\t// out\n        /* \"#utility.yul\":4326:5010   */\n    tag_42:\n        /* \"#utility.yul\":4419:4425   */\n      0x00\n        /* \"#utility.yul\":4427:4433   */\n      0x00\n        /* \"#utility.yul\":4476:4478   */\n      0x40\n        /* \"#utility.yul\":4464:4473   */\n      dup4\n        /* \"#utility.yul\":4455:4462   */\n      dup6\n        /* \"#utility.yul\":4451:4474   */\n      sub\n        /* \"#utility.yul\":4447:4479   */\n      slt\n        /* \"#utility.yul\":4444:4563   */\n      iszero\n      tag_299\n      jumpi\n        /* \"#utility.yul\":4482:4561   */\n      tag_300\n      tag_181\n      jump\t// in\n    tag_300:\n        /* \"#utility.yul\":4444:4563   */\n    tag_299:\n        /* \"#utility.yul\":4602:4603   */\n      0x00\n        /* \"#utility.yul\":4627:4680   */\n      tag_301\n        /* \"#utility.yul\":4672:4679   */\n      dup6\n        /* \"#utility.yul\":4663:4669   */\n      dup3\n        /* \"#utility.yul\":4652:4661   */\n      dup7\n        /* \"#utility.yul\":4648:4670   */\n      add\n        /* \"#utility.yul\":4627:4680   */\n      tag_184\n      jump\t// in\n    tag_301:\n        /* \"#utility.yul\":4617:4680   */\n      swap3\n      pop\n        /* \"#utility.yul\":4573:4690   */\n      pop\n        /* \"#utility.yul\":4757:4759   */\n      0x20\n        /* \"#utility.yul\":4746:4755   */\n      dup4\n        /* \"#utility.yul\":4742:4760   */\n      add\n        /* \"#utility.yul\":4729:4761   */\n      calldataload\n        /* \"#utility.yul\":4788:4806   */\n      0xffffffffffffffff\n        /* \"#utility.yul\":4780:4786   */\n      dup2\n        /* \"#utility.yul\":4777:4807   */\n      gt\n        /* \"#utility.yul\":4774:4891   */\n      iszero\n      tag_302\n      jumpi\n        /* \"#utility.yul\":4810:4889   */\n      tag_303\n      tag_182\n      jump\t// in\n    tag_303:\n        /* \"#utility.yul\":4774:4891   */\n    tag_302:\n        /* \"#utility.yul\":4915:4993   */\n      tag_304\n        /* \"#utility.yul\":4985:4992   */\n      dup6\n        /* \"#utility.yul\":4976:4982   */\n      dup3\n        /* \"#utility.yul\":4965:4974   */\n      dup7\n        /* \"#utility.yul\":4961:4983   */\n      add\n        /* \"#utility.yul\":4915:4993   */\n      tag_193\n      jump\t// in\n    tag_304:\n        /* \"#utility.yul\":4905:4993   */\n      swap2\n      pop\n        /* \"#utility.yul\":4700:5003   */\n      pop\n        /* \"#utility.yul\":4326:5010   */\n      swap3\n      pop\n      swap3\n      swap1\n      pop\n      jump\t// out\n        /* \"#utility.yul\":5016:5142   */\n    tag_194:\n        /* \"#utility.yul\":5053:5060   */\n      0x00\n        /* \"#utility.yul\":5093:5135   */\n      0xffffffffffffffffffffffffffffffffffffffff\n        /* \"#utility.yul\":5086:5091   */\n      dup3\n        /* \"#utility.yul\":5082:5136   */\n      and\n        /* \"#utility.yul\":5071:5136   */\n      swap1\n      pop\n        /* \"#utility.yul\":5016:5142   */\n      swap2\n      swap1\n      pop\n      jump\t// out\n        /* \"#utility.yul\":5148:5244   */\n    tag_195:\n        /* \"#utility.yul\":5185:5192   */\n      0x00\n        /* \"#utility.yul\":5214:5238   */\n      tag_307\n        /* \"#utility.yul\":5232:5237   */\n      dup3\n        /* \"#utility.yul\":5214:5238   */\n      tag_194\n      jump\t// in\n    tag_307:\n        /* \"#utility.yul\":5203:5238   */\n      swap1\n      pop\n        /* \"#utility.yul\":5148:5244   */\n      swap2\n      swap1\n      pop\n      jump\t// out\n        /* \"#utility.yul\":5250:5372   */\n    tag_196:\n        /* \"#utility.yul\":5323:5347   */\n      tag_309\n        /* \"#utility.yul\":5341:5346   */\n      dup2\n        /* \"#utility.yul\":5323:5347   */\n      tag_195\n      jump\t// in\n    tag_309:\n        /* \"#utility.yul\":5316:5321   */\n      dup2\n        /* \"#utility.yul\":5313:5348   */\n      eq\n        /* \"#utility.yul\":5303:5366   */\n      tag_310\n      jumpi\n        /* \"#utility.yul\":5362:5363   */\n      0x00\n        /* \"#utility.yul\":5359:5360   */\n      0x00\n        /* \"#utility.yul\":5352:5364   */\n      revert\n        /* \"#utility.yul\":5303:5366   */\n    tag_310:\n        /* \"#utility.yul\":5250:5372   */\n      pop\n      jump\t// out\n        /* \"#utility.yul\":5378:5517   */\n    tag_197:\n        /* \"#utility.yul\":5424:5429   */\n      0x00\n        /* \"#utility.yul\":5462:5468   */\n      dup2\n        /* \"#utility.yul\":5449:5469   */\n      calldataload\n        /* \"#utility.yul\":5440:5469   */\n      swap1\n      pop\n        /* \"#utility.yul\":5478:5511   */\n      tag_312\n        /* \"#utility.yul\":5505:5510   */\n      dup2\n        /* \"#utility.yul\":5478:5511   */\n      tag_196\n      jump\t// in\n    tag_312:\n        /* \"#utility.yul\":5378:5517   */\n      swap3\n      swap2\n      pop\n      pop\n      jump\t// out\n        /* \"#utility.yul\":5523:5852   */\n    tag_61:\n        /* \"#utility.yul\":5582:5588   */\n      0x00\n        /* \"#utility.yul\":5631:5633   */\n      0x20\n        /* \"#utility.yul\":5619:5628   */\n      dup3\n        /* \"#utility.yul\":5610:5617   */\n      dup5\n        /* \"#utility.yul\":5606:5629   */\n      sub\n        /* \"#utility.yul\":5602:5634   */\n      slt\n        /* \"#utility.yul\":5599:5718   */\n      iszero\n      tag_314\n      jumpi\n        /* \"#utility.yul\":5637:5716   */\n      tag_315\n      tag_181\n      jump\t// in\n    tag_315:\n        /* \"#utility.yul\":5599:5718   */\n    tag_314:\n        /* \"#utility.yul\":5757:5758   */\n      0x00\n        /* \"#utility.yul\":5782:5835   */\n      tag_316\n        /* \"#utility.yul\":5827:5834   */\n      dup5\n        /* \"#utility.yul\":5818:5824   */\n      dup3\n        /* \"#utility.yul\":5807:5816   */\n      dup6\n        /* \"#utility.yul\":5803:5825   */\n      add\n        /* \"#utility.yul\":5782:5835   */\n      tag_197\n      jump\t// in\n    tag_316:\n        /* \"#utility.yul\":5772:5835   */\n      swap2\n      pop\n        /* \"#utility.yul\":5728:5845   */\n      pop\n        /* \"#utility.yul\":5523:5852   */\n      swap3\n      swap2\n      pop\n      pop\n      jump\t// out\n        /* \"#utility.yul\":5858:5918   */\n    tag_198:\n        /* \"#utility.yul\":5886:5889   */\n      0x00\n        /* \"#utility.yul\":5907:5912   */\n      dup2\n        /* \"#utility.yul\":5900:5912   */\n      swap1\n      pop\n        /* \"#utility.yul\":5858:5918   */\n      swap2\n      swap1\n      pop\n      jump\t// out\n        /* \"#utility.yul\":5924:6066   */\n    tag_199:\n        /* \"#utility.yul\":5974:5983   */\n      0x00\n        /* \"#utility.yul\":6007:6060   */\n      tag_319\n        /* \"#utility.yul\":6025:6059   */\n      tag_320\n        /* \"#utility.yul\":6034:6058   */\n      tag_321\n        /* \"#utility.yul\":6052:6057   */\n      dup5\n        /* \"#utility.yul\":6034:6058   */\n      tag_194\n      jump\t// in\n    tag_321:\n        /* \"#utility.yul\":6025:6059   */\n      tag_198\n      jump\t// in\n    tag_320:\n        /* \"#utility.yul\":6007:6060   */\n      tag_194\n      jump\t// in\n    tag_319:\n        /* \"#utility.yul\":5994:6060   */\n      swap1\n      pop\n        /* \"#utility.yul\":5924:6066   */\n      swap2\n      swap1\n      pop\n      jump\t// out\n        /* \"#utility.yul\":6072:6198   */\n    tag_200:\n        /* \"#utility.yul\":6122:6131   */\n      0x00\n        /* \"#utility.yul\":6155:6192   */\n      tag_323\n        /* \"#utility.yul\":6186:6191   */\n      dup3\n        /* \"#utility.yul\":6155:6192   */\n      tag_199\n      jump\t// in\n    tag_323:\n        /* \"#utility.yul\":6142:6192   */\n      swap1\n      pop\n        /* \"#utility.yul\":6072:6198   */\n      swap2\n      swap1\n      pop\n      jump\t// out\n        /* \"#utility.yul\":6204:6355   */\n    tag_201:\n        /* \"#utility.yul\":6279:6288   */\n      0x00\n        /* \"#utility.yul\":6312:6349   */\n      tag_325\n        /* \"#utility.yul\":6343:6348   */\n      dup3\n        /* \"#utility.yul\":6312:6349   */\n      tag_200\n      jump\t// in\n    tag_325:\n        /* \"#utility.yul\":6299:6349   */\n      swap1\n      pop\n        /* \"#utility.yul\":6204:6355   */\n      swap2\n      swap1\n      pop\n      jump\t// out\n        /* \"#utility.yul\":6361:6542   */\n    tag_202:\n        /* \"#utility.yul\":6473:6535   */\n      tag_327\n        /* \"#utility.yul\":6529:6534   */\n      dup2\n        /* \"#utility.yul\":6473:6535   */\n      tag_201\n      jump\t// in\n    tag_327:\n        /* \"#utility.yul\":6468:6471   */\n      dup3\n        /* \"#utility.yul\":6461:6536   */\n      mstore\n        /* \"#utility.yul\":6361:6542   */\n      pop\n      pop\n      jump\t// out\n        /* \"#utility.yul\":6548:6820   */\n    tag_68:\n        /* \"#utility.yul\":6666:6670   */\n      0x00\n        /* \"#utility.yul\":6704:6706   */\n      0x20\n        /* \"#utility.yul\":6693:6702   */\n      dup3\n        /* \"#utility.yul\":6689:6707   */\n      add\n        /* \"#utility.yul\":6681:6707   */\n      swap1\n      pop\n        /* \"#utility.yul\":6717:6813   */\n      tag_329\n        /* \"#utility.yul\":6810:6811   */\n      0x00\n        /* \"#utility.yul\":6799:6808   */\n      dup4\n        /* \"#utility.yul\":6795:6812   */\n      add\n        /* \"#utility.yul\":6786:6792   */\n      dup5\n        /* \"#utility.yul\":6717:6813   */\n      tag_202\n      jump\t// in\n    tag_329:\n        /* \"#utility.yul\":6548:6820   */\n      swap3\n      swap2\n      pop\n      pop\n      jump\t// out\n        /* \"#utility.yul\":6826:6977   */\n    tag_203:\n        /* \"#utility.yul\":6901:6910   */\n      0x00\n        /* \"#utility.yul\":6934:6971   */\n      tag_331\n        /* \"#utility.yul\":6965:6970   */\n      dup3\n        /* \"#utility.yul\":6934:6971   */\n      tag_200\n      jump\t// in\n    tag_331:\n        /* \"#utility.yul\":6921:6971   */\n      swap1\n      pop\n        /* \"#utility.yul\":6826:6977   */\n      swap2\n      swap1\n      pop\n      jump\t// out\n        /* \"#utility.yul\":6983:7164   */\n    tag_204:\n        /* \"#utility.yul\":7095:7157   */\n      tag_333\n        /* \"#utility.yul\":7151:7156   */\n      dup2\n        /* \"#utility.yul\":7095:7157   */\n      tag_203\n      jump\t// in\n    tag_333:\n        /* \"#utility.yul\":7090:7093   */\n      dup3\n        /* \"#utility.yul\":7083:7158   */\n      mstore\n        /* \"#utility.yul\":6983:7164   */\n      pop\n      pop\n      jump\t// out\n        /* \"#utility.yul\":7170:7442   */\n    tag_76:\n        /* \"#utility.yul\":7288:7292   */\n      0x00\n        /* \"#utility.yul\":7326:7328   */\n      0x20\n        /* \"#utility.yul\":7315:7324   */\n      dup3\n        /* \"#utility.yul\":7311:7329   */\n      add\n        /* \"#utility.yul\":7303:7329   */\n      swap1\n      pop\n        /* \"#utility.yul\":7339:7435   */\n      tag_335\n        /* \"#utility.yul\":7432:7433   */\n      0x00\n        /* \"#utility.yul\":7421:7430   */\n      dup4\n        /* \"#utility.yul\":7417:7434   */\n      add\n        /* \"#utility.yul\":7408:7414   */\n      dup5\n        /* \"#utility.yul\":7339:7435   */\n      tag_204\n      jump\t// in\n    tag_335:\n        /* \"#utility.yul\":7170:7442   */\n      swap3\n      swap2\n      pop\n      pop\n      jump\t// out\n        /* \"#utility.yul\":7448:7552   */\n    tag_205:\n        /* \"#utility.yul\":7493:7500   */\n      0x00\n        /* \"#utility.yul\":7522:7546   */\n      tag_337\n        /* \"#utility.yul\":7540:7545   */\n      dup3\n        /* \"#utility.yul\":7522:7546   */\n      tag_194\n      jump\t// in\n    tag_337:\n        /* \"#utility.yul\":7511:7546   */\n      swap1\n      pop\n        /* \"#utility.yul\":7448:7552   */\n      swap2\n      swap1\n      pop\n      jump\t// out\n        /* \"#utility.yul\":7558:7700   */\n    tag_206:\n        /* \"#utility.yul\":7661:7693   */\n      tag_339\n        /* \"#utility.yul\":7687:7692   */\n      dup2\n        /* \"#utility.yul\":7661:7693   */\n      tag_205\n      jump\t// in\n    tag_339:\n        /* \"#utility.yul\":7656:7659   */\n      dup3\n        /* \"#utility.yul\":7649:7694   */\n      mstore\n        /* \"#utility.yul\":7558:7700   */\n      pop\n      pop\n      jump\t// out\n        /* \"#utility.yul\":7706:7960   */\n    tag_81:\n        /* \"#utility.yul\":7815:7819   */\n      0x00\n        /* \"#utility.yul\":7853:7855   */\n      0x20\n        /* \"#utility.yul\":7842:7851   */\n      dup3\n        /* \"#utility.yul\":7838:7856   */\n      add\n        /* \"#utility.yul\":7830:7856   */\n      swap1\n      pop\n        /* \"#utility.yul\":7866:7953   */\n      tag_341\n        /* \"#utility.yul\":7950:7951   */\n      0x00\n        /* \"#utility.yul\":7939:7948   */\n      dup4\n        /* \"#utility.yul\":7935:7952   */\n      add\n        /* \"#utility.yul\":7926:7932   */\n      dup5\n        /* \"#utility.yul\":7866:7953   */\n      tag_206\n      jump\t// in\n    tag_341:\n        /* \"#utility.yul\":7706:7960   */\n      swap3\n      swap2\n      pop\n      pop\n      jump\t// out\n        /* \"#utility.yul\":7966:8084   */\n    tag_207:\n        /* \"#utility.yul\":8053:8077   */\n      tag_343\n        /* \"#utility.yul\":8071:8076   */\n      dup2\n        /* \"#utility.yul\":8053:8077   */\n      tag_195\n      jump\t// in\n    tag_343:\n        /* \"#utility.yul\":8048:8051   */\n      dup3\n        /* \"#utility.yul\":8041:8078   */\n      mstore\n        /* \"#utility.yul\":7966:8084   */\n      pop\n      pop\n      jump\t// out\n        /* \"#utility.yul\":8090:8422   */\n    tag_90:\n        /* \"#utility.yul\":8211:8215   */\n      0x00\n        /* \"#utility.yul\":8249:8251   */\n      0x40\n        /* \"#utility.yul\":8238:8247   */\n      dup3\n        /* \"#utility.yul\":8234:8252   */\n      add\n        /* \"#utility.yul\":8226:8252   */\n      swap1\n      pop\n        /* \"#utility.yul\":8262:8333   */\n      tag_345\n        /* \"#utility.yul\":8330:8331   */\n      0x00\n        /* \"#utility.yul\":8319:8328   */\n      dup4\n        /* \"#utility.yul\":8315:8332   */\n      add\n        /* \"#utility.yul\":8306:8312   */\n      dup6\n        /* \"#utility.yul\":8262:8333   */\n      tag_207\n      jump\t// in\n    tag_345:\n        /* \"#utility.yul\":8343:8415   */\n      tag_346\n        /* \"#utility.yul\":8411:8413   */\n      0x20\n        /* \"#utility.yul\":8400:8409   */\n      dup4\n        /* \"#utility.yul\":8396:8414   */\n      add\n        /* \"#utility.yul\":8387:8393   */\n      dup5\n        /* \"#utility.yul\":8343:8415   */\n      tag_207\n      jump\t// in\n    tag_346:\n        /* \"#utility.yul\":8090:8422   */\n      swap4\n      swap3\n      pop\n      pop\n      pop\n      jump\t// out\n        /* \"#utility.yul\":8428:8597   */\n    tag_208:\n        /* \"#utility.yul\":8512:8523   */\n      0x00\n        /* \"#utility.yul\":8546:8552   */\n      dup3\n        /* \"#utility.yul\":8541:8544   */\n      dup3\n        /* \"#utility.yul\":8534:8553   */\n      mstore\n        /* \"#utility.yul\":8586:8590   */\n      0x20\n        /* \"#utility.yul\":8581:8584   */\n      dup3\n        /* \"#utility.yul\":8577:8591   */\n      add\n        /* \"#utility.yul\":8562:8591   */\n      swap1\n      pop\n        /* \"#utility.yul\":8428:8597   */\n      swap3\n      swap2\n      pop\n      pop\n      jump\t// out\n        /* \"#utility.yul\":8603:8771   */\n    tag_209:\n        /* \"#utility.yul\":8743:8763   */\n      0x4c6f74746572792068617320656e6465642e0000000000000000000000000000\n        /* \"#utility.yul\":8739:8740   */\n      0x00\n        /* \"#utility.yul\":8731:8737   */\n      dup3\n        /* \"#utility.yul\":8727:8741   */\n      add\n        /* \"#utility.yul\":8720:8764   */\n      mstore\n        /* \"#utility.yul\":8603:8771   */\n      pop\n      jump\t// out\n        /* \"#utility.yul\":8777:9143   */\n    tag_210:\n        /* \"#utility.yul\":8919:8922   */\n      0x00\n        /* \"#utility.yul\":8940:9007   */\n      tag_350\n        /* \"#utility.yul\":9004:9006   */\n      0x12\n        /* \"#utility.yul\":8999:9002   */\n      dup4\n        /* \"#utility.yul\":8940:9007   */\n      tag_208\n      jump\t// in\n    tag_350:\n        /* \"#utility.yul\":8933:9007   */\n      swap2\n      pop\n        /* \"#utility.yul\":9016:9109   */\n      tag_351\n        /* \"#utility.yul\":9105:9108   */\n      dup3\n        /* \"#utility.yul\":9016:9109   */\n      tag_209\n      jump\t// in\n    tag_351:\n        /* \"#utility.yul\":9134:9136   */\n      0x20\n        /* \"#utility.yul\":9129:9132   */\n      dup3\n        /* \"#utility.yul\":9125:9137   */\n      add\n        /* \"#utility.yul\":9118:9137   */\n      swap1\n      pop\n        /* \"#utility.yul\":8777:9143   */\n      swap2\n      swap1\n      pop\n      jump\t// out\n        /* \"#utility.yul\":9149:9568   */\n    tag_96:\n        /* \"#utility.yul\":9315:9319   */\n      0x00\n        /* \"#utility.yul\":9353:9355   */\n      0x20\n        /* \"#utility.yul\":9342:9351   */\n      dup3\n        /* \"#utility.yul\":9338:9356   */\n      add\n        /* \"#utility.yul\":9330:9356   */\n      swap1\n      pop\n        /* \"#utility.yul\":9402:9411   */\n      dup2\n        /* \"#utility.yul\":9396:9400   */\n      dup2\n        /* \"#utility.yul\":9392:9412   */\n      sub\n        /* \"#utility.yul\":9388:9389   */\n      0x00\n        /* \"#utility.yul\":9377:9386   */\n      dup4\n        /* \"#utility.yul\":9373:9390   */\n      add\n        /* \"#utility.yul\":9366:9413   */\n      mstore\n        /* \"#utility.yul\":9430:9561   */\n      tag_353\n        /* \"#utility.yul\":9556:9560   */\n      dup2\n        /* \"#utility.yul\":9430:9561   */\n      tag_210\n      jump\t// in\n    tag_353:\n        /* \"#utility.yul\":9422:9561   */\n      swap1\n      pop\n        /* \"#utility.yul\":9149:9568   */\n      swap2\n      swap1\n      pop\n      jump\t// out\n        /* \"#utility.yul\":9574:9737   */\n    tag_211:\n        /* \"#utility.yul\":9714:9729   */\n      0x57726f6e6720416d6f756e742e00000000000000000000000000000000000000\n        /* \"#utility.yul\":9710:9711   */\n      0x00\n        /* \"#utility.yul\":9702:9708   */\n      dup3\n        /* \"#utility.yul\":9698:9712   */\n      add\n        /* \"#utility.yul\":9691:9730   */\n      mstore\n        /* \"#utility.yul\":9574:9737   */\n      pop\n      jump\t// out\n        /* \"#utility.yul\":9743:10109   */\n    tag_212:\n        /* \"#utility.yul\":9885:9888   */\n      0x00\n        /* \"#utility.yul\":9906:9973   */\n      tag_356\n        /* \"#utility.yul\":9970:9972   */\n      0x0d\n        /* \"#utility.yul\":9965:9968   */\n      dup4\n        /* \"#utility.yul\":9906:9973   */\n      tag_208\n      jump\t// in\n    tag_356:\n        /* \"#utility.yul\":9899:9973   */\n      swap2\n      pop\n        /* \"#utility.yul\":9982:10075   */\n      tag_357\n        /* \"#utility.yul\":10071:10074   */\n      dup3\n        /* \"#utility.yul\":9982:10075   */\n      tag_211\n      jump\t// in\n    tag_357:\n        /* \"#utility.yul\":10100:10102   */\n      0x20\n        /* \"#utility.yul\":10095:10098   */\n      dup3\n        /* \"#utility.yul\":10091:10103   */\n      add\n        /* \"#utility.yul\":10084:10103   */\n      swap1\n      pop\n        /* \"#utility.yul\":9743:10109   */\n      swap2\n      swap1\n      pop\n      jump\t// out\n        /* \"#utility.yul\":10115:10534   */\n    tag_99:\n        /* \"#utility.yul\":10281:10285   */\n      0x00\n        /* \"#utility.yul\":10319:10321   */\n      0x20\n        /* \"#utility.yul\":10308:10317   */\n      dup3\n        /* \"#utility.yul\":10304:10322   */\n      add\n        /* \"#utility.yul\":10296:10322   */\n      swap1\n      pop\n        /* \"#utility.yul\":10368:10377   */\n      dup2\n        /* \"#utility.yul\":10362:10366   */\n      dup2\n        /* \"#utility.yul\":10358:10378   */\n      sub\n        /* \"#utility.yul\":10354:10355   */\n      0x00\n        /* \"#utility.yul\":10343:10352   */\n      dup4\n        /* \"#utility.yul\":10339:10356   */\n      add\n        /* \"#utility.yul\":10332:10379   */\n      mstore\n        /* \"#utility.yul\":10396:10527   */\n      tag_359\n        /* \"#utility.yul\":10522:10526   */\n      dup2\n        /* \"#utility.yul\":10396:10527   */\n      tag_212\n      jump\t// in\n    tag_359:\n        /* \"#utility.yul\":10388:10527   */\n      swap1\n      pop\n        /* \"#utility.yul\":10115:10534   */\n      swap2\n      swap1\n      pop\n      jump\t// out\n        /* \"#utility.yul\":10540:10711   */\n    tag_213:\n        /* \"#utility.yul\":10680:10703   */\n      0x54686973206c6f74746572792069732066756c6c2e0000000000000000000000\n        /* \"#utility.yul\":10676:10677   */\n      0x00\n        /* \"#utility.yul\":10668:10674   */\n      dup3\n        /* \"#utility.yul\":10664:10678   */\n      add\n        /* \"#utility.yul\":10657:10704   */\n      mstore\n        /* \"#utility.yul\":10540:10711   */\n      pop\n      jump\t// out\n        /* \"#utility.yul\":10717:11083   */\n    tag_214:\n        /* \"#utility.yul\":10859:10862   */\n      0x00\n        /* \"#utility.yul\":10880:10947   */\n      tag_362\n        /* \"#utility.yul\":10944:10946   */\n      0x15\n        /* \"#utility.yul\":10939:10942   */\n      dup4\n        /* \"#utility.yul\":10880:10947   */\n      tag_208\n      jump\t// in\n    tag_362:\n        /* \"#utility.yul\":10873:10947   */\n      swap2\n      pop\n        /* \"#utility.yul\":10956:11049   */\n      tag_363\n        /* \"#utility.yul\":11045:11048   */\n      dup3\n        /* \"#utility.yul\":10956:11049   */\n      tag_213\n      jump\t// in\n    tag_363:\n        /* \"#utility.yul\":11074:11076   */\n      0x20\n        /* \"#utility.yul\":11069:11072   */\n      dup3\n        /* \"#utility.yul\":11065:11077   */\n      add\n        /* \"#utility.yul\":11058:11077   */\n      swap1\n      pop\n        /* \"#utility.yul\":10717:11083   */\n      swap2\n      swap1\n      pop\n      jump\t// out\n        /* \"#utility.yul\":11089:11508   */\n    tag_102:\n        /* \"#utility.yul\":11255:11259   */\n      0x00\n        /* \"#utility.yul\":11293:11295   */\n      0x20\n        /* \"#utility.yul\":11282:11291   */\n      dup3\n        /* \"#utility.yul\":11278:11296   */\n      add\n        /* \"#utility.yul\":11270:11296   */\n      swap1\n      pop\n        /* \"#utility.yul\":11342:11351   */\n      dup2\n        /* \"#utility.yul\":11336:11340   */\n      dup2\n        /* \"#utility.yul\":11332:11352   */\n      sub\n        /* \"#utility.yul\":11328:11329   */\n      0x00\n        /* \"#utility.yul\":11317:11326   */\n      dup4\n        /* \"#utility.yul\":11313:11330   */\n      add\n        /* \"#utility.yul\":11306:11353   */\n      mstore\n        /* \"#utility.yul\":11370:11501   */\n      tag_365\n        /* \"#utility.yul\":11496:11500   */\n      dup2\n        /* \"#utility.yul\":11370:11501   */\n      tag_214\n      jump\t// in\n    tag_365:\n        /* \"#utility.yul\":11362:11501   */\n      swap1\n      pop\n        /* \"#utility.yul\":11089:11508   */\n      swap2\n      swap1\n      pop\n      jump\t// out\n        /* \"#utility.yul\":11514:11738   */\n    tag_215:\n        /* \"#utility.yul\":11654:11688   */\n      0x596f75206861766520616c7265616479206a6f696e65642074686973206c6f74\n        /* \"#utility.yul\":11650:11651   */\n      0x00\n        /* \"#utility.yul\":11642:11648   */\n      dup3\n        /* \"#utility.yul\":11638:11652   */\n      add\n        /* \"#utility.yul\":11631:11689   */\n      mstore\n        /* \"#utility.yul\":11723:11730   */\n      0x746572792e000000000000000000000000000000000000000000000000000000\n        /* \"#utility.yul\":11718:11720   */\n      0x20\n        /* \"#utility.yul\":11710:11716   */\n      dup3\n        /* \"#utility.yul\":11706:11721   */\n      add\n        /* \"#utility.yul\":11699:11731   */\n      mstore\n        /* \"#utility.yul\":11514:11738   */\n      pop\n      jump\t// out\n        /* \"#utility.yul\":11744:12110   */\n    tag_216:\n        /* \"#utility.yul\":11886:11889   */\n      0x00\n        /* \"#utility.yul\":11907:11974   */\n      tag_368\n        /* \"#utility.yul\":11971:11973   */\n      0x25\n        /* \"#utility.yul\":11966:11969   */\n      dup4\n        /* \"#utility.yul\":11907:11974   */\n      tag_208\n      jump\t// in\n    tag_368:\n        /* \"#utility.yul\":11900:11974   */\n      swap2\n      pop\n        /* \"#utility.yul\":11983:12076   */\n      tag_369\n        /* \"#utility.yul\":12072:12075   */\n      dup3\n        /* \"#utility.yul\":11983:12076   */\n      tag_215\n      jump\t// in\n    tag_369:\n        /* \"#utility.yul\":12101:12103   */\n      0x40\n        /* \"#utility.yul\":12096:12099   */\n      dup3\n        /* \"#utility.yul\":12092:12104   */\n      add\n        /* \"#utility.yul\":12085:12104   */\n      swap1\n      pop\n        /* \"#utility.yul\":11744:12110   */\n      swap2\n      swap1\n      pop\n      jump\t// out\n        /* \"#utility.yul\":12116:12535   */\n    tag_105:\n        /* \"#utility.yul\":12282:12286   */\n      0x00\n        /* \"#utility.yul\":12320:12322   */\n      0x20\n        /* \"#utility.yul\":12309:12318   */\n      dup3\n        /* \"#utility.yul\":12305:12323   */\n      add\n        /* \"#utility.yul\":12297:12323   */\n      swap1\n      pop\n        /* \"#utility.yul\":12369:12378   */\n      dup2\n        /* \"#utility.yul\":12363:12367   */\n      dup2\n        /* \"#utility.yul\":12359:12379   */\n      sub\n        /* \"#utility.yul\":12355:12356   */\n      0x00\n        /* \"#utility.yul\":12344:12353   */\n      dup4\n        /* \"#utility.yul\":12340:12357   */\n      add\n        /* \"#utility.yul\":12333:12380   */\n      mstore\n        /* \"#utility.yul\":12397:12528   */\n      tag_371\n        /* \"#utility.yul\":12523:12527   */\n      dup2\n        /* \"#utility.yul\":12397:12528   */\n      tag_216\n      jump\t// in\n    tag_371:\n        /* \"#utility.yul\":12389:12528   */\n      swap1\n      pop\n        /* \"#utility.yul\":12116:12535   */\n      swap2\n      swap1\n      pop\n      jump\t// out\n        /* \"#utility.yul\":12541:12697   */\n    tag_217:\n        /* \"#utility.yul\":12681:12689   */\n      0x6a6f696e65640000000000000000000000000000000000000000000000000000\n        /* \"#utility.yul\":12677:12678   */\n      0x00\n        /* \"#utility.yul\":12669:12675   */\n      dup3\n        /* \"#utility.yul\":12665:12679   */\n      add\n        /* \"#utility.yul\":12658:12690   */\n      mstore\n        /* \"#utility.yul\":12541:12697   */\n      pop\n      jump\t// out\n        /* \"#utility.yul\":12703:13068   */\n    tag_218:\n        /* \"#utility.yul\":12845:12848   */\n      0x00\n        /* \"#utility.yul\":12866:12932   */\n      tag_374\n        /* \"#utility.yul\":12930:12931   */\n      0x06\n        /* \"#utility.yul\":12925:12928   */\n      dup4\n        /* \"#utility.yul\":12866:12932   */\n      tag_208\n      jump\t// in\n    tag_374:\n        /* \"#utility.yul\":12859:12932   */\n      swap2\n      pop\n        /* \"#utility.yul\":12941:13034   */\n      tag_375\n        /* \"#utility.yul\":13030:13033   */\n      dup3\n        /* \"#utility.yul\":12941:13034   */\n      tag_217\n      jump\t// in\n    tag_375:\n        /* \"#utility.yul\":13059:13061   */\n      0x20\n        /* \"#utility.yul\":13054:13057   */\n      dup3\n        /* \"#utility.yul\":13050:13062   */\n      add\n        /* \"#utility.yul\":13043:13062   */\n      swap1\n      pop\n        /* \"#utility.yul\":12703:13068   */\n      swap2\n      swap1\n      pop\n      jump\t// out\n        /* \"#utility.yul\":13074:13603   */\n    tag_108:\n        /* \"#utility.yul\":13268:13272   */\n      0x00\n        /* \"#utility.yul\":13306:13308   */\n      0x40\n        /* \"#utility.yul\":13295:13304   */\n      dup3\n        /* \"#utility.yul\":13291:13309   */\n      add\n        /* \"#utility.yul\":13283:13309   */\n      swap1\n      pop\n        /* \"#utility.yul\":13319:13390   */\n      tag_377\n        /* \"#utility.yul\":13387:13388   */\n      0x00\n        /* \"#utility.yul\":13376:13385   */\n      dup4\n        /* \"#utility.yul\":13372:13389   */\n      add\n        /* \"#utility.yul\":13363:13369   */\n      dup5\n        /* \"#utility.yul\":13319:13390   */\n      tag_207\n      jump\t// in\n    tag_377:\n        /* \"#utility.yul\":13437:13446   */\n      dup2\n        /* \"#utility.yul\":13431:13435   */\n      dup2\n        /* \"#utility.yul\":13427:13447   */\n      sub\n        /* \"#utility.yul\":13422:13424   */\n      0x20\n        /* \"#utility.yul\":13411:13420   */\n      dup4\n        /* \"#utility.yul\":13407:13425   */\n      add\n        /* \"#utility.yul\":13400:13448   */\n      mstore\n        /* \"#utility.yul\":13465:13596   */\n      tag_378\n        /* \"#utility.yul\":13591:13595   */\n      dup2\n        /* \"#utility.yul\":13465:13596   */\n      tag_218\n      jump\t// in\n    tag_378:\n        /* \"#utility.yul\":13457:13596   */\n      swap1\n      pop\n        /* \"#utility.yul\":13074:13603   */\n      swap3\n      swap2\n      pop\n      pop\n      jump\t// out\n        /* \"#utility.yul\":13609:13780   */\n    tag_219:\n        /* \"#utility.yul\":13749:13772   */\n      0x596f7520617265206e6f742074686520686f73742e0000000000000000000000\n        /* \"#utility.yul\":13745:13746   */\n      0x00\n        /* \"#utility.yul\":13737:13743   */\n      dup3\n        /* \"#utility.yul\":13733:13747   */\n      add\n        /* \"#utility.yul\":13726:13773   */\n      mstore\n        /* \"#utility.yul\":13609:13780   */\n      pop\n      jump\t// out\n        /* \"#utility.yul\":13786:14152   */\n    tag_220:\n        /* \"#utility.yul\":13928:13931   */\n      0x00\n        /* \"#utility.yul\":13949:14016   */\n      tag_381\n        /* \"#utility.yul\":14013:14015   */\n      0x15\n        /* \"#utility.yul\":14008:14011   */\n      dup4\n        /* \"#utility.yul\":13949:14016   */\n      tag_208\n      jump\t// in\n    tag_381:\n        /* \"#utility.yul\":13942:14016   */\n      swap2\n      pop\n        /* \"#utility.yul\":14025:14118   */\n      tag_382\n        /* \"#utility.yul\":14114:14117   */\n      dup3\n        /* \"#utility.yul\":14025:14118   */\n      tag_219\n      jump\t// in\n    tag_382:\n        /* \"#utility.yul\":14143:14145   */\n      0x20\n        /* \"#utility.yul\":14138:14141   */\n      dup3\n        /* \"#utility.yul\":14134:14146   */\n      add\n        /* \"#utility.yul\":14127:14146   */\n      swap1\n      pop\n        /* \"#utility.yul\":13786:14152   */\n      swap2\n      swap1\n      pop\n      jump\t// out\n        /* \"#utility.yul\":14158:14577   */\n    tag_112:\n        /* \"#utility.yul\":14324:14328   */\n      0x00\n        /* \"#utility.yul\":14362:14364   */\n      0x20\n        /* \"#utility.yul\":14351:14360   */\n      dup3\n        /* \"#utility.yul\":14347:14365   */\n      add\n        /* \"#utility.yul\":14339:14365   */\n      swap1\n      pop\n        /* \"#utility.yul\":14411:14420   */\n      dup2\n        /* \"#utility.yul\":14405:14409   */\n      dup2\n        /* \"#utility.yul\":14401:14421   */\n      sub\n        /* \"#utility.yul\":14397:14398   */\n      0x00\n        /* \"#utility.yul\":14386:14395   */\n      dup4\n        /* \"#utility.yul\":14382:14399   */\n      add\n        /* \"#utility.yul\":14375:14422   */\n      mstore\n        /* \"#utility.yul\":14439:14570   */\n      tag_384\n        /* \"#utility.yul\":14565:14569   */\n      dup2\n        /* \"#utility.yul\":14439:14570   */\n      tag_220\n      jump\t// in\n    tag_384:\n        /* \"#utility.yul\":14431:14570   */\n      swap1\n      pop\n        /* \"#utility.yul\":14158:14577   */\n      swap2\n      swap1\n      pop\n      jump\t// out\n        /* \"#utility.yul\":14583:14758   */\n    tag_221:\n        /* \"#utility.yul\":14723:14750   */\n      0x4c6f74746572792068617320616c726561647920656e64656400000000000000\n        /* \"#utility.yul\":14719:14720   */\n      0x00\n        /* \"#utility.yul\":14711:14717   */\n      dup3\n        /* \"#utility.yul\":14707:14721   */\n      add\n        /* \"#utility.yul\":14700:14751   */\n      mstore\n        /* \"#utility.yul\":14583:14758   */\n      pop\n      jump\t// out\n        /* \"#utility.yul\":14764:15130   */\n    tag_222:\n        /* \"#utility.yul\":14906:14909   */\n      0x00\n        /* \"#utility.yul\":14927:14994   */\n      tag_387\n        /* \"#utility.yul\":14991:14993   */\n      0x19\n        /* \"#utility.yul\":14986:14989   */\n      dup4\n        /* \"#utility.yul\":14927:14994   */\n      tag_208\n      jump\t// in\n    tag_387:\n        /* \"#utility.yul\":14920:14994   */\n      swap2\n      pop\n        /* \"#utility.yul\":15003:15096   */\n      tag_388\n        /* \"#utility.yul\":15092:15095   */\n      dup3\n        /* \"#utility.yul\":15003:15096   */\n      tag_221\n      jump\t// in\n    tag_388:\n        /* \"#utility.yul\":15121:15123   */\n      0x20\n        /* \"#utility.yul\":15116:15119   */\n      dup3\n        /* \"#utility.yul\":15112:15124   */\n      add\n        /* \"#utility.yul\":15105:15124   */\n      swap1\n      pop\n        /* \"#utility.yul\":14764:15130   */\n      swap2\n      swap1\n      pop\n      jump\t// out\n        /* \"#utility.yul\":15136:15555   */\n    tag_116:\n        /* \"#utility.yul\":15302:15306   */\n      0x00\n        /* \"#utility.yul\":15340:15342   */\n      0x20\n        /* \"#utility.yul\":15329:15338   */\n      dup3\n        /* \"#utility.yul\":15325:15343   */\n      add\n        /* \"#utility.yul\":15317:15343   */\n      swap1\n      pop\n        /* \"#utility.yul\":15389:15398   */\n      dup2\n        /* \"#utility.yul\":15383:15387   */\n      dup2\n        /* \"#utility.yul\":15379:15399   */\n      sub\n        /* \"#utility.yul\":15375:15376   */\n      0x00\n        /* \"#utility.yul\":15364:15373   */\n      dup4\n        /* \"#utility.yul\":15360:15377   */\n      add\n        /* \"#utility.yul\":15353:15400   */\n      mstore\n        /* \"#utility.yul\":15417:15548   */\n      tag_390\n        /* \"#utility.yul\":15543:15547   */\n      dup2\n        /* \"#utility.yul\":15417:15548   */\n      tag_222\n      jump\t// in\n    tag_390:\n        /* \"#utility.yul\":15409:15548   */\n      swap1\n      pop\n        /* \"#utility.yul\":15136:15555   */\n      swap2\n      swap1\n      pop\n      jump\t// out\n        /* \"#utility.yul\":15561:15797   */\n    tag_223:\n        /* \"#utility.yul\":15701:15735   */\n      0x546865726520617265206e6f7420656e6f7567682070656f706c6520746f2073\n        /* \"#utility.yul\":15697:15698   */\n      0x00\n        /* \"#utility.yul\":15689:15695   */\n      dup3\n        /* \"#utility.yul\":15685:15699   */\n      add\n        /* \"#utility.yul\":15678:15736   */\n      mstore\n        /* \"#utility.yul\":15770:15789   */\n      0x746172742074686973206c6f7474657279000000000000000000000000000000\n        /* \"#utility.yul\":15765:15767   */\n      0x20\n        /* \"#utility.yul\":15757:15763   */\n      dup3\n        /* \"#utility.yul\":15753:15768   */\n      add\n        /* \"#utility.yul\":15746:15790   */\n      mstore\n        /* \"#utility.yul\":15561:15797   */\n      pop\n      jump\t// out\n        /* \"#utility.yul\":15803:16169   */\n    tag_224:\n        /* \"#utility.yul\":15945:15948   */\n      0x00\n        /* \"#utility.yul\":15966:16033   */\n      tag_393\n        /* \"#utility.yul\":16030:16032   */\n      0x31\n        /* \"#utility.yul\":16025:16028   */\n      dup4\n        /* \"#utility.yul\":15966:16033   */\n      tag_208\n      jump\t// in\n    tag_393:\n        /* \"#utility.yul\":15959:16033   */\n      swap2\n      pop\n        /* \"#utility.yul\":16042:16135   */\n      tag_394\n        /* \"#utility.yul\":16131:16134   */\n      dup3\n        /* \"#utility.yul\":16042:16135   */\n      tag_223\n      jump\t// in\n    tag_394:\n        /* \"#utility.yul\":16160:16162   */\n      0x40\n        /* \"#utility.yul\":16155:16158   */\n      dup3\n        /* \"#utility.yul\":16151:16163   */\n      add\n        /* \"#utility.yul\":16144:16163   */\n      swap1\n      pop\n        /* \"#utility.yul\":15803:16169   */\n      swap2\n      swap1\n      pop\n      jump\t// out\n        /* \"#utility.yul\":16175:16594   */\n    tag_119:\n        /* \"#utility.yul\":16341:16345   */\n      0x00\n        /* \"#utility.yul\":16379:16381   */\n      0x20\n        /* \"#utility.yul\":16368:16377   */\n      dup3\n        /* \"#utility.yul\":16364:16382   */\n      add\n        /* \"#utility.yul\":16356:16382   */\n      swap1\n      pop\n        /* \"#utility.yul\":16428:16437   */\n      dup2\n        /* \"#utility.yul\":16422:16426   */\n      dup2\n        /* \"#utility.yul\":16418:16438   */\n      sub\n        /* \"#utility.yul\":16414:16415   */\n      0x00\n        /* \"#utility.yul\":16403:16412   */\n      dup4\n        /* \"#utility.yul\":16399:16416   */\n      add\n        /* \"#utility.yul\":16392:16439   */\n      mstore\n        /* \"#utility.yul\":16456:16587   */\n      tag_396\n        /* \"#utility.yul\":16582:16586   */\n      dup2\n        /* \"#utility.yul\":16456:16587   */\n      tag_224\n      jump\t// in\n    tag_396:\n        /* \"#utility.yul\":16448:16587   */\n      swap1\n      pop\n        /* \"#utility.yul\":16175:16594   */\n      swap2\n      swap1\n      pop\n      jump\t// out\n        /* \"#utility.yul\":16600:16765   */\n    tag_225:\n        /* \"#utility.yul\":16740:16757   */\n      0x4e6f207061727469636970616e74730000000000000000000000000000000000\n        /* \"#utility.yul\":16736:16737   */\n      0x00\n        /* \"#utility.yul\":16728:16734   */\n      dup3\n        /* \"#utility.yul\":16724:16738   */\n      add\n        /* \"#utility.yul\":16717:16758   */\n      mstore\n        /* \"#utility.yul\":16600:16765   */\n      pop\n      jump\t// out\n        /* \"#utility.yul\":16771:17137   */\n    tag_226:\n        /* \"#utility.yul\":16913:16916   */\n      0x00\n        /* \"#utility.yul\":16934:17001   */\n      tag_399\n        /* \"#utility.yul\":16998:17000   */\n      0x0f\n        /* \"#utility.yul\":16993:16996   */\n      dup4\n        /* \"#utility.yul\":16934:17001   */\n      tag_208\n      jump\t// in\n    tag_399:\n        /* \"#utility.yul\":16927:17001   */\n      swap2\n      pop\n        /* \"#utility.yul\":17010:17103   */\n      tag_400\n        /* \"#utility.yul\":17099:17102   */\n      dup3\n        /* \"#utility.yul\":17010:17103   */\n      tag_225\n      jump\t// in\n    tag_400:\n        /* \"#utility.yul\":17128:17130   */\n      0x20\n        /* \"#utility.yul\":17123:17126   */\n      dup3\n        /* \"#utility.yul\":17119:17131   */\n      add\n        /* \"#utility.yul\":17112:17131   */\n      swap1\n      pop\n        /* \"#utility.yul\":16771:17137   */\n      swap2\n      swap1\n      pop\n      jump\t// out\n        /* \"#utility.yul\":17143:17562   */\n    tag_122:\n        /* \"#utility.yul\":17309:17313   */\n      0x00\n        /* \"#utility.yul\":17347:17349   */\n      0x20\n        /* \"#utility.yul\":17336:17345   */\n      dup3\n        /* \"#utility.yul\":17332:17350   */\n      add\n        /* \"#utility.yul\":17324:17350   */\n      swap1\n      pop\n        /* \"#utility.yul\":17396:17405   */\n      dup2\n        /* \"#utility.yul\":17390:17394   */\n      dup2\n        /* \"#utility.yul\":17386:17406   */\n      sub\n        /* \"#utility.yul\":17382:17383   */\n      0x00\n        /* \"#utility.yul\":17371:17380   */\n      dup4\n        /* \"#utility.yul\":17367:17384   */\n      add\n        /* \"#utility.yul\":17360:17407   */\n      mstore\n        /* \"#utility.yul\":17424:17555   */\n      tag_402\n        /* \"#utility.yul\":17550:17554   */\n      dup2\n        /* \"#utility.yul\":17424:17555   */\n      tag_226\n      jump\t// in\n    tag_402:\n        /* \"#utility.yul\":17416:17555   */\n      swap1\n      pop\n        /* \"#utility.yul\":17143:17562   */\n      swap2\n      swap1\n      pop\n      jump\t// out\n        /* \"#utility.yul\":17568:17743   */\n    tag_227:\n        /* \"#utility.yul\":17708:17735   */\n      0x4e6f2072616e646f6d20776f7264732072656365697665642e00000000000000\n        /* \"#utility.yul\":17704:17705   */\n      0x00\n        /* \"#utility.yul\":17696:17702   */\n      dup3\n        /* \"#utility.yul\":17692:17706   */\n      add\n        /* \"#utility.yul\":17685:17736   */\n      mstore\n        /* \"#utility.yul\":17568:17743   */\n      pop\n      jump\t// out\n        /* \"#utility.yul\":17749:18115   */\n    tag_228:\n        /* \"#utility.yul\":17891:17894   */\n      0x00\n        /* \"#utility.yul\":17912:17979   */\n      tag_405\n        /* \"#utility.yul\":17976:17978   */\n      0x19\n        /* \"#utility.yul\":17971:17974   */\n      dup4\n        /* \"#utility.yul\":17912:17979   */\n      tag_208\n      jump\t// in\n    tag_405:\n        /* \"#utility.yul\":17905:17979   */\n      swap2\n      pop\n        /* \"#utility.yul\":17988:18081   */\n      tag_406\n        /* \"#utility.yul\":18077:18080   */\n      dup3\n        /* \"#utility.yul\":17988:18081   */\n      tag_227\n      jump\t// in\n    tag_406:\n        /* \"#utility.yul\":18106:18108   */\n      0x20\n        /* \"#utility.yul\":18101:18104   */\n      dup3\n        /* \"#utility.yul\":18097:18109   */\n      add\n        /* \"#utility.yul\":18090:18109   */\n      swap1\n      pop\n        /* \"#utility.yul\":17749:18115   */\n      swap2\n      swap1\n      pop\n      jump\t// out\n        /* \"#utility.yul\":18121:18540   */\n    tag_131:\n        /* \"#utility.yul\":18287:18291   */\n      0x00\n        /* \"#utility.yul\":18325:18327   */\n      0x20\n        /* \"#utility.yul\":18314:18323   */\n      dup3\n        /* \"#utility.yul\":18310:18328   */\n      add\n        /* \"#utility.yul\":18302:18328   */\n      swap1\n      pop\n        /* \"#utility.yul\":18374:18383   */\n      dup2\n        /* \"#utility.yul\":18368:18372   */\n      dup2\n        /* \"#utility.yul\":18364:18384   */\n      sub\n        /* \"#utility.yul\":18360:18361   */\n      0x00\n        /* \"#utility.yul\":18349:18358   */\n      dup4\n        /* \"#utility.yul\":18345:18362   */\n      add\n        /* \"#utility.yul\":18338:18385   */\n      mstore\n        /* \"#utility.yul\":18402:18533   */\n      tag_408\n        /* \"#utility.yul\":18528:18532   */\n      dup2\n        /* \"#utility.yul\":18402:18533   */\n      tag_228\n      jump\t// in\n    tag_408:\n        /* \"#utility.yul\":18394:18533   */\n      swap1\n      pop\n        /* \"#utility.yul\":18121:18540   */\n      swap2\n      swap1\n      pop\n      jump\t// out\n        /* \"#utility.yul\":18546:18712   */\n    tag_229:\n        /* \"#utility.yul\":18686:18704   */\n      0x4e6f207061727469636970616e74732e00000000000000000000000000000000\n        /* \"#utility.yul\":18682:18683   */\n      0x00\n        /* \"#utility.yul\":18674:18680   */\n      dup3\n        /* \"#utility.yul\":18670:18684   */\n      add\n        /* \"#utility.yul\":18663:18705   */\n      mstore\n        /* \"#utility.yul\":18546:18712   */\n      pop\n      jump\t// out\n        /* \"#utility.yul\":18718:19084   */\n    tag_230:\n        /* \"#utility.yul\":18860:18863   */\n      0x00\n        /* \"#utility.yul\":18881:18948   */\n      tag_411\n        /* \"#utility.yul\":18945:18947   */\n      0x10\n        /* \"#utility.yul\":18940:18943   */\n      dup4\n        /* \"#utility.yul\":18881:18948   */\n      tag_208\n      jump\t// in\n    tag_411:\n        /* \"#utility.yul\":18874:18948   */\n      swap2\n      pop\n        /* \"#utility.yul\":18957:19050   */\n      tag_412\n        /* \"#utility.yul\":19046:19049   */\n      dup3\n        /* \"#utility.yul\":18957:19050   */\n      tag_229\n      jump\t// in\n    tag_412:\n        /* \"#utility.yul\":19075:19077   */\n      0x20\n        /* \"#utility.yul\":19070:19073   */\n      dup3\n        /* \"#utility.yul\":19066:19078   */\n      add\n        /* \"#utility.yul\":19059:19078   */\n      swap1\n      pop\n        /* \"#utility.yul\":18718:19084   */\n      swap2\n      swap1\n      pop\n      jump\t// out\n        /* \"#utility.yul\":19090:19509   */\n    tag_134:\n        /* \"#utility.yul\":19256:19260   */\n      0x00\n        /* \"#utility.yul\":19294:19296   */\n      0x20\n        /* \"#utility.yul\":19283:19292   */\n      dup3\n        /* \"#utility.yul\":19279:19297   */\n      add\n        /* \"#utility.yul\":19271:19297   */\n      swap1\n      pop\n        /* \"#utility.yul\":19343:19352   */\n      dup2\n        /* \"#utility.yul\":19337:19341   */\n      dup2\n        /* \"#utility.yul\":19333:19353   */\n      sub\n        /* \"#utility.yul\":19329:19330   */\n      0x00\n        /* \"#utility.yul\":19318:19327   */\n      dup4\n        /* \"#utility.yul\":19314:19331   */\n      add\n        /* \"#utility.yul\":19307:19354   */\n      mstore\n        /* \"#utility.yul\":19371:19502   */\n      tag_414\n        /* \"#utility.yul\":19497:19501   */\n      dup2\n        /* \"#utility.yul\":19371:19502   */\n      tag_230\n      jump\t// in\n    tag_414:\n        /* \"#utility.yul\":19363:19502   */\n      swap1\n      pop\n        /* \"#utility.yul\":19090:19509   */\n      swap2\n      swap1\n      pop\n      jump\t// out\n        /* \"#utility.yul\":19515:19695   */\n    tag_137:\n        /* \"#utility.yul\":19563:19640   */\n      0x4e487b7100000000000000000000000000000000000000000000000000000000\n        /* \"#utility.yul\":19560:19561   */\n      0x00\n        /* \"#utility.yul\":19553:19641   */\n      mstore\n        /* \"#utility.yul\":19660:19664   */\n      0x32\n        /* \"#utility.yul\":19657:19658   */\n      0x04\n        /* \"#utility.yul\":19650:19665   */\n      mstore\n        /* \"#utility.yul\":19684:19688   */\n      0x24\n        /* \"#utility.yul\":19681:19682   */\n      0x00\n        /* \"#utility.yul\":19674:19689   */\n      revert\n        /* \"#utility.yul\":19701:20029   */\n    tag_141:\n        /* \"#utility.yul\":19820:19824   */\n      0x00\n        /* \"#utility.yul\":19858:19860   */\n      0x40\n        /* \"#utility.yul\":19847:19856   */\n      dup3\n        /* \"#utility.yul\":19843:19861   */\n      add\n        /* \"#utility.yul\":19835:19861   */\n      swap1\n      pop\n        /* \"#utility.yul\":19871:19942   */\n      tag_417\n        /* \"#utility.yul\":19939:19940   */\n      0x00\n        /* \"#utility.yul\":19928:19937   */\n      dup4\n        /* \"#utility.yul\":19924:19941   */\n      add\n        /* \"#utility.yul\":19915:19921   */\n      dup6\n        /* \"#utility.yul\":19871:19942   */\n      tag_207\n      jump\t// in\n    tag_417:\n        /* \"#utility.yul\":19952:20022   */\n      tag_418\n        /* \"#utility.yul\":20018:20020   */\n      0x20\n        /* \"#utility.yul\":20007:20016   */\n      dup4\n        /* \"#utility.yul\":20003:20021   */\n      add\n        /* \"#utility.yul\":19994:20000   */\n      dup5\n        /* \"#utility.yul\":19952:20022   */\n      tag_179\n      jump\t// in\n    tag_418:\n        /* \"#utility.yul\":19701:20029   */\n      swap4\n      swap3\n      pop\n      pop\n      pop\n      jump\t// out\n        /* \"#utility.yul\":20035:20213   */\n    tag_231:\n        /* \"#utility.yul\":20175:20205   */\n      0x4661696c656420746f2073656e64207072697a6520616d6f756e742e00000000\n        /* \"#utility.yul\":20171:20172   */\n      0x00\n        /* \"#utility.yul\":20163:20169   */\n      dup3\n        /* \"#utility.yul\":20159:20173   */\n      add\n        /* \"#utility.yul\":20152:20206   */\n      mstore\n        /* \"#utility.yul\":20035:20213   */\n      pop\n      jump\t// out\n        /* \"#utility.yul\":20219:20585   */\n    tag_232:\n        /* \"#utility.yul\":20361:20364   */\n      0x00\n        /* \"#utility.yul\":20382:20449   */\n      tag_421\n        /* \"#utility.yul\":20446:20448   */\n      0x1c\n        /* \"#utility.yul\":20441:20444   */\n      dup4\n        /* \"#utility.yul\":20382:20449   */\n      tag_208\n      jump\t// in\n    tag_421:\n        /* \"#utility.yul\":20375:20449   */\n      swap2\n      pop\n        /* \"#utility.yul\":20458:20551   */\n      tag_422\n        /* \"#utility.yul\":20547:20550   */\n      dup3\n        /* \"#utility.yul\":20458:20551   */\n      tag_231\n      jump\t// in\n    tag_422:\n        /* \"#utility.yul\":20576:20578   */\n      0x20\n        /* \"#utility.yul\":20571:20574   */\n      dup3\n        /* \"#utility.yul\":20567:20579   */\n      add\n        /* \"#utility.yul\":20560:20579   */\n      swap1\n      pop\n        /* \"#utility.yul\":20219:20585   */\n      swap2\n      swap1\n      pop\n      jump\t// out\n        /* \"#utility.yul\":20591:21010   */\n    tag_144:\n        /* \"#utility.yul\":20757:20761   */\n      0x00\n        /* \"#utility.yul\":20795:20797   */\n      0x20\n        /* \"#utility.yul\":20784:20793   */\n      dup3\n        /* \"#utility.yul\":20780:20798   */\n      add\n        /* \"#utility.yul\":20772:20798   */\n      swap1\n      pop\n        /* \"#utility.yul\":20844:20853   */\n      dup2\n        /* \"#utility.yul\":20838:20842   */\n      dup2\n        /* \"#utility.yul\":20834:20854   */\n      sub\n        /* \"#utility.yul\":20830:20831   */\n      0x00\n        /* \"#utility.yul\":20819:20828   */\n      dup4\n        /* \"#utility.yul\":20815:20832   */\n      add\n        /* \"#utility.yul\":20808:20855   */\n      mstore\n        /* \"#utility.yul\":20872:21003   */\n      tag_424\n        /* \"#utility.yul\":20998:21002   */\n      dup2\n        /* \"#utility.yul\":20872:21003   */\n      tag_232\n      jump\t// in\n    tag_424:\n        /* \"#utility.yul\":20864:21003   */\n      swap1\n      pop\n        /* \"#utility.yul\":20591:21010   */\n      swap2\n      swap1\n      pop\n      jump\t// out\n        /* \"#utility.yul\":21016:21115   */\n    tag_233:\n        /* \"#utility.yul\":21087:21108   */\n      tag_426\n        /* \"#utility.yul\":21102:21107   */\n      dup2\n        /* \"#utility.yul\":21087:21108   */\n      tag_176\n      jump\t// in\n    tag_426:\n        /* \"#utility.yul\":21082:21085   */\n      dup3\n        /* \"#utility.yul\":21075:21109   */\n      mstore\n        /* \"#utility.yul\":21016:21115   */\n      pop\n      pop\n      jump\t// out\n        /* \"#utility.yul\":21201:21543   */\n    tag_234:\n        /* \"#utility.yul\":21354:21358   */\n      0x20\n        /* \"#utility.yul\":21349:21352   */\n      dup3\n        /* \"#utility.yul\":21345:21359   */\n      add\n        /* \"#utility.yul\":21450:21454   */\n      0x00\n        /* \"#utility.yul\":21443:21448   */\n      dup3\n        /* \"#utility.yul\":21439:21455   */\n      add\n        /* \"#utility.yul\":21433:21456   */\n      mload\n        /* \"#utility.yul\":21469:21526   */\n      tag_428\n        /* \"#utility.yul\":21520:21524   */\n      0x00\n        /* \"#utility.yul\":21515:21518   */\n      dup6\n        /* \"#utility.yul\":21511:21525   */\n      add\n        /* \"#utility.yul\":21497:21509   */\n      dup3\n        /* \"#utility.yul\":21469:21526   */\n      tag_233\n      jump\t// in\n    tag_428:\n        /* \"#utility.yul\":21369:21536   */\n      pop\n        /* \"#utility.yul\":21323:21543   */\n      pop\n        /* \"#utility.yul\":21201:21543   */\n      pop\n      pop\n      jump\t// out\n        /* \"#utility.yul\":21549:21883   */\n    tag_149:\n        /* \"#utility.yul\":21698:21702   */\n      0x00\n        /* \"#utility.yul\":21736:21738   */\n      0x20\n        /* \"#utility.yul\":21725:21734   */\n      dup3\n        /* \"#utility.yul\":21721:21739   */\n      add\n        /* \"#utility.yul\":21713:21739   */\n      swap1\n      pop\n        /* \"#utility.yul\":21749:21876   */\n      tag_430\n        /* \"#utility.yul\":21873:21874   */\n      0x00\n        /* \"#utility.yul\":21862:21871   */\n      dup4\n        /* \"#utility.yul\":21858:21875   */\n      add\n        /* \"#utility.yul\":21849:21855   */\n      dup5\n        /* \"#utility.yul\":21749:21876   */\n      tag_234\n      jump\t// in\n    tag_430:\n        /* \"#utility.yul\":21549:21883   */\n      swap3\n      swap2\n      pop\n      pop\n      jump\t// out\n        /* \"#utility.yul\":21889:21982   */\n    tag_235:\n        /* \"#utility.yul\":21925:21932   */\n      0x00\n        /* \"#utility.yul\":21965:21975   */\n      0xffffffff\n        /* \"#utility.yul\":21958:21963   */\n      dup3\n        /* \"#utility.yul\":21954:21976   */\n      and\n        /* \"#utility.yul\":21943:21976   */\n      swap1\n      pop\n        /* \"#utility.yul\":21889:21982   */\n      swap2\n      swap1\n      pop\n      jump\t// out\n        /* \"#utility.yul\":21988:22103   */\n    tag_236:\n        /* \"#utility.yul\":22073:22096   */\n      tag_433\n        /* \"#utility.yul\":22090:22095   */\n      dup2\n        /* \"#utility.yul\":22073:22096   */\n      tag_235\n      jump\t// in\n    tag_433:\n        /* \"#utility.yul\":22068:22071   */\n      dup3\n        /* \"#utility.yul\":22061:22097   */\n      mstore\n        /* \"#utility.yul\":21988:22103   */\n      pop\n      pop\n      jump\t// out\n        /* \"#utility.yul\":22109:22433   */\n    tag_152:\n        /* \"#utility.yul\":22226:22230   */\n      0x00\n        /* \"#utility.yul\":22264:22266   */\n      0x40\n        /* \"#utility.yul\":22253:22262   */\n      dup3\n        /* \"#utility.yul\":22249:22267   */\n      add\n        /* \"#utility.yul\":22241:22267   */\n      swap1\n      pop\n        /* \"#utility.yul\":22277:22346   */\n      tag_435\n        /* \"#utility.yul\":22343:22344   */\n      0x00\n        /* \"#utility.yul\":22332:22341   */\n      dup4\n        /* \"#utility.yul\":22328:22345   */\n      add\n        /* \"#utility.yul\":22319:22325   */\n      dup6\n        /* \"#utility.yul\":22277:22346   */\n      tag_236\n      jump\t// in\n    tag_435:\n        /* \"#utility.yul\":22356:22426   */\n      tag_436\n        /* \"#utility.yul\":22422:22424   */\n      0x20\n        /* \"#utility.yul\":22411:22420   */\n      dup4\n        /* \"#utility.yul\":22407:22425   */\n      add\n        /* \"#utility.yul\":22398:22404   */\n      dup5\n        /* \"#utility.yul\":22356:22426   */\n      tag_236\n      jump\t// in\n    tag_436:\n        /* \"#utility.yul\":22109:22433   */\n      swap4\n      swap3\n      pop\n      pop\n      pop\n      jump\t// out\n        /* \"#utility.yul\":22439:22582   */\n    tag_237:\n        /* \"#utility.yul\":22496:22501   */\n      0x00\n        /* \"#utility.yul\":22527:22533   */\n      dup2\n        /* \"#utility.yul\":22521:22534   */\n      mload\n        /* \"#utility.yul\":22512:22534   */\n      swap1\n      pop\n        /* \"#utility.yul\":22543:22576   */\n      tag_438\n        /* \"#utility.yul\":22570:22575   */\n      dup2\n        /* \"#utility.yul\":22543:22576   */\n      tag_183\n      jump\t// in\n    tag_438:\n        /* \"#utility.yul\":22439:22582   */\n      swap3\n      swap2\n      pop\n      pop\n      jump\t// out\n        /* \"#utility.yul\":22588:22939   */\n    tag_156:\n        /* \"#utility.yul\":22658:22664   */\n      0x00\n        /* \"#utility.yul\":22707:22709   */\n      0x20\n        /* \"#utility.yul\":22695:22704   */\n      dup3\n        /* \"#utility.yul\":22686:22693   */\n      dup5\n        /* \"#utility.yul\":22682:22705   */\n      sub\n        /* \"#utility.yul\":22678:22710   */\n      slt\n        /* \"#utility.yul\":22675:22794   */\n      iszero\n      tag_440\n      jumpi\n        /* \"#utility.yul\":22713:22792   */\n      tag_441\n      tag_181\n      jump\t// in\n    tag_441:\n        /* \"#utility.yul\":22675:22794   */\n    tag_440:\n        /* \"#utility.yul\":22833:22834   */\n      0x00\n        /* \"#utility.yul\":22858:22922   */\n      tag_442\n        /* \"#utility.yul\":22914:22921   */\n      dup5\n        /* \"#utility.yul\":22905:22911   */\n      dup3\n        /* \"#utility.yul\":22894:22903   */\n      dup6\n        /* \"#utility.yul\":22890:22912   */\n      add\n        /* \"#utility.yul\":22858:22922   */\n      tag_237\n      jump\t// in\n    tag_442:\n        /* \"#utility.yul\":22848:22922   */\n      swap2\n      pop\n        /* \"#utility.yul\":22804:22932   */\n      pop\n        /* \"#utility.yul\":22588:22939   */\n      swap3\n      swap2\n      pop\n      pop\n      jump\t// out\n        /* \"#utility.yul\":22945:23034   */\n    tag_238:\n        /* \"#utility.yul\":22981:22988   */\n      0x00\n        /* \"#utility.yul\":23021:23027   */\n      0xffff\n        /* \"#utility.yul\":23014:23019   */\n      dup3\n        /* \"#utility.yul\":23010:23028   */\n      and\n        /* \"#utility.yul\":22999:23028   */\n      swap1\n      pop\n        /* \"#utility.yul\":22945:23034   */\n      swap2\n      swap1\n      pop\n      jump\t// out\n        /* \"#utility.yul\":23040:23155   */\n    tag_239:\n        /* \"#utility.yul\":23125:23148   */\n      tag_445\n        /* \"#utility.yul\":23142:23147   */\n      dup2\n        /* \"#utility.yul\":23125:23148   */\n      tag_238\n      jump\t// in\n    tag_445:\n        /* \"#utility.yul\":23120:23123   */\n      dup3\n        /* \"#utility.yul\":23113:23149   */\n      mstore\n        /* \"#utility.yul\":23040:23155   */\n      pop\n      pop\n      jump\t// out\n        /* \"#utility.yul\":23161:23259   */\n    tag_240:\n        /* \"#utility.yul\":23212:23218   */\n      0x00\n        /* \"#utility.yul\":23246:23251   */\n      dup2\n        /* \"#utility.yul\":23240:23252   */\n      mload\n        /* \"#utility.yul\":23230:23252   */\n      swap1\n      pop\n        /* \"#utility.yul\":23161:23259   */\n      swap2\n      swap1\n      pop\n      jump\t// out\n        /* \"#utility.yul\":23265:23433   */\n    tag_241:\n        /* \"#utility.yul\":23348:23359   */\n      0x00\n        /* \"#utility.yul\":23382:23388   */\n      dup3\n        /* \"#utility.yul\":23377:23380   */\n      dup3\n        /* \"#utility.yul\":23370:23389   */\n      mstore\n        /* \"#utility.yul\":23422:23426   */\n      0x20\n        /* \"#utility.yul\":23417:23420   */\n      dup3\n        /* \"#utility.yul\":23413:23427   */\n      add\n        /* \"#utility.yul\":23398:23427   */\n      swap1\n      pop\n        /* \"#utility.yul\":23265:23433   */\n      swap3\n      swap2\n      pop\n      pop\n      jump\t// out\n        /* \"#utility.yul\":23439:23578   */\n    tag_242:\n        /* \"#utility.yul\":23528:23534   */\n      dup3\n        /* \"#utility.yul\":23523:23526   */\n      dup2\n        /* \"#utility.yul\":23518:23521   */\n      dup4\n        /* \"#utility.yul\":23512:23535   */\n      mcopy\n        /* \"#utility.yul\":23569:23570   */\n      0x00\n        /* \"#utility.yul\":23560:23566   */\n      dup4\n        /* \"#utility.yul\":23555:23558   */\n      dup4\n        /* \"#utility.yul\":23551:23567   */\n      add\n        /* \"#utility.yul\":23544:23571   */\n      mstore\n        /* \"#utility.yul\":23439:23578   */\n      pop\n      pop\n      pop\n      jump\t// out\n        /* \"#utility.yul\":23584:23957   */\n    tag_243:\n        /* \"#utility.yul\":23670:23673   */\n      0x00\n        /* \"#utility.yul\":23698:23736   */\n      tag_450\n        /* \"#utility.yul\":23730:23735   */\n      dup3\n        /* \"#utility.yul\":23698:23736   */\n      tag_240\n      jump\t// in\n    tag_450:\n        /* \"#utility.yul\":23752:23822   */\n      tag_451\n        /* \"#utility.yul\":23815:23821   */\n      dup2\n        /* \"#utility.yul\":23810:23813   */\n      dup6\n        /* \"#utility.yul\":23752:23822   */\n      tag_241\n      jump\t// in\n    tag_451:\n        /* \"#utility.yul\":23745:23822   */\n      swap4\n      pop\n        /* \"#utility.yul\":23831:23896   */\n      tag_452\n        /* \"#utility.yul\":23889:23895   */\n      dup2\n        /* \"#utility.yul\":23884:23887   */\n      dup6\n        /* \"#utility.yul\":23877:23881   */\n      0x20\n        /* \"#utility.yul\":23870:23875   */\n      dup7\n        /* \"#utility.yul\":23866:23882   */\n      add\n        /* \"#utility.yul\":23831:23896   */\n      tag_242\n      jump\t// in\n    tag_452:\n        /* \"#utility.yul\":23921:23950   */\n      tag_453\n        /* \"#utility.yul\":23943:23949   */\n      dup2\n        /* \"#utility.yul\":23921:23950   */\n      tag_186\n      jump\t// in\n    tag_453:\n        /* \"#utility.yul\":23916:23919   */\n      dup5\n        /* \"#utility.yul\":23912:23951   */\n      add\n        /* \"#utility.yul\":23905:23951   */\n      swap2\n      pop\n        /* \"#utility.yul\":23674:23957   */\n      pop\n        /* \"#utility.yul\":23584:23957   */\n      swap3\n      swap2\n      pop\n      pop\n      jump\t// out\n        /* \"#utility.yul\":23963:24591   */\n    tag_158:\n        /* \"#utility.yul\":24152:24156   */\n      0x00\n        /* \"#utility.yul\":24190:24193   */\n      0x80\n        /* \"#utility.yul\":24179:24188   */\n      dup3\n        /* \"#utility.yul\":24175:24194   */\n      add\n        /* \"#utility.yul\":24167:24194   */\n      swap1\n      pop\n        /* \"#utility.yul\":24204:24273   */\n      tag_455\n        /* \"#utility.yul\":24270:24271   */\n      0x00\n        /* \"#utility.yul\":24259:24268   */\n      dup4\n        /* \"#utility.yul\":24255:24272   */\n      add\n        /* \"#utility.yul\":24246:24252   */\n      dup8\n        /* \"#utility.yul\":24204:24273   */\n      tag_236\n      jump\t// in\n    tag_455:\n        /* \"#utility.yul\":24283:24353   */\n      tag_456\n        /* \"#utility.yul\":24349:24351   */\n      0x20\n        /* \"#utility.yul\":24338:24347   */\n      dup4\n        /* \"#utility.yul\":24334:24352   */\n      add\n        /* \"#utility.yul\":24325:24331   */\n      dup7\n        /* \"#utility.yul\":24283:24353   */\n      tag_239\n      jump\t// in\n    tag_456:\n        /* \"#utility.yul\":24363:24433   */\n      tag_457\n        /* \"#utility.yul\":24429:24431   */\n      0x40\n        /* \"#utility.yul\":24418:24427   */\n      dup4\n        /* \"#utility.yul\":24414:24432   */\n      add\n        /* \"#utility.yul\":24405:24411   */\n      dup6\n        /* \"#utility.yul\":24363:24433   */\n      tag_236\n      jump\t// in\n    tag_457:\n        /* \"#utility.yul\":24480:24489   */\n      dup2\n        /* \"#utility.yul\":24474:24478   */\n      dup2\n        /* \"#utility.yul\":24470:24490   */\n      sub\n        /* \"#utility.yul\":24465:24467   */\n      0x60\n        /* \"#utility.yul\":24454:24463   */\n      dup4\n        /* \"#utility.yul\":24450:24468   */\n      add\n        /* \"#utility.yul\":24443:24491   */\n      mstore\n        /* \"#utility.yul\":24508:24584   */\n      tag_458\n        /* \"#utility.yul\":24579:24583   */\n      dup2\n        /* \"#utility.yul\":24570:24576   */\n      dup5\n        /* \"#utility.yul\":24508:24584   */\n      tag_243\n      jump\t// in\n    tag_458:\n        /* \"#utility.yul\":24500:24584   */\n      swap1\n      pop\n        /* \"#utility.yul\":23963:24591   */\n      swap6\n      swap5\n      pop\n      pop\n      pop\n      pop\n      pop\n      jump\t// out\n        /* \"#utility.yul\":24597:25126   */\n    tag_160:\n        /* \"#utility.yul\":24764:24768   */\n      0x00\n        /* \"#utility.yul\":24802:24804   */\n      0x60\n        /* \"#utility.yul\":24791:24800   */\n      dup3\n        /* \"#utility.yul\":24787:24805   */\n      add\n        /* \"#utility.yul\":24779:24805   */\n      swap1\n      pop\n        /* \"#utility.yul\":24815:24886   */\n      tag_460\n        /* \"#utility.yul\":24883:24884   */\n      0x00\n        /* \"#utility.yul\":24872:24881   */\n      dup4\n        /* \"#utility.yul\":24868:24885   */\n      add\n        /* \"#utility.yul\":24859:24865   */\n      dup7\n        /* \"#utility.yul\":24815:24886   */\n      tag_207\n      jump\t// in\n    tag_460:\n        /* \"#utility.yul\":24896:24968   */\n      tag_461\n        /* \"#utility.yul\":24964:24966   */\n      0x20\n        /* \"#utility.yul\":24953:24962   */\n      dup4\n        /* \"#utility.yul\":24949:24967   */\n      add\n        /* \"#utility.yul\":24940:24946   */\n      dup6\n        /* \"#utility.yul\":24896:24968   */\n      tag_175\n      jump\t// in\n    tag_461:\n        /* \"#utility.yul\":25015:25024   */\n      dup2\n        /* \"#utility.yul\":25009:25013   */\n      dup2\n        /* \"#utility.yul\":25005:25025   */\n      sub\n        /* \"#utility.yul\":25000:25002   */\n      0x40\n        /* \"#utility.yul\":24989:24998   */\n      dup4\n        /* \"#utility.yul\":24985:25003   */\n      add\n        /* \"#utility.yul\":24978:25026   */\n      mstore\n        /* \"#utility.yul\":25043:25119   */\n      tag_462\n        /* \"#utility.yul\":25114:25118   */\n      dup2\n        /* \"#utility.yul\":25105:25111   */\n      dup5\n        /* \"#utility.yul\":25043:25119   */\n      tag_243\n      jump\t// in\n    tag_462:\n        /* \"#utility.yul\":25035:25119   */\n      swap1\n      pop\n        /* \"#utility.yul\":24597:25126   */\n      swap5\n      swap4\n      pop\n      pop\n      pop\n      pop\n      jump\t// out\n        /* \"#utility.yul\":25132:25248   */\n    tag_244:\n        /* \"#utility.yul\":25202:25223   */\n      tag_464\n        /* \"#utility.yul\":25217:25222   */\n      dup2\n        /* \"#utility.yul\":25202:25223   */\n      tag_176\n      jump\t// in\n    tag_464:\n        /* \"#utility.yul\":25195:25200   */\n      dup2\n        /* \"#utility.yul\":25192:25224   */\n      eq\n        /* \"#utility.yul\":25182:25242   */\n      tag_465\n      jumpi\n        /* \"#utility.yul\":25238:25239   */\n      0x00\n        /* \"#utility.yul\":25235:25236   */\n      0x00\n        /* \"#utility.yul\":25228:25240   */\n      revert\n        /* \"#utility.yul\":25182:25242   */\n    tag_465:\n        /* \"#utility.yul\":25132:25248   */\n      pop\n      jump\t// out\n        /* \"#utility.yul\":25254:25391   */\n    tag_245:\n        /* \"#utility.yul\":25308:25313   */\n      0x00\n        /* \"#utility.yul\":25339:25345   */\n      dup2\n        /* \"#utility.yul\":25333:25346   */\n      mload\n        /* \"#utility.yul\":25324:25346   */\n      swap1\n      pop\n        /* \"#utility.yul\":25355:25385   */\n      tag_467\n        /* \"#utility.yul\":25379:25384   */\n      dup2\n        /* \"#utility.yul\":25355:25385   */\n      tag_244\n      jump\t// in\n    tag_467:\n        /* \"#utility.yul\":25254:25391   */\n      swap3\n      swap2\n      pop\n      pop\n      jump\t// out\n        /* \"#utility.yul\":25397:25742   */\n    tag_164:\n        /* \"#utility.yul\":25464:25470   */\n      0x00\n        /* \"#utility.yul\":25513:25515   */\n      0x20\n        /* \"#utility.yul\":25501:25510   */\n      dup3\n        /* \"#utility.yul\":25492:25499   */\n      dup5\n        /* \"#utility.yul\":25488:25511   */\n      sub\n        /* \"#utility.yul\":25484:25516   */\n      slt\n        /* \"#utility.yul\":25481:25600   */\n      iszero\n      tag_469\n      jumpi\n        /* \"#utility.yul\":25519:25598   */\n      tag_470\n      tag_181\n      jump\t// in\n    tag_470:\n        /* \"#utility.yul\":25481:25600   */\n    tag_469:\n        /* \"#utility.yul\":25639:25640   */\n      0x00\n        /* \"#utility.yul\":25664:25725   */\n      tag_471\n        /* \"#utility.yul\":25717:25724   */\n      dup5\n        /* \"#utility.yul\":25708:25714   */\n      dup3\n        /* \"#utility.yul\":25697:25706   */\n      dup6\n        /* \"#utility.yul\":25693:25715   */\n      add\n        /* \"#utility.yul\":25664:25725   */\n      tag_245\n      jump\t// in\n    tag_471:\n        /* \"#utility.yul\":25654:25725   */\n      swap2\n      pop\n        /* \"#utility.yul\":25610:25735   */\n      pop\n        /* \"#utility.yul\":25397:25742   */\n      swap3\n      swap2\n      pop\n      pop\n      jump\t// out\n        /* \"#utility.yul\":25748:25928   */\n    tag_246:\n        /* \"#utility.yul\":25796:25873   */\n      0x4e487b7100000000000000000000000000000000000000000000000000000000\n        /* \"#utility.yul\":25793:25794   */\n      0x00\n        /* \"#utility.yul\":25786:25874   */\n      mstore\n        /* \"#utility.yul\":25893:25897   */\n      0x12\n        /* \"#utility.yul\":25890:25891   */\n      0x04\n        /* \"#utility.yul\":25883:25898   */\n      mstore\n        /* \"#utility.yul\":25917:25921   */\n      0x24\n        /* \"#utility.yul\":25914:25915   */\n      0x00\n        /* \"#utility.yul\":25907:25922   */\n      revert\n        /* \"#utility.yul\":25934:26110   */\n    tag_170:\n        /* \"#utility.yul\":25966:25967   */\n      0x00\n        /* \"#utility.yul\":25983:26003   */\n      tag_474\n        /* \"#utility.yul\":26001:26002   */\n      dup3\n        /* \"#utility.yul\":25983:26003   */\n      tag_174\n      jump\t// in\n    tag_474:\n        /* \"#utility.yul\":25978:26003   */\n      swap2\n      pop\n        /* \"#utility.yul\":26017:26037   */\n      tag_475\n        /* \"#utility.yul\":26035:26036   */\n      dup4\n        /* \"#utility.yul\":26017:26037   */\n      tag_174\n      jump\t// in\n    tag_475:\n        /* \"#utility.yul\":26012:26037   */\n      swap3\n      pop\n        /* \"#utility.yul\":26056:26057   */\n      dup3\n        /* \"#utility.yul\":26046:26081   */\n      tag_476\n      jumpi\n        /* \"#utility.yul\":26061:26079   */\n      tag_477\n      tag_246\n      jump\t// in\n    tag_477:\n        /* \"#utility.yul\":26046:26081   */\n    tag_476:\n        /* \"#utility.yul\":26102:26103   */\n      dup3\n        /* \"#utility.yul\":26099:26100   */\n      dup3\n        /* \"#utility.yul\":26095:26104   */\n      mod\n        /* \"#utility.yul\":26090:26104   */\n      swap1\n      pop\n        /* \"#utility.yul\":25934:26110   */\n      swap3\n      swap2\n      pop\n      pop\n      jump\t// out\n\n    auxdata: 0xa2646970667358221220ac672fc69826cfcfcbdd355d459fce9807e1cb657f8f01227a29ba022909674e64736f6c634300081e0033\n}\n",
				"bytecode": {
					"linkReferences": {},
					"object": "60c0604052674563918244f4000067ffffffffffffffff1660035566354a6ba7a1800060045f6101000a81548167ffffffffffffffff021916908367ffffffffffffffff1602179055505f600b5f6101000a81548160ff02191690831515021790555034801561006d575f5ffd5b50604051611d0b380380611d0b833981810160405281019061008f9190610251565b805f8190508073ffffffffffffffffffffffffffffffffffffffff16631c4695f46040518163ffffffff1660e01b8152600401602060405180830381865afa1580156100dd573d5f5f3e3d5ffd5b505050506040513d601f19601f8201168201806040525081019061010191906102a1565b73ffffffffffffffffffffffffffffffffffffffff1660808173ffffffffffffffffffffffffffffffffffffffff16815250508073ffffffffffffffffffffffffffffffffffffffff1660a08173ffffffffffffffffffffffffffffffffffffffff168152505050503360025f6101000a81548173ffffffffffffffffffffffffffffffffffffffff021916908373ffffffffffffffffffffffffffffffffffffffff1602179055508260098190555081600a819055505050506102cc565b5f5ffd5b5f819050919050565b6101d6816101c4565b81146101e0575f5ffd5b50565b5f815190506101f1816101cd565b92915050565b5f73ffffffffffffffffffffffffffffffffffffffff82169050919050565b5f610220826101f7565b9050919050565b61023081610216565b811461023a575f5ffd5b50565b5f8151905061024b81610227565b92915050565b5f5f5f60608486031215610268576102676101c0565b5b5f610275868287016101e3565b9350506020610286868287016101e3565b92505060406102978682870161023d565b9150509250925092565b5f602082840312156102b6576102b56101c0565b5b5f6102c38482850161023d565b91505092915050565b60805160a0516119fb6103105f395f8181610377015281816106be01528181610b1c01528181610bf40152610c9b01525f818161088a0152610bb801526119fb5ff3fe6080604052600436106100e6575f3560e01c80636ac5db1911610089578063be9a655511610058578063be9a6555146102a8578063e76d5168146102be578063f437bc59146102e8578063f889794514610312576100e6565b80636ac5db191461020e5780636c77f98914610238578063877f4e12146102425780639ed0868d1461027e576100e6565b80631eecd934116100c55780631eecd934146101685780631fe543e31461019257806342619f66146101ba578063630d1833146101e4576100e6565b80626d6cae146100ea57806312065fe01461011457806312fa6feb1461013e575b5f5ffd5b3480156100f5575f5ffd5b506100fe61033c565b60405161010b9190610da0565b60405180910390f35b34801561011f575f5ffd5b50610128610342565b6040516101359190610da0565b60405180910390f35b348015610149575f5ffd5b50610152610349565b60405161015f9190610dd3565b60405180910390f35b348015610173575f5ffd5b5061017c61035b565b6040516101899190610e0e565b60405180910390f35b34801561019d575f5ffd5b506101b860048036038101906101b39190610fb2565b610374565b005b3480156101c5575f5ffd5b506101ce610419565b6040516101db9190610da0565b60405180910390f35b3480156101ef575f5ffd5b506101f861041f565b6040516102059190610e0e565b60405180910390f35b348015610219575f5ffd5b5061022261042b565b60405161022f9190610da0565b60405180910390f35b610240610431565b005b34801561024d575f5ffd5b5061026860048036038101906102639190611066565b61069f565b6040516102759190610dd3565b60405180910390f35b348015610289575f5ffd5b506102926106bc565b60405161029f91906110ec565b60405180910390f35b3480156102b3575f5ffd5b506102bc6106e0565b005b3480156102c9575f5ffd5b506102d2610887565b6040516102df9190611125565b60405180910390f35b3480156102f3575f5ffd5b506102fc6108ae565b604051610309919061115e565b60405180910390f35b34801561031d575f5ffd5b506103266108d3565b6040516103339190610da0565b60405180910390f35b60085481565b5f47905090565b600b5f9054906101000a900460ff1681565b60045f9054906101000a900467ffffffffffffffff1681565b5f7f000000000000000000000000000000000000000000000000000000000000000090508073ffffffffffffffffffffffffffffffffffffffff163373ffffffffffffffffffffffffffffffffffffffff161461040a5733816040517f8ba9316e000000000000000000000000000000000000000000000000000000008152600401610401929190611186565b60405180910390fd5b61041483836108d9565b505050565b60075481565b674563918244f4000081565b600a5481565b600b5f9054906101000a900460ff1615610480576040517f08c379a000000000000000000000000000000000000000000000000000000000815260040161047790611207565b60405180910390fd5b60045f9054906101000a900467ffffffffffffffff1667ffffffffffffffff1634146104e1576040517f08c379a00000000000000000000000000000000000000000000000000000000081526004016104d89061126f565b60405180910390fd5b600a545f8054905010610529576040517f08c379a0000000000000000000000000000000000000000000000000000000008152600401610520906112d7565b60405180910390fd5b60015f3373ffffffffffffffffffffffffffffffffffffffff1673ffffffffffffffffffffffffffffffffffffffff1681526020019081526020015f205f9054906101000a900460ff16156105b3576040517f08c379a00000000000000000000000000000000000000000000000000000000081526004016105aa90611365565b60405180910390fd5b5f33908060018154018082558091505060019003905f5260205f20015f9091909190916101000a81548173ffffffffffffffffffffffffffffffffffffffff021916908373ffffffffffffffffffffffffffffffffffffffff1602179055506001805f3373ffffffffffffffffffffffffffffffffffffffff1673ffffffffffffffffffffffffffffffffffffffff1681526020019081526020015f205f6101000a81548160ff0219169083151502179055507f5d7fe1cbbc608689987406644ee6a48ea79e623710c4c184fc02aa6370ad5ed63360405161069591906113cd565b60405180910390a1565b6001602052805f5260405f205f915054906101000a900460ff1681565b7f000000000000000000000000000000000000000000000000000000000000000081565b60025f9054906101000a900473ffffffffffffffffffffffffffffffffffffffff1673ffffffffffffffffffffffffffffffffffffffff163373ffffffffffffffffffffffffffffffffffffffff161461076f576040517f08c379a000000000000000000000000000000000000000000000000000000000815260040161076690611443565b60405180910390fd5b600b5f9054906101000a900460ff16156107be576040517f08c379a00000000000000000000000000000000000000000000000000000000081526004016107b5906114ab565b60405180910390fd5b6009545f805490501015610807576040517f08c379a00000000000000000000000000000000000000000000000000000000081526004016107fe90611539565b60405180910390fd5b5f5f805490501161084d576040517f08c379a0000000000000000000000000000000000000000000000000000000008152600401610844906115a1565b60405180910390fd5b5f61086760405180602001604052805f1515815250610a80565b905061087a620186a06003600184610b18565b5060085f82919050555050565b5f7f0000000000000000000000000000000000000000000000000000000000000000905090565b60025f9054906101000a900473ffffffffffffffffffffffffffffffffffffffff1681565b60095481565b5f81511161091c576040517f08c379a000000000000000000000000000000000000000000000000000000000815260040161091390611609565b60405180910390fd5b5f5f8054905011610962576040517f08c379a000000000000000000000000000000000000000000000000000000000815260040161095990611671565b60405180910390fd5b805f815181106109755761097461168f565b5b60200260200101516007819055505f61098c610d31565b90507f6f2ef2e5aa9339a9d2fc1e8c9b2924cd1e974fd3dbd59f2d86f241820b7dbd7681674563918244f400006040516109c79291906116bc565b60405180910390a16001600b5f6101000a81548160ff021916908315150217905550600354341015610a2e576040517f08c379a0000000000000000000000000000000000000000000000000000000008152600401610a259061172d565b60405180910390fd5b8073ffffffffffffffffffffffffffffffffffffffff166108fc60035490811502906040515f60405180830381858888f19350505050158015610a73573d5f5f3e3d5ffd5b505f600381905550505050565b60607f92fd13387c7fe7befbc38d303d6468778fb9731bc4583f17d92989c6fcfdeaaa82604051602401610ab49190611774565b604051602081830303815290604052907bffffffffffffffffffffffffffffffffffffffffffffffffffffffff19166020820180517bffffffffffffffffffffffffffffffffffffffffffffffffffffffff83818316178352505050509050919050565b5f5f7f000000000000000000000000000000000000000000000000000000000000000073ffffffffffffffffffffffffffffffffffffffff166327e5c50a87866040518363ffffffff1660e01b8152600401610b759291906117ab565b602060405180830381865afa158015610b90573d5f5f3e3d5ffd5b505050506040513d601f19601f82011682018060405250810190610bb491906117e6565b90507f000000000000000000000000000000000000000000000000000000000000000073ffffffffffffffffffffffffffffffffffffffff16634000aea07f00000000000000000000000000000000000000000000000000000000000000008389898989604051602001610c2b949392919061188d565b6040516020818303038152906040526040518463ffffffff1660e01b8152600401610c58939291906118d7565b6020604051808303815f875af1158015610c74573d5f5f3e3d5ffd5b505050506040513d601f19601f82011682018060405250810190610c98919061193d565b507f000000000000000000000000000000000000000000000000000000000000000073ffffffffffffffffffffffffffffffffffffffff1663fc2a88c36040518163ffffffff1660e01b8152600401602060405180830381865afa158015610d02573d5f5f3e3d5ffd5b505050506040513d601f19601f82011682018060405250810190610d2691906117e6565b915094509492505050565b5f5f5f80549050600754610d459190611995565b90505f8181548110610d5a57610d5961168f565b5b905f5260205f20015f9054906101000a900473ffffffffffffffffffffffffffffffffffffffff1691505090565b5f819050919050565b610d9a81610d88565b82525050565b5f602082019050610db35f830184610d91565b92915050565b5f8115159050919050565b610dcd81610db9565b82525050565b5f602082019050610de65f830184610dc4565b92915050565b5f67ffffffffffffffff82169050919050565b610e0881610dec565b82525050565b5f602082019050610e215f830184610dff565b92915050565b5f604051905090565b5f5ffd5b5f5ffd5b610e4181610d88565b8114610e4b575f5ffd5b50565b5f81359050610e5c81610e38565b92915050565b5f5ffd5b5f601f19601f8301169050919050565b7f4e487b71000000000000000000000000000000000000000000000000000000005f52604160045260245ffd5b610eac82610e66565b810181811067ffffffffffffffff82111715610ecb57610eca610e76565b5b80604052505050565b5f610edd610e27565b9050610ee98282610ea3565b919050565b5f67ffffffffffffffff821115610f0857610f07610e76565b5b602082029050602081019050919050565b5f5ffd5b5f610f2f610f2a84610eee565b610ed4565b90508083825260208201905060208402830185811115610f5257610f51610f19565b5b835b81811015610f7b5780610f678882610e4e565b845260208401935050602081019050610f54565b5050509392505050565b5f82601f830112610f9957610f98610e62565b5b8135610fa9848260208601610f1d565b91505092915050565b5f5f60408385031215610fc857610fc7610e30565b5b5f610fd585828601610e4e565b925050602083013567ffffffffffffffff811115610ff657610ff5610e34565b5b61100285828601610f85565b9150509250929050565b5f73ffffffffffffffffffffffffffffffffffffffff82169050919050565b5f6110358261100c565b9050919050565b6110458161102b565b811461104f575f5ffd5b50565b5f813590506110608161103c565b92915050565b5f6020828403121561107b5761107a610e30565b5b5f61108884828501611052565b91505092915050565b5f819050919050565b5f6110b46110af6110aa8461100c565b611091565b61100c565b9050919050565b5f6110c58261109a565b9050919050565b5f6110d6826110bb565b9050919050565b6110e6816110cc565b82525050565b5f6020820190506110ff5f8301846110dd565b92915050565b5f61110f826110bb565b9050919050565b61111f81611105565b82525050565b5f6020820190506111385f830184611116565b92915050565b5f6111488261100c565b9050919050565b6111588161113e565b82525050565b5f6020820190506111715f83018461114f565b92915050565b6111808161102b565b82525050565b5f6040820190506111995f830185611177565b6111a66020830184611177565b9392505050565b5f82825260208201905092915050565b7f4c6f74746572792068617320656e6465642e00000000000000000000000000005f82015250565b5f6111f16012836111ad565b91506111fc826111bd565b602082019050919050565b5f6020820190508181035f83015261121e816111e5565b9050919050565b7f57726f6e6720416d6f756e742e000000000000000000000000000000000000005f82015250565b5f611259600d836111ad565b915061126482611225565b602082019050919050565b5f6020820190508181035f8301526112868161124d565b9050919050565b7f54686973206c6f74746572792069732066756c6c2e00000000000000000000005f82015250565b5f6112c16015836111ad565b91506112cc8261128d565b602082019050919050565b5f6020820190508181035f8301526112ee816112b5565b9050919050565b7f596f75206861766520616c7265616479206a6f696e65642074686973206c6f745f8201527f746572792e000000000000000000000000000000000000000000000000000000602082015250565b5f61134f6025836111ad565b915061135a826112f5565b604082019050919050565b5f6020820190508181035f83015261137c81611343565b9050919050565b7f6a6f696e656400000000000000000000000000000000000000000000000000005f82015250565b5f6113b76006836111ad565b91506113c282611383565b602082019050919050565b5f6040820190506113e05f830184611177565b81810360208301526113f1816113ab565b905092915050565b7f596f7520617265206e6f742074686520686f73742e00000000000000000000005f82015250565b5f61142d6015836111ad565b9150611438826113f9565b602082019050919050565b5f6020820190508181035f83015261145a81611421565b9050919050565b7f4c6f74746572792068617320616c726561647920656e646564000000000000005f82015250565b5f6114956019836111ad565b91506114a082611461565b602082019050919050565b5f6020820190508181035f8301526114c281611489565b9050919050565b7f546865726520617265206e6f7420656e6f7567682070656f706c6520746f20735f8201527f746172742074686973206c6f7474657279000000000000000000000000000000602082015250565b5f6115236031836111ad565b915061152e826114c9565b604082019050919050565b5f6020820190508181035f83015261155081611517565b9050919050565b7f4e6f207061727469636970616e747300000000000000000000000000000000005f82015250565b5f61158b600f836111ad565b915061159682611557565b602082019050919050565b5f6020820190508181035f8301526115b88161157f565b9050919050565b7f4e6f2072616e646f6d20776f7264732072656365697665642e000000000000005f82015250565b5f6115f36019836111ad565b91506115fe826115bf565b602082019050919050565b5f6020820190508181035f830152611620816115e7565b9050919050565b7f4e6f207061727469636970616e74732e000000000000000000000000000000005f82015250565b5f61165b6010836111ad565b915061166682611627565b602082019050919050565b5f6020820190508181035f8301526116888161164f565b9050919050565b7f4e487b71000000000000000000000000000000000000000000000000000000005f52603260045260245ffd5b5f6040820190506116cf5f830185611177565b6116dc6020830184610dff565b9392505050565b7f4661696c656420746f2073656e64207072697a6520616d6f756e742e000000005f82015250565b5f611717601c836111ad565b9150611722826116e3565b602082019050919050565b5f6020820190508181035f8301526117448161170b565b9050919050565b61175481610db9565b82525050565b602082015f82015161176e5f85018261174b565b50505050565b5f6020820190506117875f83018461175a565b92915050565b5f63ffffffff82169050919050565b6117a58161178d565b82525050565b5f6040820190506117be5f83018561179c565b6117cb602083018461179c565b9392505050565b5f815190506117e081610e38565b92915050565b5f602082840312156117fb576117fa610e30565b5b5f611808848285016117d2565b91505092915050565b5f61ffff82169050919050565b61182781611811565b82525050565b5f81519050919050565b5f82825260208201905092915050565b8281835e5f83830152505050565b5f61185f8261182d565b6118698185611837565b9350611879818560208601611847565b61188281610e66565b840191505092915050565b5f6080820190506118a05f83018761179c565b6118ad602083018661181e565b6118ba604083018561179c565b81810360608301526118cc8184611855565b905095945050505050565b5f6060820190506118ea5f830186611177565b6118f76020830185610d91565b81810360408301526119098184611855565b9050949350505050565b61191c81610db9565b8114611926575f5ffd5b50565b5f8151905061193781611913565b92915050565b5f6020828403121561195257611951610e30565b5b5f61195f84828501611929565b91505092915050565b7f4e487b71000000000000000000000000000000000000000000000000000000005f52601260045260245ffd5b5f61199f82610d88565b91506119aa83610d88565b9250826119ba576119b9611968565b5b82820690509291505056fea2646970667358221220ac672fc69826cfcfcbdd355d459fce9807e1cb657f8f01227a29ba022909674e64736f6c634300081e0033",
					"opcodes": "PUSH1 0xC0 PUSH1 0x40 MSTORE PUSH8 0x4563918244F40000 PUSH8 0xFFFFFFFFFFFFFFFF AND PUSH1 0x3 SSTORE PUSH7 0x354A6BA7A18000 PUSH1 0x4 PUSH0 PUSH2 0x100 EXP DUP2 SLOAD DUP2 PUSH8 0xFFFFFFFFFFFFFFFF MUL NOT AND SWAP1 DUP4 PUSH8 0xFFFFFFFFFFFFFFFF AND MUL OR SWAP1 SSTORE POP PUSH0 PUSH1 0xB PUSH0 PUSH2 0x100 EXP DUP2 SLOAD DUP2 PUSH1 0xFF MUL NOT AND SWAP1 DUP4 ISZERO ISZERO MUL OR SWAP1 SSTORE POP CALLVALUE DUP1 ISZERO PUSH2 0x6D JUMPI PUSH0 PUSH0 REVERT JUMPDEST POP PUSH1 0x40 MLOAD PUSH2 0x1D0B CODESIZE SUB DUP1 PUSH2 0x1D0B DUP4 CODECOPY DUP2 DUP2 ADD PUSH1 0x40 MSTORE DUP2 ADD SWAP1 PUSH2 0x8F SWAP2 SWAP1 PUSH2 0x251 JUMP JUMPDEST DUP1 PUSH0 DUP2 SWAP1 POP DUP1 PUSH20 0xFFFFFFFFFFFFFFFFFFFFFFFFFFFFFFFFFFFFFFFF AND PUSH4 0x1C4695F4 PUSH1 0x40 MLOAD DUP2 PUSH4 0xFFFFFFFF AND PUSH1 0xE0 SHL DUP2 MSTORE PUSH1 0x4 ADD PUSH1 0x20 PUSH1 0x40 MLOAD DUP1 DUP4 SUB DUP2 DUP7 GAS STATICCALL ISZERO DUP1 ISZERO PUSH2 0xDD JUMPI RETURNDATASIZE PUSH0 PUSH0 RETURNDATACOPY RETURNDATASIZE PUSH0 REVERT JUMPDEST POP POP POP POP PUSH1 0x40 MLOAD RETURNDATASIZE PUSH1 0x1F NOT PUSH1 0x1F DUP3 ADD AND DUP3 ADD DUP1 PUSH1 0x40 MSTORE POP DUP2 ADD SWAP1 PUSH2 0x101 SWAP2 SWAP1 PUSH2 0x2A1 JUMP JUMPDEST PUSH20 0xFFFFFFFFFFFFFFFFFFFFFFFFFFFFFFFFFFFFFFFF AND PUSH1 0x80 DUP2 PUSH20 0xFFFFFFFFFFFFFFFFFFFFFFFFFFFFFFFFFFFFFFFF AND DUP2 MSTORE POP POP DUP1 PUSH20 0xFFFFFFFFFFFFFFFFFFFFFFFFFFFFFFFFFFFFFFFF AND PUSH1 0xA0 DUP2 PUSH20 0xFFFFFFFFFFFFFFFFFFFFFFFFFFFFFFFFFFFFFFFF AND DUP2 MSTORE POP POP POP POP CALLER PUSH1 0x2 PUSH0 PUSH2 0x100 EXP DUP2 SLOAD DUP2 PUSH20 0xFFFFFFFFFFFFFFFFFFFFFFFFFFFFFFFFFFFFFFFF MUL NOT AND SWAP1 DUP4 PUSH20 0xFFFFFFFFFFFFFFFFFFFFFFFFFFFFFFFFFFFFFFFF AND MUL OR SWAP1 SSTORE POP DUP3 PUSH1 0x9 DUP2 SWAP1 SSTORE POP DUP2 PUSH1 0xA DUP2 SWAP1 SSTORE POP POP POP POP PUSH2 0x2CC JUMP JUMPDEST PUSH0 PUSH0 REVERT JUMPDEST PUSH0 DUP2 SWAP1 POP SWAP2 SWAP1 POP JUMP JUMPDEST PUSH2 0x1D6 DUP2 PUSH2 0x1C4 JUMP JUMPDEST DUP2 EQ PUSH2 0x1E0 JUMPI PUSH0 PUSH0 REVERT JUMPDEST POP JUMP JUMPDEST PUSH0 DUP2 MLOAD SWAP1 POP PUSH2 0x1F1 DUP2 PUSH2 0x1CD JUMP JUMPDEST SWAP3 SWAP2 POP POP JUMP JUMPDEST PUSH0 PUSH20 0xFFFFFFFFFFFFFFFFFFFFFFFFFFFFFFFFFFFFFFFF DUP3 AND SWAP1 POP SWAP2 SWAP1 POP JUMP JUMPDEST PUSH0 PUSH2 0x220 DUP3 PUSH2 0x1F7 JUMP JUMPDEST SWAP1 POP SWAP2 SWAP1 POP JUMP JUMPDEST PUSH2 0x230 DUP2 PUSH2 0x216 JUMP JUMPDEST DUP2 EQ PUSH2 0x23A JUMPI PUSH0 PUSH0 REVERT JUMPDEST POP JUMP JUMPDEST PUSH0 DUP2 MLOAD SWAP1 POP PUSH2 0x24B DUP2 PUSH2 0x227 JUMP JUMPDEST SWAP3 SWAP2 POP POP JUMP JUMPDEST PUSH0 PUSH0 PUSH0 PUSH1 0x60 DUP5 DUP7 SUB SLT ISZERO PUSH2 0x268 JUMPI PUSH2 0x267 PUSH2 0x1C0 JUMP JUMPDEST JUMPDEST PUSH0 PUSH2 0x275 DUP7 DUP3 DUP8 ADD PUSH2 0x1E3 JUMP JUMPDEST SWAP4 POP POP PUSH1 0x20 PUSH2 0x286 DUP7 DUP3 DUP8 ADD PUSH2 0x1E3 JUMP JUMPDEST SWAP3 POP POP PUSH1 0x40 PUSH2 0x297 DUP7 DUP3 DUP8 ADD PUSH2 0x23D JUMP JUMPDEST SWAP2 POP POP SWAP3 POP SWAP3 POP SWAP3 JUMP JUMPDEST PUSH0 PUSH1 0x20 DUP3 DUP5 SUB SLT ISZERO PUSH2 0x2B6 JUMPI PUSH2 0x2B5 PUSH2 0x1C0 JUMP JUMPDEST JUMPDEST PUSH0 PUSH2 0x2C3 DUP5 DUP3 DUP6 ADD PUSH2 0x23D JUMP JUMPDEST SWAP2 POP POP SWAP3 SWAP2 POP POP JUMP JUMPDEST PUSH1 0x80 MLOAD PUSH1 0xA0 MLOAD PUSH2 0x19FB PUSH2 0x310 PUSH0 CODECOPY PUSH0 DUP2 DUP2 PUSH2 0x377 ADD MSTORE DUP2 DUP2 PUSH2 0x6BE ADD MSTORE DUP2 DUP2 PUSH2 0xB1C ADD MSTORE DUP2 DUP2 PUSH2 0xBF4 ADD MSTORE PUSH2 0xC9B ADD MSTORE PUSH0 DUP2 DUP2 PUSH2 0x88A ADD MSTORE PUSH2 0xBB8 ADD MSTORE PUSH2 0x19FB PUSH0 RETURN INVALID PUSH1 0x80 PUSH1 0x40 MSTORE PUSH1 0x4 CALLDATASIZE LT PUSH2 0xE6 JUMPI PUSH0 CALLDATALOAD PUSH1 0xE0 SHR DUP1 PUSH4 0x6AC5DB19 GT PUSH2 0x89 JUMPI DUP1 PUSH4 0xBE9A6555 GT PUSH2 0x58 JUMPI DUP1 PUSH4 0xBE9A6555 EQ PUSH2 0x2A8 JUMPI DUP1 PUSH4 0xE76D5168 EQ PUSH2 0x2BE JUMPI DUP1 PUSH4 0xF437BC59 EQ PUSH2 0x2E8 JUMPI DUP1 PUSH4 0xF8897945 EQ PUSH2 0x312 JUMPI PUSH2 0xE6 JUMP JUMPDEST DUP1 PUSH4 0x6AC5DB19 EQ PUSH2 0x20E JUMPI DUP1 PUSH4 0x6C77F989 EQ PUSH2 0x238 JUMPI DUP1 PUSH4 0x877F4E12 EQ PUSH2 0x242 JUMPI DUP1 PUSH4 0x9ED0868D EQ PUSH2 0x27E JUMPI PUSH2 0xE6 JUMP JUMPDEST DUP1 PUSH4 0x1EECD934 GT PUSH2 0xC5 JUMPI DUP1 PUSH4 0x1EECD934 EQ PUSH2 0x168 JUMPI DUP1 PUSH4 0x1FE543E3 EQ PUSH2 0x192 JUMPI DUP1 PUSH4 0x42619F66 EQ PUSH2 0x1BA JUMPI DUP1 PUSH4 0x630D1833 EQ PUSH2 0x1E4 JUMPI PUSH2 0xE6 JUMP JUMPDEST DUP1 PUSH3 0x6D6CAE EQ PUSH2 0xEA JUMPI DUP1 PUSH4 0x12065FE0 EQ PUSH2 0x114 JUMPI DUP1 PUSH4 0x12FA6FEB EQ PUSH2 0x13E JUMPI JUMPDEST PUSH0 PUSH0 REVERT JUMPDEST CALLVALUE DUP1 ISZERO PUSH2 0xF5 JUMPI PUSH0 PUSH0 REVERT JUMPDEST POP PUSH2 0xFE PUSH2 0x33C JUMP JUMPDEST PUSH1 0x40 MLOAD PUSH2 0x10B SWAP2 SWAP1 PUSH2 0xDA0 JUMP JUMPDEST PUSH1 0x40 MLOAD DUP1 SWAP2 SUB SWAP1 RETURN JUMPDEST CALLVALUE DUP1 ISZERO PUSH2 0x11F JUMPI PUSH0 PUSH0 REVERT JUMPDEST POP PUSH2 0x128 PUSH2 0x342 JUMP JUMPDEST PUSH1 0x40 MLOAD PUSH2 0x135 SWAP2 SWAP1 PUSH2 0xDA0 JUMP JUMPDEST PUSH1 0x40 MLOAD DUP1 SWAP2 SUB SWAP1 RETURN JUMPDEST CALLVALUE DUP1 ISZERO PUSH2 0x149 JUMPI PUSH0 PUSH0 REVERT JUMPDEST POP PUSH2 0x152 PUSH2 0x349 JUMP JUMPDEST PUSH1 0x40 MLOAD PUSH2 0x15F SWAP2 SWAP1 PUSH2 0xDD3 JUMP JUMPDEST PUSH1 0x40 MLOAD DUP1 SWAP2 SUB SWAP1 RETURN JUMPDEST CALLVALUE DUP1 ISZERO PUSH2 0x173 JUMPI PUSH0 PUSH0 REVERT JUMPDEST POP PUSH2 0x17C PUSH2 0x35B JUMP JUMPDEST PUSH1 0x40 MLOAD PUSH2 0x189 SWAP2 SWAP1 PUSH2 0xE0E JUMP JUMPDEST PUSH1 0x40 MLOAD DUP1 SWAP2 SUB SWAP1 RETURN JUMPDEST CALLVALUE DUP1 ISZERO PUSH2 0x19D JUMPI PUSH0 PUSH0 REVERT JUMPDEST POP PUSH2 0x1B8 PUSH1 0x4 DUP1 CALLDATASIZE SUB DUP2 ADD SWAP1 PUSH2 0x1B3 SWAP2 SWAP1 PUSH2 0xFB2 JUMP JUMPDEST PUSH2 0x374 JUMP JUMPDEST STOP JUMPDEST CALLVALUE DUP1 ISZERO PUSH2 0x1C5 JUMPI PUSH0 PUSH0 REVERT JUMPDEST POP PUSH2 0x1CE PUSH2 0x419 JUMP JUMPDEST PUSH1 0x40 MLOAD PUSH2 0x1DB SWAP2 SWAP1 PUSH2 0xDA0 JUMP JUMPDEST PUSH1 0x40 MLOAD DUP1 SWAP2 SUB SWAP1 RETURN JUMPDEST CALLVALUE DUP1 ISZERO PUSH2 0x1EF JUMPI PUSH0 PUSH0 REVERT JUMPDEST POP PUSH2 0x1F8 PUSH2 0x41F JUMP JUMPDEST PUSH1 0x40 MLOAD PUSH2 0x205 SWAP2 SWAP1 PUSH2 0xE0E JUMP JUMPDEST PUSH1 0x40 MLOAD DUP1 SWAP2 SUB SWAP1 RETURN JUMPDEST CALLVALUE DUP1 ISZERO PUSH2 0x219 JUMPI PUSH0 PUSH0 REVERT JUMPDEST POP PUSH2 0x222 PUSH2 0x42B JUMP JUMPDEST PUSH1 0x40 MLOAD PUSH2 0x22F SWAP2 SWAP1 PUSH2 0xDA0 JUMP JUMPDEST PUSH1 0x40 MLOAD DUP1 SWAP2 SUB SWAP1 RETURN JUMPDEST PUSH2 0x240 PUSH2 0x431 JUMP JUMPDEST STOP JUMPDEST CALLVALUE DUP1 ISZERO PUSH2 0x24D JUMPI PUSH0 PUSH0 REVERT JUMPDEST POP PUSH2 0x268 PUSH1 0x4 DUP1 CALLDATASIZE SUB DUP2 ADD SWAP1 PUSH2 0x263 SWAP2 SWAP1 PUSH2 0x1066 JUMP JUMPDEST PUSH2 0x69F JUMP JUMPDEST PUSH1 0x40 MLOAD PUSH2 0x275 SWAP2 SWAP1 PUSH2 0xDD3 JUMP JUMPDEST PUSH1 0x40 MLOAD DUP1 SWAP2 SUB SWAP1 RETURN JUMPDEST CALLVALUE DUP1 ISZERO PUSH2 0x289 JUMPI PUSH0 PUSH0 REVERT JUMPDEST POP PUSH2 0x292 PUSH2 0x6BC JUMP JUMPDEST PUSH1 0x40 MLOAD PUSH2 0x29F SWAP2 SWAP1 PUSH2 0x10EC JUMP JUMPDEST PUSH1 0x40 MLOAD DUP1 SWAP2 SUB SWAP1 RETURN JUMPDEST CALLVALUE DUP1 ISZERO PUSH2 0x2B3 JUMPI PUSH0 PUSH0 REVERT JUMPDEST POP PUSH2 0x2BC PUSH2 0x6E0 JUMP JUMPDEST STOP JUMPDEST CALLVALUE DUP1 ISZERO PUSH2 0x2C9 JUMPI PUSH0 PUSH0 REVERT JUMPDEST POP PUSH2 0x2D2 PUSH2 0x887 JUMP JUMPDEST PUSH1 0x40 MLOAD PUSH2 0x2DF SWAP2 SWAP1 PUSH2 0x1125 JUMP JUMPDEST PUSH1 0x40 MLOAD DUP1 SWAP2 SUB SWAP1 RETURN JUMPDEST CALLVALUE DUP1 ISZERO PUSH2 0x2F3 JUMPI PUSH0 PUSH0 REVERT JUMPDEST POP PUSH2 0x2FC PUSH2 0x8AE JUMP JUMPDEST PUSH1 0x40 MLOAD PUSH2 0x309 SWAP2 SWAP1 PUSH2 0x115E JUMP JUMPDEST PUSH1 0x40 MLOAD DUP1 SWAP2 SUB SWAP1 RETURN JUMPDEST CALLVALUE DUP1 ISZERO PUSH2 0x31D JUMPI PUSH0 PUSH0 REVERT JUMPDEST POP PUSH2 0x326 PUSH2 0x8D3 JUMP JUMPDEST PUSH1 0x40 MLOAD PUSH2 0x333 SWAP2 SWAP1 PUSH2 0xDA0 JUMP JUMPDEST PUSH1 0x40 MLOAD DUP1 SWAP2 SUB SWAP1 RETURN JUMPDEST PUSH1 0x8 SLOAD DUP2 JUMP JUMPDEST PUSH0 SELFBALANCE SWAP1 POP SWAP1 JUMP JUMPDEST PUSH1 0xB PUSH0 SWAP1 SLOAD SWAP1 PUSH2 0x100 EXP SWAP1 DIV PUSH1 0xFF AND DUP2 JUMP JUMPDEST PUSH1 0x4 PUSH0 SWAP1 SLOAD SWAP1 PUSH2 0x100 EXP SWAP1 DIV PUSH8 0xFFFFFFFFFFFFFFFF AND DUP2 JUMP JUMPDEST PUSH0 PUSH32 0x0 SWAP1 POP DUP1 PUSH20 0xFFFFFFFFFFFFFFFFFFFFFFFFFFFFFFFFFFFFFFFF AND CALLER PUSH20 0xFFFFFFFFFFFFFFFFFFFFFFFFFFFFFFFFFFFFFFFF AND EQ PUSH2 0x40A JUMPI CALLER DUP2 PUSH1 0x40 MLOAD PUSH32 0x8BA9316E00000000000000000000000000000000000000000000000000000000 DUP2 MSTORE PUSH1 0x4 ADD PUSH2 0x401 SWAP3 SWAP2 SWAP1 PUSH2 0x1186 JUMP JUMPDEST PUSH1 0x40 MLOAD DUP1 SWAP2 SUB SWAP1 REVERT JUMPDEST PUSH2 0x414 DUP4 DUP4 PUSH2 0x8D9 JUMP JUMPDEST POP POP POP JUMP JUMPDEST PUSH1 0x7 SLOAD DUP2 JUMP JUMPDEST PUSH8 0x4563918244F40000 DUP2 JUMP JUMPDEST PUSH1 0xA SLOAD DUP2 JUMP JUMPDEST PUSH1 0xB PUSH0 SWAP1 SLOAD SWAP1 PUSH2 0x100 EXP SWAP1 DIV PUSH1 0xFF AND ISZERO PUSH2 0x480 JUMPI PUSH1 0x40 MLOAD PUSH32 0x8C379A000000000000000000000000000000000000000000000000000000000 DUP2 MSTORE PUSH1 0x4 ADD PUSH2 0x477 SWAP1 PUSH2 0x1207 JUMP JUMPDEST PUSH1 0x40 MLOAD DUP1 SWAP2 SUB SWAP1 REVERT JUMPDEST PUSH1 0x4 PUSH0 SWAP1 SLOAD SWAP1 PUSH2 0x100 EXP SWAP1 DIV PUSH8 0xFFFFFFFFFFFFFFFF AND PUSH8 0xFFFFFFFFFFFFFFFF AND CALLVALUE EQ PUSH2 0x4E1 JUMPI PUSH1 0x40 MLOAD PUSH32 0x8C379A000000000000000000000000000000000000000000000000000000000 DUP2 MSTORE PUSH1 0x4 ADD PUSH2 0x4D8 SWAP1 PUSH2 0x126F JUMP JUMPDEST PUSH1 0x40 MLOAD DUP1 SWAP2 SUB SWAP1 REVERT JUMPDEST PUSH1 0xA SLOAD PUSH0 DUP1 SLOAD SWAP1 POP LT PUSH2 0x529 JUMPI PUSH1 0x40 MLOAD PUSH32 0x8C379A000000000000000000000000000000000000000000000000000000000 DUP2 MSTORE PUSH1 0x4 ADD PUSH2 0x520 SWAP1 PUSH2 0x12D7 JUMP JUMPDEST PUSH1 0x40 MLOAD DUP1 SWAP2 SUB SWAP1 REVERT JUMPDEST PUSH1 0x1 PUSH0 CALLER PUSH20 0xFFFFFFFFFFFFFFFFFFFFFFFFFFFFFFFFFFFFFFFF AND PUSH20 0xFFFFFFFFFFFFFFFFFFFFFFFFFFFFFFFFFFFFFFFF AND DUP2 MSTORE PUSH1 0x20 ADD SWAP1 DUP2 MSTORE PUSH1 0x20 ADD PUSH0 KECCAK256 PUSH0 SWAP1 SLOAD SWAP1 PUSH2 0x100 EXP SWAP1 DIV PUSH1 0xFF AND ISZERO PUSH2 0x5B3 JUMPI PUSH1 0x40 MLOAD PUSH32 0x8C379A000000000000000000000000000000000000000000000000000000000 DUP2 MSTORE PUSH1 0x4 ADD PUSH2 0x5AA SWAP1 PUSH2 0x1365 JUMP JUMPDEST PUSH1 0x40 MLOAD DUP1 SWAP2 SUB SWAP1 REVERT JUMPDEST PUSH0 CALLER SWAP1 DUP1 PUSH1 0x1 DUP2 SLOAD ADD DUP1 DUP3 SSTORE DUP1 SWAP2 POP POP PUSH1 0x1 SWAP1 SUB SWAP1 PUSH0 MSTORE PUSH1 0x20 PUSH0 KECCAK256 ADD PUSH0 SWAP1 SWAP2 SWAP1 SWAP2 SWAP1 SWAP2 PUSH2 0x100 EXP DUP2 SLOAD DUP2 PUSH20 0xFFFFFFFFFFFFFFFFFFFFFFFFFFFFFFFFFFFFFFFF MUL NOT AND SWAP1 DUP4 PUSH20 0xFFFFFFFFFFFFFFFFFFFFFFFFFFFFFFFFFFFFFFFF AND MUL OR SWAP1 SSTORE POP PUSH1 0x1 DUP1 PUSH0 CALLER PUSH20 0xFFFFFFFFFFFFFFFFFFFFFFFFFFFFFFFFFFFFFFFF AND PUSH20 0xFFFFFFFFFFFFFFFFFFFFFFFFFFFFFFFFFFFFFFFF AND DUP2 MSTORE PUSH1 0x20 ADD SWAP1 DUP2 MSTORE PUSH1 0x20 ADD PUSH0 KECCAK256 PUSH0 PUSH2 0x100 EXP DUP2 SLOAD DUP2 PUSH1 0xFF MUL NOT AND SWAP1 DUP4 ISZERO ISZERO MUL OR SWAP1 SSTORE POP PUSH32 0x5D7FE1CBBC608689987406644EE6A48EA79E623710C4C184FC02AA6370AD5ED6 CALLER PUSH1 0x40 MLOAD PUSH2 0x695 SWAP2 SWAP1 PUSH2 0x13CD JUMP JUMPDEST PUSH1 0x40 MLOAD DUP1 SWAP2 SUB SWAP1 LOG1 JUMP JUMPDEST PUSH1 0x1 PUSH1 0x20 MSTORE DUP1 PUSH0 MSTORE PUSH1 0x40 PUSH0 KECCAK256 PUSH0 SWAP2 POP SLOAD SWAP1 PUSH2 0x100 EXP SWAP1 DIV PUSH1 0xFF AND DUP2 JUMP JUMPDEST PUSH32 0x0 DUP2 JUMP JUMPDEST PUSH1 0x2 PUSH0 SWAP1 SLOAD SWAP1 PUSH2 0x100 EXP SWAP1 DIV PUSH20 0xFFFFFFFFFFFFFFFFFFFFFFFFFFFFFFFFFFFFFFFF AND PUSH20 0xFFFFFFFFFFFFFFFFFFFFFFFFFFFFFFFFFFFFFFFF AND CALLER PUSH20 0xFFFFFFFFFFFFFFFFFFFFFFFFFFFFFFFFFFFFFFFF AND EQ PUSH2 0x76F JUMPI PUSH1 0x40 MLOAD PUSH32 0x8C379A000000000000000000000000000000000000000000000000000000000 DUP2 MSTORE PUSH1 0x4 ADD PUSH2 0x766 SWAP1 PUSH2 0x1443 JUMP JUMPDEST PUSH1 0x40 MLOAD DUP1 SWAP2 SUB SWAP1 REVERT JUMPDEST PUSH1 0xB PUSH0 SWAP1 SLOAD SWAP1 PUSH2 0x100 EXP SWAP1 DIV PUSH1 0xFF AND ISZERO PUSH2 0x7BE JUMPI PUSH1 0x40 MLOAD PUSH32 0x8C379A000000000000000000000000000000000000000000000000000000000 DUP2 MSTORE PUSH1 0x4 ADD PUSH2 0x7B5 SWAP1 PUSH2 0x14AB JUMP JUMPDEST PUSH1 0x40 MLOAD DUP1 SWAP2 SUB SWAP1 REVERT JUMPDEST PUSH1 0x9 SLOAD PUSH0 DUP1 SLOAD SWAP1 POP LT ISZERO PUSH2 0x807 JUMPI PUSH1 0x40 MLOAD PUSH32 0x8C379A000000000000000000000000000000000000000000000000000000000 DUP2 MSTORE PUSH1 0x4 ADD PUSH2 0x7FE SWAP1 PUSH2 0x1539 JUMP JUMPDEST PUSH1 0x40 MLOAD DUP1 SWAP2 SUB SWAP1 REVERT JUMPDEST PUSH0 PUSH0 DUP1 SLOAD SWAP1 POP GT PUSH2 0x84D JUMPI PUSH1 0x40 MLOAD PUSH32 0x8C379A000000000000000000000000000000000000000000000000000000000 DUP2 MSTORE PUSH1 0x4 ADD PUSH2 0x844 SWAP1 PUSH2 0x15A1 JUMP JUMPDEST PUSH1 0x40 MLOAD DUP1 SWAP2 SUB SWAP1 REVERT JUMPDEST PUSH0 PUSH2 0x867 PUSH1 0x40 MLOAD DUP1 PUSH1 0x20 ADD PUSH1 0x40 MSTORE DUP1 PUSH0 ISZERO ISZERO DUP2 MSTORE POP PUSH2 0xA80 JUMP JUMPDEST SWAP1 POP PUSH2 0x87A PUSH3 0x186A0 PUSH1 0x3 PUSH1 0x1 DUP5 PUSH2 0xB18 JUMP JUMPDEST POP PUSH1 0x8 PUSH0 DUP3 SWAP2 SWAP1 POP SSTORE POP POP JUMP JUMPDEST PUSH0 PUSH32 0x0 SWAP1 POP SWAP1 JUMP JUMPDEST PUSH1 0x2 PUSH0 SWAP1 SLOAD SWAP1 PUSH2 0x100 EXP SWAP1 DIV PUSH20 0xFFFFFFFFFFFFFFFFFFFFFFFFFFFFFFFFFFFFFFFF AND DUP2 JUMP JUMPDEST PUSH1 0x9 SLOAD DUP2 JUMP JUMPDEST PUSH0 DUP2 MLOAD GT PUSH2 0x91C JUMPI PUSH1 0x40 MLOAD PUSH32 0x8C379A000000000000000000000000000000000000000000000000000000000 DUP2 MSTORE PUSH1 0x4 ADD PUSH2 0x913 SWAP1 PUSH2 0x1609 JUMP JUMPDEST PUSH1 0x40 MLOAD DUP1 SWAP2 SUB SWAP1 REVERT JUMPDEST PUSH0 PUSH0 DUP1 SLOAD SWAP1 POP GT PUSH2 0x962 JUMPI PUSH1 0x40 MLOAD PUSH32 0x8C379A000000000000000000000000000000000000000000000000000000000 DUP2 MSTORE PUSH1 0x4 ADD PUSH2 0x959 SWAP1 PUSH2 0x1671 JUMP JUMPDEST PUSH1 0x40 MLOAD DUP1 SWAP2 SUB SWAP1 REVERT JUMPDEST DUP1 PUSH0 DUP2 MLOAD DUP2 LT PUSH2 0x975 JUMPI PUSH2 0x974 PUSH2 0x168F JUMP JUMPDEST JUMPDEST PUSH1 0x20 MUL PUSH1 0x20 ADD ADD MLOAD PUSH1 0x7 DUP2 SWAP1 SSTORE POP PUSH0 PUSH2 0x98C PUSH2 0xD31 JUMP JUMPDEST SWAP1 POP PUSH32 0x6F2EF2E5AA9339A9D2FC1E8C9B2924CD1E974FD3DBD59F2D86F241820B7DBD76 DUP2 PUSH8 0x4563918244F40000 PUSH1 0x40 MLOAD PUSH2 0x9C7 SWAP3 SWAP2 SWAP1 PUSH2 0x16BC JUMP JUMPDEST PUSH1 0x40 MLOAD DUP1 SWAP2 SUB SWAP1 LOG1 PUSH1 0x1 PUSH1 0xB PUSH0 PUSH2 0x100 EXP DUP2 SLOAD DUP2 PUSH1 0xFF MUL NOT AND SWAP1 DUP4 ISZERO ISZERO MUL OR SWAP1 SSTORE POP PUSH1 0x3 SLOAD CALLVALUE LT ISZERO PUSH2 0xA2E JUMPI PUSH1 0x40 MLOAD PUSH32 0x8C379A000000000000000000000000000000000000000000000000000000000 DUP2 MSTORE PUSH1 0x4 ADD PUSH2 0xA25 SWAP1 PUSH2 0x172D JUMP JUMPDEST PUSH1 0x40 MLOAD DUP1 SWAP2 SUB SWAP1 REVERT JUMPDEST DUP1 PUSH20 0xFFFFFFFFFFFFFFFFFFFFFFFFFFFFFFFFFFFFFFFF AND PUSH2 0x8FC PUSH1 0x3 SLOAD SWAP1 DUP2 ISZERO MUL SWAP1 PUSH1 0x40 MLOAD PUSH0 PUSH1 0x40 MLOAD DUP1 DUP4 SUB DUP2 DUP6 DUP9 DUP9 CALL SWAP4 POP POP POP POP ISZERO DUP1 ISZERO PUSH2 0xA73 JUMPI RETURNDATASIZE PUSH0 PUSH0 RETURNDATACOPY RETURNDATASIZE PUSH0 REVERT JUMPDEST POP PUSH0 PUSH1 0x3 DUP2 SWAP1 SSTORE POP POP POP POP JUMP JUMPDEST PUSH1 0x60 PUSH32 0x92FD13387C7FE7BEFBC38D303D6468778FB9731BC4583F17D92989C6FCFDEAAA DUP3 PUSH1 0x40 MLOAD PUSH1 0x24 ADD PUSH2 0xAB4 SWAP2 SWAP1 PUSH2 0x1774 JUMP JUMPDEST PUSH1 0x40 MLOAD PUSH1 0x20 DUP2 DUP4 SUB SUB DUP2 MSTORE SWAP1 PUSH1 0x40 MSTORE SWAP1 PUSH28 0xFFFFFFFFFFFFFFFFFFFFFFFFFFFFFFFFFFFFFFFFFFFFFFFFFFFFFFFF NOT AND PUSH1 0x20 DUP3 ADD DUP1 MLOAD PUSH28 0xFFFFFFFFFFFFFFFFFFFFFFFFFFFFFFFFFFFFFFFFFFFFFFFFFFFFFFFF DUP4 DUP2 DUP4 AND OR DUP4 MSTORE POP POP POP POP SWAP1 POP SWAP2 SWAP1 POP JUMP JUMPDEST PUSH0 PUSH0 PUSH32 0x0 PUSH20 0xFFFFFFFFFFFFFFFFFFFFFFFFFFFFFFFFFFFFFFFF AND PUSH4 0x27E5C50A DUP8 DUP7 PUSH1 0x40 MLOAD DUP4 PUSH4 0xFFFFFFFF AND PUSH1 0xE0 SHL DUP2 MSTORE PUSH1 0x4 ADD PUSH2 0xB75 SWAP3 SWAP2 SWAP1 PUSH2 0x17AB JUMP JUMPDEST PUSH1 0x20 PUSH1 0x40 MLOAD DUP1 DUP4 SUB DUP2 DUP7 GAS STATICCALL ISZERO DUP1 ISZERO PUSH2 0xB90 JUMPI RETURNDATASIZE PUSH0 PUSH0 RETURNDATACOPY RETURNDATASIZE PUSH0 REVERT JUMPDEST POP POP POP POP PUSH1 0x40 MLOAD RETURNDATASIZE PUSH1 0x1F NOT PUSH1 0x1F DUP3 ADD AND DUP3 ADD DUP1 PUSH1 0x40 MSTORE POP DUP2 ADD SWAP1 PUSH2 0xBB4 SWAP2 SWAP1 PUSH2 0x17E6 JUMP JUMPDEST SWAP1 POP PUSH32 0x0 PUSH20 0xFFFFFFFFFFFFFFFFFFFFFFFFFFFFFFFFFFFFFFFF AND PUSH4 0x4000AEA0 PUSH32 0x0 DUP4 DUP10 DUP10 DUP10 DUP10 PUSH1 0x40 MLOAD PUSH1 0x20 ADD PUSH2 0xC2B SWAP5 SWAP4 SWAP3 SWAP2 SWAP1 PUSH2 0x188D JUMP JUMPDEST PUSH1 0x40 MLOAD PUSH1 0x20 DUP2 DUP4 SUB SUB DUP2 MSTORE SWAP1 PUSH1 0x40 MSTORE PUSH1 0x40 MLOAD DUP5 PUSH4 0xFFFFFFFF AND PUSH1 0xE0 SHL DUP2 MSTORE PUSH1 0x4 ADD PUSH2 0xC58 SWAP4 SWAP3 SWAP2 SWAP1 PUSH2 0x18D7 JUMP JUMPDEST PUSH1 0x20 PUSH1 0x40 MLOAD DUP1 DUP4 SUB DUP2 PUSH0 DUP8 GAS CALL ISZERO DUP1 ISZERO PUSH2 0xC74 JUMPI RETURNDATASIZE PUSH0 PUSH0 RETURNDATACOPY RETURNDATASIZE PUSH0 REVERT JUMPDEST POP POP POP POP PUSH1 0x40 MLOAD RETURNDATASIZE PUSH1 0x1F NOT PUSH1 0x1F DUP3 ADD AND DUP3 ADD DUP1 PUSH1 0x40 MSTORE POP DUP2 ADD SWAP1 PUSH2 0xC98 SWAP2 SWAP1 PUSH2 0x193D JUMP JUMPDEST POP PUSH32 0x0 PUSH20 0xFFFFFFFFFFFFFFFFFFFFFFFFFFFFFFFFFFFFFFFF AND PUSH4 0xFC2A88C3 PUSH1 0x40 MLOAD DUP2 PUSH4 0xFFFFFFFF AND PUSH1 0xE0 SHL DUP2 MSTORE PUSH1 0x4 ADD PUSH1 0x20 PUSH1 0x40 MLOAD DUP1 DUP4 SUB DUP2 DUP7 GAS STATICCALL ISZERO DUP1 ISZERO PUSH2 0xD02 JUMPI RETURNDATASIZE PUSH0 PUSH0 RETURNDATACOPY RETURNDATASIZE PUSH0 REVERT JUMPDEST POP POP POP POP PUSH1 0x40 MLOAD RETURNDATASIZE PUSH1 0x1F NOT PUSH1 0x1F DUP3 ADD AND DUP3 ADD DUP1 PUSH1 0x40 MSTORE POP DUP2 ADD SWAP1 PUSH2 0xD26 SWAP2 SWAP1 PUSH2 0x17E6 JUMP JUMPDEST SWAP2 POP SWAP5 POP SWAP5 SWAP3 POP POP POP JUMP JUMPDEST PUSH0 PUSH0 PUSH0 DUP1 SLOAD SWAP1 POP PUSH1 0x7 SLOAD PUSH2 0xD45 SWAP2 SWAP1 PUSH2 0x1995 JUMP JUMPDEST SWAP1 POP PUSH0 DUP2 DUP2 SLOAD DUP2 LT PUSH2 0xD5A JUMPI PUSH2 0xD59 PUSH2 0x168F JUMP JUMPDEST JUMPDEST SWAP1 PUSH0 MSTORE PUSH1 0x20 PUSH0 KECCAK256 ADD PUSH0 SWAP1 SLOAD SWAP1 PUSH2 0x100 EXP SWAP1 DIV PUSH20 0xFFFFFFFFFFFFFFFFFFFFFFFFFFFFFFFFFFFFFFFF AND SWAP2 POP POP SWAP1 JUMP JUMPDEST PUSH0 DUP2 SWAP1 POP SWAP2 SWAP1 POP JUMP JUMPDEST PUSH2 0xD9A DUP2 PUSH2 0xD88 JUMP JUMPDEST DUP3 MSTORE POP POP JUMP JUMPDEST PUSH0 PUSH1 0x20 DUP3 ADD SWAP1 POP PUSH2 0xDB3 PUSH0 DUP4 ADD DUP5 PUSH2 0xD91 JUMP JUMPDEST SWAP3 SWAP2 POP POP JUMP JUMPDEST PUSH0 DUP2 ISZERO ISZERO SWAP1 POP SWAP2 SWAP1 POP JUMP JUMPDEST PUSH2 0xDCD DUP2 PUSH2 0xDB9 JUMP JUMPDEST DUP3 MSTORE POP POP JUMP JUMPDEST PUSH0 PUSH1 0x20 DUP3 ADD SWAP1 POP PUSH2 0xDE6 PUSH0 DUP4 ADD DUP5 PUSH2 0xDC4 JUMP JUMPDEST SWAP3 SWAP2 POP POP JUMP JUMPDEST PUSH0 PUSH8 0xFFFFFFFFFFFFFFFF DUP3 AND SWAP1 POP SWAP2 SWAP1 POP JUMP JUMPDEST PUSH2 0xE08 DUP2 PUSH2 0xDEC JUMP JUMPDEST DUP3 MSTORE POP POP JUMP JUMPDEST PUSH0 PUSH1 0x20 DUP3 ADD SWAP1 POP PUSH2 0xE21 PUSH0 DUP4 ADD DUP5 PUSH2 0xDFF JUMP JUMPDEST SWAP3 SWAP2 POP POP JUMP JUMPDEST PUSH0 PUSH1 0x40 MLOAD SWAP1 POP SWAP1 JUMP JUMPDEST PUSH0 PUSH0 REVERT JUMPDEST PUSH0 PUSH0 REVERT JUMPDEST PUSH2 0xE41 DUP2 PUSH2 0xD88 JUMP JUMPDEST DUP2 EQ PUSH2 0xE4B JUMPI PUSH0 PUSH0 REVERT JUMPDEST POP JUMP JUMPDEST PUSH0 DUP2 CALLDATALOAD SWAP1 POP PUSH2 0xE5C DUP2 PUSH2 0xE38 JUMP JUMPDEST SWAP3 SWAP2 POP POP JUMP JUMPDEST PUSH0 PUSH0 REVERT JUMPDEST PUSH0 PUSH1 0x1F NOT PUSH1 0x1F DUP4 ADD AND SWAP1 POP SWAP2 SWAP1 POP JUMP JUMPDEST PUSH32 0x4E487B7100000000000000000000000000000000000000000000000000000000 PUSH0 MSTORE PUSH1 0x41 PUSH1 0x4 MSTORE PUSH1 0x24 PUSH0 REVERT JUMPDEST PUSH2 0xEAC DUP3 PUSH2 0xE66 JUMP JUMPDEST DUP2 ADD DUP2 DUP2 LT PUSH8 0xFFFFFFFFFFFFFFFF DUP3 GT OR ISZERO PUSH2 0xECB JUMPI PUSH2 0xECA PUSH2 0xE76 JUMP JUMPDEST JUMPDEST DUP1 PUSH1 0x40 MSTORE POP POP POP JUMP JUMPDEST PUSH0 PUSH2 0xEDD PUSH2 0xE27 JUMP JUMPDEST SWAP1 POP PUSH2 0xEE9 DUP3 DUP3 PUSH2 0xEA3 JUMP JUMPDEST SWAP2 SWAP1 POP JUMP JUMPDEST PUSH0 PUSH8 0xFFFFFFFFFFFFFFFF DUP3 GT ISZERO PUSH2 0xF08 JUMPI PUSH2 0xF07 PUSH2 0xE76 JUMP JUMPDEST JUMPDEST PUSH1 0x20 DUP3 MUL SWAP1 POP PUSH1 0x20 DUP2 ADD SWAP1 POP SWAP2 SWAP1 POP JUMP JUMPDEST PUSH0 PUSH0 REVERT JUMPDEST PUSH0 PUSH2 0xF2F PUSH2 0xF2A DUP5 PUSH2 0xEEE JUMP JUMPDEST PUSH2 0xED4 JUMP JUMPDEST SWAP1 POP DUP1 DUP4 DUP3 MSTORE PUSH1 0x20 DUP3 ADD SWAP1 POP PUSH1 0x20 DUP5 MUL DUP4 ADD DUP6 DUP2 GT ISZERO PUSH2 0xF52 JUMPI PUSH2 0xF51 PUSH2 0xF19 JUMP JUMPDEST JUMPDEST DUP4 JUMPDEST DUP2 DUP2 LT ISZERO PUSH2 0xF7B JUMPI DUP1 PUSH2 0xF67 DUP9 DUP3 PUSH2 0xE4E JUMP JUMPDEST DUP5 MSTORE PUSH1 0x20 DUP5 ADD SWAP4 POP POP PUSH1 0x20 DUP2 ADD SWAP1 POP PUSH2 0xF54 JUMP JUMPDEST POP POP POP SWAP4 SWAP3 POP POP POP JUMP JUMPDEST PUSH0 DUP3 PUSH1 0x1F DUP4 ADD SLT PUSH2 0xF99 JUMPI PUSH2 0xF98 PUSH2 0xE62 JUMP JUMPDEST JUMPDEST DUP2 CALLDATALOAD PUSH2 0xFA9 DUP5 DUP3 PUSH1 0x20 DUP7 ADD PUSH2 0xF1D JUMP JUMPDEST SWAP2 POP POP SWAP3 SWAP2 POP POP JUMP JUMPDEST PUSH0 PUSH0 PUSH1 0x40 DUP4 DUP6 SUB SLT ISZERO PUSH2 0xFC8 JUMPI PUSH2 0xFC7 PUSH2 0xE30 JUMP JUMPDEST JUMPDEST PUSH0 PUSH2 0xFD5 DUP6 DUP3 DUP7 ADD PUSH2 0xE4E JUMP JUMPDEST SWAP3 POP POP PUSH1 0x20 DUP4 ADD CALLDATALOAD PUSH8 0xFFFFFFFFFFFFFFFF DUP2 GT ISZERO PUSH2 0xFF6 JUMPI PUSH2 0xFF5 PUSH2 0xE34 JUMP JUMPDEST JUMPDEST PUSH2 0x1002 DUP6 DUP3 DUP7 ADD PUSH2 0xF85 JUMP JUMPDEST SWAP2 POP POP SWAP3 POP SWAP3 SWAP1 POP JUMP JUMPDEST PUSH0 PUSH20 0xFFFFFFFFFFFFFFFFFFFFFFFFFFFFFFFFFFFFFFFF DUP3 AND SWAP1 POP SWAP2 SWAP1 POP JUMP JUMPDEST PUSH0 PUSH2 0x1035 DUP3 PUSH2 0x100C JUMP JUMPDEST SWAP1 POP SWAP2 SWAP1 POP JUMP JUMPDEST PUSH2 0x1045 DUP2 PUSH2 0x102B JUMP JUMPDEST DUP2 EQ PUSH2 0x104F JUMPI PUSH0 PUSH0 REVERT JUMPDEST POP JUMP JUMPDEST PUSH0 DUP2 CALLDATALOAD SWAP1 POP PUSH2 0x1060 DUP2 PUSH2 0x103C JUMP JUMPDEST SWAP3 SWAP2 POP POP JUMP JUMPDEST PUSH0 PUSH1 0x20 DUP3 DUP5 SUB SLT ISZERO PUSH2 0x107B JUMPI PUSH2 0x107A PUSH2 0xE30 JUMP JUMPDEST JUMPDEST PUSH0 PUSH2 0x1088 DUP5 DUP3 DUP6 ADD PUSH2 0x1052 JUMP JUMPDEST SWAP2 POP POP SWAP3 SWAP2 POP POP JUMP JUMPDEST PUSH0 DUP2 SWAP1 POP SWAP2 SWAP1 POP JUMP JUMPDEST PUSH0 PUSH2 0x10B4 PUSH2 0x10AF PUSH2 0x10AA DUP5 PUSH2 0x100C JUMP JUMPDEST PUSH2 0x1091 JUMP JUMPDEST PUSH2 0x100C JUMP JUMPDEST SWAP1 POP SWAP2 SWAP1 POP JUMP JUMPDEST PUSH0 PUSH2 0x10C5 DUP3 PUSH2 0x109A JUMP JUMPDEST SWAP1 POP SWAP2 SWAP1 POP JUMP JUMPDEST PUSH0 PUSH2 0x10D6 DUP3 PUSH2 0x10BB JUMP JUMPDEST SWAP1 POP SWAP2 SWAP1 POP JUMP JUMPDEST PUSH2 0x10E6 DUP2 PUSH2 0x10CC JUMP JUMPDEST DUP3 MSTORE POP POP JUMP JUMPDEST PUSH0 PUSH1 0x20 DUP3 ADD SWAP1 POP PUSH2 0x10FF PUSH0 DUP4 ADD DUP5 PUSH2 0x10DD JUMP JUMPDEST SWAP3 SWAP2 POP POP JUMP JUMPDEST PUSH0 PUSH2 0x110F DUP3 PUSH2 0x10BB JUMP JUMPDEST SWAP1 POP SWAP2 SWAP1 POP JUMP JUMPDEST PUSH2 0x111F DUP2 PUSH2 0x1105 JUMP JUMPDEST DUP3 MSTORE POP POP JUMP JUMPDEST PUSH0 PUSH1 0x20 DUP3 ADD SWAP1 POP PUSH2 0x1138 PUSH0 DUP4 ADD DUP5 PUSH2 0x1116 JUMP JUMPDEST SWAP3 SWAP2 POP POP JUMP JUMPDEST PUSH0 PUSH2 0x1148 DUP3 PUSH2 0x100C JUMP JUMPDEST SWAP1 POP SWAP2 SWAP1 POP JUMP JUMPDEST PUSH2 0x1158 DUP2 PUSH2 0x113E JUMP JUMPDEST DUP3 MSTORE POP POP JUMP JUMPDEST PUSH0 PUSH1 0x20 DUP3 ADD SWAP1 POP PUSH2 0x1171 PUSH0 DUP4 ADD DUP5 PUSH2 0x114F JUMP JUMPDEST SWAP3 SWAP2 POP POP JUMP JUMPDEST PUSH2 0x1180 DUP2 PUSH2 0x102B JUMP JUMPDEST DUP3 MSTORE POP POP JUMP JUMPDEST PUSH0 PUSH1 0x40 DUP3 ADD SWAP1 POP PUSH2 0x1199 PUSH0 DUP4 ADD DUP6 PUSH2 0x1177 JUMP JUMPDEST PUSH2 0x11A6 PUSH1 0x20 DUP4 ADD DUP5 PUSH2 0x1177 JUMP JUMPDEST SWAP4 SWAP3 POP POP POP JUMP JUMPDEST PUSH0 DUP3 DUP3 MSTORE PUSH1 0x20 DUP3 ADD SWAP1 POP SWAP3 SWAP2 POP POP JUMP JUMPDEST PUSH32 0x4C6F74746572792068617320656E6465642E0000000000000000000000000000 PUSH0 DUP3 ADD MSTORE POP JUMP JUMPDEST PUSH0 PUSH2 0x11F1 PUSH1 0x12 DUP4 PUSH2 0x11AD JUMP JUMPDEST SWAP2 POP PUSH2 0x11FC DUP3 PUSH2 0x11BD JUMP JUMPDEST PUSH1 0x20 DUP3 ADD SWAP1 POP SWAP2 SWAP1 POP JUMP JUMPDEST PUSH0 PUSH1 0x20 DUP3 ADD SWAP1 POP DUP2 DUP2 SUB PUSH0 DUP4 ADD MSTORE PUSH2 0x121E DUP2 PUSH2 0x11E5 JUMP JUMPDEST SWAP1 POP SWAP2 SWAP1 POP JUMP JUMPDEST PUSH32 0x57726F6E6720416D6F756E742E00000000000000000000000000000000000000 PUSH0 DUP3 ADD MSTORE POP JUMP JUMPDEST PUSH0 PUSH2 0x1259 PUSH1 0xD DUP4 PUSH2 0x11AD JUMP JUMPDEST SWAP2 POP PUSH2 0x1264 DUP3 PUSH2 0x1225 JUMP JUMPDEST PUSH1 0x20 DUP3 ADD SWAP1 POP SWAP2 SWAP1 POP JUMP JUMPDEST PUSH0 PUSH1 0x20 DUP3 ADD SWAP1 POP DUP2 DUP2 SUB PUSH0 DUP4 ADD MSTORE PUSH2 0x1286 DUP2 PUSH2 0x124D JUMP JUMPDEST SWAP1 POP SWAP2 SWAP1 POP JUMP JUMPDEST PUSH32 0x54686973206C6F74746572792069732066756C6C2E0000000000000000000000 PUSH0 DUP3 ADD MSTORE POP JUMP JUMPDEST PUSH0 PUSH2 0x12C1 PUSH1 0x15 DUP4 PUSH2 0x11AD JUMP JUMPDEST SWAP2 POP PUSH2 0x12CC DUP3 PUSH2 0x128D JUMP JUMPDEST PUSH1 0x20 DUP3 ADD SWAP1 POP SWAP2 SWAP1 POP JUMP JUMPDEST PUSH0 PUSH1 0x20 DUP3 ADD SWAP1 POP DUP2 DUP2 SUB PUSH0 DUP4 ADD MSTORE PUSH2 0x12EE DUP2 PUSH2 0x12B5 JUMP JUMPDEST SWAP1 POP SWAP2 SWAP1 POP JUMP JUMPDEST PUSH32 0x596F75206861766520616C7265616479206A6F696E65642074686973206C6F74 PUSH0 DUP3 ADD MSTORE PUSH32 0x746572792E000000000000000000000000000000000000000000000000000000 PUSH1 0x20 DUP3 ADD MSTORE POP JUMP JUMPDEST PUSH0 PUSH2 0x134F PUSH1 0x25 DUP4 PUSH2 0x11AD JUMP JUMPDEST SWAP2 POP PUSH2 0x135A DUP3 PUSH2 0x12F5 JUMP JUMPDEST PUSH1 0x40 DUP3 ADD SWAP1 POP SWAP2 SWAP1 POP JUMP JUMPDEST PUSH0 PUSH1 0x20 DUP3 ADD SWAP1 POP DUP2 DUP2 SUB PUSH0 DUP4 ADD MSTORE PUSH2 0x137C DUP2 PUSH2 0x1343 JUMP JUMPDEST SWAP1 POP SWAP2 SWAP1 POP JUMP JUMPDEST PUSH32 0x6A6F696E65640000000000000000000000000000000000000000000000000000 PUSH0 DUP3 ADD MSTORE POP JUMP JUMPDEST PUSH0 PUSH2 0x13B7 PUSH1 0x6 DUP4 PUSH2 0x11AD JUMP JUMPDEST SWAP2 POP PUSH2 0x13C2 DUP3 PUSH2 0x1383 JUMP JUMPDEST PUSH1 0x20 DUP3 ADD SWAP1 POP SWAP2 SWAP1 POP JUMP JUMPDEST PUSH0 PUSH1 0x40 DUP3 ADD SWAP1 POP PUSH2 0x13E0 PUSH0 DUP4 ADD DUP5 PUSH2 0x1177 JUMP JUMPDEST DUP2 DUP2 SUB PUSH1 0x20 DUP4 ADD MSTORE PUSH2 0x13F1 DUP2 PUSH2 0x13AB JUMP JUMPDEST SWAP1 POP SWAP3 SWAP2 POP POP JUMP JUMPDEST PUSH32 0x596F7520617265206E6F742074686520686F73742E0000000000000000000000 PUSH0 DUP3 ADD MSTORE POP JUMP JUMPDEST PUSH0 PUSH2 0x142D PUSH1 0x15 DUP4 PUSH2 0x11AD JUMP JUMPDEST SWAP2 POP PUSH2 0x1438 DUP3 PUSH2 0x13F9 JUMP JUMPDEST PUSH1 0x20 DUP3 ADD SWAP1 POP SWAP2 SWAP1 POP JUMP JUMPDEST PUSH0 PUSH1 0x20 DUP3 ADD SWAP1 POP DUP2 DUP2 SUB PUSH0 DUP4 ADD MSTORE PUSH2 0x145A DUP2 PUSH2 0x1421 JUMP JUMPDEST SWAP1 POP SWAP2 SWAP1 POP JUMP JUMPDEST PUSH32 0x4C6F74746572792068617320616C726561647920656E64656400000000000000 PUSH0 DUP3 ADD MSTORE POP JUMP JUMPDEST PUSH0 PUSH2 0x1495 PUSH1 0x19 DUP4 PUSH2 0x11AD JUMP JUMPDEST SWAP2 POP PUSH2 0x14A0 DUP3 PUSH2 0x1461 JUMP JUMPDEST PUSH1 0x20 DUP3 ADD SWAP1 POP SWAP2 SWAP1 POP JUMP JUMPDEST PUSH0 PUSH1 0x20 DUP3 ADD SWAP1 POP DUP2 DUP2 SUB PUSH0 DUP4 ADD MSTORE PUSH2 0x14C2 DUP2 PUSH2 0x1489 JUMP JUMPDEST SWAP1 POP SWAP2 SWAP1 POP JUMP JUMPDEST PUSH32 0x546865726520617265206E6F7420656E6F7567682070656F706C6520746F2073 PUSH0 DUP3 ADD MSTORE PUSH32 0x746172742074686973206C6F7474657279000000000000000000000000000000 PUSH1 0x20 DUP3 ADD MSTORE POP JUMP JUMPDEST PUSH0 PUSH2 0x1523 PUSH1 0x31 DUP4 PUSH2 0x11AD JUMP JUMPDEST SWAP2 POP PUSH2 0x152E DUP3 PUSH2 0x14C9 JUMP JUMPDEST PUSH1 0x40 DUP3 ADD SWAP1 POP SWAP2 SWAP1 POP JUMP JUMPDEST PUSH0 PUSH1 0x20 DUP3 ADD SWAP1 POP DUP2 DUP2 SUB PUSH0 DUP4 ADD MSTORE PUSH2 0x1550 DUP2 PUSH2 0x1517 JUMP JUMPDEST SWAP1 POP SWAP2 SWAP1 POP JUMP JUMPDEST PUSH32 0x4E6F207061727469636970616E74730000000000000000000000000000000000 PUSH0 DUP3 ADD MSTORE POP JUMP JUMPDEST PUSH0 PUSH2 0x158B PUSH1 0xF DUP4 PUSH2 0x11AD JUMP JUMPDEST SWAP2 POP PUSH2 0x1596 DUP3 PUSH2 0x1557 JUMP JUMPDEST PUSH1 0x20 DUP3 ADD SWAP1 POP SWAP2 SWAP1 POP JUMP JUMPDEST PUSH0 PUSH1 0x20 DUP3 ADD SWAP1 POP DUP2 DUP2 SUB PUSH0 DUP4 ADD MSTORE PUSH2 0x15B8 DUP2 PUSH2 0x157F JUMP JUMPDEST SWAP1 POP SWAP2 SWAP1 POP JUMP JUMPDEST PUSH32 0x4E6F2072616E646F6D20776F7264732072656365697665642E00000000000000 PUSH0 DUP3 ADD MSTORE POP JUMP JUMPDEST PUSH0 PUSH2 0x15F3 PUSH1 0x19 DUP4 PUSH2 0x11AD JUMP JUMPDEST SWAP2 POP PUSH2 0x15FE DUP3 PUSH2 0x15BF JUMP JUMPDEST PUSH1 0x20 DUP3 ADD SWAP1 POP SWAP2 SWAP1 POP JUMP JUMPDEST PUSH0 PUSH1 0x20 DUP3 ADD SWAP1 POP DUP2 DUP2 SUB PUSH0 DUP4 ADD MSTORE PUSH2 0x1620 DUP2 PUSH2 0x15E7 JUMP JUMPDEST SWAP1 POP SWAP2 SWAP1 POP JUMP JUMPDEST PUSH32 0x4E6F207061727469636970616E74732E00000000000000000000000000000000 PUSH0 DUP3 ADD MSTORE POP JUMP JUMPDEST PUSH0 PUSH2 0x165B PUSH1 0x10 DUP4 PUSH2 0x11AD JUMP JUMPDEST SWAP2 POP PUSH2 0x1666 DUP3 PUSH2 0x1627 JUMP JUMPDEST PUSH1 0x20 DUP3 ADD SWAP1 POP SWAP2 SWAP1 POP JUMP JUMPDEST PUSH0 PUSH1 0x20 DUP3 ADD SWAP1 POP DUP2 DUP2 SUB PUSH0 DUP4 ADD MSTORE PUSH2 0x1688 DUP2 PUSH2 0x164F JUMP JUMPDEST SWAP1 POP SWAP2 SWAP1 POP JUMP JUMPDEST PUSH32 0x4E487B7100000000000000000000000000000000000000000000000000000000 PUSH0 MSTORE PUSH1 0x32 PUSH1 0x4 MSTORE PUSH1 0x24 PUSH0 REVERT JUMPDEST PUSH0 PUSH1 0x40 DUP3 ADD SWAP1 POP PUSH2 0x16CF PUSH0 DUP4 ADD DUP6 PUSH2 0x1177 JUMP JUMPDEST PUSH2 0x16DC PUSH1 0x20 DUP4 ADD DUP5 PUSH2 0xDFF JUMP JUMPDEST SWAP4 SWAP3 POP POP POP JUMP JUMPDEST PUSH32 0x4661696C656420746F2073656E64207072697A6520616D6F756E742E00000000 PUSH0 DUP3 ADD MSTORE POP JUMP JUMPDEST PUSH0 PUSH2 0x1717 PUSH1 0x1C DUP4 PUSH2 0x11AD JUMP JUMPDEST SWAP2 POP PUSH2 0x1722 DUP3 PUSH2 0x16E3 JUMP JUMPDEST PUSH1 0x20 DUP3 ADD SWAP1 POP SWAP2 SWAP1 POP JUMP JUMPDEST PUSH0 PUSH1 0x20 DUP3 ADD SWAP1 POP DUP2 DUP2 SUB PUSH0 DUP4 ADD MSTORE PUSH2 0x1744 DUP2 PUSH2 0x170B JUMP JUMPDEST SWAP1 POP SWAP2 SWAP1 POP JUMP JUMPDEST PUSH2 0x1754 DUP2 PUSH2 0xDB9 JUMP JUMPDEST DUP3 MSTORE POP POP JUMP JUMPDEST PUSH1 0x20 DUP3 ADD PUSH0 DUP3 ADD MLOAD PUSH2 0x176E PUSH0 DUP6 ADD DUP3 PUSH2 0x174B JUMP JUMPDEST POP POP POP POP JUMP JUMPDEST PUSH0 PUSH1 0x20 DUP3 ADD SWAP1 POP PUSH2 0x1787 PUSH0 DUP4 ADD DUP5 PUSH2 0x175A JUMP JUMPDEST SWAP3 SWAP2 POP POP JUMP JUMPDEST PUSH0 PUSH4 0xFFFFFFFF DUP3 AND SWAP1 POP SWAP2 SWAP1 POP JUMP JUMPDEST PUSH2 0x17A5 DUP2 PUSH2 0x178D JUMP JUMPDEST DUP3 MSTORE POP POP JUMP JUMPDEST PUSH0 PUSH1 0x40 DUP3 ADD SWAP1 POP PUSH2 0x17BE PUSH0 DUP4 ADD DUP6 PUSH2 0x179C JUMP JUMPDEST PUSH2 0x17CB PUSH1 0x20 DUP4 ADD DUP5 PUSH2 0x179C JUMP JUMPDEST SWAP4 SWAP3 POP POP POP JUMP JUMPDEST PUSH0 DUP2 MLOAD SWAP1 POP PUSH2 0x17E0 DUP2 PUSH2 0xE38 JUMP JUMPDEST SWAP3 SWAP2 POP POP JUMP JUMPDEST PUSH0 PUSH1 0x20 DUP3 DUP5 SUB SLT ISZERO PUSH2 0x17FB JUMPI PUSH2 0x17FA PUSH2 0xE30 JUMP JUMPDEST JUMPDEST PUSH0 PUSH2 0x1808 DUP5 DUP3 DUP6 ADD PUSH2 0x17D2 JUMP JUMPDEST SWAP2 POP POP SWAP3 SWAP2 POP POP JUMP JUMPDEST PUSH0 PUSH2 0xFFFF DUP3 AND SWAP1 POP SWAP2 SWAP1 POP JUMP JUMPDEST PUSH2 0x1827 DUP2 PUSH2 0x1811 JUMP JUMPDEST DUP3 MSTORE POP POP JUMP JUMPDEST PUSH0 DUP2 MLOAD SWAP1 POP SWAP2 SWAP1 POP JUMP JUMPDEST PUSH0 DUP3 DUP3 MSTORE PUSH1 0x20 DUP3 ADD SWAP1 POP SWAP3 SWAP2 POP POP JUMP JUMPDEST DUP3 DUP2 DUP4 MCOPY PUSH0 DUP4 DUP4 ADD MSTORE POP POP POP JUMP JUMPDEST PUSH0 PUSH2 0x185F DUP3 PUSH2 0x182D JUMP JUMPDEST PUSH2 0x1869 DUP2 DUP6 PUSH2 0x1837 JUMP JUMPDEST SWAP4 POP PUSH2 0x1879 DUP2 DUP6 PUSH1 0x20 DUP7 ADD PUSH2 0x1847 JUMP JUMPDEST PUSH2 0x1882 DUP2 PUSH2 0xE66 JUMP JUMPDEST DUP5 ADD SWAP2 POP POP SWAP3 SWAP2 POP POP JUMP JUMPDEST PUSH0 PUSH1 0x80 DUP3 ADD SWAP1 POP PUSH2 0x18A0 PUSH0 DUP4 ADD DUP8 PUSH2 0x179C JUMP JUMPDEST PUSH2 0x18AD PUSH1 0x20 DUP4 ADD DUP7 PUSH2 0x181E JUMP JUMPDEST PUSH2 0x18BA PUSH1 0x40 DUP4 ADD DUP6 PUSH2 0x179C JUMP JUMPDEST DUP2 DUP2 SUB PUSH1 0x60 DUP4 ADD MSTORE PUSH2 0x18CC DUP2 DUP5 PUSH2 0x1855 JUMP JUMPDEST SWAP1 POP SWAP6 SWAP5 POP POP POP POP POP JUMP JUMPDEST PUSH0 PUSH1 0x60 DUP3 ADD SWAP1 POP PUSH2 0x18EA PUSH0 DUP4 ADD DUP7 PUSH2 0x1177 JUMP JUMPDEST PUSH2 0x18F7 PUSH1 0x20 DUP4 ADD DUP6 PUSH2 0xD91 JUMP JUMPDEST DUP2 DUP2 SUB PUSH1 0x40 DUP4 ADD MSTORE PUSH2 0x1909 DUP2 DUP5 PUSH2 0x1855 JUMP JUMPDEST SWAP1 POP SWAP5 SWAP4 POP POP POP POP JUMP JUMPDEST PUSH2 0x191C DUP2 PUSH2 0xDB9 JUMP JUMPDEST DUP2 EQ PUSH2 0x1926 JUMPI PUSH0 PUSH0 REVERT JUMPDEST POP JUMP JUMPDEST PUSH0 DUP2 MLOAD SWAP1 POP PUSH2 0x1937 DUP2 PUSH2 0x1913 JUMP JUMPDEST SWAP3 SWAP2 POP POP JUMP JUMPDEST PUSH0 PUSH1 0x20 DUP3 DUP5 SUB SLT ISZERO PUSH2 0x1952 JUMPI PUSH2 0x1951 PUSH2 0xE30 JUMP JUMPDEST JUMPDEST PUSH0 PUSH2 0x195F DUP5 DUP3 DUP6 ADD PUSH2 0x1929 JUMP JUMPDEST SWAP2 POP POP SWAP3 SWAP2 POP POP JUMP JUMPDEST PUSH32 0x4E487B7100000000000000000000000000000000000000000000000000000000 PUSH0 MSTORE PUSH1 0x12 PUSH1 0x4 MSTORE PUSH1 0x24 PUSH0 REVERT JUMPDEST PUSH0 PUSH2 0x199F DUP3 PUSH2 0xD88 JUMP JUMPDEST SWAP2 POP PUSH2 0x19AA DUP4 PUSH2 0xD88 JUMP JUMPDEST SWAP3 POP DUP3 PUSH2 0x19BA JUMPI PUSH2 0x19B9 PUSH2 0x1968 JUMP JUMPDEST JUMPDEST DUP3 DUP3 MOD SWAP1 POP SWAP3 SWAP2 POP POP JUMP INVALID LOG2 PUSH5 0x6970667358 0x22 SLT KECCAK256 0xAC PUSH8 0x2FC69826CFCFCBDD CALLDATALOAD TSTORE GASLIMIT SWAP16 0xCE SWAP9 SMOD RJUMPI 0xCB65 PUSH32 0x8F01227A29BA022909674E64736F6C634300081E003300000000000000000000 "
				},
				"gasEstimates": {
					"creation": {
						"codeDepositCost": "1330200",
						"executionCost": "infinite",
						"totalCost": "infinite"
					},
					"external": {
						"ended()": "2534",
						"getBalance()": "380",
						"getLinkToken()": "infinite",
						"hasJoined(address)": "2900",
						"host()": "2574",
						"i_vrfV2PlusWrapper()": "infinite",
						"joinLottery()": "86083",
						"max()": "2448",
						"min()": "2513",
						"monetaryPrize()": "420",
						"randomResult()": "2492",
						"rawFulfillRandomWords(uint256,uint256[])": "infinite",
						"requestId()": "2449",
						"start()": "infinite",
						"ticketCost()": "2489"
					},
					"internal": {
						"findWinner()": "infinite",
						"fulfillRandomWords(uint256,uint256[] memory)": "infinite",
						"getParticipant(address)": "infinite"
					}
				},
				"methodIdentifiers": {
					"ended()": "12fa6feb",
					"getBalance()": "12065fe0",
					"getLinkToken()": "e76d5168",
					"hasJoined(address)": "877f4e12",
					"host()": "f437bc59",
					"i_vrfV2PlusWrapper()": "9ed0868d",
					"joinLottery()": "6c77f989",
					"max()": "6ac5db19",
					"min()": "f8897945",
					"monetaryPrize()": "630d1833",
					"randomResult()": "42619f66",
					"rawFulfillRandomWords(uint256,uint256[])": "1fe543e3",
					"requestId()": "006d6cae",
					"start()": "be9a6555",
					"ticketCost()": "1eecd934"
				}
			},
			"storageLayout": {
				"storage": [
					{
						"astId": 419,
						"contract": "contract/Lottery.sol:Lottery",
						"label": "participants",
						"offset": 0,
						"slot": "0",
						"type": "t_array(t_address)dyn_storage"
					},
					{
						"astId": 423,
						"contract": "contract/Lottery.sol:Lottery",
						"label": "hasJoined",
						"offset": 0,
						"slot": "1",
						"type": "t_mapping(t_address,t_bool)"
					},
					{
						"astId": 425,
						"contract": "contract/Lottery.sol:Lottery",
						"label": "host",
						"offset": 0,
						"slot": "2",
						"type": "t_address_payable"
					},
					{
						"astId": 431,
						"contract": "contract/Lottery.sol:Lottery",
						"label": "amountToSend",
						"offset": 0,
						"slot": "3",
						"type": "t_uint256"
					},
					{
						"astId": 434,
						"contract": "contract/Lottery.sol:Lottery",
						"label": "ticketCost",
						"offset": 0,
						"slot": "4",
						"type": "t_uint64"
					},
					{
						"astId": 448,
						"contract": "contract/Lottery.sol:Lottery",
						"label": "keyHash",
						"offset": 0,
						"slot": "5",
						"type": "t_bytes32"
					},
					{
						"astId": 450,
						"contract": "contract/Lottery.sol:Lottery",
						"label": "fee",
						"offset": 0,
						"slot": "6",
						"type": "t_uint256"
					},
					{
						"astId": 452,
						"contract": "contract/Lottery.sol:Lottery",
						"label": "randomResult",
						"offset": 0,
						"slot": "7",
						"type": "t_uint256"
					},
					{
						"astId": 454,
						"contract": "contract/Lottery.sol:Lottery",
						"label": "requestId",
						"offset": 0,
						"slot": "8",
						"type": "t_uint256"
					},
					{
						"astId": 456,
						"contract": "contract/Lottery.sol:Lottery",
						"label": "min",
						"offset": 0,
						"slot": "9",
						"type": "t_uint256"
					},
					{
						"astId": 458,
						"contract": "contract/Lottery.sol:Lottery",
						"label": "max",
						"offset": 0,
						"slot": "10",
						"type": "t_uint256"
					},
					{
						"astId": 461,
						"contract": "contract/Lottery.sol:Lottery",
						"label": "ended",
						"offset": 0,
						"slot": "11",
						"type": "t_bool"
					}
				],
				"types": {
					"t_address": {
						"encoding": "inplace",
						"label": "address",
						"numberOfBytes": "20"
					},
					"t_address_payable": {
						"encoding": "inplace",
						"label": "address payable",
						"numberOfBytes": "20"
					},
					"t_array(t_address)dyn_storage": {
						"base": "t_address",
						"encoding": "dynamic_array",
						"label": "address[]",
						"numberOfBytes": "32"
					},
					"t_bool": {
						"encoding": "inplace",
						"label": "bool",
						"numberOfBytes": "1"
					},
					"t_bytes32": {
						"encoding": "inplace",
						"label": "bytes32",
						"numberOfBytes": "32"
					},
					"t_mapping(t_address,t_bool)": {
						"encoding": "mapping",
						"key": "t_address",
						"label": "mapping(address => bool)",
						"numberOfBytes": "32",
						"value": "t_bool"
					},
					"t_uint256": {
						"encoding": "inplace",
						"label": "uint256",
						"numberOfBytes": "32"
					},
					"t_uint64": {
						"encoding": "inplace",
						"label": "uint64",
						"numberOfBytes": "8"
					}
				}
			},
			"userdoc": {
				"kind": "user",
				"methods": {
					"getBalance()": {
						"notice": "getBalance returns the native balance of the consumer contract"
					},
					"getLinkToken()": {
						"notice": "getLinkToken returns the link token contract"
					}
				},
				"notice": "Lottery with immutability.",
				"version": 1
			}
		}
	}
}