{
	"data": {
		"bytecode": {
			"linkReferences": {},
			"object": "6080604052348015600e575f5ffd5b506102c38061001c5f395ff3fe60806040526004361061001d575f3560e01c8063a48c4ae714610021575b5f5ffd5b61003b6004803603810190610036919061013d565b61003d565b005b8173ffffffffffffffffffffffffffffffffffffffff1663cc957f2834836040518363ffffffff1660e01b81526004016100779190610274565b5f604051808303818588803b15801561008e575f5ffd5b505af11580156100a0573d5f5f3e3d5ffd5b50505050505050565b5f5ffd5b5f73ffffffffffffffffffffffffffffffffffffffff82169050919050565b5f6100d6826100ad565b9050919050565b5f6100e7826100cc565b9050919050565b6100f7816100dd565b8114610101575f5ffd5b50565b5f81359050610112816100ee565b92915050565b5f5ffd5b5f8190508260206005028201111561013757610136610118565b5b92915050565b5f5f60c08385031215610153576101526100a9565b5b5f61016085828601610104565b92505060206101718582860161011c565b9150509250929050565b5f60059050919050565b5f81905092915050565b5f819050919050565b5f60ff82169050919050565b6101ad81610198565b82525050565b5f6101be83836101a4565b60208301905092915050565b6101d381610198565b81146101dd575f5ffd5b50565b5f813590506101ee816101ca565b92915050565b5f61020260208401846101e0565b905092915050565b5f602082019050919050565b61021f8161017b565b6102298184610185565b92506102348261018f565b805f5b8381101561026c5761024982846101f4565b61025387826101b3565b965061025e8361020a565b925050600181019050610237565b505050505050565b5f60a0820190506102875f830184610216565b9291505056fea2646970667358221220d70e20e6521436859bc203ae66e123929a02467f7ffb1f7a79509734f1f20c2164736f6c634300081f0033",
			"opcodes": "PUSH1 0x80 PUSH1 0x40 MSTORE CALLVALUE DUP1 ISZERO PUSH1 0xE JUMPI PUSH0 PUSH0 REVERT JUMPDEST POP PUSH2 0x2C3 DUP1 PUSH2 0x1C PUSH0 CODECOPY PUSH0 RETURN INVALID PUSH1 0x80 PUSH1 0x40 MSTORE PUSH1 0x4 CALLDATASIZE LT PUSH2 0x1D JUMPI PUSH0 CALLDATALOAD PUSH1 0xE0 SHR DUP1 PUSH4 0xA48C4AE7 EQ PUSH2 0x21 JUMPI JUMPDEST PUSH0 PUSH0 REVERT JUMPDEST PUSH2 0x3B PUSH1 0x4 DUP1 CALLDATASIZE SUB DUP2 ADD SWAP1 PUSH2 0x36 SWAP2 SWAP1 PUSH2 0x13D JUMP JUMPDEST PUSH2 0x3D JUMP JUMPDEST STOP JUMPDEST DUP2 PUSH20 0xFFFFFFFFFFFFFFFFFFFFFFFFFFFFFFFFFFFFFFFF AND PUSH4 0xCC957F28 CALLVALUE DUP4 PUSH1 0x40 MLOAD DUP4 PUSH4 0xFFFFFFFF AND PUSH1 0xE0 SHL DUP2 MSTORE PUSH1 0x4 ADD PUSH2 0x77 SWAP2 SWAP1 PUSH2 0x274 JUMP JUMPDEST PUSH0 PUSH1 0x40 MLOAD DUP1 DUP4 SUB DUP2 DUP6 DUP9 DUP1 EXTCODESIZE ISZERO DUP1 ISZERO PUSH2 0x8E JUMPI PUSH0 PUSH0 REVERT JUMPDEST POP GAS CALL ISZERO DUP1 ISZERO PUSH2 0xA0 JUMPI RETURNDATASIZE PUSH0 PUSH0 RETURNDATACOPY RETURNDATASIZE PUSH0 REVERT JUMPDEST POP POP POP POP POP POP POP JUMP JUMPDEST PUSH0 PUSH0 REVERT JUMPDEST PUSH0 PUSH20 0xFFFFFFFFFFFFFFFFFFFFFFFFFFFFFFFFFFFFFFFF DUP3 AND SWAP1 POP SWAP2 SWAP1 POP JUMP JUMPDEST PUSH0 PUSH2 0xD6 DUP3 PUSH2 0xAD JUMP JUMPDEST SWAP1 POP SWAP2 SWAP1 POP JUMP JUMPDEST PUSH0 PUSH2 0xE7 DUP3 PUSH2 0xCC JUMP JUMPDEST SWAP1 POP SWAP2 SWAP1 POP JUMP JUMPDEST PUSH2 0xF7 DUP2 PUSH2 0xDD JUMP JUMPDEST DUP2 EQ PUSH2 0x101 JUMPI PUSH0 PUSH0 REVERT JUMPDEST POP JUMP JUMPDEST PUSH0 DUP2 CALLDATALOAD SWAP1 POP PUSH2 0x112 DUP2 PUSH2 0xEE JUMP JUMPDEST SWAP3 SWAP2 POP POP JUMP JUMPDEST PUSH0 PUSH0 REVERT JUMPDEST PUSH0 DUP2 SWAP1 POP DUP3 PUSH1 0x20 PUSH1 0x5 MUL DUP3 ADD GT ISZERO PUSH2 0x137 JUMPI PUSH2 0x136 PUSH2 0x118 JUMP JUMPDEST JUMPDEST SWAP3 SWAP2 POP POP JUMP JUMPDEST PUSH0 PUSH0 PUSH1 0xC0 DUP4 DUP6 SUB SLT ISZERO PUSH2 0x153 JUMPI PUSH2 0x152 PUSH2 0xA9 JUMP JUMPDEST JUMPDEST PUSH0 PUSH2 0x160 DUP6 DUP3 DUP7 ADD PUSH2 0x104 JUMP JUMPDEST SWAP3 POP POP PUSH1 0x20 PUSH2 0x171 DUP6 DUP3 DUP7 ADD PUSH2 0x11C JUMP JUMPDEST SWAP2 POP POP SWAP3 POP SWAP3 SWAP1 POP JUMP JUMPDEST PUSH0 PUSH1 0x5 SWAP1 POP SWAP2 SWAP1 POP JUMP JUMPDEST PUSH0 DUP2 SWAP1 POP SWAP3 SWAP2 POP POP JUMP JUMPDEST PUSH0 DUP2 SWAP1 POP SWAP2 SWAP1 POP JUMP JUMPDEST PUSH0 PUSH1 0xFF DUP3 AND SWAP1 POP SWAP2 SWAP1 POP JUMP JUMPDEST PUSH2 0x1AD DUP2 PUSH2 0x198 JUMP JUMPDEST DUP3 MSTORE POP POP JUMP JUMPDEST PUSH0 PUSH2 0x1BE DUP4 DUP4 PUSH2 0x1A4 JUMP JUMPDEST PUSH1 0x20 DUP4 ADD SWAP1 POP SWAP3 SWAP2 POP POP JUMP JUMPDEST PUSH2 0x1D3 DUP2 PUSH2 0x198 JUMP JUMPDEST DUP2 EQ PUSH2 0x1DD JUMPI PUSH0 PUSH0 REVERT JUMPDEST POP JUMP JUMPDEST PUSH0 DUP2 CALLDATALOAD SWAP1 POP PUSH2 0x1EE DUP2 PUSH2 0x1CA JUMP JUMPDEST SWAP3 SWAP2 POP POP JUMP JUMPDEST PUSH0 PUSH2 0x202 PUSH1 0x20 DUP5 ADD DUP5 PUSH2 0x1E0 JUMP JUMPDEST SWAP1 POP SWAP3 SWAP2 POP POP JUMP JUMPDEST PUSH0 PUSH1 0x20 DUP3 ADD SWAP1 POP SWAP2 SWAP1 POP JUMP JUMPDEST PUSH2 0x21F DUP2 PUSH2 0x17B JUMP JUMPDEST PUSH2 0x229 DUP2 DUP5 PUSH2 0x185 JUMP JUMPDEST SWAP3 POP PUSH2 0x234 DUP3 PUSH2 0x18F JUMP JUMPDEST DUP1 PUSH0 JUMPDEST DUP4 DUP2 LT ISZERO PUSH2 0x26C JUMPI PUSH2 0x249 DUP3 DUP5 PUSH2 0x1F4 JUMP JUMPDEST PUSH2 0x253 DUP8 DUP3 PUSH2 0x1B3 JUMP JUMPDEST SWAP7 POP PUSH2 0x25E DUP4 PUSH2 0x20A JUMP JUMPDEST SWAP3 POP POP PUSH1 0x1 DUP2 ADD SWAP1 POP PUSH2 0x237 JUMP JUMPDEST POP POP POP POP POP POP JUMP JUMPDEST PUSH0 PUSH1 0xA0 DUP3 ADD SWAP1 POP PUSH2 0x287 PUSH0 DUP4 ADD DUP5 PUSH2 0x216 JUMP JUMPDEST SWAP3 SWAP2 POP POP JUMP INVALID LOG2 PUSH5 0x6970667358 0x22 SLT KECCAK256 0xD7 0xE KECCAK256 DUPN 0x52 EQ CALLDATASIZE DUP6 SWAP12 0xC2 SUB 0xAE PUSH7 0xE123929A02467F PUSH32 0xFB1F7A79509734F1F20C2164736F6C634300081F003300000000000000000000 "
		},
		"gasEstimates": {
			"creation": {
				"codeDepositCost": "141400",
				"executionCost": "188",
				"totalCost": "141588"
			},
			"external": {
				"buyTicketFor(address,uint8[5])": "infinite"
			}
		},
		"methodIdentifiers": {
			"buyTicketFor(address,uint8[5])": "a48c4ae7"
		}
	},
	"abi": [
		{
			"inputs": [
				{
					"internalType": "contract Lottery",
					"name": "lottery",
					"type": "address"
				},
				{
					"internalType": "uint8[5]",
					"name": "numbers",
					"type": "uint8[5]"
				}
			],
			"name": "buyTicketFor",
			"outputs": [],
			"stateMutability": "payable",
			"type": "function"
		}
	]
}